:020000040801F1
:1000000000000C20197402088118020883180208E5
:1000100085180208871802088918020869740208FE
:1000200000000000000000000000000049C00308BC
:100030008B18020800000000EDBF0308B1BC0308E4
:100040006974020869740208697402086974020814
:100050006974020869740208697402086974020804
:1000600069740208697402086974020869740208F4
:10007000697402088D18020869740208697402081C
:1000800069740208697402086974020869740208D4
:1000900069740208697402086974020869740208C4
:1000A00097180208A3180208AF180208BD18020822
:1000B00000000000CD180208DD180208697402086B
:1000C00069740208ED180208FD1802086974020834
:1000D0006974020869740208697402086974020884
:1000E0006974020869740208697402086974020874
:1000F0006974020869740208697402086974020864
:100100006974020869740208697402086974020853
:100110006974020869740208697402086974020843
:100120006974020869740208697402080D190208EA
:100130001D1902082D190208697402086974020861
:100140006974020869740208697402086974020813
:100150006974020869740208697402086974020803
:1001600069740208697402086974020869740208F3
:1001700069740208697402086974020869740208E3
:1001800069740208697402086974020869740208D3
:1001900069740208697402086974020869740208C3
:1001A00069740208697402086974020869740208B3
:1001B00069740208000000003D1902086974020811
:1001C000697402080000000069740208697402087A
:1001D0006974020869740208697402086974020883
:1001E0006974020869740208697402086974020873
:1001F0000000000000000000697402086974020831
:100200006974020869740208697402086974020852
:100210006974020869740208697402086974020842
:100220006974020869740208697402086974020832
:080230006974020869740208F8
:1002380010B5054C237833B9044B13B10448AFF318
:1002480000800123237010BD00060020000000007C
:100258001492070808B5034B1BB103490348AFF3D1
:10026800008008BD00000000040600201492070862
:1002780010F8012B11F8013B012A28BF9A42F7D048
:10028800D01A7047034613F8012B002AFBD1181A1D
:100298000138704781F0004102E000BF83F000435D
:1002A80030B54FEA41044FEA430594EA050F08BF09
:1002B80090EA020F1FBF54EA000C55EA020C7FEACD
:1002C800645C7FEA655C00F0E2804FEA5454D4EB4A
:1002D8005555B8BF6D420CDD2C4480EA020281EA14
:1002E800030382EA000083EA010180EA020281EA4C
:1002F8000303362D88BF30BD11F0004F4FEA01319E
:100308004FF4801C4CEA113102D0404261EB4101AC
:1003180013F0004F4FEA03334CEA133302D0524232
:1003280063EB430394EA050F00F0A780A4F10104EE
:10033800D5F1200E0DDB02FA0EFC22FA05F2801828
:1003480041F1000103FA0EF2801843FA05F359410E
:100358000EE0A5F120050EF1200E012A03FA0EFC8D
:1003680028BF4CF0020C43FA05F3C01851EBE371B7
:1003780001F0004507D54FF0000EDCF1000C7EEBD4
:1003880000006EEB0101B1F5801F1BD3B1F5001F12
:100398000CD349085FEA30004FEA3C0C04F1010431
:1003A8004FEA445212F5800F80F09A80BCF1004F5A
:1003B80008BF5FEA500C50F1000041EB045141EADC
:1003C800050130BD5FEA4C0C404141EB0101013CA5
:1003D80028BFB1F5801FE9D291F0000F04BF014694
:1003E8000020B1FA81F308BF2033A3F10B03B3F166
:1003F80020020CDA0C3208DD02F1140CC2F10C02F6
:1004080001FA0CF021FA02F10CE002F11402D8BF53
:10041800C2F1200C01FA02F120FA0CFCDCBF41EA1F
:100428000C019040E41AA2BF01EB0451294330BDEE
:100438006FEA04041F3C1CDA0C340EDC04F11404CB
:10044800C4F1200220FA04F001FA02F340EA0300A2
:1004580021FA04F345EA030130BDC4F10C04C4F1E8
:10046800200220FA02F001FA04F340EA03002946C8
:1004780030BD21FA04F0294630BD94F0000F83F412
:10048800801306BF81F480110134013D4EE77FEAF5
:10049800645C18BF7FEA655C29D094EA050F08BF41
:1004A80090EA020F05D054EA000C04BF1946104622
:1004B80030BD91EA030F1EBF0021002030BD5FEA66
:1004C800545C05D14000494128BF41F0004130BD8E
:1004D80014F580043CBF01F5801130BD01F00045E2
:1004E80045F0FE4141F470014FF0000030BD7FEA55
:1004F800645C1ABF194610467FEA655C1CBF0B4650
:10050800024650EA013406BF52EA033591EA030F66
:1005180041F4002130BD00BF90F0000F04BF00215E
:10052800704730B54FF4806404F132044FF0000591
:100538004FF0000150E700BF90F0000F04BF00210A
:10054800704730B54FF4806404F1320410F0004570
:1005580048BF40424FF000013EE700BF42004FEA6B
:10056800E2014FEA31014FEA02701FBF12F07F43E8
:1005780093F07F4F81F06051704732F07F4208BF9F
:10058800704793F07F4F04BF41F40021704730B5A6
:100598004FF4607401F0004521F000411CE700BFF2
:1005A80050EA010208BF704730B54FF000050AE075
:1005B80050EA010208BF704730B511F0004502D576
:1005C800404261EB41014FF4806404F132045FEA78
:1005D800915C3FF4D8AE4FF003025FEADC0C18BF21
:1005E80003325FEADC0C18BF033202EBDC02C2F113
:1005F800200300FA03FC20FA02F001FA03FE40EAA5
:100608000E0021FA02F11444BDE600BF70B54FF0A8
:10061800FF0C4CF4E06C1CEA11541DBF1CEA135586
:1006280094EA0C0F95EA0C0F00F0DEF82C4481EAEE
:10063800030621EA4C5123EA4C5350EA013518BF0E
:1006480052EA033541F4801143F4801338D0A0FBFB
:1006580002CE4FF00005E1FB02E506F00042E0FBA8
:1006680003E54FF00006E1FB03569CF0000F18BFAE
:100678004EF0010EA4F1FF04B6F5007F64F5407456
:1006880004D25FEA4E0E6D4146EB060642EAC621E9
:1006980041EA55514FEAC52040EA5E504FEACE2E56
:1006A800B4F1FD0C88BFBCF5E06F1ED8BEF1004F59
:1006B80008BF5FEA500E50F1000041EB045170BDD5
:1006C80006F0004646EA010140EA020081EA030119
:1006D800B4EB5C04C2BFD4EB0C0541EA045170BD15
:1006E80041F480114FF0000E013C00F3AB8014F18F
:1006F800360FDEBF002001F0004170BDC4F10004D8
:10070800203C35DA0C341BDC04F11404C4F1200558
:1007180000FA05F320FA04F001FA05F240EA0200B3
:1007280001F0004221F0004110EBD37021FA04F6E9
:1007380042EB06015EEA430E08BF20EAD37070BDA3
:10074800C4F10C04C4F1200500FA04F320FA05F002
:1007580001FA04F240EA020001F0004110EBD37004
:1007680041F100015EEA430E08BF20EAD37070BD74
:10077800C4F1200500FA05F24EEA020E20FA04F34D
:1007880001FA05F243EA020321FA04F001F00041FC
:1007980021FA04F220EA020000EBD3705EEA430E6D
:1007A80008BF20EAD37070BD94F0000F0FD101F09C
:1007B8000046400041EB010111F4801F08BF013CD5
:1007C800F7D041EA060195F0000F18BF704703F013
:1007D8000046520043EB030313F4801F08BF013D9A
:1007E800F7D043EA0603704794EA0C0F0CEA135556
:1007F80018BF95EA0C0F0CD050EA410618BF52EA10
:100808004306D1D181EA030101F000414FF0000015
:1008180070BD50EA410606BF1046194652EA430623
:1008280019D094EA0C0F02D150EA013613D195EA97
:100838000C0F05D152EA03361CBF104619460AD1DF
:1008480081EA030101F0004141F0FE4141F47001E9
:100858004FF0000070BD41F0FE4141F4780170BDD9
:1008680070B54FF0FF0C4CF4E06C1CEA11541DBF3E
:100878001CEA135594EA0C0F95EA0C0F00F0A7F840
:10088800A4EB050481EA030E52EA03354FEA01316D
:1008980000F088804FEA03334FF0805545EA131380
:1008A80043EA12634FEA022245EA111545EA106548
:1008B8004FEA00260EF000419D4208BF964244F1DF
:1008C800FD0404F5407402D25B084FEA3202B61AFE
:1008D80065EB03055B084FEA32024FF480104FF4D2
:1008E800002CB6EB020E75EB030E22BFB61A754646
:1008F80040EA0C005B084FEA3202B6EB020E75EBD9
:10090800030E22BFB61A754640EA5C005B084FEA40
:100918003202B6EB020E75EB030E22BFB61A75460D
:1009280040EA9C005B084FEA3202B6EB020E75EB18
:10093800030E22BFB61A754640EADC0055EA060ED9
:1009480018D04FEA051545EA16754FEA06164FEA1C
:10095800C30343EA52734FEAC2025FEA1C1CC0D1C8
:1009680011F4801F0BD141EA00014FF000004FF055
:10097800004CB6E711F4801F04BF01430020B4F116
:10098800FD0C88BFBCF5E06F3FF6AFAEB5EB030CCE
:1009980004BFB6EB020C5FEA500C50F1000041EBCB
:1009A800045170BD0EF0004E4EEA113114EB5C0498
:1009B800C2BFD4EB0C0541EA045170BD41F480116B
:1009C8004FF0000E013C90E645EA060E8DE60CEA73
:1009D800135594EA0C0F08BF95EA0C0F3FF43BAF90
:1009E80094EA0C0F0AD150EA01347FF434AF95EA47
:1009F8000C0F7FF425AF104619462CE795EA0C0F2B
:100A080006D152EA03353FF4FDAE1046194622E7F7
:100A180050EA410618BF52EA43067FF4C5AE50EAD1
:100A280041047FF40DAF52EA43057FF4EBAE12E7C1
:100A38004FF0FF3C06E000BF4FF0010C02E000BFA2
:100A48004FF0010C4DF804CD4FEA410C7FEA6C5C85
:100A58004FEA430C18BF7FEA6C5C1BD001B050EA28
:100A6800410C0CBF52EA430C91EA030F02BF90EA13
:100A7800020F0020704710F1000F91EA030F58BFD2
:100A8800994208BF90422CBFD8176FEAE37040F034
:100A9800010070474FEA410C7FEA6C5C02D150EAD2
:100AA800013C07D14FEA430C7FEA6C5CD6D152EA8D
:100AB800033CD3D05DF8040B704700BF8446104652
:100AC80062468C461946634600E000BF01B5FFF751
:100AD800B7FF002848BF10F1000F01BD4DF808ED21
:100AE800FFF7F4FF0CBF012000205DF808FB00BFF2
:100AF8004DF808EDFFF7EAFF34BF012000205DF84C
:100B080008FB00BF4DF808EDFFF7E0FF94BF012098
:100B180000205DF808FB00BF4DF808EDFFF7CEFF99
:100B280094BF012000205DF808FB00BF4DF808EDD8
:100B3800FFF7C4FF34BF012000205DF808FB00BFA9
:100B48004FEA410C7FEA6C5C02D150EA013C0AD1C1
:100B58004FEA430C7FEA6C5C02D152EA033C02D1B3
:100B68004FF0000070474FF0010070474FEA410214
:100B780012F5001215D211D56FF47873B3EB6252E7
:100B880012D94FEAC12343F0004343EA505311F00E
:100B9800004F23FA02F018BF404270474FF00000A0
:100BA800704750EA013005D111F0004008BF6FF0DE
:100BB800004070474FF00000704700BF4FEA410205
:100BC800B2F1E04324BFB3F5001CDCF1FE5C0DD9A3
:100BD80001F0004C4FEAC0024CEA5070B2F1004FED
:100BE80040EB830008BF20F00100704711F0804FF0
:100BF80021D113F13872BCBF01F00040704741F4B5
:100C080080114FEA5252C2F11802C2F1200C10FAB8
:100C18000CF320FA02F018BF40F001004FEAC1239C
:100C28004FEAD32303FA0CFC40EA0C0023FA02F340
:100C38004FEA4303CCE77FEA625307D150EA013316
:100C48001EBF4FF0FE4040F44000704701F00040E6
:100C580040F0FE4040F40000704700BF53B94AB965
:100C6800002908BF00281CBF4FF0FF314FF0FF30AC
:100C780000F0C4B9ADF1080C6DE904CE00F01AF823
:100C8800DDF804E0DDE9022304B07047430803F00F
:100C98005533C01A830800F0333003F03333184457
:100CA80000EB101000F00F3000EB002000EB0040CC
:100CB800000E70472DE9F04F099D884604468E4680
:100CC800002B4AD18A4217465FD9B2FA82F64EB152
:100CD800C6F1200301FA06FEB740B44020FA03F338
:100CE80043EA0E0E4FEA17481FFA87FC230CBEFB97
:100CF800F8F108FB11EE01FB0CF243EA0E439A42AD
:100D080007D9FB1801F1FF3002D29A4200F2548150
:100D180001469B1AA2B2B3FBF8F008FB103300FBA4
:100D28000CFC42EA034294450BD9BA1800F1FF3390
:100D38002CBF01240024944502D9002C00F03F81E7
:100D4800184640EA0140A2EB0C0200211DB1F24016
:100D58000023C5E90023BDE8F08F8B4205D90DB10A
:100D6800C5E9000100210846F5E7B3FA83F1002937
:100D78004ED14345C0F01281824240F20F810846AD
:100D8800002DE8D0C5E9004EE5E7002A00F0AC8068
:100D9800B2FA82F6002E40F0BB808B1A4FEA124E50
:100DA800BCB20121020C80B2B3FBFEFC0EFB1C336B
:100DB80042EA034304FB0CF29A420ED9FB180CF1E9
:100DC800FF382CBF4FF001094FF000099A4203D9B0
:100DD800B9F1000F00F0EC80C4469B1AB3FBFEF893
:100DE8000EFB183304FB08F440EA034294420BD983
:100DF800BA1808F1FF332CBF01200020944202D911
:100E0800002800F0D1809846121B48EA0C409DE764
:100E1800C1F120068B4008FA01F400FA01F922FA20
:100E280006F728FA06F88A401F4320FA06F3380C1A
:100E380023431FFA87FC1C0CB8FBF0FE00FB1E883E
:100E480044EA08440EFB0CF8A0450ED93C190EF1F3
:100E5800FF3A2CBF4FF0010B4FF0000BA04503D910
:100E6800BBF1000F00F0B880D646A4EB08041FFAC7
:100E780083F8B4FBF0F300FB134403FB0CFC48EAD3
:100E88000444A4450ED93C1903F1FF302CBF4FF0A0
:100E980001084FF00008A44503D9B8F1000F00F08D
:100EA8009F80034643EA0E40A4EB0C04A0FB02EC2F
:100EB80064457346E04602D307D1F14505D2BEEB3F
:100EC80002036CEB070C0138E0465DB1B9EB030295
:100ED80064EB080404FA06F622FA01F3CC401E4338
:100EE800C5E90064002136E7B1FBF2FC010C1446A9
:100EF80080B2964641EA08412026904640EA0143DE
:100F08001046B1FBF2F1A3EB080341EA0C414BE7B1
:100F1800B740C6F1200301FA06F221FA03F84FEAB6
:100F2800174E20FA03F3BCB2B0401343020C190C5D
:100F380080B2B8FBFEF90EFB198841EA084109FBAB
:100F480004F8884551D9791809F1FF3C2CBF4FF0B6
:100F5800010A4FF0000A884502D9BAF1000F31D0D2
:100F6800A1EB0801B1FBFEF909FB04F80EFB19110E
:100F78009BB243EA0143434535D2FB1809F1FF31DF
:100F88002CBF4FF0010A4FF0000A4345BBD2BAF11B
:100F9800000FB8D1A9F102013B44B4E7841A68EB09
:100FA800030201209646EBE63A44A8F102082BE733
:100FB800ACF1020C3B4410E702393B44A9E63A4441
:100FC8000238BEE6A7EB0808A9F1020C4144B1FBC0
:100FD800FEF909FB04F8C9E7AEF1020E3C4444E708
:100FE800023B3C445EE749468DE7A1EB0801CC464D
:100FF800B1FBFEF909FB04F8B8E700BF704700BF72
:10100800F0B589B088B10C460546C9B12E4B1B68AE
:10101800002B57D108F062F92C4B35222C492D486A
:1010280008F0A8F908F05AF9FEE708F057F9274B35
:1010380033222749274808F09DF908F04FF9FEE7C1
:1010480008F04CF9214B34222149224808F092F942
:1010580008F044F9FEE7204B53F8367001970095E5
:101068001E4B1F4A80211848006864F009FE079546
:101078001C4B0693059504950397029501970095D7
:101088003B46194A4FF48061204664F0F9FDB0F5FB
:10109800806F0FD2009023460B4A1268012100206E
:1010A80000F05CFD0A2029F0A7F80136002ED2DDF9
:1010B80009B0F0BD00970D4B6E2205490C4808F0A9
:1010C80059F9EFE70026F1E728060020F49707080A
:1010D800249807083C9807085C32090844980708D0
:1010E80054980708289A070874980708389A070830
:1010F800549A07082DE9F04788B098B10E4607467C
:10110800D9B1524B1B681BB380202BF01BF88146CA
:1011180080202BF017F88246B9F1000F23D068B36E
:10112800002468E008F0DAF8494B4A2249494A485D
:1011380008F020F908F0D2F8FEE708F0CFF8444BA1
:101148004B224449444808F015F908F0C7F8FEE76F
:1011580008F0C4F83E4B4C223E493F4808F00AF9D3
:1011680008F0BCF8FEE708F0B9F8394B51223949C4
:10117800394808F0FFF808F0B1F8FEE708F0AEF8D3
:10118800334B52223349344808F0F4F808F0A6F8F3
:10119800FEE7CDF800803B46304A8021484664F09F
:1011A8006FFDCDF800803B462D4A8021504664F003
:1011B80067FD07972B4B069305970497CDF80CA06E
:1011C800CDF80890CDF8048000974346264A4FF49E
:1011D8008061304664F054FDB0F5806F24D20090F1
:1011E80033461A4A12680121002000F0B7FC0A2091
:1011F80029F002F80134022C1FDC1C4D55F834800C
:10120800CDF8048000971A4B1A4A80210F480068CD
:1012180064F036FD05EBC4056B68012BB9D00B4BA8
:10122800186800F015FDE2E7CDF80080124B9E2209
:101238000849124808F09EF8D9E748462BF068F8A4
:1012480050462BF065F808B0BDE8F0872806002066
:10125800F4970708809A07083C9807089C9A07089B
:10126800B09A0708289A0708C49A07086432090838
:10127800949A070854980708B49C0708549A0708D2
:101288002DE9F04F9DB098B10C460746D9B15A4B9D
:101298001B681BB380202AF055FF804680202AF067
:1012A80051FF8146B8F1000F23D068B3002547E00D
:1012B80008F014F8514B33225149524808F05AF8B3
:1012C80008F00CF8FEE708F009F84C4B34224C49BA
:1012D8004C4808F04FF808F001F8FEE707F0FEFF69
:1012E800464B35224649474808F044F807F0F6FFD0
:1012F800FEE707F0F3FF414B3C224149414808F023
:1013080039F807F0EBFFFEE707F0E8FF3B4B3D221B
:101318003B493C4808F02EF807F0E0FFFEE7CDF81F
:1013280000A0394B88223649384808F023F803E0F2
:10133800314B186800F08CFC0A2028F05DFF01355D
:10134800012D50DC324E56F835A0CDF804A0009798
:10135800304B314A80212848006864F091FC06EB44
:10136800C5067368012BE3D13B462C4A80214046D1
:1013780064F086FC3B462A4A8021484664F080FC9B
:1013880014AE5346274A2021304664F079FC0DF10B
:10139800300B5346244A2021584664F071FC0A97C2
:1013A800224B099308970797CDF818B00596CDF802
:1013B80010A0CDF80C90CDF80880CDF804A00097C7
:1013C80053461B4A4FF48061204664F059FCB0F53F
:1013D800806FA4D200902346074A1268012100209A
:1013E80000F0BCFBA8E740462AF092FF48462AF0E6
:1013F8008FFF1DB0BDE8F08F28060020F49707087E
:101408001C9D07083C980708209F0708549A07085E
:101418007C320908309D070854980708389D07084A
:10142800489D0708589D0708609D0708289A0708DF
:10143800689D0708012804D0022804D028B9044868
:10144800704704487047044870470448704700BF15
:10145800509F0708589F0708649F0708E466080814
:1014680070B590B0002843D00D46044600294AD0F4
:10147800334B1B68002B51D00BAE00230B930C93FE
:101488000D930E938DF83C302E4B9A781988019164
:101498000092DB782C4A1121304664F0F1FB00946D
:1014A8002A4B2B4A80212648006864F0E9FB0896FD
:1014B8000794284B0693059404940394029401948A
:1014C80000942346244A4FF48061284664F0D8FBF0
:1014D800B0F5806F2DD200902B46194A1268012171
:1014E800002000F03BFB0A2028F086FE10B070BDFB
:1014F80007F0F4FE194B2E2219491A4807F03AFF53
:1015080007F0ECFEFEE707F0E9FE144B2F22144922
:10151800144807F02FFF07F0E1FEFEE707F0DEFEB4
:101528000E4B30220E490F4807F024FF07F0D6FE75
:10153800FEE70D4B72220A490C4807F01BFFD2E761
:10154800280600209C360908C89F0708A09F07089E
:10155800A89F0708289A0708D49F0708F497070840
:101568008C9F07083C98070870A20708549A070838
:1015780070B5B6B006460C461D461346184A4021BB
:1015880006A864F07DFB3F2803D90124204636B025
:1015980070BD2846FFF74EFFC6F30743B2B2210ECF
:1015A800C4F30745A4B205900494039502910192EF
:1015B8000093330E0B4A802116A864F061FB7F2844
:1015C80001D90124E2E7009016AB06AA01210846DA
:1015D80000F0C4FA04460A2028F00EFED6E700BF41
:1015E80094A20708A0A2070870B5C6B006460C4624
:1015F8001D461346164A402106A864F041FB3F28C1
:1016080003D90124204646B070BDC6F30743B2B2E1
:10161800210EC4F30740A4B20595049403900291E7
:1016280001920093330E0B4AC02116A864F028FBE0
:10163800BF2801D90124E5E7009016AB06AA0121CD
:10164800084600F08BFA04460A2028F0D5FDD9E7B1
:1016580094A20708F0A2070881B330B589B00C46F8
:10166800CD680DB10B690BB909B030BD202200213E
:10167800684664F0A9FC24691F2C28BF1F24224651
:101688002946684664F099FE04F120030DEB030433
:10169800002304F8203C0A496846FEF7E9FD0028C3
:1016A800E2D1084B4FF483720749084807F062FEFD
:1016B8000221074B186826F03FFCD5E7704700BFAA
:1016C80074A3070884A307088C9F0708A0A307082A
:1016D80024060020F0B585B006462A4B40F21312C6
:1016E80029492A4807F046FE4FF0FF3500240EE04E
:1016F800274B4FF48E722449244807F03BFE002004
:1017080028F068FA0BE01C46C82028F075FD002177
:10171800204B186826F0E0FB10F00C0FE8D11E4BA8
:1017280018680028F0D00022039203A927F062F875
:101738000128E9D12CB9039B03B92346002BE2D039
:101748001C46039BA342DFD8642703FB07F7B7FBBC
:10175800F4F7C7F16407BD42D6D0019300970F4B49
:101768004FF49B720849094807F004FE0C4B1968AE
:10177800039B00933B4632460A480068FFF734FF54
:101788003D46C1E7A4A307088C9F0708A0A3070844
:10179800C0A307082406002020A70020DCA3070810
:1017A8001C0600209C36090800293CD030B58BB0B7
:1017B8000C46CD680DB10B690BB90BB030BD2022BA
:1017C800002102A864F000FC24691F2C28BF1F24F4
:1017D8002246294602A864F0F0FD04F128030DEB27
:1017E8000304002304F8203C0F4902A8FEF740FD3B
:1017F80020B10E4902A864F0ABFC58B10C4B23226F
:101808000C490D4807F0B6FD10210C4B186826F05E
:1018180093FBD2E702AB0093094B282205490948FC
:1018280007F0A8FDC9E7704708A4070810A407082F
:101838001CA4070874A40708A0A30708240600200E
:1018480088A40708ACA4070830B587B000282BD0B7
:101858000C460546002932D0274B1868002839D095
:101868000095264B264A802164F00AFA05950495CE
:10187800244B03930295019500952B46224A4FF479
:101888008061204664F0FCF9B0F5806F2DD200909D
:101898002346194A12680121002000F05FF90A2046
:1018A80028F0AAFC07B030BD07F018FD174B2E2210
:1018B8001749184807F05EFD07F010FDFEE707F02E
:1018C8000DFD124B2F221249124807F053FD07F065
:1018D80005FDFEE707F002FD0C4B30220C490D48D0
:1018E80007F048FD07F0FAFCFEE70B4B5F220849BA
:1018F8000A4807F03FFDD2E728060020B0A40708F1
:10190800B8A40708289A0708DCA40708F49707086A
:1019180074A407083C9807084CA60708549A0708B7
:101928002DE9F0418AB038B10F46054679B1394BF7
:101938001B68BBB1002446E007F0D0FC364B5422AC
:101948003649374807F016FD07F0C8FCFEE707F0F0
:10195800C5FC314B55223149314807F00BFD07F0E2
:10196800BDFCFEE707F0BAFC2B4B56222B492C484E
:1019780007F000FD07F0B2FCFEE7D8F80830D8F809
:101988000C1009952748089007950695059104932A
:101998000396029501960095D8F80430224A4FF430
:1019A8008061384664F06CF9B0F5806F26D20090FB
:1019B8003B46184A12680121002000F0CFF80A209F
:1019C80028F01AFC0134052C20DC184A04EB840C9E
:1019D80002EB8C0852F82C6001960095144B154ABE
:1019E80080210C48006864F04BF9D8F81030012BBE
:1019F800C3D0084B186800F02BF9E0E700940E4BB1
:101A08008E2206490D4807F0B5FCD8E70AB0BDE8B4
:101A1800F08100BF28060020F497070888A6070869
:101A28003C980708289A0708A8A607084033090819
:101A3800A0A607085498070828A80708549A070872
:101A480070B584B000B306461B4B1B683BB300243B
:101A5800082C2FDC184D194B04EB840203EB820190
:101A680053F82230CA68029201930096144B154A23
:101A78008021286864F004F9286800F0E9F80A2051
:101A880028F0BAFB0134E3E707F028FC0E4BA2224A
:101A98000E490F4807F06EFC07F020FCFEE707F040
:101AA8001DFC094BA3220949094807F063FC07F00C
:101AB80015FCFEE704B070BD280600208C3209082A
:101AC800A0A6070848A80708F497070888A60708E3
:101AD8003C98070868B1006858B151B110B582B098
:101AE8000024009403230A78214629F02FFA02B033
:101AF80010BD7047014B1860704700BF20060020DA
:101B080008B513F051FD124BA3FB00239B0D114A9E
:101B180002FB1303104A1A44002A16DDD30E5101A2
:101B2800891A63F100039B0043EA917389008918BD
:101B380043F100034FEAC30C4FF47A720023C80044
:101B48004CEA5171FFF78AF808BD0122E6E700BFA9
:101B5800B17C219500DD6D00806DEF042DE9F04327
:101B68008FB0002A31D080460F461D461646334BAB
:101B78001B68002B34D0002409940A940B940C940D
:101B88000D940DF11C090794089404940594069487
:101B98002146204629F030FC8DF824808DF82570E8
:101BA8000A963046FEF76EFBADF82C000C95169B96
:101BB8000D9328F087FF07904FF4FA730693204B94
:101BC8000493CDF8149001251CE007F087FB1D4B0A
:101BD80058221D491D4807F0CDFB07F07FFBFEE7A3
:101BE80007F07CFB174B59221749184807F0C2FB2E
:101BF80007F074FBFEE7039BE3B10325FA2028F006
:101C0800FBFA0134042C15D804AA09A90B4B18684F
:101C180055F072FE05460028F0D1039041F2883352
:101C2800009303AB0246014629F012F90128E2D0DD
:101C38000325E3E728460FB0BDE8F083200600201F
:101C4800DD1A0108F4970708CCA907083C9807088B
:101C580000B583B048B10246002000900346012138
:101C6800FFF77CFF03B05DF804FB07F037FB044B7C
:101C780096220449044807F07DFB07F02FFBFEE796
:101C8800F4970708CCA907083C9807082DE9F04104
:101C980084B020B30C4616461D46074651B3002BA8
:101CA80033D03A4B1B68002B3AD080202AF04AFAEE
:101CB800804600283FD000943B46354A802163F097
:101CC800DFFF7F2842D800220092334641462F4842
:101CD800006804F09BFA00284CD1012440E007F08A
:101CE800FDFA2C4BA7222C492C4807F043FB07F0A0
:101CF800F5FAFEE707F0F2FA264BA822264927480C
:101D080007F038FB07F0EAFAFEE707F0E7FA214B9D
:101D1800A9222149214807F02DFB07F0DFFAFEE749
:101D280007F0DCFA1B4BAA221B491C4807F022FBD0
:101D380007F0D4FAFEE707F0D1FA164BAD221649A0
:101D4800164807F017FB07F0C9FAFEE70294019757
:101D58000095134BB7221049124807F00BFB0024DB
:101D68000A2028F049FA40462AF0D2FA204604B060
:101D7800BDE8F081CDF8048000950B4BC8220649D8
:101D8800084807F0F7FA0024EAE700BF2006002019
:101D9800DCA90708F4970708CCA907083C980708A6
:101DA800E4A90708549A070814AA070810B582B0CE
:101DB80090B10446D9B11D4A106818B300220092A8
:101DC8000B46214604F022FA38BB01240A2028F0E9
:101DD80013FA204602B010BD07F080FA144BDC223B
:101DE8001449154807F0C6FA07F078FAFEE707F035
:101DF80075FA0F4BDD220F490F4807F0BBFA07F0C1
:101E08006DFAFEE707F06AFA094BDE2209490A482B
:101E180007F0B0FA07F062FAFEE70094074BE822F1
:101E28000449074807F0A6FA0024CFE72006002057
:101E3800F4970708CCA907083C98070838AA0708A8
:101E4800549A070830B583B048B30C461546034684
:101E580081B3002A39D02C4A1068002840D02B4A78
:101E6800802163F00DFF40F2FF322946204664F0DE
:101E7800F6F8002384F8FF332046FEF703FAB0F59E
:101E8800806F38D2009023461F4A12680121002033
:101E9800FFF764FE0A2028F0AFF903B030BD07F061
:101EA8001DFA1B4BF8221B491B4807F063FA07F081
:101EB80015FAFEE707F012FA154BF92215491648EC
:101EC80007F058FA07F00AFAFEE707F007FA104B8E
:101ED800FA221049104807F04DFA07F0FFF9FEE71B
:101EE80007F0FCF90A4BFB220A490B4807F042FAB3
:101EF80007F0F4F9FEE7094B4FF4897205490848E1
:101F080007F038FAC6E700BF280600205CAA0708D1
:101F1800F4970708CCA907083C98070874AA07088B
:101F2800549A070861B30B46C96849B330B585B000
:101F38001C690CB905B030BD0025009501950295C6
:101F480003950F2C28BF0F242246684664F035FA03
:101F580004F110030DEB030202F8105C094968460E
:101F6800FEF786F90028E5D1074B4C2207490848B7
:101F780007F000FA2021074B186825F0DDFFD9E7A4
:101F8800704700BF9CAA0708A4AA0708FCAA07086C
:101F9800A0A307082406002038B598B30C460546C8
:101FA80000293AD0FFF75CFA21462846FFF768F97E
:101FB80021462846FFF724F821462846FFF7B0FCBB
:101FC8002846FFF73DFD21462846FFF793F82146AE
:101FD8002846FFF739FC4FF47A7028F00DF9144BB6
:101FE800186802232A460146FFF7C2FA114A214619
:101FF8002846FFF727FF104B94221049104807F096
:10200800B9F938BD07F06AF90E4B5C220B490E4846
:1020180007F0B0F907F062F9FEE707F05FF9094B3E
:102028005D220649084807F0A5F907F057F9FEE7C9
:102038009C3609089CAA070808AB0708FCAA0708E9
:10204800A0A30708F49707083C9807082DE9F04172
:1020580084B00023039303F0F3FD03F0EBFD0028A5
:102068003DD0044603F0AAFD2046FFF743FD03A92F
:10207800002009F0BDFE054600283BD04FF48060E3
:102088002AF060F8804600283FD080202AF05AF8CD
:10209800844B1860002843D00095834BB9228349AC
:1020A800834807F067F925F078FE824B186000280E
:1020B80041D0814B814A82492846FFF7E7FD814B91
:1020C800814A82492846FFF7E1FD81498148FFF7A7
:1020D8006DFE41462846FFF75FFF0026B1E007F096
:1020E800FDF87D4BA82271497C4807F043F907F0B9
:1020F800F5F8FEE707F0F2F8774BB1226B4977481D
:1021080007F038F907F0EAF8FEE707F0E7F8724B4E
:10211800B4226649714807F02DF907F0DFF8FEE7A9
:1021280007F0DCF86C4BB72260496C4807F022F9DD
:1021380007F0D4F8FEE707F0D1F8674BBC225B49FB
:10214800664807F017F907F0C9F8FEE7644BE8227C
:102158005649574807F00EF9624B196800232A467A
:1021680061480068FFF704FA7BE0604BEE224F49B4
:102178004F4807F0FFF85B4B196801232A465A4875
:102188000068FFF7F5F900230193022300932B461B
:102198004FF480625649574827F00AFD012663E04C
:1021A800424F434E544BFE223946304607F0E2F880
:1021B800524BFF223946304607F0DCF80DF0ACFEF2
:1021C800002654E04E4B40F207123849384807F0D1
:1021D800D1F841462846FFF7DFFE00264AE0494B82
:1021E80040F217123149324807F0C4F8464A4146CE
:1021F8002846FFF727FE4FF47A7027F0FDFF0DF011
:102208008BFE14F0200700D1DCB9002E3FD113F06B
:10221800CBF93E4BA3FB0023DB0B3D4A02FB13002B
:1022280027F0EAFF002F3AD03A4B00933A4B40F29E
:1022380029121E491E4807F09DF841462846FFF717
:10224800ABFE1C4B1C68FFF75BFC009000230122CF
:102258003F21204625F0B0FD044610F0010F7FF421
:1022680075AF14F0020F80D114F0040F98D114F058
:10227800080FA7D114F0100FC3D0002EAFD0274BF2
:1022880040F2131209490A4807F074F8D9E7244BB9
:102298004FF491720549064807F06CF8D1E7214BD5
:1022A800C3E700BF280600204CAB0708FCAA0708B4
:1022B800A0A307082406002090AB070861160108B0
:1022C8009CAB0708A8AB0708B1170108B8AB07080B
:1022D8002D1F0108C4AB0708F49707083C980708A6
:1022E800DCAB07081C0600209C360908F4AB07087D
:1022F80010AC0708DD16010820AC070838AC070841
:1023080064AC0708ACAC0708BCAC070873B2E74577
:10231800C0D4010034AB0708F4AC070880AC070848
:10232800C4AC070840AB07080120704730B585B03A
:10233800F8B104461C4B03611C4B436140682230D2
:1023480080B22083013029F0FDFEE060F8B10DF184
:102358000E03019303230093A388A268218B4CF0FA
:102368008BFF0546228BBDF80E309A420CD0002513
:102378000EE006F0B3FF0E4BFE220E490E4806F0A3
:10238800F9FF06F0ABFFFEE7012801D106E00025C2
:10239800E06818B129F0BCFF0023E360012D14BFE9
:1023A8000020012005B030BD54AD070884AD0708F2
:1023B800F497070843AD07083C98070870B582B042
:1023C800044600901C4B01220169006A03F01EFFBD
:1023D800D0B90094194B01226169206A03F016FFF5
:1023E800054618B3164E174B4FF4A07231461648DF
:1023F80006F0C0FF63690093144B4FF4A272314694
:10240800134806F0B7FF11E005460D4E0D4B4FF48B
:10241800997231460C4806F0ADFF236900930B4BC7
:102428004FF49B7231460A4806F0A4FFB5FA85F0CE
:10243800400902B070BD00BF8D2401085D24010869
:1024480043AD0708B4AD07083C98070838AA070841
:10245800549A0708C269A2B110B582B004460B4667
:102468000969D868FFF760FF48B10222002300938A
:1024780003230121206828F069FD02B010BD032262
:10248800F4E77047C269A2B110B582B004460B46A2
:102498000969D868FFF748FF48B101220023009373
:1024A80003230121206828F051FD02B010BD03224A
:1024B800F4E7704730B583B00C46054638B16CB1C7
:1024C8001DB114B1EB69012B0FD003B030BD0B4B1C
:1024D800DD220B490B4806F04DFFF0E7074BDE22E3
:1024E8000749084806F046FFEAE70023009303235C
:1024F80022780221286828F029FDE6E7B4AD07080C
:1025080043AD07083C98070838B505460C46084609
:10251800FDF7B8FE02462146284624F0E8FE38BDFD
:1025280030B585B0002835D004463949FFF7ECFFAF
:10253800054600283AD14FF0FF326946204624F07C
:10254800E2FE054600283BD1684600F0B7FC054688
:1025580000283DD1684600F06FFD054600283FD1B0
:10256800684600F021FE0546002841D1684600F083
:10257800D3FE0546002843D16946204624F0D1FE03
:102588000546D0B1234B4FF4F5722349234806F092
:10259800F1FE12E006F0A2FE214B4FF4E2721E4952
:1025A8001E4806F0E7FE06F099FEFEE7194B40F2DA
:1025B800C7121949194806F0DDFE284605B030BD96
:1025C800144B4FF4E6721449144806F0D3FEF4E7AE
:1025D800104B4FF4E9721049104806F0CBFEECE7B7
:1025E8000C4B4FF4EC720C490C4806F0C3FEE4E7C0
:1025F800084B4FF4EF720849084806F0BBFEDCE7C9
:10260800044B4FF4F2720449044806F0B3FED4E7D1
:10261800D0AD0708B4AD070843AD07083C980708D4
:10262800F497070830B587B0002303930493059304
:1026380002931A4B01241C70C5685D60B0F818C07D
:10264800A3F808C0D9601A6142F210720592144AC0
:1026580003920490C46103AA1946006A55F04CF924
:10266800029028B10298B0FA80F0400907B030BD56
:102678000823029347F23053009302AB4FF0FF3226
:102688000021022028F0E4FB0028EBD1054B40F2A2
:102698001A220549054806F06DFEE3E72C060020DE
:1026A800BD240108D4AD070843AD0708549A0708AC
:1026B80010B5044603460F4A0169006A03F0E8FEB4
:1026C80038B923460C4A6169206A03F0E1FE40B933
:1026D80010BD0A4B4FF4AA7209490A4806F04AFE8F
:1026E800EFE7064B4FF4AE720549064806F042FE86
:1026F800EEE700BF8D2401085D240108B4AD07088A
:1027080043AD07083C98070810B50446806808B12F
:1027180029F0FEFDE06808B129F0FAFD2422002125
:10272800204663F051FC10BD70B5ADF58C6D2422C8
:1027380000210DF23C4063F047FC0024A84B1C60CC
:102748004FF4806221460FA863F03EFC0DF58861C6
:10275800204609F04DFBCDF84404CDF8584428F044
:10276800B1F9CDF83C04DDF84434F3B1DDF8403478
:10277800EBB14FF6FE72934201D9002418E00DF236
:102788003C40FFF7D3FD044690B9964D964B40F276
:102798004D222946954806F0EDFD954B40F255220D
:1027A8002946944806F0E6FD02E0002400E00024F3
:1027B80003F046FA03F03EFACDF85C041CB9884BE6
:1027C80001221A605BE00DF23C40FFF7F7FD04467A
:1027D80048B1894B40F267228249884806F0CAFD11
:1027E800002C4CD1EBE77F4D7F4B40F2632229460A
:1027F8007E4806F0BFFD824B40F26B2229467D4899
:1028080006F0B8FDECE7784B4FF42172754977482C
:1028180006F0B0FD7B4B40F2BD227249754806F0C8
:10282800A9FD94B9039C0FAD641B774B40F2C622F7
:102838006C49724806F09EFD224629460DF23C403E
:10284800FFF7F0FE002800F0C28047F230530093F3
:1028580002AB4FF0FF320021012028F0F9FA0128DD
:1028680000F0E4800023CDF85834684B40F2E922A8
:102878005C49604806F07EFD654827F0BDFC584B72
:102888001B68002B40F0EC8027F018FB064600255B
:1028980002952B464FF480620FA903A824F004FD8B
:1028A8004FF0FF3207A903A824F02DFD04460028A5
:1028B800A9D1584907A8FFF727FE0446002846D1A2
:1028C80002220BA907A824F01EFD0446002846D1C1
:1028D80051490BA8FFF718FE0446002847D1324695
:1028E8002B460BA824F0E7FC044348D14B490BA81E
:1028F800FFF70AFE00284AD149490BA8FFF704FE52
:10290800044600284BD10BA907A824F00AFD044669
:1029180000284CD1434B4FF42C723249374806F00B
:1029280029FD07A8FFF7FCFD0446002847D107A9A1
:1029380003A824F0F6FC044600283FF473AF2A4BA2
:102948004FF42E722749294806F014FD62E7264BFA
:1029580040F289222349254806F00CFD5AE7224B0C
:102968004FF424721F49214806F004FD52E71E4B1C
:1029780040F297221B491D4806F0FCFCAFE71A4BB2
:1029880040F29A221749194806F0F4FC42E7164B20
:1029980040F2A1221349154806F0ECFCACE7124BB3
:1029A8004FF429720F49114806F0E4FC32E70E4B48
:1029B80040F2AA220B490D4806F0DCFC2AE70A4B34
:1029C80040F2B2220749094806F0D4FC22E7164B28
:1029D8004FF433720349074806F0CCFC35E700BFD3
:1029E8004006002043AD0708B4AD07083C98070827
:1029F800F0AD0708549A070814AE0708A0A3070803
:102A080048AE0708A4AE0708C8AE070850AF0708C5
:102A1800E093040014BF080878AE07087CAE0708E6
:102A280080AE070884AE0708ECAE07089DF80830AA
:102A38000022CDF85824012B0AD0022B7FF415AFC1
:102A4800124B40F2E3221249124806F093FC13E7B6
:102A5800114B40F2DF220E49104806F08BFC0BE7C1
:102A68000F4B40F2F1220A490E4806F083FC0DF2A2
:102A78003C40FFF71DFE0DF23C40FFF745FE0020ED
:102A880027F0A8F80DF58C6D70BD00BF34AF0708AE
:102A980043AD0708549A070818AF0708A0A307080A
:102AA80078AF070884AF0708054B1B68002000E0D3
:102AB800DB6823B11A7D012AFAD10130F8E77047A3
:102AC80048D80620044B1B68002001E00130DB6871
:102AD800002BFBD1704700BF98D80620044B1B6819
:102AE800002001E00130DB68002BFBD1704700BFFC
:102AF80044D8062038B505460C460846FDF7C2FB03
:102B080002462146284624F0F2FB38BD70B505463A
:102B18001646FFF7EFFF044631462846FFF7EAFF5F
:102B2800204370BDF8B5054617461E46FFF7E2FF7D
:102B380004463A463346284624F0BDFB2043F8BDF8
:102B480008B560B9074B1B6823B193F83C0059F0EE
:102B5800C1FD08BD044B186808600846F9E759F03C
:102B6800B9FDF6E764D6062088AF0708F0B587B048
:102B780020B10646304B1C68002511E006F0AEFB7C
:102B88002E4BDB222E492F4806F0F4FB06F0A6FB5D
:102B9800FEE72D4BE8222A492A4806F0EBFBE468B9
:102BA800002C45D000230093ADF804306946207A04
:102BB800FFF7C6FF074628B3022202A9304624F0D1
:102BC800A2FB05460028E4D13A46204902A8FFF7AF
:102BD8009DFF054668B9E28A00231D4902A8FFF750
:102BE800A1FF0546E8B902A9304624F09AFB05463C
:102BF800D5E7154BED221249124806F0BBFB002D14
:102C0800CDD1E8E7012202A9304624F07CFB054635
:102C18000028E0D00C4BF32209490A4806F0AAFB29
:102C2800EDE7094BF9220649064806F0A3FBB6E78B
:102C3800284607B0F0BD00BF48D80620F49707081B
:102C4800A7AF07083C980708B4AD07083429090856
:102C5800C0AF0708F0B587B020B10646324B1C68F4
:102C6800002513E006F03AFB304B40F26B12304976
:102C7800304806F07FFB06F031FBFEE72E4B4FF4A1
:102C8800BC722B492B4806F075FBE468002C48D031
:102C980000230093ADF804306946207AFFF750FF0F
:102CA800074630B3022202A9304624F02CFB054621
:102CB8000028E3D13A46214902A8FFF727FF054635
:102CC80068B9628A00231E4902A8FFF72BFF054650
:102CD800F8B902A9304624F024FB0546D5E7164B7F
:102CE80040F27D121249134806F044FB002DCCD166
:102CF800E7E7012202A9304624F005FB0546002833
:102D0800DFD00D4B40F2831209490A4806F032FB26
:102D1800ECE7094B40F289120549064806F02AFB00
:102D2800B3E7284607B0F0BD98D80620F4970708FF
:102D3800A7AF07083C980708B4AD07083429090865
:102D4800C0AF0708F8B505460C4610461F460A46A8
:102D5800294661F065F868B12146284663F092F982
:102D680006463B46094A211A281862F089FF304472
:102D7800844208D2064B40F20A220649064806F069
:102D8800F9FA0020F8BD0120FCE700BFC4AF07082E
:102D9800B4AD0708A7AF07083C98070870B58EB010
:102DA80020B106463D4B1C6800251BE006F096FA4C
:102DB8003B4B40F212223B493B4806F0DBFA06F057
:102DC8008DFAFEE7394B4FF407723649364806F05C
:102DD800D1FA6946207AFFF7B3FE024600283BD0B5
:102DE80065B3E468002C56D01D22002106A863F0C4
:102DF800EBF800230093ADF80430032202A9304613
:102E080024F081FA05460028DCD1238B221D1D21E0
:102E180006A8FFF797FF08B90125DAE706AA2449AB
:102E280002A8FFF773FE05460028D2D01F4B4FF4C7
:102E380009721C491C4806F09DFACAE71D4902A8F8
:102E4800FFF764FE054680B1184B4FF40D72154923
:102E5800154806F08FFAC4E7144B40F23A2211499C
:102E6800114806F087FA0125BBE7E28A00231249D8
:102E780002A8FFF757FE054628B902A9304624F0F4
:102E880050FA0546ADE7094B40F24122054906488C
:102E980006F070FAA5E728460EB070BD44D80620A3
:102EA800F4970708A7AF07083C980708B4AD0708C8
:102EB800CCAF0708D0AF0708D4AF07082DE9F04F0B
:102EC80089B00390A0B15049039C2046FFF712FE39
:102ED8000290C0B9042204A9204624F014FA0290F2
:102EE800B8B14A4B78224A494A4806F043FA10E0FA
:102EF8000090494B64224649484806F03BFA40F2A4
:102F08000723029337E0414B73224149414806F0B9
:102F180031FA434861F078FD424B1B68002426468D
:102F280025462746A046A246A146A3461CE09A6C21
:102F380012EB090291464BF1000B1A6E12EB0802D4
:102F480090464AF1000A1A6D521947F10007DD6CE4
:102F5800AD1847F100075A6E121946F100069C6E2B
:102F6800A41846F100061B68002BE0D12C4861F03C
:102F780055FD029B1BB1029809B0BDE8F08F2A46A7
:102F88003B46294904A8FFF7CDFD029D05431FD103
:102F980022463346254904A8FFF7C4FD28431ED11D
:102FA8004A465B46224904A8FFF7BCFD0446E8B937
:102FB800424653461F4904A8FFF7B4FD54EA0003EC
:102FC80002931AD104A9039824F0ABF90290D2E72E
:102FD8000E4B92220E490F4806F0CCF9D8E70B4B5E
:102FE80095220B490B4806F0C5F9D9E7074B9822FB
:102FF8000749084806F0BEF9DAE7044B9B22044962
:10300800044806F0B7F9B6E7FCAF0708B4AD0708FF
:10301800A7AF07083C980708D8AF0708549A0708CD
:10302800C472052068D6062000B0070804B0070857
:10303800ECD7070808B0070870B58AB00646D8B1BB
:10304800504861F0E1FCFFF72FFD05464E49304638
:10305800FFF750FD0446D0B90DBB012202A9304646
:1030680024F051F9044608B3484B40F22712484966
:10307800484806F07FF931E00090474B4FF48772DB
:103088004349464806F076F940F207241CE03F4BD6
:103098004FF48D723E493F4806F06CF90EE002226B
:1030A80002A9304624F02FF9044680B92A460023A5
:1030B8003B4902A8FFF736FD044690B9002D38D0E9
:1030C800BCB1304861F0AAFC20460AB070BD2F4B55
:1030D8004FF491722E492F4806F04CF9002CEDD18F
:1030E800E4E72A4B40F22F1229492A4806F042F910
:1030F800E4E72C4902A8FFF7FDFC044650BB2A462A
:1031080006A902A824F0FAF8044658BB06A8FFF757
:103118002DFD044600282DD106A902A824F001F9A6
:10312800044640B1194B4FF4A5721949194806F0E5
:1031380021F9002CC5D102A9304624F0F2F8044642
:103148000028BED0114B40F251121149114806F027
:1031580011F9B6E70D4B4FF49C720D490D4806F076
:1031680009F9AEE7094B4FF49F720949094806F07F
:1031780001F9A6E7054B4FF4A2720549054806F088
:10318800F9F89EE7C472052034B00708B4AD070803
:10319800A7AF07083C9807080CB00708549A070817
:1031A800F454080838B0070870B58AB00646D8B194
:1031B800504861F029FCFFF785FC05464E4930462A
:1031C800FFF798FC0446D0B90DBB012202A930468E
:1031D80024F099F8044608B3484B40F2B71248491E
:1031E800484806F0C7F831E00090474B4FF4CF72DB
:1031F8004349464806F0BEF840F207241CE03F4B1E
:103208004FF4D5723E493F4806F0B4F80EE002226A
:1032180002A9304624F077F8044680B92A460023EC
:103228003B4902A8FFF77EFC044690B9002D38D030
:10323800BCB1304861F0F2FB20460AB070BD2F4B9C
:103248004FF4D9722E492F4806F094F8002CEDD18E
:10325800E4E72A4B40F2BF1229492A4806F08AF8C7
:10326800E4E72C4902A8FFF745FC044650BB2A4670
:1032780006A902A824F042F8044658BB06A8FFF79E
:10328800E9FC044600282DD106A902A824F049F833
:10329800044640B1194B4FF4ED721949194806F02C
:1032A80069F8002CC5D102A9304624F03AF8044642
:1032B8000028BED0114B40F2E1121149114806F026
:1032C80059F8B6E70D4B4FF4E4720D490D4806F076
:1032D80051F8AEE7094B4FF4E7720949094806F07F
:1032E80049F8A6E7054B4FF4EA720549054806F088
:1032F80041F89EE7C47205203CB00708B4AD070842
:10330800A7AF07083C9807080CB00708549A0708A5
:10331800F454080838B0070870B58EB0064660B394
:10332800694861F071FBFFF7D9FB054667493046EC
:10333800FFF7E0FB044658BB012202A9304623F000
:10334800E2FF0446002834D1614902A8FFF7D2FB06
:103358000446002835D1002D3BD1012206A902A838
:1033680023F0D1FF044600283AD05A4B4FF41F727D
:1033780059495A4805F0FEFF4AE00090584B40F280
:1033880055225549574805F0F5FF40F207240DE04E
:10339800504B40F262225049504805F0EBFF002D97
:1033A8005BD0002C37D0484861F038FB20460EB07F
:1033B80070BD484B4FF41A724749484805F0DAFF88
:1033C800EDE7444B40F26E224349444805F0D2FFF2
:1033D800E5E7022206A902A823F095FF044680B972
:1033E8002A460023404906A8FFF79CFB044600280C
:1033F800D5D0384B4FF421723749384805F0BAFF19
:10340800CDE7344B40F277223349344805F0B2FF18
:10341800002CC4D1E4E7354906A8FFF76BFB044646
:10342800002831D12A460AA906A823F067FF0446D6
:10343800002831D10AA8FFF7B1FC0446002833D18F
:103448000AA906A823F06DFF044640B1214B40F2BB
:103458009F222149214805F08DFF002CA3D106A900
:1034680002A823F05EFF044630BB02A9304623F0D1
:1034780058FF0446002896D0164B4FF42B72164975
:10348800164805F077FF8EE7124B40F28D2212495D
:10349800124805F06FFF86E70E4B40F293220E4963
:1034A8000E4805F067FF7EE70A4B40F299220A4969
:1034B8000A4805F05FFF76E7064B40F2A622064968
:1034C800064805F057FF6EE7C472052040B00708AC
:1034D80044B00708B4AD0708A7AF07083C98070829
:1034E8000CB00708549A0708F454080848B00708AD
:1034F80030B54FF0000E4FF00C0C09E010F80C300E
:103508002F2B13D0002010E00EF1010E0CF1010C4E
:103518008C4509D29E45F1D012F80E5010F80C4097
:10352800A542F1D0002000E0002030BD0120FCE7DA
:103538000B4B03604FF482728280991881608281FC
:1035480003F5027202618022828203F52271816191
:103558004FF40061C16103F68823036282847047D7
:103568004C06002008B54CF075FE022806D007DB93
:103578000438C0B2032805D9002002E0012000E089
:10358800002008BD0120FCE708B54CF0D3FD002061
:1035980026F020FB08BD000008B5002828D01A4AEC
:1035A80002601A4A42601A4A82601A4AC2601A4A7B
:1035B80042611A4A82611A4AC2611A4A02621A4A66
:1035C80042621A4A82621A4A02631A4AC2621A4A52
:1035D800C2651A4A82651A4AC2641A4A02651A4AB8
:1035E80082641A4A42651A4A02641A4A426408BD49
:1035F80005F074FE184B40F2C3421849184805F00C
:10360800B9FE05F06BFEFEE749280608952806086E
:10361800D52806083129060845290608792A060802
:10362800E52A0608552B06085D2B0608893B010884
:10363800393C0108DD3A010841600208ED620208E0
:10364800315F02087D61020881640208CD600208CA
:1036580075650208CD5D0208F497070862B007088F
:103668003C98070838B598B10C46054600F5005354
:103678004FF0FF31D3F80C0A25F06AF9012813D06E
:103688000F4B40F2F1120F490F4805F073FE38BD99
:1036980005F024FE0D4B4FF4F4720A490C4805F06E
:1036A80069FE05F01BFEFEE7002184F8001E05F503
:1036B80000550B460A46D5F80C0A24F0B3FEE6E797
:1036C80074B0070862B00708549A0708F497070807
:1036D8003C98070810B582B007285DD8DFE800F0ED
:1036E80004171F3B4C5C5C54304C314B40F2DE22DB
:1036F8002146304805F03EFE4DF01CFF2E4B40F2AF
:10370800EB2221462D4805F035FE02B010BD2C4BAA
:1037180040F2F3222549274805F02CFEF5E7294B0E
:1037280040F2FF222149234805F024FE02204DF0F3
:1037380033FD38B9244B40F226321C491D4805F0A8
:1037480019FEE2E70090214B40F22A3217491B4844
:1037580005F010FED9E719B11D48FFF783FFD4E73C
:1037680005F0BCFD1B4B40F2323210491A4805F0F7
:1037780001FE05F0B3FDFEE7184B4FF44F720B49FD
:103788000E4805F0F7FDC0E7154B4FF45072074996
:10379800084805F0EFFDB8E70090124B4FF451725E
:1037A8000249114805F0E6FDAFE700BF62B007081F
:1037B80094B00708A0A30708CCB00708549A0708D4
:1037C800ECB0070828B1070860B1070894B10708EA
:1037D80054110020F49707083C980708CCB1070853
:1037E8000CB2070820B20708ACA4070838B5B0B176
:1037F800054600F500534FF0FF31D3F80C0A25F0C9
:10380800A7F801282BD10023022B1CD840F604620C
:1038180002FB035292F8002E6AB10133F4E705F077
:103828005DFD134B4FF4FE721249134805F0A2FDDB
:1038380005F054FDFEE740F6046202FB0354012341
:1038480084F8003E00E0002405F5005500231A46E0
:103858001946D5F80C0A24F0E5FD204638BD074B7B
:1038680040F20E220349064805F084FD0024F4E7DF
:10387800F497070862B007083C98070874B007086F
:10388800549A0708F0B585B00023029303930029E2
:1038980032D00C46344B1D68002D39D04F680E8944
:1038A8002846FCF7EFFC03462A4631463846FFF720
:1038B8001FFE01284CD1236940F6FA5293423BD8A7
:1038C80000932A4B40F2993229492A4805F052FDC3
:1038D8002948FFF78BFF054630B32269E16862F09B
:1038E8006CFD2369C5F8FC3D03238DF80C30029567
:1038F80002A84CF0CBFE34E005F0F0FC1F4B40F280
:103908008D321B491E4805F035FD05F0E7FCFEE742
:1039180005F0E4FC194B40F28E321549184805F0C1
:1039280029FD05F0DBFCFEE7164B4FF46A721049DF
:10393800154805F01FFD14E040F6FA520192009375
:10394800124B40F2AD320A490F4805F013FD08E06A
:10395800019700960E4B40F2B23205490D4805F02A
:1039680009FD05B0F0BD00BF4806002060B2070899
:1039780062B00708A0A3070854110020F4970708AD
:103988003C98070888B20708549A0708B0B2070895
:1039980008B30708ACA4070870B584B000230293E5
:1039A800039329B30C464E680D89274B1B68274A99
:1039B800126829463046FFF79BFD012838D1236954
:1039C80040F6FA52934227D82148FFF70FFF0546E1
:1039D800D0B12269E16862F0F0FC2369C5F8FC3DCA
:1039E80006238DF80C30029502A84CF04FFE28E013
:1039F80005F074FC174B40F255321749174805F08B
:103A0800B9FC05F06BFCFEE7154B40F27132124928
:103A1800144805F0AFFC14E040F6FA520192009306
:103A2800114B40F276320C490E4805F0A3FC08E031
:103A3800019600950D4B40F27D3207490C4805F080
:103A480099FC04B070BD00BF440600204806002061
:103A580054110020F497070862B007083C9807083B
:103A680088B20708549A070860B30708ACB3070878
:103A7800ACA4070870B584B0054600238DF80F3054
:103A88008CB20DF10F03009314230E4A214651F016
:103A98000DFA9DF80F3023B9002623B1304604B043
:103AA80070BD094EF9E70DF10F0300931723074A7C
:103AB8002146284651F0FAF99DF80F30002BEDD039
:103AC800034EEBE704B407088D3801081CB4070857
:103AD800A139010870B584B070B10C460546B9B972
:103AE80005F0FCFB1F4B40F297421F491F4805F0A9
:103AF80041FC05F0F3FBFEE705F0F0FB194B40F243
:103B080096421949194805F035FC05F0E7FBFEE730
:103B1800FFF7B0FF064602F08DF8F8B106B30023B0
:103B28003246294602F0B4FC064658B9019500947D
:103B38000F4B40F2B4420C490E4805F01BFC3046CE
:103B480004B070BD0290019500940B4B40F2AB425B
:103B580005490A4805F00EFCA226F0E7A226EEE782
:103B6800A226ECE7F497070862B007083C98070814
:103B78006CB40708A0A3070834B40708549A0708C8
:103B8800F0B583B078B10C4615460646B9B905F0CC
:103B9800A5FB204B40F21B421F49204805F0EAFBD9
:103BA80005F09CFBFEE705F099FB1A4B40F21A4220
:103BB80019491A4805F0DEFB05F090FBFEE7FFF710
:103BC80059FF074602F036F8F8B107B3002300930F
:103BD8003B462A46314602F019FB054658B901967C
:103BE80000940F4B40F237420B490E4805F0C2FBD8
:103BF800284603B0F0BD00900B4B4FF4866206498F
:103C08000A4805F0B7FBA125F2E7A125F0E7A125B1
:103C1800EEE700BFF497070862B007083C9807086A
:103C2800BCB40708A0A307088CB40708549A07086F
:103C380070B58CB005460C46002007900890099096
:103C48000A900B90049005900690039002900895B6
:103C5800ADF824109DF840108DF81C100A920B93B3
:103C6800014627F0C9FB26F02DFF029042F210739F
:103C780006931B4B049302AB059301F0DBFF60B383
:103C880004AA07A953F038FE064660B942F2107339
:103C9800009303AB4FF0FF320021084627F0D8F815
:103CA80001280CD0032600960E4B40F27D420E49A7
:103CB8000E4805F05FFBA02630460CB070BD9DF89D
:103CC8000C60002EEFD101950094094B40F282421E
:103CD8000549084805F04EFBEEE7A026ECE700BFD3
:103CE800013D0108D8B4070862B00708549A0708CC
:103CF80014B50708A0A3070800B583B060B10A4649
:103D08000068A8B101B3002100910323127827F0BD
:103D18001DF903B05DF804FB05F0E0FA104B40F222
:103D280007421049104805F025FB05F0D7FAFEE7D1
:103D380005F0D4FA0A4B4FF481620A490A4805F0A3
:103D480019FB05F0CBFAFEE705F0C8FA044B40F280
:103D580009420449044805F00DFB05F0BFFAFEE7E7
:103D6800F497070862B007083C98070810B578B1BF
:103D7800044642F60C22002162F026F9012024F0C4
:103D88001DFC04F50054C4F80C0A00B1012010BD54
:103D980005F0A4FA044B40F2D5120449044805F092
:103DA800E9FA05F09BFAFEE7F497070862B00708FE
:103DB8003C98070830B5B3B00024309431943822C9
:103DC80021460AA862F000F918A8FFF7E5FB0AA83F
:103DD800FFF7AEFB7C4BDA7899781B880293019148
:103DE80000927A4B4FF4A66279497A4805F0C2FAF4
:103DF8007949204607F0FCFF784B186010B1764BE4
:103E08001B6813BB764B40F24F527149754805F059
:103E1800B1FA00231C46002B40D10125724B40F219
:103E2800CA526B496B4805F0A5FA002D00F0BA801C
:103E38006A4B186820B128F06BFA684B00221A60A8
:103E4800002025F0C7FE33B030BD684B40F2565213
:103E58005F49604805F08EFA654B00930123002204
:103E680020216448006823F0A7FF10F0200F0BD032
:103E7800614B4FF4AC625649564805F07BFA01F0A5
:103E8800D9FE04460123C6E75C4B40F2665250490E
:103E9800504805F06FFA01230024BCE784B10022E2
:103EA8000092574B5749204602F0B0F9054640B1F9
:103EB800554B40F2755246494A4805F05BFAADE762
:103EC800012544B1002200924D4B5049204602F092
:103ED8009DF90546A8B94E48FFF748FF01289DD12E
:103EE8004C4B3E4A126818A90AA84CF045F980B113
:103EF8000090494B40F2975235493A4805F03AFA52
:103F08008CE7464B40F285523149364805F032FA83
:103F180084E700230193032200924FF48052404922
:103F2800404825F045FE012808D000903E4B40F25D
:103F3800A65227492B4805F01DFA6FE700238DF894
:103F4800C43030A84CF0A2FB08E047F2305026F00D
:103F580053F94CF07FF90A283FF460AF0023069329
:103F6800079308930993FFF7FDFA0128EDD106A8F6
:103F78004CF076F90028E8D14CF06CF9099B0493D1
:103F8800089B0393079B0293069B0193274B53F8C7
:103F980020300093264B40F2BD520D490D4805F0E4
:103FA800E9F9D2E70023164A1649204602F070FACA
:103FB80000283FF43DAF1F4B40F2D5520449094851
:103FC80005F0D8F934E700BF9C36090844B507085E
:103FD80062B00708A0A3070844060020480600208E
:103FE8006CB50708549A070878B707089CB50708FE
:103FF800C0D40100A4860020C4B50708ECB50708A2
:104008008D38010820B6070840B607087CB60708AF
:1040180054110020DD360108CCB607089CB6070805
:10402800FCB607089135010808B70708B83309082E
:1040380034B70708A4B7070808B5044B186818B1BF
:104048000022012123F0D0FF08BD00BF683B0020FB
:1040580008B5044B186818B10022012123F0C4FFE9
:1040680008BD00BF683B00202DE9F0418EB007462F
:104078000E4614461D46002009900A900B900C909D
:104088000D900DF11C08079008900490059006907B
:104098000390014627F0B0F98DF824708DF825605B
:1040A8000A942046FCF7EEF8ADF82C000C95149B0A
:1040B8000D9326F007FD07904FF4FA730693124B01
:1040C8000493CDF8148002E0039BB3B9BCB104AAF1
:1040D80009A90E4B186853F00FFC04460028F5D1C7
:1040E8004FF0FF33009303AB00221146104626F031
:1040F800AFFE0128E8D00324E8E70324E6E72046DA
:104108000EB0BDE8F08100BF19410108643B0020F2
:10411800006850B110B582B00024009403230A78D7
:10412800214626F013FF02B010BD70472DE9F0417B
:1041380086B00023059301F083FD01F07BFD894BD8
:10414800186000283DD001F039FD874B40F20B1272
:104158008649874805F00EF905A9002007F048FEB2
:104168000546002839D04FF4007027F0EBFF0446CD
:1041780000283ED023F011FE7E4B1860002844D062
:104188002B467D4A40217D4861F07AFD00227C491A
:104198004FF400500BF084FD00227A494FF4005090
:1041A8000BF0A2FD0025002D40F09780764B03EB25
:1041B800051359686F4B186823F0BEFE0135EDB240
:1041C800F1E705F08BF8714B4FF48372674970483B
:1041D80005F0D0F805F082F8FEE705F07FF86B4BA4
:1041E8004FF4877261496A4805F0C4F805F076F81B
:1041F800FEE705F073F8654B40F211125B4964481D
:1042080005F0B8F805F06AF8FEE705F067F85F4BC7
:104218004FF48A7255495E4805F0ACF805F05EF82F
:10422800FEE7594A02EB0312526811430133DBB22D
:1042380055E0B046544F07EB0617B989B86817F030
:1042480027FAF873BB7B834216D0524A6019C5F52A
:104258000071142D12DD504B01924FEA08184A4A9A
:1042680052F8082000924D4A61F00AFD002807DB49
:1042780005440136F6B24BE0494AE7E7494BEBE71C
:1042880005F02CF8414B40F253123849404805F0EC
:1042980071F805F023F8FEE705F020F83B4B40F2F3
:1042A8005B1232493A4805F065F805F017F8FEE761
:1042B80005F014F8354B40F25F122C49344805F0EC
:1042C80059F805F00BF8FEE72C4B0093364B4FF4EA
:1042D800B9722649354805F04DF800231946002BD8
:1042E8009FD04FF0FF33009300230122214800683C
:1042F80023F062FD0028F0D02D4D0FCD20606160C5
:10430800A260E360286820612B79237500261425B4
:10431800002E8ED0274AC5F50071601961F0B0FCF7
:104328000028B9DB0544B5F5007FC1D20294019598
:10433800124E0096204B40F261120C490C4805F0D1
:1043480019F800952346324601210020FFF78CFE1C
:104358000028B9D1194B4FF4B7720449044805F045
:1043680009F8BAE7643B00208CB807087DB807084D
:10437800A0A30708683B0020C4B807086C3B0020CE
:10438800594001084140010800000020F49707083F
:104398003C980708CCBA070864B80708F8B80708B3
:1043A800C0BA0708DC7608087CB90708549A0708D9
:1043B800E0B8070818B9070820B9070850B907086E
:1043C800064B1B78DBB2012B03D0022B03D1012053
:1043D8007047002070470320704700BF384E002008
:1043E800012804D0022804D028B90448704704489A
:1043F8007047044870470448704700BFACB90708C5
:10440800B4B90708BCB90708E466080830B5A3B012
:104418000546154B154A802102A861F031FC09E0D8
:1044280002AB0093124B40F2A5121249124804F055
:10443800A1FFACB100230093104B2A4602A9104CEF
:10444800206801F0E3FE04460028E9D102AB00939E
:104458000C4B40F2A71207490B4804F08BFFE8E722
:10446800204623B030BD00BFB03B0020C4B90708C8
:10447800D8B9070804BA0708549A07087545010807
:10448800AC3B002014BA0708A0A3070838B50546B6
:1044980000240CB1002038BD23012946054AD05814
:1044A800FBF7E6FE10B10134E4B2F2E7014800EB95
:1044B8000410F0E71000002010B50446012201881E
:1044C800406817F0ECF84FF47A7025F095FE00225A
:1044D8002188606817F0E3F810BD08B50430FFF7CD
:1044E800EBFF08BD08B50430FFF7E6FF08BD08B5C7
:1044F8000430FFF7E1FF08BD70B582B005460C46F1
:10450800FFF7C4FF98B1064612492046FBF7B0FEF4
:10451800B0B111492046FBF7ABFEB0B10F492046B8
:10452800FBF7A6FE78B93046FFF7E1FF0BE00095F0
:104538000B4B4FF49F720B490B4804F01BFF02E032
:104548003046FFF7CAFF02B070BD3046FFF7CAFF1A
:10455800F9E700BF3CBA070844BA07084CBA07088D
:1045680024BA070804BA0708ACA4070830B5B9B0DC
:104578000C460D897F2D00D97F252A46616818A829
:1045880061F01BFF05F1E0030DEB0305002305F8BF
:10459800803C25693F2D00D93F252A46E16808A8B7
:1045A80061F00BFF05F1E0030DEB0305002305F8AF
:1045B800C03C114918A861F0CBFD0546C8B10735C4
:1045C8002F21284661F008FD98B1441B1F2C00D903
:1045D8001F2422462946684661F0EFFE04F1E003F5
:1045E8000DEB0304002304F8E03C08A96846FFF734
:1045F80083FF39B030BD00BF54BA07082DE9F04138
:104608008EB007460E4614461D46002009900A90B3
:104618000B900C900D900690079008900DF11008E3
:10462800049005900390014626F0E6FE8DF824706C
:104638008DF825600A942046FBF724FEADF82C007F
:104648000C95149B0D9326F03DFA04904FF4FA73E1
:104658000893114B0693CDF81C8003E0039B03B12C
:104668000324ACB106AA09A90C4B186853F044F905
:1046780004460028F5D14FF0FF33009303AB002226
:104688001146104626F0E4FB0128E7D00324E8E7AA
:1046980020460EB0BDE8F0810D470108AC3B002074
:1046A80030B5ABB000240CB12BB030BD2046FFF7BD
:1046B80087FE104B220103EB041528739B580093C7
:1046C8000D4B0E4A80210AA861F0DAFA287BFFF721
:1046D80087FE03460A4A202102A861F0D1FA009019
:1046E80002AB0AAA01210846FFF788FF0134E4B2A9
:1046F800D9E700BF10000020B03B0020B09A07089F
:1047080060E10708006850B110B582B00024009439
:1047180003230A78214626F019FC02B010BD704721
:1047280070B584B001F08CFA01F084FA2F4B186050
:1047380000283CD001F042FA0020039003A907F0BA
:1047480057FB054600283ED0039E294C32460146B9
:10475800204661F032FE0023A355284627F0D8FDF5
:104768000094244B4FF4FD722349244804F002FEC0
:104778000120FFF74BFEFFF793FF4FF0FF33009345
:10478800002301224FF400711D48006823F014FB38
:104798000024002CF1D12046FFF712FE194B03EB41
:1047A80004131B7B83421AD10134E4B2F1E704F00D
:1047B80095FD154B4FF4F7720F49144804F0DAFDD4
:1047C80004F08CFDFEE704F089FD0F4B4FF4FA72FC
:1047D80009490E4804F0CEFD04F080FDFEE7094BC0
:1047E80003EB04131873FFF75BFFDDE7AC3B002016
:1047F800B03B00205CBA070804BA0708A0A3070862
:10480800A486002010000020F49707083C980708A9
:1048180070B582B006460D4608E00090114B40F294
:10482800A5121149114804F0A5FDC4B10023009355
:104838000F4B324629460F4C206801F0E7FC04462E
:104848000028EAD12846FBF71DFD019500900A4B88
:1048580040F2A9120449094804F08CFDE5E7204616
:1048680002B070BD8CB4070892BA0708549A0708BA
:104878000D4B0108703C0020BCB40708A0A3070832
:104888002DE9F0418EB007460E4614461D4600201D
:1048980009900A900B900C900D900DF11C08079050
:1048A80008900490059006900390014626F0A4FD18
:1048B8008DF824708DF825600A942046FBF7E2FCF9
:1048C800ADF82C000C95149B0D9326F0FBF807907F
:1048D8004FF4FA730693124B0493CDF8148002E058
:1048E800039BB3B9BCB104AA09A90E4B186853F0CD
:1048F80003F804460028F5D14FF0FF33009303ABCB
:1049080000221146104626F0A3FA0128E8D0032415
:10491800E8E70324E6E720460EB0BDE8F08100BFD3
:1049280031490108703C0020006850B110B582B0D0
:104938000024009403230A78214626F007FB02B0DE
:1049480010BD70472DE9F04397B00746002615962D
:104958001496344611E02A465F49404661F06DFBE3
:1049680000283AD15D4B03EB04131B7B5C4A52F8D9
:104978002320002A50D00134E4B2012C59D8A14692
:104988002301564AD358574A402104A861F078F9C0
:104998000546431E3E2BEED84FF00008CDF8548054
:1049A800CDF850803846FBF76DFC0146CDF80880FD
:1049B80014AB019315AB00932B4604AA38464FF06D
:1049C8002AF90128D7D1DDF85480B8F1000FD2D0E8
:1049D800149D002DCFD0022DBDD0032DCBD12A465A
:1049E8004149404661F029FB0028C4D13B4B03EB09
:1049F80009131B7B3A4A52F82350012DBBD10021E1
:104A080042F82310354B03EB0913DA7A19895868F1
:104A180016F045FE2E46AEE70126314A42F82360DD
:104A28002E4B03EB04139A7A1989586816F037FE4F
:104A3800A1E73EB92D493846FBF71AFCA8B9284B1F
:104A48001B6823B1012E0AD017B0BDE8F083244BB0
:104A580001221A6000224021254816F020FE01217B
:104A6800244B186823F068FAEEE723493846FBF729
:104A7800FFFB60B91A4B1B68012BE3D1184B0022CE
:104A88001A60012240211A4816F009FEE7E71B497F
:104A98003846FBF7EDFB60B9114B5B68002BD1D1B1
:104AA8000F4B01225A6000228021114816F0F7FDB1
:104AB800D5E713493846FBF7DBFB0028C2D1084B82
:104AC8005B68012BBED1064B00225A60012280216F
:104AD800074816F0E4FDC2E7C0BA0708E83309083A
:104AE800803C0020A0BA0708CCBA0708B8BA070863
:104AF800001C0242743C0020C4BA0708D0BA070858
:104B0800E0BA070830B583B00C460A697F2A16D97F
:104B18000F4D8022C968284661F04FFC002385F8B4
:104B28007F300B4C00940B4B40F28F120A490B4814
:104B380004F020FC2046FFF705FF03B030BD044D0C
:104B4800C968284661F039FC23690022EA54E8E77D
:104B5800F03B0020F0BA070892BA0708A0A307089C
:104B680070B586B00023059301F06AF801F062F889
:104B7800694B1860002831D001F020F8674B40F2EB
:104B88000E226749674804F0F5FB05A9002007F0E5
:104B98002FF9044670B3802027F0D4FA0546002880
:104BA80034D02346604A4021604861F069F82346C2
:104BB8005F4A40215F4861F063F823F0EEF85E4BEE
:104BC800186078B35B490120FFF722FE002835D131
:104BD8000121594B186823F0AFF974E004F07EFB0B
:104BE800564B40F20A224E49554804F0C3FB04F0E4
:104BF80075FBFEE704F072FB504B40F21122484966
:104C08004F4804F0B7FB04F069FBFEE704F066FBCD
:104C18004A4B4FF405724249494804F0ABFB04F093
:104C28005DFBFEE704F05AFB444B40F21B223C4973
:104C3800434804F09FFB04F051FBFEE73D4B009313
:104C4800404B40F2222236493F4804F093FB0020B3
:104C580024F0C0FFBCE73D4A52F823103C4A42F812
:104C680023100133DBB2012BF5D9384B1B68002B1D
:104C780038D0384B354A5268002A35D0354A009228
:104C8800354A8021284660F0FBFF04467F282DD84E
:104C980002950190254E0096304B40F2462220495D
:104CA800204804F067FB00942B4632460121084651
:104CB800FFF7E6FD30BB0096294B40F25322184916
:104CC800184804F057FB4FF0FF33009301231A46AE
:104CD80019461948006823F06FF810F0010FF2D058
:104CE8000023C0E71F4BC5E71E4AC8E704F0F6FAE1
:104CF800124B4FF411720A49114804F03BFB04F0BF
:104D0800EDFAFEE7094B0093174B4FF4167204496E
:104D18000D4804F02FFBD6E7703C002018BB0708AD
:104D280092BA0708A0A30708489D0708883C0020F6
:104D3800389D0708C83C0020743C0020F4970708F9
:104D48003C98070860BB0708549A0708803C002075
:104D5800783C0020C0BA070884BB0708E0BB0708F6
:104D680008BC0708CCBA07082CBC07080F4B1B68FF
:104D780003B1704710B582B000220421202023F02F
:104D8800D9FA0A4B186000240BE0094B03EB041313
:104D9800019300231A4601A90448006823F042FB46
:104DA80001341F2CF1D902B010BD00BF083D00200E
:104DB8000C3D002010B582B000230193174B1C68EE
:104DC8002CB3C30E4101091A63F100039B0043EAA7
:104DD80091738900091843F100034FEAC30C4FF49B
:104DE8007A720023C8004CEA5171FBF737FF02467C
:104DF80001A9204623F0FEFC10B1019802B010BDB5
:104E0800074B5A220749084804F0B4FAF5E7074B5C
:104E18005F220449044804F0ADFAEEE7083D00209B
:104E28004CBC07087FBC0708549A070898BC0708B9
:104E380000B585B00390134B1868A8B1039B124ABC
:104E4800934203D302F50072934215D900930F4B96
:104E580073220F490F4804F08DFA0020003818BF5C
:104E6800012005B05DF804FB0B4B6D220849094889
:104E780004F080FA0020F1E700231A4603A923F082
:104E8800D1FAEBE7083D00200C3D0020B8BC07082C
:104E98007FBC0708549A070898BC070838B538B18A
:104EA800054689B1132A1BD8132B25D8002030E0DA
:104EB80004F014FA214B40F24F122149214804F022
:104EC80059FA04F00BFAFEE704F008FA1B4B4FF40A
:104ED800A8721B491B4804F04DFA04F0FFF9FEE7DD
:104EE80004F0FCF9154B40F251121549154804F02D
:104EF80041FA04F0F3F9FEE704F0F0F90F4B4FF430
:104F0800A9720F490F4804F035FA04F0E7F9FEE7F3
:104F18000130132810D805EB001E02EB420C01EB00
:104F28008C0CDEF80C406445F2D103EB430401EB32
:104F38008404CEF80C40EBE738BD00BFF4970708AF
:104F480007BD07083C98070810B5C4688C4201D013
:104F5800002010BD4168994201D00020F9E703689C
:104F6800934201D00020F4E7846825F0ABFD844229
:104F780001D00020EDE70120EBE7000038B5B0B123
:104F8800044625F09FFD0546D4F8A40223F00AFA4A
:104F9800854206D0224B40F2EA222249224804F0F8
:104FA800E9F90023C4F89432C4F898321EE004F0FA
:104FB80095F91E4B40F2E9221A491B4804F0DAF928
:104FC80004F08CF9FEE7E218802182F8F01003F172
:104FD800400204EB82020021516003EB430290007F
:104FE80004EB82025160215411810133132BEAD959
:104FF80000230DE003F1150104EB011100228A6082
:105008004A6004EB0311C1F86021C1F85C21013347
:10501800132BEFD90023C4F8A032C4F89C3238BD52
:10502800B4AD070807BD07083C980708F4970708B8
:105038002DE9F84338B188469146064679B10024EF
:10504800274625463FE004F049F9294B4FF4B3724F
:105058002849294804F08EF904F040F9FEE704F0E5
:105068003DF9234B40F267122249234804F082F9A4
:1050780004F034F9FEE71A8972BB132D2CD8A54227
:1050880000D8651C132D1DD805EB45024FEA820E8A
:1050980006EB820CBCF808200AB90135F2E79CE857
:1050A800070083E80700002346F80E30CCF80430E8
:1050B800CCF8083023462A4631464046FFF7EEFE34
:1050C800013701350134132C0DD804EB440306EBEA
:1050D800830358680028CED00028F3D01B89002B02
:1050E800F0D00137EEE7C9F80070BDE8F88300BFDB
:1050F800F497070807BD07083C9807082DE9F84307
:1051080038B18946054681B14FF0000C6746E6463E
:105118003BE004F0E3F82B4B4FF4D1722A492B48BB
:1051280004F028F904F0DAF8FEE704F0D7F8254B84
:1051380040F2A3122449254804F01CF904F0CEF8E3
:10514800FEE7BEF1130F28D8E64501D80CF1010E91
:10515800BEF1130F17D84FEA0E1805EB0E16F368B9
:1051680013B90EF1010EF3E7E6451AD996E80F00D8
:1051780084E80F00002345F808307360B360F360DB
:1051880001370EF1010E0CF1010CBCF1130F14D80C
:1051980005EB0C14E368002BD3D0002BF3D00137B8
:1051A800F1E704F09BF8074B40F2B51206490748AF
:1051B80004F0E0F804F092F8FEE7C9F80070BDE8E2
:1051C800F88300BFF497070807BD07083C9807084D
:1051D80068B100B583B00023009301234FF000426B
:1051E8000321406825F0B2FE03B05DF804FB704768
:1051F80000B583B079B158B10A784B6813B11B7800
:1052080002EB0362002300930323194625F09EFE58
:1052180003B05DF804FB04F061F8054B40F2BA52A4
:105228000449054804F0A6F804F058F8FEE700BF62
:10523800F497070807BD07083C98070800B583B02E
:1052480051B130B10023009303230A78194625F0A1
:105258007DFE03B05DF804FB04F040F8044B40F217
:10526800B6620449044804F085F804F037F8FEE70C
:10527800F497070807BD07083C98070800B585B0EC
:1052880084460846114600238DF80F300DF10F03B0
:105298000093BCF80830DCF804204FF007FE20B972
:1052A8009DF80F3013B1012000E0002005B05DF833
:1052B80004FB000008B524F001FE024B1B68C01A6D
:1052C80008BD00BF203F002030B585B00023039300
:1052D80080B30C46054679B3D00E53019B1A60F192
:1052E8000000800040EA93709B0013EB020C40F131
:1052F8000001C9004FF47A7200234FEACC0041EA5A
:105308005C71FBF7ABFC009003AB4FF0FF32002160
:10531800032025F09DFD034678B1039B002B02DA9C
:105328000023236009E000222146286823F062FA5E
:10533800034602E0002300E00023181E18BF0120E6
:1053480005B030BD30B583B058B30C46054651B3EF
:10535800D00E53019B1A60F10000800040EA937060
:105368009B0013EB020C40F10001C9004FF47A7264
:1053780000234FEACC0041EA5C71FBF76FFC024660
:1053880000232146286823F04DF80446686858B180
:105398000023009301234FF08042032125F0D6FD1E
:1053A80002E0002400E00024201E18BF012003B002
:1053B80030BD000030B583B0F0B10446D0F8A43257
:1053C8002BB325F07FFB0546D4F8A40222F0EAFFB0
:1053D800854205D0184BFD221849194803F0CAFF29
:1053E80000231A461946D4F8A40223F01BF80446F1
:1053F800C0B1204603B030BD03F070FF114BFB2253
:105408000E490F4803F0B6FF03F068FFFEE703F00C
:1054180065FF0C4BFC220949094803F0ABFF03F078
:105428005DFFFEE70090084B40F20712034907486A
:1054380003F0A0FFDDE700BFB4AD070807BD07080C
:105448003C980708F49707081CBD0708549A0708F2
:105458002DE9F04182B0B8B10F46064601B325F0F8
:1054680031FB0446D6F8A40222F09CFF84425ED0A9
:1054780003F034FF324B40F22B223249324803F01A
:1054880079FF03F02BFFFEE703F028FF2C4B40F2D7
:1054980029222C492C4803F06DFF03F01FFFFEE77B
:1054A80003F01CFF264B40F22A222649264803F027
:1054B80061FF03F013FFFEE70134132C16D806EB47
:1054C8000413D3F860314345F6D106EB0413D3F83F
:1054D8005C010028F0D024F0FDFC00901B4B40F24A
:1054E800432218491A4803F045FFE5E70135D6F885
:1054F8009432AB421DD97B685A5D731983F8F0204A
:105508007B685B5D802BF1D105EB450806EB8808CD
:10551800B8F80830D8F80420019200930D4B4FF4E6
:105528000E7208490C4803F025FF0024C5E7002542
:10553800DDE73046FFF73EFF02B0BDE8F08100BF6F
:10554800F497070807BD07083C98070878BD0708BF
:10555800ACA4070848BD0708549A070870B586B078
:10556800C9B106460C46D1F8A43203B325F0AAFA0D
:105578000546D4F8A40222F015FF854223D003F093
:10558800ADFE274B40F256222649274803F0F2FE8B
:1055980003F0A4FEFEE703F0A1FE214B4FF41572C1
:1055A8002049214803F0E6FE03F098FEFEE703F0E9
:1055B80095FE1B4B40F255221A491B4803F0DAFEB0
:1055C80003F08CFEFEE704F5257204F5AA71204667
:1055D800FFF72EFDD4F89432DBB1144A03920494F9
:1055E80000220592C4F89C42C4F8A03203AA04F52C
:1055F8002771304652F044F9044670B14FF0B2FCBE
:1056080000900B4B40F2712206490A4803F0B2FEA3
:1056180003E02046FFF7CEFE0024204606B070BD0A
:10562800F497070807BD07083C980708595401086C
:10563800C8BD0708549A070830B583B0B8B1044606
:10564800D0F8A432F3B125F03DFA0546D4F8A40207
:1056580022F0A8FE854220D04FF0FF31D4F8A402F2
:1056680023F076F90446F8B1204603B030BD03F0C4
:1056780035FE114BE1221149114803F07BFE03F07E
:105688002DFEFEE703F02AFE0B4BE2220B490C48E5
:1056980003F070FE03F022FEFEE70A4BE4220749FE
:1056A800074803F067FED7E70090074BEF2203494E
:1056B800064803F05FFED7E7F497070807BD070819
:1056C8003C980708B4AD070804BE0708549A0708B1
:1056D8002DE9F04182B060B11546D0F80861A6B155
:1056E800FAB13046FFF7A8FF00284CD00024A046A6
:1056F80024E003F0F3FD2B4B40F2A9222A492B4862
:1057080003F038FE03F0EAFDFEE703F0E7FD254B62
:1057180040F2AA222449254803F02CFE03F0DEFDBE
:10572800FEE703F0DBFD1F4B40F2AB221E491F488A
:1057380003F020FE03F0D2FDFEE70134132C1CD841
:1057480006EB0413D3F860010028F6D02A896968AB
:10575800FFF794FD07460028EFD006EB0413D3F8B3
:105768005C0124F0B7FB04F1150306EB03135A6838
:10577800294698689047B846DFE73046FFF71AFE93
:10578800B8F1000F0AD12B896A6801920093084B7F
:1057980040F2D3220449074803F0ECFD02B0BDE80B
:1057A800F08100BFF497070807BD07083C98070871
:1057B8002CBE0708ACA4070810B570B10446012038
:1057C80022F0FCFEC4F8A40298B12046FFF734FF8B
:1057D8002046FFF7D3FB002010BD03F07FFD064BEA
:1057E80040F20B320549064803F0C4FD03F076FD8C
:1057F800FEE70220F0E700BFF497070807BD070897
:105808003C980708F0B585B01F4601230393002391
:105818000293044698B30D461646002938D0002A4C
:105828003FD040F21442002160F0CEFBC4F8106172
:10583800C4F81471C4F82451624BC4F81C31624B8B
:10584800C4F81831012084F8EC033C23A4F8EE33A3
:105858004FF0FF33019301A906F0CAFA0546019BF0
:10586800013B13F1030F25D8584960F071FC38B398
:10587800574BC4F8F8334423A4F8FC331FE0554BC6
:1058880040F246325449554803F074FD01252FE093
:10589800534B40F24B325049504803F06BFD012501
:1058A8006CE0504B4FF454724B494C4803F062FD86
:1058B800012563E00023C4F8F833A4F8FC3315B1DC
:1058C800284626F025FD0020C4F80004A4F80404A6
:1058D80002A906F08DFAC4F8F003002846D0029B0E
:1058E800002B43D0B3F5803F40D2A4F8F433002511
:1058F800002D43D100220421202022F01BFDC4F8F2
:105908003C0100283DD025F0DDF8C4F84001002D09
:1059180034D104F59E73C4F82831334BC4F82C31C4
:10592800324BC4F83031324BC4F83431314BC4F8FF
:10593800383104F20C41012006F05AFAC4F8080480
:10594800D4F80C3433B328B303A9022006F08AFA3A
:10595800C4F8100408B1039B2BBB274B40F2C33299
:105968001D491E4803F006FD022507E0234B40F2BF
:1059780092321949194803F0FDFC0225284605B062
:10598800F0BD1F4B40F29F321349144803F0F2FC5C
:105998000225B8E71B4B40F2B7320F490F4803F016
:1059A800E9FC0225EAE704F5A270FFF705FF0546C2
:1059B8000028E3D0144B40F2CE320749074803F0E1
:1059C800D9FCDBE751DD010825DC0108DCBE07084E
:1059D800E8BE070878BE070807BD0708549A0708F5
:1059E80094BE0708B8BE07084D530108D1520108F4
:1059F800BD4D0108394E0108BCBF070830BF070874
:105A080060BF070890BF0708E8BF070838B5C0B1EE
:105A18000446D0F8A4329BB125F054F80546D4F8D2
:105A2800A40222F0BFFC854206D00C4B4FF438721A
:105A38000B490C4803F09EFCD4F8A40223F0F0F9BB
:105A480038BD03F04BFC084B4FF437720449054846
:105A580003F090FC03F042FCFEE700BFB4AD07087A
:105A680007BD07083C980708F4970708C0B110B5A8
:105A78000446D0F83C0108B123F0D2F9D4F8F00379
:105A880008B126F045FCD4F8080408B126F040FC1B
:105A980004F5A270FFF7BAFF204626F039FC10BDC6
:105AA80070470000F0B589B005460C4617461E46FB
:105AB800069101230793254B039325F003F80490DF
:105AC80005966DB1C4B11FB30321002025F094FCE5
