:020000040801F1
:1000000000000C20CD750208B5250208B7250208AE
:10001000B9250208BB250208BD2502081D76020885
:10002000000000000000000000000000D5B403083C
:10003000BF2502080000000079B4030881260208E9
:100040001D7602081D7602081D7602081D7602083C
:100050001D7602081D7602081D7602081D7602082C
:100060001D7602081D7602081D7602081D7602081C
:100070001D760208C12502081D7602081D760208B9
:100080001D7602081D7602081D7602081D760208FC
:100090001D7602081D7602081D7602081D760208EC
:1000A000CB250208D7250208E3250208F12502081E
:1000B0000000000001260208112602081D76020831
:1000C0001D76020821260208312602081D76020844
:1000D0001D7602081D7602081D7602081D760208AC
:1000E0001D7602081D7602081D7602081D7602089C
:1000F0001D7602081D7602081D7602081D7602088C
:100100001D7602081D7602081D7602081D7602087B
:100110001D7602081D7602081D7602081D7602086B
:100120001D7602081D7602081D7602084126020887
:1001300051260208612602081D7602081D76020873
:100140001D7602081D7602081D7602081D7602083B
:100150001D7602081D7602081D7602081D7602082B
:100160001D7602081D7602081D7602081D7602081B
:100170001D7602081D7602081D7602081D7602080B
:100180001D7602081D7602081D7602081D760208FB
:100190001D7602081D7602081D7602081D760208EB
:1001A0001D7602081D7602081D7602081D760208DB
:1001B0001D76020800000000712602081D76020864
:1001C0001D760208000000001D7602081D76020858
:1001D0001D7602081D7602081D7602081D760208AB
:1001E0001D7602081D7602081D7602081D7602089B
:1001F00000000000000000001D7602081D760208C5
:100200001D7602081D7602081D7602081D7602087A
:100210001D7602081D7602081D7602081D7602086A
:100220001D7602081D7602081D7602081D7602085A
:080230001D7602081D7602088C
:1002380010B5054C237833B9044B13B10448AFF318
:1002480000800123237010BDE0050020000000009D
:100258003CA2070808B5034B1BB103490348AFF399
:10026800008008BD00000000E40500203CA207084B
:1002780010F8012B11F8013B012A28BF9A42F7D048
:10028800D01A7047034613F8012B002AFBD1181A1D
:100298000138704781F0004102E000BF83F000435D
:1002A80030B54FEA41044FEA430594EA050F08BF09
:1002B80090EA020F1FBF54EA000C55EA020C7FEACD
:1002C800645C7FEA655C00F0E2804FEA5454D4EB4A
:1002D8005555B8BF6D420CDD2C4480EA020281EA14
:1002E800030382EA000083EA010180EA020281EA4C
:1002F8000303362D88BF30BD11F0004F4FEA01319E
:100308004FF4801C4CEA113102D0404261EB4101AC
:1003180013F0004F4FEA03334CEA133302D0524232
:1003280063EB430394EA050F00F0A780A4F10104EE
:10033800D5F1200E0DDB02FA0EFC22FA05F2801828
:1003480041F1000103FA0EF2801843FA05F359410E
:100358000EE0A5F120050EF1200E012A03FA0EFC8D
:1003680028BF4CF0020C43FA05F3C01851EBE371B7
:1003780001F0004507D54FF0000EDCF1000C7EEBD4
:1003880000006EEB0101B1F5801F1BD3B1F5001F12
:100398000CD349085FEA30004FEA3C0C04F1010431
:1003A8004FEA445212F5800F80F09A80BCF1004F5A
:1003B80008BF5FEA500C50F1000041EB045141EADC
:1003C800050130BD5FEA4C0C404141EB0101013CA5
:1003D80028BFB1F5801FE9D291F0000F04BF014694
:1003E8000020B1FA81F308BF2033A3F10B03B3F166
:1003F80020020CDA0C3208DD02F1140CC2F10C02F6
:1004080001FA0CF021FA02F10CE002F11402D8BF53
:10041800C2F1200C01FA02F120FA0CFCDCBF41EA1F
:100428000C019040E41AA2BF01EB0451294330BDEE
:100438006FEA04041F3C1CDA0C340EDC04F11404CB
:10044800C4F1200220FA04F001FA02F340EA0300A2
:1004580021FA04F345EA030130BDC4F10C04C4F1E8
:10046800200220FA02F001FA04F340EA03002946C8
:1004780030BD21FA04F0294630BD94F0000F83F412
:10048800801306BF81F480110134013D4EE77FEAF5
:10049800645C18BF7FEA655C29D094EA050F08BF41
:1004A80090EA020F05D054EA000C04BF1946104622
:1004B80030BD91EA030F1EBF0021002030BD5FEA66
:1004C800545C05D14000494128BF41F0004130BD8E
:1004D80014F580043CBF01F5801130BD01F00045E2
:1004E80045F0FE4141F470014FF0000030BD7FEA55
:1004F800645C1ABF194610467FEA655C1CBF0B4650
:10050800024650EA013406BF52EA033591EA030F66
:1005180041F4002130BD00BF90F0000F04BF00215E
:10052800704730B54FF4806404F132044FF0000591
:100538004FF0000150E700BF90F0000F04BF00210A
:10054800704730B54FF4806404F1320410F0004570
:1005580048BF40424FF000013EE700BF42004FEA6B
:10056800E2014FEA31014FEA02701FBF12F07F43E8
:1005780093F07F4F81F06051704732F07F4208BF9F
:10058800704793F07F4F04BF41F40021704730B5A6
:100598004FF4607401F0004521F000411CE700BFF2
:1005A80050EA010208BF704730B54FF000050AE075
:1005B80050EA010208BF704730B511F0004502D576
:1005C800404261EB41014FF4806404F132045FEA78
:1005D800915C3FF4D8AE4FF003025FEADC0C18BF21
:1005E80003325FEADC0C18BF033202EBDC02C2F113
:1005F800200300FA03FC20FA02F001FA03FE40EAA5
:100608000E0021FA02F11444BDE600BF70B54FF0A8
:10061800FF0C4CF4E06C1CEA11541DBF1CEA135586
:1006280094EA0C0F95EA0C0F00F0DEF82C4481EAEE
:10063800030621EA4C5123EA4C5350EA013518BF0E
:1006480052EA033541F4801143F4801338D0A0FBFB
:1006580002CE4FF00005E1FB02E506F00042E0FBA8
:1006680003E54FF00006E1FB03569CF0000F18BFAE
:100678004EF0010EA4F1FF04B6F5007F64F5407456
:1006880004D25FEA4E0E6D4146EB060642EAC621E9
:1006980041EA55514FEAC52040EA5E504FEACE2E56
:1006A800B4F1FD0C88BFBCF5E06F1ED8BEF1004F59
:1006B80008BF5FEA500E50F1000041EB045170BDD5
:1006C80006F0004646EA010140EA020081EA030119
:1006D800B4EB5C04C2BFD4EB0C0541EA045170BD15
:1006E80041F480114FF0000E013C00F3AB8014F18F
:1006F800360FDEBF002001F0004170BDC4F10004D8
:10070800203C35DA0C341BDC04F11404C4F1200558
:1007180000FA05F320FA04F001FA05F240EA0200B3
:1007280001F0004221F0004110EBD37021FA04F6E9
:1007380042EB06015EEA430E08BF20EAD37070BDA3
:10074800C4F10C04C4F1200500FA04F320FA05F002
:1007580001FA04F240EA020001F0004110EBD37004
:1007680041F100015EEA430E08BF20EAD37070BD74
:10077800C4F1200500FA05F24EEA020E20FA04F34D
:1007880001FA05F243EA020321FA04F001F00041FC
:1007980021FA04F220EA020000EBD3705EEA430E6D
:1007A80008BF20EAD37070BD94F0000F0FD101F09C
:1007B8000046400041EB010111F4801F08BF013CD5
:1007C800F7D041EA060195F0000F18BF704703F013
:1007D8000046520043EB030313F4801F08BF013D9A
:1007E800F7D043EA0603704794EA0C0F0CEA135556
:1007F80018BF95EA0C0F0CD050EA410618BF52EA10
:100808004306D1D181EA030101F000414FF0000015
:1008180070BD50EA410606BF1046194652EA430623
:1008280019D094EA0C0F02D150EA013613D195EA97
:100838000C0F05D152EA03361CBF104619460AD1DF
:1008480081EA030101F0004141F0FE4141F47001E9
:100858004FF0000070BD41F0FE4141F4780170BDD9
:1008680070B54FF0FF0C4CF4E06C1CEA11541DBF3E
:100878001CEA135594EA0C0F95EA0C0F00F0A7F840
:10088800A4EB050481EA030E52EA03354FEA01316D
:1008980000F088804FEA03334FF0805545EA131380
:1008A80043EA12634FEA022245EA111545EA106548
:1008B8004FEA00260EF000419D4208BF964244F1DF
:1008C800FD0404F5407402D25B084FEA3202B61AFE
:1008D80065EB03055B084FEA32024FF480104FF4D2
:1008E800002CB6EB020E75EB030E22BFB61A754646
:1008F80040EA0C005B084FEA3202B6EB020E75EBD9
:10090800030E22BFB61A754640EA5C005B084FEA40
:100918003202B6EB020E75EB030E22BFB61A75460D
:1009280040EA9C005B084FEA3202B6EB020E75EB18
:10093800030E22BFB61A754640EADC0055EA060ED9
:1009480018D04FEA051545EA16754FEA06164FEA1C
:10095800C30343EA52734FEAC2025FEA1C1CC0D1C8
:1009680011F4801F0BD141EA00014FF000004FF055
:10097800004CB6E711F4801F04BF01430020B4F116
:10098800FD0C88BFBCF5E06F3FF6AFAEB5EB030CCE
:1009980004BFB6EB020C5FEA500C50F1000041EBCB
:1009A800045170BD0EF0004E4EEA113114EB5C0498
:1009B800C2BFD4EB0C0541EA045170BD41F480116B
:1009C8004FF0000E013C90E645EA060E8DE60CEA73
:1009D800135594EA0C0F08BF95EA0C0F3FF43BAF90
:1009E80094EA0C0F0AD150EA01347FF434AF95EA47
:1009F8000C0F7FF425AF104619462CE795EA0C0F2B
:100A080006D152EA03353FF4FDAE1046194622E7F7
:100A180050EA410618BF52EA43067FF4C5AE50EAD1
:100A280041047FF40DAF52EA43057FF4EBAE12E7C1
:100A38004FF0FF3C06E000BF4FF0010C02E000BFA2
:100A48004FF0010C4DF804CD4FEA410C7FEA6C5C85
:100A58004FEA430C18BF7FEA6C5C1BD001B050EA28
:100A6800410C0CBF52EA430C91EA030F02BF90EA13
:100A7800020F0020704710F1000F91EA030F58BFD2
:100A8800994208BF90422CBFD8176FEAE37040F034
:100A9800010070474FEA410C7FEA6C5C02D150EAD2
:100AA800013C07D14FEA430C7FEA6C5CD6D152EA8D
:100AB800033CD3D05DF8040B704700BF8446104652
:100AC80062468C461946634600E000BF01B5FFF751
:100AD800B7FF002848BF10F1000F01BD4DF808ED21
:100AE800FFF7F4FF0CBF012000205DF808FB00BFF2
:100AF8004DF808EDFFF7EAFF34BF012000205DF84C
:100B080008FB00BF4DF808EDFFF7E0FF94BF012098
:100B180000205DF808FB00BF4DF808EDFFF7CEFF99
:100B280094BF012000205DF808FB00BF4DF808EDD8
:100B3800FFF7C4FF34BF012000205DF808FB00BFA9
:100B48004FEA410C7FEA6C5C02D150EA013C0AD1C1
:100B58004FEA430C7FEA6C5C02D152EA033C02D1B3
:100B68004FF0000070474FF0010070474FEA410214
:100B780012F5001215D211D56FF47873B3EB6252E7
:100B880012D94FEAC12343F0004343EA505311F00E
:100B9800004F23FA02F018BF404270474FF00000A0
:100BA800704750EA013005D111F0004008BF6FF0DE
:100BB800004070474FF00000704700BF4FEA410205
:100BC800B2F1E04324BFB3F5001CDCF1FE5C0DD9A3
:100BD80001F0004C4FEAC0024CEA5070B2F1004FED
:100BE80040EB830008BF20F00100704711F0804FF0
:100BF80021D113F13872BCBF01F00040704741F4B5
:100C080080114FEA5252C2F11802C2F1200C10FAB8
:100C18000CF320FA02F018BF40F001004FEAC1239C
:100C28004FEAD32303FA0CFC40EA0C0023FA02F340
:100C38004FEA4303CCE77FEA625307D150EA013316
:100C48001EBF4FF0FE4040F44000704701F00040E6
:100C580040F0FE4040F40000704700BF53B94AB965
:100C6800002908BF00281CBF4FF0FF314FF0FF30AC
:100C780000F0C6B9ADF1080C6DE904CE00F01AF821
:100C8800DDF804E0DDE9022304B07047430803F00F
:100C98005533C01A830800F0333003F03333184457
:100CA80000EB101000F00F3000EB002000EB0040CC
:100CB800000E70472DE9F04F8C46099E04460F46FA
:100CC800002B48D18A4215465ED9B2FA82F33BB16D
:100CD800C3F120029F409D409C4020FA02F2174336
:100CE8004FEA154E1FFA85FC220CB7FBFEF10EFBEE
:100CF800117701FB0CF042EA0742904207D9AA1883
:100D080001F1FF3702D2904200F258813946121A97
:100D1800A4B2B2FBFEF00EFB102200FB0CFC44EA6E
:100D28000244A4450BD92C1900F1FF322CBF01272E
:100D38000027A44502D9002F00F04381104640EA5D
:100D48000140A4EB0C0400211EB1DC400023C6E9DD
:100D58000043BDE8F08F8B4206D90EB1C6E9000109
:100D680000210846BDE8F08FB3FA83F1002951D17C
:100D78006345C0F01681824240F213810846002E76
:100D8800E7D0C6E90047E4E7002A00F0AF80B2FAEE
:100D980082F3002B40F0C2808A1A4FEA154EAFB298
:100DA8000121200CB2FBFEFC0EFB1C2240EA024291
:100DB80007FB0CF090420ED9AA180CF1FF382CBF93
:100DC8004FF001094FF00009904203D9B9F1000F23
:100DD80000F0F080C446121AA4B2B2FBFEF00EFB7B
:100DE800102200FB07F744EA0244A7420ED92C1947
:100DF80000F1FF322CBF4FF0010E4FF0000EA7425A
:100E080003D9BEF1000F00F0D2801046E41B40EA7F
:100E18000C4099E7C1F120058B400CFA01F400FA67
:100E280001F922FA05F72CFA05FC8A401F4320FA3B
:100E380005F3380C23431FFA87FE1C0CBCFBF0F8A3
:100E480000FB18CC44EA0C4408FB0EFCA4450ED960
:100E58003C1908F1FF3A2CBF4FF0010B4FF0000B83
:100E6800A44503D9BBF1000F00F0B880D046A4EB2D
:100E78000C041FFA83FCB4FBF0F300FB134403FBE0
:100E88000EFE4CEA0444A6450ED93C1903F1FF3086
:100E98002CBF4FF0010C4FF0000CA64503D9BCF154
:100EA800000F00F09F80034643EA0840A4EB0E04BD
:100EB800A0FB02EC64457346E04602D307D1F14536
:100EC80005D2BEEB02036CEB070C0138E0465EB1BD
:100ED800B9EB030264EB080404FA05F522FA01F3FE
:100EE800CC401D43C6E90054002132E742082F4692
:100EF8004B08AC4642EAC172AE46C407110C92B226
:100F080041EA034142EA0142B1FBF5F1B3FBF5F0D6
:100F18001F23A2EB0C0241EA004142E79D40C3F1C6
:100F2800200299409C402CFA02FC4FEA154E20FA08
:100F380002F2AFB2BCFBFEF80A430EFB18CC110C50
:100F480041EA0C4108FB07FC8C4550D9691808F1A7
:100F5800FF302CBF4FF001094FF000098C4502D932
:100F6800B9F1000F30D0A1EB0C01B1FBFEF808FB82
:100F780007FC0EFB181192B242EA0142624534D2D4
:100F8800AA1808F1FF312CBF4FF001094FF00009F2
:100F98006245BED2B9F1000FBBD1A8F102012A44C3
:100FA800B7E7841A6CEB030201201746E7E62C44E6
:100FB80002382BE7ACF1020C2A440CE702392A4428
:100FC800A5E62C440238BAE6A5EB0C0CA8F1020001
:100FD8006144B1FBFEF808FB07FCCAE7A8F1020868
:100FE8003C4444E7023B3C445EE7414691E7A1EBC1
:100FF8000C014046B1FBFEF808FB07FCB9E700BF4F
:10100800704700BFF0B589B088B10C460546C9B134
:101018002E4B1B68002B57D108F0FCFE2C4B3522B9
:101028002C492D4808F040FF08F0F4FEFEE708F0D0
:10103800F1FE274B33222749274808F035FF08F0EF
:10104800E9FEFEE708F0E6FE214B3422214922485A
:1010580008F02AFF08F0DEFEFEE7204B53F8367052
:10106800019700951E4B1F4A80211848006865F0BB
:1010780001FD07951C4B069305950495039702956A
:10108800019700953B46194A4FF48061204665F068
:10109800F1FCB0F5806F0FD2009023460B4A12681E
:1010A8000121002000F0EAFD0A2028F0F9FA0136B3
:1010B800002ED2DD09B0F0BD00970D4B6E22054918
:1010C8000C4808F0F1FEEFE70026F1E708060020DB
:1010D8001CA807084CA8070864A80708984E090820
:1010E8006CA807087CA8070850AA07089CA8070846
:1010F80060AA07087CAA07082DE9F04788B098B1CC
:101108000E460746D9B1524B1B681BB380202AF004
:1011180063FA814680202AF05FFA8246B9F1000F0F
:1011280023D068B3002468E008F074FE494B4A22D3
:1011380049494A4808F0B8FE08F06CFEFEE708F096
:1011480069FE444B4B224449444808F0ADFE08F080
:1011580061FEFEE708F05EFE3E4B4C223E493F48EA
:1011680008F0A2FE08F056FEFEE708F053FE394BE1
:1011780051223949394808F097FE08F04BFEFEE73E
:1011880008F048FE334B52223349344808F08CFEAD
:1011980008F040FEFEE7CDF800803B46304A80214B
:1011A800484665F067FCCDF800803B462D4A802113
:1011B800504665F05FFC07972B4B069305970497FD
:1011C800CDF80CA0CDF80890CDF8048000974346E0
:1011D800264A4FF48061304665F04CFCB0F5806FCC
:1011E80024D2009033461A4A12680121002000F0E8
:1011F80045FD0A2028F054FA0134022C1FDC1C4D4E
:1012080055F83480CDF8048000971A4B1A4A80218B
:101218000F48006865F02EFC05EBC4056B68012BD0
:10122800B9D00B4B186800F0A3FDE2E7CDF80080B9
:10123800124B9E220849124808F036FED9E7484664
:101248002AF0B0FA50462AF0ADFA08B0BDE8F087A7
:10125800080600201CA80708A8AA070864A8070809
:10126800C4AA0708D8AA070850AA0708ECAA0708BA
:10127800A04E0908BCAA07087CA80708DCAC070828
:101288007CAA07082DE9F04F9DB098B10C46074697
:10129800D9B15A4B1B681BB380202AF09DF98046B0
:1012A80080202AF099F98146B8F1000F23D068B35D
:1012B800002547E008F0AEFD514B33225149524812
:1012C80008F0F2FD08F0A6FDFEE708F0A3FD4C4B80
:1012D80034224C494C4808F0E7FD08F09BFDFEE736
:1012E80008F098FD464B35224649474808F0DCFD92
:1012F80008F090FDFEE708F08DFD414B3C22414986
:10130800414808F0D1FD08F085FDFEE708F082FDB0
:101318003B4B3D223B493C4808F0C6FD08F07AFDAE
:10132800FEE7CDF800A0394B88223649384808F046
:10133800BBFD03E0314B186800F01AFD0A2028F0C5
:10134800AFF90135012D50DC324E56F835A0CDF8F5
:1013580004A00097304B314A80212848006865F086
:1013680089FB06EBC5067368012BE3D13B462C4A83
:101378008021404665F07EFB3B462A4A802148464C
:1013880065F078FB14AE5346274A2021304665F0B5
:1013980071FB0DF1300B5346244A2021584665F065
:1013A80069FB0A97224B099308970797CDF818B05D
:1013B8000596CDF810A0CDF80C90CDF80880CDF8A2
:1013C80004A0009753461B4A4FF48061204665F0FD
:1013D80051FBB0F5806FA4D200902346074A1268EB
:1013E8000121002000F04AFCA8E740462AF0DAF97B
:1013F80048462AF0D7F91DB0BDE8F08F080600204E
:101408001CA8070844AD070864A8070848AF0708E0
:101418007CAA0708B84E090858AD07087CA8070831
:1014280060AD070870AD070880AD070888AD0708EC
:1014380050AA070890AD0708012804D0022804D054
:1014480028B904487047044870470448704704485E
:10145800704700BF78AF070880AF07088CAF070850
:101468005482080870B590B0002843D00D46044651
:1014780000294AD0334B1B68002B51D00BAE0023F8
:101488000B930C930D930E938DF83C302E4B9A785A
:10149800198801910092DB782C4A1121304665F0B9
:1014A800E9FA00942A4B2B4A80212648006865F007
:1014B800E1FA08960794284B06930594049403943C
:1014C8000294019400942346244A4FF480612846EC
:1014D80065F0D0FAB0F5806F2DD200902B46194AEE
:1014E80012680121002000F0C9FB0A2028F0D8F872
:1014F80010B070BD08F08EFC194B2E2219491A48FD
:1015080008F0D2FC08F086FCFEE708F083FC144BD8
:101518002F221449144808F0C7FC08F07BFCFEE7AA
:1015280008F078FC0E4B30220E490F4808F0BCFC3E
:1015380008F070FCFEE70D4B72220A490C4808F0CF
:10154800B3FCD2E7080600202C520908F0AF0708C0
:10155800C8AF0708D0AF070850AA0708FCAF0708AC
:101568001CA80708B4AF070864A8070898B20708BA
:101578007CAA070870B5B6B006460C461D46134649
:10158800184A402106A865F075FA3F2803D90124B6
:10159800204636B070BD2846FFF74EFFC6F3074316
:1015A800B2B2210EC4F30745A4B205900494039582
:1015B800029101920093330E0B4A802116A865F020
:1015C80059FA7F2801D90124E2E7009016AB06AA50
:1015D8000121084600F052FB04460A2028F060F872
:1015E800D6E700BFBCB20708C8B2070870B5C6B0D6
:1015F80006460C461D461346164A402106A865F0C5
:1016080039FA3F2803D90124204646B070BDC6F3F5
:101618000743B2B2210EC4F30740A4B2059504945F
:101628000390029101920093330E0B4AC02116A831
:1016380065F020FABF2801D90124E5E7009016AB30
:1016480006AA0121084600F019FB04460A2028F0E2
:1016580027F8D9E7BCB2070818B3070881B370B5F3
:1016680088B00C46CD680DB10B690BB908B070BDD8
:1016780020220021684665F09EFB24691F2C28BFA4
:101688001F2422462946684665F0A1FD04F120037F
:101698000DEB0304002304F8203C0A496846FEF7D2
:1016A800E7FD0028E2D1084B4FF483720749084848
:1016B80008F0FAFB0221074B186825F08DFED5E7E4
:1016C800704700BF9CB30708ACB30708B4AF07085E
:1016D800C8B3070804060020F0B585B006462A4BB3
:1016E80040F2131229492A4808F0DEFB4FF0FF3573
:1016F80000240EE0274B4FF48E722449244808F04A
:10170800D3FB002027F0BCFC0BE01C46C82027F0C8
:10171800C7FF0021204B186825F02EFE10F00C0F93
:10172800E8D11E4B18680028F0D00022039203A9C4
:1017380026F0B0FA0128E9D12CB9039B03B9234656
:10174800002BE2D01C46039BA342DFD8642703FB8F
:1017580007F7B7FBF4F7C7F16407BD42D6D001938A
:1017680000970F4B4FF49B720849094808F09CFBFF
:101778000C4B1968039B00933B4632460A480068A5
:10178800FFF734FF3D46C1E7CCB30708B4AF0708FD
:10179800C8B30708E8B307080406002084A7002098
:1017A80004B40708FC0500202C52090800293DD084
:1017B80070B58AB00C46CD680DB10B690BB90AB08B
:1017C80070BD02AE20220021304665F0F4FA24698B
:1017D8001F2C28BF1F2422462946304665F0F7FCF7
:1017E80004F128030DEB0304002304F8203C1049FE
:1017F8003046FEF73DFD20B10E49304665F0B3FB9B
:1018080058B10D4B23220D490D4808F04DFB10210E
:101818000C4B186825F0E0FDD1E702AB00930A4BAA
:1018280028220649094808F03FFBC8E7704700BF6F
:1018380030B4070838B4070844B407089CB407084C
:10184800C8B3070804060020B0B40708D4B40708D2
:1018580030B587B000282BD00C460546002932D079
:10186800274B1868002839D00095264B264A802136
:1018780065F000F905950495244B039302950195AD
:1018880000952B46224A4FF48061204665F0F2F815
:10189800B0F5806F2DD200902346194A12680121B5
:1018A800002000F0EBF90A2027F0FAFE07B030BD5F
:1018B80008F0B0FA174B2E221749184808F0F4FA26
:1018C80008F0A8FAFEE708F0A5FA124B2F221249F1
:1018D800124808F0E9FA08F09DFAFEE708F09AFACB
:1018E8000C4B30220C490D4808F0DEFA08F092FA49
:1018F800FEE70B4B5F2208490A4808F0D5FAD2E701
:1019080008060020D8B40708E0B4070850AA07085A
:1019180004B507081CA807089CB4070864A80708AA
:1019280074B607087CAA07082DE9F0418AB038B1D7
:101938000F46054679B1394B1B68BBB1002446E018
:1019480008F068FA364B61223649374808F0ACFA95
:1019580008F060FAFEE708F05DFA314B622231497F
:10196800314808F0A1FA08F055FAFEE708F052FAF3
:101978002B4B63222B492C4808F096FA08F04AFAB8
:10198800FEE7D8F80830D8F80C10099527480890D1
:10199800079506950591049303960295019600957F
:1019A800D8F80430224A4FF48061384665F062F86E
:1019B800B0F5806F26D200903B46184A1268012184
:1019C800002000F05BF90A2027F06AFE0134052C9C
:1019D80020DC184A04EB840C02EB8C0852F82C60CB
:1019E80001960095144B154A80210C48006865F053
:1019F80041F8D8F81030012BC3D0084B186800F014
:101A0800B7F9E0E700940E4B9B2206490D4808F011
:101A18004BFAD8E70AB0BDE8F08100BF08060020FD
:101A28001CA80708B0B6070864A8070850AA070842
:101A3800D0B60708904F0908C8B607087CA8070859
:101A480050B807087CAA070870B584B000B30646EA
:101A58001B4B1B683BB30024082C2FDC194B04EBF1
:101A6800840203EB820153F82230CA68144D0292B3
:101A780001930096144B154A8021286864F0FAFFF8
:101A8800286800F075F90A2027F00AFE0134E3E718
:101A980008F0C0F90E4BAF220E490F4808F004FABF
:101AA80008F0B8F9FEE708F0B5F9094BB022094982
:101AB800094808F0F9F908F0ADF9FEE704B070BD7F
:101AC80008060020DC4E0908C8B6070870B80708E1
:101AD8001CA80708B0B6070864A807082DE9F04154
:101AE8008AB090B10C460546D9B1374B1B68002B1C
:101AF80067D108F08FF9354B4FF497723449354860
:101B080008F0D2F908F086F9FEE708F083F92F4BC0
:101B18004FF496722E492F4808F0C6F908F07AF962
:101B2800FEE708F077F9294B40F22D122849294899
:101B380008F0BAF908F06EF9FEE7274B06EB8602C3
:101B480003EB820853F8227001970095234B244A2F
:101B580080211D48006864F08DFFD8F80830D8F857
:101B68000C2009951F49089107950695059204933D
:101B78000397029501970095D8F804301A4A4FF454
:101B88008061204664F076FFB0F5806F10D2009037
:101B980023460D4A12680121002000F06FF80A2040
:101BA80027F07EFD0136002EC7DD0AB0BDE8F081C2
:101BB80000970E4B40F2691205490D4808F074F978
:101BC800EDE70026EFE700BF080600201CA807087D
:101BD800B0B6070864A80708C84E0908C8B60708B9
:101BE8007CA8070850AA070894B807083CBA070851
:101BF8007CAA070868B1006858B151B110B582B025
:101C08000024009403230A78214628F0F1FB02B04F
:101C180010BD7047014B1860704700BF00060020D8
:101C280008B514F0E5FC124BA3FB00239B0D114AE9
:101C380002FB1303104A1A44002A16DDD30E510181
:101C4800891A63F100039B0043EA9173890089189C
:101C580043F100034FEAC30C4FF47A720023C80023
:101C68004CEA5171FEF7FAFF08BD0122E6E700BF12
:101C7800B17C219500DD6D00806DEF042DE9F04306
:101C88008FB0002A31D0074688461D461646334B8A
:101C98001B68002B34D0002409940A940B940C94EC
:101CA8000D940DF11C090794089404940594069466
:101CB8002146204628F0F0FD8DF824708DF8258007
:101CC8000A963046FEF7DEFAADF82C000C95169B06
:101CD8000D9328F04DF907904FF4FA730693204BB3
:101CE8000493CDF8149001251CE008F093F81D4BDF
:101CF80058221D491D4808F0D7F808F08BF8FEE770
:101D080008F088F8174B59221749184808F0CCF8FA
:101D180008F080F8FEE7039BE3B10325FA2027F0DB
:101D2800BFFC0134042C15D804AA09A90B4B186868
:101D380056F0EFFC05460028F0D1039041F28833B5
:101D4800009303AB0246014628F0D8FA0128E2D0F6
:101D58000325E3E728460FB0BDE8F083000600201E
:101D6800FD1B01081CA80708F0BB070864A80708A2
:101D780000B583B040B1024600200090034601211F
:101D8800FFF77CFF03B000BD08F044F8044B96222F
:101D98000449054808F088F808F03CF8FEE700BF59
:101DA8001CA80708F0BB070864A807082DE9F0413C
:101DB80084B020B30C4616461D46074651B3002B87
:101DC80033D03A4B1B68002B3AD0802029F004FC12
:101DD800804600283FD000943B46354A802164F075
:101DE80049FE7F2842D800220092334641462F48B8
:101DF800006804F09BFA00284CD1012440E008F068
:101E080009F82C4BA7222C492C4808F04DF808F06B
:101E180001F8FEE707F0FEFF264BA82226492748CF
:101E280008F042F807F0F6FFFEE707F0F3FF214B52
:101E3800A9222149214808F037F807F0EBFFFEE70F
:101E480007F0E8FF1B4BAA221B491C4808F02CF896
:101E580007F0E0FFFEE707F0DDFF164BAD2216495D
:101E6800164808F021F807F0D5FFFEE7029401971D
:101E78000095134BB7221049124808F015F80024B2
:101E88000A2027F00DFC404629F08CFC204604B0BF
:101E9800BDE8F081CDF8048000950B4BC8220649B7
:101EA800084808F001F80024EAE700BF000600200F
:101EB80000BC07081CA80708F0BB070864A80708A7
:101EC80008BC07087CAA070838BC070810B582B008
:101ED80090B10446D9B11D4A106818B30022009287
:101EE8000B46214604F022FA38BB01240A2027F0C9
:101EF800D7FB204602B010BD07F08CFF144BDC2244
:101F08001449154807F0D0FF07F084FFFEE707F0F3
:101F180081FF0F4BDD220F490F4807F0C5FF07F07F
:101F280079FFFEE707F076FF094BDE2209490A48E8
:101F380007F0BAFF07F06EFFFEE70094074BE822B0
:101F48000449074807F0B0FF0024CFE70006002047
:101F58001CA80708F0BB070864A807085CBC0708AA
:101F68007CAA070830B583B048B30C46154603462B
:101F780081B3002A39D02C4A1068002840D02B4A57
:101F8800802164F077FD40F2FF322946204664F054
:101F980071FF002384F8FF332046FEF773F9B0F58C
:101FA800806F38D2009023461F4A12680121002012
:101FB800FFF764FE0A2027F073FB03B030BD07F07B
:101FC80029FF1B4BF8221B491B4807F06DFF07F040
:101FD80021FFFEE707F01EFF154BF92215491648A9
:101FE80007F062FF07F016FFFEE707F013FF104B3C
:101FF800FA221049104807F057FF07F00BFFFEE7D9
:1020080007F008FF0A4BFB220A490B4807F04CFF70
:1020180007F000FFFEE7094B4FF4897205490848AD
:1020280007F042FFC6E700BF0806002080BC07088B
:102038001CA80708F0BB070864A8070898BC07088D
:102048007CAA070861B30B46C96849B370B584B068
:102058001C690CB904B070BD002600960196029662
:1020680003960F2C28BF0F242246684665F0AFF868
:1020780004F110030DEB030202F8106C09496846DD
:10208800FEF7F6F80028E5D1074B4C220749084827
:1020980007F00AFF2021074B186825F09DF9D9E7BA
:1020A800704700BFC0BC0708C8BC070820BD0708A8
:1020B800C8B307080406002038B5B8B30C4605466F
:1020C80000293ED0FFF7CEF921462846FFF7DAF877
:1020D80021462846FEF796FF21462846FFF724FCAE
:1020E8002846FFF7B1FC21462846FFF7F7FC2146B2
:1020F8002846FFF701F821462846FFF7A9FB4FF4C9
:102108007A7027F0CDFA144B186802232A46014644
:10211800FFF730FA114A21462846FFF723FF104BF4
:102128009A221049104807F0BFFE38BD07F072FE2A
:102138000E4B5C220B490E4807F0B6FE07F06AFE0C
:10214800FEE707F067FE094B5D220649084807F0DD
:10215800ABFE07F05FFEFEE72C520908C0BC07087B
:102168002CBD070820BD0708C8B307081CA8070826
:1021780064A807082DE9F04184B00023039303F015
:10218800F1FD03F0E9FD00283DD0044603F0ACFD65
:102198002046FFF73FFD03A900200AF0C5FB0546CE
:1021A80000283BD04FF4806029F016FA80460028BA
:1021B8003FD0802029F010FA854B1860002843D0C2
:1021C8000095844BBF228449844807F06DFE25F0B2
:1021D80034F8834B1860002841D0824B824A8349E7
:1021E8002846FFF7E3FD824B824A83492846FFF7DA
:1021F800DDFD82498248FFF769FE41462846FFF720
:102208005BFF0026B3E007F005FE7E4BAE22724965
:102218007D4807F049FE07F0FDFDFEE707F0FAFDEF
:10222800784BB7226C49784807F03EFE07F0F2FD7C
:10223800FEE707F0EFFD734BBA226749724807F0D3
:1022480033FE07F0E7FDFEE707F0E4FD6D4BBD2226
:1022580061496D4807F028FE07F0DCFDFEE707F04E
:10226800D9FD684BC2225C49674807F01DFE07F09C
:10227800D1FDFEE7654BEE225749584807F014FE9A
:10228800634B196800232A4662480068FFF772F911
:102298007DE0614BF4225049504807F005FE5C4B45
:1022A800196801232A465B480068FFF763F9002391
:1022B8000193022300932B464FF4806257495848F4
:1022C80026F0CCFE012666E0434F444E554B4FF4B2
:1022D80082723946304607F0E7FD534B40F205124B
:1022E8003946304607F0E0FD0EF0D6FC002655E0F2
:1022F8004E4B40F20D123849384807F0D5FD41469B
:102308002846FFF7D9FE00264BE0494B40F21D1244
:102318003149324807F0C8FD464A41462846FFF78A
:1023280021FE4FF47A7027F0BBF90EF0B5FC14F0DB
:10233800200700D1DCB9002E40D114F059F93E4BEA
:10234800A3FB0023DB0B3D4A02FB130027F0A8F98F
:10235800002F3BD03A4B00933A4B40F22F121E49C4
:102368001E4807F0A1FD41462846FFF7A5FE1C4B75
:102378001C68FFF755FC0090002301223F212046EE
:1023880024F06AFF044610F0010F7FF473AF14F0D5
:10239800020F7FF47EAF14F0040F95D114F0080FEC
:1023A800A6D114F0100FC2D0002EAED0264B40F2AA
:1023B80019120949094807F077FDD8E7234B4FF46C
:1023C80094720549054807F06FFDD0E7204BC2E736
:1023D8000806002070BD070820BD0708C8B3070815
:1023E80004060020B4BD070865160108C0BD07082B
:1023F800CCBD0708B5170108DCBD07084D2001084A
:10240800E8BD07081CA8070864A8070800BE070855
:10241800FC0500202C52090818BE070834BE07081E
:10242800E116010844BE07085CBE070888BE070815
:10243800D0BE0708E0BE070873B2E745C0D4010064
:1024480058BD070818BF0708A4BE0708E8BE070854
:1024580064BD07080120704730B585B0F8B104465F
:102468001C4B03611C4B43614068223080B22083BF
:10247800013029F0B1F8E060F8B10DF10E030193D5
:1024880003230093A388A268218B4DF0FFFD054626
:10249800228BBDF80E309A420CD000250EE007F0D2
:1024A800B9FC0E4BFE220E490E4807F0FDFC07F062
:1024B800B1FCFEE7012801D106E00025E06818B16B
:1024C80029F070F90023E360012D14BF00200120DA
:1024D80005B030BD78BF0708A8BF07081CA80708C3
:1024E80067BF070864A8070870B582B00446009063
:1024F8001C4B01220169006A03F018FFD0B900944F
:10250800194B01226169206A03F010FF054618B3D0
:10251800164E174B4FF4A0723146164807F0C4FC0C
:1025280063690093144B4FF4A2723146134807F0C5
:10253800BBFC11E005460D4E0D4B4FF49972314628
:102548000C4807F0B1FC236900930B4B4FF49B72C6
:1025580031460A4807F0A8FCB5FA85F0400902B0F0
:1025680070BD00BFB92501088925010867BF0708A4
:10257800D8BF070864A807085CBC07087CAA070836
:10258800C269A2B110B582B004460B460969D86881
:10259800FFF760FF48B102220023009303230121C3
:1025A800206827F025FF02B010BD0322F4E770472A
:1025B800C269A2B110B582B004460B460969D86851
:1025C800FFF748FF48B101220023009303230121AC
:1025D800206827F00DFF02B010BD0322F4E7704712
:1025E80030B583B00C46054638B16CB11DB114B195
:1025F800EB69012B0FD003B030BD0B4BDD220B492B
:102608000B4807F051FCF0E7074BDE220749084862
:1026180007F04AFCEAE7002300930323227802210B
:10262800286827F0E5FEE6E7D8BF070867BF070870
:1026380064A8070838B505460C460846FDF722FE8B
:1026480002462146284624F0A0F838BD30B585B0AA
:10265800002835D004463949FFF7ECFF0546002825
:102668003AD14FF0FF326946204624F09AF80546E1
:1026780000283BD1684600F0B9FC054600283DD14A
:10268800684600F071FD054600283FD1684600F015
:1026980023FE0546002841D1684600F0D5FE0546D0
:1026A800002843D16946204624F089F80546D0B170
:1026B800234B4FF4F5722349234807F0F5FB12E04A
:1026C80007F0A8FB214B4FF4E2721E491E4807F0A1
:1026D800EBFB07F09FFBFEE7194B40F2C7121949C5
:1026E800194807F0E1FB284605B030BD144B4FF4FC
:1026F800E6721449144807F0D7FBF4E7104B4FF47F
:10270800E9721049104807F0CFFBECE70C4B4FF487
:10271800EC720C490C4807F0C7FBE4E7084B4FF490
:10272800EF720849084807F0BFFBDCE7044B4FF499
:10273800F2720449044807F0B7FBD4E7F4BF07086E
:10274800D8BF070867BF070864A807081CA80708B8
:1027580070B586B0154603AA0023039353609360AF
:1027680002931A4B01241C70C6685E60B0F818C04A
:10277800A3F808C0D9601D6142F21071059114498F
:1027880003910490C4611946006A55F0C2FF029093
:1027980028B10298B0FA80F0400906B070BD08234D
:1027A800029347F23053009302AB4FF0FF320021FF
:1027B800022027F0A3FD0028EBD1064B40F21A2295
:1027C8000549064807F070FBE3E700BF0C06002048
:1027D800E9250108F8BF070867BF07087CAA0708AA
:1027E80010B5044603460F4A0169006A03F0E0FE8B
:1027F80038B923460C4A6169206A03F0D9FE40B90A
:1028080010BD0A4B4FF4AA7209490A4807F04CFB5D
:10281800EFE7064B4FF4AE720549064807F044FB54
:10282800EEE700BFB925010889250108D8BF0708C8
:1028380067BF070864A8070810B50446806808B190
:1028480028F0B0FFE06808B128F0ACFF242200218E
:10285800204664F0B0FA10BD70B5ADF58C6D242239
:1028680000210DF23C4064F0A6FA0024A84B1C603D
:102878004FF4806221460FA864F09DFA0DF5886137
:1028880020460AF051F8CDF84404CDF8584427F012
:102898006FFBCDF83C04DDF84434F3B1DDF8403487
:1028A800EBB14FF6FE72934201D9002418E00DF205
:1028B8003C40FFF7D1FD044690B9964D964B40F247
:1028C8004D222946954807F0EFFA954B40F25522DC
:1028D8002946944807F0E8FA02E0002400E00024C2
:1028E80003F040FA03F038FACDF85C041CB9884BC1
:1028F80001221A605BE00DF23C40FFF7F5FD04464B
:1029080048B1894B40F267228249884807F0CCFADF
:10291800002C4CD1EBE77F4D7F4B40F263222946D8
:102928007E4807F0C1FA824B40F26B2229467D4867
:1029380007F0BAFAECE7784B4FF4217275497748FB
:1029480007F0B2FA7B4B40F2BD227249754807F096
:10295800ABFA94B9039C0FAD641B774B40F2C622C7
:102968006C49724807F0A0FA224629460DF23C400D
:10297800FFF7EEFE002800F0C38047F230530093C3
:1029880002AB4FF0FF320021012027F0B7FC0128ED
:1029980000F0E4800023CDF85834684B40F2E92277
:1029A8005C49604807F080FA654826F079FE584B84
:1029B8001B68002B40F0EC8026F0D4FC064600256E
:1029C800029503AC2B464FF480620FA9204623F0F2
:1029D800BAFE4FF0FF3207A9204623F0E2FE044674
:1029E8000028A8D1574907A8FFF724FE0446002865
:1029F80046D102220BA907A823F0D3FE04460028DB
:102A080046D151490BA8FFF715FE0446002847D1C7
:102A180032462B460BA823F09DFE044348D14B4970
:102A28000BA8FFF707FE00284AD149490BA8FFF772
:102A380001FE044600284BD10BA907A823F0BFFECE
:102A4800044600284CD1434B4FF42C723149374887
:102A580007F02AFA07A8FFF7F9FD0446002847D12E
:102A680007A903A823F0ABFE044600283FF472AF81
:102A7800294B4FF42E722749284807F015FA61E7C9
:102A8800254B40F289222349244807F00DFA59E7DB
:102A9800214B4FF424721F49204807F005FA51E7EB
:102AA8001D4B40F297221B491C4807F0FDF9AFE780
:102AB800194B40F29A221749184807F0F5F941E7EF
:102AC800154B40F2A1221349144807F0EDF9ACE781
:102AD800114B4FF429720F49104807F0E5F931E717
:102AE8000D4B40F2AA220B490C4807F0DDF929E703
:102AF800094B40F2B2220749084807F0D5F921E707
:102B0800154B4FF433720349064807F0CDF934E703
:102B18002006002067BF0708D8BF070864A8070871
:102B280014C007087CAA070838C00708C8B30708F4
:102B38006CC00708C8C00708ECC0070874C10708BC
:102B4800E0930400B4DA08089CC00708A0C007088E
:102B5800A4C00708A8C0070810C107089DF80830D6
:102B68000022CDF85824012B0AD0022B7FF415AF90
:102B7800124B40F2E3221249124807F095F913E785
:102B8800114B40F2DF220E49104807F08DF90BE790
:102B98000F4B40F2F1220A490E4807F085F90DF271
:102BA8003C442046FFF71CFE2046FFF745FE002068
:102BB80026F066FA0DF58C6D70BD00BF58C1070888
:102BC80067BF07087CAA07083CC10708C8B30708FD
:102BD8009CC10708A8C10708054B1B68002000E036
:102BE800DB6823B11A7D012AFAD10130F8E7704772
:102BF80078D40620044B1B68002001E00130DB6814
:102C0800002BFBD1704700BFC8D40620044B1B68BB
:102C1800002001E00130DB68002BFBD1704700BFCA
:102C280074D4062038B505460C460846FDF72AFB3D
:102C380002462146284623F0A8FD38BD70B5054652
:102C48001646FFF7EFFF044631462846FFF7EAFF2E
:102C5800204370BDF8B5054617461E46FFF7E2FF4C
:102C680004463A463346284623F074FD2043F8BD0F
:102C780008B560B9074B1B6823B193F83C005AF0BC
:102C88001DFC08BD044B186808600846F9E75AF0AF
:102C980015FCF6E794D20620ACC10708F0B587B05A
:102CA80020B10646304B1C68002511E007F0B2F849
:102CB8002E4BDB222E492F4807F0F6F807F0AAF82A
:102CC800FEE72D4BE8222A492A4807F0EDF8E46888
:102CD800002C45D0694600230093ADF80430207AD3
:102CE800FFF7C6FF074628B3022202A9304623F0A1
:102CF80058FD05460028E4D13A46204902A8FFF7C6
:102D08009DFF054668B9E28A00231D4902A8FFF71E
:102D1800A1FF0546E8B902A9304623F050FD054653
:102D2800D5E7154BED221249124807F0BDF8002DE2
:102D3800CDD1E8E7012202A9304623F032FD05464D
:102D48000028E0D00C4BF32209490A4807F0ACF8F8
:102D5800EDE7094BF9220649064807F0A5F8B6E75A
:102D6800284607B0F0BD00BF78D406201CA8070885
:102D7800CBC1070864A80708D8BF07087045090829
:102D8800E4C10708F0B587B020B10646324B1C688D
:102D9800002513E007F03EF8304B40F26B12304943
:102DA800304807F081F807F035F8FEE72E4B4FF46E
:102DB800BC722B492B4807F077F8E468002C48D000
:102DC800694600230093ADF80430207AFFF750FFDE
:102DD800074630B3022202A9304623F0E2FC05463A
:102DE8000028E3D13A46214902A8FFF727FF054604
:102DF80068B9628A00231E4902A8FFF72BFF05461F
:102E0800F8B902A9304623F0DAFC0546D5E7164B97
:102E180040F27D121249134807F046F8002DCCD134
:102E2800E7E7012202A9304623F0BBFC054600284B
:102E3800DFD00D4B40F2831209490A4807F034F8F5
:102E4800ECE7094B40F289120549064807F02CF8CF
:102E5800B3E7284607B0F0BDC8D406201CA8070869
:102E6800CBC1070864A80708D8BF07087045090838
:102E7800E4C10708F8B505460C4610461F460A4641
:102E8800294661F0C5FE68B12146284664F005F878
:102E980006463B46094A211A281863F0EBFD3044E0
:102EA800844208D2064B40F20A220649064806F038
:102EB800FBFF0020F8BD0120FCE700BFE8C10708C0
:102EC800D8BF0708CBC1070864A8070870B58EB03B
:102ED80020B106463D4B1C6800251BE006F09AFF12
:102EE8003B4B40F212223B493B4806F0DDFF06F01F
:102EF80091FFFEE7394B4FF407723649364806F022
:102F0800D3FF6946207AFFF7B3FE024600283BD07C
:102F180065B3E468002C56D01D22002106A863F092
:102F28004AFF00230093ADF80430032202A930467B
:102F380023F037FC05460028DCD1238B221D1D21F8
:102F480006A8FFF797FF08B90125DAE706AA24497A
:102F580002A8FFF773FE05460028D2D01F4B4FF496
:102F680009721C491C4806F09FFFCAE71D4902A8C0
:102F7800FFF764FE054680B1184B4FF40D721549F2
:102F8800154806F091FFC4E7144B40F23A22114964
:102F9800114806F089FF0125BBE7E28A00231249A0
:102FA80002A8FFF757FE054628B902A9304623F0C4
:102FB80006FC0546ADE7094B40F2412205490648A3
:102FC80006F072FFA5E728460EB070BD74D406203F
:102FD8001CA80708CBC1070864A80708D8BF0708BA
:102FE800F0C10708F4C10708F8C107082DE9F04F38
:102FF80089B00390A0B15049039C2046FFF712FE08
:103008000290C0B9042204A9204623F0CAFB02900A
:10301800B8B14A4B78224A494A4806F045FF10E0C1
:103028000090494B64224649484806F03DFF40F26B
:103038000723029337E0414B73224149414806F088
:1030480033FF434862F0DCFB424B1B6800242646F2
:1030580025462746A046A246A146A3461CE09A6CF0
:1030680012EB090291464BF1000B1A6E12EB0802A3
:1030780090464AF1000A1A6D521947F10007DD6CB3
:10308800AD1847F100075A6E121946F100069C6EFA
:10309800A41846F100061B68002BE0D12C4862F00A
:1030A800B9FB029B1BB1029809B0BDE8F08F2A4614
:1030B8003B46294904A8FFF7CDFD029D05431FD1D2
:1030C80022463346254904A8FFF7C4FD28431ED1EC
:1030D8004A465B46224904A8FFF7BCFD0446E8B906
:1030E800424653461F4904A8FFF7B4FD54EA0003BB
:1030F80002931AD104A9039823F061FB0290D2E746
:103108000E4B92220E490F4806F0CEFED8E70B4B25
:1031180095220B490B4806F0C7FED9E7074B9822C2
:103128000749084806F0C0FEDAE7044B9B22044929
:10313800044806F0B9FEB6E720C20708D8BF07085A
:10314800CBC1070864A80708FCC107087CAA0708C0
:10315800F46E052098D2062024C2070828C2070862
:103168001CEF07082CC2070870B58AB00646D8B10C
:10317800504862F045FBFFF72FFD05464E493046A3
:10318800FFF750FD0446D0B90DBB012202A9304615
:1031980023F007FB044608B3484B40F2271248497E
:1031A800484806F081FE31E00090474B4FF48772A3
:1031B8004349464806F078FE40F207241CE03F4B9E
:1031C8004FF48D723E493F4806F06EFE0EE0022233
:1031D80002A9304623F0E5FA044680B92A460023BE
:1031E8003B4902A8FFF736FD044690B9002D38D0B8
:1031F800BCB1304862F00EFB20460AB070BD2F4BC0
:103208004FF491722E492F4806F04EFE002CEDD156
:10321800E4E72A4B40F22F1229492A4806F044FED7
:10322800E4E72C4902A8FFF7FDFC044650BB2A46F8
:1032380006A902A823F0B0FA044658BB06A8FFF76F
:103248002DFD044600282DD106A902A823F0B7FABF
:10325800044640B1194B4FF4A5721949194806F0B4
:1032680023FE002CC5D102A9304623F0A8FA044653
:103278000028BED0114B40F251121149114806F0F6
:1032880013FEB6E70D4B4FF49C720D490D4806F03E
:103298000BFEAEE7094B4FF49F720949094806F047
:1032A80003FEA6E7054B4FF4A2720549054806F050
:1032B800FBFD9EE7F46E052058C20708D8BF070833
:1032C800CBC1070864A8070830C207087CAA07080A
:1032D800845908085CC2070870B58AB00646D8B198
:1032E800504862F08DFAFFF785FC05464E49304696
:1032F800FFF798FC0446D0B90DBB012202A930465D
:1033080023F04FFA044608B3484B40F2B712484935
:10331800484806F0C9FD31E00090474B4FF4CF72A2
:103328004349464806F0C0FD40F207241CE03F4BE5
:103338004FF4D5723E493F4806F0B6FD0EE0022232
:1033480002A9304623F02DFA044680B92A46002304
:103358003B4902A8FFF77EFC044690B9002D38D0FF
:10336800BCB1304862F056FA20460AB070BD2F4B07
:103378004FF4D9722E492F4806F096FD002CEDD156
:10338800E4E72A4B40F2BF1229492A4806F08CFD8F
:10339800E4E72C4902A8FFF745FC044650BB2A463F
:1033A80006A902A823F0F8F9044658BB06A8FFF7B7
:1033B800E9FC044600282DD106A902A823F0FFF94C
:1033C800044640B1194B4FF4ED721949194806F0FB
:1033D8006BFD002CC5D102A9304623F0F0F9044654
:1033E8000028BED0114B40F2E1121149114806F0F5
:1033F8005BFDB6E70D4B4FF4E4720D490D4806F03E
:1034080053FDAEE7094B4FF4E7720949094806F046
:103418004BFDA6E7054B4FF4EA720549054806F04F
:1034280043FD9EE7F46E052060C20708D8BF070871
:10343800CBC1070864A8070830C207087CAA070898
:10344800845908085CC2070870B58EB0064660B398
:10345800694862F0D5F9FFF7D9FB05466749304658
:10346800FFF7E0FB044658BB012202A9304623F0CF
:1034780098F90446002834D1614902A8FFF7D2FB25
:103488000446002835D1002D3BD1012206A902A807
:1034980023F087F9044600283AD05A4B4FF41F729C
:1034A80059495A4806F000FD4AE00090584B40F24E
:1034B80055225549574806F0F7FC40F207240DE01D
:1034C800504B40F262225049504806F0EDFC002D66
:1034D8005BD0002C37D0484862F09CF920460EB0EB
:1034E80070BD484B4FF41A724749484806F0DCFC57
:1034F800EDE7444B40F26E224349444806F0D4FCC1
:10350800E5E7022206A902A823F04BF9044680B990
:103518002A460023404906A8FFF79CFB04460028DA
:10352800D5D0384B4FF421723749384806F0BCFCE7
:10353800CDE7344B40F277223349344806F0B4FCE7
:10354800002CC4D1E4E7354906A8FFF76BFB044615
:10355800002831D12A460AA906A823F01DF90446F5
:10356800002831D10AA8FFF7B1FC0446002833D15E
:103578000AA906A823F023F9044640B1214B40F2DA
:103588009F222149214806F08FFC002CA3D106A9CF
:1035980002A823F014F9044630BB02A9304623F0F0
:1035A8000EF90446002896D0164B4FF42B72164994
:1035B800164806F079FC8EE7124B40F28D2212492C
:1035C800124806F071FC86E70E4B40F293220E4932
:1035D8000E4806F069FC7EE70A4B40F299220A4938
:1035E8000A4806F061FC76E7064B40F2A622064937
:1035F800064806F059FC6EE7F46E052064C2070819
:1036080068C20708D8BF0708CBC1070864A807081D
:1036180030C207087CAA0708845908086CC2070842
:1036280030B54FF0000E4FF00C0C09E010F80C30DC
:103638002F2B13D0002010E00EF1010E0CF1010C1D
:103648008C4509D29E45F1D012F80E5010F80C4066
:10365800A542F1D0002000E0002030BD0120FCE7A9
:103668000B4B03604FF482728280991881608281CB
:1036780003F5027202618022828203F52271816160
:103688004FF40061C16103F68823036282847047A6
:103698002C06002008B54DF0E3FC022806D007DB15
:1036A8000438C0B2032805D9002002E0012000E058
:1036B800002008BD0120FCE708B54DF041FC0020C2
:1036C80025F0DEFC08BD000008B5002828D01A4AFD
:1036D80002601A4A42601A4A82601A4AC2601A4A4A
:1036E80042611A4A82611A4AC2611A4A02621A4A35
:1036F80042621A4A82621A4A02631A4AC2621A4A21
:10370800C2651A4A82651A4AC2641A4A02651A4A86
:1037180082641A4A42651A4A02641A4A426408BD17
:1037280006F078FB184B40F2C3421849184806F0D7
:10373800BBFB06F06FFBFEE759360608A536060800
:10374800E536060841370608553706088938060859
:10375800F5380608653906086D390608B93C0108C8
:10376800693D01080D3C01087570020835730208AF
:10377800656F0208C1710208C97402080171020864
:10378800BD750208016E02081CA8070886C2070852
:1037980064A8070838B598B10C46054600F50053EB
:1037A8004FF0FF31D3F80C0A24F022FB012813D084
:1037B8000F4B40F2F1120F490F4806F075FB38BD68
:1037C80006F028FB0D4B4FF4F4720A490C4806F03A
:1037D8006BFB06F01FFBFEE7002184F8001E05F5D1
:1037E80000550B460A46D5F80C0A24F06BF8E6E7B4
:1037F80098C2070886C207087CAA07081CA80708F9
:1038080064A8070810B582B007285CD8DFE800F084
:1038180004161E3A4B5B5B53304C314B40F2DE22B0
:103828002146304806F040FB4EF088FD2E4B40F212
:10383800EB2221462D4806F037FB4CE02C4B40F29A
:10384800F3222649274806F02FFB44E0294B40F293
:10385800FF222249234806F027FB02204EF0A0FB56
:1038680038B9254B40F226321C491E4806F01CFB8D
:1038780031E00090214B40F22A3218491B4806F0EB
:1038880013FB28E019B11E48FFF784FF23E006F078
:10389800C1FA1C4B40F2323210491B4806F004FBB7
:1038A80006F0B8FAFEE7194B4FF44F720B490F4870
:1038B80006F0FAFA0FE0164B4FF450720749094820
:1038C80006F0F2FA07E00090124B4FF451720349E8
:1038D800114806F0E9FA02B010BD00BF86C2070819
:1038E800B8C20708C8B30708F0C207087CAA0708C7
:1038F80010C307084CC3070884C30708B8C30708E0
:10390800341100201CA8070864A80708F0C307089A
:1039180030C4070844C40708D4B4070838B5B0B1A0
:10392800054600F500534FF0FF31D3F80C0A24F098
:103938005FFA01282BD10023022B1CD840F6046221
:1039480002FB035292F8002E6AB10133F4E706F045
:1039580061FA134B4FF4FE721249134806F0A4FAA9
:1039680006F058FAFEE740F6046202FB035401230E
:1039780084F8003E00E0002405F5005500231A46AF
:103988001946D5F80C0A23F09DFF204638BD074B91
:1039980040F20E220349064806F086FA0024F4E7AE
:1039A8001CA8070886C2070864A8070898C2070861
:1039B8007CAA0708F0B585B0002302930393002979
:1039C80032D00C46344B1D68002D39D04F680E8913
:1039D8002846FCF757FC03462A4631463846FFF787
:1039E8001FFE01284CD1236940F6FA5293423BD876
:1039F80000932A4B40F2993229492A4806F054FA92
:103A08002948FFF78BFF054630B32269E16863F068
:103A1800DEFB2369C5F8FC3D03238DF80C300295C5
:103A280002A84DF039FD34E006F0F4F91F4B40F2DE
:103A38008D321B491E4806F037FA06F0EBF9FEE70F
:103A480006F0E8F9194B40F28E321549184806F08D
:103A58002BFA06F0DFF9FEE7164B4FF46A721049AD
:103A6800154806F021FA14E040F6FA520192009344
:103A7800124B40F2AD320A490F4806F015FA08E039
:103A8800019700960E4B40F2B23205490D4806F0F8
:103A98000BFA05B0F0BD00BF2806002084C4070853
:103AA80086C20708C8B30708341100201CA80708F5
:103AB80064A80708ACC407087CAA0708D4C4070888
:103AC8002CC50708D4B4070870B584B00023029346
:103AD800039329B30C464E680D89274B1B68274A68
:103AE800126829463046FFF79BFD012838D1236923
:103AF80040F6FA52934227D82148FFF70FFF0546B0
:103B0800D0B12269E16863F062FB2369C5F8FC3D26
:103B180006238DF80C30029502A84DF0BDFC28E074
:103B280006F078F9174B40F255321749174806F056
:103B3800BBF906F06FF9FEE7154B40F271321249F6
:103B4800144806F0B1F914E040F6FA5201920093D5
:103B5800114B40F276320C490E4806F0A5F908E000
:103B6800019600950D4B40F27D3207490C4806F04E
:103B78009BF904B070BD00BF240600202806002071
:103B8800341100201CA8070886C2070864A8070883
:103B9800ACC407087CAA070884C50708D0C507086D
:103BA800D4B4070870B584B0054600238DF80F30EB
:103BB8008CB20DF10F03009314230E4A214652F0E4
:103BC80085F89DF80F3023B9002623B1304604B09C
:103BD80070BD094EF9E70DF10F0300931723074A4B
:103BE8002146284652F072F89DF80F30002BEDD090
:103BF800034EEBE728C60708BD39010840C6070889
:103C0800D13A010870B584B070B10C460546B9B90F
:103C180006F000F91F4B40F297421F491F4806F073
:103C280043F906F0F7F8FEE706F0F4F8194B40F20E
:103C380096421949194806F037F906F0EBF8FEE7FD
:103C4800FFF7B0FF064602F087F8F8B106B3002385
:103C58003246294602F0ACFC064658B90195009454
:103C68000F4B40F2B4420C490E4806F01DF930469D
:103C780004B070BD0290019500940B4B40F2AB422A
:103C880005490A4806F010F9A226F0E7A226EEE751
:103C9800A226ECE71CA8070886C2070864A807083C
:103CA80090C60708C8B3070858C607087CAA0708BB
:103CB800F0B583B078B10C4615460646B9B906F09A
:103CC800A9F8204B40F21B421F49204806F0ECF8A7
:103CD80006F0A0F8FEE706F09DF81A4B40F21A42EB
:103CE80019491A4806F0E0F806F094F8FEE7FFF7DD
:103CF80059FF074602F030F8F8B107B300230093E4
:103D08003B462A46314602F011FB054658B9019652
:103D180000940F4B40F237420B490E4806F0C4F8A6
:103D2800284603B0F0BD00900B4B4FF4866206495D
:103D38000A4806F0B9F8A125F2E7A125F0E7A12580
:103D4800EEE700BF1CA8070886C2070864A8070892
:103D5800E0C60708C8B30708B0C607087CAA070862
:103D680070B58CB005460C46002007900890099065
:103D78000A900B9004900590069003900290089585
:103D8800ADF824109DF840108DF81C100A920B9382
:103D9800014626F081FD26F0EBF8029042F21073FE
:103DA80006931B4B049302AB059301F0D5FF60B358
:103DB80004AA07A954F0ADFC064660B942F2107394
:103DC800009303AB4FF0FF320021084626F096FA25
:103DD80001280CD0032600960E4B40F27D420E4976
:103DE8000E4806F061F8A02630460CB070BD9DF86C
:103DF8000C60002EEFD101950094094B40F28242ED
:103E08000549084806F050F8EEE7A026ECE700BFA1
:103E1800313E0108FCC6070886C207087CAA0708C5
:103E280038C70708C8B3070800B583B058B10A46B1
:103E38000068A0B1F9B1002100910323127826F09F
:103E4800D7FA03B000BD05F0E5FF114B40F2074279
:103E58001049114806F028F805F0DCFFFEE705F0E8
:103E6800D9FF0B4B4FF481620A490B4806F01CF846
:103E780005F0D0FFFEE705F0CDFF054B40F2094203
:103E88000449054806F010F805F0C4FFFEE700BF36
:103E98001CA8070886C2070864A8070810B578B1E7
:103EA800044642F60C22002162F085FF012023F02F
:103EB800D5FD04F50054C4F80C0A00B1012010BD6A
:103EC80005F0A8FF044B40F2D5120449044805F058
:103ED800EBFF05F09FFFFEE71CA8070886C207084E
:103EE80064A8070830B5B3B00024309431940AAD03
:103EF80038222146284662F05EFF18A8FFF7E4FB47
:103F08002846FFF7ADFB7C4BDA7899781B8802933B
:103F180001910092794B4FF4A6627949794805F0EE
:103F2800C3FF7949204608F0FFFC784B186010B1B0
:103F3800754B1B6813BB764B40F24F52704975485E
:103F480005F0B2FF00231C46002B40D10125724B1F
:103F580040F2CA526A496B4805F0A6FF002D00F0EE
:103F6800BA806A4B186820B127F01CFC674B002206
:103F78001A60002025F084F833B030BD674B40F25A
:103F880056525F495F4805F08FFF654B0093012348
:103F9800002220216348006823F05EF910F0200F0A
:103FA8000BD0614B4FF4AC625549564805F07CFF85
:103FB80001F0D2FE04460123C6E75C4B40F266528C
:103FC8004F49504805F070FF01230024BCE784B135
:103FD80000220092564B5749204602F0A7F90546A1
:103FE80040B1554B40F2755245494A4805F05CFFCF
:103FF800ADE7012544B1002200924D4B4F492046C0
:1040080002F094F90546A8B94D48FFF747FF012883
:104018009DD14C4B3D4A126818A90AA84CF0B2FF32
:1040280080B10090484B40F297523549394805F025
:104038003BFF8CE7454B40F285523149354805F046
:1040480033FF84E700230193032200924FF4805248
:104058003F49404825F002F8012808D000903E4B1F
:1040680040F2A65226492B4805F01EFF6FE70023B1
:104078008DF8C43030A84DF00FFA08E047F2305000
:1040880025F00EFB4CF0ECFF0A283FF460AF00234C
:104098000693079308930993FFF7FCFA0128EDD1DB
:1040A80006A84CF0E3FF0028E8D14CF0D9FF099BA3
:1040B8000493089B0393079B0293069B0193274B4A
:1040C80053F820300093264B40F2BD520C490D485E
:1040D80005F0EAFED2E70023154A1649204602F009
:1040E80067FA00283FF43DAF1E4B40F2D552044911
:1040F800084805F0D9FE34E72C52090868C70708B4
:1041080086C20708C8B3070824060020280600202E
:1041180090C707087CAA07089CC90708C0C70708F2
:10412800C0D4010008870020E8C7070810C807089E
:10413800BD39010844C8070864C80708A0C80708AB
:10414800341100200D380108F0C80708C0C8070856
:1041580020C90708C13601082CC9070808500908F2
:1041680058C90708C8C9070808B5044B186818B122
:104178000022012123F088F908BD00BF483B002038
:1041880008B5044B186818B10022012123F07CF906
:1041980008BD00BF483B00202DE9F0418EB007461E
:1041A8000E4614461D46002009900A900B900C906C
:1041B8000D900DF11C08079008900490059006904A
:1041C8000390014626F068FB8DF824708DF8256071
:1041D8000A942046FCF756F8ADF82C000C95149B71
:1041E8000D9325F0C5FE07904FF4FA730693124B12
:1041F8000493CDF8148002E0039BB3B9BCB104AAC0
:1042080009A90E4B186854F084FA04460028F5D121
:104218004FF0FF33009303AB00221146104626F0FF
:104228006DF80128E8D00324E8E70324E6E72046F0
:104238000EB0BDE8F08100BF49420108443B0020B0
:10424800006850B110B582B00024009403230A78A6
:10425800214626F0CDF802B010BD70472DE9F04197
:1042680086B00023059301F07DFD01F075FD894BB3
:10427800186000283DD001F037FD874B40F20B1243
:104288008649874805F010FE05A9002008F04CFB78
:104298000546002839D04FF4007027F09DF90446F0
:1042A80000283ED022F0C9FF7E4B1860002844D079
:1042B8002B467D4A40217D4862F0DCFB00227C4988
:1042C8004FF400500CF0ACFB00227A494FF4005038
:1042D8000CF0CAFB0025002D40F09780764B03EBCD
:1042E800051359686F4B186823F076F80135EDB25D
:1042F800F1E705F08FFD714B4FF483726749704801
:1043080005F0D2FD05F086FDFEE705F083FD6B4B59
:104318004FF4877261496A4805F0C6FD05F07AFDD9
:10432800FEE705F077FD654B40F211125B496448E2
:1043380005F0BAFD05F06EFDFEE705F06BFD5F4B7D
:104348004FF48A7255495E4805F0AEFD05F062FDEE
:10435800FEE7594A02EB0312526811430133DBB2FC
:1043680055E0B046544F07EB0617B989B86816F000
:10437800DFFCF873BB7B834216D0524A6019C5F53F
:104388000071142D12DD504B01924FEA08184A4A69
:1043980052F8082000924D4A62F06CFB002807DBB7
:1043A80005440136F6B24BE0494AE7E7494BEBE7EB
:1043B80005F030FD414B40F253123849404805F0B2
:1043C80073FD05F027FDFEE705F024FD3B4B40F2A9
:1043D8005B1232493A4805F067FD05F01BFDFEE720
:1043E80005F018FD354B40F25F122C49344805F0B2
:1043F8005BFD05F00FFDFEE72C4B0093364B4FF4A9
:10440800B9722649354805F04FFD00231946002B9F
:104418009FD04FF0FF33009300230122214800680A
:1044280022F01AFF0028F0D02D4D0FCD20606160DA
:10443800A260E360286820612B7923750026142583
:10444800002E8ED0274AC5F50071601962F012FB64
:104458000028B9DB0544B5F5007FC1D20294019567
:10446800124E0096204B40F261120C490C4805F0A0
:104478001BFD00952346324601210020FFF78CFEE4
:104488000028B9D1194B4FF4B7720449044805F014
:104498000BFDBAE7443B0020B0CA0708A1CA0708C9
:1044A800C8B30708483B0020E8CA07084C3B00206F
:1044B8008941010871410108000000201CA8070873
:1044C80064A80708F0CC070888CA07081CCB0708A7
:1044D800E4CC07084C920808A0CB07087CAA070878
:1044E80004CB07083CCB070844CB070874CB070864
:1044F800064B1B78DAB2012B03D0022A03D1012024
:104508007047002070470320704700BF9C4E002072
:10451800012804D0022804D028B904487047044868
:104528007047044870470448704700BFD0CB07085D
:10453800D8CB0708E0CB07085482080830B5A3B0E9
:104548000546154B154A802102A862F093FA09E046
:1045580002AB0093124B40F2A7121249124805F021
:10456800A3FCACB100230093104B2A4602A9104CBF
:10457800206801F0DBFE04460028E9D002AB009376
:104588000C4B40F2A51207490B4805F08DFCE8E7F3
:10459800204623B030BD00BF903B0020E8CB070881
:1045A80038CC070828CC0708C8B30708A54601086F
:1045B8008C3B0020FCCB07087CAA070838B50546C9
:1045C80000240CB1002038BD23012946054AD058E3
:1045D800FBF74EFE10B10134E4B2F2E7014800EBFC
:1045E8000410F0E71000002010B5044601220188ED
:1045F800406816F0A4FB4FF47A7025F051F80022B9
:104608002188606816F09BFB10BD08B50430FFF7E1
:10461800EBFF08BD08B50430FFF7E6FF08BD08B595
:104628000430FFF7E1FF08BD70B582B005460C46BF
:10463800FFF7C4FF98B1064612492046FBF718FE5B
:10464800B0B111492046FBF713FEB0B10F4920461F
:10465800FBF70EFE78B93046FFF7E1FF0BE0009557
:104668000B4B4FF49F720B490B4805F01DFC02E001
:104678003046FFF7CAFF02B070BD3046FFF7CAFFE9
:10468800F9E700BF60CC070868CC070870CC0708BA
:1046980048CC070828CC0708D4B4070870B5B8B0C8
:1046A8000C460D897F2D00D97F252A46616818A8F8
:1046B80062F08DFD05F1E0030DEB0305002305F81D
:1046C800803C25693F2D00D93F252A46E16808A886
:1046D80062F07DFD05F1E0030DEB0305002305F80D
:1046E800C03C114918A862F03EFC0546C8B1073520
:1046F8002F21284662F067FB98B1441B1F2C00D974
:104708001F2422462946684662F061FD04F1E00351
:104718000DEB0304002304F8E03C08A96846FFF702
:1047280083FF38B070BD00BF78CC07082DE9F04191
:104738008EB007460E4614461D46002009900A9082
:104748000B900C900D900690079008900DF11008B2
:10475800049005900390014626F09EF88DF8247089
:104768008DF825600A942046FBF78CFDADF82C00E7
:104778000C95149B0D9325F0FBFB04904FF4FA73F2
:104788000893114B0693CDF81C8003E0039B03B1FB
:104798000324ACB106AA09A90C4B186853F0B9FF59
:1047A80004460028F5D14FF0FF33009303AB0022F5
:1047B8001146104625F0A2FD0128E7D00324E8E7BA
:1047C80020460EB0BDE8F081414801088C3B00202E
:1047D80070B5AAB000240CB12AB070BD2046FFF70E
:1047E80087FE114B220103EB041528730AAE9B5870
:1047F80000930E4B0E4A8021304662F03BF9287B2D
:10480800FFF786FE034602AD0A4A2021284662F0D9
:1048180031F900902B46324601210846FFF786FF02
:104828000134E4B2D7E700BF10000020903B00201D
:10483800D8AA070864F80708006850B110B582B014
:104848000024009403230A78214625F0D1FD02B004
:1048580010BD704770B584B001F084FA01F07CFA9D
:104868002F4B186000283CD001F03EFA002003903E
:1048780003A908F059F8054600283ED0039E294CA4
:1048880032460146204662F0A2FC0023A355284682
:1048980026F088FF0094244B4FF4FD7223492448E6
:1048A80005F002FB0120FFF749FEFFF791FF4FF0EB
:1048B800FF330093002301224FF400711D48006864
:1048C80022F0CAFC0024002CF1D12046FFF710FE8C
:1048D800194B03EB04131B7B83421AD10134E4B256
:1048E800F1E705F097FA154B4FF4F7720F491448A2
:1048F80005F0DAFA05F08EFAFEE705F08BFA0F4BB1
:104908004FF4FA7209490E4805F0CEFA05F082FA1A
:10491800FEE7094B03EB04131873FFF759FFDDE7B4
:104928008C3B0020903B002080CC070828CC07084F
:10493800C8B3070808870020100000201CA8070833
:1049480064A8070870B582B006460D460CE02846F4
:10495800FBF798FC019500900F4B40F2A9120F4904
:104968000F4805F0A1FAA4B1002300930D4B32467D
:1049780029460D4C206801F0D9FC04460028E6D0F1
:1049880000900A4B40F2A5120449094805F08CFA38
:10499800E9E7204602B070BDE0C60708B6CC0708B4
:1049A800C8B30708414C0108503C0020B0C60708AE
:1049B8007CAA07082DE9F0418EB007460E4614463A
:1049C8001D46002009900A900B900C900D900DF157
:1049D8001C080790089004900590069003900146E3
:1049E80025F05AFF8DF824708DF825600A9420462A
:1049F800FBF748FCADF82C000C95149B0D9325F0A3
:104A0800B7FA07904FF4FA730693124B0493CDF854
:104A1800148002E0039BB3B9BCB104AA09A90E4BE8
:104A2800186853F076FE04460028F5D14FF0FF339E
:104A3800009303AB00221146104625F05FFC0128C5
:104A4800E8D00324E8E70324E6E720460EB0BDE8F3
:104A5800F08100BF654A0108503C0020006850B151
:104A680010B582B00024009403230A78214625F06B
:104A7800BFFC02B010BD70472DE9F04397B0074660
:104A8800002615961496344611E02A465F4940469A
:104A980062F0DEF900283AD15D4B03EB04131B7B6F
:104AA8005C4A52F82320002A50D00134E4B2012C89
:104AB80059D8A1462301564AD358574A402104A839
:104AC80061F0D8FF0546431E3E2BEED84FF0000894
:104AD800CDF85480CDF850803846FBF7D3FB01461B
:104AE800CDF8088014AB019315AB00932B4604AAAC
:104AF80038464FF09DFF0128D7D1DDF85480B8F132
:104B0800000FD2D0149D002DCFD0022DBDD0032D83
:104B1800CBD12A464149404662F09AF90028C4D1CF
:104B28003B4B03EB09131B7B3A4A52F82350012DE8
:104B3800BBD1002142F82310354B03EB0913DA7A75
:104B48001989586816F0FBF82E46AEE70126314A57
:104B580042F823602E4B03EB04139A7A198958689C
:104B680016F0EDF8A1E73EB92D493846FBF780FB72
:104B7800A8B9284B1B6823B1012E0AD017B0BDE88D
:104B8800F083244B01221A6000224021254816F0A8
:104B9800D6F80121244B186822F01EFCEEE72349C1
:104BA8003846FBF765FB60B91A4B1B68012BE3D14C
:104BB800184B00221A60012240211A4816F0BFF84B
:104BC800E7E71B493846FBF753FB60B9114B5B68B5
:104BD800002BD1D10F4B01225A60002280211148AD
:104BE80016F0ADF8D5E713493846FBF741FB002826
:104BF800C2D1084B5B68012BBED1064B00225A601C
:104C080001228021074816F09AF8C2E7E4CC070889
:104C180038500908603C0020C4CC0708F0CC0708CD
:104C2800DCCC0708001C0242543C0020E8CC0708F2
:104C3800F4CC070804CD070830B583B00C460A69E0
:104C48007F2A16D90F4D8022C968284662F0BFFA1C
:104C5800002385F87F300B4C00940B4B40F28F12E9
:104C68000A490B4805F020F92046FFF705FF03B075
:104C780030BD044DC968284662F0A9FA23690022AC
:104C8800EA54E8E7D03B002014CD0708B6CC070863
:104C9800C8B3070870B586B00023059301F062F821
:104CA80001F05AF8694B1860002831D001F01CF85F
:104CB800674B40F20E226749674805F0F5F805A9E9
:104CC800002007F031FE044670B3802026F084FCF3
:104CD8000546002834D02346604A4021604861F0E8
:104CE800C9FE23465F4A40215F4861F0C3FE22F0B7
:104CF800A4FA5E4B186078B35B490120FFF722FEE7
:104D0800002835D10121594B186822F065FB74E061
:104D180005F080F8564B40F20A224E49554805F0F6
:104D2800C3F805F077F8FEE705F074F8504B40F249
:104D3800112248494F4805F0B7F805F06BF8FEE72F
:104D480005F068F84A4B4FF405724249494805F0A6
:104D5800ABF805F05FF8FEE705F05CF8444B40F26D
:104D68001B223C49434805F09FF805F053F8FEE73D
:104D78003D4B0093404B40F2222236493F4805F014
:104D880093F8002024F07CF9BCE73D4A52F8231040
:104D98003C4A42F823100133DBB2012BF5D9384BDA
:104DA8001B68002B38D0384B354A5268002A35D05A
:104DB800354A0092354A8021284661F05BFE044658
:104DC8007F282DD802950190254E0096304B40F251
:104DD80046222049204805F067F800942B463246C1
:104DE80001210846FFF7E6FD30BB0096294B40F24B
:104DF80053221849184805F057F84FF0FF3300932D
:104E080001231A4619461948006822F025FA10F0BD
:104E1800010FF2D00023C0E71F4BC5E71E4AC8E7C1
:104E280004F0F8FF124B4FF411720A49114805F0CB
:104E38003BF804F0EFFFFEE7094B0093174B4FF4E4
:104E4800167204490D4805F02FF8D6E7503C0020AB
:104E58003CCD0708B6CC0708C8B3070870AD0708EB
:104E6800683C002060AD0708A83C0020543C0020A6
:104E78001CA8070864A8070884CD07087CAA0708A7
:104E8800603C0020583C0020E4CC0708A8CD070867
:104E980004CE07082CCE0708F0CC070850CE070828
:104EA8000F4B1B6803B1704710B582B00022042174
:104EB800202022F08FFC0A4B186000240BE0094BDD
:104EC80003EB0413019300231A4601A90448006860
:104ED80022F0F8FC01341F2CF1D902B010BD00BF3C
:104EE800E83C0020EC3C002010B582B00023019380
:104EF800174B1C682CB3C30E4101091A63F1000358
:104F08009B0043EA91738900091843F100034FEAB3
:104F1800C30C4FF47A720023C8004CEA5171FBF7B6
:104F28009DFE024601A9204622F0B4FE10B1019868
:104F380002B010BD074B5A220749084804F0B4FFD5
:104F4800F5E7074B5F220449044804F0ADFFEEE79C
:104F5800E83C002070CE0708A3CE07087CAA070803
:104F6800BCCE070800B585B00390134B1868A0B1F4
:104F7800039B124A934203D302F50072934214D959
:104F880000930F4B73220F490F4804F08DFF002048
:104F9800003818BF012005B000BD0C4B6D2209492F
:104FA800094804F081FF0020F2E700231A4603A90C
:104FB80022F088FCECE700BFE83C0020EC3C002035
:104FC800DCCE0708A3CE07087CAA0708BCCE0708D2
:104FD80038B538B1054689B1132A1BD8132B25D803
:104FE800002030E004F016FF214B40F24F12214917
:104FF800214804F059FF04F00DFFFEE704F00AFF12
:105008001B4B4FF4A8721B491B4804F04DFF04F0DA
:1050180001FFFEE704F0FEFE154B40F25112154960
:10502800154804F041FF04F0F5FEFEE704F0F2FE37
:105038000F4B4FF4A9720F490F4804F035FF04F0E5
:10504800E9FEFEE70130132810D805EB001E02EB3D
:10505800420C01EB8C0CDEF80C406445F2D103EBFA
:10506800430401EB8404CEF80C40EBE738BD00BFE5
:105078001CA807082BCF070864A8070810B5C46840
:105088008C4201D0002010BD4168994201D0002017
:10509800F9E70368934201D00020F4E7846824F01C
:1050A80067FF844201D00020EDE70120EBE7000014
:1050B80038B5B0B1044624F05BFF0546D4F8A40225
:1050C80022F0C0FB854206D0224B40F2EA22224958
:1050D800224804F0E9FE0023C4F89432C4F8983258
:1050E8001EE004F097FE1E4B40F2E9221A491B48C5
:1050F80004F0DAFE04F08EFEFEE7E218802182F862
:10510800F01003F1400204EB82020021516003EB2E
:105118004302900004EB8202516021541181013353
:10512800132BEAD900230DE003F1150104EB01115B
:1051380000228A604A6004EB0311C1F86021C1F8BB
:105148005C210133132BEFD90023C4F8A032C4F833
:105158009C3238BDD8BF07082BCF070864A80708BA
:105168001CA807082DE9F84338B188469146064639
:1051780079B10024274625463FE004F04BFE294B31
:105188004FF4B3722849294804F08EFE04F042FE19
:10519800FEE704F03FFE234B40F267122249234802
:1051A80004F082FE04F036FEFEE71A8972BB132D66
:1051B8002CD8A54200D8651C132D1DD805EB450237
:1051C8004FEA820E06EB820CBCF808200AB90135BA
:1051D800F2E79CE8070083E80700002346F80E3052
:1051E800CCF80430CCF8083023462A4631464046ED
:1051F800FFF7EEFE013701350134132C0DD804EB0F
:10520800440306EB830358680028CED00028F3D067
:105218001B89002BF0D00137EEE7C9F80070BDE814
:10522800F88300BF1CA807082BCF070864A8070845
:105238002DE9F84338B18946054681B14FF0000C95
:105248006746E64649E004F0E5FD2B4B4FF4D17282
:105258002A492B4804F028FE04F0DCFDFEE704F0A0
:10526800D9FD254B40F2A3122449254804F01CFE21
:1052780004F0D0FDFEE7BEF1130F36D8E64501D89D
:105288000CF1010EBEF1130F25D84FEA0E1805EBED
:105298000E16F36813B90EF1010EF3E7E6450DD9C2
:1052A80096E80F0084E80F00002345F80830736083
:1052B800B360F36001370EF1010E0CE004F0AAFDB3
:1052C8000D4B40F2B5120D490D4804F0EDFD04F008
:1052D800A1FDFEE701370CF1010CBCF1130F07D853
:1052E80005EB0C14E368002BC5D0002BF2D1F2E7D4
:1052F800C9F80070BDE8F8831CA807082BCF070879
:1053080064A8070860B100B583B0002300930123A7
:105318004FF000420321406825F06AF803B000BD51
:105328007047000000B583B071B158B10A784B6876
:1053380013B11B7802EB0362002300930323194681
:1053480025F056F803B000BD04F064FD044B40F2AC
:10535800BA520449044804F0A7FD04F05BFDFEE7D7
:105368001CA807082BCF070864A8070800B583B056
:1053780049B130B10023009303230A78194625F078
:1053880037F803B000BD04F045FD054B40F2B662A6
:105398000449054804F088FD04F03CFDFEE700BF21
:1053A8001CA807082BCF070864A8070800B585B014
:1053B80084460846114600238DF80F300DF10F037F
:1053C8000093BCF80830DCF8042050F07FFC20B9CA
:1053D8009DF80F3013B1012000E0002005B000BD9A
:1053E80008B523F0BFFF024B1B68C01A08BD00BFF9
:1053F800003F002030B585B00023039380B30C46EE
:10540800054679B3D00E53019B1A60F10000800065
:1054180040EA93709B0013EB020C40F10001C900B5
:105428004FF47A7200234FEACC0041EA5C71FBF733
:1054380015FC009003AB4FF0FF320021032024F04D
:105448005DFF034678B1039B002B02DA002323603B
:1054580009E000222146286822F01CFC034602E0ED
:10546800002300E00023181E18BF012005B030BD3E
:1054780030B583B058B30C46054651B3D00E53012E
:105488009B1A60F10000800040EA93709B0013EBC8
:10549800020C40F10001C9004FF47A7200234FEA70
:1054A800CC0041EA5C71FBF7D9FB02460023214698
:1054B800286822F007FA0446686858B10023009368
:1054C80001234FF08042032124F092FF02E00024E0
:1054D80000E00024201E18BF012003B030BD0000EA
:1054E80030B583B0F0B10446D0F8A4322BB324F021
:1054F8003FFD0546D4F8A40222F0A4F9854205D060
:10550800184BFD221849194804F0CEFC00231A460E
:105518001946D4F8A40222F0D5F90446C0B12046B1
:1055280003B030BD04F076FC114BFB220E490F4846
:1055380004F0BAFC04F06EFCFEE704F06BFC0C4BC4
:10554800FC220949094804F0AFFC04F063FCFEE7BB
:105558000090084B40F207120349074804F0A4FCE6
:10556800DDE700BFD8BF07082BCF070864A80708E6
:105578001CA8070840CF07087CAA07082DE9F041B6
:1055880082B0B8B10F46064601B324F0F1FC0446D8
:10559800D6F8A40222F056F984425ED004F03AFC10
:1055A800324B40F22B223249324804F07DFC04F0A1
:1055B80031FCFEE704F02EFC2C4B40F229222C494A
:1055C8002C4804F071FC04F025FCFEE704F022FCF2
:1055D800264B40F22A222649264804F065FC04F0AE
:1055E80019FCFEE70134132C16D806EB0413D3F884
:1055F80060314345F6D106EB0413D3F85C0100286B
:10560800F0D023F0BBFE00901B4B40F24322184918
:105618001A4804F049FCE5E70135D6F89432AB4264
:105628001DD97B685A5D731983F8F0207B685B5D30
:10563800802BF1D105EB450806EB8808B8F808304F
:10564800D8F80420019200930D4B4FF40E720849CC
:105658000C4804F029FC0024C5E70025DDE73046A6
:10566800FFF73EFF02B0BDE8F08100BF1CA80708A5
:105678002BCF070864A807089CCF0708D4B40708ED
:105688006CCF07087CAA070870B586B0C9B1064672
:105698000C46D1F8A43203B324F06AFC0546D4F8CA
:1056A800A40222F0CFF8854223D004F0B3FB274BA5
:1056B80040F256222649274804F0F6FB04F0AAFBDC
:1056C800FEE704F0A7FB214B4FF41572204921484F
:1056D80004F0EAFB04F09EFBFEE704F09BFB1B4B87
:1056E80040F255221A491B4804F0DEFB04F092FBF5
:1056F800FEE704F5257204F5AA712046FFF732FD8E
:10570800D4F89432DBB1144A03920494002205922F
:10571800C4F89C42C4F8A03203AA04F527713046A5
:1057280052F0BBFF044670B150F02CFB00900B4BBD
:1057380040F2712206490A4804F0B6FB03E020460D
:10574800FFF7CEFE0024204606B070BD1CA807084F
:105758002BCF070864A8070885550108ECCF070870
:105768007CAA070830B583B0B8B10446D0F8A43293
:10577800F3B124F0FDFB0546D4F8A40222F062F848
:10578800854220D04FF0FF31D4F8A40222F030FB3C
:105798000446F8B1204603B030BD04F03BFB114B82
:1057A800E1221149114804F07FFB04F033FBFEE7C6
:1057B80004F030FB0B4BE2220B490C4804F074FB5D
:1057C80004F028FBFEE70A4BE4220749074804F0E7
:1057D8006BFBD7E70090074BEF220349064804F01C
:1057E80063FBD7E71CA807082BCF070864A807089E
:1057F800D8BF070828D007087CAA07082DE9F04178
:1058080082B060B11546D0F80861A6B1FAB1304649
:10581800FFF7A8FF00284CD00024A04624E004F09D
:10582800F9FA2B4B40F2A9222A492B4804F03CFBF9
:1058380004F0F0FAFEE704F0EDFA254B40F2AA2254
:105848002449254804F030FB04F0E4FAFEE704F0AC
:10585800E1FA1F4B40F2AB221E491F4804F024FB1B
:1058680004F0D8FAFEE70134132C1CD806EB041315
:10587800D3F860010028F6D02A896968FFF796FDF9
:1058880007460028EFD006EB0413D3F85C0123F099
:1058980075FD04F1150306EB03135A682946986849
:1058A8009047B846DFE73046FFF71AFEB8F1000F19
:1058B8000AD12B896A6801920093084B40F2D322DF
:1058C8000449074804F0F0FA02B0BDE8F08100BFCF
:1058D8001CA807082BCF070864A8070850D007089A
:1058E800D4B4070810B570B10446012022F0B6F808
:1058F800C4F8A40298B12046FFF734FF2046FFF70A
:10590800D7FB002010BD04F085FA064B40F20B329D
:105918000549064804F0C8FA04F07CFAFEE70220BC
:10592800F0E700BF1CA807082BCF070864A80708E2
:10593800F0B585B01F460123039300230293044664
:1059480098B30D461646002938D0002A3FD040F2B9
:105958001442002161F02FFAC4F81061C4F81471E0
:10596800C4F82451624BC4F81C31624BC4F8183196
:10597800012084F8EC033C23A4F8EE334FF0FF3306
:10598800019301A906F0D0FF0546019B013B13F1E5
:10599800030F25D8584961F0E6FA38B3574BC4F8D5
:1059A800F8334423A4F8FC331FE0554B40F2463249
:1059B8005449554804F078FA01252FE0534B40F23A
:1059C8004B325049504804F06FFA01256CE0504BB7
:1059D8004FF454724B494C4804F066FA012563E0D1
:1059E8000023C4F8F833A4F8FC3315B1284625F091
:1059F800D9FE0020C4F80004A4F8040402A906F0A3
:105A080093FFC4F8F003002846D0029B002B43D034
:105A1800B3F5803F40D2A4F8F4330025002D43D1DC
:105A280000220421202021F0D5FEC4F83C010028E2
:105A38003DD024F09DFAC4F84001002D34D104F57E
:105A48009E73C4F82831334BC4F82C31324BC4F858
:105A58003031324BC4F83431314BC4F8383104F2A8
:105A68000C41012006F060FFC4F80804D4F80C3497
:105A780033B328B303A9022006F090FFC4F810043A
:105A880008B1039B2BBB274B40F2C3321D491E486C
:105A980004F00AFA022507E0234B40F29232194932
:105AA800194804F001FA0225284605B0F0BD1F4B3D
:105AB80040F29F321349144804F0F6F90225B8E77A
:105AC8001B4B40F2B7320F490F4804F0EDF902259D
