:020000040801F1
:1000000000000C20B1740208AD240208AF240208DD
:10001000B1240208B3240208B524020801750208BD
:100020000000000000000000000000008DB3030885
:10003000B72402080000000031B303087925020844
:1000400001750208017502080175020801750208B0
:1000500001750208017502080175020801750208A0
:100060000175020801750208017502080175020890
:1000700001750208B9240208017502080175020819
:100080000175020801750208017502080175020870
:100090000175020801750208017502080175020860
:1000A000C3240208CF240208DB240208E924020842
:1000B00000000000F9240208092502080175020861
:1000C0000175020819250208292502080175020890
:1000D0000175020801750208017502080175020820
:1000E0000175020801750208017502080175020810
:1000F0000175020801750208017502080175020800
:1001000001750208017502080175020801750208EF
:1001100001750208017502080175020801750208DF
:1001200001750208017502080175020839250208E7
:1001300049250208592502080175020801750208BF
:1001400001750208017502080175020801750208AF
:10015000017502080175020801750208017502089F
:10016000017502080175020801750208017502088F
:10017000017502080175020801750208017502087F
:10018000017502080175020801750208017502086F
:10019000017502080175020801750208017502085F
:1001A000017502080175020801750208017502084F
:1001B00001750208000000006925020801750208A7
:1001C00001750208000000000175020801750208AF
:1001D000017502080175020801750208017502081F
:1001E000017502080175020801750208017502080F
:1001F00000000000000000000175020801750208FF
:1002000001750208017502080175020801750208EE
:1002100001750208017502080175020801750208DE
:1002200001750208017502080175020801750208CE
:080230000175020801750208C6
:1002380010B5054C237833B9044B13B10448AFF318
:1002480000800123237010BDE80500200000000095
:10025800F4A0070808B5034B1BB103490348AFF3E3
:10026800008008BD00000000EC050020F4A007088D
:1002780010F8012B11F8013B012A28BF9A42F7D048
:10028800D01A7047034613F8012B002AFBD1181A1D
:100298000138704781F0004102E000BF83F000435D
:1002A80030B54FEA41044FEA430594EA050F08BF09
:1002B80090EA020F1FBF54EA000C55EA020C7FEACD
:1002C800645C7FEA655C00F0E2804FEA5454D4EB4A
:1002D8005555B8BF6D420CDD2C4480EA020281EA14
:1002E800030382EA000083EA010180EA020281EA4C
:1002F8000303362D88BF30BD11F0004F4FEA01319E
:100308004FF4801C4CEA113102D0404261EB4101AC
:1003180013F0004F4FEA03334CEA133302D0524232
:1003280063EB430394EA050F00F0A780A4F10104EE
:10033800D5F1200E0DDB02FA0EFC22FA05F2801828
:1003480041F1000103FA0EF2801843FA05F359410E
:100358000EE0A5F120050EF1200E012A03FA0EFC8D
:1003680028BF4CF0020C43FA05F3C01851EBE371B7
:1003780001F0004507D54FF0000EDCF1000C7EEBD4
:1003880000006EEB0101B1F5801F1BD3B1F5001F12
:100398000CD349085FEA30004FEA3C0C04F1010431
:1003A8004FEA445212F5800F80F09A80BCF1004F5A
:1003B80008BF5FEA500C50F1000041EB045141EADC
:1003C800050130BD5FEA4C0C404141EB0101013CA5
:1003D80028BFB1F5801FE9D291F0000F04BF014694
:1003E8000020B1FA81F308BF2033A3F10B03B3F166
:1003F80020020CDA0C3208DD02F1140CC2F10C02F6
:1004080001FA0CF021FA02F10CE002F11402D8BF53
:10041800C2F1200C01FA02F120FA0CFCDCBF41EA1F
:100428000C019040E41AA2BF01EB0451294330BDEE
:100438006FEA04041F3C1CDA0C340EDC04F11404CB
:10044800C4F1200220FA04F001FA02F340EA0300A2
:1004580021FA04F345EA030130BDC4F10C04C4F1E8
:10046800200220FA02F001FA04F340EA03002946C8
:1004780030BD21FA04F0294630BD94F0000F83F412
:10048800801306BF81F480110134013D4EE77FEAF5
:10049800645C18BF7FEA655C29D094EA050F08BF41
:1004A80090EA020F05D054EA000C04BF1946104622
:1004B80030BD91EA030F1EBF0021002030BD5FEA66
:1004C800545C05D14000494128BF41F0004130BD8E
:1004D80014F580043CBF01F5801130BD01F00045E2
:1004E80045F0FE4141F470014FF0000030BD7FEA55
:1004F800645C1ABF194610467FEA655C1CBF0B4650
:10050800024650EA013406BF52EA033591EA030F66
:1005180041F4002130BD00BF90F0000F04BF00215E
:10052800704730B54FF4806404F132044FF0000591
:100538004FF0000150E700BF90F0000F04BF00210A
:10054800704730B54FF4806404F1320410F0004570
:1005580048BF40424FF000013EE700BF42004FEA6B
:10056800E2014FEA31014FEA02701FBF12F07F43E8
:1005780093F07F4F81F06051704732F07F4208BF9F
:10058800704793F07F4F04BF41F40021704730B5A6
:100598004FF4607401F0004521F000411CE700BFF2
:1005A80050EA010208BF704730B54FF000050AE075
:1005B80050EA010208BF704730B511F0004502D576
:1005C800404261EB41014FF4806404F132045FEA78
:1005D800915C3FF4D8AE4FF003025FEADC0C18BF21
:1005E80003325FEADC0C18BF033202EBDC02C2F113
:1005F800200300FA03FC20FA02F001FA03FE40EAA5
:100608000E0021FA02F11444BDE600BF70B54FF0A8
:10061800FF0C4CF4E06C1CEA11541DBF1CEA135586
:1006280094EA0C0F95EA0C0F00F0DEF82C4481EAEE
:10063800030621EA4C5123EA4C5350EA013518BF0E
:1006480052EA033541F4801143F4801338D0A0FBFB
:1006580002CE4FF00005E1FB02E506F00042E0FBA8
:1006680003E54FF00006E1FB03569CF0000F18BFAE
:100678004EF0010EA4F1FF04B6F5007F64F5407456
:1006880004D25FEA4E0E6D4146EB060642EAC621E9
:1006980041EA55514FEAC52040EA5E504FEACE2E56
:1006A800B4F1FD0C88BFBCF5E06F1ED8BEF1004F59
:1006B80008BF5FEA500E50F1000041EB045170BDD5
:1006C80006F0004646EA010140EA020081EA030119
:1006D800B4EB5C04C2BFD4EB0C0541EA045170BD15
:1006E80041F480114FF0000E013C00F3AB8014F18F
:1006F800360FDEBF002001F0004170BDC4F10004D8
:10070800203C35DA0C341BDC04F11404C4F1200558
:1007180000FA05F320FA04F001FA05F240EA0200B3
:1007280001F0004221F0004110EBD37021FA04F6E9
:1007380042EB06015EEA430E08BF20EAD37070BDA3
:10074800C4F10C04C4F1200500FA04F320FA05F002
:1007580001FA04F240EA020001F0004110EBD37004
:1007680041F100015EEA430E08BF20EAD37070BD74
:10077800C4F1200500FA05F24EEA020E20FA04F34D
:1007880001FA05F243EA020321FA04F001F00041FC
:1007980021FA04F220EA020000EBD3705EEA430E6D
:1007A80008BF20EAD37070BD94F0000F0FD101F09C
:1007B8000046400041EB010111F4801F08BF013CD5
:1007C800F7D041EA060195F0000F18BF704703F013
:1007D8000046520043EB030313F4801F08BF013D9A
:1007E800F7D043EA0603704794EA0C0F0CEA135556
:1007F80018BF95EA0C0F0CD050EA410618BF52EA10
:100808004306D1D181EA030101F000414FF0000015
:1008180070BD50EA410606BF1046194652EA430623
:1008280019D094EA0C0F02D150EA013613D195EA97
:100838000C0F05D152EA03361CBF104619460AD1DF
:1008480081EA030101F0004141F0FE4141F47001E9
:100858004FF0000070BD41F0FE4141F4780170BDD9
:1008680070B54FF0FF0C4CF4E06C1CEA11541DBF3E
:100878001CEA135594EA0C0F95EA0C0F00F0A7F840
:10088800A4EB050481EA030E52EA03354FEA01316D
:1008980000F088804FEA03334FF0805545EA131380
:1008A80043EA12634FEA022245EA111545EA106548
:1008B8004FEA00260EF000419D4208BF964244F1DF
:1008C800FD0404F5407402D25B084FEA3202B61AFE
:1008D80065EB03055B084FEA32024FF480104FF4D2
:1008E800002CB6EB020E75EB030E22BFB61A754646
:1008F80040EA0C005B084FEA3202B6EB020E75EBD9
:10090800030E22BFB61A754640EA5C005B084FEA40
:100918003202B6EB020E75EB030E22BFB61A75460D
:1009280040EA9C005B084FEA3202B6EB020E75EB18
:10093800030E22BFB61A754640EADC0055EA060ED9
:1009480018D04FEA051545EA16754FEA06164FEA1C
:10095800C30343EA52734FEAC2025FEA1C1CC0D1C8
:1009680011F4801F0BD141EA00014FF000004FF055
:10097800004CB6E711F4801F04BF01430020B4F116
:10098800FD0C88BFBCF5E06F3FF6AFAEB5EB030CCE
:1009980004BFB6EB020C5FEA500C50F1000041EBCB
:1009A800045170BD0EF0004E4EEA113114EB5C0498
:1009B800C2BFD4EB0C0541EA045170BD41F480116B
:1009C8004FF0000E013C90E645EA060E8DE60CEA73
:1009D800135594EA0C0F08BF95EA0C0F3FF43BAF90
:1009E80094EA0C0F0AD150EA01347FF434AF95EA47
:1009F8000C0F7FF425AF104619462CE795EA0C0F2B
:100A080006D152EA03353FF4FDAE1046194622E7F7
:100A180050EA410618BF52EA43067FF4C5AE50EAD1
:100A280041047FF40DAF52EA43057FF4EBAE12E7C1
:100A38004FF0FF3C06E000BF4FF0010C02E000BFA2
:100A48004FF0010C4DF804CD4FEA410C7FEA6C5C85
:100A58004FEA430C18BF7FEA6C5C1BD001B050EA28
:100A6800410C0CBF52EA430C91EA030F02BF90EA13
:100A7800020F0020704710F1000F91EA030F58BFD2
:100A8800994208BF90422CBFD8176FEAE37040F034
:100A9800010070474FEA410C7FEA6C5C02D150EAD2
:100AA800013C07D14FEA430C7FEA6C5CD6D152EA8D
:100AB800033CD3D05DF8040B704700BF8446104652
:100AC80062468C461946634600E000BF01B5FFF751
:100AD800B7FF002848BF10F1000F01BD4DF808ED21
:100AE800FFF7F4FF0CBF012000205DF808FB00BFF2
:100AF8004DF808EDFFF7EAFF34BF012000205DF84C
:100B080008FB00BF4DF808EDFFF7E0FF94BF012098
:100B180000205DF808FB00BF4DF808EDFFF7CEFF99
:100B280094BF012000205DF808FB00BF4DF808EDD8
:100B3800FFF7C4FF34BF012000205DF808FB00BFA9
:100B48004FEA410C7FEA6C5C02D150EA013C0AD1C1
:100B58004FEA430C7FEA6C5C02D152EA033C02D1B3
:100B68004FF0000070474FF0010070474FEA410214
:100B780012F5001215D211D56FF47873B3EB6252E7
:100B880012D94FEAC12343F0004343EA505311F00E
:100B9800004F23FA02F018BF404270474FF00000A0
:100BA800704750EA013005D111F0004008BF6FF0DE
:100BB800004070474FF00000704700BF4FEA410205
:100BC800B2F1E04324BFB3F5001CDCF1FE5C0DD9A3
:100BD80001F0004C4FEAC0024CEA5070B2F1004FED
:100BE80040EB830008BF20F00100704711F0804FF0
:100BF80021D113F13872BCBF01F00040704741F4B5
:100C080080114FEA5252C2F11802C2F1200C10FAB8
:100C18000CF320FA02F018BF40F001004FEAC1239C
:100C28004FEAD32303FA0CFC40EA0C0023FA02F340
:100C38004FEA4303CCE77FEA625307D150EA013316
:100C48001EBF4FF0FE4040F44000704701F00040E6
:100C580040F0FE4040F40000704700BF53B94AB965
:100C6800002908BF00281CBF4FF0FF314FF0FF30AC
:100C780000F0C6B9ADF1080C6DE904CE00F01AF821
:100C8800DDF804E0DDE9022304B07047430803F00F
:100C98005533C01A830800F0333003F03333184457
:100CA80000EB101000F00F3000EB002000EB0040CC
:100CB800000E70472DE9F04F8C46099E04460F46FA
:100CC800002B48D18A4215465ED9B2FA82F33BB16D
:100CD800C3F120029F409D409C4020FA02F2174336
:100CE8004FEA154E1FFA85FC220CB7FBFEF10EFBEE
:100CF800117701FB0CF042EA0742904207D9AA1883
:100D080001F1FF3702D2904200F258813946121A97
:100D1800A4B2B2FBFEF00EFB102200FB0CFC44EA6E
:100D28000244A4450BD92C1900F1FF322CBF01272E
:100D38000027A44502D9002F00F04381104640EA5D
:100D48000140A4EB0C0400211EB1DC400023C6E9DD
:100D58000043BDE8F08F8B4206D90EB1C6E9000109
:100D680000210846BDE8F08FB3FA83F1002951D17C
:100D78006345C0F01681824240F213810846002E76
:100D8800E7D0C6E90047E4E7002A00F0AF80B2FAEE
:100D980082F3002B40F0C2808A1A4FEA154EAFB298
:100DA8000121200CB2FBFEFC0EFB1C2240EA024291
:100DB80007FB0CF090420ED9AA180CF1FF382CBF93
:100DC8004FF001094FF00009904203D9B9F1000F23
:100DD80000F0F080C446121AA4B2B2FBFEF00EFB7B
:100DE800102200FB07F744EA0244A7420ED92C1947
:100DF80000F1FF322CBF4FF0010E4FF0000EA7425A
:100E080003D9BEF1000F00F0D2801046E41B40EA7F
:100E18000C4099E7C1F120058B400CFA01F400FA67
:100E280001F922FA05F72CFA05FC8A401F4320FA3B
:100E380005F3380C23431FFA87FE1C0CBCFBF0F8A3
:100E480000FB18CC44EA0C4408FB0EFCA4450ED960
:100E58003C1908F1FF3A2CBF4FF0010B4FF0000B83
:100E6800A44503D9BBF1000F00F0B880D046A4EB2D
:100E78000C041FFA83FCB4FBF0F300FB134403FBE0
:100E88000EFE4CEA0444A6450ED93C1903F1FF3086
:100E98002CBF4FF0010C4FF0000CA64503D9BCF154
:100EA800000F00F09F80034643EA0840A4EB0E04BD
:100EB800A0FB02EC64457346E04602D307D1F14536
:100EC80005D2BEEB02036CEB070C0138E0465EB1BD
:100ED800B9EB030264EB080404FA05F522FA01F3FE
:100EE800CC401D43C6E90054002132E742082F4692
:100EF8004B08AC4642EAC172AE46C407110C92B226
:100F080041EA034142EA0142B1FBF5F1B3FBF5F0D6
:100F18001F23A2EB0C0241EA004142E79D40C3F1C6
:100F2800200299409C402CFA02FC4FEA154E20FA08
:100F380002F2AFB2BCFBFEF80A430EFB18CC110C50
:100F480041EA0C4108FB07FC8C4550D9691808F1A7
:100F5800FF302CBF4FF001094FF000098C4502D932
:100F6800B9F1000F30D0A1EB0C01B1FBFEF808FB82
:100F780007FC0EFB181192B242EA0142624534D2D4
:100F8800AA1808F1FF312CBF4FF001094FF00009F2
:100F98006245BED2B9F1000FBBD1A8F102012A44C3
:100FA800B7E7841A6CEB030201201746E7E62C44E6
:100FB80002382BE7ACF1020C2A440CE702392A4428
:100FC800A5E62C440238BAE6A5EB0C0CA8F1020001
:100FD8006144B1FBFEF808FB07FCCAE7A8F1020868
:100FE8003C4444E7023B3C445EE7414691E7A1EBC1
:100FF8000C014046B1FBFEF808FB07FCB9E700BF4F
:10100800704700BFF0B589B088B10C460546C9B134
:101018002E4B1B68002B57D108F0A2FE2C4B352213
:101028002C492D4808F0E6FE08F09AFEFEE708F085
:1010380097FE274B33222749274808F0DBFE08F0A4
:101048008FFEFEE708F08CFE214B3422214922480E
:1010580008F0D0FE08F084FEFEE7204B53F8367007
:10106800019700951E4B1F4A80211848006865F0BB
:101078005DFC07951C4B069305950495039702950F
:10108800019700953B46194A4FF48061204665F068
:101098004DFCB0F5806F0FD2009023460B4A1268C2
:1010A8000121002000F0EAFD0A2028F055FA013657
:1010B800002ED2DD09B0F0BD00970D4B6E22054918
:1010C8000C4808F097FEEFE70026F1E7100600202D
:1010D800D4A6070804A707081CA70708304D090865
:1010E80024A7070834A7070808A9070854A707086A
:1010F80018A9070834A907082DE9F04788B098B15E
:101108000E460746D9B1524B1B681BB380202AF004
:10111800BFF9814680202AF0BBF98246B9F1000F59
:1011280023D068B3002468E008F01AFE494B4A222D
:1011380049494A4808F05EFE08F012FEFEE708F04A
:101148000FFE444B4B224449444808F053FE08F034
:1011580007FEFEE708F004FE3E4B4C223E493F489E
:1011680008F048FE08F0FCFDFEE708F0F9FD394BF1
:1011780051223949394808F03DFE08F0F1FDFEE7F3
:1011880008F0EEFD334B52223349344808F032FE62
:1011980008F0E6FDFEE7CDF800803B46304A8021A6
:1011A800484665F0C3FBCDF800803B462D4A8021B8
:1011B800504665F0BBFB07972B4B069305970497A2
:1011C800CDF80CA0CDF80890CDF8048000974346E0
:1011D800264A4FF48061304665F0A8FBB0F5806F71
:1011E80024D2009033461A4A12680121002000F0E8
:1011F80045FD0A2028F0B0F90134022C1FDC1C4DF3
:1012080055F83480CDF8048000971A4B1A4A80218B
:101218000F48006865F08AFB05EBC4056B68012B75
:10122800B9D00B4B186800F0A3FDE2E7CDF80080B9
:10123800124B9E220849124808F0DCFDD9E74846BF
:101248002AF00CFA50462AF009FA08B0BDE8F087EF
:1012580010060020D4A6070860A907081CA70708DD
:101268007CA9070890A9070808A90708A4A90708DE
:10127800384D090874A9070834A7070894AB07086C
:1012880034A907082DE9F04F9DB098B10C460746E0
:10129800D9B15A4B1B681BB380202AF0F9F8804655
:1012A80080202AF0F5F88146B8F1000F23D068B302
:1012B800002547E008F054FD514B3322514952486C
:1012C80008F098FD08F04CFDFEE708F049FD4C4B8E
:1012D80034224C494C4808F08DFD08F041FDFEE7EA
:1012E80008F03EFD464B35224649474808F082FD46
:1012F80008F036FDFEE708F033FD414B3C2241493A
:10130800414808F077FD08F02BFDFEE708F028FDBE
:101318003B4B3D223B493C4808F06CFD08F020FD62
:10132800FEE7CDF800A0394B88223649384808F046
:1013380061FD03E0314B186800F01AFD0A2028F01F
:101348000BF90135012D50DC324E56F835A0CDF899
:1013580004A00097304B314A80212848006865F086
:10136800E5FA06EBC5067368012BE3D13B462C4A28
:101378008021404665F0DAFA3B462A4A80214846F1
:1013880065F0D4FA14AE5346274A2021304665F05A
:10139800CDFA0DF1300B5346244A2021584665F00A
:1013A800C5FA0A97224B099308970797CDF818B002
:1013B8000596CDF810A0CDF80C90CDF80880CDF8A2
:1013C80004A0009753461B4A4FF48061204665F0FD
:1013D800ADFAB0F5806FA4D200902346074A126890
:1013E8000121002000F04AFCA8E740462AF036F91F
:1013F80048462AF033F91DB0BDE8F08F10060020EA
:10140800D4A60708FCAB07081CA7070800AE070806
:1014180034A90708504D090810AC070834A7070875
:1014280018AC070828AC070838AC070840AC070810
:1014380008A9070848AC0708012804D0022804D0E6
:1014480028B904487047044870470448704704485E
:10145800704700BF30AE070838AE070844AE07082B
:10146800EC80080870B590B0002843D00D460446BB
:1014780000294AD0334B1B68002B51D00BAE0023F8
:101488000B930C930D930E938DF83C302E4B9A785A
:10149800198801910092DB782C4A1121304665F0B9
:1014A80045FA00942A4B2B4A80212648006865F0AB
:1014B8003DFA08960794284B0693059404940394E0
:1014C8000294019400942346244A4FF480612846EC
:1014D80065F02CFAB0F5806F2DD200902B46194A92
:1014E80012680121002000F0C9FB0A2028F034F816
:1014F80010B070BD08F034FC194B2E2219491A4857
:1015080008F078FC08F02CFCFEE708F029FC144BE6
:101518002F221449144808F06DFC08F021FCFEE75E
:1015280008F01EFC0E4B30220E490F4808F062FCF2
:1015380008F016FCFEE70D4B72220A490C4808F029
:1015480059FCD2E710060020C4500908A8AE0708C5
:1015580080AE070888AE070808A90708B4AE0708D0
:10156800D4A607086CAE07081CA7070850B10708DF
:1015780034A9070870B5B6B006460C461D46134692
:10158800184A402106A865F0D1F93F2803D901245B
:10159800204636B070BD2846FFF74EFFC6F3074316
:1015A800B2B2210EC4F30745A4B205900494039582
:1015B800029101920093330E0B4A802116A865F020
:1015C800B5F97F2801D90124E2E7009016AB06AAF5
:1015D8000121084600F052FB04460A2027F0BCFF10
:1015E800D6E700BF74B1070880B1070870B5C6B068
:1015F80006460C461D461346164A402106A865F0C5
:1016080095F93F2803D90124204646B070BDC6F39A
:101618000743B2B2210EC4F30740A4B2059504945F
:101628000390029101920093330E0B4AC02116A831
:1016380065F07CF9BF2801D90124E5E7009016ABD5
:1016480006AA0121084600F019FB04460A2027F0E3
:1016580083FFD9E774B10708D0B1070881B370B523
:1016680088B00C46CD680DB10B690BB908B070BDD8
:1016780020220021684665F0FAFA24691F2C28BF49
:101688001F2422462946684665F0FDFC04F1200324
:101698000DEB0304002304F8203C0A496846FEF7D2
:1016A800E7FD0028E2D1084B4FF483720749084848
:1016B80008F0A0FB0221074B186825F0E9FDD5E7E3
:1016C800704700BF54B2070864B207086CAE070839
:1016D80080B207080C060020F0B585B006462A4BF4
:1016E80040F2131229492A4808F084FB4FF0FF35CD
:1016F80000240EE0274B4FF48E722449244808F04A
:1017080079FB002027F018FC0BE01C46C82027F0C6
:1017180023FF0021204B186825F08AFD10F00C0FDC
:10172800E8D11E4B18680028F0D00022039203A9C4
:1017380026F00CFA0128E9D12CB9039B03B92346FA
:10174800002BE2D01C46039BA342DFD8642703FB8F
:1017580007F7B7FBF4F7C7F16407BD42D6D001938A
:1017680000970F4B4FF49B720849094808F042FB59
:101778000C4B1968039B00933B4632460A480068A5
:10178800FFF734FF3D46C1E784B207086CAE07088F
:1017980080B20708A0B207080C0600206CA700203A
:1017A800BCB2070804060020C450090800293DD02F
:1017B80070B58AB00C46CD680DB10B690BB90AB08B
:1017C80070BD02AE20220021304665F050FA24692F
:1017D8001F2C28BF1F2422462946304665F053FC9B
:1017E80004F128030DEB0304002304F8203C1049FE
:1017F8003046FEF73DFD20B10E49304665F00FFB3F
:1018080058B10D4B23220D490D4808F0F3FA102169
:101818000C4B186825F03CFDD1E702AB00930A4B4E
:1018280028220649094808F0E5FAC8E7704700BFCA
:10183800E8B20708F0B20708FCB2070854B3070873
:1018480080B207080C06002068B307088CB30708A5
:1018580030B587B000282BD00C460546002932D079
:10186800274B1868002839D00095264B264A802136
:1018780065F05CF805950495244B03930295019552
:1018880000952B46224A4FF48061204665F04EF8B9
:10189800B0F5806F2DD200902346194A12680121B5
:1018A800002000F0EBF90A2027F056FE07B030BD03
:1018B80008F056FA174B2E221749184808F09AFADA
:1018C80008F04EFAFEE708F04BFA124B2F221249A5
:1018D800124808F08FFA08F043FAFEE708F040FAD9
:1018E8000C4B30220C490D4808F084FA08F038FAFD
:1018F800FEE70B4B5F2208490A4808F07BFAD2E75B
:101908001006002090B3070898B3070808A907082D
:10191800BCB30708D4A6070854B307081CA70708D0
:101928002CB5070834A907082DE9F0418AB038B169
:101938000F46054679B1394B1B68BBB1002446E018
:1019480008F00EFA364B61223649374808F052FA49
:1019580008F006FAFEE708F003FA314B6222314933
:10196800314808F047FA08F0FBF9FEE708F0F8F903
:101978002B4B63222B492C4808F03CFA08F0F0F96D
:10198800FEE7D8F80830D8F80C10099527480890D1
:10199800079506950591049303960295019600957F
:1019A800D8F80430224A4FF48061384664F0BEFF0C
:1019B800B0F5806F26D200903B46184A1268012184
:1019C800002000F05BF90A2027F0C6FD0134052C41
:1019D80020DC184A04EB840C02EB8C0852F82C60CB
:1019E80001960095144B154A80210C48006864F054
:1019F8009DFFD8F81030012BC3D0084B186800F0B1
:101A0800B7F9E0E700940E4B9B2206490D4808F011
:101A1800F1F9D8E70AB0BDE8F08100BF1006002050
:101A2800D4A6070868B507081CA7070808A9070867
:101A380088B50708284E090880B5070834A707089D
:101A480008B7070834A9070870B584B000B306467C
:101A58001B4B1B683BB30024082C2FDC194B04EBF1
:101A6800840203EB820153F82230CA68144D0292B3
:101A780001930096144B154A8021286864F056FF9C
:101A8800286800F075F90A2027F066FD0134E3E7BD
:101A980008F066F90E4BAF220E490F4808F0AAF974
:101AA80008F05EF9FEE708F05BF9094BB022094936
:101AB800094808F09FF908F053F9FEE704B070BD33
:101AC80010060020744D090880B5070828B70708D4
:101AD800D4A6070868B507081CA707082DE9F04130
:101AE8008AB090B10C460546D9B1374B1B68002B1C
:101AF80067D108F035F9354B4FF4977234493548BA
:101B080008F078F908F02CF9FEE708F029F92F4BCE
:101B18004FF496722E492F4808F06CF908F020F916
:101B2800FEE708F01DF9294B40F22D1228492948F3
:101B380008F060F908F014F9FEE7274B06EB860277
:101B480003EB820853F8227001970095234B244A2F
:101B580080211D48006864F0E9FED8F80830D8F8FC
:101B68000C2009951F49089107950695059204933D
:101B78000397029501970095D8F804301A4A4FF454
:101B88008061204664F0D2FEB0F5806F10D20090DC
:101B980023460D4A12680121002000F06FF80A2040
:101BA80027F0DAFC0136002EC7DD0AB0BDE8F08167
:101BB80000970E4B40F2691205490D4808F01AF9D2
:101BC800EDE70026EFE700BF10060020D4A60708BF
:101BD80068B507081CA70708604D090880B50708FD
:101BE80034A7070808A907084CB70708F4B8070876
:101BF80034A9070868B1006858B151B110B582B06E
:101C08000024009403230A78214628F04DFB02B0F3
:101C180010BD7047014B1860704700BF08060020D0
:101C280008B514F061FC124BA3FB00239B0D114A6D
:101C380002FB1303104A1A44002A16DDD30E510181
:101C4800891A63F100039B0043EA9173890089189C
:101C580043F100034FEAC30C4FF47A720023C80023
:101C68004CEA5171FEF7FAFF08BD0122E6E700BF12
:101C7800B17C219500DD6D00806DEF042DE9F04306
:101C88008FB0002A31D0074688461D461646334B8A
:101C98001B68002B34D0002409940A940B940C94EC
:101CA8000D940DF11C090794089404940594069466
:101CB8002146204628F04CFD8DF824708DF82580AB
:101CC8000A963046FEF7DEFAADF82C000C95169B06
:101CD8000D9328F0A9F807904FF4FA730693204B58
:101CE8000493CDF8149001251CE008F039F81D4B39
:101CF80058221D491D4808F07DF808F031F8FEE724
:101D080008F02EF8174B59221749184808F072F8AE
:101D180008F026F8FEE7039BE3B10325FA2027F035
:101D28001BFC0134042C15D804AA09A90B4B18680C
:101D380056F04CFC05460028F0D1039041F2883358
:101D4800009303AB0246014628F034FA0128E2D09A
:101D58000325E3E728460FB0BDE8F0830806002016
:101D6800FD1B0108D4A60708A8BA07081CA707087E
:101D780000B583B040B1024600200090034601211F
:101D8800FFF77CFF03B000BD07F0EAFF044B962283
:101D98000449054808F02EF807F0E2FFFEE700BF07
:101DA800D4A60708A8BA07081CA707082DE9F04118
:101DB80084B020B30C4616461D46074651B3002B87
:101DC80033D03A4B1B68002B3AD0802029F060FBB7
:101DD800804600283FD000943B46354A802164F075
:101DE800A5FD7F2842D800220092334641462F485D
:101DF800006804F0D9FA00284CD1012440E007F02B
:101E0800AFFF2C4BA7222C492C4807F0F3FF07F013
:101E1800A7FFFEE707F0A4FF264BA822264927487C
:101E280007F0E8FF07F09CFFFEE707F099FF214B5A
:101E3800A9222149214807F0DDFF07F091FFFEE7BD
:101E480007F08EFF1B4BAA221B491C4807F0D2FF44
:101E580007F086FFFEE707F083FF164BAD22164911
:101E6800164807F0C7FF07F07BFFFEE702940197CB
:101E78000095134BB7221049124807F0BBFF002406
:101E88000A2027F069FB404629F0E8FB204604B009
:101E9800BDE8F081CDF8048000950B4BC8220649B7
:101EA800084807F0A7FF0024EAE700BF080600205B
:101EB800B8BA0708D4A60708A8BA07081CA70708CD
:101EC800C0BA070834A90708F0BA070810B582B0E5
:101ED80090B10446D9B11D4A106818B30022009287
:101EE8000B46214604F060FA38BB01240A2027F08B
:101EF80033FB204602B010BD07F032FF144BDC2242
:101F08001449154807F076FF07F02AFFFEE707F0A7
:101F180027FF0F4BDD220F490F4807F06BFF07F033
:101F28001FFFFEE707F01CFF094BDE2209490A489C
:101F380007F060FF07F014FFFEE70094074BE82264
:101F48000449074807F056FF0024CFE70806002099
:101F5800D4A60708A8BA07081CA7070814BB0708CF
:101F680034A9070830B583B048B30C461546034674
:101F780081B3002A39D02C4A1068002840D02B4A57
:101F8800802164F0D3FC40F2FF322946204664F0F9
:101F9800CDFE002384F8FF332046FEF773F9B0F531
:101FA800806F38D2009023461F4A12680121002012
:101FB800FFF764FE0A2027F0CFFA03B030BD07F020
:101FC800CFFE1B4BF8221B491B4807F013FF07F0F5
:101FD800C7FEFEE707F0C4FE154BF922154916485F
:101FE80007F008FF07F0BCFEFEE707F0B9FE104B4C
:101FF800FA221049104807F0FDFE07F0B1FEFEE78F
:1020080007F0AEFE0A4BFB220A490B4807F0F2FE26
:1020180007F0A6FEFEE7094B4FF489720549084808
:1020280007F0E8FEC6E700BF1006002038BB070827
:10203800D4A60708A8BA07081CA7070850BB0708B2
:1020480034A9070861B30B46C96849B370B584B0B1
:102058001C690CB904B070BD002600960196029662
:1020680003960F2C28BF0F242246684665F00BF80C
:1020780004F110030DEB030202F8106C09496846DD
:10208800FEF7F6F80028E5D1074B4C220749084827
:1020980007F0B0FE2021074B186825F0F9F8D9E7BA
:1020A800704700BF78BB070880BB0708D8BB070884
:1020B80080B207080C06002038B5B8B30C460546B0
:1020C80000293ED0FFF7CEF921462846FFF7DAF877
:1020D80021462846FEF796FF21462846FFF724FCAE
:1020E8002846FFF7B1FC21462846FFF7F7FC2146B2
:1020F8002846FFF701F821462846FFF7A9FB4FF4C9
:102108007A7027F029FA144B186802232A460146E8
:10211800FFF730FA114A21462846FFF723FF104BF4
:102128009A221049104807F065FE38BD07F018FEDE
:102138000E4B5C220B490E4807F05CFE07F010FEC0
:10214800FEE707F00DFE094B5D220649084807F037
:1021580051FE07F005FEFEE7C450090878BB0708E2
:10216800E4BB0708D8BB070880B20708D4A607084D
:102178001CA707082DE9F04184B00023039303F05E
:102188002FFE03F027FE00283DD0044603F0EAFDA9
:102198002046FFF73FFD03A900200AF06BFB054628
:1021A80000283BD04FF4806029F072F9804600285F
:1021B8003FD0802029F06CF9854B1860002843D067
:1021C8000095844BBF228449844807F013FE24F00D
:1021D80090FF834B1860002841D0824B824A834984
:1021E8002846FFF7E3FD824B824A83492846FFF7DA
:1021F800DDFD82498248FFF769FE41462846FFF720
:102208005BFF0026B3E007F0ABFD7E4BAE227249C0
:102218007D4807F0EFFD07F0A3FDFEE707F0A0FDFE
:10222800784BB7226C49784807F0E4FD07F098FD31
:10223800FEE707F095FD734BBA226749724807F02D
:10224800D9FD07F08DFDFEE707F08AFD6D4BBD2235
:1022580061496D4807F0CEFD07F082FDFEE707F003
:102268007FFD684BC2225C49674807F0C3FD07F051
:1022780077FDFEE7654BEE225749584807F0BAFD4F
:10228800634B196800232A4662480068FFF772F911
:102298007DE0614BF4225049504807F0ABFD5C4BA0
:1022A800196801232A465B480068FFF763F9002391
:1022B8000193022300932B464FF4806257495848F4
:1022C80026F028FE012666E0434F444E554B4FF456
:1022D80082723946304607F08DFD534B40F20512A5
:1022E8003946304607F086FD0EF07CFC002655E0A6
:1022F8004E4B40F20D123849384807F07BFD4146F5
:102308002846FFF7D9FE00264BE0494B40F21D1244
:102318003149324807F06EFD464A41462846FFF7E4
:1023280021FE4FF47A7027F017F90EF05BFC14F0D9
:10233800200700D1DCB9002E40D114F0D5F83E4B6F
:10234800A3FB0023DB0B3D4A02FB130027F004F933
:10235800002F3BD03A4B00933A4B40F22F121E49C4
:102368001E4807F047FD41462846FFF7A5FE1C4BCF
:102378001C68FFF755FC0090002301223F212046EE
:1023880024F0C6FE044610F0010F7FF473AF14F07A
:10239800020F7FF47EAF14F0040F95D114F0080FEC
:1023A800A6D114F0100FC2D0002EAED0264B40F2AA
:1023B80019120949094807F01DFDD8E7234B4FF4C6
:1023C80094720549054807F015FDD0E7204BC2E790
:1023D8001006002028BC0708D8BB070880B20708E9
:1023E8000C0600206CBC07086516010878BC0708B5
:1023F80084BC0708B517010894BC07084D200108DC
:10240800A0BC0708D4A607081CA70708B8BC07087B
:1024180004060020C4500908D0BC0708ECBC070813
:10242800E1160108FCBC070814BD070840BD0708F1
:1024380088BD070898BD070873B2E745C0D40100F6
:1024480010BC0708D0BD07085CBD0708A0BD070879
:102458001CBC07080120704730B585B0F8B10446A8
:102468001C4B03611C4B43614068223080B22083BF
:10247800013029F00DF8E060F8B10DF10E03019379
:1024880003230093A388A268218B4DF05BFD0546CA
:10249800228BBDF80E309A420CD000250EE007F0D2
:1024A8005FFC0E4BFE220E490E4807F0A3FC07F016
:1024B80057FCFEE7012801D106E00025E06818B1C5
:1024C80029F0CCF80023E360012D14BF002001207F
:1024D80005B030BD30BE070860BE0708D4A607089F
:1024E8001FBE07081CA7070870B582B004460090F5
:1024F8001C4B01220169006A03F056FFD0B9009411
:10250800194B01226169206A03F04EFF054618B392
:10251800164E174B4FF4A0723146164807F06AFC66
:1025280063690093144B4FF4A2723146134807F0C5
:1025380061FC11E005460D4E0D4B4FF49972314682
:102548000C4807F057FC236900930B4B4FF49B7220
:1025580031460A4807F04EFCB5FA85F0400902B04A
:1025680070BD00BFB9250108892501081FBE0708ED
:1025780090BE07081CA7070814BB070834A907085A
:10258800C269A2B110B582B004460B460969D86881
:10259800FFF760FF48B102220023009303230121C3
:1025A800206827F081FE02B010BD0322F4E77047CF
:1025B800C269A2B110B582B004460B460969D86851
:1025C800FFF748FF48B101220023009303230121AC
:1025D800206827F069FE02B010BD0322F4E77047B7
:1025E80030B583B00C46054638B16CB11DB114B195
:1025F800EB69012B0FD003B030BD0B4BDD220B492B
:102608000B4807F0F7FBF0E7074BDE2207490848BD
:1026180007F0F0FBEAE70023009303232278022166
:10262800286827F041FEE6E790BE07081FBE0708A6
:102638001CA7070838B505460C460846FDF722FED4
:1026480002462146284623F0FCFF38BD30B585B048
:10265800002835D004463949FFF7ECFF0546002825
:102668003AD14FF0FF326946204623F0F6FF05467F
:1026780000283BD1684600F0B9FC054600283DD14A
:10268800684600F071FD054600283FD1684600F015
:1026980023FE0546002841D1684600F0D5FE0546D0
:1026A800002843D16946204623F0E5FF0546D0B10E
:1026B800234B4FF4F5722349234807F09BFB12E0A4
:1026C80007F04EFB214B4FF4E2721E491E4807F0FB
:1026D80091FB07F045FBFEE7194B40F2C712194979
:1026E800194807F087FB284605B030BD144B4FF456
:1026F800E6721449144807F07DFBF4E7104B4FF4D9
:10270800E9721049104807F075FBECE70C4B4FF4E1
:10271800EC720C490C4807F06DFBE4E7084B4FF4EA
:10272800EF720849084807F065FBDCE7044B4FF4F3
:10273800F2720449044807F05DFBD4E7ACBE070811
:1027480090BE07081FBE07081CA70708D4A60708DD
:1027580070B586B0154603AA0023039353609360AF
:1027680002931A4B01241C70C6685E60B0F818C04A
:10277800A3F808C0D9601D6142F21071059114498F
:1027880003910490C4611946006A55F01FFF029036
:1027980028B10298B0FA80F0400906B070BD08234D
:1027A800029347F23053009302AB4FF0FF320021FF
:1027B800022027F0FFFC0028EBD1064B40F21A223A
:1027C8000549064807F016FBE3E700BF140600209A
:1027D800E9250108B0BE07081FBE070834A9070885
:1027E80010B5044603460F4A0169006A03F01EFF4C
:1027F80038B923460C4A6169206A03F017FF40B9CB
:1028080010BD0A4B4FF4AA7209490A4807F0F2FAB8
:10281800EFE7064B4FF4AE720549064807F0EAFAAF
:10282800EEE700BFB92501088925010890BE070811
:102838001FBE07081CA7070810B50446806808B122
:1028480028F00CFFE06808B128F008FF24220021D6
:10285800204664F00CFA10BD70B5ADF58C6D2422DD
:1028680000210DF23C4064F002FA0024A84B1C60E1
:102878004FF4806221460FA864F0F9F90DF58861DC
:10288800204609F0F7FFCDF84404CDF8584427F066
:10289800CBFACDF83C04DDF84434F3B1DDF840342C
:1028A800EBB14FF6FE72934201D9002418E00DF205
:1028B8003C40FFF7D1FD044690B9964D964B40F247
:1028C8004D222946954807F095FA954B40F2552236
:1028D8002946944807F08EFA02E0002400E000241C
:1028E80003F07EFA03F076FACDF85C041CB9884B45
:1028F80001221A605BE00DF23C40FFF7F5FD04464B
:1029080048B1894B40F267228249884807F072FA39
:10291800002C4CD1EBE77F4D7F4B40F263222946D8
:102928007E4807F067FA824B40F26B2229467D48C1
:1029380007F060FAECE7784B4FF421727549774855
:1029480007F058FA7B4B40F2BD227249754807F0F0
:1029580051FA94B9039C0FAD641B774B40F2C62221
:102968006C49724807F046FA224629460DF23C4067
:10297800FFF7EEFE002800F0C38047F230530093C3
:1029880002AB4FF0FF320021012027F013FC012891
:1029980000F0E4800023CDF85834684B40F2E92277
:1029A8005C49604807F026FA654826F0D5FD584B83
:1029B8001B68002B40F0EC8026F030FC0646002512
:1029C800029503AC2B464FF480620FA9204623F0F2
:1029D80016FE4FF0FF3207A9204623F03EFE0446BC
:1029E8000028A8D1574907A8FFF724FE0446002865
:1029F80046D102220BA907A823F02FFE044600287F
:102A080046D151490BA8FFF715FE0446002847D1C7
:102A180032462B460BA823F0F9FD044348D14B4915
:102A28000BA8FFF707FE00284AD149490BA8FFF772
:102A380001FE044600284BD10BA907A823F01BFE72
:102A4800044600284CD1434B4FF42C723149374887
:102A580007F0D0F907A8FFF7F9FD0446002847D189
:102A680007A903A823F007FE044600283FF472AF25
:102A7800294B4FF42E722749284807F0BBF961E724
:102A8800254B40F289222349244807F0B3F959E736
:102A9800214B4FF424721F49204807F0ABF951E746
:102AA8001D4B40F297221B491C4807F0A3F9AFE7DA
:102AB800194B40F29A221749184807F09BF941E749
:102AC800154B40F2A1221349144807F093F9ACE7DB
:102AD800114B4FF429720F49104807F08BF931E771
:102AE8000D4B40F2AA220B490C4807F083F929E75D
:102AF800094B40F2B2220749084807F07BF921E761
:102B0800154B4FF433720349064807F073F934E75D
:102B1800280600201FBE070890BE07081CA7070844
:102B2800CCBE070834A90708F0BE070880B207081A
:102B380024BF070880BF0708A4BF07082CC00708E0
:102B4800E09304004CD9080854BF070858BF070889
:102B58005CBF070860BF0708C8BF07089DF80830B2
:102B68000022CDF85824012B0AD0022B7FF415AF90
:102B7800124B40F2E3221249124807F03BF913E7DF
:102B8800114B40F2DF220E49104807F033F90BE7EA
:102B98000F4B40F2F1220A490E4807F02BF90DF2CB
:102BA8003C442046FFF71CFE2046FFF745FE002068
:102BB80026F0C2F90DF58C6D70BD00BF10C0070876
:102BC8001FBE070834A90708F4BF070880B2070822
:102BD80054C0070860C00708054B1B68002000E0C8
:102BE800DB6823B11A7D012AFAD10130F8E7704772
:102BF80060D40620044B1B68002001E00130DB682C
:102C0800002BFBD1704700BFB0D40620044B1B68D3
:102C1800002001E00130DB68002BFBD1704700BFCA
:102C28005CD4062038B505460C460846FDF72AFB55
:102C380002462146284623F004FD38BD70B50546F6
:102C48001646FFF7EFFF044631462846FFF7EAFF2E
:102C5800204370BDF8B5054617461E46FFF7E2FF4C
:102C680004463A463346284623F0D0FC2043F8BDB4
:102C780008B560B9074B1B6823B193F83C005AF0BC
:102C880079FB08BD044B186808600846F9E75AF054
:102C980071FBF6E77CD2062064C00708F0B587B060
:102CA80020B10646304B1C68002511E007F058F8A3
:102CB8002E4BDB222E492F4807F09CF807F050F8DE
:102CC800FEE72D4BE8222A492A4807F093F8E468E2
:102CD800002C45D0694600230093ADF80430207AD3
:102CE800FFF7C6FF074628B3022202A9304623F0A1
:102CF800B4FC05460028E4D13A46204902A8FFF76B
:102D08009DFF054668B9E28A00231D4902A8FFF71E
:102D1800A1FF0546E8B902A9304623F0ACFC0546F8
:102D2800D5E7154BED221249124807F063F8002D3C
:102D3800CDD1E8E7012202A9304623F08EFC0546F2
:102D48000028E0D00C4BF32209490A4807F052F852
:102D5800EDE7094BF9220649064807F04BF8B6E7B4
:102D6800284607B0F0BD00BF60D40620D4A60708E7
:102D780083C007081CA7070890BE0708084409086D
:102D88009CC00708F0B587B020B10646324B1C68D6
:102D9800002513E006F0E4FF304B40F26B12304997
:102DA800304807F027F806F0DBFFFEE72E4B4FF41C
:102DB800BC722B492B4807F01DF8E468002C48D05A
:102DC800694600230093ADF80430207AFFF750FFDE
:102DD800074630B3022202A9304623F03EFC0546DE
:102DE8000028E3D13A46214902A8FFF727FF054604
:102DF80068B9628A00231E4902A8FFF72BFF05461F
:102E0800F8B902A9304623F036FC0546D5E7164B3B
:102E180040F27D121249134806F0ECFF002DCCD188
:102E2800E7E7012202A9304623F017FC05460028EF
:102E3800DFD00D4B40F2831209490A4806F0DAFF49
:102E4800ECE7094B40F289120549064806F0D2FF23
:102E5800B3E7284607B0F0BDB0D40620D4A60708CB
:102E680083C007081CA7070890BE0708084409087C
:102E78009CC00708F8B505460C4610461F460A468A
:102E8800294661F021FE68B12146284663F061FFBA
:102E980006463B46094A211A281863F047FD304484
:102EA800844208D2064B40F20A220649064806F038
:102EB800A1FF0020F8BD0120FCE700BFA0C0070863
:102EC80090BE070883C007081CA7070870B58EB016
:102ED80020B106463D4B1C6800251BE006F040FF6C
:102EE8003B4B40F212223B493B4806F083FF06F079
:102EF80037FFFEE7394B4FF407723649364806F07C
:102F080079FF6946207AFFF7B3FE024600283BD0D6
:102F180065B3E468002C56D01D22002106A863F092
:102F2800A6FE00230093ADF80430032202A9304620
:102F380023F093FB05460028DCD1238B221D1D219D
:102F480006A8FFF797FF08B90125DAE706AA24497A
:102F580002A8FFF773FE05460028D2D01F4B4FF496
:102F680009721C491C4806F045FFCAE71D4902A81A
:102F7800FFF764FE054680B1184B4FF40D721549F2
:102F8800154806F037FFC4E7144B40F23A221149BE
:102F9800114806F02FFF0125BBE7E28A00231249FA
:102FA80002A8FFF757FE054628B902A9304623F0C4
:102FB80062FB0546ADE7094B40F241220549064848
:102FC80006F018FFA5E728460EB070BD5CD40620B1
:102FD800D4A6070883C007081CA7070890BE0708DF
:102FE800A8C00708ACC00708B0C007082DE9F04F13
:102FF80089B00390A0B15049039C2046FFF712FE08
:103008000290C0B9042204A9204623F026FB0290AE
:10301800B8B14A4B78224A494A4806F0EBFE10E01C
:103028000090494B64224649484806F0E3FE40F2C6
:103038000723029337E0414B73224149414806F088
:10304800D9FE434862F038FB424B1B6800242646F1
:1030580025462746A046A246A146A3461CE09A6CF0
:1030680012EB090291464BF1000B1A6E12EB0802A3
:1030780090464AF1000A1A6D521947F10007DD6CB3
:10308800AD1847F100075A6E121946F100069C6EFA
:10309800A41846F100061B68002BE0D12C4862F00A
:1030A80015FB029B1BB1029809B0BDE8F08F2A46B8
:1030B8003B46294904A8FFF7CDFD029D05431FD1D2
:1030C80022463346254904A8FFF7C4FD28431ED1EC
:1030D8004A465B46224904A8FFF7BCFD0446E8B906
:1030E800424653461F4904A8FFF7B4FD54EA0003BB
:1030F80002931AD104A9039823F0BDFA0290D2E7EB
:103108000E4B92220E490F4806F074FED8E70B4B7F
:1031180095220B490B4806F06DFED9E7074B98221C
:103128000749084806F066FEDAE7044B9B22044983
:10313800044806F05FFEB6E7D8C0070890BE070847
:1031480083C007081CA70708B4C0070834A90708E4
:10315800DC6E052080D20620DCC00708E0C0070826
:10316800B4ED0708E4C0070870B58AB00646D8B1C0
:10317800504862F0A1FAFFF72FFD05464E49304648
:10318800FFF750FD0446D0B90DBB012202A9304615
:1031980023F063FA044608B3484B40F22712484923
:1031A800484806F027FE31E00090474B4FF48772FD
:1031B8004349464806F01EFE40F207241CE03F4BF8
:1031C8004FF48D723E493F4806F014FE0EE002228D
:1031D80002A9304623F041FA044680B92A46002362
:1031E8003B4902A8FFF736FD044690B9002D38D0B8
:1031F800BCB1304862F06AFA20460AB070BD2F4B65
:103208004FF491722E492F4806F0F4FD002CEDD1B1
:10321800E4E72A4B40F22F1229492A4806F0EAFD32
:10322800E4E72C4902A8FFF7FDFC044650BB2A46F8
:1032380006A902A823F00CFA044658BB06A8FFF713
:103248002DFD044600282DD106A902A823F013FA63
:10325800044640B1194B4FF4A5721949194806F0B4
:10326800C9FD002CC5D102A9304623F004FA044652
:103278000028BED0114B40F251121149114806F0F6
:10328800B9FDB6E70D4B4FF49C720D490D4806F099
:10329800B1FDAEE7094B4FF49F720949094806F0A2
:1032A800A9FDA6E7054B4FF4A2720549054806F0AB
:1032B800A1FD9EE7DC6E052010C1070890BE070837
:1032C80083C007081CA70708E8C0070834A907082F
:1032D8001C58080814C1070870B58AB00646D8B14A
:1032E800504862F0E9F9FFF785FC05464E4930463B
:1032F800FFF798FC0446D0B90DBB012202A930465D
:1033080023F0ABF9044608B3484B40F2B7124849DA
:10331800484806F06FFD31E00090474B4FF4CF72FC
:103328004349464806F066FD40F207241CE03F4B3F
:103338004FF4D5723E493F4806F05CFD0EE002228C
:1033480002A9304623F089F9044680B92A460023A9
:103358003B4902A8FFF77EFC044690B9002D38D0FF
:10336800BCB1304862F0B2F920460AB070BD2F4BAC
:103378004FF4D9722E492F4806F03CFD002CEDD1B0
:10338800E4E72A4B40F2BF1229492A4806F032FDE9
:10339800E4E72C4902A8FFF745FC044650BB2A463F
:1033A80006A902A823F054F9044658BB06A8FFF75B
:1033B800E9FC044600282DD106A902A823F05BF9F0
:1033C800044640B1194B4FF4ED721949194806F0FB
:1033D80011FD002CC5D102A9304623F04CF9044652
:1033E8000028BED0114B40F2E1121149114806F0F5
:1033F80001FDB6E70D4B4FF4E4720D490D4806F098
:10340800F9FCAEE7094B4FF4E7720949094806F0A1
:10341800F1FCA6E7054B4FF4EA720549054806F0AA
:10342800E9FC9EE7DC6E052018C1070890BE070876
:1034380083C007081CA70708E8C0070834A90708BD
:103448001C58080814C1070870B58EB0064660B34A
:10345800694862F031F9FFF7D9FB054667493046FC
:10346800FFF7E0FB044658BB012202A9304623F0CF
:10347800F4F80446002834D1614902A8FFF7D2FBCA
:103488000446002835D1002D3BD1012206A902A807
:1034980023F0E3F8044600283AD05A4B4FF41F7241
:1034A80059495A4806F0A6FC4AE00090584B40F2A9
:1034B80055225549574806F09DFC40F207240DE077
:1034C800504B40F262225049504806F093FC002DC0
:1034D8005BD0002C37D0484862F0F8F820460EB090
:1034E80070BD484B4FF41A724749484806F082FCB1
:1034F800EDE7444B40F26E224349444806F07AFC1B
:10350800E5E7022206A902A823F0A7F8044680B935
:103518002A460023404906A8FFF79CFB04460028DA
:10352800D5D0384B4FF421723749384806F062FC41
:10353800CDE7344B40F277223349344806F05AFC41
:10354800002CC4D1E4E7354906A8FFF76BFB044615
:10355800002831D12A460AA906A823F079F804469A
:10356800002831D10AA8FFF7B1FC0446002833D15E
:103578000AA906A823F07FF8044640B1214B40F27F
:103588009F222149214806F035FC002CA3D106A929
:1035980002A823F070F8044630BB02A9304623F095
:1035A8006AF80446002896D0164B4FF42B72164939
:1035B800164806F01FFC8EE7124B40F28D22124986
:1035C800124806F017FC86E70E4B40F293220E498C
:1035D8000E4806F00FFC7EE70A4B40F299220A4992
:1035E8000A4806F007FC76E7064B40F2A622064991
:1035F800064806F0FFFB6EE7DC6E05201CC10708D5
:1036080020C1070890BE070883C007081CA7070841
:10361800E8C0070834A907081C58080824C1070887
:1036280030B54FF0000E4FF00C0C09E010F80C30DC
:103638002F2B13D0002010E00EF1010E0CF1010C1D
:103648008C4509D29E45F1D012F80E5010F80C4066
:10365800A542F1D0002000E0002030BD0120FCE7A9
:103668000B4B03604FF482728280991881608281CB
:1036780003F5027202618022828203F52271816160
:103688004FF40061C16103F68823036282847047A6
:103698003406002008B54DF03FFC022806D007DBB1
:1036A8000438C0B2032805D9002002E0012000E058
:1036B800002008BD0120FCE708B54DF09DFB002067
:1036C80025F03AFC08BD000008B5002828D01A4AA1
:1036D80002601A4A42601A4A82601A4AC2601A4A4A
:1036E80042611A4A82611A4AC2611A4A02621A4A35
:1036F80042621A4A82621A4A02631A4AC2621A4A21
:10370800C2651A4A82651A4AC2641A4A02651A4A86
:1037180082641A4A42651A4A02641A4A426408BD17
:1037280006F01EFB184B40F2C3421849184806F031
:1037380061FB06F015FBFEE7113506085D35060846
:103748009D350608F93506080D360608413706087E
:10375800AD3706081D38060825380608B93C0108A3
:10376800693D01080D3C01086D6F020819720208D5
:103778005D6E0208A9700208AD730208F96F0208AD
:10378800A1740208F96C0208D4A607083EC107080C
:103798001CA7070838B598B10C46054600F5005334
:1037A8004FF0FF31D3F80C0A24F07EFA012813D029
:1037B8000F4B40F2F1120F490F4806F01BFB38BDC2
:1037C80006F0CEFA0D4B4FF4F4720A490C4806F095
:1037D80011FB06F0C5FAFEE7002184F8001E05F586
:1037E80000550B460A46D5F80C0A23F0C7FFE6E752
:1037F80050C107083EC1070834A90708D4A607081E
:103808001CA7070810B582B007285CD8DFE800F0CD
:1038180004161E3A4B5B5B53304C314B40F2DE22B0
:103828002146304806F0E6FA4EF0E4FC2E4B40F212
:10383800EB2221462D4806F0DDFA4CE02C4B40F2F5
:10384800F3222649274806F0D5FA44E0294B40F2EE
:10385800FF222249234806F0CDFA02204EF0FCFA56
:1038680038B9254B40F226321C491E4806F0C2FAE8
:1038780031E00090214B40F22A3218491B4806F0EB
:10388800B9FA28E019B11E48FFF784FF23E006F0D3
:1038980067FA1C4B40F2323210491B4806F0AAFA6C
:1038A80006F05EFAFEE7194B4FF44F720B490F48CA
:1038B80006F0A0FA0FE0164B4FF45072074909487A
:1038C80006F098FA07E00090124B4FF45172034942
:1038D800114806F08FFA02B010BD00BF3EC10708BC
:1038E80070C1070880B20708A8C1070834A90708EB
:1038F800C8C1070804C207083CC2070870C2070805
:103908003C110020D4A607081CA70708A8C207086E
:10391800E8C20708FCC207088CB3070838B5B0B17D
:10392800054600F500534FF0FF31D3F80C0A24F098
:10393800BBF901282BD10023022B1CD840F60462C6
:1039480002FB035292F8002E6AB10133F4E706F045
:1039580007FA134B4FF4FE721249134806F04AFA5D
:1039680006F0FEF9FEE740F6046202FB0354012369
:1039780084F8003E00E0002405F5005500231A46AF
:103988001946D5F80C0A23F0F9FE204638BD074B36
:1039980040F20E220349064806F02CFA0024F4E708
:1039A800D4A607083EC107081CA7070850C1070886
:1039B80034A90708F0B585B00023029303930029C2
:1039C80032D00C46344B1D68002D39D04F680E8913
:1039D8002846FCF757FC03462A4631463846FFF787
:1039E8001FFE01284CD1236940F6FA5293423BD876
:1039F80000932A4B40F2993229492A4806F0FAF9ED
:103A08002948FFF78BFF054630B32269E16863F068
:103A18003AFB2369C5F8FC3D03238DF80C30029569
:103A280002A84DF095FC34E006F09AF91F4B40F2DD
:103A38008D321B491E4806F0DDF906F091F9FEE7C4
:103A480006F08EF9194B40F28E321549184806F0E7
:103A5800D1F906F085F9FEE7164B4FF46A72104962
:103A6800154806F0C7F914E040F6FA52019200939F
:103A7800124B40F2AD320A490F4806F0BBF908E094
:103A8800019700960E4B40F2B23205490D4806F0F8
:103A9800B1F905B0F0BD00BF300600203CC30708EF
:103AA8003EC1070880B207083C110020D4A60708C9
:103AB8001CA7070864C3070834A907088CC30708AC
:103AC800E4C307088CB3070870B584B000230293D9
:103AD800039329B30C464E680D89274B1B68274A68
:103AE800126829463046FFF79BFD012838D1236923
:103AF80040F6FA52934227D82148FFF70FFF0546B0
:103B0800D0B12269E16863F0BEFA2369C5F8FC3DCB
:103B180006238DF80C30029502A84DF019FC28E018
:103B280006F01EF9174B40F255321749174806F0B0
:103B380061F906F015F9FEE7154B40F271321249AA
:103B4800144806F057F914E040F6FA52019200932F
:103B5800114B40F276320C490E4806F04BF908E05A
:103B6800019600950D4B40F27D3207490C4806F04E
:103B780041F904B070BD00BF2C06002030060020BB
:103B88003C110020D4A607083EC107081CA7070857
:103B980064C3070834A907083CC4070888C4070891
:103BA8008CB3070870B584B0054600238DF80F3034
:103BB8008CB20DF10F03009314230E4A214651F0E5
:103BC800E1FF9DF80F3023B9002623B1304604B039
:103BD80070BD094EF9E70DF10F0300931723074A4B
:103BE8002146284651F0CEFF9DF80F30002BEDD02E
:103BF800034EEBE7E0C40708BD390108F8C407081D
:103C0800D13A010870B584B070B10C460546B9B90F
:103C180006F0A6F81F4B40F297421F491F4806F0CE
:103C2800E9F806F09DF8FEE706F09AF8194B40F21D
:103C380096421949194806F0DDF806F091F8FEE7B2
:103C4800FFF7B0FF064602F0C5F8F8B106B3002347
:103C58003246294602F0EAFC064658B90195009416
:103C68000F4B40F2B4420C490E4806F0C3F83046F8
:103C780004B070BD0290019500940B4B40F2AB422A
:103C880005490A4806F0B6F8A226F0E7A226EEE7AC
:103C9800A226ECE7D4A607083EC107081CA7070818
:103CA80048C5070880B2070810C5070834A90708DF
:103CB800F0B583B078B10C4615460646B9B906F09A
:103CC8004FF8204B40F21B421F49204806F092F85B
:103CD80006F046F8FEE706F043F81A4B40F21A429F
:103CE80019491A4806F086F806F03AF8FEE7FFF791
:103CF80059FF074602F06EF8F8B107B300230093A6
:103D08003B462A46314602F04FFB054658B9019614
:103D180000940F4B40F237420B490E4806F06AF800
:103D2800284603B0F0BD00900B4B4FF4866206495D
:103D38000A4806F05FF8A125F2E7A125F0E7A125DA
:103D4800EEE700BFD4A607083EC107081CA707086E
:103D580098C5070880B2070868C5070834A9070886
:103D680070B58CB005460C46002007900890099065
:103D78000A900B9004900590069003900290089585
:103D8800ADF824109DF840108DF81C100A920B9382
:103D9800014626F0DDFC26F047F8029042F2107347
:103DA80006931B4B049302AB059302F013F860B320
:103DB80004AA07A954F00AFC064660B942F2107337
:103DC800009303AB4FF0FF320021084626F0F2F9CA
:103DD80001280CD0032600960E4B40F27D420E4976
:103DE8000E4806F007F8A02630460CB070BD9DF8C6
:103DF8000C60002EEFD101950094094B40F28242ED
:103E08000549084805F0F6FFEEE7A026ECE700BFF5
:103E1800313E0108B4C507083EC1070834A90708A0
:103E2800F0C5070880B2070800B583B058B10A4644
:103E38000068A0B1F9B1002100910323127826F09F
:103E480033FA03B000BD05F08BFF114B40F2074277
:103E58001049114805F0CEFF05F082FFFEE705F096
:103E68007FFF0B4B4FF481620A490B4805F0C2FFF4
:103E780005F076FFFEE705F073FF054B40F20942B7
:103E88000449054805F0B6FF05F06AFFFEE700BFE4
:103E9800D4A607083EC107081CA7070810B578B1C3
:103EA800044642F60C22002162F0E1FE012023F0D4
:103EB80031FD04F50054C4F80C0A00B1012010BD0E
:103EC80005F04EFF044B40F2D5120449044805F0B2
:103ED80091FF05F045FFFEE7D4A607083EC1070895
:103EE8001CA7070830B5B3B00024309431940AAD4C
:103EF80038222146284662F0BAFE18A8FFF7E4FBEC
:103F08002846FFF7ADFB7C4BDA7899781B8802933B
:103F180001910092794B4FF4A6627949794805F0EE
:103F280069FF7949204608F0A5FC784B186010B164
:103F3800754B1B6813BB764B40F24F52704975485E
:103F480005F058FF00231C46002B40D10125724B79
:103F580040F2CA526A496B4805F04CFF002D00F048
:103F6800BA806A4B186820B127F078FB674B0022AB
:103F78001A60002024F0E0FF33B030BD674B40F2F8
:103F880056525F495F4805F035FF654B00930123A2
:103F9800002220216348006823F0BAF810F0200FAF
:103FA8000BD0614B4FF4AC625549564805F022FFDF
:103FB80001F010FF04460123C6E75C4B40F266524D
:103FC8004F49504805F016FF01230024BCE784B18F
:103FD80000220092564B5749204602F0E5F9054663
:103FE80040B1554B40F2755245494A4805F002FF29
:103FF800ADE7012544B1002200924D4B4F492046C0
:1040080002F0D2F90546A8B94D48FFF747FF012845
:104018009DD14C4B3D4A126818A90AA84CF00EFFD6
:1040280080B10090484B40F297523549394805F025
:10403800E1FE8CE7454B40F285523149354805F0A1
:10404800D9FE84E700230193032200924FF48052A3
:104058003F49404824F05EFF012808D000903E4BBD
:1040680040F2A65226492B4805F0C4FE6FE700230C
:104078008DF8C43030A84DF06BF908E047F23050A5
:1040880025F06AFA4CF048FF0A283FF460AF002395
:104098000693079308930993FFF7FCFA0128EDD1DB
:1040A80006A84CF03FFF0028E8D14CF035FF099BEB
:1040B8000493089B0393079B0293069B0193274B4A
:1040C80053F820300093264B40F2BD520C490D485E
:1040D80005F090FED2E70023154A1649204602F063
:1040E800A5FA00283FF43DAF1E4B40F2D5520449D3
:1040F800084805F07FFE34E7C450090820C60708C1
:104108003EC1070880B207082C06002030060020B0
:1041180048C6070834A9070854C8070878C6070816
:10412800C0D40100EC860020A0C60708C8C607084E
:10413800BD390108FCC607081CC7070858C7070887
:104148003C1100200D380108A8C7070878C70708E0
:10415800D8C70708C1360108E4C70708A04E0908F0
:1041680010C8070880C8070808B5044B186818B1B4
:104178000022012123F0E4F808BD00BF503B0020D5
:1041880008B5044B186818B10022012123F0D8F8AB
:1041980008BD00BF503B00202DE9F0418EB0074616
:1041A8000E4614461D46002009900A900B900C906C
:1041B8000D900DF11C08079008900490059006904A
:1041C8000390014626F0C4FA8DF824708DF8256016
:1041D8000A942046FCF756F8ADF82C000C95149B71
:1041E8000D9325F021FE07904FF4FA730693124BB6
:1041F8000493CDF8148002E0039BB3B9BCB104AAC0
:1042080009A90E4B186854F0E1F904460028F5D1C5
:104218004FF0FF33009303AB00221146104625F000
:10422800C9FF0128E8D00324E8E70324E6E720468D
:104238000EB0BDE8F08100BF494201084C3B0020A8
:10424800006850B110B582B00024009403230A78A6
:10425800214626F029F802B010BD70472DE9F0413B
:1042680086B00023059301F0BBFD01F0B3FD894B37
:10427800186000283DD001F075FD874B40F20B1205
:104288008649874805F0B6FD05A9002008F0F2FA2E
:104298000546002839D04FF4007027F0F9F8044695
:1042A80000283ED022F025FF7E4B1860002844D01D
:1042B8002B467D4A40217D4862F038FB00227C492C
:1042C8004FF400500CF052FB00227A494FF4005092
:1042D8000CF070FB0025002D40F09780764B03EB27
:1042E800051359686F4B186822F0D2FF0135EDB2FB
:1042F800F1E705F035FD714B4FF48372674970485B
:1043080005F078FD05F02CFDFEE705F029FD6B4B67
:104318004FF4877261496A4805F06CFD05F020FD8D
:10432800FEE705F01DFD654B40F211125B4964483C
:1043380005F060FD05F014FDFEE705F011FD5F4B8B
:104348004FF48A7255495E4805F054FD05F008FDA2
:10435800FEE7594A02EB0312526811430133DBB2FC
:1043680055E0B046544F07EB0617B989B86816F000
:1043780051FCF873BB7B834216D0524A6019C5F5CD
:104388000071142D12DD504B01924FEA08184A4A69
:1043980052F8082000924D4A62F0C8FA002807DB5C
:1043A80005440136F6B24BE0494AE7E7494BEBE7EB
:1043B80005F0D6FC414B40F253123849404805F00D
:1043C80019FD05F0CDFCFEE705F0CAFC3B4B40F2B9
:1043D8005B1232493A4805F00DFD05F0C1FCFEE7D5
:1043E80005F0BEFC354B40F25F122C49344805F00D
:1043F80001FD05F0B5FCFEE72C4B0093364B4FF45E
:10440800B9722649354805F0F5FC00231946002BFA
:104418009FD04FF0FF33009300230122214800680A
:1044280022F076FE0028F0D02D4D0FCD206061607F
:10443800A260E360286820612B7923750026142583
:10444800002E8ED0274AC5F50071601962F06EFA09
:104458000028B9DB0544B5F5007FC1D20294019567
:10446800124E0096204B40F261120C490C4805F0A0
:10447800C1FC00952346324601210020FFF78CFE3F
:104488000028B9D1194B4FF4B7720449044805F014
:10449800B1FCBAE74C3B002068C9070859C90708AE
:1044A80080B20708503B0020A0C90708543B0020F1
:1044B800894101087141010800000020D4A60708BD
:1044C8001CA70708A8CB070840C90708D4C90708CC
:1044D8009CCB0708E490080858CA070834A90708BD
:1044E800BCC90708F4C90708FCC907082CCA07088B
:1044F800012804D0022804D028B904487047044889
:104508007047044870470448704700BF88CA0708C6
:1045180090CA070898CA0708EC800808F8B500246C
:1045280004B1F8BD0B4D660004EB4402D3002B44E4
:10453800094F22463946188A0CF018FA3319DA005E
:10454800154422463946288A0CF034FA0134E4B27C
:10455800E6E700BF100000206545010808B54FF4E4
:104568000071024B186822F093FE08BDEC8600200B
:1045780030B5A3B00546154B154A802102A862F054
:10458800D5F909E002AB0093124B40F2A712124989
:10459800124805F02FFCACB100230093104B2A46BB
:1045A80002A9104C206801F0FFFE04460028E9D05B
:1045B80002AB00930C4B40F2A51207490B4805F0DB
:1045C80019FCE8E7204623B030BD00BF983B002027
:1045D800A0CA0708F0CA0708E0CA070880B2070897
:1045E800E1460108943B0020B4CA070834A907082B
:1045F80038B5054600240CB1002038BD04EB44034F
:104608002946074A52F83300FBF732FE10B101344D
:10461800E4B2F0E704EB4404014800EBC400ECE723
:104628001000002010B5044601220188406816F0E9
:10463800F8FA4FF47A7024F08FFF0022218860681E
:1046480016F0EFFA10BD08B50430FFF7EBFF08BD10
:1046580008B50430FFF7E6FF08BD08B50430FFF7DA
:10466800E1FF08BD70B582B005460C46FFF7C0FFF4
:1046780098B1064612492046FBF7FAFDB0B1114938
:104688002046FBF7F5FDB0B10F492046FBF7F0FDDA
:1046980078B93046FFF7E1FF0BE000950B4B4FF47C
:1046A8009F720B490B4805F0A5FB02E03046FFF767
:1046B800CAFF02B070BD3046FFF7CAFFF9E700BF76
:1046C80018CB070820CB070828CB070800CB07081A
:1046D800E0CA07088CB3070870B5B8B00C460D8956
:1046E8007F2D00D97F252A46616818A862F0CBFC87
:1046F80005F1E0030DEB0305002305F8803C25696F
:104708003F2D00D93F252A46E16808A862F0BBFC86
:1047180005F1E0030DEB0305002305F8C03C114942
:1047280018A862F07CFB0546C8B107352F2128463A
:1047380062F0A5FA98B1441B1F2C00D91F24224609
:104748002946684662F09FFC04F1E0030DEB030480
:10475800002304F8E03C08A96846FFF783FF38B057
:1047680070BD00BF30CB070870B50446084D460041
:1047780000EB400305EBC303198AD86816F04AFA20
:10478800264405EBC605AB7C181A18BF012070BD7E
:10479800100000202DE9F0418EB007460E46144661
:1047A8001D46002009900A900B900C900D900690E1
:1047B800079008900DF110080490059003900146A9
:1047C80025F0C6FF8DF824708DF825600A942046E0
:1047D800FBF758FDADF82C000C95149B0D9325F0B4
:1047E80023FB04904FF4FA730893114B0693CDF80A
:1047F8001C8003E0039B03B10324ACB106AA09A9FA
:104808000C4B186853F0E2FE04460028F5D14FF02F
:10481800FF33009303AB00221146104625F0CAFC73
:104828000128E7D00324E8E720460EB0BDE8F08170
:10483800B5480108943B0020F0B5ABB000240CB19A
:104848002BB0F0BD2046FFF78FFF144D660004EB38
:10485800440305EBC30210750AAF55F833300093D3
:104868000F4B104A8021384662F060F8264405EB69
:10487800C605287DFFF73CFE034602AD0A4A202103
:10488800284662F053F800902B463A460121084624
:10489800FFF780FF0134E4B2D1E700BF1000002029
:1048A800983B002090A90708FCF60708006850B15B
:1048B80010B582B00024009403230A78214625F01D
:1048C800F3FC02B010BD704770B584B001F088FAEF
:1048D80001F080FA314B1860002840D001F042FA0C
:1048E8000020039003A907F0C5FF0546002842D021
:1048F800039E2B4C32460146204662F0C4FB00233F
:10490800A355284626F0AAFE0094264B4FF4FD72C4
:104918002549264805F06EFAFFF700FE0120FFF74B
:1049280027FEFFF789FF4FF0FF3300930023012292
:104938004FF400711E48006822F0EAFB0024002CA6
:10494800F1D12046FFF710FF04EB4402194B03EBAB
:10495800C2031B7D83421AD10134E4B2EFE705F0AC
:10496800FFF9154B4FF4F7720F49144805F042FA56
:1049780005F0F6F9FEE705F0F3F90F4B4FF4FA727C
:1049880009490E4805F036FA05F0EAF9FEE7094B41
:1049980003EBC2031875FFF74FFFDDE7943B0020D8
:1049A800983B002038CB0708E0CA070880B2070800
:1049B800EC86002010000020D4A607081CA70708D2
:1049C80070B582B006460D460CE02846FBF75AFC47
:1049D800019500900F4B40F2A9120F490F4805F0BE
:1049E80009FAA4B1002300930D4B324629460D4C19
:1049F800206801F0D9FC04460028E6D000900A4B54
:104A080040F2A5120449094805F0F4F9E9E72046FF
:104A180002B070BD98C507086ECB070880B20708BA
:104A2800BD4C0108583C002068C5070834A9070890
:104A38002DE9F0418EB007460E4614461D4600206B
:104A480009900A900B900C900D900DF11C0807909E
:104A580008900490059006900390014625F078FE92
:104A68008DF824708DF825600A942046FBF70AFC1F
:104A7800ADF82C000C95149B0D9325F0D5F90790F3
:104A88004FF4FA730693124B0493CDF8148002E0A6
:104A9800039BB3B9BCB104AA09A90E4B186853F01B
:104AA80095FD04460028F5D14FF0FF33009303AB82
:104AB80000221146104625F07DFB0128E8D003248A
:104AC800E8E70324E6E720460EB0BDE8F08100BF22
:104AD800E14A0108583C0020006850B110B582B086
:104AE8000024009403230A78214625F0DDFB02B058
:104AF80010BD70472DE9F04397B00746002615967C
:104B08001496344611E02A465F49404662F0FCF8A4
:104B180000283AD15D4B03EB04131B7B5C4A52F827
:104B28002320002A50D00134E4B2012C59D8A146E0
:104B38002301564AD358574A402104A861F0F6FE8B
:104B48000546431E3E2BEED84FF00008CDF85480A2
:104B5800CDF850803846FBF795FB0146CDF8088024
:104B680014AB019315AB00932B4604AA38464FF0BB
:104B7800BBFE0128D7D1DDF85480B8F1000FD2D0A0
:104B8800149D002DCFD0022DBDD0032DCBD12A46A8
:104B98004149404662F0B8F80028C4D13B4B03EBCA
:104BA80009131B7B3A4A52F82350012DBBD100212F
:104BB80042F82310354B03EB0913DA7A1989586840
:104BC80016F02FF82E46AEE70126314A42F8236048
:104BD8002E4B03EB04139A7A1989586816F021F8BA
:104BE800A1E73EB92D493846FBF742FBA8B9284B47
:104BF8001B6823B1012E0AD017B0BDE8F083244BFF
:104C080001221A6000224021254816F00AF80121E5
:104C1800244B186822F03CFBEEE723493846FBF7A3
:104C280027FB60B91A4B1B68012BE3D1184B0022F4
:104C38001A60012240211A4815F0F3FFE7E71B49E3
:104C48003846FBF715FB60B9114B5B68002BD1D1D7
:104C58000F4B01225A6000228021114815F0E1FF14
:104C6800D5E713493846FBF703FB0028C2D1084BA8
:104C78005B68012BBED1064B00225A6001228021BD
:104C8800074815F0CEFFC2E79CCB0708D04E0908AD
:104C9800683C00207CCB0708A8CB070894CB070802
:104CA800001C02425C3C0020A0CB0708ACCB0708E4
:104CB800BCCB070830B583B00C460A697F2A16D9E1
:104CC8000F4D8022C968284662F0DDF9002385F877
:104CD8007F300B4C00940B4B40F28F120A490B4863
:104CE80005F088F82046FFF705FF03B030BD044DF6
:104CF800C968284662F0C7F923690022EA54E8E740
:104D0800D83B0020CCCB07086ECB070880B2070839
:104D180070B586B00023059301F062F801F05AF8E7
:104D2800694B1860002831D001F01CF8674B40F23D
:104D38000E226749674805F05DF805A9002007F0CD
:104D480099FD044670B3802026F0A2FB0546002892
:104D580034D02346604A4021604861F0E7FD23468D
:104D68005F4A40215F4861F0E1FD22F0C2F95E4BE5
:104D7800186078B35B490120FFF722FE002835D17F
:104D88000121594B186822F083FA74E004F0E8FF17
:104D9800564B40F20A224E49554805F02BF804F0CC
:104DA800DFFFFEE704F0DCFF504B40F211224849D8
:104DB8004F4805F01FF804F0D3FFFEE704F0D0FFDA
:104DC8004A4B4FF405724249494805F013F804F07C
:104DD800C7FFFEE704F0C4FF444B40F21B223C49E6
:104DE800434805F007F804F0BBFFFEE73D4B00938E
:104DF800404B40F2222236493F4804F0FBFF002096
:104E080024F09AF8BCE73D4A52F823103C4A42F88D
:104E180023100133DBB2012BF5D9384B1B68002B6B
:104E280038D0384B354A5268002A35D0354A009276
:104E3800354A8021284661F079FD04467F282DD81F
:104E480002950190254E0096304B40F246222049AB
:104E5800204804F0CFFF00942B4632460121084633
:104E6800FFF7E6FD30BB0096294B40F25322184964
:104E7800184804F0BFFF4FF0FF33009301231A4690
:104E880019461948006822F043F910F0010FF2D0D2
:104E98000023C0E71F4BC5E71E4AC8E704F060FFC0
:104EA800124B4FF411720A49114804F0A3FF04F0A1
:104EB80057FFFEE7094B0093174B4FF4167204494E
:104EC8000D4804F097FFD6E7583C0020F4CB0708BC
:104ED8006ECB070880B2070828AC0708703C002092
:104EE80018AC0708B03C00205C3C0020D4A607089A
:104EF8001CA707083CCC070834A90708683C002011
:104F0800603C00209CCB070860CC0708BCCC070895
:104F1800E4CC0708A8CB070808CD07080F4B1B6887
:104F280003B1704710B582B000220421202022F07E
:104F3800ADFB0A4B186000240BE0094B03EB04138C
:104F4800019300231A4601A90448006822F016FCC0
:104F580001341F2CF1D902B010BD00BFF03C002075
:104F6800F43C002010B582B000230193174B1C6855
:104F78002CB3C30E4101091A63F100039B0043EAF5
:104F880091738900091843F100034FEAC30C4FF4E9
:104F98007A720023C8004CEA5171FBF75FFE0246A3
:104FA80001A9204622F0D2FD10B1019802B010BD2F
:104FB800074B5A220749084804F01CFFF5E7074B3E
:104FC8005F220449044804F015FFEEE7F03C002096
:104FD80028CD07085BCD070834A9070874CD070852
:104FE80000B585B00390134B1868A0B1039B124A13
:104FF800934203D302F50072934214D900930F4BE6
:1050080073220F490F4804F0F5FE0020003818BF3E
:10501800012005B000BD0C4B6D220949094804F078
:10502800E9FE0020F2E700231A4603A922F0A6FBB6
:10503800ECE700BFF03C0020F43C002094CD0708CA
:105048005BCD070834A9070874CD070838B538B10F
:10505800054689B1132A1BD8132B25D8002030E028
:1050680004F07EFE214B40F24F122149214804F002
:10507800C1FE04F075FEFEE704F072FE1B4B4FF410
:10508800A8721B491B4804F0B5FE04F069FEFEE750
:1050980004F066FE154B40F251121549154804F00C
:1050A800A9FE04F05DFEFEE704F05AFE0F4B4FF434
:1050B800A9720F490F4804F09DFE04F051FEFEE767
:1050C8000130132810D805EB001E02EB420C01EB4F
:1050D8008C0CDEF80C406445F2D103EB430401EB81
:1050E8008404CEF80C40EBE738BD00BFD4A607080F
:1050F800E3CD07081CA7070810B5C4688C4201D087
:10510800002010BD4168994201D00020F9E70368EA
:10511800934201D00020F4E7846824F085FE84429D
:1051280001D00020EDE70120EBE7000038B5B0B171
:10513800044624F079FE0546D4F8A40222F0DEFAEB
:10514800854206D0224B40F2EA222249224804F046
:1051580051FE0023C4F89432C4F898321EE004F0DB
:10516800FFFD1E4B40F2E9221A491B4804F042FE9B
:1051780004F0F6FDFEE7E218802182F8F01003F152
:10518800400204EB82020021516003EB43029000CD
:1051980004EB82025160215411810133132BEAD9A7
:1051A80000230DE003F1150104EB011100228A60D0
:1051B8004A6004EB0311C1F86021C1F85C21013396
:1051C800132BEFD90023C4F8A032C4F89C3238BDA1
:1051D80090BE0708E3CD07081CA70708D4A6070850
:1051E8002DE9F84338B188469146064679B100243E
:1051F800274625463FE004F0B3FD294B4FF4B37230
:105208002849294804F0F6FD04F0AAFDFEE704F059
:10521800A7FD234B40F267122249234804F0EAFD18
:1052280004F09EFDFEE71A8972BB132D2CD8A54207
:1052380000D8651C132D1DD805EB45024FEA820ED8
:1052480006EB820CBCF808200AB90135F2E79CE8A5
:10525800070083E80700002346F80E30CCF8043036
:10526800CCF8083023462A4631464046FFF7EEFE82
:10527800013701350134132C0DD804EB440306EB38
:10528800830358680028CED00028F3D01B89002B50
:10529800F0D00137EEE7C9F80070BDE8F88300BF29
:1052A800D4A60708E3CD07081CA707082DE9F8438B
:1052B80038B18946054681B14FF0000C6746E6468D
:1052C80049E004F04DFD2B4B4FF4D1722A492B488D
:1052D80004F090FD04F044FDFEE704F041FD254B89
:1052E80040F2A3122449254804F084FD04F038FD57
:1052F800FEE7BEF1130F36D8E64501D80CF1010ED2
:10530800BEF1130F25D84FEA0E1805EB0E16F368F9
:1053180013B90EF1010EF3E7E6450DD996E80F0033
:1053280084E80F00002345F808307360B360F36029
:1053380001370EF1010E0CE004F012FD0D4B40F2A6
:10534800B5120D490D4804F055FD04F009FDFEE7BE
:1053580001370CF1010CBCF1130F07D805EB0C1445
:10536800E368002BC5D0002BF2D1F2E7C9F8007032
:10537800BDE8F883D4A60708E3CD07081CA70708EB
:1053880060B100B583B00023009301234FF00042C1
:105398000321406824F088FF03B000BD7047000077
:1053A80000B583B071B158B10A784B6813B11B7856
:1053B80002EB0362002300930323194624F074FFD1
:1053C80003B000BD04F0CCFC044B40F2BA520449CF
:1053D800044804F00FFD04F0C3FCFEE7D4A6070858
:1053E800E3CD07081CA7070800B583B049B130B161
:1053F8000023009303230A78194624F055FF03B0CD
:1054080000BD04F0ADFC054B40F2B6620449054806
:1054180004F0F0FC04F0A4FCFEE700BFD4A60708E3
:10542800E3CD07081CA7070800B585B084460846E1
:10543800114600238DF80F300DF10F030093BCF8CF
:105448000830DCF8042050F09DFB20B99DF80F309F
:1054580013B1012000E0002005B000BD08B523F01D
:10546800DDFE024B1B68C01A08BD00BF083F0020C4
:1054780030B585B00023039380B30C46054679B355
:10548800D00E53019B1A60F10000800040EA93702F
:105498009B0013EB020C40F10001C9004FF47A7233
:1054A80000234FEACC0041EA5C71FBF7D7FB009080
:1054B80003AB4FF0FF320021032024F07BFE0346AC
:1054C80078B1039B002B02DA0023236009E0002255
:1054D8002146286822F03AFB034602E0002300E058
:1054E8000023181E18BF012005B030BD30B583B0A9
:1054F80058B30C46054651B3D00E53019B1A60F1C0
:105508000000800040EA93709B0013EB020C40F10E
:105518000001C9004FF47A7200234FEACC0041EA37
:105528005C71FBF79BFB024600232146286822F0AA
:1055380025F90446686858B10023009301234FF009
:105548008042032124F0B0FE02E0002400E00024A1
:10555800201E18BF012003B030BD000030B583B055
:10556800F0B10446D0F8A4322BB324F05DFC054614
:10557800D4F8A40222F0C2F8854205D0184BFD22C7
:105588001849194804F036FC00231A461946D4F87D
:10559800A40222F0F3F80446C0B1204603B030BD9F
:1055A80004F0DEFB114BFB220E490F4804F022FCED
:1055B80004F0D6FBFEE704F0D3FB0C4BFC220949B0
:1055C800094804F017FC04F0CBFBFEE70090084BF9
:1055D80040F207120349074804F00CFCDDE700BF5E
:1055E80090BE0708E3CD07081CA70708D4A607083C
:1055F800F8CD070834A907082DE9F04182B0B8B101
:105608000F46064601B324F00FFC0446D6F8A40260
:1056180022F074F884425ED004F0A2FB324B40F2D0
:105628002B223249324804F0E5FB04F099FBFEE7EF
:1056380004F096FB2C4B40F229222C492C4804F00C
:10564800D9FB04F08DFBFEE704F08AFB264B40F201
:105658002A222649264804F0CDFB04F081FBFEE708
:105668000134132C16D806EB0413D3F860314345E4
:10567800F6D106EB0413D3F85C010028F0D023F030
:10568800D9FD00901B4B40F2432218491A4804F0F8
:10569800B1FBE5E70135D6F89432AB421DD97B68FA
:1056A8005A5D731983F8F0207B685B5D802BF1D11C
:1056B80005EB450806EB8808B8F80830D8F8042048
:1056C800019200930D4B4FF40E7208490C4804F0F8
:1056D80091FB0024C5E70025DDE73046FFF73EFFD4
:1056E80002B0BDE8F08100BFD4A60708E3CD0708E3
:1056F8001CA7070854CE07088CB3070824CE070850
:1057080034A9070870B586B0C9B106460C46D1F869
:10571800A43203B324F088FB0546D4F8A40221F090
:10572800EDFF854223D004F01BFB274B40F25622A5
:105738002649274804F05EFB04F012FBFEE704F05C
:105748000FFB214B4FF415722049214804F052FBFE
:1057580004F006FBFEE704F003FB1B4B40F2552266
:105768001A491B4804F046FB04F0FAFAFEE704F570
:10577800257204F5AA712046FFF732FDD4F8943259
:10578800DBB1144A0392049400220592C4F89C42A7
:10579800C4F8A03203AA04F52771304652F0DAFEA5
:1057A800044670B150F04AFA00900B4B40F2712257
:1057B80006490A4804F01EFB03E02046FFF7CEFE28
:1057C8000024204606B070BDD4A60708E3CD07081C
:1057D8001CA7070801560108A4CE070834A9070822
:1057E80030B583B0B8B10446D0F8A432F3B124F090
:1057F8001BFB0546D4F8A40221F080FF854220D087
:105808004FF0FF31D4F8A40222F04EFA0446F8B162
:10581800204603B030BD04F0A3FA114BE122114930
:10582800114804F0E7FA04F09BFAFEE704F098FA4E
:105838000B4BE2220B490C4804F0DCFA04F090FA16
:10584800FEE70A4BE4220749074804F0D3FAD7E7F2
:105858000090074BEF220349064804F0CBFAD7E73C
:10586800D4A60708E3CD07081CA7070890BE0708B9
:10587800E0CE070834A907082DE9F04182B060B1ED
:105888001546D0F80861A6B1FAB13046FFF7A8FF6F
:1058980000284CD00024A04624E004F061FA2B4BE9
:1058A80040F2A9222A492B4804F0A4FA04F058FA35
:1058B800FEE704F055FA254B40F2AA222449254870
:1058C80004F098FA04F04CFAFEE704F049FA1F4B8A
:1058D80040F2AB221E491F4804F08CFA04F040FA4B
:1058E800FEE70134132C1CD806EB0413D3F860012F
:1058F8000028F6D02A896968FFF796FD0746002830
:10590800EFD006EB0413D3F85C0123F093FC04F109
:10591800150306EB03135A68294698689047B8465A
:10592800DFE73046FFF71AFEB8F1000F0AD12B89DE
:105938006A6801920093084B40F2D3220449074851
:1059480004F058FA02B0BDE8F08100BFD4A60708F9
:10595800E3CD07081CA7070808CF07088CB307087A
:1059680010B570B10446012021F0D4FFC4F8A40298
:1059780098B12046FFF734FF2046FFF7D7FB0020F9
:1059880010BD04F0EDF9064B40F20B32054906480C
:1059980004F030FA04F0E4F9FEE70220F0E700BF73
:1059A800D4A60708E3CD07081CA70708F0B585B0FB
:1059B8001F460123039300230293044698B30D4620
:1059C8001646002938D0002A3FD040F21442002160
:1059D80061F04DF9C4F81061C4F81471C4F8245189
:1059E800624BC4F81C31624BC4F81831012084F8AA
:1059F800EC033C23A4F8EE334FF0FF33019301A9E5
:105A080006F038FF0546019B013B13F1030F25D82B
:105A1800584961F004FA38B3574BC4F8F8334423B3
:105A2800A4F8FC331FE0554B40F246325449554820
:105A380004F0E0F901252FE0534B40F24B32504976
:105A4800504804F0D7F901256CE0504B4FF45472DC
:105A58004B494C4804F0CEF9012563E00023C4F813
:105A6800F833A4F8FC3315B1284625F0F7FD0020DB
:105A7800C4F80004A4F8040402A906F0FBFEC4F864
:105A8800F003002846D0029B002B43D0B3F5803F9B
:105A980040D2A4F8F4330025002D43D1002204217C
:105AA800202021F0F3FDC4F83C0100283DD024F06B
:105AB800BBF9C4F84001002D34D104F59E73C4F835
:105AC8002831334BC4F82C31324BC4F83031324BC7
