:020000040801F1
:1000000000000C2011690208950C0208970C0208E8
:10001000990C02089B0C02089D0C020861690208F9
:1000200000000000000000000000000039CA0308C2
:100030009F0C020800000000DDC903086D0D0208D6
:100040006169020861690208616902086169020860
:100050006169020861690208616902086169020850
:100060006169020861690208616902086169020840
:1000700061690208A10C020861690208616902084D
:100080006169020861690208616902086169020820
:100090006169020861690208AB0C02086169020823
:1000A000B70C0208C30C0208CF0C0208DD0C0208D2
:1000B00000000000ED0C0208FD0C02086169020856
:1000C000616902080D0D02081D0D02086169020830
:1000D00061690208616902086169020861690208D0
:1000E00061690208616902086169020861690208C0
:1000F00061690208616902086169020861690208B0
:10010000616902086169020861690208616902089F
:10011000616902086169020861690208616902088F
:100120006169020861690208616902082D0D02080F
:100130003D0D02084D0D020861690208616902085F
:10014000616902086169020861690208616902085F
:10015000616902086169020861690208616902084F
:10016000616902086169020861690208616902083F
:10017000616902086169020861690208616902082F
:10018000616902086169020861690208616902081F
:10019000616902086169020861690208616902080F
:1001A00061690208616902086169020861690208FF
:1001B00061690208000000005D0D02086169020823
:1001C00061690208000000006169020861690208B3
:1001D00061690208616902086169020861690208CF
:1001E00061690208616902086169020861690208BF
:1001F0000000000000000000616902086169020857
:10020000616902086169020861690208616902089E
:10021000616902086169020861690208616902088E
:10022000616902086169020861690208616902087E
:0802300061690208616902081E
:1002380010B5054C237833B9044B13B10448AFF318
:1002480000800123237010BD00060020000000007C
:10025800AC9D070808B5034B1BB103490348AFF32E
:10026800008008BD0000000004060020AC9D0708BF
:1002780010F8012B11F8013B012A28BF9A42F7D048
:10028800D01A7047034613F8012B002AFBD1181A1D
:100298000138704781F0004102E000BF83F000435D
:1002A80030B54FEA41044FEA430594EA050F08BF09
:1002B80090EA020F1FBF54EA000C55EA020C7FEACD
:1002C800645C7FEA655C00F0E2804FEA5454D4EB4A
:1002D8005555B8BF6D420CDD2C4480EA020281EA14
:1002E800030382EA000083EA010180EA020281EA4C
:1002F8000303362D88BF30BD11F0004F4FEA01319E
:100308004FF4801C4CEA113102D0404261EB4101AC
:1003180013F0004F4FEA03334CEA133302D0524232
:1003280063EB430394EA050F00F0A780A4F10104EE
:10033800D5F1200E0DDB02FA0EFC22FA05F2801828
:1003480041F1000103FA0EF2801843FA05F359410E
:100358000EE0A5F120050EF1200E012A03FA0EFC8D
:1003680028BF4CF0020C43FA05F3C01851EBE371B7
:1003780001F0004507D54FF0000EDCF1000C7EEBD4
:1003880000006EEB0101B1F5801F1BD3B1F5001F12
:100398000CD349085FEA30004FEA3C0C04F1010431
:1003A8004FEA445212F5800F80F09A80BCF1004F5A
:1003B80008BF5FEA500C50F1000041EB045141EADC
:1003C800050130BD5FEA4C0C404141EB0101013CA5
:1003D80028BFB1F5801FE9D291F0000F04BF014694
:1003E8000020B1FA81F308BF2033A3F10B03B3F166
:1003F80020020CDA0C3208DD02F1140CC2F10C02F6
:1004080001FA0CF021FA02F10CE002F11402D8BF53
:10041800C2F1200C01FA02F120FA0CFCDCBF41EA1F
:100428000C019040E41AA2BF01EB0451294330BDEE
:100438006FEA04041F3C1CDA0C340EDC04F11404CB
:10044800C4F1200220FA04F001FA02F340EA0300A2
:1004580021FA04F345EA030130BDC4F10C04C4F1E8
:10046800200220FA02F001FA04F340EA03002946C8
:1004780030BD21FA04F0294630BD94F0000F83F412
:10048800801306BF81F480110134013D4EE77FEAF5
:10049800645C18BF7FEA655C29D094EA050F08BF41
:1004A80090EA020F05D054EA000C04BF1946104622
:1004B80030BD91EA030F1EBF0021002030BD5FEA66
:1004C800545C05D14000494128BF41F0004130BD8E
:1004D80014F580043CBF01F5801130BD01F00045E2
:1004E80045F0FE4141F470014FF0000030BD7FEA55
:1004F800645C1ABF194610467FEA655C1CBF0B4650
:10050800024650EA013406BF52EA033591EA030F66
:1005180041F4002130BD00BF90F0000F04BF00215E
:10052800704730B54FF4806404F132044FF0000591
:100538004FF0000150E700BF90F0000F04BF00210A
:10054800704730B54FF4806404F1320410F0004570
:1005580048BF40424FF000013EE700BF42004FEA6B
:10056800E2014FEA31014FEA02701FBF12F07F43E8
:1005780093F07F4F81F06051704732F07F4208BF9F
:10058800704793F07F4F04BF41F40021704730B5A6
:100598004FF4607401F0004521F000411CE700BFF2
:1005A80050EA010208BF704730B54FF000050AE075
:1005B80050EA010208BF704730B511F0004502D576
:1005C800404261EB41014FF4806404F132045FEA78
:1005D800915C3FF4D8AE4FF003025FEADC0C18BF21
:1005E80003325FEADC0C18BF033202EBDC02C2F113
:1005F800200300FA03FC20FA02F001FA03FE40EAA5
:100608000E0021FA02F11444BDE600BF70B54FF0A8
:10061800FF0C4CF4E06C1CEA11541DBF1CEA135586
:1006280094EA0C0F95EA0C0F00F0DEF82C4481EAEE
:10063800030621EA4C5123EA4C5350EA013518BF0E
:1006480052EA033541F4801143F4801338D0A0FBFB
:1006580002CE4FF00005E1FB02E506F00042E0FBA8
:1006680003E54FF00006E1FB03569CF0000F18BFAE
:100678004EF0010EA4F1FF04B6F5007F64F5407456
:1006880004D25FEA4E0E6D4146EB060642EAC621E9
:1006980041EA55514FEAC52040EA5E504FEACE2E56
:1006A800B4F1FD0C88BFBCF5E06F1ED8BEF1004F59
:1006B80008BF5FEA500E50F1000041EB045170BDD5
:1006C80006F0004646EA010140EA020081EA030119
:1006D800B4EB5C04C2BFD4EB0C0541EA045170BD15
:1006E80041F480114FF0000E013C00F3AB8014F18F
:1006F800360FDEBF002001F0004170BDC4F10004D8
:10070800203C35DA0C341BDC04F11404C4F1200558
:1007180000FA05F320FA04F001FA05F240EA0200B3
:1007280001F0004221F0004110EBD37021FA04F6E9
:1007380042EB06015EEA430E08BF20EAD37070BDA3
:10074800C4F10C04C4F1200500FA04F320FA05F002
:1007580001FA04F240EA020001F0004110EBD37004
:1007680041F100015EEA430E08BF20EAD37070BD74
:10077800C4F1200500FA05F24EEA020E20FA04F34D
:1007880001FA05F243EA020321FA04F001F00041FC
:1007980021FA04F220EA020000EBD3705EEA430E6D
:1007A80008BF20EAD37070BD94F0000F0FD101F09C
:1007B8000046400041EB010111F4801F08BF013CD5
:1007C800F7D041EA060195F0000F18BF704703F013
:1007D8000046520043EB030313F4801F08BF013D9A
:1007E800F7D043EA0603704794EA0C0F0CEA135556
:1007F80018BF95EA0C0F0CD050EA410618BF52EA10
:100808004306D1D181EA030101F000414FF0000015
:1008180070BD50EA410606BF1046194652EA430623
:1008280019D094EA0C0F02D150EA013613D195EA97
:100838000C0F05D152EA03361CBF104619460AD1DF
:1008480081EA030101F0004141F0FE4141F47001E9
:100858004FF0000070BD41F0FE4141F4780170BDD9
:1008680070B54FF0FF0C4CF4E06C1CEA11541DBF3E
:100878001CEA135594EA0C0F95EA0C0F00F0A7F840
:10088800A4EB050481EA030E52EA03354FEA01316D
:1008980000F088804FEA03334FF0805545EA131380
:1008A80043EA12634FEA022245EA111545EA106548
:1008B8004FEA00260EF000419D4208BF964244F1DF
:1008C800FD0404F5407402D25B084FEA3202B61AFE
:1008D80065EB03055B084FEA32024FF480104FF4D2
:1008E800002CB6EB020E75EB030E22BFB61A754646
:1008F80040EA0C005B084FEA3202B6EB020E75EBD9
:10090800030E22BFB61A754640EA5C005B084FEA40
:100918003202B6EB020E75EB030E22BFB61A75460D
:1009280040EA9C005B084FEA3202B6EB020E75EB18
:10093800030E22BFB61A754640EADC0055EA060ED9
:1009480018D04FEA051545EA16754FEA06164FEA1C
:10095800C30343EA52734FEAC2025FEA1C1CC0D1C8
:1009680011F4801F0BD141EA00014FF000004FF055
:10097800004CB6E711F4801F04BF01430020B4F116
:10098800FD0C88BFBCF5E06F3FF6AFAEB5EB030CCE
:1009980004BFB6EB020C5FEA500C50F1000041EBCB
:1009A800045170BD0EF0004E4EEA113114EB5C0498
:1009B800C2BFD4EB0C0541EA045170BD41F480116B
:1009C8004FF0000E013C90E645EA060E8DE60CEA73
:1009D800135594EA0C0F08BF95EA0C0F3FF43BAF90
:1009E80094EA0C0F0AD150EA01347FF434AF95EA47
:1009F8000C0F7FF425AF104619462CE795EA0C0F2B
:100A080006D152EA03353FF4FDAE1046194622E7F7
:100A180050EA410618BF52EA43067FF4C5AE50EAD1
:100A280041047FF40DAF52EA43057FF4EBAE12E7C1
:100A38004FF0FF3C06E000BF4FF0010C02E000BFA2
:100A48004FF0010C4DF804CD4FEA410C7FEA6C5C85
:100A58004FEA430C18BF7FEA6C5C1BD001B050EA28
:100A6800410C0CBF52EA430C91EA030F02BF90EA13
:100A7800020F0020704710F1000F91EA030F58BFD2
:100A8800994208BF90422CBFD8176FEAE37040F034
:100A9800010070474FEA410C7FEA6C5C02D150EAD2
:100AA800013C07D14FEA430C7FEA6C5CD6D152EA8D
:100AB800033CD3D05DF8040B704700BF8446104652
:100AC80062468C461946634600E000BF01B5FFF751
:100AD800B7FF002848BF10F1000F01BD4DF808ED21
:100AE800FFF7F4FF0CBF012000205DF808FB00BFF2
:100AF8004DF808EDFFF7EAFF34BF012000205DF84C
:100B080008FB00BF4DF808EDFFF7E0FF94BF012098
:100B180000205DF808FB00BF4DF808EDFFF7CEFF99
:100B280094BF012000205DF808FB00BF4DF808EDD8
:100B3800FFF7C4FF34BF012000205DF808FB00BFA9
:100B48004FEA410C7FEA6C5C02D150EA013C0AD1C1
:100B58004FEA430C7FEA6C5C02D152EA033C02D1B3
:100B68004FF0000070474FF0010070474FEA410214
:100B780012F5001215D211D56FF47873B3EB6252E7
:100B880012D94FEAC12343F0004343EA505311F00E
:100B9800004F23FA02F018BF404270474FF00000A0
:100BA800704750EA013005D111F0004008BF6FF0DE
:100BB800004070474FF00000704700BF4FEA410205
:100BC800B2F1E04324BFB3F5001CDCF1FE5C0DD9A3
:100BD80001F0004C4FEAC0024CEA5070B2F1004FED
:100BE80040EB830008BF20F00100704711F0804FF0
:100BF80021D113F13872BCBF01F00040704741F4B5
:100C080080114FEA5252C2F11802C2F1200C10FAB8
:100C18000CF320FA02F018BF40F001004FEAC1239C
:100C28004FEAD32303FA0CFC40EA0C0023FA02F340
:100C38004FEA4303CCE77FEA625307D150EA013316
:100C48001EBF4FF0FE4040F44000704701F00040E6
:100C580040F0FE4040F40000704700BF53B94AB965
:100C6800002908BF00281CBF4FF0FF314FF0FF30AC
:100C780000F0C6B9ADF1080C6DE904CE00F01AF821
:100C8800DDF804E0DDE9022304B07047430803F00F
:100C98005533C01A830800F0333003F03333184457
:100CA80000EB101000F00F3000EB002000EB0040CC
:100CB800000E70472DE9F04F8C46099E04460F46FA
:100CC800002B48D18A4215465ED9B2FA82F33BB16D
:100CD800C3F120029F409D409C4020FA02F2174336
:100CE8004FEA154E1FFA85FC220CB7FBFEF10EFBEE
:100CF800117701FB0CF042EA0742904207D9AA1883
:100D080001F1FF3702D2904200F258813946121A97
:100D1800A4B2B2FBFEF00EFB102200FB0CFC44EA6E
:100D28000244A4450BD92C1900F1FF322CBF01272E
:100D38000027A44502D9002F00F04381104640EA5D
:100D48000140A4EB0C0400211EB1DC400023C6E9DD
:100D58000043BDE8F08F8B4206D90EB1C6E9000109
:100D680000210846BDE8F08FB3FA83F1002951D17C
:100D78006345C0F01681824240F213810846002E76
:100D8800E7D0C6E90047E4E7002A00F0AF80B2FAEE
:100D980082F3002B40F0C2808A1A4FEA154EAFB298
:100DA8000121200CB2FBFEFC0EFB1C2240EA024291
:100DB80007FB0CF090420ED9AA180CF1FF382CBF93
:100DC8004FF001094FF00009904203D9B9F1000F23
:100DD80000F0F080C446121AA4B2B2FBFEF00EFB7B
:100DE800102200FB07F744EA0244A7420ED92C1947
:100DF80000F1FF322CBF4FF0010E4FF0000EA7425A
:100E080003D9BEF1000F00F0D2801046E41B40EA7F
:100E18000C4099E7C1F120058B400CFA01F400FA67
:100E280001F922FA05F72CFA05FC8A401F4320FA3B
:100E380005F3380C23431FFA87FE1C0CBCFBF0F8A3
:100E480000FB18CC44EA0C4408FB0EFCA4450ED960
:100E58003C1908F1FF3A2CBF4FF0010B4FF0000B83
:100E6800A44503D9BBF1000F00F0B880D046A4EB2D
:100E78000C041FFA83FCB4FBF0F300FB134403FBE0
:100E88000EFE4CEA0444A6450ED93C1903F1FF3086
:100E98002CBF4FF0010C4FF0000CA64503D9BCF154
:100EA800000F00F09F80034643EA0840A4EB0E04BD
:100EB800A0FB02EC64457346E04602D307D1F14536
:100EC80005D2BEEB02036CEB070C0138E0465EB1BD
:100ED800B9EB030264EB080404FA05F522FA01F3FE
:100EE800CC401D43C6E90054002132E742082F4692
:100EF8004B08AC4642EAC172AE46C407110C92B226
:100F080041EA034142EA0142B1FBF5F1B3FBF5F0D6
:100F18001F23A2EB0C0241EA004142E79D40C3F1C6
:100F2800200299409C402CFA02FC4FEA154E20FA08
:100F380002F2AFB2BCFBFEF80A430EFB18CC110C50
:100F480041EA0C4108FB07FC8C4550D9691808F1A7
:100F5800FF302CBF4FF001094FF000098C4502D932
:100F6800B9F1000F30D0A1EB0C01B1FBFEF808FB82
:100F780007FC0EFB181192B242EA0142624534D2D4
:100F8800AA1808F1FF312CBF4FF001094FF00009F2
:100F98006245BED2B9F1000FBBD1A8F102012A44C3
:100FA800B7E7841A6CEB030201201746E7E62C44E6
:100FB80002382BE7ACF1020C2A440CE702392A4428
:100FC800A5E62C440238BAE6A5EB0C0CA8F1020001
:100FD8006144B1FBFEF808FB07FCCAE7A8F1020868
:100FE8003C4444E7023B3C445EE7414691E7A1EBC1
:100FF8000C014046B1FBFEF808FB07FCB9E700BF4F
:10100800704700BFF0B589B088B10C460546C9B134
:101018002E4B1B68002B57D107F0BAFB2C4B3522FF
:101028002C492D4807F0FEFB07F0B2FBFEE707F05E
:10103800AFFB274B33222749274807F0F3FB07F07C
:10104800A7FBFEE707F0A4FB214B342221492248E5
:1010580007F0E8FB07F09CFBFEE7204B53F83670DF
:10106800019700951E4B1F4A80211848006865F0BB
:10107800CDFA07951C4B06930595049503970295A1
:10108800019700953B46194A4FF48061204665F068
:10109800BDFAB0F5806F0FD2009023460B4A126854
:1010A8000121002000F032FE0A2029F0ABFD0136B4
:1010B800002ED2DD09B0F0BD00970D4B6E22054918
:1010C8000C4807F0AFFBEFE70026F1E72806002001
:1010D8008CA30708BCA30708D4A30708283F09085E
:1010E800DCA30708ECA30708C0A507080CA4070899
:1010F800D0A50708ECA507082DE9F04788B098B1F6
:101108000E460746D9B1524B1B681BB380202BF003
:1011180015FD814680202BF011FD8246B9F1000FA4
:1011280023D068B3002468E007F032FB494B4A2219
:1011380049494A4807F076FB07F02AFBFEE707F023
:1011480027FB444B4B224449444807F06BFB07F00C
:101158001FFBFEE707F01CFB3E4B4C223E493F4875
:1011680007F060FB07F014FBFEE707F011FB394BB3
:1011780051223949394807F055FB07F009FBFEE7CA
:1011880007F006FB334B52223349344807F04AFB39
:1011980007F0FEFAFEE7CDF800803B46304A802192
:1011A800484665F033FACDF800803B462D4A802149
:1011B800504665F02BFA07972B4B06930597049733
:1011C800CDF80CA0CDF80890CDF8048000974346E0
:1011D800264A4FF48061304665F018FAB0F5806F02
:1011E80024D2009033461A4A12680121002000F0E8
:1011F8008DFD0A2029F006FD0134022C1FDC1C4D50
:1012080055F83480CDF8048000971A4B1A4A80218B
:101218000F48006865F0FAF905EBC4056B68012B07
:10122800B9D00B4B186800F0EBFDE2E7CDF8008071
:10123800124B9E220849124807F0F4FAD9E74846AB
:101248002BF062FD50462BF05FFD08B0BDE8F0873B
:10125800280600208CA3070818A60708D4A30708A7
:1012680034A6070848A60708C0A507085CA607080B
:10127800303F09082CA60708ECA307084CA8070864
:10128800ECA507082DE9F04186B038B10E460546B1
:1012980079B1364B1B68BBB1002442E007F078FAFD
:1012A800334B46223349344807F0BCFA07F070FA4A
:1012B800FEE707F06DFA2E4B47222E492E4807F01D
:1012C800B1FA07F065FAFEE707F062FA284B482200
:1012D8002849294807F0A6FA07F05AFAFEE7D8F88D
:1012E8000420D8F808300595244904910395029301
:1012F8000192234B00932B46224A4FF480613046DB
:1013080065F084F9B0F5806F24D200903346174A0F
:1013180012680121002000F0F9FC0A2029F072FC73
:101328000134032C1EDC184A230102EB0418D75899
:1013380001970095154B164A80210C48006865F006
:1013480065F9D8F80C30012BC9D0084B186800F0A3
:1013580057FDE2E700970F4B7B2206490E4807F03E
:1013680061FADAE706B0BDE8F08100BF2806002080
:101378008CA30708B4A80708D4A30708C0A50708C2
:101388008CA90708DCA80708483F0908C8A8070867
:10139800ECA3070898A90708ECA507082DE9F04F62
:1013A8009DB098B10C460746D9B15A4B1B681BB380
:1013B80080202BF0C3FB804680202BF0BFFB8146AA
:1013C800B8F1000F23D068B3002547E007F0E0F933
:1013D800514B33225149524807F024FA07F0D8F903
:1013E800FEE707F0D5F94C4B34224C494C4807F03E
:1013F80019FA07F0CDF9FEE707F0CAF9464B35228E
:101408004649474807F00EFA07F0C2F9FEE707F029
:10141800BFF9414B3C224149414807F003FA07F024
:10142800B7F9FEE707F0B4F93B4B3D223B493C488E
:1014380007F0F8F907F0ACF9FEE7CDF800A0394B52
:1014480088223649384807F0EDF903E0314B18682F
:1014580000F0D6FC0A2029F0D5FB0135012D50DC1F
:10146800324E56F835A0CDF804A00097304B314ADB
:1014780080212848006865F0C9F806EBC50673683E
:10148800012BE3D13B462C4A8021404665F0BEF84B
:101498003B462A4A8021484665F0B8F814AE5346C0
:1014A800274A2021304665F0B1F80DF1300B53463C
:1014B800244A2021584665F0A9F80A97224B099337
:1014C80008970797CDF818B00596CDF810A0CDF875
:1014D8000C90CDF80880CDF804A0009753461B4A1D
:1014E8004FF48061204665F091F8B0F5806FA4D282
:1014F80000902346074A12680121002000F006FCEC
:10150800A8E740462BF000FC48462BF0FDFB1DB039
:10151800BDE8F08F280600208CA3070804AA070856
:10152800D4A3070808AC0708ECA50708883F0908F2
:1015380018AA0708ECA3070820AA070830AA070872
:1015480040AA070848AA0708C0A5070850AA07081C
:10155800012804D0022804D028B904487047044858
:101568007047044870470448704700BF38AC070804
:1015780040AC07084CAC0708C071080870B590B0BB
:10158800002843D00D46044600294AD0334B1B6837
:10159800002B51D00BAE00230B930C930D930E939D
:1015A8008DF83C302E4B9A78198801910092DB789F
:1015B8002C4A1121304665F029F800942A4B2B4A11
:1015C80080212648006865F021F808960794284B82
:1015D800069305940494039402940194009423467A
:1015E800244A4FF48061284665F010F8B0F5806F02
:1015F8002DD200902B46194A12680121002000F0D4
:1016080085FB0A2029F0FEFA10B070BD07F0C0F87B
:10161800194B2E2219491A4807F004F907F0B8F8AF
:10162800FEE707F0B5F8144B2F221449144807F0C9
:10163800F9F807F0ADF8FEE707F0AAF80E4B3022EC
:101648000E490F4807F0EEF807F0A2F8FEE70D4B39
:1016580072220A490C4807F0E5F8D2E7280600206C
:10166800BC430908B0AC070888AC070890AC070869
:10167800C0A50708BCAC07088CA3070874AC07080A
:10168800D4A3070858AF0708ECA5070870B5B6B08B
:1016980006460C461D461346184A402106A864F023
:1016A800B5FF3F2803D90124204636B070BD28462F
:1016B800FFF74EFFC6F30743B2B2210EC4F3074546
:1016C800A4B2059004940395029101920093330EFD
:1016D8000B4A802116A864F099FF7F2801D90124BC
:1016E800E2E7009016AB06AA0121084600F00EFBBF
:1016F80004460A2029F086FAD6E700BF7CAF07081F
:1017080088AF070870B5C6B006460C461D46134696
:10171800164A402106A864F079FF3F2803D901241E
:10172800204646B070BDC6F30743B2B2210EC4F3DB
:101738000740A4B205950494039002910192009386
:10174800330E0B4AC02116A864F060FFBF2801D9E8
:101758000124E5E7009016AB06AA0121084600F02F
:10176800D5FA04460A2029F04DFAD9E77CAF0708D4
:10177800D8AF070881B370B588B00C46CD680DB1F5
:101788000B690BB908B070BD20220021684665F0CE
:10179800DEF824691F2C28BF1F24224629466846E4
:1017A80065F0CDFA04F120030DEB0304002304F8DF
:1017B800203C0A496846FEF75BFD0028E2D1084B49
:1017C8004FF483720749084807F02CF80221074BA9
:1017D800186827F0B3F8D5E7704700BF5CB0070872
:1017E8006CB0070874AC070888B007082406002006
:1017F800F0B585B006462A4B40F2131229492A480B
:1018080007F010F84FF0FF3500240EE0274B4FF497
:101818008E722449244807F005F8002028F0E2FEDB
:101828000BE01C46C82029F0EDF90021204B186870
:1018380027F054F810F00C0FE8D11E4B1868002858
:10184800F0D00022039203A927F0D6FC0128E9D1A1
:101858002CB9039B03B92346002BE2D01C46039BFB
:10186800A342DFD8642703FB07F7B7FBF4F7C7F1F8
:101878006407BD42D6D0019300970F4B4FF49B727B
:101888000849094806F0CEFF0C4B1968039B0093E2
:101898003B4632460A480068FFF734FF3D46C1E739
:1018A8008CB0070874AC070888B00708A8B0070808
:1018B8002406002068A70020C4B007081C060020E2
:1018C800BC43090800293DD070B58AB00C46CD68E4
:1018D8000DB10B690BB90AB070BD02AE2022002110
:1018E800304665F034F824691F2C28BF1F2422468F
:1018F8002946304665F023FA04F128030DEB03046A
:10190800002304F8203C10493046FEF7B1FC20B112
:101918000E49304665F0DFF858B10D4B23220D49CA
:101928000D4806F07FFF10210C4B186827F006F8C9
:10193800D1E702AB00930A4B28220649094806F072
:1019480071FFC8E7704700BFF0B00708F8B0070894
:1019580004B107085CB1070888B00708240600200E
:1019680070B1070894B1070830B587B000282BD0AC
:101978000C460546002932D0274B1868002839D074
:101988000095264B264A802164F040FE0595049573
:10199800244B03930295019500952B46224A4FF458
:1019A8008061204664F032FEB0F5806F2DD2009041
:1019B8002346194A12680121002000F0A7F90A20DD
:1019C80029F020F907B030BD06F0E2FE174B2E22B1
:1019D8001749184806F026FF06F0DAFEFEE706F07B
:1019E800D7FE124B2F221249124806F01BFF06F0B1
:1019F800CFFEFEE706F0CCFE0C4B30220C490D481A
:101A080006F010FF06F0C4FEFEE70B4B5F22084904
:101A18000A4806F007FFD2E72806002098B1070811
:101A2800A0B10708C0A50708C4B107088CA3070818
:101A38005CB10708D4A3070834B30708ECA5070866
:101A48002DE9F0418AB038B10F46054679B1394BD6
:101A58001B68BBB1002446E006F09AFE364B6122B3
:101A68003649374806F0DEFE06F092FEFEE706F03D
:101A78008FFE314B62223149314806F0D3FE06F021
:101A880087FEFEE706F084FE2B4B63222B492C4889
:101A980006F0C8FE06F07CFEFEE7D8F80830D8F855
:101AA8000C10099527480890079506950591049309
:101AB8000396029501960095D8F80430224A4FF40F
:101AC8008061384664F0A2FDB0F5806F26D20090A0
:101AD8003B46184A12680121002000F017F90A2035
:101AE80029F090F80134052C20DC184A04EB840C0A
:101AF80002EB8C0852F82C6001960095144B154A9D
:101B080080210C48006864F081FDD8F81030012B62
:101B1800C3D0084B186800F073F9E0E700940E4B47
:101B28009B2206490D4806F07DFED8E70AB0BDE8BD
:101B3800F08100BF280600208CA3070870B30708AF
:101B4800D4A30708C0A5070890B307086040090890
:101B580088B30708ECA3070810B50708ECA5070821
:101B680070B584B000B306461B4B1B683BB300241A
:101B7800082C2FDC194B04EB840203EB820153F889
:101B88002230CA68144D029201930096144B154AEC
:101B98008021286864F03AFD286800F031F90A20AD
:101BA80029F030F80134E3E706F0F2FD0E4BAF22DE
:101BB8000E490F4806F036FE06F0EAFDFEE706F08D
:101BC800E7FD094BB0220949094806F02BFE06F04B
:101BD800DFFDFEE704B070BD28060020AC3F090811
:101BE80088B3070830B507088CA3070870B307083F
:101BF800D4A3070870B582B078B105461A4B1B68A4
:101C080083BB06F0C5FD194B4FF48C72184919486F
:101C180006F008FE06F0BCFDFEE706F0B9FD134B22
:101C280040F217121249134806F0FCFD06F0B0FD09
:101C3800FEE704EB8402104B53F822300A4E01935E
:101C480000950E4B0E4A8021306864F0DFFC306846
:101C580000F0D6F80A2028F0D5FF0134002CE8DD82
:101C680002B070BD0024F9E7280600208CA30708FD
:101C780070B30708D4A30708983F090888B3070872
:101C8800ECA3070868B1006858B151B110B582B02B
:101C98000024009403230A78214629F05BFE02B051
:101CA80010BD7047014B1860704700BF2006002028
:101CB80008B512F08DFE124BA3FB00239B0D114AB1
:101CC80002FB1303104A1A44002A16DDD30E5101F1
:101CD800891A63F100039B0043EA9173890089180C
:101CE80043F100034FEAC30C4FF47A720023C80093
:101CF8004CEA5171FEF7B2FF08BD0122E6E700BFCA
:101D0800B17C219500DD6D00806DEF042DE9F04375
:101D18008FB0002A31D0074688461D461646334BF9
:101D28001B68002B34D0002409940A940B940C945B
:101D38000D940DF11C0907940894049405940694D5
:101D4800214620462AF05AF88DF824708DF825800F
:101D58000A963046FEF796FAADF82C000C95169BBD
:101D68000D9329F0B7FB07904FF4FA730693204BB5
:101D78000493CDF8149001251CE006F009FD1D4BD5
:101D880058221D491D4806F04DFD06F001FDFEE7ED
:101D980006F0FEFC174B59221749184806F042FD79
:101DA80006F0F6FCFEE7039BE3B10325FA2028F0D2
:101DB80029FF0134042C15D804AA09A90B4B18686B
:101DC80056F0CBFA05460028F0D1039041F288334B
:101DD800009303AB0246014629F042FD0128E2D0F8
:101DE8000325E3E728460FB0BDE8F083200600206E
:101DF8008D1C01088CA30708E4B60708D4A30708BC
:101E080000B583B040B1024600200090034601218E
:101E1800FFF77CFF03B000BD06F0BAFC044B962226
:101E28000449054806F0FEFC06F0B2FCFEE700BFD8
:101E38008CA30708E4B60708D4A307082DE9F041E6
:101E480084B020B30C4616461D46074651B3002BF6
:101E580033D03A4B1B68002B3AD080202AF06EFE14
:101E6800804600283FD000943B46354A802164F0E4
:101E7800CDFB7F2842D800220092334641462F48A6
:101E8800006803F057FA00284CD1012440E006F01E
:101E98007FFC2C4BA7222C492C4806F0C3FC06F0EB
:101EA80077FCFEE706F074FC264BA8222649274853
:101EB80006F0B8FC06F06CFCFEE706F069FC214B66
:101EC800A9222149214806F0ADFC06F061FCFEE795
:101ED80006F05EFC1B4BAA221B491C4806F0A2FC1C
:101EE80006F056FCFEE706F053FC164BAD221649E9
:101EF800164806F097FC06F04BFCFEE702940197A3
:101F08000095134BB7221049124806F08BFC0024A9
:101F18000A2028F077FE40462AF0F6FE204604B054
:101F2800BDE8F081CDF8048000950B4BC822064926
:101F3800084806F077FC0024EAE700BF20060020E6
:101F4800F4B607088CA30708E4B60708D4A3070863
:101F5800FCB60708ECA507082CB7070810B582B02F
:101F680090B10446D9B11D4A106818B300220092F6
:101F78000B46214603F0DEF938BB01240A2028F07D
:101F880041FE204602B010BD06F002FC144BDC22D4
:101F98001449154806F046FC06F0FAFBFEE706F081
:101FA800F7FB0F4BDD220F490F4806F03BFC06F00C
:101FB800EFFBFEE706F0ECFB094BDE2209490A4875
:101FC80006F030FC06F0E4FBFEE70094074BE8223D
:101FD8000449074806F026FC0024CFE72006002025
:101FE8008CA30708E4B60708D4A3070850B7070866
:101FF800ECA5070830B583B048B30C461546034630
:1020080081B3002A39D02C4A1068002840D02B4AC6
:10201800802164F0FBFA40F2FF322946204664F042
:10202800E1FC002384F8FF332046FEF72BF9B0F5D6
:10203800806F38D2009023461F4A12680121002081
:10204800FFF764FE0A2028F0DDFD03B030BD06F07E
:102058009FFB1B4BF8221B491B4806F0E3FB06F0CD
:1020680097FBFEE706F094FB154BF9221549164835
:1020780006F0D8FB06F08CFBFEE706F089FB104B58
:10208800FA221049104806F0CDFB06F081FBFEE766
:1020980006F07EFB0A4BFB220A490B4806F0C2FBFE
:1020A80006F076FBFEE7094B4FF4897205490848AC
:1020B80006F0B8FBC6E700BF2806002074B707087B
:1020C8008CA30708E4B60708D4A307088CB7070849
:1020D800ECA5070861B30B46C96849B370B584B06D
:1020E8001C690CB904B070BD0026009601960296D2
:1020F80003960F2C28BF0F242246684664F01FFE63
:1021080004F110030DEB030202F8106C094968464C
:10211800FEF7AEF80028E5D1074B4D2207490848DD
:1021280006F080FB2021074B186826F007FCD9E74A
:10213800704700BFB4B70708BCB7070814B807084A
:1021480088B007082406002038B500283AD00C4685
:102158000546002941D0FFF711FA21462846FFF726
:102168001DF921462846FEF74DFF21462846FFF770
:1021780067FC2846FFF7F4FC2846FFF73BFD21469D
:102188002846FEF7B9FF21462846FFF77BF8214687
:102198002846FFF7E9FB4FF47A7028F033FD144B1B
:1021A800186802232A460146FFF770FA114A2146A9
:1021B8002846FFF71FFF104BA1221049104806F0D0
:1021C80031FB38BD06F0E4FA0E4B5D220B490E4890
:1021D80006F028FB06F0DCFAFEE706F0D9FA094B10
:1021E8005E220649084806F01DFB06F0D1FAFEE714
:1021F800BC430908B4B7070820B8070814B807088B
:1022080088B007088CA30708D4A307082DE9F04174
:1022180084B00023039302F0A9FD02F0A1FD002879
:102228003DD0044602F064FD2046FFF73BFD03A9BC
:10223800002009F039F8054600283BD04FF48060AB
:102248002AF07CFC804600283FD080202AF076FCCB
:10225800854B1860002843D00095844BC6228449DA
:10226800844806F0DFFA26F09AFA834B18600028B3
:1022780041D0824B824A83492846FFF7DFFD824BD3
:10228800824A83492846FFF7D9FD82498248FFF7E9
:1022980065FE41462846FFF757FF0026B3E006F0E3
:1022A80077FA7E4BB52272497D4806F0BBFA06F0F4
:1022B8006FFAFEE706F06CFA784BBE226C49784854
:1022C80006F0B0FA06F064FAFEE706F061FA734B1E
:1022D800C1226749724806F0A5FA06F059FAFEE7E6
:1022E80006F056FA6D4BC42261496D4806F09AFA19
:1022F80006F04EFAFEE706F04BFA684BC9225C4935
:10230800674806F08FFA06F043FAFEE7654BF522B8
:102318005749584806F086FA634B196800232A463D
:1023280062480068FFF7B2F97DE0614BFB22504933
:10233800504806F077FA5C4B196801232A465B4837
:102348000068FFF7A3F900230193022300932B46AB
:102358004FF480625749584828F032F9012666E060
:10236800434F444E554B40F20B123946304606F067
:1023780059FA534B4FF486723946304606F052FAF2
:102388000DF014F8002655E04E4B4FF48A72384988
:10239800384806F047FA41462846FFF7D5FE00269A
:1023A8004BE0494B4FF492723149324806F03AFA01
:1023B800464A41462846FFF71DFE4FF47A7028F03A
:1023C80021FC0CF0F3FF14F0200700D1DCB9002E3B
:1023D80040D112F0FDFA3E4BA3FB0023DB0B3D4A34
:1023E80002FB130028F00EFC002F3BD03A4B009361
:1023F8003A4B4FF49B721E491E4806F013FA4146A9
:102408002846FFF7A1FE1C4B1C68FFF751FC009003
:10241800002301223F21204626F0D0F9044610F07F
:10242800010F7FF473AF14F0020F7FF47EAF14F046
:10243800040F95D114F0080FA6D114F0100FC2D0D4
:10244800002EAED0264B4FF490720949094806F089
:10245800E9F9D8E7234B40F22F120549054806F061
:10246800E1F9D0E7204BC2E72806002064B8070846
:1024780014B8070888B0070824060020A8B8070879
:102488007D170108B4B80708C0B80708CD180108B7
:10249800D0B80708DD200108DCB807088CA30708B6
:1024A800D4A30708F4B807081C060020BC43090891
:1024B8000CB9070828B90708F917010838B9070837
:1024C80050B907087CB90708C4B90708D4B9070880
:1024D80073B2E745C0D401004CB807080CBA070826
:1024E80098B90708DCB9070858B8070830B54FF09D
:1024F800000E4FF00C0C09E010F80C302F2B13D005
:10250800002010E00EF1010E0CF1010C8C4509D2EF
:102518009E45F1D012F80E5010F80C40A542F1D0AB
:10252800002000E0002030BD0120FCE70B4B0360D9
:102538004FF48272828099188160828103F5027259
:1025480002618022828203F5227181614FF4006169
:10255800C16103F688230362828470473406002031
:1025680008B54EF0E5FA022806D007DB0438C0B2F9
:10257800032805D9002002E0012000E0002008BD62
:102588000120FCE708B54EF043FA002028F02AF8AD
:1025980008BD000008B5002828D01A4A02601A4A67
:1025A80042601A4A82601A4AC2601A4A42611A4A4A
:1025B80082611A4AC2611A4A02621A4A42621A4A75
:1025C80082621A4A02631A4AC2621A4AC2651A4ADF
:1025D80082651A4AC2641A4A02651A4A82641A4A09
:1025E80042651A4A02641A4A426408BD06F0D0F8E5
:1025F800184B40F2C3421849184806F013F906F080
:10260800C7F8FEE72931060875310608B53106080E
:10261800113206082532060859330608C53306085C
:10262800353406083D340608852B0108352C010889
:10263800D92A010815550208D55702080554020879
:102648006156020869590208A15502085D5A020834
:10265800A15202088CA3070856BA0708D4A3070892
:1026680038B598B10C46054600F500534FF0FF31D8
:10267800D3F80C0A26F06EFE012813D00F4B40F257
:10268800F1120F490F4806F0CDF838BD06F080F872
:102698000D4B4FF4F4720A490C4806F0C3F806F0E3
:1026A80077F8FEE7002184F8001E05F500550B4673
:1026B8000A46D5F80C0A26F0B7FBE6E768BA070819
:1026C80056BA0708ECA507088CA30708D4A307087F
:1026D80010B582B007285CD8DFE800F004161E3A6F
:1026E8004B5B5B53304C314B40F2DE222146304885
:1026F80006F098F84FF08AFB2E4B40F2EB22214669
:102708002D4806F08FF84CE02C4B40F2F322264976
:10271800274806F087F844E0294B40F2FF22224977
:10272800234806F07FF802204FF0A2F938B9254B6C
:1027380040F226321C491E4806F074F831E0009039
:10274800214B40F22A3218491B4806F06BF828E062
:1027580019B11E48FFF784FF23E006F019F81C4B57
:1027680040F2323210491B4806F05CF806F010F8C7
:10277800FEE7194B4FF44F720B490F4806F052F819
:102788000FE0164B4FF450720749094806F04AF813
:1027980007E00090124B4FF451720349114806F0BC
:1027A80041F802B010BD00BF56BA070888BA07083A
:1027B80088B00708C0BA0708ECA50708E0BA0708F8
:1027C8001CBB070854BB070888BB07083C1100203E
:1027D8008CA30708D4A30708C0BB070800BC0708D8
:1027E80014BC070894B1070838B5B0B1054600F520
:1027F80000534FF0FF31D3F80C0A26F0ABFD012847
:102808002BD10023022B1CD840F6046202FB035292
:1028180092F8002E6AB10133F4E705F0B9FF134BC3
:102828004FF4FE721249134805F0FCFF05F0B0FFA3
:10283800FEE740F6046202FB0354012384F8003EDD
:1028480000E0002405F5005500231A461946D5F87E
:102858000C0A26F0E9FA204638BD074B40F20E2252
:102868000349064805F0DEFF0024F4E78CA30708B7
:1028780056BA0708D4A3070868BA0708ECA50708DA
:10288800F0B585B0002302930393002932D00C469B
:10289800344B1D68002D39D04F680E892846FDF746
:1028A800F1FC03462A4631463846FFF71FFE012849
:1028B8004CD1236940F6FA5293423BD800932A4BF5
:1028C80040F2993229492A4805F0ACFF2948FFF718
:1028D8008BFF054630B32269E16864F030FA23695A
:1028E800C5F8FC3D03238DF80C30029502A84EF084
:1028F8003BFB34E005F04CFF1F4B40F28D321B4987
:102908001E4805F08FFF05F043FFFEE705F040FF86
:10291800194B40F28E321549184805F083FF05F02F
:1029280037FFFEE7164B4FF46A721049154805F059
:1029380079FF14E040F6FA5201920093124B40F2EC
:10294800AD320A490F4805F06DFF08E0019700967F
:102958000E4B40F2B23205490D4805F063FF05B051
:10296800F0BD00BF3006002054BC070856BA07085F
:1029780088B007083C1100208CA30708D4A30708D7
:102988007CBC0708ECA50708A4BC0708FCBC070822
:1029980094B1070870B584B000230293039329B358
:1029A8000C464E680D89274B1B68274A1268294632
:1029B8003046FFF79BFD012838D1236940F6FA52CB
:1029C800934227D82148FFF70FFF0546D0B1226967
:1029D800E16864F0B4F92369C5F8FC3D06238DF875
:1029E8000C30029502A84EF0BFFA28E005F0D0FEA0
:1029F800174B40F255321749174805F013FF05F0F9
:102A0800C7FEFEE7154B40F271321249144805F033
:102A180009FF14E040F6FA5201920093114B40F27C
:102A280076320C490E4805F0FDFE08E00196009547
:102A38000D4B40F27D3207490C4805F0F3FE04B017
:102A480070BD00BF2C060020300600203C1100207D
:102A58008CA3070856BA0708D4A307087CBC070844
:102A6800ECA5070854BD0708A0BD070894B10708DE
:102A780070B584B0054600238DF80F308CB20DF187
:102A88000F03009314230E4A214652F087FE9DF847
:102A98000F3023B9002623B1304604B070BD094E6B
:102AA800F9E70DF10F0300931723074A214628463B
:102AB80052F074FE9DF80F30002BEDD0034EEBE77B
:102AC800F8BD07088928010810BE07089D290108D4
:102AD80070B584B070B10C460546B9B905F058FE1A
:102AE8001F4B40F297421F491F4805F09BFE05F017
:102AF8004FFEFEE705F04CFE194B40F2964219498D
:102B0800194805F08FFE05F043FEFEE7FFF7B0FF1A
:102B1800064602F025F9F8B106B3002332462946E5
:102B280002F04AFD064658B9019500940F4B40F251
:102B3800B4420C490E4805F075FE304604B070BD2D
:102B48000290019500940B4B40F2AB4205490A48AC
:102B580005F068FEA226F0E7A226EEE7A226ECE73B
:102B68008CA3070856BA0708D4A3070860BE07084D
:102B780088B0070828BE0708ECA50708F0B583B099
:102B880078B10C4615460646B9B905F001FE204B4A
:102B980040F21B421F49204805F044FE05F0F8FDAD
:102BA800FEE705F0F5FD1A4B40F21A4219491A489A
:102BB80005F038FE05F0ECFDFEE7FFF759FF074684
:102BC80002F0CEF8F8B107B3002300933B462A463B
:102BD800314602F0AFFB054658B9019600940F4BF9
:102BE80040F237420B490E4805F01CFE284603B058
:102BF800F0BD00900B4B4FF4866206490A4805F079
:102C080011FEA125F2E7A125F0E7A125EEE700BF17
:102C18008CA3070856BA0708D4A30708B0BE07084C
:102C280088B0070880BE0708ECA5070870B58CB007
:102C380005460C4600200790089009900A900B90D2
:102C4800049005900690039002900895ADF8241022
:102C58009DF840108DF81C100A920B93014629F03C
:102C6800CDF828F037FC029042F2107306931B4B04
:102C7800049302AB059302F073F860B304AA07A9A2
:102C880055F06BFB064660B942F21073009303AB34
:102C98004FF0FF320021084628F0E2FD01280CD051
:102CA800032600960E4B40F27D420E490E4805F071
:102CB800B9FDA02630460CB070BD9DF80C60002E02
:102CC800EFD101950094094B40F28242054908482A
:102CD80005F0A8FDEEE7A026ECE700BFFD2C0108F3
:102CE800CCBE070856BA0708ECA5070808BF0708AE
:102CF80088B0070800B583B058B10A460068A0B18B
:102D0800F9B1002100910323127828F023FE03B0C3
:102D180000BD05F03DFD114B40F207421049114836
:102D280005F080FD05F034FDFEE705F031FD0B4BA5
:102D38004FF481620A490B4805F074FD05F028FD3F
:102D4800FEE705F025FD054B40F209420449054818
:102D580005F068FD05F01CFDFEE700BF8CA3070821
:102D680056BA0708D4A3070810B578B1044642F646
:102D78000C22002163F0EBFD012026F021F904F577
:102D88000054C4F80C0A00B1012010BD05F000FD84
:102D9800044B40F2D5120449044805F043FD05F000
:102DA800F7FCFEE78CA3070856BA0708D4A3070860
:102DB80030B5B3B00024309431940AAD382221469E
:102DC800284663F0C4FD18A8FFF7E4FB2846FFF780
:102DD800ADFB7C4BDA7899781B88029301910092BD
:102DE800794B4FF4A6627949794805F01BFD79497A
:102DF800204608F059FA784B186010B1754B1B68DB
:102E080013BB764B40F24F527049754805F00AFDE6
:102E180000231C46002B40D10125724B40F2CA52B8
:102E28006A496B4805F0FEFC002D00F0BA806A4B39
:102E3800186820B129F068FF674B00221A6000204B
:102E480027F0D0FB33B030BD674B40F256525F4994
:102E58005F4805F0E7FC654B009301230022202121
:102E68006348006825F0AAFC10F0200F0BD0614BD6
:102E78004FF4AC625549564805F0D4FC01F070FF98
:102E880004460123C6E75C4B40F266524F4950485E
:102E980005F0C8FC01230024BCE784B1002200929D
:102EA800564B5749204602F045FA054640B1554B66
:102EB80040F2755245494A4805F0B4FCADE7012592
:102EC80044B1002200924D4B4F49204602F032FA9D
:102ED8000546A8B94D48FFF747FF01289DD14C4B3F
:102EE8003D4A126818A90AA84DF0B4FD80B10090B7
:102EF800484B40F297523549394805F093FC8CE726
:102F0800454B40F285523149354805F08BFC84E742
:102F180000230193032200924FF480523F49404816
:102F280027F04EFB012808D000903E4B40F2A652F5
:102F380026492B4805F076FC6FE700238DF8C4304E
:102F480030A84EF011F808E047F2305027F05AFE4A
:102F58004DF0EEFD0A283FF460AF00230693079377
:102F680008930993FFF7FCFA0128EDD106A84DF064
:102F7800E5FD0028E8D14DF0DBFD099B0493089B93
:102F88000393079B0293069B0193274B53F820302A
:102F98000093264B40F2BD520C490D4805F042FC07
:102FA800D2E70023154A1649204602F005FB0028FF
:102FB8003FF43DAF1E4B40F2D5520449084805F096
:102FC80031FC34E7BC43090838BF070856BA07087C
:102FD80088B007082C0600203006002060BF0708CC
:102FE800ECA507086CC1070890BF0708C0D401000A
:102FF800F0860020B8BF0708E0BF07088928010845
:1030080014C0070834C0070870C007083C11002026
:10301800D9260108C0C0070890C00708F0C00708F3
:103028008D250108FCC00708D840090828C10708F1
:1030380098C1070808B5044B186818B10022012187
:1030480025F0D4FC08BD00BF503B002008B5044B58
:10305800186818B10022012125F0C8FC08BD00BF7E
:10306800503B00202DE9F0418EB007460E4614462D
:103078001D46002009900A900B900C900D900DF1C0
:103088001C0807900890049005900690039001464C
:1030980028F0B4FE8DF824708DF825600A94204637
:1030A800FDF7F0F8ADF82C000C95149B0D9328F063
:1030B80011FA07904FF4FA730693124B0493CDF864
:1030C800148002E0039BB3B9BCB104AA09A90E4B52
:1030D800186855F042F904460028F5D14FF0FF333F
:1030E800009303AB00221146104628F0B9FB0128D3
:1030F800E8D00324E8E70324E6E720460EB0BDE85D
:10310800F08100BF153101084C3B0020006850B128
:1031180010B582B00024009403230A78214628F0D1
:1031280019FC02B010BD70472DE9F04186B00023AC
:10313800059301F01BFE01F013FE894B186000286F
:103148003DD001F0D5FD874B40F20B1286498748E8
:1031580005F068FB05A9002008F0A6F80546002838
:1031680039D04FF4007029F0E9FC044600283ED01D
:1031780025F015FB7E4B1860002844D02B467D4A6D
:1031880040217D4863F042FA00227C494FF4005008
:103198000BF0D0FF00227A494FF400500BF0EEFFFD
:1031A8000025002D40F09780764B03EB05135968F6
:1031B8006F4B186825F0C2FB0135EDB2F1E705F059
:1031C800E7FA714B4FF483726749704805F02AFBA0
:1031D80005F0DEFAFEE705F0DBFA6B4B4FF4877279
:1031E80061496A4805F01EFB05F0D2FAFEE705F0D2
:1031F800CFFA654B40F211125B49644805F012FBA7
:1032080005F0C6FAFEE705F0C3FA5F4B4FF48A7281
:1032180055495E4805F006FB05F0BAFAFEE7594A3B
:1032280002EB0312526811430133DBB255E0B0469A
:10323800544F07EB0617B989B86818F03BFFF873C5
:10324800BB7B834216D0524A6019C5F50071142D14
:1032580012DD504B01924FEA08184A4A52F80820EA
:1032680000924D4A63F0D2F9002807DB0544013685
:10327800F6B24BE0494AE7E7494BEBE705F088FA35
:10328800414B40F253123849404805F0CBFA05F05B
:103298007FFAFEE705F07CFA3B4B40F25B123249BD
:1032A8003A4805F0BFFA05F073FAFEE705F070FA40
:1032B800354B40F25F122C49344805F0B3FA05F05B
:1032C80067FAFEE72C4B0093364B4FF4B972264948
:1032D800354805F0A7FA00231946002B9FD04FF078
:1032E800FF330093002301222148006825F066FA85
:1032F8000028F0D02D4D0FCD20606160A260E36002
:10330800286820612B79237500261425002E8ED07D
:10331800274AC5F50071601963F078F90028B9DB10
:103328000544B5F5007FC1D202940195124E00966E
:10333800204B40F261120C490C4805F073FA0095D5
:103348002346324601210020FFF78CFE0028B9D120
:10335800194B4FF4B7720449044805F063FABAE709
:103368004C3B002080C2070871C2070888B00708D4
:10337800503B0020B8C20708543B002055300108D4
:103388003D300108000000208CA30708D4A30708DB
:10339800D0C4070858C20708ECC20708C4C4070805
:1033A800B881080870C30708ECA50708D4C2070845
:1033B8000CC3070814C3070844C3070804280CD81B
:1033C800DFE800F0030D05070900064870470648C6
:1033D80070470648704706487047064870470648D1
:1033E800704700BFA0C30708B0C30708B8C30708E1
:1033F800C0C30708C0710808A8C3070830B5A3B040
:103408000546154B154A802102A863F0FFF809E02C
:1034180002AB0093124B40F235221249124805F0D4
:1034280001FAACB100230093104B2A4602A9104CB4
:10343800206801F07FFF04460028E9D002AB009322
:103448000C4B40F2332207490B4805F0EBF9E8E74B
:10345800204623B030BD00BFA03B0020C8C30708EA
:1034680018C4070808C4070888B00708AD3501085C
:103478009C3B0020DCC30708ECA5070838B50546C7
:1034880000240CB1002038BD04EB84032946074A08
:1034980052F82300FCF7ECFE10B10134E4B2F0E777
:1034A80004EB8404014800EB8400ECE710000020E2
:1034B80010B5044601220188406818F002FE4FF456
:1034C8007A7027F09FFB00222188606818F0F9FDC8
:1034D80010BD08B50430FFF7EBFF08BD08B5043090
:1034E800FFF7E6FF08BD08B50430FFF7E1FF08BDA8
:1034F80070B582B005460C46FFF7C0FFF8B1064626
:1035080027F0E2F9054620492046FCF7B1FEF8B15C
:103518001E492046FCF7ACFE40B31D492046FCF787
:10352800A7FE08BB3046FFF7DEFF02237373356141
:103538004FF40071174B186825F000FA14E0009555
:10354800154B40F2CB121549154805F06BF90BE005
:103558003046FFF7BEFF0023737335614FF40071E7
:103568000C4B186825F0EAF902B070BD3046FFF739
:10357800B5FF0123737335614FF40071054B18686B
:1035880025F0DCF9F0E700BF40C4070848C4070885
:1035980050C40708F086002028C4070808C4070894
:1035A80094B1070870B5B8B00C460D897F2D00D9C5
:1035B8007F252A46616818A863F0C1FB05F1E0037E
:1035C8000DEB0305002305F8803C25693F2D00D944
:1035D8003F252A46E16808A863F0B1FB05F1E0033E
:1035E8000DEB0305002305F8C03C114918A863F04A
:1035F80072FA0546C8B107352F21284663F0AFF99E
:1036080098B1441B1F2C00D91F242246294668461E
:1036180063F095FB04F1E0030DEB0304002304F8C9
:10362800E03C08A96846FFF763FF38B070BD00BFEB
:1036380058C4070800B583B00022019201A9104BB5
:10364800186825F0D9FD01280CD00E4B1B6883B1F2
:103658000D4B1B68B3F5FA7F0DD3B3F5487F0DD832
:10366800052009E0084B019A1A60064B01221A60EE
:10367800EBE7052000E0002003B000BD0120FBE7D8
:10368800844E0020943B0020983B002038B5044627
:10369800FFF7D0FF054627F017F904EB8402134B18
:1036A80003EB82031B69C01A012D09D00F4B03EBF2
:1036B80082035D7B012D05D0022D0FD045B1002579
:1036C800284638BD42F6F72398420CD90025F7E77B
:1036D80043F2AF639842F3D80425F1E7044B9842CC
:1036E800EED90025ECE70325EAE700BF100000202B
:1036F800BFC62D002DE9F0418EB007460E46144690
:103708001D46002009900A900B900C900D90069091
:10371800079008900DF11008049005900390014659
:1037280028F06CFB8DF824708DF825600A942046EB
:10373800FCF7A8FDADF82C000C95149B0D9327F011
:10374800C9FE04904FF4FA730893114B0693CDF811
:103758001C8003E0039B03B10324ACB106AA09A9AA
:103768000C4B186854F0F9FD04460028F5D14FF0C9
:10377800FF33009303AB00221146104628F070F87F
:103788000128E7D00324E8E720460EB0BDE8F08121
:10379800193801089C3B002030B5ABB004460AAD8F
:1037A800036800930C4B0D4A8021284662F02EFFD7
:1037B800207BFFF703FE034602AC094A202120467E
:1037C80062F024FF009023462A4601210846FFF7AD
:1037D80091FF2BB030BD00BFA03B002048A60708D2
:1037E80040EC0708F8B5002404B1F8BD04EB8406E2
:1037F800064D05EB86062046FFF748FF3073304636
:10380800FFF7CAFF0134E4B2EEE700BF1000002062
:10381800006850B110B582B00024009403230A78E0
:10382800214628F097F802B010BD704770B584B0F3
:1038380001F09CFA01F094FA3A4B1860002842D043
:1038480001F056FA0020039003A907F02DFD054664
:10385800002844D0039E344C32460146204663F08B
:103868006EFA0023A355284629F04EFA00942F4BF0
:1038780040F26E222E492F4804F0D4FF2E4B1B68CD
:10388800002B38D00120FFF7B9FDFFF7ABFF4FF44D
:103898007A730093002301224FF4007127480068CF
:1038A80024F08CFF0024002CF1D12046FFF7EEFE17
:1038B80004EB8402224B03EB82031B7B834226D159
:1038C8000134E4B2EFE704F063FF1E4B40F26222DA
:1038D80017491D4804F0A6FF04F05AFFFEE704F05C
:1038E80057FF184B4FF41A721149174804F09AFF02
:1038F80004F04EFFFEE704F04BFF124B40F271223A
:103908000B49114804F08EFF04F042FFFEE70C4A11
:1039180004EB840302EB830318731846FFF73CFF9C
:10392800CEE700BF9C3B0020A03B002060C40708F6
:1039380008C4070888B00708844E0020F0860020D5
:10394800100000208CA30708D4A3070870B582B024
:1039580006460D460CE02846FCF794FC01950090BD
:103968000F4B40F2A9120F490F4804F05BFFA4B1B6
:10397800002300930D4B324629460D4C206801F078
:10398800D9FC04460028E6D000900A4B40F2A51264
:103998000449094804F046FFE9E7204602B070BD33
:1039A800B0BE070896C4070888B00708493C010854
:1039B800603C002080BE0708ECA507082DE9F0410F
:1039C8008EB007460E4614461D46002009900A9000
:1039D8000B900C900D900DF11C0807900890049026
:1039E800059006900390014628F008FA8DF8247097
:1039F8008DF825600A942046FCF744FCADF82C00AD
:103A08000C95149B0D9327F065FD07904FF4FA73FE
:103A18000693124B0493CDF8148002E0039BB3B9CC
:103A2800BCB104AA09A90E4B186854F096FC0446C8
:103A38000028F5D14FF0FF33009303AB0022114665
:103A4800104627F00DFF0128E8D00324E8E70324F7
:103A5800E6E720460EB0BDE8F08100BF6D3A0108E8
:103A6800603C0020006850B110B582B0002400947A
:103A780003230A78214627F06DFF02B010BD704776
:103A88002DE9F04397B0074600261596149634465C
:103A980011E02A465F49404662F092FF00283AD179
:103AA8005D4B03EB04131B7B5C4A52F82320002A6E
:103AB80050D00134E4B2012C59D8A1462301564A0A
:103AC800D358574A402104A862F0A0FD0546431E7A
:103AD8003E2BEED84FF00008CDF85480CDF850803A
:103AE8003846FCF7CFFB0146CDF8088014AB0193AC
:103AF80015AB00932B4604AA384650F001FD012867
:103B0800D7D1DDF85480B8F1000FD2D0149D002D24
:103B1800CFD0022DBDD0032DCBD12A4641494046F6
:103B280062F04EFF0028C4D13B4B03EB09131B7B0B
:103B38003A4A52F82350012DBBD1002142F82310F4
:103B4800354B03EB0913DA7A1989586818F0B9FA72
:103B58002E46AEE70126314A42F823602E4B03EB8E
:103B680004139A7A1989586818F0ABFAA1E73EB994
:103B78002D493846FCF77CFBA8B9284B1B6823B1B4
:103B8800012E0AD017B0BDE8F083244B01221A6039
:103B980000224021254818F094FA0121244B186886
:103BA80024F0CCFEEEE723493846FCF761FB60B908
:103BB8001A4B1B68012BE3D1184B00221A60012213
:103BC80040211A4818F07DFAE7E71B493846FCF708
:103BD8004FFB60B9114B5B68002BD1D10F4B012211
:103BE8005A6000228021114818F06BFAD5E7134972
:103BF8003846FCF73DFB0028C2D1084B5B68012B17
:103C0800BED1064B00225A6001228021074818F0D5
:103C180058FAC2E7C4C4070808410908703C0020E4
:103C2800A4C40708D0C40708BCC40708001C024283
:103C3800643C0020C8C40708D4C40708E4C40708C3
:103C480030B583B00C460A697F2A16D90F4D8022F9
:103C5800C968284663F073F8002385F87F300B4C59
:103C680000940B4B40F28F120A490B4804F0DAFD1E
:103C78002046FFF705FF03B030BD044DC96828464C
:103C880063F05DF823690022EA54E8E7E03B00208E
:103C9800F4C4070896C4070888B0070870B586B04A
:103CA8000023059301F062F801F05AF8694B186097
:103CB800002831D001F01CF8674B40F20E2267490A
:103CC800674804F0AFFD05A9002007F0EDFA0446A7
:103CD80070B3802028F032FF0546002834D02346F0
:103CE800604A4021604862F091FC23465F4A4021C7
:103CF8005F4862F08BFC24F052FD5E4B186078B38D
:103D08005B490120FFF722FE002835D10121594BDC
:103D1800186824F013FE74E004F03AFD564B40F2A4
:103D28000A224E49554804F07DFD04F031FDFEE7B6
:103D380004F02EFD504B40F2112248494F4804F040
:103D480071FD04F025FDFEE704F022FD4A4B4FF417
:103D580005724249494804F065FD04F019FDFEE783
:103D680004F016FD444B40F21B223C49434804F042
:103D780059FD04F00DFDFEE73D4B0093404B40F22A
:103D8800222236493F4804F04DFD002026F02AFC47
:103D9800BCE73D4A52F823103C4A42F8231001334D
:103DA800DBB2012BF5D9384B1B68002B38D0384BC8
:103DB800354A5268002A35D0354A0092354A802162
:103DC800284662F023FC04467F282DD802950190EE
:103DD800254E0096304B40F246222049204804F0F8
:103DE80021FD00942B46324601210846FFF7E6FDE7
:103DF80030BB0096294B40F253221849184804F06A
:103E080011FD4FF0FF33009301231A461946194854
:103E1800006824F0D3FC10F0010FF2D00023C0E7B3
:103E28001F4BC5E71E4AC8E704F0B2FC124B4FF41B
:103E380011720A49114804F0F5FC04F0A9FCFEE7E8
:103E4800094B0093174B4FF4167204490D4804F0C0
:103E5800E9FCD6E7603C00201CC5070896C40708A3
:103E680088B0070830AA0708783C002020AA07086D
:103E7800B83C0020643C00208CA30708D4A30708A2
:103E880064C50708ECA50708703C0020683C0020C2
:103E9800C4C4070888C50708E4C507080CC607088E
:103EA800D0C4070830C607080F4B1B6803B170471A
:103EB80010B582B000220421202024F03DFF0A4BD7
:103EC800186000240BE0094B03EB04130193002353
:103ED8001A4601A90448006824F0A6FF01341F2CE3
:103EE800F1D902B010BD00BFF83C0020FC3C002016
:103EF80010B582B000230193174B1C682CB3C30E76
:103F08004101091A63F100039B0043EA9173890098
:103F1800091843F100034FEAC30C4FF47A720023E7
:103F2800C8004CEA5171FCF799FE024601A92046E7
:103F380025F062F910B1019802B010BD074B5A2262
:103F48000749084804F06EFCF5E7074B5F2204496F
:103F5800044804F067FCEEE7F83C002050C6070868
:103F680083C60708ECA507089CC6070800B585B0F6
:103F78000390134B1868A0B1039B124A934203D3D2
:103F880002F50072934214D900930F4B73220F4924
:103F98000F4804F047FC0020003818BF012005B086
:103FA80000BD0C4B6D220949094804F03BFC002078
:103FB800F2E700231A4603A924F036FFECE700BF16
:103FC800F83C0020FC3C0020BCC6070883C6070854
:103FD800ECA507089CC6070838B538B1054689B16D
:103FE800132A1BD8132B25D8002030E004F0D0FB6F
:103FF800214B40F24F122149214804F013FC04F0F0
:10400800C7FBFEE704F0C4FB1B4B4FF4A8721B4927
:104018001B4804F007FC04F0BBFBFEE704F0B8FB08
:10402800154B40F251121549154804F0FBFB04F0FA
:10403800AFFBFEE704F0ACFB0F4B4FF4A9720F493E
:104048000F4804F0EFFB04F0A3FBFEE70130132850
:1040580010D805EB001E02EB420C01EB8C0CDEF8CD
:104068000C406445F2D103EB430401EB8404CEF821
:104078000C40EBE738BD00BF8CA307080BC7070847
:10408800D4A3070810B5C4688C4201D0002010BD25
:104098004168994201D00020F9E70368934201D0B2
:1040A8000020F4E7846827F015FA844201D0002044
:1040B800EDE70120EBE7000038B5B0B1044627F082
:1040C80009FA0546D4F8A40224F06EFE854206D00B
:1040D800224B40F2EA222249224804F0A3FB0023A3
:1040E800C4F89432C4F898321EE004F051FB1E4B19
:1040F80040F2E9221A491B4804F094FB04F048FBFB
:10410800FEE7E218802182F8F01003F1400204EB88
:1041180082020021516003EB4302900004EB82020B
:104128005160215411810133132BEAD900230DE08A
:1041380003F1150104EB011100228A604A6004EBC7
:104148000311C1F86021C1F85C210133132BEFD9A9
:104158000023C4F8A032C4F89C3238BD20C7070831
:104168000BC70708D4A307088CA307082DE9F84351
:1041780038B188469146064679B100242746254637
:104188003FE004F005FB294B4FF4B3722849294856
:1041980004F048FB04F0FCFAFEE704F0F9FA234BBC
:1041A80040F267122249234804F03CFB04F0F0FA7D
:1041B800FEE71A8972BB132D2CD8A54200D8651CBE
:1041C800132D1DD805EB45024FEA820E06EB820C33
:1041D800BCF808200AB90135F2E79CE8070083E833
:1041E8000700002346F80E30CCF80430CCF808302D
:1041F80023462A4631464046FFF7EEFE0137013591
:104208000134132C0DD804EB440306EB83035868E0
:104218000028CED00028F3D01B89002BF0D001371E
:10422800EEE7C9F80070BDE8F88300BF8CA3070863
:104238000BC70708D4A307082DE9F84338B1894606
:10424800054681B14FF0000C6746E64649E004F0A8
:104258009FFA2B4B4FF4D1722A492B4804F0E2FA0B
:1042680004F096FAFEE704F093FA254B40F2A31205
:104278002449254804F0D6FA04F08AFAFEE7BEF18C
:10428800130F36D8E64501D80CF1010EBEF1130F15
:1042980025D84FEA0E1805EB0E16F36813B90EF180
:1042A800010EF3E7E6450DD996E80F0084E80F0004
:1042B800002345F808307360B360F36001370EF1EE
:1042C800010E0CE004F064FA0D4B40F2B5120D49F2
:1042D8000D4804F0A7FA04F05BFAFEE701370CF189
:1042E800010CBCF1130F07D805EB0C14E368002B85
:1042F800C5D0002BF2D1F2E7C9F80070BDE8F88309
:104308008CA307080BC70708D4A3070860B100B53A
:1043180083B00023009301234FF00042032140683B
:1043280027F018FB03B000BD7047000000B583B04C
:1043380071B158B10A784B6813B11B7802EB03626C
:10434800002300930323194627F004FB03B000BDA4
:1043580004F01EFA044B40F2BA520449044804F02F
:1043680061FA04F015FAFEE78CA307080BC70708E3
:10437800D4A3070800B583B049B130B10023009336
:1043880003230A78194627F0E5FA03B000BD04F0C4
:10439800FFF9054B40F2B6620449054804F042FAB9
:1043A80004F0F6F9FEE700BF8CA307080BC707085F
:1043B800D4A3070800B585B08446084611460023F3
:1043C8008DF80F300DF10F030093BCF80830DCF8BE
:1043D800042051F0E3F920B99DF80F3013B1012002
:1043E80000E0002005B000BD08B526F06DFA024BCC
:1043F8001B68C01A08BD00BF103F002030B585B04B
:104408000023039380B30C46054679B3D00E5301BD
:104418009B1A60F10000800040EA93709B0013EB48
:10442800020C40F10001C9004FF47A7200234FEAF0
:10443800CC0041EA5C71FCF711FC009003AB4FF033
:10444800FF320021032027F00BFA034678B1039BC3
:10445800002B02DA0023236009E0002221462868A5
:1044680024F0CAFE034602E0002300E00023181EE1
:1044780018BF012005B030BD30B583B058B30C4625
:10448800054651B3D00E53019B1A60F1000080001D
:1044980040EA93709B0013EB020C40F10001C90045
:1044A8004FF47A7200234FEACC0041EA5C71FCF7C2
:1044B800D5FB024600232146286824F0B5FC0446B3
:1044C800686858B10023009301234FF0804203210C
:1044D80027F040FA02E0002400E00024201E18BF64
:1044E800012003B030BD000030B583B0F0B1044600
:1044F800D0F8A4322BB326F0EDFF0546D4F8A40279
:1045080024F052FC854205D0184BFD221849194861
:1045180004F088F900231A461946D4F8A40224F0B6
:1045280083FC0446C0B1204603B030BD04F030F926
:10453800114BFB220E490F4804F074F904F028F9D6
:10454800FEE704F025F90C4BFC220949094804F060
:1045580069F904F01DF9FEE70090084B40F20712D4
:104568000349074804F05EF9DDE700BF20C70708E4
:104578000BC70708D4A307088CA307083CC707087C
:10458800ECA507082DE9F04182B0B8B10F46064600
:1045980001B326F09FFF0446D6F8A40224F004FCD9
:1045A80084425ED004F0F4F8324B40F22B223249B8
:1045B800324804F037F904F0EBF8FEE704F0E8F8C5
:1045C8002C4B40F229222C492C4804F02BF904F0FA
:1045D800DFF8FEE704F0DCF8264B40F22A222649F1
:1045E800264804F01FF904F0D3F8FEE70134132C31
:1045F80016D806EB0413D3F860314345F6D106EB21
:104608000413D3F85C010028F0D026F069F9009073
:104618001B4B40F2432218491A4804F003F9E5E716
:104628000135D6F89432AB421DD97B685A5D7319AF
:1046380083F8F0207B685B5D802BF1D105EB4508A2
:1046480006EB8808B8F80830D8F8042001920093DF
:104658000D4B4FF40E7208490C4804F0E3F800249F
:10466800C5E70025DDE73046FFF73EFF02B0BDE8AD
:10467800F08100BF8CA307080BC70708D4A307085D
:1046880098C7070894B1070868C70708ECA5070882
:1046980070B586B0C9B106460C46D1F8A43203B34A
:1046A80026F018FF0546D4F8A40224F07DFB8542C5
:1046B80023D004F06DF8274B40F2562226492748AC
:1046C80004F0B0F804F064F8FEE704F061F8214B58
:1046D8004FF415722049214804F0A4F804F058F862
:1046E800FEE704F055F81B4B40F255221A491B48C7
:1046F80004F098F804F04CF8FEE704F5257204F588
:10470800AA712046FFF732FDD4F89432DBB1144A7F
:104718000392049400220592C4F89C42C4F8A03283
:1047280003AA04F52771304653F0DBFD044670B147
:1047380051F090F800900B4B40F2712206490A485C
:1047480004F070F803E02046FFF7CEFE0024204670
:1047580006B070BD8CA307080BC70708D4A30708C9
:104768008D450108E8C70708ECA5070830B583B0F0
:10477800B8B10446D0F8A432F3B126F0ABFE054632
:10478800D4F8A40224F010FB854220D04FF0FF316A
:10479800D4F8A40224F0DEFD0446F8B1204603B0A4
:1047A80030BD03F0F5FF114BE1221149114804F027
:1047B80039F803F0EDFFFEE703F0EAFF0B4BE222C6
:1047C8000B490C4804F02EF803F0E2FFFEE70A4B11
:1047D800E4220749074804F025F8D7E70090074B7B
:1047E800EF220349064804F01DF8D7E78CA3070811
:1047F8000BC70708D4A3070820C7070824C8070859
:10480800ECA507082DE9F04182B060B11546D0F853
:104818000861A6B1FAB13046FFF7A8FF00284CD0CE
:104828000024A04624E003F0B3FF2B4B40F2A9225A
:104838002A492B4803F0F6FF03F0AAFFFEE703F02E
:10484800A7FF254B40F2AA222449254803F0EAFF96
:1048580003F09EFFFEE703F09BFF1F4B40F2AB22E5
:104868001E491F4803F0DEFF03F092FFFEE7013404
:10487800132C1CD806EB0413D3F860010028F6D0DB
:104888002A896968FFF796FD07460028EFD006EBEE
:104898000413D3F85C0126F023F804F1150306EBA2
:1048A80003135A68294698689047B846DFE73046A8
:1048B800FFF71AFEB8F1000F0AD12B896A68019236
:1048C8000093084B40F2D3220449074803F0AAFF9B
:1048D80002B0BDE8F08100BF8CA307080BC707082A
:1048E800D4A307084CC8070894B1070810B570B1DD
:1048F8000446012024F064FBC4F8A40298B12046C1
:10490800FFF734FF2046FFF7D7FB002010BD03F068
:104918003FFF064B40F20B320549064803F082FF81
:1049280003F036FFFEE70220F0E700BF8CA307087C
:104938000BC70708D4A30708F0B585B01F460123A5
:10494800039300230293044698B30D4616460029A4
:1049580038D0002A3FD040F21442002161F0F7FF1E
:10496800C4F81061C4F81471C4F82451624BC4F837
:104978001C31624BC4F81831012084F8EC033C2345
:10498800A4F8EE334FF0FF33019301A906F08CFC35
:104998000546019B013B13F1030F25D8584962F0E6
:1049A8009AF838B3574BC4F8F8334423A4F8FC33C7
:1049B8001FE0554B40F246325449554803F032FF48
:1049C80001252FE0534B40F24B325049504803F039
:1049D80029FF01256CE0504B4FF454724B494C4869
:1049E80003F020FF012563E00023C4F8F833A4F89E
:1049F800FC3315B1284628F087F90020C4F80004D4
:104A0800A4F8040402A906F04FFCC4F8F003002837
:104A180046D0029B002B43D0B3F5803F40D2A4F888
:104A2800F4330025002D43D100220421202024F056
:104A380083F9C4F83C0100283DD026F04BFDC4F8AA
:104A48004001002D34D104F59E73C4F82831334B4E
:104A5800C4F82C31324BC4F83031324BC4F83431FD
:104A6800314BC4F8383104F20C41012006F01CFC2B
:104A7800C4F80804D4F80C3433B328B303A90220CB
:104A880006F04CFCC4F8100408B1039B2BBB274B61
:104A980040F2C3321D491E4803F0C4FE022507E058
:104AA800234B40F292321949194803F0BBFE022504
:104AB800284605B0F0BD1F4B40F29F3213491448F9
:104AC80003F0B0FE0225B8E71B4B40F2B7320F499E
:104AD8000F4803F0A7FE0225EAE704F5A270FFF7E6
:104AE80005FF05460028E3D0144B40F2CE320749B3
:104AF800074803F097FEDBE709D20108DDD001087B
:104B0800FCC8070808C9070898C807080BC707089A
:104B1800ECA50708B4C80708D8C8070881440108E5
:104B280005440108F93E0108753F0108DCC907087A
:104B380050C9070880C90708B0C9070808CA070884
:104B480038B5C0B10446D0F8A4329BB126F0C2FCF7
:104B58000546D4F8A40224F027F9854206D00C4B68
:104B68004FF438720B490C4803F05CFED4F8A402E9
:104B780024F058FE38BD03F00BFE084B4FF4377293
:104B88000449054803F04EFE03F002FEFEE700BFAD
:104B980020C707080BC70708D4A307088CA3070872
:104BA800C0B110B50446D0F83C0108B124F03AFE73
:104BB800D4F8F00308B128F0A7F8D4F8080408B12D
:104BC80028F0A2F804F5A270FFF7BAFF204628F0F3
:104BD8009BF810BD70470000F0B589B005460C463B
:104BE80017461E46069101230793254B039326F08B
:104BF80071FC049005966DB1C4B11FB30321002068
:104C080027F0FCF803AA06A9284653F06AFB28B344
:104C180009B0F0BD03F0BCFD1A4B40F2E2521A494C
:104C28001A4803F0FFFD03F0B3FDFEE703F0B0FD03
:104C3800144B40F2E3521449144803F0F3FD03F017
:104C4800A7FDFEE703F0A4FD0E4B40F2E4520E4927
:104C58000E4803F0E7FD03F09BFDFEE700210291FB
:104C6800009602AB4FF0FF32032026F0F9FD20B189
:104C78000298030E3B70C0B2CAE70A20C8E700BF1B
:104C8800354301088CA307080BC70708D4A30708F6
:104C980030B58DB00446109D8DF824300A91ADF8DA
:104CA8002C2009AB079301230893104B049326F09B
:104CB80011FC059006950321002027F09FF804AA0F
:104CC80007A9204653F02BFB08B10DB030BD0021D9
:104CD8000391009503AB4FF0FF32032026F0C0FD8F
:104CE80010B19DF80C00F0E70A20EEE77D430108BB
:104CF80000B583B00E4B1B6873B14FF0FF330093C0
:104D08000123002220210A48006823F057FD10F0F3
:104D1800200FF2D003B000BD03F03AFD054B4FF46D
:104D280095720549054803F07DFD03F031FDFEE766
:104D3800F08600208CA307080BC70708D4A3070830
:104D480000B583B0002200920123202103480068A7
:104D580023F034FDC0F3401003B000BDF0860020FE
:104D6800014B1868704700BF143F002000B583B09E
:104D7800124B1B686BB14FF0FF33009301230022E5
:104D880010210E48006823F019FD10F0100FF2D022
:104D98000EE003F0FDFC0A4B4FF4887209490A48FB
:104DA80003F040FD03F0F4FCFEE70A2025F02AFF9B
:104DB800FFF7D6FF0028F8D003B000BDF08600202A
:104DC8008CA307080BC70708D4A307082DE9F047E9
:104DD80098B000241794402027F0B0FE8146ADF823
:104DE8005A4004AC8349204603F09EFE13AB94E876
:104DF800070083E807008049204603F095FE10ABC2
:104E080094E8070083E807007C49204603F08CFEFD
:104E18000DAB94E8070083E80700FFF7E5FA784B45
:104E280018604FF4C05027F089FE0546C0B107F05E
:104E3800C1FC074618B3012301930DAB009310ABD7
:104E480013AA704907F04EFF20B36F4B40F23D4262
:104E58006E496F4803F0E6FC00244FF00108C5E1F5
:104E68004FF4C05300936B4B40F2174267496848B0
:104E780003F0D8FC2F462C464FF00108B6E1664BEC
:104E880040F222426149624803F0CCFC3C464FF0B4
:104E98000108ABE140F2144027F050FE044648B147
:104EA8004FF4C0532A463946FFF746FD78B14FF014
:104EB80001089BE140F214430093584B40F25C42D6
:104EC8005249534803F0AEFC4FF001088EE1FEF75B
:104ED800EBFF04F5A2730293514B0193514B0093DE
:104EE80004F58C7304F5887204F59471204653F028
:104EF8000BF9054650B14C4B40F2734243494448C4
:104F080003F090FC55B14FF001086FE11021474BB9
:104F1800186823F013FD464B1C60F3E704F59E72F6
:104F28004449384607F024FE8046002800F05E8198
:104F3800414B40F284423549354803F073FC4FF049
:104F4800010853E13D4B40F2CD423049304803F06F
:104F580069FC4FF00108002E76D0002D74D14FF077
:104F6800FF3300930123002204213048006823F016
:104F780025FCD4F80814B4F810240023009338460C
:104F880007F09AFC064600285ED00FF021FD014686
:104F98000DF15A0209A84EF051FA05460028D1D160
:104FA800BDF85A304FF0640A0AFB03F30093244B10
:104FB80040F2C6421549234803F034FCBDF85A2094
:104FC8000AFB02F25101891A63EB03039B0043EACF
:104FD80091738900891843F100034FEAC30C4FF419
:104FE8007A720023C8004CEA5171FBF737FE25F0AE
:104FF80009FEB0E73CCA07084CCA070858CA0708A0
:10500800103F002024000020D0CA07080BC707085B
:10501800ECA5070868CA07089CCA0708F8CA070861
:105028000D480108F14301082CCB0708F086002041
:10503800143F00201543010844CB0708BCCB0708E0
:1050480074CB070894B10708002E40F0A88000230D
:105058008DF8233026F03EFA0546D4F8E80323F00D
:10506800A3FE854206D0A54B40F2DB42A449A548E1
:1050780003F0D8FBA246204653F0FCF817A90020FD
:1050880006F012F90346002855D09F4A40214846A9
:1050980061F0BCFA9D4A012353700023137093708A
:1050A800C2F8049010819A4BD360072313610DF165
:1050B800230300934FF4FA6304F57B71204650F004
:1050C800ADFC054626F006FA0646D4F8E80323F0B8
:1050D8006BFE864206D0894B40F2F94288498948DE
:1050E80003F0A0FB002D40F0948094F8EC33002BE3
:1050F8003BD126F0EFF90546D4F8E80323F054FE37
:10510800854206D07D4B40F2FF427D497D4803F041
:1051180089FB9DF82310504653F096F80546002861
:105128003DD19DF8233093B904F5A2715046FFF79D
:10513800AFFA054631E003F02BFB764B4FF49C6247
:105148006F49704803F06EFB03F022FBFEE726F080
:10515800C1F90646D4F8E80323F026FE86421CD19E
:1051680004F5A270FFF7C0F917E026F0B3F9064678
:10517800D4F8E80323F018FE864206D05F4B40F2CD
:105188001C525F495F4803F04DFB04F5A276304698
:10519800FEF792FF3046FFF7A7F9002D41D02046D1
:1051A80053F068F8384607F02DFD20215A4B18684F
:1051B80023F094FB26F08EF90546D4F8E80323F093
:1051C800F3FD854203D004F5A270FFF7CFFA4FF044
:1051D8008033C4F83432C4F83832C4F83C32C4F8E6
:1051E8004032C4F84432B8F1000F2ED0B8F1010FA4
:1051F80066D009A80025099545608560C5604FF00F
:10520800FF334FF496720A214EF050F94FF0FF36F3
:10521800A1E6424B40F226523949414803F002FBCD
:10522800BBE7002384F8EC3320213B4B186823F0BC
:1052380085FB4FF0FF334FF496720A2109A84EF010
:1052480035F9504652F0C8FFA9E70FF0C1FB0146F7
:105258000DF15A0209A84EF0F1F838BBBDF85A30E2
:10526800642505FB03F300932E4B40F26552244955
:105278002D4803F0D7FABDF85A2005FB02F2510178
:10528800891A63EB03039B0043EA91738900891829
:1052980043F10003DD004FF47A720023C80045EAA9
:1052A8005171FBF7DBFC25F0ADFC9FE71F4B40F28B
:1052B8006C5213491A4803F0B5FA4FF0010895E704
:1052C80014B12046FFF76CFC2FB1384607F09AFC62
:1052D800384607F0AFFA30210F4B186823F0FEFA72
:1052E800134B40F2865206490D4803F09BFA002002
:1052F80025F078F918B0BDE8F08700BF20C7070887
:105308000BC70708D4A3070874B70708FC3E00209A
:10531800D4B907088CA30708F0860020F8CB070843
:10532800ECA507081CCC070894B1070854CC07085B
:105338007CCC07082DE9F04F85B0A0B104460D4696
:1053480093461E4600F5A27A69B163B1022A0AD8CB
:105358004FF6FF71284661F058FB0190421E4FF648
:10536800FD739A420CD98F4B40F2A9628E498F483F
:1053780003F058FA4FF00808404605B0BDE8F08F32
:105388005046FFF7F3F90028EDD000274FF0140935
:105398004FF0020816E003F0FBF9854B40F2326249
:1053A8008149844803F03EFA03F0F2F9FEE707EB7F
:1053B800470304EB8303B3F84C21294661F000FB53
:1053C800E8B10137132F2DD807EB470304EB83030C
:1053D800D3F848010028EAD1B9F1140FE7D107EB57
:1053E800470304EB8303B3F84C31002BD3D1E31903
:1053F800802283F83422B9464FF00008E1E707EB32
:10540800470304EB830393F844315B4529D04FF0FD
:10541800010B5B4527D0E319802283F83422B94673
:105428004FF00008B8F1000F78D05046FFF75CF84D
:10543800B8F1000FA0D104EB090393F83432802BA4
:105448009AD104F5A27109F1F00209EB49094FF06C
:10545800FF330A4401EB89012046FFF7BDFB804674
:105468008AE79B46D5E7B9464FF00008DAE704F526
:10547800A27C09EB490107F115000CEB00100E9B0B
:1054880032460CEB81010430FEF7FCFD78B9013798
:10549800132F4BD8B8F1140FE9D104EB0713D3F845
:1054A800A432002BE3D1B846039B0293EFE7DDF863
:1054B8000C8004EB090393F83432802B3BD0B8F10D
:1054C800000FB2D104EB0713D3F8A432002BACD1F0
:1054D80004F5A27309EB490203EB820304EB0715F9
:1054E800C5F8A43225F0F6FFC5F8A00207F11503A8
:1054F80004EB0313C3F848610E9AC3F84C2109F171
:10550800400304EB8303D3F848210132C3F8482150
:10551800D4F8DC330133C4F8DC3386E700271423DE
:1055280002220292CDF80C809846B1E7029BB3BBE9
:1055380047469846BDE709EB490304EB8303D3F8D4
:10554800483133B109EB490304EB830383F844B1D1
:10555800B5E7019B01330293184627F0EFFAA8B18B
:10556800029A2946054661F03DFA002301996B54D9
:1055780009EB490304EB8303C3F84851A3F84C1122
:10558800D4F8D8330133C4F8D833DBE709EB49033F
:1055980004EB830383F844B14FF0020845E7DDF8D4
:1055A800088042E798CC07080BC70708ECA507084E
:1055B8008CA30708D4A307082DE9F04F85B000286D
:1055C80000F01A8104460E461746984600F5A27B5D
:1055D800002900F01781002A00F017814FF6FF71AB
:1055E800304661F012FA8146421E4FF6FD739A4228
:1055F80002D94FF0010A01E15846FFF7B7F8002831
:105608003ED0002500E00135132D24D805EB4503D5
:1056180004EB8303B3F84C214A45F4D105EB450369
:1056280004EB83033146D3F8480161F0C9F9002837
:10563800E9D105F1400304EB8303D3F84831039320
:10564800DBB15A1E05F1400304EB8303C3F848217C
:105658004FF0000A03E0002303934FF0070A58466F
:10566800FEF742FFBAF1000F16D05846FFF77EF852
:10567800002800F0B78000251DE04FF0000AEEE793
:10568800634B4FF4E7626349634803F0CBF80023A8
:1056980003934FF0080AE8E7039B012BE5D14FF08D
:1056A800FF33009301234A4631462046FFF7F0FABC
:1056B8008246DAE70135132D23D805F1400304EBC0
:1056C8008303D3F84831002BF4D105EB450304EBF1
:1056D8008303B3F84C214A45ECD105EB450304EBB1
:1056E80083033146D3F8480161F06AF90028E1D113
:1056F80004F5A27905EB450309EB83094FF0000A8D
:1057080002E014254FF00009BAF1000F5AD1002623
:10571800132E55D804F5A27006F1150300EB0310FB
:1057280043463A4649460430FEF7ACFC08B9013610
:10573800EEE706F1150204EB02120023C2F84C3121
:10574800C2F8483104EB0616C6F8A432C6F8A032EF
:10575800D4F8DC335BB903F01BF8304B40F26E72BF
:105768002C492F4803F05EF803F012F8FEE7013BDE
:10577800C4F8DC3304F5777104F52670FEF75CFD98
:10578800039B012B1ED105F1400304EB8303D3F8DF
:105798004831BBB9D9F8040027F0B6FA0023C9F894
:1057A8000430A9F8083089F800302544802385F8AA
:1057B8003432D4F8D8334BB1013BC4F8D83301E0C4
:1057C8004FF0070A5846FEF78FFE17E002F0E0FF99
:1057D800124B40F285720F49114803F023F802F08A
:1057E800D7FFFEE70A4B40F293720A490A4803F0D2
:1057F80019F84FF0080A01E04FF0010A504605B0C9
:10580800BDE8F08F4FF0010AF8E74FF0010AF5E71D
:1058180098CC07080BC70708ECA507088CA307084E
:10582800D4A3070830B58BB001AD2022002128464B
:1058380061F08DF8BF238DF810301D4B01931D4B7F
:1058480002931D4B06931D4B05931D4C294620467C
:1058580011F0BCF9204611F00AF90DF12601204695
:1058680011F016F99DF82630BC2B03D04FF0FF300D
:105878000BB030BD204611F0A7F8052025F0C2F97D
:105888000DF127010E4811F0C7F99DF82730012BBB
:10589800F3D1052025F0B6F90DF12701084811F0DC
:1058A800C4F99DF82730012BF3D10120E0E700BFB0
:1058B80045FC010889FC010825FD0108E1FC0108F7
:1058C8007C3F002030B58BB001AD20220021284656
:1058D80061F03DF8BB238DF810301E4B01931E4B31
:1058E80002931E4B06931E4B05931E4C29462046D9
:1058F80012F09AFE204612F02DFE0DF126012046E8
:1059080012F039FE9DF82630B32B03D04FF0FF304C
:105918000BB030BD204612F0D5FD204612F0BDFD7B
:10592800052025F06FF90DF127010E4812F05AFEF7
:105938009DF82730012BF3D1052025F063F90DF1EF
:105948002701084812F057FE9DF82730012BF3D1A4
:105958000120DDE745FC010889FC010825FD010857
:10596800E1FC0108443F002010B588B069460023D7
:1059780000930193029303930493059306932123C1
:10598800ADF808302023ADF80A301B4B06931B4BAB
:1059980000931B4B01931B4B03931B4B05931B4B12
:1059A80004931B4C204613F015F9204613F04BF8CE
:1059B80007A9204612F096FF079A43F235239A4228
:1059C80007D04FF0FF3050B1B0FA80F0400908B06E
:1059D80010BD0028F8D1204613F08CF8F3E7002218
:1059E80011460B4813F0C1F80028EDD100210848F2
:1059F80013F08CF8E8E700BF99FB010845FC0108A3
:105A080089FC0108B1FC010825FD0108E1FC010839
:105A1800183F002008B5FFF705FFFFF753FFFFF712
:105A2800A3FF012008BD000038B50446094D014612
:105A3800284611F08BF804F10801284611F032F8D5
:105A4800D4ED007AB2EE087A77EEC77AC4ED007A20
:105A580038BD00BF7C3F002070B504460A4E00F1F7
:105A68000C01304612F090FD0546211D304612F01B
:105A7800A1FDD4ED017AB2EE087A77EEC77AC4EDCB
:105A8800017A284470BD00BF443F002030B52DED99
:105A9800028B83B0054608EE101A144601AA0021AD
:105AA80012F064FF88B103460022002B45D1009B09
:105AB800C02B21D0802B25D0402B29D073BB264B5F
:105AC80003EB8203D3ED007A39E06946284612F0E9
