:020000040801F1
:1000000000000C208D8B0208753B0208773B02082C
:10001000793B02087B3B02087D3B0208DD8B02082E
:1000200000000000000000000000000039CD0308BF
:100030007F3B020800000000DDCC0308413C0208C1
:10004000DD8B0208DD8B0208DD8B0208DD8B0208E8
:10005000DD8B0208DD8B0208DD8B0208DD8B0208D8
:10006000DD8B0208DD8B0208DD8B0208DD8B0208C8
:10007000DD8B0208813B0208DD8B0208DD8B020864
:10008000DD8B0208DD8B0208DD8B0208DD8B0208A8
:10009000DD8B0208DD8B0208DD8B0208DD8B020898
:1000A0008B3B0208973B0208A33B0208B13B0208C6
:1000B00000000000C13B0208D13B0208DD8B0208B2
:1000C000DD8B0208E13B0208F13B0208DD8B0208F0
:1000D000DD8B0208DD8B0208DD8B0208DD8B020858
:1000E000DD8B0208DD8B0208DD8B0208DD8B020848
:1000F000DD8B0208DD8B0208DD8B0208DD8B020838
:10010000DD8B0208DD8B0208DD8B0208DD8B020827
:10011000DD8B0208DD8B0208DD8B0208DD8B020817
:10012000DD8B0208DD8B0208DD8B0208013C020832
:10013000113C0208213C0208DD8B0208DD8B02081D
:10014000DD8B0208DD8B0208DD8B0208DD8B0208E7
:10015000DD8B0208DD8B0208DD8B0208DD8B0208D7
:10016000DD8B0208DD8B0208DD8B0208DD8B0208C7
:10017000DD8B0208DD8B0208DD8B0208DD8B0208B7
:10018000DD8B0208DD8B0208DD8B0208DD8B0208A7
:10019000DD8B0208DD8B0208DD8B0208DD8B020897
:1001A000DD8B0208DD8B0208DD8B0208DD8B020887
:1001B000DD8B020800000000313C0208DD8B0208E4
:1001C000DD8B020800000000DD8B0208DD8B0208D9
:1001D000DD8B0208DD8B0208DD8B0208DD8B020857
:1001E000DD8B0208DD8B0208DD8B0208DD8B020847
:1001F0000000000000000000DD8B0208DD8B02081B
:10020000DD8B0208DD8B0208DD8B0208DD8B020826
:10021000DD8B0208DD8B0208DD8B0208DD8B020816
:10022000DD8B0208DD8B0208DD8B0208DD8B020806
:08023000DD8B0208DD8B0208E2
:1002380010B5054C237833B9044B13B10448AFF318
:1002480000800123237010BDE0050020000000009D
:1002580044C0070808B5034B1BB103490348AFF373
:10026800008008BD00000000E405002044C0070825
:1002780010F8012B11F8013B012A28BF9A42F7D048
:10028800D01A7047034613F8012B002AFBD1181A1D
:100298000138704781F0004102E000BF83F000435D
:1002A80030B54FEA41044FEA430594EA050F08BF09
:1002B80090EA020F1FBF54EA000C55EA020C7FEACD
:1002C800645C7FEA655C00F0E2804FEA5454D4EB4A
:1002D8005555B8BF6D420CDD2C4480EA020281EA14
:1002E800030382EA000083EA010180EA020281EA4C
:1002F8000303362D88BF30BD11F0004F4FEA01319E
:100308004FF4801C4CEA113102D0404261EB4101AC
:1003180013F0004F4FEA03334CEA133302D0524232
:1003280063EB430394EA050F00F0A780A4F10104EE
:10033800D5F1200E0DDB02FA0EFC22FA05F2801828
:1003480041F1000103FA0EF2801843FA05F359410E
:100358000EE0A5F120050EF1200E012A03FA0EFC8D
:1003680028BF4CF0020C43FA05F3C01851EBE371B7
:1003780001F0004507D54FF0000EDCF1000C7EEBD4
:1003880000006EEB0101B1F5801F1BD3B1F5001F12
:100398000CD349085FEA30004FEA3C0C04F1010431
:1003A8004FEA445212F5800F80F09A80BCF1004F5A
:1003B80008BF5FEA500C50F1000041EB045141EADC
:1003C800050130BD5FEA4C0C404141EB0101013CA5
:1003D80028BFB1F5801FE9D291F0000F04BF014694
:1003E8000020B1FA81F308BF2033A3F10B03B3F166
:1003F80020020CDA0C3208DD02F1140CC2F10C02F6
:1004080001FA0CF021FA02F10CE002F11402D8BF53
:10041800C2F1200C01FA02F120FA0CFCDCBF41EA1F
:100428000C019040E41AA2BF01EB0451294330BDEE
:100438006FEA04041F3C1CDA0C340EDC04F11404CB
:10044800C4F1200220FA04F001FA02F340EA0300A2
:1004580021FA04F345EA030130BDC4F10C04C4F1E8
:10046800200220FA02F001FA04F340EA03002946C8
:1004780030BD21FA04F0294630BD94F0000F83F412
:10048800801306BF81F480110134013D4EE77FEAF5
:10049800645C18BF7FEA655C29D094EA050F08BF41
:1004A80090EA020F05D054EA000C04BF1946104622
:1004B80030BD91EA030F1EBF0021002030BD5FEA66
:1004C800545C05D14000494128BF41F0004130BD8E
:1004D80014F580043CBF01F5801130BD01F00045E2
:1004E80045F0FE4141F470014FF0000030BD7FEA55
:1004F800645C1ABF194610467FEA655C1CBF0B4650
:10050800024650EA013406BF52EA033591EA030F66
:1005180041F4002130BD00BF90F0000F04BF00215E
:10052800704730B54FF4806404F132044FF0000591
:100538004FF0000150E700BF90F0000F04BF00210A
:10054800704730B54FF4806404F1320410F0004570
:1005580048BF40424FF000013EE700BF42004FEA6B
:10056800E2014FEA31014FEA02701FBF12F07F43E8
:1005780093F07F4F81F06051704732F07F4208BF9F
:10058800704793F07F4F04BF41F40021704730B5A6
:100598004FF4607401F0004521F000411CE700BFF2
:1005A80050EA010208BF704730B54FF000050AE075
:1005B80050EA010208BF704730B511F0004502D576
:1005C800404261EB41014FF4806404F132045FEA78
:1005D800915C3FF4D8AE4FF003025FEADC0C18BF21
:1005E80003325FEADC0C18BF033202EBDC02C2F113
:1005F800200300FA03FC20FA02F001FA03FE40EAA5
:100608000E0021FA02F11444BDE600BF70B54FF0A8
:10061800FF0C4CF4E06C1CEA11541DBF1CEA135586
:1006280094EA0C0F95EA0C0F00F0DEF82C4481EAEE
:10063800030621EA4C5123EA4C5350EA013518BF0E
:1006480052EA033541F4801143F4801338D0A0FBFB
:1006580002CE4FF00005E1FB02E506F00042E0FBA8
:1006680003E54FF00006E1FB03569CF0000F18BFAE
:100678004EF0010EA4F1FF04B6F5007F64F5407456
:1006880004D25FEA4E0E6D4146EB060642EAC621E9
:1006980041EA55514FEAC52040EA5E504FEACE2E56
:1006A800B4F1FD0C88BFBCF5E06F1ED8BEF1004F59
:1006B80008BF5FEA500E50F1000041EB045170BDD5
:1006C80006F0004646EA010140EA020081EA030119
:1006D800B4EB5C04C2BFD4EB0C0541EA045170BD15
:1006E80041F480114FF0000E013C00F3AB8014F18F
:1006F800360FDEBF002001F0004170BDC4F10004D8
:10070800203C35DA0C341BDC04F11404C4F1200558
:1007180000FA05F320FA04F001FA05F240EA0200B3
:1007280001F0004221F0004110EBD37021FA04F6E9
:1007380042EB06015EEA430E08BF20EAD37070BDA3
:10074800C4F10C04C4F1200500FA04F320FA05F002
:1007580001FA04F240EA020001F0004110EBD37004
:1007680041F100015EEA430E08BF20EAD37070BD74
:10077800C4F1200500FA05F24EEA020E20FA04F34D
:1007880001FA05F243EA020321FA04F001F00041FC
:1007980021FA04F220EA020000EBD3705EEA430E6D
:1007A80008BF20EAD37070BD94F0000F0FD101F09C
:1007B8000046400041EB010111F4801F08BF013CD5
:1007C800F7D041EA060195F0000F18BF704703F013
:1007D8000046520043EB030313F4801F08BF013D9A
:1007E800F7D043EA0603704794EA0C0F0CEA135556
:1007F80018BF95EA0C0F0CD050EA410618BF52EA10
:100808004306D1D181EA030101F000414FF0000015
:1008180070BD50EA410606BF1046194652EA430623
:1008280019D094EA0C0F02D150EA013613D195EA97
:100838000C0F05D152EA03361CBF104619460AD1DF
:1008480081EA030101F0004141F0FE4141F47001E9
:100858004FF0000070BD41F0FE4141F4780170BDD9
:1008680070B54FF0FF0C4CF4E06C1CEA11541DBF3E
:100878001CEA135594EA0C0F95EA0C0F00F0A7F840
:10088800A4EB050481EA030E52EA03354FEA01316D
:1008980000F088804FEA03334FF0805545EA131380
:1008A80043EA12634FEA022245EA111545EA106548
:1008B8004FEA00260EF000419D4208BF964244F1DF
:1008C800FD0404F5407402D25B084FEA3202B61AFE
:1008D80065EB03055B084FEA32024FF480104FF4D2
:1008E800002CB6EB020E75EB030E22BFB61A754646
:1008F80040EA0C005B084FEA3202B6EB020E75EBD9
:10090800030E22BFB61A754640EA5C005B084FEA40
:100918003202B6EB020E75EB030E22BFB61A75460D
:1009280040EA9C005B084FEA3202B6EB020E75EB18
:10093800030E22BFB61A754640EADC0055EA060ED9
:1009480018D04FEA051545EA16754FEA06164FEA1C
:10095800C30343EA52734FEAC2025FEA1C1CC0D1C8
:1009680011F4801F0BD141EA00014FF000004FF055
:10097800004CB6E711F4801F04BF01430020B4F116
:10098800FD0C88BFBCF5E06F3FF6AFAEB5EB030CCE
:1009980004BFB6EB020C5FEA500C50F1000041EBCB
:1009A800045170BD0EF0004E4EEA113114EB5C0498
:1009B800C2BFD4EB0C0541EA045170BD41F480116B
:1009C8004FF0000E013C90E645EA060E8DE60CEA73
:1009D800135594EA0C0F08BF95EA0C0F3FF43BAF90
:1009E80094EA0C0F0AD150EA01347FF434AF95EA47
:1009F8000C0F7FF425AF104619462CE795EA0C0F2B
:100A080006D152EA03353FF4FDAE1046194622E7F7
:100A180050EA410618BF52EA43067FF4C5AE50EAD1
:100A280041047FF40DAF52EA43057FF4EBAE12E7C1
:100A38004FF0FF3C06E000BF4FF0010C02E000BFA2
:100A48004FF0010C4DF804CD4FEA410C7FEA6C5C85
:100A58004FEA430C18BF7FEA6C5C1BD001B050EA28
:100A6800410C0CBF52EA430C91EA030F02BF90EA13
:100A7800020F0020704710F1000F91EA030F58BFD2
:100A8800994208BF90422CBFD8176FEAE37040F034
:100A9800010070474FEA410C7FEA6C5C02D150EAD2
:100AA800013C07D14FEA430C7FEA6C5CD6D152EA8D
:100AB800033CD3D05DF8040B704700BF8446104652
:100AC80062468C461946634600E000BF01B5FFF751
:100AD800B7FF002848BF10F1000F01BD4DF808ED21
:100AE800FFF7F4FF0CBF012000205DF808FB00BFF2
:100AF8004DF808EDFFF7EAFF34BF012000205DF84C
:100B080008FB00BF4DF808EDFFF7E0FF94BF012098
:100B180000205DF808FB00BF4DF808EDFFF7CEFF99
:100B280094BF012000205DF808FB00BF4DF808EDD8
:100B3800FFF7C4FF34BF012000205DF808FB00BFA9
:100B48004FEA410C7FEA6C5C02D150EA013C0AD1C1
:100B58004FEA430C7FEA6C5C02D152EA033C02D1B3
:100B68004FF0000070474FF0010070474FEA410214
:100B780012F5001215D211D56FF47873B3EB6252E7
:100B880012D94FEAC12343F0004343EA505311F00E
:100B9800004F23FA02F018BF404270474FF00000A0
:100BA800704750EA013005D111F0004008BF6FF0DE
:100BB800004070474FF00000704700BF4FEA410205
:100BC800B2F1E04324BFB3F5001CDCF1FE5C0DD9A3
:100BD80001F0004C4FEAC0024CEA5070B2F1004FED
:100BE80040EB830008BF20F00100704711F0804FF0
:100BF80021D113F13872BCBF01F00040704741F4B5
:100C080080114FEA5252C2F11802C2F1200C10FAB8
:100C18000CF320FA02F018BF40F001004FEAC1239C
:100C28004FEAD32303FA0CFC40EA0C0023FA02F340
:100C38004FEA4303CCE77FEA625307D150EA013316
:100C48001EBF4FF0FE4040F44000704701F00040E6
:100C580040F0FE4040F40000704700BF53B94AB965
:100C6800002908BF00281CBF4FF0FF314FF0FF30AC
:100C780000F0C6B9ADF1080C6DE904CE00F01AF821
:100C8800DDF804E0DDE9022304B07047430803F00F
:100C98005533C01A830800F0333003F03333184457
:100CA80000EB101000F00F3000EB002000EB0040CC
:100CB800000E70472DE9F04F8C46099E04460F46FA
:100CC800002B48D18A4215465ED9B2FA82F33BB16D
:100CD800C3F120029F409D409C4020FA02F2174336
:100CE8004FEA154E1FFA85FC220CB7FBFEF10EFBEE
:100CF800117701FB0CF042EA0742904207D9AA1883
:100D080001F1FF3702D2904200F258813946121A97
:100D1800A4B2B2FBFEF00EFB102200FB0CFC44EA6E
:100D28000244A4450BD92C1900F1FF322CBF01272E
:100D38000027A44502D9002F00F04381104640EA5D
:100D48000140A4EB0C0400211EB1DC400023C6E9DD
:100D58000043BDE8F08F8B4206D90EB1C6E9000109
:100D680000210846BDE8F08FB3FA83F1002951D17C
:100D78006345C0F01681824240F213810846002E76
:100D8800E7D0C6E90047E4E7002A00F0AF80B2FAEE
:100D980082F3002B40F0C2808A1A4FEA154EAFB298
:100DA8000121200CB2FBFEFC0EFB1C2240EA024291
:100DB80007FB0CF090420ED9AA180CF1FF382CBF93
:100DC8004FF001094FF00009904203D9B9F1000F23
:100DD80000F0F080C446121AA4B2B2FBFEF00EFB7B
:100DE800102200FB07F744EA0244A7420ED92C1947
:100DF80000F1FF322CBF4FF0010E4FF0000EA7425A
:100E080003D9BEF1000F00F0D2801046E41B40EA7F
:100E18000C4099E7C1F120058B400CFA01F400FA67
:100E280001F922FA05F72CFA05FC8A401F4320FA3B
:100E380005F3380C23431FFA87FE1C0CBCFBF0F8A3
:100E480000FB18CC44EA0C4408FB0EFCA4450ED960
:100E58003C1908F1FF3A2CBF4FF0010B4FF0000B83
:100E6800A44503D9BBF1000F00F0B880D046A4EB2D
:100E78000C041FFA83FCB4FBF0F300FB134403FBE0
:100E88000EFE4CEA0444A6450ED93C1903F1FF3086
:100E98002CBF4FF0010C4FF0000CA64503D9BCF154
:100EA800000F00F09F80034643EA0840A4EB0E04BD
:100EB800A0FB02EC64457346E04602D307D1F14536
:100EC80005D2BEEB02036CEB070C0138E0465EB1BD
:100ED800B9EB030264EB080404FA05F522FA01F3FE
:100EE800CC401D43C6E90054002132E742082F4692
:100EF8004B08AC4642EAC172AE46C407110C92B226
:100F080041EA034142EA0142B1FBF5F1B3FBF5F0D6
:100F18001F23A2EB0C0241EA004142E79D40C3F1C6
:100F2800200299409C402CFA02FC4FEA154E20FA08
:100F380002F2AFB2BCFBFEF80A430EFB18CC110C50
:100F480041EA0C4108FB07FC8C4550D9691808F1A7
:100F5800FF302CBF4FF001094FF000098C4502D932
:100F6800B9F1000F30D0A1EB0C01B1FBFEF808FB82
:100F780007FC0EFB181192B242EA0142624534D2D4
:100F8800AA1808F1FF312CBF4FF001094FF00009F2
:100F98006245BED2B9F1000FBBD1A8F102012A44C3
:100FA800B7E7841A6CEB030201201746E7E62C44E6
:100FB80002382BE7ACF1020C2A440CE702392A4428
:100FC800A5E62C440238BAE6A5EB0C0CA8F1020001
:100FD8006144B1FBFEF808FB07FCCAE7A8F1020868
:100FE8003C4444E7023B3C445EE7414691E7A1EBC1
:100FF8000C014046B1FBFEF808FB07FCB9E700BF4F
:10100800704700BFF0B589B088B10C460546C9B134
:101018002E4B1B68002B57D10AF084F92C4B352234
:101028002C492D480AF0C8F90AF07CF9FEE70AF0C5
:1010380079F9274B3322274927480AF0BDF90AF0E6
:1010480071F9FEE70AF06EF9214B34222149224852
:101058000AF0B2F90AF066F9FEE7204B53F8367049
:10106800019700951E4B1F4A80211848006867F0B9
:1010780003FC07951C4B0693059504950397029569
:10108800019700953B46194A4FF48061204667F066
:10109800F3FBB0F5806F0FD2009023460B4A12681D
:1010A8000121002000F0EAFD0A2029F02BFF01367B
:1010B800002ED2DD09B0F0BD00970D4B6E22054918
:1010C8000C480AF079F9EFE70026F1E70806002056
:1010D80024C6070854C607086CC607088083090891
:1010E80074C6070884C6070858C80708A4C60708AE
:1010F80068C8070884C807082DE9F04788B098B180
:101108000E460746D9B1524B1B681BB380202BF003
:1011180095FE814680202BF091FE8246B9F1000FA2
:1011280023D068B3002468E00AF0FCF8494B4A224F
:1011380049494A480AF040F90AF0F4F8FEE70AF08B
:10114800F1F8444B4B22444944480AF035F90AF077
:10115800E9F8FEE70AF0E6F83E4B4C223E493F48E4
:101168000AF02AF90AF0DEF8FEE70AF0DBF8394B54
:101178005122394939480AF01FF90AF0D3F8FEE735
:101188000AF0D0F8334B5222334934480AF014F9A4
:101198000AF0C8F8FEE7CDF800803B46304A8021C7
:1011A800484667F069FBCDF800803B462D4A802110
:1011B800504667F061FB07972B4B069305970497FA
:1011C800CDF80CA0CDF80890CDF8048000974346E0
:1011D800264A4FF48061304667F04EFBB0F5806FC9
:1011E80024D2009033461A4A12680121002000F0E8
:1011F80045FD0A2029F086FE0134022C1FDC1C4D17
:1012080055F83480CDF8048000971A4B1A4A80218B
:101218000F48006867F030FB05EBC4056B68012BCD
:10122800B9D00B4B186800F0A3FDE2E7CDF80080B9
:10123800124B9E22084912480AF0BEF8D9E74846E0
:101248002BF0E2FE50462BF0DFFE08B0BDE8F08739
:101258000806002024C60708B0C807086CC6070897
:10126800CCC80708E0C8070858C80708F4C8070822
:1012780088830908C4C8070884C60708E4CA070899
:1012880084C807082DE9F04F9DB098B10C46074671
:10129800D9B15A4B1B681BB380202BF0CFFD804679
:1012A80080202BF0CBFD8146B8F1000F23D068B326
:1012B800002547E00AF036F8514B3322514952488D
:1012C8000AF07AF80AF02EF8FEE70AF02BF84C4BF1
:1012D80034224C494C480AF06FF80AF023F8FEE72C
:1012E8000AF020F8464B3522464947480AF064F888
:1012F8000AF018F8FEE70AF015F8414B3C2241497C
:1013080041480AF059F80AF00DF8FEE70AF00AF821
:101318003B4B3D223B493C480AF04EF80AF002F8A4
:10132800FEE7CDF800A0394B8822364938480AF044
:1013380043F803E0314B186800F01AFD0A2029F041
:10134800E1FD0135012D50DC324E56F835A0CDF8BF
:1013580004A00097304B314A80212848006867F084
:101368008BFA06EBC5067368012BE3D13B462C4A82
:101378008021404667F080FA3B462A4A8021484649
:1013880067F07AFA14AE5346274A2021304667F0B0
:1013980073FA0DF1300B5346244A2021584667F062
:1013A8006BFA0A97224B099308970797CDF818B05C
:1013B8000596CDF810A0CDF80C90CDF80880CDF8A2
:1013C80004A0009753461B4A4FF48061204667F0FB
:1013D80053FAB0F5806FA4D200902346074A1268EA
:1013E8000121002000F04AFCA8E740462BF00CFE43
:1013F80048462BF009FE1DB0BDE8F08F0806002016
:1014080024C607084CCB07086CC6070850CD070848
:1014180084C80708A083090860CB070884C60708A2
:1014280068CB070878CB070888CB070890CB070854
:1014380058C8070898CB0708012804D0022804D008
:1014480028B904487047044870470448704704485E
:10145800704700BF80CD070888CD070894CD0708DE
:10146800F8B4080870B590B0002843D00D4604467B
:1014780000294AD0334B1B68002B51D00BAE0023F8
:101488000B930C930D930E938DF83C302E4B9A785A
:10149800198801910092DB782C4A1121304667F0B7
:1014A800EBF900942A4B2B4A80212648006867F004
:1014B800E3F908960794284B06930594049403943B
:1014C8000294019400942346244A4FF480612846EC
:1014D80067F0D2F9B0F5806F2DD200902B46194AEB
:1014E80012680121002000F0C9FB0A2029F00AFD3A
:1014F80010B070BD09F016FF194B2E2219491A4871
:1015080009F05AFF09F00EFFFEE709F00BFF144B34
:101518002F221449144809F04FFF09F003FFFEE792
:1015280009F000FF0E4B30220E490F4809F044FF26
:1015380009F0F8FEFEE70D4B72220A490C4809F043
:101548003BFFD2E70806002070870908F8CD070896
:10155800D0CD0708D8CD070858C8070804CE070813
:1015680024C60708BCCD07086CC60708A0D0070822
:1015780084C8070870B5B6B006460C461D46134623
:10158800184A402106A867F077F93F2803D90124B3
:10159800204636B070BD2846FFF74EFFC6F3074316
:1015A800B2B2210EC4F30745A4B205900494039582
:1015B800029101920093330E0B4A802116A867F01E
:1015C8005BF97F2801D90124E2E7009016AB06AA4F
:1015D8000121084600F052FB04460A2029F092FC3B
:1015E800D6E700BFC4D00708D0D0070870B5C6B08A
:1015F80006460C461D461346164A402106A867F0C3
:101608003BF93F2803D90124204646B070BDC6F3F4
:101618000743B2B2210EC4F30740A4B2059504945F
:101628000390029101920093330E0B4AC02116A831
:1016380067F022F9BF2801D90124E5E7009016AB2D
:1016480006AA0121084600F019FB04460A2029F0E1
:1016580059FCD9E7C4D0070820D1070881B370B571
:1016680088B00C46CD680DB10B690BB908B070BDD8
:1016780020220021684667F0A0FA24691F2C28BFA1
:101688001F2422462946684667F0A3FC04F120037C
:101698000DEB0304002304F8203C0A496846FEF7D2
:1016A800E7FD0028E2D1084B4FF483720749084848
:1016B80009F082FE0221074B186827F0BFFAD5E728
:1016C800704700BFA4D10708B4D10708BCCD0708EC
:1016D800D0D1070804060020F0B585B006462A4B8D
:1016E80040F2131229492A4809F066FE4FF0FF35E7
:1016F80000240EE0274B4FF48E722449244809F049
:101708005BFE002029F0EEF80BE01C46C82029F00B
:10171800F9FB0021204B186827F060FA10F00C0F35
:10172800E8D11E4B18680028F0D00022039203A9C4
:1017380027F0E2FE0128E9D12CB9039B03B923461F
:10174800002BE2D01C46039BA342DFD8642703FB8F
:1017580007F7B7FBF4F7C7F16407BD42D6D001938A
:1017680000970F4B4FF49B720849094809F024FE73
:101778000C4B1968039B00933B4632460A480068A5
:10178800FFF734FF3D46C1E7D4D10708BCCD0708B1
:10179800D0D10708F0D1070804060020BCA7002014
:1017A8000CD20708FC0500207087090800293DD0E5
:1017B80070B58AB00C46CD680DB10B690BB90AB08B
:1017C80070BD02AE20220021304667F0F6F9246988
:1017D8001F2C28BF1F2422462946304667F0F9FBF4
:1017E80004F128030DEB0304002304F8203C1049FE
:1017F8003046FEF73DFD20B10E49304667F0B5FA98
:1018080058B10D4B23220D490D4809F0D5FD102183
:101818000C4B186827F012FAD1E702AB00930A4B79
:1018280028220649094809F0C7FDC8E7704700BFE4
:1018380038D2070840D207084CD20708A4D20708B4
:10184800D0D1070804060020B8D20708DCD2070860
:1018580030B587B000282BD00C460546002932D079
:10186800274B1868002839D00095264B264A802136
:1018780067F002F805950495244B039302950195AA
:1018880000952B46224A4FF48061204666F0F4FF0B
:10189800B0F5806F2DD200902346194A12680121B5
:1018A800002000F0EBF90A2029F02CFB07B030BD2E
:1018B80009F038FD174B2E221749184809F07CFD0E
:1018C80009F030FDFEE709F02DFD124B2F221249D9
:1018D800124809F071FD09F025FDFEE709F022FD27
:1018E8000C4B30220C490D4809F066FD09F01AFD31
:1018F800FEE70B4B5F2208490A4809F05DFDD2E775
:1019080008060020E0D20708E8D2070858C80708E8
:101918000CD3070824C60708A4D207086CC6070812
:101928007CD4070884C807082DE9F0418AB038B18B
:101938000F46054679B1394B1B68BBB1002446E018
:1019480009F0F0FC364B61223649374809F034FD7E
:1019580009F0E8FCFEE709F0E5FC314B6222314969
:10196800314809F029FD09F0DDFCFEE709F0DAFC51
:101978002B4B63222B492C4809F01EFD09F0D2FCA1
:10198800FEE7D8F80830D8F80C10099527480890D1
:10199800079506950591049303960295019600957F
:1019A800D8F80430224A4FF48061384666F064FF64
:1019B800B0F5806F26D200903B46184A1268012184
:1019C800002000F05BF90A2029F09CFA0134052C6C
:1019D80020DC184A04EB840C02EB8C0852F82C60CB
:1019E80001960095144B154A80210C48006866F052
:1019F80043FFD8F81030012BC3D0084B186800F00B
:101A0800B7F9E0E700940E4B9B2206490D4809F010
:101A1800D3FCD8E70AB0BDE8F08100BF0806002073
:101A280024C60708B8D407086CC6070858C80708AA
:101A3800D8D4070878840908D0D4070884C60708CA
:101A480058D6070884C8070870B584B000B306469E
:101A58001B4B1B683BB30024082C2FDC194B04EBF1
:101A6800840203EB820153F82230CA68144D0292B3
:101A780001930096144B154A8021286866F0FCFEF5
:101A8800286800F075F90A2029F03CFA0134E3E7E8
:101A980009F048FC0E4BAF220E490F4809F08CFCA8
:101AA80009F040FCFEE709F03DFC094BB02209496A
:101AB800094809F081FC09F035FCFEE704B070BD67
:101AC80008060020C4830908D0D4070878D6070878
:101AD80024C60708B8D407086CC607082DE9F041E2
:101AE8008AB090B10C460546D9B1374B1B68002B1C
:101AF80067D109F017FC354B4FF4977234493548D4
:101B080009F05AFC09F00EFCFEE709F00BFC2F4B1C
:101B18004FF496722E492F4809F04EFC09F002FC4A
:101B2800FEE709F0FFFB294B40F22D12284929480E
:101B380009F042FC09F0F6FBFEE7274B06EB8602AC
:101B480003EB820853F8227001970095234B244A2F
:101B580080211D48006866F08FFED8F80830D8F854
:101B68000C2009951F49089107950695059204933D
:101B78000397029501970095D8F804301A4A4FF454
:101B88008061204666F078FEB0F5806F10D2009034
:101B980023460D4A12680121002000F06FF80A2040
:101BA80029F0B0F90136002EC7DD0AB0BDE8F08192
:101BB80000970E4B40F2691205490D4809F0FCFBED
:101BC800EDE70026EFE700BF0806002024C6070857
:101BD800B8D407086CC60708B0830908D0D407082A
:101BE80084C6070858C807089CD6070844D80708B9
:101BF80084C8070868B1006858B151B110B582B0FF
:101C08000024009403230A7821462AF023F802B01E
:101C180010BD7047014B1860704700BF00060020D8
:101C280008B515F0C5FF124BA3FB00239B0D114A05
:101C380002FB1303104A1A44002A16DDD30E510181
:101C4800891A63F100039B0043EA9173890089189C
:101C580043F100034FEAC30C4FF47A720023C80023
:101C68004CEA5171FEF7FAFF08BD0122E6E700BF12
:101C7800B17C219500DD6D00806DEF042DE9F04306
:101C88008FB0002A31D0074688461D461646334B8A
:101C98001B68002B34D0002409940A940B940C94EC
:101CA8000D940DF11C090794089404940594069466
:101CB800214620462AF022FA8DF824708DF82580D6
:101CC8000A963046FEF7DEFAADF82C000C95169B06
:101CD8000D9329F07FFD07904FF4FA730693204B7C
:101CE8000493CDF8149001251CE009F01BFB1D4B53
:101CF80058221D491D4809F05FFB09F013FBFEE758
:101D080009F010FB174B59221749184809F054FBE2
:101D180009F008FBFEE7039BE3B10325FA2029F04D
:101D2800F1F80134042C15D804AA09A90B4B18683A
:101D380058F081FB05460028F0D1039041F2883322
:101D4800009303AB0246014629F00AFF0128E2D0BE
:101D58000325E3E728460FB0BDE8F083000600201E
:101D6800FD1B010824C60708F8D907086CC6070830
:101D780000B583B040B1024600200090034601211F
:101D8800FFF77CFF03B000BD09F0CCFA044B9622A4
:101D98000449054809F010FB09F0C4FAFEE700BF42
:101DA80024C60708F8D907086CC607082DE9F041CA
:101DB80084B020B30C4616461D46074651B3002B87
:101DC80033D03A4B1B68002B3AD080202BF036F8E2
:101DD800804600283FD000943B46354A802166F073
:101DE8004BFD7F2842D800220092334641462F48B7
:101DF800006805F021FD00284CD1012440E009F0DD
:101E080091FA2C4BA7222C492C4809F0D5FA09F055
:101E180089FAFEE709F086FA264BA82226492748C0
:101E280009F0CAFA09F07EFAFEE709F07BFA214BBD
:101E3800A9222149214809F0BFFA09F073FAFEE7FF
:101E480009F070FA1B4BAA221B491C4809F0B4FA86
:101E580009F068FAFEE709F065FA164BAD22164953
:101E6800164809F0A9FA09F05DFAFEE7029401970D
:101E78000095134BB7221049124809F09DFA002427
:101E88000A2029F03FF840462BF0BEF8204604B05F
:101E9800BDE8F081CDF8048000950B4BC8220649B7
:101EA800084809F089FA0024EAE700BF0006002084
:101EB80008DA070824C60708F8D907086CC607080F
:101EC80010DA070884C8070840DA070810B582B096
:101ED80090B10446D9B11D4A106818B30022009287
:101EE8000B46214605F0A8FC38BB01240A2029F03E
:101EF80009F8204602B010BD09F014FA144BDC2290
:101F08001449154809F058FA09F00CFAFEE709F0E7
:101F180009FA0F4BDD220F490F4809F04DFA09F075
:101F280001FAFEE709F0FEF9094BDE2209490A48E1
:101F380009F042FA09F0F6F9FEE70094074BE822A7
:101F48000449074809F038FA0024CFE700060020C2
:101F580024C60708F8D907086CC6070864DA070812
:101F680084C8070830B583B048B30C461546034605
:101F780081B3002A39D02C4A1068002840D02B4A57
:101F8800802166F079FC40F2FF322946204666F04F
:101F980073FE002384F8FF332046FEF773F9B0F58B
:101FA800806F38D2009023461F4A12680121002012
:101FB800FFF764FE0A2028F0A5FF03B030BD09F042
:101FC800B1F91B4BF8221B491B4809F0F5F909F038
:101FD800A9F9FEE709F0A6F9154BF92215491648A3
:101FE80009F0EAF909F09EF9FEE709F09BF9104BB0
:101FF800FA221049104809F0DFF909F093F9FEE7D1
:1020080009F090F90A4BFB220A490B4809F0D4F968
:1020180009F088F9FEE7094B4FF489720549084829
:1020280009F0CAF9C6E700BF0806002088DA0708E1
:1020380024C60708F8D907086CC60708A0DA0708F5
:1020480084C8070861B30B46C96849B370B584B042
:102058001C690CB904B070BD002600960196029662
:1020680003960F2C28BF0F242246684666F0B1FF5E
:1020780004F110030DEB030202F8106C09496846DD
:10208800FEF7F6F80028E5D1074B4C220749084827
:1020980009F092F92021074B186826F0CFFDD9E7FF
:1020A800704700BFC8DA0708D0DA070828DB070836
:1020B800D0D107080406002038B5B8B30C46054649
:1020C80000293ED0FFF7CEF921462846FFF7DAF877
:1020D80021462846FEF796FF21462846FFF724FCAE
:1020E8002846FFF7B1FC21462846FFF7F7FC2146B2
:1020F8002846FFF701F821462846FFF7A9FB4FF4C9
:102108007A7028F0FFFE144B186802232A4601460D
:10211800FFF730FA114A21462846FFF723FF104BF4
:102128009A221049104809F047F938BD09F0FAF821
:102138000E4B5C220B490E4809F03EF909F0F2F803
:10214800FEE709F0EFF8094B5D220649084809F057
:1021580033F909F0E7F8FEE770870908C8DA0708D5
:1021680034DB070828DB0708D0D1070824C607088E
:102178006CC607082DE9F04184B00023039305F0ED
:1021880053F805F04BF800283DD0044605F00EF84A
:102198002046FFF73FFD03A900200BF081FE05460E
:1021A80000283BD04FF480602AF048FE8046002883
:1021B8003FD080202AF042FE854B1860002843D08B
:1021C8000095844BBF228449844809F0F5F826F02D
:1021D80066FC834B1860002841D0824B824A8349B1
:1021E8002846FFF7E3FD824B824A83492846FFF7DA
:1021F800DDFD82498248FFF769FE41462846FFF720
:102208005BFF0026B3E009F08DF87E4BAE227249E1
:102218007D4809F0D1F809F085F8FEE709F082F861
:10222800784BB7226C49784809F0C6F809F07AF873
:10223800FEE709F077F8734BBA226749724809F04C
:10224800BBF809F06FF8FEE709F06CF86D4BBD229A
:1022580061496D4809F0B0F809F064F8FEE709F043
:1022680061F8684BC2225C49674809F0A5F809F093
:1022780059F8FEE7654BEE225749584809F09CF893
:10228800634B196800232A4662480068FFF772F911
:102298007DE0614BF4225049504809F08DF85C4BC1
:1022A800196801232A465B480068FFF763F9002391
:1022B8000193022300932B464FF4806257495848F4
:1022C80028F0FEFA012666E0434F444E554B4FF482
:1022D80082723946304609F06FF8534B40F20512C6
:1022E8003946304609F068F80FF092FF002655E0AD
:1022F8004E4B40F20D123849384809F05DF8414616
:102308002846FFF7D9FE00264BE0494B40F21D1244
:102318003149324809F050F8464A41462846FFF705
:1023280021FE4FF47A7028F0EDFD0FF071FF14F0E4
:10233800200700D1DCB9002E40D115F039FC3E4B06
:10234800A3FB0023DB0B3D4A02FB130028F0DAFD58
:10235800002F3BD03A4B00933A4B40F22F121E49C4
:102368001E4809F029F841462846FFF7A5FE1C4BF0
:102378001C68FFF755FC0090002301223F212046EE
:1023880026F09CFB044610F0010F7FF473AF14F0A5
:10239800020F7FF47EAF14F0040F95D114F0080FEC
:1023A800A6D114F0100FC2D0002EAED0264B40F2AA
:1023B80019120949094808F0FFFFD8E7234B4FF4E1
:1023C80094720549054808F0F7FFD0E7204BC2E7AB
:1023D8000806002078DB070828DB0708D0D10708A3
:1023E80004060020BCDB070865160108C8DB0708DF
:1023F800D4DB0708B5170108E4DB07084D200108FE
:10240800F0DB070824C607086CC6070808DC0708BD
:10241800FC0500207087090820DC07083CDC070859
:10242800E11601084CDC070864DC070890DC0708A3
:10243800D8DC0708E8DC070873B2E745C0D4010018
:1024480060DB070820DD0708ACDC0708F0DC0708BC
:102458006CDB070870B582B006460D460CE02846CE
:10246800FDF710FF019500900F4B4FF4B9720F491B
:102478000F4808F0A1FFA4B1002300930D4B32468A
:1024880029460D4C206805F0D7F904460028E6D007
:1024980000900A4B4FF4B7720449094808F08CFFC2
:1024A800E9E7012002B070BDC8DD0708A8DD07080C
:1024B800D0D10708952501080C06002054DD07082F
:1024C80084C8070810B582B012490020FFF7C2FF80
:1024D80088B111490020FFF7BDFF0446B8B90E4B7B
:1024E80001932F2300930D4B4FF4F1720C490D48C3
:1024F80008F062FF0BE00446064B01932F2300937C
:10250800064B40F2D9120649064808F055FF204606
:1025180002B010BDE4DD070814DE070844DE070832
:10252800A8DD070884C8070810B582B01249002042
:10253800FFF790FF88B111490020FFF78BFF044691
:10254800B8B90E4B0193452300930D4B4FF4057218
:102558000C490D4808F030FF0BE00446064B019388
:1025680045230093064B40F20B220649064808F023
:1025780023FF204602B010BD7CDE0708C4DE070832
:1025880044DE0708A8DD070884C8070830B585B009
:102598000C463D4B40F229123C493D4808F00CFFDF
:1025A8000DF10F02218960684FF03CFC01280AD127
:1025B8009DF80F300B3B072B59D8DFE803F01125A6
:1025C8005858585830432389626801920093314B18
:1025D80040F231122D49304808F0EEFE05B030BD0A
:1025E8002E4B40F237122949294808F0E5FE2C4BBA
:1025F80001221A702269E1682A4B186866F0E9FC22
:102608002269294B1A60E9E7284B4FF4A1721F4948
:10261800274808F0D1FE224B02221A70DEE7254B2C
:102628004FF4A47219491A4808F0C6FE1E4D01233A
:102638002B602269E1681B4B186866F0CAFC2369A5
:102648002B60CBE7114D1C4B40F25312294618481A
:1026580008F0B2FEE3680093184B40F25512294681
:102668000B4808F0A9FE104B02221A60B6E723892E
:10267800626801920093124B40F25B1203490C48C6
:1026880008F09AFEAAE700BF0CDF0708A8DD0708D4
:10269800D0D1070828DF0708DCD207085CDF070865
:1026A8001C0600201806002010060020B0DF0708CE
:1026B80084C8070804E007084CE00708442608080F
:1026C80094E0070830B583B005460CE02846FDF7CE
:1026D800D9FD019500900F4B40F28B120E490F481F
:1026E80008F06AFE94B100230D4A29460D48006897
:1026F80005F0E4F904460028E8D000900A4B40F2BF
:1027080087120549094808F057FEEBE7012003B096
:1027180030BD00BF10E10708A8DD0708D0D10708C1
:10272800952501080C060020DCE0070884C8070886
:1027380010B582B01248FFF7C5FF044610B1204615
:1027480002B010BD0E4B01932F2300930D4B4FF495
:10275800F9720D490D4808F02FFE0D48FFF7B2FF3A
:1027680004460028EBD10A4B01932F230093054B15
:1027780040F2FB120449054808F01EFEDFE700BFDF
:10278800E4DD070830E10708A8DD070884C8070862
:1027980014DE070810B582B01148FFF793FF80B127
:1027A8001048FFF78FFF0446B8B90E4B0193452335
:1027B80000930D4B40F22E220C490D4808F0FCFD09
:1027C8000BE00446064B019345230093064B40F269
:1027D80025220649064808F0EFFD204602B010BD44
:1027E8007CDE0708C4DE070830E10708A8DD070813
:1027F80084C807082DE9F0418EB007460C461646F6
:102808001D46002009900A900B900C900D900DF138
:102818001C080790089004900590069003900146C4
:1028280029F06CFC8DF824700A942046FDF72AFDE7
:10283800ADF82C000C960D9528F0CCFF07904FF4BE
:10284800FA730693104B0493CDF8148002E09DF8B8
:102858000C30ABB104AA09A90C4B186857F0EBFD72
:1028680003460028F5D14FF0FF33009303AB002255
:102878001146104629F074F90128E8D00423E8E746
:1028880001200EB0BDE8F081992801080C0600204F
:10289800006850B110B582B00024009403230A7870
:1028A800214629F0D7F902B010BD70472DE9F04F45
:1028B8008FB04FF480502AF0C1FA002800F09B80B6
:1028C800044600230D934FF480502AF0B7FA0546CA
:1028D800002800F09C8040202AF0B0FA0746002823
:1028E80000F0A1804FF480602AF0A8FA8046002802
:1028F80000F0A58080202AF0A1FA8146002800F087
:10290800AA804FF480502AF099FA814B1860002869
:1029180000F0AD804FF480520021204666F04DF95A
:1029280004F082FC04F07AFC7A4B1860002800F06E
:10293800AA8004F03BFC784B40F282227749784821
:1029480008F03AFD09A900200BF0AAFA82460346CE
:10295800744A8021484665F08FFF08A907200BF0CC
:102968009FFA83464FF480530C9340230B934FF404
:1029780080630A9307A820F0B1FB002800F08F803D
:10298800694B40F299226549684808F015FD002610
:10299800002E40F0DF80FFF7CBFEFFF7FBFE20465E
:1029A8002AF032FB28462AF02FFB38462AF02CFB67
:1029B80040462AF029FB50462AF026FB48462AF0D2
:1029C80023FB58462AF020FB514B18682AF01CFBC1
:1029D800002E40F07781564B40F223324F49504841
:1029E80008F0EAFC002027F07DFF86F00100C0B265
:1029F8000FB0BDE8F08F08F095FC4E4B4FF4107205
:102A080046494D4808F0D8FC08F08CFCFEE708F071
:102A180089FC484B40F246224049474808F0CCFC24
:102A280008F080FCFEE708F07DFC424B4FF413727F
:102A38003A49414808F0C0FC08F074FCFEE708F089
:102A480071FC3C4B40F2522234493B4808F0B4FC3C
:102A580008F068FCFEE708F065FC364B40F25E22A1
:102A68002E49354808F0A8FC08F05CFCFEE708F0A1
:102A780059FC304B4FF41D7228492F4808F09CFC34
:102A880008F050FCFEE708F04DFC2A4B40F27D228E
:102A98002249294808F090FC08F044FCFEE7274B3F
:102AA80040F29E221D491E4808F086FC0DAB029399
:102AB800CDF804904FF4805300932346204A2149CF
:102AC800079800F0F3F90646B8B11F4B40F2AF2261
:102AD8001249134808F070FCFFF7F4FC064600287A
:102AE8003FF459AF194B40F2B5220C490C4808F095
:102AF80063FCFFF719FD06464AE7154B40F2A3228F
:102B080006490A4808F058FC079800F01BFB42E702
:102B1800180600200C0600206CE10708A8DD07084D
:102B2800D0D10708ACE10708B4E1070884C8070852
:102B3800B4E3070824C607086CC60708D4E10708E9
:102B4800E8E10708F4E1070804E207085CE207087F
:102B580024E20708604B40F2BE226049604808F052
:102B68002BFC604B00930D9B22464FF400615E489E
:102B7800006800F023FB064600283FF40CAF5B4BCF
:102B880040F2C5225549564808F016FC554B1B68BB
:102B9800554A126856490020FFF72CFE06460028C1
:102BA80078D042F2107028F0ADF9524B40F2D3229F
:102BB8004A494B4808F000FC0AAB0393CDF808805B
:102BC8000BAB019300970CAB2A464B490968464862
:102BD800006800F02FFC064600283FF4DCAE0197A1
:102BE8000B9B0093454B40F2D9223C493C4808F0E6
:102BF800E3FB0C9B424A2946079800F0EDF906468C
:102C0800FFF796FD002E3FF4C8AE374B1E684FF411
:102C180080520021304665F0D0FF324B0493089B68
:102C28000393CDF808B0099B0193CDF800A00A9B47
:102C380042464FF40061304600F03EFB064600284D
:102C48003FF4ABAE274B1B68274A12682D4900207A
:102C5800FFF7D0FD064648B340F6B83028F052F9E1
:102C68008023099309AB5246234909681E48006826
:102C780000F09CFD064600283FF48FAECDF804A076
:102C8800099B0093204B4FF442721449144808F0F2
:102C980093FB82E6164B0193262300931B4B40F2CD
:102CA800CB220E491A4808F087FB74E6154B0193AE
:102CB8003C230093154B40F2FA220849144808F0C7
:102CC8007BFB6AE6012106200BF034F80BF0DAFBF7
:102CD8000FF09EFA7FE600BF84E20708A8DD070828
:102CE800D0D10708140600201806002098E207082B
:102CF800ACE20708D4E207081006002020E3070822
:102D080044E3070850E3070890E30708E8E20708E8
:102D180084C807082DE9F04FABB004900F4616465B
:102D280005934FF482532793002428942994384A12
:102D380023AB07CA03C31A804FF00308CDF8888075
:102D480001258DF887504FF4807BCDF854B0169448
:102D58004FF0040ACDF85CA04FF4857318931994CA
:102D68001A954FF4C0731B931C940A231D93CDF836
:102D780078801F962021304665F091FF20900DF154
:102D88008809CDF858900DF18706199623AB1C9346
:102D9800CDF818B00794CDF820A009950A940B95A2
:102DA80002230C930D940E954FF484730F93109493
:102DB8001195CDF8488013972021384665F06FFFAC
:102DC8001490CDF81C900A960D96109626A811F02E
:102DD8004DF8A0B9269BD3F8F040059B0393349B8C
:102DE80002930523019306AB0093042315AA27A990
:102DF8000498A047044620462BB0BDE8F08F04464F
:102E0800044BBE220449054808F0D6FAF3E700BF90
:102E180040E40708DCE307082CE4070884C807082F
:102E28002DE9F04784B007468A469046994603A89C
:102E380011F01CF8064640BB04464C452BD25AF804
:102E480024502021284665F02AFF024658F82430ED
:102E580002A900912946384620F084F9039BDB6DCE
:102E68000299384698470646A8B92021284665F0B1
:102E780016FF024658F8243002A900912946384620
:102E880020F070F906460134D7E7054B6922054959
:102E9800054808F091FA304604B0BDE8F08700BF55
:102EA800DCE307082CE4070884C8070870B58CB071
:102EB80003900C4615461E46022038F0EFFFDCB1A1
:102EC8002DB3002E2ED0129B002B36D00AAB0093C8
:102ED8000BAB2A4621460398FFF71CFF002837D082
:102EE8004FF0FF343046FDF7CDF9129B1860B4FA65
:102EF80084F040090CB070BD08F014FA324BE0229F
:102F08003249334808F058FA08F00CFAFEE708F09E
:102F180009FA2D4BE1222D492D4808F04DFA08F009
:102F280001FAFEE708F0FEF9274BE2222749284874
:102F380008F042FA08F0F6F9FEE708F0F3F9224B38
:102F4800E3222249224808F037FA08F0EBF9FEE7B5
:102F58000B9A039908A80AF04FFD10B14FF0FF34FF
:102F6800C0E704AC20464EF019FC042120464EF080
:102F780029FC802120464EF039FC044630B104A8D3
:102F88004EF012FC08A838F07AFFABE7802104A8BD
:102F98004EF04EFC04460028F1D1119904A84EF0D9
:102FA80015FC04460028EAD104AC08A920464EF0D6
:102FB8000BFC03AB0093074B109A314620464EF0AA
:102FC8007FFC0446DBE700BF24C607082CE407089B
:102FD8006CC6070851DB0108F0B5A1B006460D46DE
:102FE800039201220D9200240C940B940A948DF8FC
:102FF8002720494A0DF1180C07CA8CE807000594E8
:10300800039AFAB155B35C1C20460FF03DF80A94B8
:10301800074668B30AAB02462146284620F052F913
:1030280078B33E4B40F241123D493E4808F0C4F99E
:10303800072417B138460FF090F8B4FA84F0400925
:1030480021B0F0BD08F06EF9374B40F2291234492F
:10305800364808F0B1F908F065F9FEE7344B40F25C
:103068002D122F492F4808F0A7F92F461324E0E71F
:10307800304B40F247122A492A4808F09DF90224A9
:10308800D7E70BA810F0F2FE044600283CD1002335
:103098000E930DAC0F940425109540F20113119373
:1030A80006A81290FDF7EEF81390112317931897BE
:1030B8000A9B199303231A9303981B90202165F008
:1030C800EEFD1C90802314930CAB159316950123E9
:1030D8001D930DF127021E921F93224603A9304625
:1030E800FFF79EFE039B0093134B4FF4B8720C49F5
:1030F800124808F061F90B9B5C6D05AB06220EA91E
:103108003046A047044694E70D4B4FF4A972044992
:10311800044808F051F98CE7F8E4070868E4070860
:103128002CE4070884C8070824C607086CC60708E3
:103138004CE4070890E40708D0E40708D0D1070852
:10314800DCE3070810B582B004460023019301A808
:1031580010F08CFE034648B9019B9B6B20469847AC
:10316800034618B9019B9B6898470346B3FA83F056
:10317800400902B010BD38B505460C460846FDF7B3
:1031880081F802462146284624F041FE38BD000059
:1031980008B590F80EC0BCF1600F02D125F0A0FB75
:1031A80008BD034B034A4FF4F871034864F04CFA26
:1031B8006C970808F084090804E50708F0B58BB097
:1031C80048B316461D460746002A2FD0109B002BF1
:1031D80037D006AC00230A460146204624F0F5FD08
:1031E800012202A9204624F01EFE0446002833D0FE
:1031F800002C3FD0204624F04FFE0090274B55224C
:103208002749284808F0D8F8002C3FDBB4FA84F0A6
:1032180040090BB0F0BD08F085F8234B3422204953
:10322800224808F0C9F808F07DF8FEE708F07AF8B7
:103238001D4B35221A491D4808F0BEF808F072F8EF
:10324800FEE708F06FF8184B36221549174808F0C2
:10325800B3F808F067F8FEE7154902A8FFF78BFFF7
:1032680004460028C6D12A46314602A824F0CFFDDC
:103278000446BDE702A906A824F0E3FD0446002899
:10328800B8D1069BDB1B109A1360BFE7094B592284
:103298000349044808F090F8B8E700BFD4E50708E8
:1032A800A0E5070884C8070824C607086CC60708ED
:1032B800B8E50708F4E507082DE9F0418CB0129E3F
:1032C80060B315461F468046002A2DD0002E31D007
:1032D800149B002B34D0169B002B37D008AC00234E
:1032E8000A460146204624F070FD022204A9204621
:1032F80024F099FD044600282ED0002C3AD0204610
:1033080024F0CAFD01463E4865F046FA002C72DBFF
:10331800B4FA84F040090CB0BDE8F081394B3A4A60
:103328006A213A4864F090F9394B374A6B2137489B
:1033380064F08AF9374B344A6C21344864F084F9D4
:10334800354B314A6D21314864F07EF9334B2E4AB2
:103358006E212E4864F078F9314904A8FFF70BFF75
:1033680004460028CBD13A46294604A824F04FFD4C
:103378000446C2E72B4904A8FFF7FDFE04460028CF
:10338800BDD10222694604A824F04DFD0446002858
:10339800B5D125496846FFF7EEFE04460028AED1B0
:1033A800139A3146684624F032FD04460028A6D117
:1033B8001E496846FFF7DFFE044600289FD1159A8C
:1033C8001499684624F023FD0446002897D16946DD
:1033D80004A824F036FD0446002890D104A908A8C2
:1033E80024F02FFD0446002889D1089BA3EB08038D
:1033F800169A13608CE70E4865F036FA88E700BF26
:10340800E8E6070838E607080C8509087CE5070898
:103418004CE6070870E6070884E6070894E60708FC
:10342800B0E60708689E0808CCE60708D8E607084B
:1034380008E70708F0B58FB0159D002863D0164639
:103448001C46002A6AD0002B73D0149B002B7BD01B
:10345800002D00F084802B683F2B40F28B80169B58
:10346800002B00F09280179B002B00F0998008AB8E
:1034780000930CAB002225F0C1F80746002840F065
:103488009A809DF82E30A02B00F09F80A74BDC225D
:10349800A749A84807F090FF87BB04AAA64908A82F
:1034A80025F092FA0746002840F0DA809DF81E3091
:1034B800FF2B00F0E080602B00F0E5809F4B40F28E
:1034C8000D129B499B4807F077FFBFB904AA9C4996
:1034D80008A825F079FA0746002840F0FC809DF8F6
:1034E8001E30FF2B00F00281602B00F00781954B06
:1034F8004FF497728E498F4807F05EFFB7FA87F04E
:1035080040090FB0F0BD07F00DFF8F4BC822884966
:103518008E4807F051FF07F005FFFEE707F002FFAE
:10352800894BC9228249894807F046FF07F0FAFE0D
:10353800FEE707F0F7FE844BCA227D49834807F06F
:103548003BFF07F0EFFEFEE707F0ECFE7E4BCB22D9
:1035580077497E4807F030FF07F0E4FEFEE707F002
:10356800E1FE794BCC227249784807F025FF07F035
:10357800D9FEFEE707F0D6FE734BCD226C4973489F
:1035880007F01AFF07F0CEFEFEE707F0CBFE6E4B02
:10359800CE2267496D4807F00FFF07F0C3FEFEE72C
:1035A80007F0C0FE684BCF226149684807F004FF66
:1035B80007F0B8FEFEE724F06FFC0090644BD822B9
:1035C8005B495C4807F0F8FE66E704AA614908A869
:1035D80025F0FAF9074660B99DF81E30FF2B12D086
:1035E800602B17D05C4BEC225149524807F0E4FE9F
:1035F80052E724F051FC0090584BE4224C494D48C6
:1036080007F0DAFE48E7564BE8224949494807F0EF
:10361800D3FE41E700232246314604A8FFF7B8FD50
:103628000746B0F1004F0CD000283FF436AF24F025
:1036380033FC00904B4BFA223D493E4807F0BCFE54
:103648002AE70023039303A904A825F0B3F9039BF1
:103658000093454BF6223649364807F0ADFE1BE786
:1036680024F01AFC00903D4B40F2051230493148D5
:1036780007F0A2FE29E73D4B40F209122C492D48DC
:1036880007F09AFE21E700232A46149904A8FFF7B9
:103698007FFD0746B0F1004F0DD000283FF416AF6C
:1036A80024F0FAFB0090324B40F21B1220492148CB
:1036B80007F082FE09E70023039303A904A825F075
:1036C80079F9039B00932B4B40F2171218491948BC
:1036D80007F072FEF9E624F0DFFB00901F4B4FF471
:1036E80093721349134807F067FE07E7224B4FF41C
:1036F80095720F490F4807F05FFEFFE60023179AFF
:10370800169904A8FFF744FD0746B0F1004F37D0DB
:1037180000283FF4F3AE24F0BFFB0090174B4FF4A2
:103728009E720349034807F047FEE7E688E7070863
:10373800A0E5070884C8070854E90708A4E90708AA
:10374800B0E60708D8EA070824C607086CC60708C1
:1037580040E70708D0E707085CE80708E0E707083C
:1037680018E8070800E90708BCE8070864E907083B
:1037780038EA0708F0E907088CEA070898EB070811
:103788000023039303A904A825F014F9039B0093CD
:10379800034B4FF49C720349034807F00DFEADE656
:1037A80030EB0708A0E5070884C8070870B58EB095
:1037B800E0B115461C462AB383B308AB00930CABA3
:1037C800002224F01BFF0646002833D19DF82E3036
:1037D800A02B3AD0444B4FF4AF724449444807F009
:1037E800EBFDB6FA86F040090EB070BD07F09AFD01
:1037F800404B40F24F123D493F4807F0DDFD07F0CE
:1038080091FDFEE707F08EFD3A4B4FF4A872374959
:10381800394807F0D1FD07F085FDFEE707F082FD86
:10382800344B40F251123149334807F0C5FD07F0D7
:1038380079FDFEE724F030FB0090304B4FF4AD7279
:103848002A492B4807F0B8FDCBE704AA2C4908A859
:1038580025F0BAF8064668B99DF81E30FF2B14D03B
:10386800602B1AD0274B4FF4B7722049204807F035
:10387800A3FDB6E724F010FB0090234B4FF4B3727E
:103888001A491B4807F098FDABE7204B4FF4B57277
:103898001649174807F090FDA3E70023224629465A
:1038A80004A8FFF775FC0646B0F1004F0CD00028BD
:1038B80097D024F0F1FA0090154B4FF4BE720B49E3
:1038C8000B4807F079FD8CE70023039303A904A8AC
:1038D80025F070F8039B00930E4B4FF4BC7203491C
:1038E800034807F069FD7CE734EC0708A0E5070802
:1038F80084C8070824C607086CC60708F8EB070839
:103908005CEC0708C8EC070868EC070894EC0708A3
:1039180048ED070808ED07080120704730B585B065
:10392800F8B104461C4B03611C4B436140682230CC
:1039380080B22083013029F081FAE060F8B10DF1FE
:103948000E03019303230093A388A268218B4EF0F2
:103958006FF80546228BBDF80E309A420CD0002530
:103968000EE007F0DFFC0E4BFE220E490E4807F072
:1039780023FD07F0D7FCFEE7012801D106E000256A
:10398800E06818B129F040FB0023E360012D14BF63
:103998000020012005B030BDB8ED0708E8ED0708A4
:1039A80024C60708A7ED07086CC6070870B582B0DB
:1039B800044600901C4B01220169006A03F03CFF99
:1039C800D0B90094194B01226169206A03F034FFD1
:1039D800054618B3164E174B4FF4A07231461648D9
:1039E80007F0EAFC63690093144B4FF4A272314666
:1039F800134807F0E1FC11E005460D4E0D4B4FF45E
:103A0800997231460C4807F0D7FC236900930B4B99
:103A18004FF49B7231460A4807F0CEFCB5FA85F0A0
:103A2800400902B070BD00BF7D3A01084D3A010857
:103A3800A7ED070818EE07086CC6070864DA070838
:103A480084C80708C269A2B110B582B004460B4603
:103A58000969D868FFF760FF48B102220023009384
:103A680003230121206828F0F5F802B010BD0322D5
:103A7800F4E77047C269A2B110B582B004460B469C
:103A88000969D868FFF748FF48B10122002300936D
:103A980003230121206828F0DDF802B010BD0322BD
:103AA800F4E7704730B583B00C46054638B16CB1C1
:103AB8001DB114B1EB69012B0FD003B030BD0B4B16
:103AC800DD220B490B4807F077FCF0E7074BDE22B5
:103AD8000749084807F070FCEAE70023009303232E
:103AE80022780221286828F0B5F8E6E718EE0708DA
:103AF800A7ED07086CC6070838B505460C46084602
:103B0800FCF7C0FB02462146284624F080F938BD60
:103B180030B585B0002835D004463949FFF7ECFFA9
:103B2800054600283AD14FF0FF326946204624F076
:103B38007AF9054600283BD1684600F0B9FC0546ED
:103B480000283DD1684600F071FD054600283FD1A8
:103B5800684600F023FE0546002841D1684600F07B
:103B6800D5FE0546002843D16946204624F069F968
:103B78000546D0B1234B4FF4F5722349234807F08B
:103B88001BFC12E007F0CEFB214B4FF4E2721E49FA
:103B98001E4807F011FC07F0C5FBFEE7194B40F281
:103BA800C7121949194807F007FC284605B030BD67
:103BB800144B4FF4E6721449144807F0FDFBF4E780
:103BC800104B4FF4E9721049104807F0F5FBECE789
:103BD8000C4B4FF4EC720C490C4807F0EDFBE4E792
:103BE800084B4FF4EF720849084807F0E5FBDCE79B
:103BF800044B4FF4F2720449044807F0DDFBD4E7A4
:103C080034EE070818EE0708A7ED07086CC6070882
:103C180024C6070870B586B0154603AA0023039387
:103C28005360936002931A4B01241C70C6685E604F
:103C3800B0F818C0A3F808C0D9601D6142F210712D
:103C48000591144903910490C4611946006A56F01D
:103C5800F2FB029028B10298B0FA80F0400906B051
:103C680070BD0823029347F23053009302AB4FF024
:103C7800FF320021022027F073FF0028EBD1064B0A
:103C880040F21A220549064807F096FBE3E700BF11
:103C980020060020AD3A010838EE0708A7ED07080E
:103CA80084C8070810B5044603460F4A0169006A2C
:103CB80003F004FF38B923460C4A6169206A03F00F
:103CC800FDFE40B910BD0A4B4FF4AA7209490A48D3
:103CD80007F072FBEFE7064B4FF4AE720549064852
:103CE80007F06AFBEEE700BF7D3A01084D3A01088C
:103CF80018EE0708A7ED07086CC6070810B50446B4
:103D0800806808B129F080F9E06808B129F07CF9E9
:103D180024220021204664F050FF10BD70B5ADF597
:103D28008C6D242200210DF23C4064F046FF0024F3
:103D3800A84B1C604FF4806221460FA864F03DFF39
:103D48000DF5886120460AF0ABF8CDF84404CDF8AB
:103D5800584427F03FFDCDF83C04DDF84434F3B176
:103D6800DDF84034EBB14FF6FE72934201D90024DE
:103D780018E00DF23C40FFF7D1FD044690B9964D8E
:103D8800964B40F24D222946954807F015FB954B76
:103D980040F255222946944807F00EFB02E0002421
:103DA80000E0002403F040FA03F038FACDF85C0490
:103DB8001CB9884B01221A605BE00DF23C40FFF70A
:103DC800F5FD044648B1894B40F26722824988488C
:103DD80007F0F2FA002C4CD1EBE77F4D7F4B40F215
:103DE800632229467E4807F0E7FA824B40F26B22AD
:103DF80029467D4807F0E0FAECE7784B4FF421724A
:103E08007549774807F0D8FA7B4B40F2BD227249D2
:103E1800754807F0D1FA94B9039C0FAD641B774B32
:103E280040F2C6226C49724807F0C6FA2246294673
:103E38000DF23C40FFF7EEFE002800F0C38047F289
:103E48003053009302AB4FF0FF320021012027F0DE
:103E580087FE012800F0E4800023CDF85834684B31
:103E680040F2E9225C49604807F0A6FA654827F065
:103E780049F8584B1B68002B40F0EC8026F0A4FE54
:103E880006460025029503AC2B464FF480620FA925
:103E9800204623F09AFF4FF0FF3207A9204623F06F
:103EA800C2FF04460028A8D1574907A8FFF724FEF7
:103EB8000446002846D102220BA907A823F0B3FF25
:103EC8000446002846D151490BA8FFF715FE0446C1
:103ED800002847D132462B460BA823F07DFF044328
:103EE80048D14B490BA8FFF707FE00284AD149499A
:103EF8000BA8FFF701FE044600284BD10BA907A821
:103F080023F09FFF044600284CD1434B4FF42C72FA
:103F18003149374807F050FA07A8FFF7F9FD04467A
:103F2800002847D107A903A823F08BFF04460028DF
:103F38003FF472AF294B4FF42E722749284807F0F7
:103F48003BFA61E7254B40F289222349244807F0D0
:103F580033FA59E7214B4FF424721F49204807F0E0
:103F68002BFA51E71D4B40F297221B491C4807F0DA
:103F780023FAAFE7194B40F29A221749184807F07D
:103F88001BFA41E7154B40F2A1221349144807F0E8
:103F980013FAACE7114B4FF429720F49104807F098
:103FA8000BFA31E70D4B40F2AA220B490C4807F0F7
:103FB80003FA29E7094B40F2B2220749084807F0FB
:103FC800FBF921E7154B4FF433720349064807F014
:103FD800F3F934E734060020A7ED070818EE0708C0
:103FE8006CC6070854EE070884C8070878EE070867
:103FF800D0D10708ACEE070804EF070828EF070838
:10400800B0EF0708E0930400580D0908DCEE070834
:10401800C44B0808E0EE0708E4EE07084CEF070871
:104028009DF808300022CDF85824012B0AD0022B25
:104038007FF415AF124B40F2E3221249124807F001
:10404800BBF913E7114B40F2DF220E49104807F085
:10405800B3F90BE70F4B40F2F1220A490E4807F07B
:10406800ABF90DF23C442046FFF71CFE2046FFF753
:1040780045FE002026F036FC0DF58C6D70BD00BFA6
:1040880094EF0708A7ED070884C8070878EF070822
:10409800D0D10708D8EF0708E4EF0708054B1B68DD
:1040A800002000E0DB6823B11A7D012AFAD1013033
:1040B800F8E77047B0D40620044B1B68002001E0E5
:1040C8000130DB68002BFBD1704700BF00D506200C
:1040D800044B1B68002001E00130DB68002BFBD19A
:1040E800704700BFACD4062038B505460C460846D4
:1040F800FCF7C8F802462146284623F088FE38BD5A
:1041080070B505461646FFF7EFFF044631462846C8
:10411800FFF7EAFF204370BDF8B5054617461E466F
:10412800FFF7E2FF04463A463346284623F054FE9A
:104138002043F8BD08B560B9074B1B6823B193F855
:104148003C005BF04DF808BD044B18680860084651
:10415800F9E75BF045F8F6E7CCD20620E8EF070868
:10416800F0B587B020B10646304B1C68002511E039
:1041780007F0D8F82E4BDB222E492F4807F01CF900
:1041880007F0D0F8FEE72D4BE8222A492A4807F025
:1041980013F9E468002C45D0694600230093ADF874
:1041A8000430207AFFF7C6FF074628B3022202A987
:1041B800304623F038FE05460028E4D13A46204927
:1041C80002A8FFF79DFF054668B9E28A00231D494A
:1041D80002A8FFF7A1FF0546E8B902A9304623F077
:1041E80030FE0546D5E7154BED221249124807F077
:1041F800E3F8002DCDD1E8E7012202A9304623F0EB
:1042080012FE05460028E0D00C4BF32209490A4863
:1042180007F0D2F8EDE7094BF9220649064807F0FE
:10422800CBF8B6E7284607B0F0BD00BFB0D40620EB
:1042380024C6070807F007086CC6070818EE070821
:10424800587A090820F00708F0B587B020B106466B
:10425800324B1C68002513E007F064F8304B40F23D
:104268006B123049304807F0A7F807F05BF8FEE713
:104278002E4B4FF4BC722B492B4807F09DF8E4688D
:10428800002C48D0694600230093ADF80430207A0A
:10429800FFF750FF074630B3022202A9304623F049
:1042A800C2FD05460028E3D13A46214902A8FFF796
:1042B80027FF054668B9628A00231E4902A8FFF74E
:1042C8002BFF0546F8B902A9304623F0BAFD05468A
:1042D800D5E7164B40F27D121249134807F06CF8E7
:1042E800002DCCD1E7E7012202A9304623F09BFD3F
:1042F80005460028DFD00D4B40F2831209490A48D1
:1043080007F05AF8ECE7094B40F2891205490648CC
:1043180007F052F8B3E7284607B0F0BD00D50620ED
:1043280024C6070807F007086CC6070818EE070830
:10433800587A090820F00708F8B505460C461046D3
:104348001F460A46294662F0F5FA68B12146284612
:1043580064F0A5FC06463B46094A211A281864F071
:104368008BFA3044844208D2064B40F20A220649AE
:10437800064807F021F80020F8BD0120FCE700BF3F
:1043880024F0070818EE070807F007086CC60708A6
:1043980070B58EB020B106463D4B1C6800251BE069
:1043A80006F0C0FF3B4B40F212223B493B4807F066
:1043B80003F806F0B7FFFEE7394B4FF407723649AA
:1043C800364806F0F9FF6946207AFFF7B3FE024641
:1043D80000283BD065B3E468002C56D01D2200218C
:1043E80006A864F0EAFB00230093ADF8043003222A
:1043F80002A9304623F017FD05460028DCD1238B9F
:10440800221D1D2106A8FFF797FF08B90125DAE745
:1044180006AA244902A8FFF773FE05460028D2D051
:104428001F4B4FF409721C491C4806F0C5FFCAE728
:104438001D4902A8FFF764FE054680B1184B4FF4EA
:104448000D721549154806F0B7FFC4E7144B40F242
:104458003A221149114806F0AFFF0125BBE7E28A6D
:104468000023124902A8FFF757FE054628B902A9FA
:10447800304623F0E6FC0546ADE7094B40F2412201
:104488000549064806F098FFA5E728460EB070BD16
:10449800ACD4062024C6070807F007086CC607082E
:1044A80018EE07082CF0070830F0070834F0070862
:1044B8002DE9F04F89B00390A0B15049039C2046E4
:1044C800FFF712FE0290C0B9042204A9204623F087
:1044D800AAFC0290B8B14A4B78224A494A4806F0E9
:1044E8006BFF10E00090494B64224649484806F0AB
:1044F80063FF40F20723029337E0414B732241499F
:10450800414806F059FF434863F00CF8424B1B68DA
:104518000024264625462746A046A246A146A3468D
:104528001CE09A6C12EB090291464BF1000B1A6ED3
:1045380012EB080290464AF1000A1A6D521947F127
:104548000007DD6CAD1847F100075A6E121946F1E5
:1045580000069C6EA41846F100061B68002BE0D1EB
:104568002C4862F0E9FF029B1BB1029809B0BDE834
:10457800F08F2A463B46294904A8FFF7CDFD029D46
:1045880005431FD122463346254904A8FFF7C4FD39
:1045980028431ED14A465B46224904A8FFF7BCFDC2
:1045A8000446E8B9424653461F4904A8FFF7B4FD3C
:1045B80054EA000302931AD104A9039823F041FC9A
:1045C8000290D2E70E4B92220E490F4806F0F4FEF5
:1045D800D8E70B4B95220B490B4806F0EDFED9E7BF
:1045E800074B98220749084806F0E6FEDAE7044B2D
:1045F8009B220449044806F0DFFEB6E75CF0070892
:1046080018EE070807F007086CC6070838F007080F
:1046180084C807082C6F0520D0D2062060F0070850
:1046280064F00708FC1C080868F0070870B58AB031
:104638000646D8B1504862F075FFFFF72FFD0546D2
:104648004E493046FFF750FD0446D0B90DBB012254
:1046580002A9304623F0E7FB044608B3484B40F272
:1046680027124849484806F0A7FE31E00090474B1A
:104678004FF487724349464806F09EFE40F20724ED
:104688001CE03F4B4FF48D723E493F4806F094FEC4
:104698000EE0022202A9304623F0C5FB044680B989
:1046A8002A4600233B4902A8FFF736FD044690B985
:1046B800002D38D0BCB1304862F03EFF20460AB029
:1046C80070BD2F4B4FF491722E492F4806F074FE9F
:1046D800002CEDD1E4E72A4B40F22F1229492A4851
:1046E80006F06AFEE4E72C4902A8FFF7FDFC044641
:1046F80050BB2A4606A902A823F090FB044658BBE3
:1047080006A8FFF72DFD044600282DD106A902A80A
:1047180023F097FB044640B1194B4FF4A572194991
:10472800194806F049FE002CC5D102A9304623F0ED
:1047380088FB04460028BED0114B40F251121149A3
:10474800114806F039FEB6E70D4B4FF49C720D493F
:104758000D4806F031FEAEE7094B4FF49F72094948
:10476800094806F029FEA6E7054B4FF4A272054951
:10477800054806F021FE9EE72C6F052094F00708F7
:1047880018EE070807F007086CC607086CF007085A
:1047980084C807088087080898F0070870B58AB0A9
:1047A8000646D8B1504862F0BDFEFFF785FC0546C5
:1047B8004E493046FFF798FC0446D0B90DBB01229C
:1047C80002A9304623F02FFB044608B3484B40F2B9
:1047D800B7124849484806F0EFFD31E00090474BD2
:1047E8004FF4CF724349464806F0E6FD40F20724ED
:1047F8001CE03F4B4FF4D5723E493F4806F0DCFDC4
:104808000EE0022202A9304623F00DFB044680B9CF
:104818002A4600233B4902A8FFF77EFC044690B9CC
:10482800002D38D0BCB1304862F086FE20460AB070
:1048380070BD2F4B4FF4D9722E492F4806F0BCFD9E
:10484800002CEDD1E4E72A4B40F2BF1229492A484F
:1048580006F0B2FDE4E72C4902A8FFF745FC044640
:1048680050BB2A4606A902A823F0D8FA044658BB2A
:1048780006A8FFF7E9FC044600282DD106A902A8DE
:1048880023F0DFFA044640B1194B4FF4ED72194991
:10489800194806F091FD002CC5D102A9304623F035
:1048A800D0FA04460028BED0114B40F2E11211495B
:1048B800114806F081FDB6E70D4B4FF4E4720D493F
:1048C8000D4806F079FDAEE7094B4FF4E772094948
:1048D800094806F071FDA6E7054B4FF4EA72054951
:1048E800054806F069FD9EE72C6F05209CF0070837
:1048F80018EE070807F007086CC607086CF00708E9
:1049080084C807088087080898F0070870B58EB033
:10491800064660B3694862F005FEFFF7D9FB054615
:1049280067493046FFF7E0FB044658BB012202A95D
:10493800304623F078FA0446002834D1614902A8A9
:10494800FFF7D2FB0446002835D1002D3BD10122C8
:1049580006A902A823F067FA044600283AD05A4B61
:104968004FF41F7259495A4806F026FD4AE0009054
:10497800584B40F255225549574806F01DFD40F264
:1049880007240DE0504B40F262225049504806F08F
:1049980013FD002D5BD0002C37D0484862F0CCFDC9
:1049A80020460EB070BD484B4FF41A72474948482C
:1049B80006F002FDEDE7444B40F26E2243494448BD
:1049C80006F0FAFCE5E7022206A902A823F02BFA72
:1049D800044680B92A460023404906A8FFF79CFBF5
:1049E80004460028D5D0384B4FF42172374938484F
:1049F80006F0E2FCCDE7344B40F2772233493448E5
:104A080006F0DAFC002CC4D1E4E7354906A8FFF724
:104A18006BFB0446002831D12A460AA906A823F0D0
:104A2800FDF90446002831D10AA8FFF7B1FC044675
:104A3800002833D10AA906A823F003FA044640B196
:104A4800214B40F29F222149214806F0B5FC002C59
:104A5800A3D106A902A823F0F4F9044630BB02A9A1
:104A6800304623F0EEF90446002896D0164B4FF452
:104A78002B721649164806F09FFC8EE7124B40F23F
:104A88008D221249124806F097FC86E70E4B40F239
:104A980093220E490E4806F08FFC7EE70A4B40F23F
:104AA80099220A490A4806F087FC76E7064B40F245
:104AB800A6220649064806F07FFC6EE72C6F052003
:104AC800A0F00708A4F0070818EE070807F0070881
:104AD8006CC607086CF0070884C8070880870808B0
:104AE800A8F0070830B54FF0000E4FF00C0C09E0A5
:104AF80010F80C302F2B13D0002010E00EF1010E0F
:104B08000CF1010C8C4509D29E45F1D012F80E50DB
:104B180010F80C40A542F1D0002000E0002030BD84
:104B28000120FCE70B4B03604FF4827282809918D6
:104B38008160828103F5027202618022828203F51C
:104B4800227181614FF40061C16103F68823036219
:104B5800828470474006002008B54EF013F90228F9
:104B680006D007DB0438C0B2032805D9002002E0CC
:104B7800012000E0002008BD0120FCE708B54EF048
:104B880071F8002025F0AEFE08BD000008B5002829
:104B980028D01A4A02601A4A42601A4A82601A4A9F
:104BA800C2601A4A42611A4A82611A4AC2611A4AA2
:104BB80002621A4A42621A4A82621A4A02631A4A0C
:104BC800C2621A4AC2651A4A82651A4AC2641A4AF5
:104BD80002651A4A82641A4A42651A4A02641A4AE3
:104BE800426408BD06F09EFB184B40F2C3421849C8
:104BF800184806F0E1FB06F095FBFEE77D53060832
:104C0800C953060809540608655406087954060865
:104C1800AD5506081956060889560608915606081D
:104C28007D5101082D520108D1500108358602082E
:104C3800F58802082585020881870208898A020802
:104C4800C18602087D8B0208C183020824C60708B2
:104C5800C2F007086CC6070838B598B10C46054677
:104C680000F500534FF0FF31D3F80C0A24F0F2FCA2
:104C7800012813D00F4B40F2F1120F490F4806F0EC
:104C88009BFB38BD06F04EFB0D4B4FF4F4720A49FE
:104C98000C4806F091FB06F045FBFEE7002184F87E
:104CA800001E05F500550B460A46D5F80C0A24F0F7
:104CB8003BFAE6E7D4F00708C2F0070884C80708FB
:104CC80024C607086CC6070810B582B007285CD848
:104CD800DFE800F004161E3A4B5B5B53304C314B57
:104CE80040F2DE222146304806F066FB4FF0B8F964
:104CF8002E4B40F2EB2221462D4806F05DFB4CE09E
:104D08002C4B40F2F3222649274806F055FB44E095
:104D1800294B40F2FF222249234806F04DFB02208E
:104D28004EF0D0FF38B9254B40F226321C491E48B8
:104D380006F042FB31E00090214B40F22A3218493C
:104D48001B4806F039FB28E019B11E48FFF784FF1D
:104D580023E006F0E7FA1C4B40F2323210491B48B8
:104D680006F02AFB06F0DEFAFEE7194B4FF44F7205
:104D78000B490F4806F020FB0FE0164B4FF450721A
:104D88000749094806F018FB07E00090124B4FF45A
:104D980051720349114806F00FFB02B010BD00BF65
:104DA800C2F00708F4F00708D0D107082CF107086B
:104DB80084C807084CF1070888F10708C0F10708FC
:104DC800F4F107084811002024C607086CC6070834
:104DD8002CF207086CF2070880F20708DCD20708F3
:104DE80038B5B0B1054600F500534FF0FF31D3F8A0
:104DF8000C0A24F02FFC01282BD10023022B1CD8ED
:104E080040F6046202FB035292F8002E6AB10133A5
:104E1800F4E706F087FA134B4FF4FE721249134871
:104E280006F0CAFA06F07EFAFEE740F6046202FBD4
:104E38000354012384F8003E00E0002405F50055E2
:104E480000231A461946D5F80C0A24F06DF92046B5
:104E580038BD074B40F20E220349064806F0ACFA6B
:104E68000024F4E724C60708C2F007086CC6070840
:104E7800D4F0070884C80708F0B585B0002302936A
:104E88000393002932D00C46344B1D68002D39D0CD
:104E98004F680E892846FBF7F5F903462A4631463E
:104EA8003846FFF71FFE01284CD1236940F6FA5215
:104EB80093423BD800932A4B40F2993229492A4819
:104EC80006F07AFA2948FFF78BFF054630B32269C6
:104ED800E16864F07EF82369C5F8FC3D03238DF88A
:104EE8000C30029502A84EF069F934E006F01AFA7F
:104EF8001F4B40F28D321B491E4806F05DFA06F042
:104F080011FAFEE706F00EFA194B40F28E321549F7
:104F1800184806F051FA06F005FAFEE7164B4FF46A
:104F28006A721049154806F047FA14E040F6FA523A
:104F380001920093124B40F2AD320A490F4806F035
:104F48003BFA08E0019700960E4B40F2B232054951
:104F58000D4806F031FA05B0F0BD00BF3C06002050
:104F6800C0F20708C2F00708D0D10708481100208E
:104F780024C607086CC60708E8F2070884C80708AB
:104F880010F3070868F30708DCD2070870B584B087
:104F980000230293039329B30C464E680D89274BCF
:104FA8001B68274A126829463046FFF79BFD0128EF
:104FB80038D1236940F6FA52934227D82148FFF79F
:104FC8000FFF0546D0B12269E16864F002F8236951
:104FD800C5F8FC3D06238DF80C30029502A84EF06A
:104FE800EDF828E006F09EF9174B40F255321749C4
:104FF800174806F0E1F906F095F9FEE7154B40F27F
:1050080071321249144806F0D7F914E040F6FA5202
:1050180001920093114B40F276320C490E4806F08B
:10502800CBF908E0019600950D4B40F27D32074917
:105038000C4806F0C1F904B070BD00BF3806002066
:105048003C0600204811002024C60708C2F00708C3
:105058006CC60708E8F2070884C80708C0F3070801
:105068000CF40708DCD2070870B584B005460023A5
:105078008DF80F308CB20DF10F03009314230E4AF4
:10508800214652F0B5FC9DF80F3023B9002623B114
:10509800304604B070BD094EF9E70DF10F030093D7
:1050A8001723074A2146284652F0A2FC9DF80F30E4
:1050B800002BEDD0034EEBE764F40708814E01089E
:1050C8007CF40708954F010870B584B070B10C46A0
:1050D8000546B9B906F026F91F4B40F297421F4919
:1050E8001F4806F069F906F01DF9FEE706F01AF9FF
:1050F800194B40F296421949194806F05DF906F035
:1051080011F9FEE7FFF7B0FF064602F087F8F8B19D
:1051180006B300233246294602F0D0FC064658B9A9
:10512800019500940F4B40F2B4420C490E4806F02A
:1051380043F9304604B070BD0290019500940B4BC2
:1051480040F2AB4205490A4806F036F9A226F0E7D4
:10515800A226EEE7A226ECE724C60708C2F0070855
:105168006CC60708CCF40708D0D1070894F40708E0
:1051780084C80708F0B583B078B10C4615460646D2
:10518800B9B906F0CFF8204B40F21B421F4920481E
:1051980006F012F906F0C6F8FEE706F0C3F81A4B57
:1051A80040F21A4219491A4806F006F906F0BAF808
:1051B800FEE7FFF759FF074602F030F8F8B107B3EA
:1051C800002300933B462A46314602F035FB05464C
:1051D80058B9019600940F4B40F237420B490E48DC
:1051E80006F0EAF8284603B0F0BD00900B4B4FF4E8
:1051F800866206490A4806F0DFF8A125F2E7A125EC
:10520800F0E7A125EEE700BF24C60708C2F00708AB
:105218006CC60708C8DD0708D0D1070854DD0708A1
:1052280084C8070870B58CB005460C460020079066
:10523800089009900A900B900490059006900390AE
:1052480002900895ADF824109DF840108DF81C10B8
:105258000A920B93014626F051FF26F0BBFA029002
:1052680042F2107306931B4B049302AB059301F0B3
:10527800D5FF60B304AA07A955F0DDF8064660B962
:1052880042F21073009303AB4FF0FF32002108463F
:1052980026F066FC01280CD0032600960E4B40F23F
:1052A8007D420E490E4806F087F8A02630460CB01D
:1052B80070BD9DF80C60002EEFD101950094094B4C
:1052C80040F282420549084806F076F8EEE7A02643
:1052D800ECE700BFF5520108ECF40708C2F0070834
:1052E80084C8070828F50708D0D1070800B583B097
:1052F80058B10A460068A0B1F9B100210091032312
:10530800127826F0A7FC03B000BD06F00BF8114B8D
:1053180040F207421049114806F04EF806F002F82C
:10532800FEE705F0FFFF0B4B4FF481620A490B487B
:1053380006F042F805F0F6FFFEE705F0F3FF054B2F
:1053480040F209420449054806F036F805F0EAFF3C
:10535800FEE700BF24C60708C2F007086CC60708A6
:1053680010B578B1044642F60C22002163F025FC02
:10537800012023F0A5FF04F50054C4F80C0A00B17D
:10538800012010BD05F0CEFF044B40F2D5120449B0
:10539800044806F011F805F0C5FFFEE724C6070823
:1053A800C2F007086CC6070830B5B3B000243094C3
:1053B80031940AAD38222146284663F0FEFB18A82E
:1053C800FFF7E4FB2846FFF7ADFB7C4BDA789978CA
:1053D8001B88029301910092794B4FF4A662794998
:1053E800794805F0E9FF7949204608F059FD784BDE
:1053F800186010B1754B1B6813BB764B40F24F52C7
:105408007049754805F0D8FF00231C46002B40D191
:105418000125724B40F2CA526A496B4805F0CCFF2D
:10542800002D00F0BA806A4B186820B127F0ECFD17
:10543800674B00221A60002025F054FA33B030BDC3
:10544800674B40F256525F495F4805F0B5FF654B20
:1054580000930123002220216348006823F02EFBDB
:1054680010F0200F0BD0614B4FF4AC6255495648F1
:1054780005F0A2FF01F0D2FE04460123C6E75C4B0B
:1054880040F266524F49504805F096FF0123002428
:10549800BCE784B100220092564B5749204602F0DF
:1054A800CBF9054640B1554B40F2755245494A483B
:1054B80005F082FFADE7012544B1002200924D4B73
:1054C8004F49204602F0B8F90546A8B94D48FFF7FC
:1054D80047FF01289DD14C4B3D4A126818A90AA8DC
:1054E8004DF0E2FB80B10090484B40F297523549AD
:1054F800394805F061FF8CE7454B40F28552314948
:10550800354805F059FF84E70023019303220092F0
:105518004FF480523F49404825F0D2F9012808D07D
:1055280000903E4B40F2A65226492B4805F044FF16
:105538006FE700238DF8C43030A84DF03FFE08E037
:1055480047F2305025F0DEFC4DF01CFC0A283FF4F1
:1055580060AF00230693079308930993FFF7FCFABB
:105568000128EDD106A84DF013FC0028E8D14DF034
:1055780009FC099B0493089B0393079B0293069BD2
:105588000193274B53F820300093264B40F2BD522D
:105598000C490D4805F010FFD2E70023154A1649BB
:1055A800204602F08BFA00283FF43DAF1E4B40F234
:1055B800D5520449084805F0FFFE34E7708709080A
:1055C80058F50708C2F00708D0D1070838060020A8
:1055D8003C06002080F5070884C807088CF70708F0
:1055E800B0F50708C0D401003C870020D8F50708AB
:1055F80000F60708814E010834F6070854F6070834
:1056080090F6070848110020D14C0108E0F6070879
:10561800B0F6070810F70708854B01081CF70708BC
:105628002C85090848F70708B8F7070808B5044B98
:10563800186818B10022012123F058FB08BD00BFEB
:105648005C3B002008B5044B186818B10022012102
:1056580023F04CFB08BD00BF5C3B00202DE9F04166
:105668008EB007460E4614461D46002009900A9043
:105678000B900C900D900DF11C0807900890049069
:10568800059006900390014626F038FD8DF82470A9
:105698008DF825600A942046FAF7F4FDADF82C0041
:1056A8000C95149B0D9326F095F807904FF4FA7318
:1056B8000693124B0493CDF8148002E0039BB3B910
:1056C800BCB104AA09A90E4B186854F0B4FE0446EC
:1056D8000028F5D14FF0FF33009303AB00221146A9
:1056E800104626F03DFA0128E8D00324E8E7032411
:1056F800E6E720460EB0BDE8F08100BF0D5701086F
:10570800583B0020006850B110B582B000240094C6
:1057180003230A78214626F09DFA02B010BD70478F
:105728002DE9F04186B00023059301F07DFD01F0DD
:1057380075FD894B186000283DD001F037FD874B77
:1057480040F20B128649874805F036FE05A900206D
:1057580008F0A6FB0546002839D04FF4007027F062
:105768006DFB044600283ED023F099F97E4B186063
:10577800002844D02B467D4A40217D4863F07CF8C0
:1057880000227C494FF400500CF006FC00227A49B4
:105798004FF400500CF024FC0025002D40F09780B9
:1057A800764B03EB051359686F4B186823F046FADC
:1057B8000135EDB2F1E705F0B5FD714B4FF4837299
:1057C8006749704805F0F8FD05F0ACFDFEE705F007
:1057D800A9FD6B4B4FF4877261496A4805F0ECFDEF
:1057E80005F0A0FDFEE705F09DFD654B40F21112A6
:1057F8005B49644805F0E0FD05F094FDFEE705F01F
:1058080091FD5F4B4FF48A7255495E4805F0D4FD0F
:1058180005F088FDFEE7594A02EB0312526811436E
:105828000133DBB255E0B046544F07EB0617B98990
:10583800B86816F05DFDF873BB7B834216D0524AF8
:105848006019C5F50071142D12DD504B01924FEA15
:1058580008184A4A52F8082000924D4A63F00CF89A
:10586800002807DB05440136F6B24BE0494AE7E772
:10587800494BEBE705F056FD414B40F253123849CE
:10588800404805F099FD05F04DFDFEE705F04AFD9D
:105898003B4B40F25B1232493A4805F08DFD05F06A
:1058A80041FDFEE705F03EFD354B40F25F122C4905
:1058B800344805F081FD05F035FDFEE72C4B0093DB
:1058C800364B4FF4B9722649354805F075FD00236B
:1058D8001946002B9FD04FF0FF330093002301227D
:1058E8002148006823F0EAF80028F0D02D4D0FCDAC
:1058F80020606160A260E360286820612B792375CD
:1059080000261425002E8ED0274AC5F5007160198F
:1059180062F0B2FF0028B9DB0544B5F5007FC1D2BB
:1059280002940195124E0096204B40F261120C49E8
:105938000C4805F041FD0095234632460121002020
:10594800FFF78CFE0028B9D1194B4FF4B772044900
:10595800044805F031FDBAE7583B0020A0F80708D5
:1059680091F80708D0D107085C3B0020D8F8070851
:10597800603B00204D560108355601080000002004
:1059880024C607086CC60708E0FA070878F807086D
:105998000CF90708D4FA0708F0C4080890F90708B2
:1059A80084C80708F4F807082CF9070834F9070829
:1059B80064F90708064B1B78DAB2012B03D0022AD8
:1059C80003D101207047002070470320704700BFB3
:1059D800B04E0020012804D0022804D028B9044879
:1059E800704704487047044870470448704700BF30
:1059F800C0F90708C8F90708D0F90708F8B4080873
:105A080030B5A3B00546154B154A802102A862F0AF
:105A180033FF09E002AB0093124B40F2A712124980
:105A2800124805F0C9FCACB100230093104B2A467C
:105A380002A9104C206801F0FFFE04460028E9D0B6
:105A480002AB00930C4B40F2A51207490B4805F036
:105A5800B3FCE8E7204623B030BD00BFA43B0020DC
:105A6800D8F9070828FA070818FA0708D0D107084C
:105A7800695B0108A03B0020ECF9070884C8070807
:105A880038B5054600240CB1002038BD230129464D
:105A9800054AD058FAF7ECFB10B10134E4B2F2E74A
:105AA800014800EB0410F0E71000002010B5044690
:105AB80001220188406816F022FC4FF47A7025F024
:105AC80021FA00222188606816F019FC10BD08B57B
