:020000040801F1
:1000000000000C20417C02087D2B02087F2B020897
:10001000812B0208832B0208852B0208917C0208A1
:10002000000000000000000000000000F9D20308FA
:10003000872B0208000000009DD20308552C0208FF
:10004000917C0208917C0208917C0208917C020854
:10005000917C0208917C0208917C0208917C020844
:10006000917C0208917C0208917C0208917C020834
:10007000917C0208892B0208917C0208917C02087D
:10008000917C0208917C0208917C0208917C020814
:10009000917C0208917C0208932B0208917C020853
:1000A0009F2B0208AB2B0208B72B0208C52B0208B6
:1000B00000000000D52B0208E52B0208917C020805
:1000C000917C0208F52B0208052C0208917C02089D
:1000D000917C0208917C0208917C0208917C0208C4
:1000E000917C0208917C0208917C0208917C0208B4
:1000F000917C0208917C0208917C0208917C0208A4
:10010000917C0208917C0208917C0208917C020893
:10011000917C0208917C0208917C0208917C020883
:10012000917C0208917C0208917C0208152C02083F
:10013000252C0208352C0208917C0208917C0208CB
:10014000917C0208917C0208917C0208917C020853
:10015000917C0208917C0208917C0208917C020843
:10016000917C0208917C0208917C0208917C020833
:10017000917C0208917C0208917C0208917C020823
:10018000917C0208917C0208917C0208917C020813
:10019000917C0208917C0208917C0208917C020803
:1001A000917C0208917C0208917C0208917C0208F3
:1001B000917C020800000000452C0208917C020896
:1001C000917C020800000000917C0208917C0208EA
:1001D000917C0208917C0208917C0208917C0208C3
:1001E000917C0208917C0208917C0208917C0208B3
:1001F0000000000000000000917C0208917C0208D1
:10020000917C0208917C0208917C0208917C020892
:10021000917C0208917C0208917C0208917C020882
:10022000917C0208917C0208917C0208917C020872
:08023000917C0208917C020898
:1002380010B5054C237833B9044B13B10448AFF318
:1002480000800123237010BDE0050020000000009D
:10025800DCC4070808B5034B1BB103490348AFF3D7
:10026800008008BD00000000E4050020DCC4070889
:1002780010F8012B11F8013B012A28BF9A42F7D048
:10028800D01A7047034613F8012B002AFBD1181A1D
:100298000138704781F0004102E000BF83F000435D
:1002A80030B54FEA41044FEA430594EA050F08BF09
:1002B80090EA020F1FBF54EA000C55EA020C7FEACD
:1002C800645C7FEA655C00F0E2804FEA5454D4EB4A
:1002D8005555B8BF6D420CDD2C4480EA020281EA14
:1002E800030382EA000083EA010180EA020281EA4C
:1002F8000303362D88BF30BD11F0004F4FEA01319E
:100308004FF4801C4CEA113102D0404261EB4101AC
:1003180013F0004F4FEA03334CEA133302D0524232
:1003280063EB430394EA050F00F0A780A4F10104EE
:10033800D5F1200E0DDB02FA0EFC22FA05F2801828
:1003480041F1000103FA0EF2801843FA05F359410E
:100358000EE0A5F120050EF1200E012A03FA0EFC8D
:1003680028BF4CF0020C43FA05F3C01851EBE371B7
:1003780001F0004507D54FF0000EDCF1000C7EEBD4
:1003880000006EEB0101B1F5801F1BD3B1F5001F12
:100398000CD349085FEA30004FEA3C0C04F1010431
:1003A8004FEA445212F5800F80F09A80BCF1004F5A
:1003B80008BF5FEA500C50F1000041EB045141EADC
:1003C800050130BD5FEA4C0C404141EB0101013CA5
:1003D80028BFB1F5801FE9D291F0000F04BF014694
:1003E8000020B1FA81F308BF2033A3F10B03B3F166
:1003F80020020CDA0C3208DD02F1140CC2F10C02F6
:1004080001FA0CF021FA02F10CE002F11402D8BF53
:10041800C2F1200C01FA02F120FA0CFCDCBF41EA1F
:100428000C019040E41AA2BF01EB0451294330BDEE
:100438006FEA04041F3C1CDA0C340EDC04F11404CB
:10044800C4F1200220FA04F001FA02F340EA0300A2
:1004580021FA04F345EA030130BDC4F10C04C4F1E8
:10046800200220FA02F001FA04F340EA03002946C8
:1004780030BD21FA04F0294630BD94F0000F83F412
:10048800801306BF81F480110134013D4EE77FEAF5
:10049800645C18BF7FEA655C29D094EA050F08BF41
:1004A80090EA020F05D054EA000C04BF1946104622
:1004B80030BD91EA030F1EBF0021002030BD5FEA66
:1004C800545C05D14000494128BF41F0004130BD8E
:1004D80014F580043CBF01F5801130BD01F00045E2
:1004E80045F0FE4141F470014FF0000030BD7FEA55
:1004F800645C1ABF194610467FEA655C1CBF0B4650
:10050800024650EA013406BF52EA033591EA030F66
:1005180041F4002130BD00BF90F0000F04BF00215E
:10052800704730B54FF4806404F132044FF0000591
:100538004FF0000150E700BF90F0000F04BF00210A
:10054800704730B54FF4806404F1320410F0004570
:1005580048BF40424FF000013EE700BF42004FEA6B
:10056800E2014FEA31014FEA02701FBF12F07F43E8
:1005780093F07F4F81F06051704732F07F4208BF9F
:10058800704793F07F4F04BF41F40021704730B5A6
:100598004FF4607401F0004521F000411CE700BFF2
:1005A80050EA010208BF704730B54FF000050AE075
:1005B80050EA010208BF704730B511F0004502D576
:1005C800404261EB41014FF4806404F132045FEA78
:1005D800915C3FF4D8AE4FF003025FEADC0C18BF21
:1005E80003325FEADC0C18BF033202EBDC02C2F113
:1005F800200300FA03FC20FA02F001FA03FE40EAA5
:100608000E0021FA02F11444BDE600BF70B54FF0A8
:10061800FF0C4CF4E06C1CEA11541DBF1CEA135586
:1006280094EA0C0F95EA0C0F00F0DEF82C4481EAEE
:10063800030621EA4C5123EA4C5350EA013518BF0E
:1006480052EA033541F4801143F4801338D0A0FBFB
:1006580002CE4FF00005E1FB02E506F00042E0FBA8
:1006680003E54FF00006E1FB03569CF0000F18BFAE
:100678004EF0010EA4F1FF04B6F5007F64F5407456
:1006880004D25FEA4E0E6D4146EB060642EAC621E9
:1006980041EA55514FEAC52040EA5E504FEACE2E56
:1006A800B4F1FD0C88BFBCF5E06F1ED8BEF1004F59
:1006B80008BF5FEA500E50F1000041EB045170BDD5
:1006C80006F0004646EA010140EA020081EA030119
:1006D800B4EB5C04C2BFD4EB0C0541EA045170BD15
:1006E80041F480114FF0000E013C00F3AB8014F18F
:1006F800360FDEBF002001F0004170BDC4F10004D8
:10070800203C35DA0C341BDC04F11404C4F1200558
:1007180000FA05F320FA04F001FA05F240EA0200B3
:1007280001F0004221F0004110EBD37021FA04F6E9
:1007380042EB06015EEA430E08BF20EAD37070BDA3
:10074800C4F10C04C4F1200500FA04F320FA05F002
:1007580001FA04F240EA020001F0004110EBD37004
:1007680041F100015EEA430E08BF20EAD37070BD74
:10077800C4F1200500FA05F24EEA020E20FA04F34D
:1007880001FA05F243EA020321FA04F001F00041FC
:1007980021FA04F220EA020000EBD3705EEA430E6D
:1007A80008BF20EAD37070BD94F0000F0FD101F09C
:1007B8000046400041EB010111F4801F08BF013CD5
:1007C800F7D041EA060195F0000F18BF704703F013
:1007D8000046520043EB030313F4801F08BF013D9A
:1007E800F7D043EA0603704794EA0C0F0CEA135556
:1007F80018BF95EA0C0F0CD050EA410618BF52EA10
:100808004306D1D181EA030101F000414FF0000015
:1008180070BD50EA410606BF1046194652EA430623
:1008280019D094EA0C0F02D150EA013613D195EA97
:100838000C0F05D152EA03361CBF104619460AD1DF
:1008480081EA030101F0004141F0FE4141F47001E9
:100858004FF0000070BD41F0FE4141F4780170BDD9
:1008680070B54FF0FF0C4CF4E06C1CEA11541DBF3E
:100878001CEA135594EA0C0F95EA0C0F00F0A7F840
:10088800A4EB050481EA030E52EA03354FEA01316D
:1008980000F088804FEA03334FF0805545EA131380
:1008A80043EA12634FEA022245EA111545EA106548
:1008B8004FEA00260EF000419D4208BF964244F1DF
:1008C800FD0404F5407402D25B084FEA3202B61AFE
:1008D80065EB03055B084FEA32024FF480104FF4D2
:1008E800002CB6EB020E75EB030E22BFB61A754646
:1008F80040EA0C005B084FEA3202B6EB020E75EBD9
:10090800030E22BFB61A754640EA5C005B084FEA40
:100918003202B6EB020E75EB030E22BFB61A75460D
:1009280040EA9C005B084FEA3202B6EB020E75EB18
:10093800030E22BFB61A754640EADC0055EA060ED9
:1009480018D04FEA051545EA16754FEA06164FEA1C
:10095800C30343EA52734FEAC2025FEA1C1CC0D1C8
:1009680011F4801F0BD141EA00014FF000004FF055
:10097800004CB6E711F4801F04BF01430020B4F116
:10098800FD0C88BFBCF5E06F3FF6AFAEB5EB030CCE
:1009980004BFB6EB020C5FEA500C50F1000041EBCB
:1009A800045170BD0EF0004E4EEA113114EB5C0498
:1009B800C2BFD4EB0C0541EA045170BD41F480116B
:1009C8004FF0000E013C90E645EA060E8DE60CEA73
:1009D800135594EA0C0F08BF95EA0C0F3FF43BAF90
:1009E80094EA0C0F0AD150EA01347FF434AF95EA47
:1009F8000C0F7FF425AF104619462CE795EA0C0F2B
:100A080006D152EA03353FF4FDAE1046194622E7F7
:100A180050EA410618BF52EA43067FF4C5AE50EAD1
:100A280041047FF40DAF52EA43057FF4EBAE12E7C1
:100A38004FF0FF3C06E000BF4FF0010C02E000BFA2
:100A48004FF0010C4DF804CD4FEA410C7FEA6C5C85
:100A58004FEA430C18BF7FEA6C5C1BD001B050EA28
:100A6800410C0CBF52EA430C91EA030F02BF90EA13
:100A7800020F0020704710F1000F91EA030F58BFD2
:100A8800994208BF90422CBFD8176FEAE37040F034
:100A9800010070474FEA410C7FEA6C5C02D150EAD2
:100AA800013C07D14FEA430C7FEA6C5CD6D152EA8D
:100AB800033CD3D05DF8040B704700BF8446104652
:100AC80062468C461946634600E000BF01B5FFF751
:100AD800B7FF002848BF10F1000F01BD4DF808ED21
:100AE800FFF7F4FF0CBF012000205DF808FB00BFF2
:100AF8004DF808EDFFF7EAFF34BF012000205DF84C
:100B080008FB00BF4DF808EDFFF7E0FF94BF012098
:100B180000205DF808FB00BF4DF808EDFFF7CEFF99
:100B280094BF012000205DF808FB00BF4DF808EDD8
:100B3800FFF7C4FF34BF012000205DF808FB00BFA9
:100B48004FEA410C7FEA6C5C02D150EA013C0AD1C1
:100B58004FEA430C7FEA6C5C02D152EA033C02D1B3
:100B68004FF0000070474FF0010070474FEA410214
:100B780012F5001215D211D56FF47873B3EB6252E7
:100B880012D94FEAC12343F0004343EA505311F00E
:100B9800004F23FA02F018BF404270474FF00000A0
:100BA800704750EA013005D111F0004008BF6FF0DE
:100BB800004070474FF00000704700BF4FEA410205
:100BC800B2F1E04324BFB3F5001CDCF1FE5C0DD9A3
:100BD80001F0004C4FEAC0024CEA5070B2F1004FED
:100BE80040EB830008BF20F00100704711F0804FF0
:100BF80021D113F13872BCBF01F00040704741F4B5
:100C080080114FEA5252C2F11802C2F1200C10FAB8
:100C18000CF320FA02F018BF40F001004FEAC1239C
:100C28004FEAD32303FA0CFC40EA0C0023FA02F340
:100C38004FEA4303CCE77FEA625307D150EA013316
:100C48001EBF4FF0FE4040F44000704701F00040E6
:100C580040F0FE4040F40000704700BF53B94AB965
:100C6800002908BF00281CBF4FF0FF314FF0FF30AC
:100C780000F0C6B9ADF1080C6DE904CE00F01AF821
:100C8800DDF804E0DDE9022304B07047430803F00F
:100C98005533C01A830800F0333003F03333184457
:100CA80000EB101000F00F3000EB002000EB0040CC
:100CB800000E70472DE9F04F8C46099E04460F46FA
:100CC800002B48D18A4215465ED9B2FA82F33BB16D
:100CD800C3F120029F409D409C4020FA02F2174336
:100CE8004FEA154E1FFA85FC220CB7FBFEF10EFBEE
:100CF800117701FB0CF042EA0742904207D9AA1883
:100D080001F1FF3702D2904200F258813946121A97
:100D1800A4B2B2FBFEF00EFB102200FB0CFC44EA6E
:100D28000244A4450BD92C1900F1FF322CBF01272E
:100D38000027A44502D9002F00F04381104640EA5D
:100D48000140A4EB0C0400211EB1DC400023C6E9DD
:100D58000043BDE8F08F8B4206D90EB1C6E9000109
:100D680000210846BDE8F08FB3FA83F1002951D17C
:100D78006345C0F01681824240F213810846002E76
:100D8800E7D0C6E90047E4E7002A00F0AF80B2FAEE
:100D980082F3002B40F0C2808A1A4FEA154EAFB298
:100DA8000121200CB2FBFEFC0EFB1C2240EA024291
:100DB80007FB0CF090420ED9AA180CF1FF382CBF93
:100DC8004FF001094FF00009904203D9B9F1000F23
:100DD80000F0F080C446121AA4B2B2FBFEF00EFB7B
:100DE800102200FB07F744EA0244A7420ED92C1947
:100DF80000F1FF322CBF4FF0010E4FF0000EA7425A
:100E080003D9BEF1000F00F0D2801046E41B40EA7F
:100E18000C4099E7C1F120058B400CFA01F400FA67
:100E280001F922FA05F72CFA05FC8A401F4320FA3B
:100E380005F3380C23431FFA87FE1C0CBCFBF0F8A3
:100E480000FB18CC44EA0C4408FB0EFCA4450ED960
:100E58003C1908F1FF3A2CBF4FF0010B4FF0000B83
:100E6800A44503D9BBF1000F00F0B880D046A4EB2D
:100E78000C041FFA83FCB4FBF0F300FB134403FBE0
:100E88000EFE4CEA0444A6450ED93C1903F1FF3086
:100E98002CBF4FF0010C4FF0000CA64503D9BCF154
:100EA800000F00F09F80034643EA0840A4EB0E04BD
:100EB800A0FB02EC64457346E04602D307D1F14536
:100EC80005D2BEEB02036CEB070C0138E0465EB1BD
:100ED800B9EB030264EB080404FA05F522FA01F3FE
:100EE800CC401D43C6E90054002132E742082F4692
:100EF8004B08AC4642EAC172AE46C407110C92B226
:100F080041EA034142EA0142B1FBF5F1B3FBF5F0D6
:100F18001F23A2EB0C0241EA004142E79D40C3F1C6
:100F2800200299409C402CFA02FC4FEA154E20FA08
:100F380002F2AFB2BCFBFEF80A430EFB18CC110C50
:100F480041EA0C4108FB07FC8C4550D9691808F1A7
:100F5800FF302CBF4FF001094FF000098C4502D932
:100F6800B9F1000F30D0A1EB0C01B1FBFEF808FB82
:100F780007FC0EFB181192B242EA0142624534D2D4
:100F8800AA1808F1FF312CBF4FF001094FF00009F2
:100F98006245BED2B9F1000FBBD1A8F102012A44C3
:100FA800B7E7841A6CEB030201201746E7E62C44E6
:100FB80002382BE7ACF1020C2A440CE702392A4428
:100FC800A5E62C440238BAE6A5EB0C0CA8F1020001
:100FD8006144B1FBFEF808FB07FCCAE7A8F1020868
:100FE8003C4444E7023B3C445EE7414691E7A1EBC1
:100FF8000C014046B1FBFEF808FB07FCB9E700BF4F
:10100800704700BFF0B589B088B10C460546C9B134
:101018002E4B1B68002B57D109F024FA2C4B352294
:101028002C492D4809F068FA09F01CFAFEE709F086
:1010380019FA274B33222749274809F05DFA09F0A6
:1010480011FAFEE709F00EFA214B34222149224811
:1010580009F052FA09F006FAFEE7204B53F8367009
:10106800019700951E4B1F4A80211848006867F0B9
:1010780051FE07951C4B0693059504950397029519
:10108800019700953B46194A4FF48061204667F066
:1010980041FEB0F5806F0FD2009023460B4A1268CC
:1010A8000121002000F032FE0A202AF00BFA013656
:1010B800002ED2DD09B0F0BD00970D4B6E22054918
:1010C8000C4809F019FAEFE70026F1E708060020B6
:1010D800BCCA0708ECCA070804CB07081087090828
:1010E8000CCB07081CCB0708F0CC07083CCB07083B
:1010F80000CD07081CCD07082DE9F04788B098B146
:101108000E460746D9B1524B1B681BB380202CF002
:1011180075F9814680202CF071F98246B9F1000FEB
:1011280023D068B3002468E009F09CF9494B4A22AF
:1011380049494A4809F0E0F909F094F9FEE709F04D
:1011480091F9444B4B224449444809F0D5F909F038
:1011580089F9FEE709F086F93E4B4C223E493F48A3
:1011680009F0CAF909F07EF9FEE709F07BF9394B75
:1011780051223949394809F0BFF909F073F9FEE7F6
:1011880009F070F9334B52223349344809F0B4F965
:1011980009F068F9FEE7CDF800803B46304A802127
:1011A800484667F0B7FDCDF800803B462D4A8021C0
:1011B800504667F0AFFD07972B4B069305970497AA
:1011C800CDF80CA0CDF80890CDF8048000974346E0
:1011D800264A4FF48061304667F09CFDB0F5806F79
:1011E80024D2009033461A4A12680121002000F0E8
:1011F8008DFD0A202AF066F90134022C1FDC1C4DF3
:1012080055F83480CDF8048000971A4B1A4A80218B
:101218000F48006867F07EFD05EBC4056B68012B7D
:10122800B9D00B4B186800F0EBFDE2E7CDF8008071
:10123800124B9E220849124809F05EF9D9E7484640
:101248002CF0C2F950462CF0BFF908B0BDE8F08781
:1012580008060020BCCA070848CD070804CB0708C1
:1012680064CD070878CD0708F0CC07088CCD0708AF
:10127800188709085CCD07081CCB07087CCF07082E
:101288001CCD07082DE9F04186B038B10E46054659
:1012980079B1364B1B68BBB1002442E009F0E2F893
:1012A800334B46223349344809F026F909F0DAF875
:1012B800FEE709F0D7F82E4B47222E492E4809F0B1
:1012C8001BF909F0CFF8FEE709F0CCF8284B4822C3
:1012D8002849294809F010F909F0C4F8FEE7D8F8B8
:1012E8000420D8F808300595244904910395029301
:1012F8000192234B00932B46224A4FF480613046DB
:1013080067F008FDB0F5806F24D200903346174A85
:1013180012680121002000F0F9FC0A202AF0D2F816
:101328000134032C1EDC184A230102EB0418D75899
:1013380001970095154B164A80210C48006867F004
:10134800E9FCD8F80C30012BC9D0084B186800F01C
:1013580057FDE2E700970F4B7B2206490E4809F03C
:10136800CBF8DAE706B0BDE8F08100BF0806002038
:10137800BCCA0708E4CF070804CB0708F0CC070865
:10138800BCD007080CD0070830870908F8CF070831
:101398001CCB0708C8D007081CCD07082DE9F04F5B
:1013A8009DB098B10C460746D9B15A4B1B681BB380
:1013B80080202CF023F8804680202CF01FF88146EE
:1013C800B8F1000F23D068B3002547E009F04AF8C8
:1013D800514B33225149524809F08EF809F042F82E
:1013E800FEE709F03FF84C4B34224C494C4809F0D1
:1013F80083F809F037F8FEE709F034F8464B352250
:101408004649474809F078F809F02CF8FEE709F052
:1014180029F8414B3C224149414809F06DF809F04F
:1014280021F8FEE709F01EF83B4B3D223B493C48BA
:1014380009F062F809F016F8FEE7CDF800A0394B7C
:1014480088223649384809F057F803E0314B1868C4
:1014580000F0D6FC0A202AF035F80135012D50DCC1
:10146800324E56F835A0CDF804A00097304B314ADB
:1014780080212848006867F04DFC06EBC5067368B4
:10148800012BE3D13B462C4A8021404667F042FCC1
:101498003B462A4A8021484667F03CFC14AE534636
:1014A800274A2021304667F035FC0DF1300B5346B2
:1014B800244A2021584667F02DFC0A97224B0993AD
:1014C80008970797CDF818B00596CDF810A0CDF875
:1014D8000C90CDF80880CDF804A0009753461B4A1D
:1014E8004FF48061204667F015FCB0F5806FA4D2F8
:1014F80000902346074A12680121002000F006FCEC
:10150800A8E740462CF060F848462CF05DF81DB07E
:10151800BDE8F08F08060020BCCA070834D10708C8
:1015280004CB070838D307081CCD070870870908BB
:1015380048D107081CCB070850D1070860D1070815
:1015480070D1070878D10708F0CC070880D10708C0
:10155800012804D0022804D028B904487047044858
:101568007047044870470448704700BF68D30708AD
:1015780070D307087CD3070880B6080870B590B008
:10158800002843D00D46044600294AD0334B1B6837
:10159800002B51D00BAE00230B930C930D930E939D
:1015A8008DF83C302E4B9A78198801910092DB789F
:1015B8002C4A1121304667F0ADFB00942A4B2B4A88
:1015C80080212648006867F0A5FB08960794284BF9
:1015D800069305940494039402940194009423467A
:1015E800244A4FF48061284667F094FBB0F5806F79
:1015F8002DD200902B46194A12680121002000F0D4
:1016080085FB0A2029F05EFF10B070BD08F02AFFA4
:10161800194B2E2219491A4808F06EFF08F022FFCC
:10162800FEE708F01FFF144B2F221449144808F056
:1016380063FF08F017FFFEE708F014FF0E4B302297
:101648000E490F4808F058FF08F00CFFFEE70D4B55
:1016580072220A490C4808F04FFFD2E7080600201A
:10166800408B0908E0D30708B8D30708C0D3070898
:10167800F0CC0708ECD30708BCCA0708A4D30708AE
:1016880004CB070888D607081CCD070870B5B6B084
:1016980006460C461D461346184A402106A867F020
:1016A80039FB3F2803D90124204636B070BD2846AF
:1016B800FFF74EFFC6F30743B2B2210EC4F3074546
:1016C800A4B2059004940395029101920093330EFD
:1016D8000B4A802116A867F01DFB7F2801D9012439
:1016E800E2E7009016AB06AA0121084600F00EFBBF
:1016F80004460A2029F0E6FED6E700BFACD6070864
:10170800B8D6070870B5C6B006460C461D4613463F
:10171800164A402106A867F0FDFA3F2803D901249C
:10172800204646B070BDC6F30743B2B2210EC4F3DB
:101738000740A4B205950494039002910192009386
:10174800330E0B4AC02116A867F0E4FABF2801D966
:101758000124E5E7009016AB06AA0121084600F02F
:10176800D5FA04460A2029F0ADFED9E7ACD6070819
:1017780008D7070881B370B588B00C46CD680DB19D
:101788000B690BB908B070BD20220021684667F0CC
:1017980062FC24691F2C28BF1F242246294668465C
:1017A80067F065FE04F120030DEB0304002304F841
:1017B800203C0A496846FEF75BFD0028E2D1084B49
:1017C8004FF483720749084808F096FE0221074B38
:1017D800186827F013FDD5E7704700BF8CD70708B6
:1017E8009CD70708A4D30708B8D707080406002021
:1017F800F0B585B006462A4B40F2131229492A480B
:1018080008F07AFE4FF0FF3500240EE0274B4FF426
:101818008E722449244808F06FFE002029F042FB0C
:101828000BE01C46C82029F04DFE0021204B18680B
:1018380027F0B4FC10F00C0FE8D11E4B18680028F4
:10184800F0D00022039203A928F036F90128E9D143
:101858002CB9039B03B92346002BE2D01C46039BFB
:10186800A342DFD8642703FB07F7B7FBF4F7C7F1F8
:101878006407BD42D6D0019300970F4B4FF49B727B
:101888000849094808F038FE0C4B1968039B009377
:101898003B4632460A480068FFF734FF3D46C1E739
:1018A800BCD70708A4D30708B8D70708D8D70708AC
:1018B800040600207CA70020F4D70708FC050020B8
:1018C800408B090800293DD070B58AB00C46CD6818
:1018D8000DB10B690BB90AB070BD02AE2022002110
:1018E800304667F0B8FB24691F2C28BF1F24224606
:1018F8002946304667F0BBFD04F128030DEB0304CD
:10190800002304F8203C10493046FEF7B1FC20B112
:101918000E49304667F077FC58B10D4B23220D492C
:101928000D4808F0E9FD10210C4B186827F066FCFB
:10193800D1E702AB00930A4B28220649094808F070
:10194800DBFDC8E7704700BF20D8070828D807087C
:1019580034D807088CD80708B8D707080406002029
:10196800A0D80708C4D8070830B587B000282BD0FE
:101978000C460546002932D0274B1868002839D074
:101988000095264B264A802167F0C4F905950495F1
:10199800244B03930295019500952B46224A4FF458
:1019A8008061204667F0B6F9B0F5806F2DD20090BF
:1019B8002346194A12680121002000F0A7F90A20DD
:1019C80029F080FD07B030BD08F04CFD174B2E22E2
:1019D8001749184808F090FD08F044FDFEE708F0A4
:1019E80041FD124B2F221249124808F085FD08F0DC
:1019F80039FDFEE708F036FD0C4B30220C490D4846
:101A080008F07AFD08F02EFDFEE70B4B5F2208492F
:101A18000A4808F071FDD2E708060020C8D8070870
:101A2800D0D80708F0CC0708F4D80708BCCA0708BC
:101A38008CD8070804CB070864DA07081CCD070808
:101A48002DE9F0418AB038B10F46054679B1394BD6
:101A58001B68BBB1002446E008F004FD364B612248
:101A68003649374808F048FD08F0FCFCFEE708F066
:101A7800F9FC314B62223149314808F03DFD08F04C
:101A8800F1FCFEE708F0EEFC2B4B63222B492C48B7
:101A980008F032FD08F0E6FCFEE7D8F80830D8F880
:101AA8000C10099527480890079506950591049309
:101AB8000396029501960095D8F80430224A4FF40F
:101AC8008061384667F026F9B0F5806F26D200901D
:101AD8003B46184A12680121002000F017F90A2035
:101AE80029F0F0FC0134052C20DC184A04EB840CA6
:101AF80002EB8C0852F82C6001960095144B154A9D
:101B080080210C48006867F005F9D8F81030012BDF
:101B1800C3D0084B186800F073F9E0E700940E4B47
:101B28009B2206490D4808F0E7FCD8E70AB0BDE853
:101B3800F08100BF08060020BCCA0708A0DA070821
:101B480004CB0708F0CC0708C0DA0708488809085A
:101B5800B8DA07081CCB070840DC07081CCD0708C3
:101B680070B584B000B306461B4B1B683BB300241A
:101B7800082C2FDC194B04EB840203EB820153F889
:101B88002230CA68144D029201930096144B154AEC
:101B98008021286867F0BEF8286800F031F90A202B
:101BA80029F090FC0134E3E708F05CFC0E4BAF220F
:101BB8000E490F4808F0A0FC08F054FCFEE708F0B6
:101BC80051FC094BB0220949094808F095FC08F076
:101BD80049FCFEE704B070BD080600209487090898
:101BE800B8DA070860DC0708BCCA0708A0DA0708E3
:101BF80004CB070870B582B078B105461A4B1B684C
:101C080083BB08F02FFC194B4FF48C721849194804
:101C180008F072FC08F026FCFEE708F023FC134BE2
:101C280040F217121249134808F066FC08F01AFC33
:101C3800FEE704EB8402104B53F822300A4E01935E
:101C480000950E4B0E4A8021306867F063F83068C3
:101C580000F0D6F80A2029F035FC0134002CE8DD24
:101C680002B070BD0024F9E708060020BCCA0708C6
:101C7800A0DA070804CB070880870908B8DA07083C
:101C88001CCB070868B1006858B151B110B582B0D3
:101C98000024009403230A7821462AF0BBFA02B0F4
:101CA80010BD7047014B1860704700BF0006002048
:101CB80008B514F087FF124BA3FB00239B0D114AB4
:101CC80002FB1303104A1A44002A16DDD30E5101F1
:101CD800891A63F100039B0043EA9173890089180C
:101CE80043F100034FEAC30C4FF47A720023C80093
:101CF8004CEA5171FEF7B2FF08BD0122E6E700BFCA
:101D0800B17C219500DD6D00806DEF042DE9F04375
:101D18008FB0002A31D0074688461D461646334BF9
:101D28001B68002B34D0002409940A940B940C945B
:101D38000D940DF11C0907940894049405940694D5
:101D4800214620462AF0BAFC8DF824708DF82580AB
:101D58000A963046FEF796FAADF82C000C95169BBD
:101D68000D932AF017F807904FF4FA730693204B57
:101D78000493CDF8149001251CE008F073FB1D4B6B
:101D880058221D491D4808F0B7FB08F06BFBFEE719
:101D980008F068FB174B59221749184808F0ACFBA4
:101DA80008F060FBFEE7039BE3B10325FA2029F066
:101DB80089FB0134042C15D804AA09A90B4B18680F
:101DC80058F0DFFD05460028F0D1039041F2883332
:101DD800009303AB024601462AF0A2F90128E2D09B
:101DE8000325E3E728460FB0BDE8F083000600208E
:101DF8008D1C0108BCCA070814DE070804CB0708B5
:101E080000B583B040B1024600200090034601218E
:101E1800FFF77CFF03B000BD08F024FB044B9622BB
:101E28000449054808F068FB08F01CFBFEE700BF02
:101E3800BCCA070814DE070804CB07082DE9F041DF
:101E480084B020B30C4616461D46074651B3002BF6
:101E580033D03A4B1B68002B3AD080202BF0CEFAB7
:101E6800804600283FD000943B46354A802166F0E2
:101E780051FF7F2842D800220092334641462F481E
:101E8800006804F0DDFC00284CD1012440E008F093
:101E9800E9FA2C4BA7222C492C4808F02DFB08F016
:101EA800E1FAFEE708F0DEFA264BA8222649274881
:101EB80008F022FB08F0D6FAFEE708F0D3FA214B27
:101EC800A9222149214808F017FB08F0CBFAFEE7C0
:101ED80008F0C8FA1B4BAA221B491C4808F00CFB47
:101EE80008F0C0FAFEE708F0BDFA164BAD22164915
:101EF800164808F001FB08F0B5FAFEE702940197CE
:101F08000095134BB7221049124808F0F5FA00243F
:101F18000A2029F0D7FA40462BF056FB204604B099
:101F2800BDE8F081CDF8048000950B4BC822064926
:101F3800084808F0E1FA0024EAE700BF000600209C
:101F480024DE0708BCCA070814DE070804CB070804
:101F58002CDE07081CCD07085CDE070810B582B028
:101F680090B10446D9B11D4A106818B300220092F6
:101F78000B46214604F064FC38BB01240A2029F0F2
:101F8800A1FA204602B010BD08F06CFA144BDC220E
:101F98001449154808F0B0FA08F064FAFEE708F0AA
:101FA80061FA0F4BDD220F490F4808F0A5FA08F037
:101FB80059FAFEE708F056FA094BDE2209490A48A1
:101FC80008F09AFA08F04EFAFEE70094074BE82268
:101FD8000449074808F090FA0024CFE700060020DB
:101FE800BCCA070814DE070804CB070880DE070808
:101FF8001CCD070830B583B048B30C4615460346D8
:1020080081B3002A39D02C4A1068002840D02B4AC6
:10201800802166F07FFE40F2FF322946204667F0B5
:1020280079F8002384F8FF332046FEF72BF9B0F542
:10203800806F38D2009023461F4A12680121002081
:10204800FFF764FE0A2029F03DFA03B030BD08F01E
:1020580009FA1B4BF8221B491B4808F04DFA08F0F7
:1020680001FAFEE708F0FEF9154BF9221549164862
:1020780008F042FA08F0F6F9FEE708F0F3F9104B19
:10208800FA221049104808F037FA08F0EBF9FEE791
:1020980008F0E8F90A4BFB220A490B4808F02CFA29
:1020A80008F0E0F9FEE7094B4FF489720549084842
:1020B80008F022FAC6E700BF08060020A4DE0708D9
:1020C800BCCA070814DE070804CB0708BCDE0708EB
:1020D8001CCD070861B30B46C96849B370B584B015
:1020E8001C690CB904B070BD0026009601960296D2
:1020F80003960F2C28BF0F242246684667F0B7F9CD
:1021080004F110030DEB030202F8106C094968464C
:10211800FEF7AEF80028E5D1074B4D2207490848DD
:1021280008F0EAF92021074B186827F067F8D9E783
:10213800704700BFE4DE0708ECDE070844DF070845
:10214800B8D707080406002038B500283AD00C464E
:102158000546002941D0FFF711FA21462846FFF726
:102168001DF921462846FEF74DFF21462846FFF770
:1021780067FC2846FFF7F4FC2846FFF73BFD21469D
:102188002846FEF7B9FF21462846FFF77BF8214687
:102198002846FFF7E9FB4FF47A7029F093F9144BBE
:1021A800186802232A460146FFF770FA114A2146A9
:1021B8002846FFF71FFF104BA1221049104808F0CE
:1021C8009BF938BD08F04EF90E4B5D220B490E48BD
:1021D80008F092F908F046F9FEE708F043F9094BD0
:1021E8005E220649084808F087F908F03BF9FEE73F
:1021F800408B0908E4DE070850DF070844DF0708BA
:10220800B8D70708BCCA070804CB07082DE9F0416E
:1022180084B00023039304F00BF804F003F80028BB
:102228003DD0044603F0C6FF2046FFF73BFD03A957
:1022380000200AF0D5FE054600283BD04FF4806008
:102248002BF0DCF8804600283FD080202BF0D6F811
:10225800854B1860002843D00095844BC6228449DA
:10226800844808F049F926F0FAFE834B18600028E4
:1022780041D0824B824A83492846FFF7DFFD824BD3
:10228800824A83492846FFF7D9FD82498248FFF7E9
:1022980065FE41462846FFF757FF0026B3E008F0E1
:1022A800E1F87E4BB52272497D4808F025F908F01F
:1022B800D9F8FEE708F0D6F8784BBE226C49784882
:1022C80008F01AF908F0CEF8FEE708F0CBF8734BDF
:1022D800C1226749724808F00FF908F0C3F8FEE711
:1022E80008F0C0F86D4BC42261496D4808F004F944
:1022F80008F0B8F8FEE708F0B5F8684BC9225C4961
:10230800674808F0F9F808F0ADF8FEE7654BF522E4
:102318005749584808F0F0F8634B196800232A46D3
:1023280062480068FFF7B2F97DE0614BFB22504933
:10233800504808F0E1F85C4B196801232A465B48CD
:102348000068FFF7A3F900230193022300932B46AB
:102358004FF480625749584828F092FD012666E0FC
:10236800434F444E554B40F20B123946304608F065
:10237800C3F8534B4FF486723946304608F0BCF820
:102388000EF0E6FF002655E04E4B4FF48A723849AE
:10239800384808F0B1F841462846FFF7D5FE002630
:1023A8004BE0494B4FF492723149324808F0A4F897
:1023B800464A41462846FFF71DFE4FF47A7029F039
:1023C80081F80EF0C5FF14F0200700D1DCB9002E0B
:1023D80040D114F0F7FB3E4BA3FB0023DB0B3D4A37
:1023E80002FB130029F06EF8002F3BD03A4B009304
:1023F8003A4B4FF49B721E491E4808F07DF841463F
:102408002846FFF7A1FE1C4B1C68FFF751FC009003
:10241800002301223F21204626F030FE044610F01A
:10242800010F7FF473AF14F0020F7FF47EAF14F046
:10243800040F95D114F0080FA6D114F0100FC2D0D4
:10244800002EAED0264B4FF490720949094808F087
:1024580053F8D8E7234B40F22F120549054808F0F6
:102468004BF8D0E7204BC2E70806002094DF0708A6
:1024780044DF0708B8D7070804060020D8DF070894
:102488007D170108E4DF0708F0DF0708CD18010809
:1024980000E00708DD2001080CE00708BCCA0708AF
:1024A80004CB070824E00708FC050020408B090836
:1024B8003CE0070858E00708F917010868E0070832
:1024C80080E00708ACE00708F4E0070804E1070823
:1024D80073B2E745C0D401007CDF07083CE1070878
:1024E800C8E007080CE1070888DF070870B582B064
:1024F80006460D460CE02846FDF7C4FE01950090FF
:102508000F4B4FF4B9720F490F4807F0F5FFA4B10C
:10251800002300930D4B324629460D4C206804F0E9
:102528008FF904460028E6D000900A4B4FF4B772A2
:102538000449094807F0E0FFE9E7012002B070BD4F
:10254800E4E10708C4E10708B8D707082D26010801
:102558000C06002070E107081CCD070810B582B0F2
:1025680012490020FFF7C2FF88B111490020FFF788
:10257800BDFF0446B8B90E4B01932F2300930D4BB2
:102588004FF4F1720C490D4807F0B6FF0BE0044612
:10259800064B01932F230093064B40F2D9120649AC
:1025A800064807F0A9FF204602B010BD00E2070860
:1025B80030E2070860E20708C4E107081CCD0708F5
:1025C80010B582B012490020FFF790FF88B1114979
:1025D8000020FFF78BFF0446B8B90E4B0193452343
:1025E80000930D4B4FF405720C490D4807F084FF1A
:1025F8000BE00446064B019345230093064B40F23B
:102608000B220649064807F077FF204602B010BDA6
:1026180098E20708E0E2070860E20708C4E1070853
:102628001CCD070830B585B00C463D4B40F2291249
:102638003C493D4807F060FF0DF10F0221896068B1
:102648004FF0DAFD01280AD19DF80F300B3B072B1C
:1026580059D8DFE803F011255858585830432389D2
:10266800626801920093314B40F231122D49304893
:1026780007F042FF05B030BD2E4B40F23712294912
:10268800294807F039FF2C4B01221A702269E168AA
:102698002A4B186866F0EBFE2269294B1A60E9E7B5
:1026A800284B4FF4A1721F49274807F025FF224BFA
:1026B80002221A70DEE7254B4FF4A47219491A4812
:1026C80007F01AFF1E4D01232B602269E1681B4B9E
:1026D800186866F0CCFE23692B60CBE7114D1C4BC4
:1026E80040F253122946184807F006FFE3680093A2
:1026F800184B40F2551229460B4807F0FDFE104BC7
:1027080002221A60B6E72389626801920093124B8D
:1027180040F25B1203490C4807F0EEFEAAE700BF3F
:1027280028E30708C4E10708B8D7070844E30708FF
:10273800C4D8070878E307081C06002018060020FC
:1027480010060020CCE307081CCD070820E4070882
:1027580068E40708D0270808B0E4070830B583B054
:1027680005460CE02846FDF78DFD019500900F4BBE
:1027780040F28B120E490F4807F0BEFE94B10023B9
:102788000D4A29460D48006804F09CF904460028C3
:10279800E8D000900A4B40F287120549094807F033
:1027A800ABFEEBE7012003B030BD00BF2CE5070806
:1027B800C4E10708B8D707082D2601080C06002031
:1027C800F8E407081CCD070810B582B01248FFF7D7
:1027D800C5FF044610B1204602B010BD0E4B019350
:1027E8002F2300930D4B4FF4F9720D490D4807F054
:1027F80083FE0D48FFF7B2FF04460028EBD10A4BD1
:1028080001932F230093054B40F2FB12044905481E
:1028180007F072FEDFE700BF00E207084CE5070893
:10282800C4E107081CCD070830E2070810B582B0DC
:102838001148FFF793FF80B11048FFF78FFF044658
:10284800B8B90E4B0193452300930D4B40F22E224D
:102858000C490D4807F050FE0BE00446064B019367
:1028680045230093064B40F225220649064807F007
:1028780043FE204602B010BD98E20708E0E20708D0
:102888004CE50708C4E107081CCD07082DE9F0410D
:102898008EB007460C4616461D46002009900A9041
:1028A8000B900C900D900DF11C0807900890049067
:1028B800059006900390014629F000FF8DF82470DA
:1028C8000A942046FDF7DEFCADF82C000C960D9519
:1028D80029F060FA07904FF4FA730693104B0493AB
:1028E800CDF8148002E09DF80C30ABB104AA09A918
:1028F8000C4B186858F045F803460028F5D14FF0FE
:10290800FF33009303AB00221146104629F008FC60
:102918000128E8D00423E8E701200EB0BDE8F081E3
:10292800312901080C060020006850B110B582B0AA
:102938000024009403230A78214629F06BFC02B096
:1029480010BD70472DE9F04F8FB04FF480502AF03A
:1029580055FD002800F09B80044600230D934FF49A
:1029680080502AF04BFD0546002800F09C8040204E
:102978002AF044FD0746002800F0A1804FF480604B
:102988002AF03CFD8046002800F0A58080202AF02F
:1029980035FD8146002800F0AA804FF480502AF0C7
:1029A8002DFD814B1860002800F0AD804FF4805257
:1029B8000021204666F04FFB03F03AFC03F032FC9E
:1029C8007A4B1860002800F0AA8003F0F3FB784BDC
:1029D80040F282227749784807F08EFD09A9002045
:1029E8000AF0FEFA82460346744A8021484666F099
:1029F80091F908A907200AF0F3FA83464FF48053A7
:102A08000C9340230B934FF480630A9307A820F09C
:102A180053FE002800F08F80694B40F299226549E7
:102A2800684807F069FD0026002E40F0DF80FFF7B8
:102A3800CBFEFFF7FBFE20462AF0C6FD28462AF00B
:102A4800C3FD38462AF0C0FD40462AF0BDFD504679
:102A58002AF0BAFD48462AF0B7FD58462AF0B4FDD8
:102A6800514B18682AF0B0FD002E40F07781564B84
:102A780040F223324F49504807F03EFD002028F02D
:102A880011FA86F00100C0B20FB0BDE8F08F07F070
:102A9800E9FC4E4B4FF4107246494D4807F02CFDA7
:102AA80007F0E0FCFEE707F0DDFC484B40F2462269
:102AB8004049474807F020FD07F0D4FCFEE707F03F
:102AC800D1FC424B4FF413723A49414807F014FDC8
:102AD80007F0C8FCFEE707F0C5FC3C4B40F2522269
:102AE80034493B4807F008FD07F0BCFCFEE707F057
:102AF800B9FC364B40F25E222E49354807F0FCFC03
:102B080007F0B0FCFEE707F0ADFC304B4FF41D7248
:102B180028492F4807F0F0FC07F0A4FCFEE707F06F
:102B2800A1FC2A4B40F27D222249294807F0E4FC07
:102B380007F098FCFEE7274B40F29E221D491E48ED
:102B480007F0DAFC0DAB0293CDF804904FF48053F4
:102B580000932346204A2149079800F0F3F90646D6
:102B6800B8B11F4B40F2AF221249134807F0C4FC1A
:102B7800FFF7F4FC064600283FF459AF194B40F222
:102B8800B5220C490C4807F0B7FCFFF719FD0646BB
:102B98004AE7154B40F2A32206490A4807F0ACFC65
:102BA800079800F01BFB42E7180600200C060020DF
:102BB80088E50708C4E10708B8D70708C8E5070883
:102BC800D0E507081CCD0708D0E70708BCCA0708E6
:102BD80004CB0708F0E5070804E6070810E607082D
:102BE80020E6070878E6070840E60708604B40F249
:102BF800BE226049604807F07FFC604B00930D9B44
:102C080022464FF400615E48006800F023FB064648
:102C180000283FF40CAF5B4B40F2C522554956489B
:102C280007F06AFC554B1B68554A12685649002044
:102C3800FFF72CFE0646002878D042F2107028F0E4
:102C480041FC524B40F2D3224A494B4807F054FC0E
:102C58000AAB0393CDF808800BAB019300970CAB3C
:102C68002A464B4909684648006800F02FFC06468A
:102C780000283FF4DCAE01970B9B0093454B40F2D4
:102C8800D9223C493C4807F037FC0C9B424A29466C
:102C9800079800F0EDF90646FFF796FD002E3FF481
:102CA800C8AE374B1E684FF480520021304666F09C
:102CB800D2F9324B0493089B0393CDF808B0099BD3
:102CC8000193CDF800A00A9B42464FF400613046BC
:102CD80000F03EFB064600283FF4ABAE274B1B68CE
:102CE800274A12682D490020FFF7D0FD064648B351
:102CF80040F6B83028F0E6FB8023099309AB52462A
:102D0800234909681E48006800F09CFD0646002813
:102D18003FF48FAECDF804A0099B0093204B4FF4ED
:102D280042721449144807F0E7FB82E6164B0193F8
:102D3800262300931B4B40F2CB220E491A4807F07A
:102D4800DBFB74E6154B01933C230093154B40F2D3
:102D5800FA220849144807F0CFFB6AE60121062049
:102D68000AF088F80AF02EFC0EF0F2FA7FE600BFAF
:102D7800A0E60708C4E10708B8D70708140600202A
:102D880018060020B4E60708C8E60708F0E60708B2
:102D9800100600203CE7070860E707086CE707080B
:102DA800ACE7070804E707081CCD07082DE9F04F32
:102DB800ABB004900F46164605934FF48253279301
:102DC800002428942994384A23AB07CA03C31A80DD
:102DD8004FF00308CDF8888001258DF887504FF40F
:102DE800807BCDF854B016944FF0040ACDF85CA05F
:102DF8004FF48573189319941A954FF4C0731B9365
:102E08001C940A231D93CDF878801F962021304604
:102E180066F093F920900DF18809CDF858900DF1DE
:102E28008706199623AB1C93CDF818B00794CDF8F4
:102E380020A009950A940B9502230C930D940E95E6
:102E48004FF484730F9310941195CDF8488013971D
:102E58002021384666F071F91490CDF81C900A9636
:102E68000D96109626A810F00BF8A0B9269BD3F85B
:102E7800F040059B0393349B02930523019306AB13
:102E88000093042315AA27A90498A04704462046BE
:102E98002BB0BDE8F08F0446044BBE220449054818
:102EA80007F02AFBF3E700BF5CE80708F8E7070824
:102EB80048E807081CCD07082DE9F04784B0074605
:102EC8008A469046994603A80FF0DAFF064640BBAB
:102ED80004464C452BD25AF824502021284666F047
:102EE8002CF9024658F8243002A9009129463846A0
:102EF80020F026FC039BDB6D02993846984706466E
:102F0800A8B92021284666F018F9024658F8243056
:102F180002A900912946384620F012FC06460134E1
:102F2800D7E7054B69220549054807F0E5FA304619
:102F380004B0BDE8F08700BFF8E7070848E80708CD
:102F48001CCD070870B58CB003900C4615461E467C
:102F5800022039F083FADCB12DB3002E2ED0129B5B
:102F6800002B36D00AAB00930BAB2A4621460398B8
:102F7800FFF71CFF002837D04FF0FF343046FDF72D
:102F880081F9129B1860B4FA84F040090CB070BD46
:102F980007F068FA324BE0223249334807F0ACFABE
:102FA80007F060FAFEE707F05DFA2D4BE1222D49A4
:102FB8002D4807F0A1FA07F055FAFEE707F052FA94
:102FC800274BE2222749284807F096FA07F04AFAE1
:102FD800FEE707F047FA224BE3222249224807F08E
:102FE8008BFA07F03FFAFEE70B9A039908A809F055
:102FF800A3FD10B14FF0FF34C0E704AC20464EF0FB
:10300800ADFE042120464EF0BDFE802120464EF044
:10301800CDFE044630B104A84EF0A6FE08A839F04B
:103028000EFAABE7802104A84EF0E2FE0446002821
:10303800F1D1119904A84EF0A9FE04460028EAD15E
:1030480004AC08A920464EF09FFE03AB0093074B43
:10305800109A314620464EF013FF0446DBE700BFC6
:10306800BCCA070848E8070804CB070891CC010840
:10307800F0B5A1B006460D46039201220D92002438
:103088000C940B940A948DF82720494A0DF1180CDA
:1030980007CA8CE807000594039AFAB155B35C1C7B
:1030A80020460EF091F80A94074668B30AAB024628
:1030B8002146284620F0F4FB78B33E4B40F24112FB
:1030C8003D493E4807F018FA072417B138460EF074
:1030D800E4F8B4FA84F0400921B0F0BD07F0C2F971
:1030E800374B40F229123449364807F005FA07F001
:1030F800B9F9FEE7344B40F22D122F492F4807F05B
:10310800FBF92F461324E0E7304B40F247122A49D7
:103118002A4807F0F1F90224D7E70BA80FF0B0FE10
:10312800044600283CD100230E930DAC0F940425CF
:10313800109540F20113119306A81290FDF7A2F81A
:1031480013901123179318970A9B199303231A9323
:1031580003981B90202165F0F0FF1C9080231493A6
:103168000CAB1593169501231D930DF127021E92A2
:103178001F93224603A93046FFF79EFE039B009348
:10318800134B4FF4B8720C49124807F0B5F90B9B72
:103198005C6D05AB06220EA93046A047044694E7AD
:1031A8000D4B4FF4A9720449044807F0A5F98CE7C0
:1031B80014E9070884E8070848E807081CCD070849
:1031C800BCCA070804CB070868E80708ACE8070882
:1031D800ECE80708B8D70708F8E7070810B582B081
:1031E80004460023019301A80FF04AFE034648B99C
:1031F800019B9B6B20469847034618B9019B9B6827
:1032080098470346B3FA83F0400902B010BD38B5B9
:1032180005460C460846FDF735F80246214628467D
:1032280025F0DBF838BD000008B590F80EC0BCF1F9
:10323800600F02D125F034FE08BD034B034A4FF45A
:10324800F871034864F04EFCF4980808C08809082F
:1032580020E90708F0B58BB048B316461D46074667
:10326800002A2FD0109B002B37D006AC00230A462B
:103278000146204625F097F8012202A9204625F0AC
:10328800B3F80446002833D0002C3FD0204625F060
:10329800E3F80090274B55222749284807F02CF9D6
:1032A800002C3FDBB4FA84F040090BB0F0BD07F006
:1032B800D9F8234B34222049224807F01DF907F09A
:1032C800D1F8FEE707F0CEF81D4B35221A491D4804
:1032D80007F012F907F0C6F8FEE707F0C3F8184B35
:1032E80036221549174807F007F907F0BBF8FEE73B
:1032F800154902A8FFF78BFF04460028C6D12A46C5
:10330800314602A825F069F80446BDE702A906A8D7
:1033180025F078F804460028B8D1069BDB1B109AE4
:103328001360BFE7094B59220349044807F0E4F842
:10333800B8E700BFF0E90708BCE907081CCD070893
:10334800BCCA070804CB0708D4E9070810EA07082D
:103358002DE9F0418CB0129E60B315461F46804699
:10336800002A2DD0002E31D0149B002B34D0169B70
:10337800002B37D008AC00230A460146204625F02A
:1033880012F8022204A9204625F02EF80446002847
:103398002ED0002C3AD0204625F05EF801463E4853
:1033A80065F048FC002C72DBB4FA84F040090CB0DC
:1033B800BDE8F081394B3A4A6A213A4864F092FBF9
:1033C800394B374A6B21374864F08CFB374B344A0A
:1033D8006C21344864F086FB354B314A6D21314805
:1033E80064F080FB334B2E4A6E212E4864F07AFB42
:1033F800314904A8FFF70BFF04460028CBD13A4611
:10340800294604A824F0E9FF0446C2E72B4904A88A
:10341800FFF7FDFE04460028BDD10222694604A834
:1034280024F0E2FF04460028B5D125496846FFF795
:10343800EEFE04460028AED1139A3146684624F0C1
:10344800CCFF04460028A6D11E496846FFF7DFFED8
:10345800044600289FD1159A1499684624F0BDFFA8
:103468000446002897D1694604A824F0CBFF0446F7
:10347800002890D104A908A824F0C4FF0446002815
:1034880089D1089BA3EB0803169A13608CE70E48B2
:1034980065F038FC88E700BF04EB070854EA070822
:1034A800DC88090898E9070868EA07088CEA070829
:1034B800A0EA0708B0EA0708CCEA0708F09F08085E
:1034C800E8EA0708F4EA070824EB0708F0B58FB024
:1034D800159D002863D016461C46002A6AD0002B8A
:1034E80073D0149B002B7BD0002D00F084802B68B8
:1034F8003F2B40F28B80169B002B00F09280179B8D
:10350800002B00F0998008AB00930CAB002225F04B
:1035180055FB0746002840F09A809DF82E30A02BD6
:1035280000F09F80A74BDC22A749A84806F0E4FFDB
:1035380087BB04AAA64908A825F026FD0746002847
:1035480040F0DA809DF81E30FF2B00F0E080602B01
:1035580000F0E5809F4B40F20D129B499B4806F016
:10356800CBFFBFB904AA9C4908A825F00DFD074662
:10357800002840F0FC809DF81E30FF2B00F00281EF
:10358800602B00F00781954B4FF497728E498F4856
:1035980006F0B2FFB7FA87F040090FB0F0BD06F0A9
:1035A80061FF8F4BC82288498E4806F0A5FF06F0B8
:1035B80059FFFEE706F056FF894BC9228249894820
:1035C80006F09AFF06F04EFFFEE706F04BFF844B2D
:1035D800CA227D49834806F08FFF06F043FFFEE7C5
:1035E80006F040FF7E4BCB2277497E4806F084FFE9
:1035F80006F038FFFEE706F035FF794BCC2272491A
:10360800784806F079FF06F02DFFFEE706F02AFF5E
:10361800734BCD226C49734806F06EFF06F022FF0B
:10362800FEE706F01FFF6E4BCE2267496D4806F095
:1036380063FF06F017FFFEE706F014FF684BCF2282
:103648006149684806F058FF06F00CFFFEE724F0D1
:1036580003FF0090644BD8225B495C4806F04CFF9E
:1036680066E704AA614908A825F08EFC074660B9F8
:103678009DF81E30FF2B12D0602B17D05C4BEC222C
:103688005149524806F038FF52E724F0E5FE009011
:10369800584BE4224C494D4806F02EFF48E7564B5C
:1036A800E8224949494806F027FF41E70023224616
:1036B800314604A8FFF7B8FD0746B0F1004F0CD01B
:1036C80000283FF436AF24F0C7FE00904B4BFA2297
:1036D8003D493E4806F010FF2AE70023039303A95B
:1036E80004A825F047FC039B0093454BF622364976
:1036F800364806F001FF1BE724F0AEFE00903D4B74
:1037080040F205123049314806F0F6FE29E73D4BF4
:1037180040F209122C492D4806F0EEFE21E700235D
:103728002A46149904A8FFF77FFD0746B0F1004F19
:103738000DD000283FF416AF24F08EFE0090324BD7
:1037480040F21B122049214806F0D6FE09E7002363
:10375800039303A904A825F00DFC039B00932B4BAE
:1037680040F217121849194806F0C6FEF9E624F087
:1037780073FE00901F4B4FF493721349134806F0E1
:10378800BBFE07E7224B4FF495720F490F4806F02E
:10379800B3FEFFE60023179A169904A8FFF744FD25
:1037A8000746B0F1004F37D000283FF4F3AE24F0BD
:1037B80053FE0090174B4FF49E720349034806F0DE
:1037C8009BFEE7E6A4EB0708BCE907081CCD070841
:1037D80070ED0708C0ED0708CCEA0708F4EE070803
:1037E800BCCA070804CB07085CEB0708ECEB070822
:1037F80078EC0708FCEB070834EC07081CED070811
:10380800D8EC070880ED070854EE07080CEE070807
:10381800A8EE0708B4EF07080023039303A904A838
:1038280025F0A8FB039B0093034B4FF49C720349BC
:10383800034806F061FEADE64CEF0708BCE907084F
:103848001CCD070870B58EB0E0B115461C462AB3EA
:1038580083B308AB00930CAB002225F0AFF9064602
:10386800002833D19DF82E30A02B3AD0444B4FF48A
:10387800AF724449444806F03FFEB6FA86F0400964
:103888000EB070BD06F0EEFD404B40F24F123D49C0
:103898003F4806F031FE06F0E5FDFEE706F0E2FDE2
:1038A8003A4B4FF4A8723749394806F025FE06F01E
:1038B800D9FDFEE706F0D6FD344B40F251123149EE
:1038C800334806F019FE06F0CDFDFEE724F0C4FDEE
:1038D8000090304B4FF4AD722A492B4806F00CFE8D
:1038E800CBE704AA2C4908A825F04EFB064668B980
:1038F8009DF81E30FF2B14D0602B1AD0274B4FF4A5
:10390800B7722049204806F0F7FDB6E724F0A4FD79
:103918000090234B4FF4B3721A491B4806F0ECFD94
:10392800ABE7204B4FF4B5721649174806F0E4FD93
:10393800A3E700232246294604A8FFF775FC06469C
:10394800B0F1004F0CD0002897D024F085FD0090EE
:10395800154B4FF4BE720B490B4806F0CDFD8CE7B2
:103968000023039303A904A825F004FB039B0093F9
:103978000E4B4FF4BC720349034806F0BDFD7CE7CB
:1039880050F00708BCE907081CCD0708BCCA07089F
:1039980004CB070814F0070878F00708E4F00708D4
:1039A80084F00708B0F0070864F1070824F1070855
:1039B80030B54FF0000E4FF00C0C09E010F80C3049
:1039C8002F2B13D0002010E00EF1010E0CF1010C8A
:1039D8008C4509D29E45F1D012F80E5010F80C40D3
:1039E800A542F1D0002000E0002030BD0120FCE716
:1039F8000B4B03604FF48272828099188160828138
:103A080003F5027202618022828203F522718161CC
:103A18004FF40061C16103F6882303628284704712
:103A28002806002008B54FF097FB022806D007DBD0
:103A38000438C0B2032805D9002002E0012000E0C4
:103A4800002008BD0120FCE708B54FF0F5FA00207A
:103A580027F028FA08BD000008B5002828D01A4A1F
:103A680002601A4A42601A4A82601A4AC2601A4AB6
:103A780042611A4A82611A4AC2611A4A02621A4AA1
:103A880042621A4A82621A4A02631A4AC2621A4A8D
:103A9800C2651A4A82651A4AC2641A4A02651A4AF3
:103AA80082641A4A42651A4A02641A4A426408BD84
:103AB80006F0D8FC184B40F2C3421849184806F0E3
:103AC8001BFD06F0CFFCFEE7515706089D57060878
:103AD800DD570608395806084D5806088159060862
:103AE800ED5906085D5A0608655A06084940010856
:103AF800F94001089D3F0108E9760208A979020802
:103B0800D9750208357802083D7B020875770208E6
:103B1800317C020875740208BCCA0708BEF10708A0
:103B280004CB070838B598B10C46054600F5005394
:103B38004FF0FF31D3F80C0A26F06CF8012813D0A7
:103B48000F4B40F2F1120F490F4806F0D5FC38BD73
:103B580006F088FC0D4B4FF4F4720A490C4806F045
:103B6800CBFC06F07FFCFEE7002184F8001E05F57B
:103B780000550B460A46D5F80C0A25F0B5FDE6E7D0
:103B8800D0F10708BEF107081CCD0708BCCA070812
:103B980004CB070810B582B007285CD8DFE800F02E
:103BA80004161E3A4B5B5B53304C314B40F2DE221D
:103BB8002146304806F0A0FC50F03CFC2E4B40F269
:103BC800EB2221462D4806F097FC4CE02C4B40F2A6
:103BD800F3222649274806F08FFC44E0294B40F29F
:103BE800FF222249234806F087FC022050F054FAAD
:103BF80038B9254B40F226321C491E4806F07CFC99
:103C080031E00090214B40F22A3218491B4806F057
:103C180073FC28E019B11E48FFF784FF23E006F083
:103C280021FC1C4B40F2323210491B4806F064FC60
:103C380006F018FCFEE7194B4FF44F720B490F487A
:103C480006F05AFC0FE0164B4FF45072074909482A
:103C580006F052FC07E00090124B4FF451720349F2
:103C6800114806F049FC02B010BD00BFBEF10708BC
:103C7800F0F10708B8D7070828F207081CCD07088D
:103C880048F2070884F20708BCF20708F0F20708B0
:103C980030110020BCCA070804CB070828F307081E
:103CA80068F307087CF30708C4D8070838B5B0B12B
:103CB800054600F500534FF0FF31D3F80C0A25F004
:103CC800A9FF01282BD10023022B1CD840F604623F
:103CD80002FB035292F8002E6AB10133F4E706F0B2
:103CE800C1FB134B4FF4FE721249134806F004FC53
:103CF80006F0B8FBFEE740F6046202FB035401231A
:103D080084F8003E00E0002405F5005500231A461B
:103D18001946D5F80C0A25F0E7FC204638BD074BB4
:103D280040F20E220349064806F0E6FB0024F4E7B9
:103D3800BCCA0708BEF1070804CB0708D0F107087A
:103D48001CCD0708F0B585B0002302930393002922
:103D580032D00C46344B1D68002D39D04F680E897F
:103D68002846FCF78FFA03462A4631463846FFF7BD
:103D78001FFE01284CD1236940F6FA5293423BD8E2
:103D880000932A4B40F2993229492A4806F0B4FB9D
:103D98002948FFF78BFF054630B32269E16865F0D3
:103DA80066FB2369C5F8FC3D03238DF80C300295AA
:103DB80002A84FF0EDFB34E006F054FB1F4B40F235
:103DC8008D321B491E4806F097FB06F04BFBFEE7B9
:103DD80006F048FB194B40F28E321549184806F098
:103DE8008BFB06F03FFBFEE7164B4FF46A72104957
:103DF800154806F081FB14E040F6FA520192009350
:103E0800124B40F2AD320A490F4806F075FB08E044
:103E1800019700960E4B40F2B23205490D4806F064
:103E28006BFB05B0F0BD00BF24060020BCF30708FB
:103E3800BEF10708B8D7070830110020BCCA070828
:103E480004CB0708E4F307081CCD07080CF407089F
:103E580064F40708C4D8070870B584B00023029337
:103E6800039329B30C464E680D89274B1B68274AD4
:103E7800126829463046FFF79BFD012838D123698F
:103E880040F6FA52934227D82148FFF70FFF05461C
:103E9800D0B12269E16865F0EAFA2369C5F8FC3D0A
:103EA80006238DF80C30029502A84FF071FB28E02C
:103EB80006F0D8FA174B40F255321749174806F062
:103EC8001BFB06F0CFFAFEE7154B40F271321249A0
:103ED800144806F011FB14E040F6FA5201920093E0
:103EE800114B40F276320C490E4806F005FB08E00B
:103EF800019600950D4B40F27D3207490C4806F0BB
:103F0800FBFA04B070BD00BF200600202406002084
:103F180030110020BCCA0708BEF1070804CB070807
:103F2800E4F307081CCD0708BCF4070808F50708E0
:103F3800C4D8070870B584B0054600238DF80F3043
:103F48008CB20DF10F03009314230E4A214653F04F
:103F580039FF9DF80F3023B9002623B1304604B04D
:103F680070BD094EF9E70DF10F0300931723074AB7
:103F78002146284653F026FF9DF80F30002BEDD040
:103F8800034EEBE760F507084D3D010878F5070893
:103F9800613E010870B584B070B10C460546B9B9E8
:103FA80006F060FA1F4B40F297421F491F4806F07F
:103FB800A3FA06F057FAFEE706F054FA194B40F256
:103FC80096421949194806F097FA06F04BFAFEE7A7
:103FD800FFF7B0FF064602F025F9F8B106B3002353
:103FE8003246294602F06EFD064658B901950094FE
:103FF8000F4B40F2B4420C490E4806F07DFA3046A9
:1040080004B070BD0290019500940B4B40F2AB4296
:1040180005490A4806F070FAA226F0E7A226EEE75C
:10402800A226ECE7BCCA0708BEF1070804CB0708BC
:10403800C8F50708B8D7070890F507081CCD070882
:10404800F0B583B078B10C4615460646B9B906F006
:1040580009FA204B40F21B421F49204806F04CFA4F
:1040680006F000FAFEE706F0FDF91A4B40F21A4294
:1040780019491A4806F040FA06F0F4F9FEE7FFF786
:1040880059FF074602F0CEF8F8B107B300230093B2
:104098003B462A46314602F0D3FB054658B90196FD
:1040A80000940F4B40F237420B490E4806F024FAB1
:1040B800284603B0F0BD00900B4B4FF486620649CA
:1040C8000A4806F019FAA125F2E7A125F0E7A1258B
:1040D800EEE700BFBCCA0708BEF1070804CB070813
:1040E800E4E10708B8D7070870E107081CCD0708FE
:1040F80070B58CB005460C460020079008900990D2
:104108000A900B90049005900690039002900895F1
:10411800ADF824109DF840108DF81C100A920B93EE
:10412800014628F0CBFA27F035FE029042F21073D0
:1041380006931B4B049302AB059302F073F860B32C
:1041480004AA07A956F01DFC064660B942F210738E
:10415800009303AB4FF0FF320021084627F0E0FF41
:1041680001280CD0032600960E4B40F27D420E49E2
:104178000E4806F0C1F9A02630460CB070BD9DF877
:104188000C60002EEFD101950094094B40F2824259
:104198000549084806F0B0F9EEE7A026ECE700BFAD
:1041A800C1410108E8F50708BEF107081CCD07085A
:1041B80024F60708B8D7070800B583B058B10A46EF
:1041C8000068A0B1F9B1002100910323127828F00A
:1041D80021F803B000BD06F045F9114B40F2074243
:1041E8001049114806F088F906F03CF9FEE706F098
:1041F80039F90B4B4FF481620A490B4806F07CF9F8
:1042080006F030F9FEE706F02DF9054B40F20942B9
:104218000449054806F070F906F024F9FEE700BFE6
:10422800BCCA0708BEF1070804CB070810B578B167
:10423800044642F60C22002164F00DFF012025F00F
:104248001FFB04F50054C4F80C0A00B1012010BD8E
:1042580006F008F9044B40F2D5120449044806F068
:104268004BF906F0FFF8FEE7BCCA0708BEF10708DD
:1042780004CB070830B5B3B00024309431940AADAC
:1042880038222146284664F0E6FE18A8FFF7E4FB2A
:104298002846FFF7ADFB7C4BDA7899781B880293A8
:1042A80001910092794B4FF4A6627949794806F05A
:1042B80023F97949204608F093FE784B186010B12D
:1042C800754B1B6813BB764B40F24F5270497548CB
:1042D80006F012F900231C46002B40D10125724B31
:1042E80040F2CA526A496B4806F006F9002D00F000
:1042F800BA806A4B186820B129F066F9674B00222A
:104308001A60002026F0CEFD33B030BD674B40F276
:1043180056525F495F4806F0EFF8654B009301235A
:10432800002220216348006824F0A8FE10F0200F26
:104338000BD0614B4FF4AC625549564806F0DCF897
:1043480001F070FF04460123C6E75C4B40F2665259
:104358004F49504806F0D0F801230024BCE784B147
:1043680000220092564B5749204602F069FA05464A
:1043780040B1554B40F2755245494A4806F0BCF8E1
:10438800ADE7012544B1002200924D4B4F4920462C
:1043980002F056FA0546A8B94D48FFF747FF01282D
:1043A8009DD14C4B3D4A126818A90AA84EF066FEEA
:1043B80080B10090484B40F297523549394806F091
:1043C8009BF88CE7454B40F285523149354806F059
:1043D80093F884E700230193032200924FF480525C
:1043E8003F49404826F04CFD012808D000903E4B3C
:1043F80040F2A65226492B4806F07EF86FE70023C4
:104408008DF8C43030A84FF0C3F808E047F23050B8
:1044180027F058F84EF0A0FE0A283FF460AF0023BA
:104428000693079308930993FFF7FCFA0128EDD147
:1044380006A84EF097FE0028E8D14EF08DFE099BA5
:104448000493089B0393079B0293069B0193274BB6
:1044580053F820300093264B40F2BD520C490D48CA
:1044680006F04AF8D2E70023154A1649204602F01A
:1044780029FB00283FF43DAF1E4B40F2D5520449BA
:10448800084806F039F834E7408B090854F607085D
:10449800BEF10708B8D70708200600202406002028
:1044A8007CF607081CCD070888F80708ACF607084B
:1044B800C0D4010004870020D4F60708FCF60708DA
:1044C8004D3D010830F7070850F707088CF7070833
:1044D800301100209D3B0108DCF70708ACF70708FE
:1044E8000CF80708513A010818F80708FC88090869
:1044F80044F80708B4F8070808B5044B186818B159
:104508000022012124F0D2FE08BD00BF443B002058
:1045180008B5044B186818B10022012124F0C6FE22
:1045280008BD00BF443B00202DE9F0418EB007468E
:104538000E4614461D46002009900A900B900C90D8
:104548000D900DF11C0807900890049005900690B6
:104558000390014628F0B2F88DF824708DF8256094
:104568000A942046FBF78EFEADF82C000C95149BA0
:104578000D9327F00FFC07904FF4FA730693124B34
:104588000493CDF8148002E0039BB3B9BCB104AA2C
:1045980009A90E4B186856F0F4F904460028F5D11D
:1045A8004FF0FF33009303AB00221146104627F06B
:1045B800B7FD0128E8D00324E8E70324E6E720460E
:1045C8000EB0BDE8F08100BFD9450108403B00208E
:1045D800006850B110B582B00024009403230A7813
:1045E800214627F017FE02B010BD70472DE9F041B3
:1045F80086B00023059301F01BFE01F013FE894BE2
:10460800186000283DD001F0D5FD874B40F20B1211
:104618008649874805F070FF05A9002008F0E0FCEE
:104628000546002839D04FF4007028F0E7FE04460C
:1046380000283ED024F013FD7E4B1860002844D09B
:104648002B467D4A40217D4864F064FB00227C496A
:104658004FF400500CF040FD00227A494FF400500E
:104668000CF05EFD0025002D40F09780764B03EBA3
:10467800051359686F4B186824F0C0FD0135EDB279
:10468800F1E705F0EFFE714B4FF48372674970480C
:1046980005F032FF05F0E6FEFEE705F0E3FE6B4BA2
:1046A8004FF4877261496A4805F026FF05F0DAFE83
:1046B800FEE705F0D7FE654B40F211125B496448EE
:1046C80005F01AFF05F0CEFEFEE705F0CBFE5F4BC6
:1046D8004FF48A7255495E4805F00EFF05F0C2FE98
:1046E800FEE7594A02EB0312526811430133DBB269
:1046F80055E0B046544F07EB0617B989B86818F06B
:10470800E5F8F873BB7B834216D0524A6019C5F5A9
:104718000071142D12DD504B01924FEA08184A4AD5
:1047280052F8082000924D4A64F0F4FA002807DB9A
:1047380005440136F6B24BE0494AE7E7494BEBE757
:1047480005F090FE414B40F253123849404805F0BD
:10475800D3FE05F087FEFEE705F084FE3B4B40F2F2
:104768005B1232493A4805F0C7FE05F07BFEFEE7CA
:1047780005F078FE354B40F25F122C49344805F0BD
:10478800BBFE05F06FFEFEE72C4B0093364B4FF453
:10479800B9722649354805F0AFFE00231946002BAB
:1047A8009FD04FF0FF330093002301222148006877
:1047B80024F064FC0028F0D02D4D0FCD20606160FE
:1047C800A260E360286820612B79237500261425F0
:1047D800002E8ED0274AC5F50071601964F09AFA48
:1047E8000028B9DB0544B5F5007FC1D202940195D4
:1047F800124E0096204B40F261120C490C4805F00D
:104808007BFE00952346324601210020FFF78CFEEF
:104818000028B9D1194B4FF4B7720449044805F080
:104828006BFEBAE7403B00209CF907088DF90708A2
:10483800B8D70708443B0020D4F90708483B0020B4
:10484800194501080145010800000020BCCA0708F5
:1048580004CB0708ECFB070874F9070808FA0708EF
:10486800E0FB070878C608088CFA07081CCD07087B
:10487800F0F9070828FA070830FA070860FA070865
:1048880004280CD8DFE800F0030D050709000648E6
:1048980070470648704706487047064870470648FC
:1048A80070470648704700BFBCFA0708CCFA0708EB
:1048B800D4FA0708DCFA070880B60808C4FA07081B
:1048C80030B5A3B00546154B154A802102A864F0FF
:1048D80021FA09E002AB0093124B40F2352212494B
:1048E800124805F009FEACB100230093104B2A468C
:1048F80002A9104C206801F0A3FF04460028E9D063
:1049080002AB00930C4B40F2332207490B4805F0E9
:10491800F3FDE8E7204623B030BD00BF943B0020FC
:10492800E4FA070834FB070824FB0708B8D7070888
:10493800714A0108903B0020F8FA07081CCD0708C7
:1049480038B5054600240CB1002038BD04EB8403BB
:104958002946074A52F82300FBF78AFC10B10134B4
:10496800E4B2F0E704EB8404014800EB8400ECE7D0
:104978001000002010B5044601220188406817F095
:10498800ACFF4FF47A7026F09DFD00222188606804
:1049980017F0A3FF10BD08B50430FFF7EBFF08BD03
:1049A80008B50430FFF7E6FF08BD08B50430FFF787
:1049B800E1FF08BD70B582B005460C46FFF7C0FFA1
:1049C800F8B1064626F0E0FB054620492046FBF7ED
:1049D8004FFCF8B11E492046FBF74AFC40B31D497D
:1049E8002046FBF745FC08BB3046FFF7DEFF0223F5
:1049F800737335614FF40071174B186824F0FEFB90
:104A080014E00095154B40F2CB121549154805F0F6
:104A180073FD0BE03046FFF7BEFF0023737335616B
:104A28004FF400710C4B186824F0E8FB02B070BD1D
:104A38003046FFF7B5FF0123737335614FF40071FA
:104A4800054B186824F0DAFBF0E700BF5CFB0708A9
:104A580064FB07086CFB07080487002044FB070871
:104A680024FB0708C4D8070870B5B8B00C460D89F0
:104A78007F2D00D97F252A46616818A864F0F7FCC5
:104A880005F1E0030DEB0305002305F8803C2569DB
:104A98003F2D00D93F252A46E16808A864F0E7FCC5
:104AA80005F1E0030DEB0305002305F8C03C1149AF
:104AB80018A864F0A8FB0546C8B107352F21284679
:104AC80064F0D1FA98B1441B1F2C00D91F24224648
:104AD8002946684664F0CBFC04F1E0030DEB0304BF
:104AE800002304F8E03C08A96846FFF763FF38B0E4
:104AF80070BD00BF74FB070800B583B000220192A7
:104B080001A9104B186824F0D7FF01280CD00E4BD0
:104B18001B6883B10D4B1B68B3F5FA7F0DD3B3F552
:104B2800487F0DD8052009E0084B019A1A60064B0A
:104B380001221A60EBE7052000E0002003B000BD69
:104B48000120FBE7784E0020883B00208C3B0020AA
:104B580038B50446FFF7D0FF054626F015FB04EBF1
:104B68008402134B03EB82031B69C01A012D09D081
:104B78000F4B03EB82035D7B012D05D0022D0FD077
:104B880045B10025284638BD42F6F72398420CD98E
:104B98000025F7E743F2AF639842F3D80425F1E71D
:104BA800044B9842EED90025ECE70325EAE700BF5D
:104BB80010000020BFC62D002DE9F0418EB0074639
:104BC8000E4614461D46002009900A900B900C9042
:104BD8000D900690079008900DF11008049005902C
:104BE8000390014627F06AFD8DF824708DF8256042
:104BF8000A942046FBF746FBADF82C000C95149B55
:104C08000D9327F0C7F804904FF4FA730893114BEB
:104C18000693CDF81C8003E0039B03B10324ACB1D9
:104C280006AA09A90C4B186855F0ABFE04460028E3
:104C3800F5D14FF0FF33009303AB00221146104625
:104C480027F06EFA0128E7D00324E8E720460EB0E3
:104C5800BDE8F081DD4C0108903B002030B5ABB0D9
:104C680004460AAD036800930C4B0D4A8021284680
:104C780064F050F8207BFFF703FE034602AC094AB4
:104C88002021204664F046F8009023462A46012158
:104C98000846FFF791FF2BB030BD00BF943B0020C2
:104CA80078CD0708D0270808F8B5002404B1F8BD66
:104CB80004EB8406064D05EB86062046FFF748FF01
:104CC80030733046FFF7CAFF0134E4B2EEE700BFA5
:104CD80010000020006850B110B582B00024009484
:104CE80003230A78214627F095FA02B010BD7047D1
:104CF80070B584B001F09CFA01F094FA3A4B186050
:104D0800002842D001F056FA0020039003A908F0C9
:104D180067F90546002844D0039E344C32460146C4
:104D2800204664F0A4FB0023A355284628F04CFC39
:104D380000942F4B40F26E222E492F4805F0DCFBE1
:104D48002E4B1B68002B38D00120FFF7B9FDFFF769
:104D5800ABFF4FF47A730093002301224FF40071E4
:104D68002748006824F08AF90024002CF1D1204655
:104D7800FFF7EEFE04EB8402224B03EB82031B7B5E
:104D8800834226D10134E4B2EFE705F06BFB1E4BFA
:104D980040F2622217491D4805F0AEFB05F062FBA0
:104DA800FEE705F05FFB184B4FF41A7211491748DC
:104DB80005F0A2FB05F056FBFEE705F053FB124B8E
:104DC80040F271220B49114805F096FB05F04AFBA9
:104DD800FEE70C4A04EB840302EB830318731846BE
:104DE800FFF73CFFCEE700BF903B0020943B00203C
:104DF8007CFB070824FB0708B8D70708784E002073
:104E08000487002010000020BCCA070804CB07084C
:104E180070B582B006460D460CE02846FBF732FA1C
:104E2800019500900F4B40F2A9120F490F4805F069
:104E380063FBA4B1002300930D4B324629460D4C69
:104E4800206801F0FDFC04460028E6D000900A4BDB
:104E580040F2A5120449094805F04EFBE9E720464F
:104E680002B070BDE4E10708B2FB0708B8D707082D
:104E78000D510108543C002070E107081CCD0708BB
:104E88002DE9F0418EB007460E4614461D46002017
:104E980009900A900B900C900D900DF11C0807904A
:104EA80008900490059006900390014627F006FCB0
:104EB8008DF824708DF825600A942046FBF7E2F9F6
:104EC800ADF82C000C95149B0D9326F063FF07900A
:104ED8004FF4FA730693124B0493CDF8148002E052
:104EE800039BB3B9BCB104AA09A90E4B186855F0C5
:104EF80048FD04460028F5D14FF0FF33009303AB7B
:104F080000221146104627F00BF90128E8D00324A7
:104F1800E8E70324E6E720460EB0BDE8F08100BFCD
:104F2800314F0108543C0020006850B110B582B0E0
:104F38000024009403230A78214627F06BF902B075
:104F480010BD70472DE9F04397B007460026159627
:104F58001496344611E02A465F49404664F0C8F882
:104F680000283AD15D4B03EB04131B7B5C4A52F8D3
:104F78002320002A50D00134E4B2012C59D8A1468C
:104F88002301564AD358574A402104A863F0C2FE69
:104F98000546431E3E2BEED84FF00008CDF854804E
:104FA800CDF850803846FBF76DF90146CDF80880FA
:104FB80014AB019315AB00932B4604AA384651F065
:104FC800B3FD0128D7D1DDF85480B8F1000FD2D055
:104FD800149D002DCFD0022DBDD0032DCBD12A4654
:104FE8004149404664F084F80028C4D13B4B03EBA8
:104FF80009131B7B3A4A52F82350012DBBD10021DB
:1050080042F82310354B03EB0913DA7A19895868EB
:1050180017F063FC2E46AEE70126314A42F82360BA
:105028002E4B03EB04139A7A1989586817F055FC2C
:10503800A1E73EB92D493846FBF71AF9A8B9284B1C
:105048001B6823B1012E0AD017B0BDE8F083244BAA
:1050580001221A6000224021254817F03EFC012158
:10506800244B186824F0CAF8EEE723493846FBF7C2
:10507800FFF860B91A4B1B68012BE3D1184B0022CB
:105088001A60012240211A4817F027FCE7E71B495C
:105098003846FBF7EDF860B9114B5B68002BD1D1AE
:1050A8000F4B01225A6000228021114817F015FC8D
:1050B800D5E713493846FBF7DBF80028C2D1084B7F
:1050C8005B68012BBED1064B00225A600122802169
:1050D800074817F002FCC2E7E0FB07082C8909081B
:1050E800643C0020C0FB0708ECFB0708D8FB070856
:1050F800001C0242583C0020E4FB0708F0FB0708AC
:1051080000FC070830B583B00C460A697F2A16D917
:105118000F4D8022C968284664F0A9F9002385F854
:105128007F300B4C00940B4B40F28F120A490B480E
:1051380005F0E2F92046FFF705FF03B030BD044D46
:10514800C968284664F093F923690022EA54E8E71D
:10515800D43B002010FC0708B2FB0708B8D70708A3
:1051680070B586B00023059301F062F801F05AF893
:10517800694B1860002831D001F01CF8674B40F2E9
:105188000E226749674805F0B7F905A9002007F01E
:1051980027FF044670B3802028F030F90546002820
:1051A80034D02346604A4021604863F0B3FD23466B
:1051B8005F4A40215F4863F0ADFD23F050FF5E4B2E
:1051C800186078B35B490120FFF722FE002835D12B
:1051D8000121594B186824F011F874E005F042F9E0
:1051E800564B40F20A224E49554805F085F905F01C
:1051F80039F9FEE705F036F9504B40F211224849DB
:105208004F4805F079F905F02DF9FEE705F02AF980
:105218004A4B4FF405724249494805F06DF905F0CB
:1052280021F9FEE705F01EF9444B40F21B223C49E8
:10523800434805F061F905F015F9FEE73D4B009389
:10524800404B40F2222236493F4805F055F90020EC
:1052580025F028FEBCE73D4A52F823103C4A42F8A4
:1052680023100133DBB2012BF5D9384B1B68002B17
:1052780038D0384B354A5268002A35D0354A009222
:10528800354A8021284663F045FD04467F282DD8FD
:1052980002950190254E0096304B40F24622204957
:1052A800204805F029F900942B463246012108468A
:1052B800FFF7E6FD30BB0096294B40F25322184910
:1052C800184805F019F94FF0FF33009301231A46E7
:1052D80019461948006823F0D1FE10F0010FF2D0EA
:1052E8000023C0E71F4BC5E71E4AC8E705F0BAF818
:1052F800124B4FF411720A49114805F0FDF805F0F8
:10530800B1F8FEE7094B0093174B4FF416720449A6
:105318000D4805F0F1F8D6E7543C002038FC0708A2
:10532800B2FB0708B8D7070860D107086C3C002013
:1053380050D10708AC3C0020583C0020BCCA0708E4
:1053480004CB070880FC07081CCD0708643C002034
:105358005C3C0020E0FB0708A4FC070800FD0708E8
:1053680028FD0708ECFB07084CFD07080F4B1B68D6
:1053780003B1704710B582B000220421202024F028
:105388003BF90A4B186000240BE0094B03EB0413AC
:10539800019300231A4601A90448006824F0A4F9DF
:1053A80001341F2CF1D902B010BD00BFEC3C002025
:1053B800F03C002010B582B000230193174B1C6805
:1053C8002CB3C30E4101091A63F100039B0043EAA1
:1053D80091738900091843F100034FEAC30C4FF495
:1053E8007A720023C8004CEA5171FBF737FC024679
:1053F80001A9204624F060FB10B1019802B010BD4D
:10540800074B5A220749084805F076F8F5E7074B95
:105418005F220449044805F06FF8EEE7EC3C0020F1
:105428006CFD07089FFD07081CCD0708B8FD070895
:1054380000B585B00390134B1868A0B1039B124ABE
:10544800934203D302F50072934214D900930F4B91
:1054580073220F490F4805F04FF80020003818BF95
:10546800012005B000BD0C4B6D220949094805F023
:1054780043F80020F2E700231A4603A924F034F980
:10548800ECE700BFEC3C0020F03C0020D8FD07080A
:105498009FFD07081CCD0708B8FD070838B538B1C7
:1054A800054689B1132A1BD8132B25D8002030E0D4
:1054B80004F0D8FF214B40F24F122149214805F052
:1054C8001BF804F0CFFFFEE704F0CCFF1B4B4FF4B2
:1054D800A8721B491B4805F00FF804F0C3FFFEE74C
:1054E80004F0C0FF154B40F251121549154805F05C
:1054F80003F804F0B7FFFEE704F0B4FF0F4B4FF4D6
:10550800A9720F490F4804F0F7FF04F0ABFFFEE75C
:105518000130132810D805EB001E02EB420C01EBFA
:105528008C0CDEF80C406445F2D103EB430401EB2C
:105538008404CEF80C40EBE738BD00BFBCCA0708AE
:1055480027FE070804CB070810B5C4688C4201D0B1
:10555800002010BD4168994201D00020F9E7036896
:10556800934201D00020F4E7846826F013FC8442BB
:1055780001D00020EDE70120EBE7000038B5B0B11D
:10558800044626F007FC0546D4F8A40224F06CF87B
:10559800854206D0224B40F2EA222249224804F0F2
:1055A800ABFF0023C4F89432C4F898321EE004F02C
:1055B80059FF1E4B40F2E9221A491B4804F09CFF90
:1055C80004F050FFFEE7E218802182F8F01003F1A2
:1055D800400204EB82020021516003EB4302900079
:1055E80004EB82025160215411810133132BEAD953
:1055F80000230DE003F1150104EB011100228A607C
:105608004A6004EB0311C1F86021C1F85C21013341
:10561800132BEFD90023C4F8A032C4F89C3238BD4C
:105628003CFE070827FE070804CB0708BCCA070882
:105638002DE9F84338B188469146064679B10024E9
:10564800274625463FE004F00DFF294B4FF4B3727F
:105658002849294804F050FF04F004FFFEE704F04D
:1056680001FF234B40F267122249234804F044FF0C
:1056780004F0F8FEFEE71A8972BB132D2CD8A54258
:1056880000D8651C132D1DD805EB45024FEA820E84
:1056980006EB820CBCF808200AB90135F2E79CE851
:1056A800070083E80700002346F80E30CCF80430E2
:1056B800CCF8083023462A4631464046FFF7EEFE2E
:1056C800013701350134132C0DD804EB440306EBE4
:1056D800830358680028CED00028F3D01B89002BFC
:1056E800F0D00137EEE7C9F80070BDE8F88300BFD5
:1056F800BCCA070827FE070804CB07082DE9F843AA
:1057080038B18946054681B14FF0000C6746E64638
:1057180049E004F0A7FE2B4B4FF4D1722A492B48DD
:1057280004F0EAFE04F09EFEFEE704F09BFE254B23
:1057380040F2A3122449254804F0DEFE04F092FE4C
:10574800FEE7BEF1130F36D8E64501D80CF1010E7D
:10575800BEF1130F25D84FEA0E1805EB0E16F368A5
:1057680013B90EF1010EF3E7E6450DD996E80F00DF
:1057780084E80F00002345F808307360B360F360D5
:1057880001370EF1010E0CE004F06CFE0D4B40F2F7
:10579800B5120D490D4804F0AFFE04F063FEFEE7B4
:1057A80001370CF1010CBCF1130F07D805EB0C14F1
:1057B800E368002BC5D0002BF2D1F2E7C9F80070DE
:1057C800BDE8F883BCCA070827FE070804CB07080A
:1057D80060B100B583B00023009301234FF000426D
:1057E8000321406826F016FD03B000BD7047000095
:1057F80000B583B071B158B10A784B6813B11B7802
:1058080002EB0362002300930323194626F002FDEE
:1058180003B000BD04F026FE044B40F2BA5204491E
:10582800044804F069FE04F01DFEFEE7BCCA070840
:1058380027FE070804CB070800B583B049B130B18B
:105848000023009303230A78194626F0E3FC03B0EB
:1058580000BD04F007FE054B40F2B6620449054856
:1058680004F04AFE04F0FEFDFEE700BFBCCA0708CC
:1058780027FE070804CB070800B585B0844608460C
:10588800114600238DF80F300DF10F030093BCF87B
:105898000830DCF8042052F095FA20B99DF80F3052
:1058A80013B1012000E0002005B000BD08B525F0C7
:1058B8006BFC024B1B68C01A08BD00BF043F0020E8
:1058C80030B585B00023039380B30C46054679B301
:1058D800D00E53019B1A60F10000800040EA9370DB
:1058E8009B0013EB020C40F10001C9004FF47A72DF
:1058F80000234FEACC0041EA5C71FBF7AFF9009056
:1059080003AB4FF0FF320021032026F009FC0346C9
:1059180078B1039B002B02DA0023236009E0002200
:105928002146286824F0C8F8034602E0002300E076
:105938000023181E18BF012005B030BD30B583B054
:1059480058B30C46054651B3D00E53019B1A60F16B
:105958000000800040EA93709B0013EB020C40F1BA
:105968000001C9004FF47A7200234FEACC0041EAE3
:105978005C71FBF773F9024600232146286823F07F
:10598800B3FE0446686858B10023009301234FF022
:105998008042032126F03EFC02E0002400E00024BF
:1059A800201E18BF012003B030BD000030B583B001
:1059B800F0B10446D0F8A4322BB326F0EBF9054633
:1059C800D4F8A40223F050FE854205D0184BFD22DE
:1059D8001849194804F090FD00231A461946D4F8CE
:1059E800A40223F081FE0446C0B1204603B030BDB6
:1059F80004F038FD114BFB220E490F4804F07CFDE2
:105A080004F030FDFEE704F02DFD0C4BFC220949A3
:105A1800094804F071FD04F025FDFEE70090084BED
:105A280040F207120349074804F066FDDDE700BFAE
:105A38003CFE070827FE070804CB0708BCCA07086E
:105A480058FE07081CCD07082DE9F04182B0B8B10F
:105A58000F46064601B326F09DF90446D6F8A4027F
:105A680023F002FE84425ED004F0FCFC324B40F28C
:105A78002B223249324804F03FFD04F0F3FCFEE7E4
:105A880004F0F0FC2C4B40F229222C492C4804F05D
:105A980033FD04F0E7FCFEE704F0E4FC264B40F29B
:105AA8002A222649264804F027FD04F0DBFCFEE7FD
:105AB8000134132C16D806EB0413D3F86031434590
:105AC800F6D106EB0413D3F85C010028F0D025F0DA
