:020000040801F1
:1000000000000C200D720208511602085316020857
:100010005516020857160208591602085D720208A2
:10002000000000000000000000000000BDFD03080B
:100030005B1602080000000061FD03081D1702089E
:100040005D7202085D7202085D7202085D7202084C
:100050005D7202085D7202085D7202085D7202083C
:100060005D7202085D7202085D7202085D7202082C
:100070005D7202085D1602085D7202085D72020878
:100080005D7202085D7202085D7202085D7202080C
:100090005D7202085D7202085D7202085D720208FC
:1000A00067160208731602087F1602088D160208EA
:1000B000000000009D160208AD1602085D720208DD
:1000C0005D720208BD160208CD1602085D720208B4
:1000D0005D7202085D7202085D7202085D720208BC
:1000E0005D7202085D7202085D7202085D720208AC
:1000F0005D7202085D7202085D7202085D7202089C
:100100005D7202085D7202085D7202085D7202088B
:100110005D7202085D7202085D7202085D7202087B
:100120005D7202085D7202085D720208DD16020847
:10013000ED160208FD1602085D7202085D720208E3
:100140005D7202085D7202085D7202085D7202084B
:100150005D7202085D7202085D7202085D7202083B
:100160005D7202085D7202085D7202085D7202082B
:100170005D7202085D7202085D7202085D7202081B
:100180005D7202085D7202085D7202085D7202080B
:100190005D7202085D7202085D7202085D720208FB
:1001A0005D7202085D7202085D7202085D720208EB
:1001B0005D720208000000000D1702085D7202085F
:1001C0005D720208000000005D7202085D720208A4
:1001D0005D7202085D7202085D7202085D720208BB
:1001E0005D7202085D7202085D7202085D720208AB
:1001F00000000000000000005D7202085D7202084D
:100200005D7202085D7202085D7202085D7202088A
:100210005D7202085D7202085D7202085D7202087A
:100220005D7202085D7202085D7202085D7202086A
:080230005D7202085D72020814
:1002380010B5054C237833B9044B13B10448AFF318
:1002480000800123237010BD080600200000000074
:100258005CD4070808B5034B1BB103490348AFF347
:10026800008008BD000000000C0600205CD40708D0
:1002780010F8012B11F8013B012A28BF9A42F7D048
:10028800D01A7047034613F8012B002AFBD1181A1D
:100298000138704781F0004102E000BF83F000435D
:1002A80030B54FEA41044FEA430594EA050F08BF09
:1002B80090EA020F1FBF54EA000C55EA020C7FEACD
:1002C800645C7FEA655C00F0E2804FEA5454D4EB4A
:1002D8005555B8BF6D420CDD2C4480EA020281EA14
:1002E800030382EA000083EA010180EA020281EA4C
:1002F8000303362D88BF30BD11F0004F4FEA01319E
:100308004FF4801C4CEA113102D0404261EB4101AC
:1003180013F0004F4FEA03334CEA133302D0524232
:1003280063EB430394EA050F00F0A780A4F10104EE
:10033800D5F1200E0DDB02FA0EFC22FA05F2801828
:1003480041F1000103FA0EF2801843FA05F359410E
:100358000EE0A5F120050EF1200E012A03FA0EFC8D
:1003680028BF4CF0020C43FA05F3C01851EBE371B7
:1003780001F0004507D54FF0000EDCF1000C7EEBD4
:1003880000006EEB0101B1F5801F1BD3B1F5001F12
:100398000CD349085FEA30004FEA3C0C04F1010431
:1003A8004FEA445212F5800F80F09A80BCF1004F5A
:1003B80008BF5FEA500C50F1000041EB045141EADC
:1003C800050130BD5FEA4C0C404141EB0101013CA5
:1003D80028BFB1F5801FE9D291F0000F04BF014694
:1003E8000020B1FA81F308BF2033A3F10B03B3F166
:1003F80020020CDA0C3208DD02F1140CC2F10C02F6
:1004080001FA0CF021FA02F10CE002F11402D8BF53
:10041800C2F1200C01FA02F120FA0CFCDCBF41EA1F
:100428000C019040E41AA2BF01EB0451294330BDEE
:100438006FEA04041F3C1CDA0C340EDC04F11404CB
:10044800C4F1200220FA04F001FA02F340EA0300A2
:1004580021FA04F345EA030130BDC4F10C04C4F1E8
:10046800200220FA02F001FA04F340EA03002946C8
:1004780030BD21FA04F0294630BD94F0000F83F412
:10048800801306BF81F480110134013D4EE77FEAF5
:10049800645C18BF7FEA655C29D094EA050F08BF41
:1004A80090EA020F05D054EA000C04BF1946104622
:1004B80030BD91EA030F1EBF0021002030BD5FEA66
:1004C800545C05D14000494128BF41F0004130BD8E
:1004D80014F580043CBF01F5801130BD01F00045E2
:1004E80045F0FE4141F470014FF0000030BD7FEA55
:1004F800645C1ABF194610467FEA655C1CBF0B4650
:10050800024650EA013406BF52EA033591EA030F66
:1005180041F4002130BD00BF90F0000F04BF00215E
:10052800704730B54FF4806404F132044FF0000591
:100538004FF0000150E700BF90F0000F04BF00210A
:10054800704730B54FF4806404F1320410F0004570
:1005580048BF40424FF000013EE700BF42004FEA6B
:10056800E2014FEA31014FEA02701FBF12F07F43E8
:1005780093F07F4F81F06051704732F07F4208BF9F
:10058800704793F07F4F04BF41F40021704730B5A6
:100598004FF4607401F0004521F000411CE700BFF2
:1005A80050EA010208BF704730B54FF000050AE075
:1005B80050EA010208BF704730B511F0004502D576
:1005C800404261EB41014FF4806404F132045FEA78
:1005D800915C3FF4D8AE4FF003025FEADC0C18BF21
:1005E80003325FEADC0C18BF033202EBDC02C2F113
:1005F800200300FA03FC20FA02F001FA03FE40EAA5
:100608000E0021FA02F11444BDE600BF70B54FF0A8
:10061800FF0C4CF4E06C1CEA11541DBF1CEA135586
:1006280094EA0C0F95EA0C0F00F0DEF82C4481EAEE
:10063800030621EA4C5123EA4C5350EA013518BF0E
:1006480052EA033541F4801143F4801338D0A0FBFB
:1006580002CE4FF00005E1FB02E506F00042E0FBA8
:1006680003E54FF00006E1FB03569CF0000F18BFAE
:100678004EF0010EA4F1FF04B6F5007F64F5407456
:1006880004D25FEA4E0E6D4146EB060642EAC621E9
:1006980041EA55514FEAC52040EA5E504FEACE2E56
:1006A800B4F1FD0C88BFBCF5E06F1ED8BEF1004F59
:1006B80008BF5FEA500E50F1000041EB045170BDD5
:1006C80006F0004646EA010140EA020081EA030119
:1006D800B4EB5C04C2BFD4EB0C0541EA045170BD15
:1006E80041F480114FF0000E013C00F3AB8014F18F
:1006F800360FDEBF002001F0004170BDC4F10004D8
:10070800203C35DA0C341BDC04F11404C4F1200558
:1007180000FA05F320FA04F001FA05F240EA0200B3
:1007280001F0004221F0004110EBD37021FA04F6E9
:1007380042EB06015EEA430E08BF20EAD37070BDA3
:10074800C4F10C04C4F1200500FA04F320FA05F002
:1007580001FA04F240EA020001F0004110EBD37004
:1007680041F100015EEA430E08BF20EAD37070BD74
:10077800C4F1200500FA05F24EEA020E20FA04F34D
:1007880001FA05F243EA020321FA04F001F00041FC
:1007980021FA04F220EA020000EBD3705EEA430E6D
:1007A80008BF20EAD37070BD94F0000F0FD101F09C
:1007B8000046400041EB010111F4801F08BF013CD5
:1007C800F7D041EA060195F0000F18BF704703F013
:1007D8000046520043EB030313F4801F08BF013D9A
:1007E800F7D043EA0603704794EA0C0F0CEA135556
:1007F80018BF95EA0C0F0CD050EA410618BF52EA10
:100808004306D1D181EA030101F000414FF0000015
:1008180070BD50EA410606BF1046194652EA430623
:1008280019D094EA0C0F02D150EA013613D195EA97
:100838000C0F05D152EA03361CBF104619460AD1DF
:1008480081EA030101F0004141F0FE4141F47001E9
:100858004FF0000070BD41F0FE4141F4780170BDD9
:1008680070B54FF0FF0C4CF4E06C1CEA11541DBF3E
:100878001CEA135594EA0C0F95EA0C0F00F0A7F840
:10088800A4EB050481EA030E52EA03354FEA01316D
:1008980000F088804FEA03334FF0805545EA131380
:1008A80043EA12634FEA022245EA111545EA106548
:1008B8004FEA00260EF000419D4208BF964244F1DF
:1008C800FD0404F5407402D25B084FEA3202B61AFE
:1008D80065EB03055B084FEA32024FF480104FF4D2
:1008E800002CB6EB020E75EB030E22BFB61A754646
:1008F80040EA0C005B084FEA3202B6EB020E75EBD9
:10090800030E22BFB61A754640EA5C005B084FEA40
:100918003202B6EB020E75EB030E22BFB61A75460D
:1009280040EA9C005B084FEA3202B6EB020E75EB18
:10093800030E22BFB61A754640EADC0055EA060ED9
:1009480018D04FEA051545EA16754FEA06164FEA1C
:10095800C30343EA52734FEAC2025FEA1C1CC0D1C8
:1009680011F4801F0BD141EA00014FF000004FF055
:10097800004CB6E711F4801F04BF01430020B4F116
:10098800FD0C88BFBCF5E06F3FF6AFAEB5EB030CCE
:1009980004BFB6EB020C5FEA500C50F1000041EBCB
:1009A800045170BD0EF0004E4EEA113114EB5C0498
:1009B800C2BFD4EB0C0541EA045170BD41F480116B
:1009C8004FF0000E013C90E645EA060E8DE60CEA73
:1009D800135594EA0C0F08BF95EA0C0F3FF43BAF90
:1009E80094EA0C0F0AD150EA01347FF434AF95EA47
:1009F8000C0F7FF425AF104619462CE795EA0C0F2B
:100A080006D152EA03353FF4FDAE1046194622E7F7
:100A180050EA410618BF52EA43067FF4C5AE50EAD1
:100A280041047FF40DAF52EA43057FF4EBAE12E7C1
:100A38004FF0FF3C06E000BF4FF0010C02E000BFA2
:100A48004FF0010C4DF804CD4FEA410C7FEA6C5C85
:100A58004FEA430C18BF7FEA6C5C1BD001B050EA28
:100A6800410C0CBF52EA430C91EA030F02BF90EA13
:100A7800020F0020704710F1000F91EA030F58BFD2
:100A8800994208BF90422CBFD8176FEAE37040F034
:100A9800010070474FEA410C7FEA6C5C02D150EAD2
:100AA800013C07D14FEA430C7FEA6C5CD6D152EA8D
:100AB800033CD3D05DF8040B704700BF8446104652
:100AC80062468C461946634600E000BF01B5FFF751
:100AD800B7FF002848BF10F1000F01BD4DF808ED21
:100AE800FFF7F4FF0CBF012000205DF808FB00BFF2
:100AF8004DF808EDFFF7EAFF34BF012000205DF84C
:100B080008FB00BF4DF808EDFFF7E0FF94BF012098
:100B180000205DF808FB00BF4DF808EDFFF7CEFF99
:100B280094BF012000205DF808FB00BF4DF808EDD8
:100B3800FFF7C4FF34BF012000205DF808FB00BFA9
:100B48004FEA410C7FEA6C5C02D150EA013C0AD1C1
:100B58004FEA430C7FEA6C5C02D152EA033C02D1B3
:100B68004FF0000070474FF0010070474FEA410214
:100B780012F5001215D211D56FF47873B3EB6252E7
:100B880012D94FEAC12343F0004343EA505311F00E
:100B9800004F23FA02F018BF404270474FF00000A0
:100BA800704750EA013005D111F0004008BF6FF0DE
:100BB800004070474FF00000704700BF4FEA410205
:100BC800B2F1E04324BFB3F5001CDCF1FE5C0DD9A3
:100BD80001F0004C4FEAC0024CEA5070B2F1004FED
:100BE80040EB830008BF20F00100704711F0804FF0
:100BF80021D113F13872BCBF01F00040704741F4B5
:100C080080114FEA5252C2F11802C2F1200C10FAB8
:100C18000CF320FA02F018BF40F001004FEAC1239C
:100C28004FEAD32303FA0CFC40EA0C0023FA02F340
:100C38004FEA4303CCE77FEA625307D150EA013316
:100C48001EBF4FF0FE4040F44000704701F00040E6
:100C580040F0FE4040F40000704700BF53B94AB965
:100C6800002908BF00281CBF4FF0FF314FF0FF30AC
:100C780000F0C6B9ADF1080C6DE904CE00F01AF821
:100C8800DDF804E0DDE9022304B07047430803F00F
:100C98005533C01A830800F0333003F03333184457
:100CA80000EB101000F00F3000EB002000EB0040CC
:100CB800000E70472DE9F04F8C46099E04460F46FA
:100CC800002B48D18A4215465ED9B2FA82F33BB16D
:100CD800C3F120029F409D409C4020FA02F2174336
:100CE8004FEA154E1FFA85FC220CB7FBFEF10EFBEE
:100CF800117701FB0CF042EA0742904207D9AA1883
:100D080001F1FF3702D2904200F258813946121A97
:100D1800A4B2B2FBFEF00EFB102200FB0CFC44EA6E
:100D28000244A4450BD92C1900F1FF322CBF01272E
:100D38000027A44502D9002F00F04381104640EA5D
:100D48000140A4EB0C0400211EB1DC400023C6E9DD
:100D58000043BDE8F08F8B4206D90EB1C6E9000109
:100D680000210846BDE8F08FB3FA83F1002951D17C
:100D78006345C0F01681824240F213810846002E76
:100D8800E7D0C6E90047E4E7002A00F0AF80B2FAEE
:100D980082F3002B40F0C2808A1A4FEA154EAFB298
:100DA8000121200CB2FBFEFC0EFB1C2240EA024291
:100DB80007FB0CF090420ED9AA180CF1FF382CBF93
:100DC8004FF001094FF00009904203D9B9F1000F23
:100DD80000F0F080C446121AA4B2B2FBFEF00EFB7B
:100DE800102200FB07F744EA0244A7420ED92C1947
:100DF80000F1FF322CBF4FF0010E4FF0000EA7425A
:100E080003D9BEF1000F00F0D2801046E41B40EA7F
:100E18000C4099E7C1F120058B400CFA01F400FA67
:100E280001F922FA05F72CFA05FC8A401F4320FA3B
:100E380005F3380C23431FFA87FE1C0CBCFBF0F8A3
:100E480000FB18CC44EA0C4408FB0EFCA4450ED960
:100E58003C1908F1FF3A2CBF4FF0010B4FF0000B83
:100E6800A44503D9BBF1000F00F0B880D046A4EB2D
:100E78000C041FFA83FCB4FBF0F300FB134403FBE0
:100E88000EFE4CEA0444A6450ED93C1903F1FF3086
:100E98002CBF4FF0010C4FF0000CA64503D9BCF154
:100EA800000F00F09F80034643EA0840A4EB0E04BD
:100EB800A0FB02EC64457346E04602D307D1F14536
:100EC80005D2BEEB02036CEB070C0138E0465EB1BD
:100ED800B9EB030264EB080404FA05F522FA01F3FE
:100EE800CC401D43C6E90054002132E742082F4692
:100EF8004B08AC4642EAC172AE46C407110C92B226
:100F080041EA034142EA0142B1FBF5F1B3FBF5F0D6
:100F18001F23A2EB0C0241EA004142E79D40C3F1C6
:100F2800200299409C402CFA02FC4FEA154E20FA08
:100F380002F2AFB2BCFBFEF80A430EFB18CC110C50
:100F480041EA0C4108FB07FC8C4550D9691808F1A7
:100F5800FF302CBF4FF001094FF000098C4502D932
:100F6800B9F1000F30D0A1EB0C01B1FBFEF808FB82
:100F780007FC0EFB181192B242EA0142624534D2D4
:100F8800AA1808F1FF312CBF4FF001094FF00009F2
:100F98006245BED2B9F1000FBBD1A8F102012A44C3
:100FA800B7E7841A6CEB030201201746E7E62C44E6
:100FB80002382BE7ACF1020C2A440CE702392A4428
:100FC800A5E62C440238BAE6A5EB0C0CA8F1020001
:100FD8006144B1FBFEF808FB07FCCAE7A8F1020868
:100FE8003C4444E7023B3C445EE7414691E7A1EBC1
:100FF8000C014046B1FBFEF808FB07FCB9E700BF4F
:10100800704700BFF0B589B088B10C460546C9B134
:101018002E4B1B68002B57D108F0C0FA2C4B3522F9
:101028002C492D4808F004FB08F0B8FAFEE708F050
:10103800B5FA274B33222749274808F0F9FA08F070
:10104800ADFAFEE708F0AAFA214B342221492248DA
:1010580008F0EEFA08F0A2FAFEE7204B53F83670D3
:10106800019700951E4B1F4A80211848006868F0B8
:10107800E3FD07951C4B0693059504950397029588
:10108800019700953B46194A4FF48061204668F065
:10109800D3FDB0F5806F0FD2009023460B4A12683B
:1010A8000121002000F0EAFD0A202CF06DFF013636
:1010B800002ED2DD09B0F0BD00970D4B6E22054918
:1010C8000C4808F0B5FAEFE70026F1E730060020F3
:1010D80000DB070830DB070848DB0708608F0908D2
:1010E80050DB070860DB070834DD070880DB0708EA
:1010F80044DD070860DD07082DE9F04788B098B19E
:101108000E460746D9B1524B1B681BB380202EF000
:10111800D7FE814680202EF0D3FE8246B9F1000F1B
:1011280023D068B3002468E008F038FA494B4A2213
:1011380049494A4808F07CFA08F030FAFEE708F016
:101148002DFA444B4B224449444808F071FA08F000
:1011580025FAFEE708F022FA3E4B4C223E493F486A
:1011680008F066FA08F01AFAFEE708F017FA394BA1
:1011780051223949394808F05BFA08F00FFAFEE7BE
:1011880008F00CFA334B52223349344808F050FA2D
:1011980008F004FAFEE7CDF800803B46304A80218B
:1011A800484668F049FDCDF800803B462D4A80212D
:1011B800504668F041FD07972B4B06930597049717
:1011C800CDF80CA0CDF80890CDF8048000974346E0
:1011D800264A4FF48061304668F02EFDB0F5806FE6
:1011E80024D2009033461A4A12680121002000F0E8
:1011F80045FD0A202CF0C8FE0134022C1FDC1C4DD2
:1012080055F83480CDF8048000971A4B1A4A80218B
:101218000F48006868F010FD05EBC4056B68012BEA
:10122800B9D00B4B186800F0A3FDE2E7CDF80080B9
:10123800124B9E220849124808F0FAF9D9E74846A5
:101248002EF024FF50462EF021FF08B0BDE8F087AD
:101258003006002000DB07088CDD070848DB07089C
:10126800A8DD0708BCDD070834DD0708D0DD07085E
:10127800688F0908A0DD070860DB0708C0DF0708DA
:1012880060DD07082DE9F04F9DB098B10C46074680
:10129800D9B15A4B1B681BB380202EF011FE804633
:1012A80080202EF00DFE8146B8F1000F23D068B3E0
:1012B800002547E008F072F9514B33225149524852
:1012C80008F0B6F908F06AF9FEE708F067F94C4B40
:1012D80034224C494C4808F0ABF908F05FF9FEE7B6
:1012E80008F05CF9464B35224649474808F0A0F912
:1012F80008F054F9FEE708F051F9414B3C22414906
:10130800414808F095F908F049F9FEE708F046F970
:101318003B4B3D223B493C4808F08AF908F03EF92E
:10132800FEE7CDF800A0394B88223649384808F046
:101338007FF903E0314B186800F01AFD0A202CF001
:1013480023FE0135012D50DC324E56F835A0CDF87C
:1013580004A00097304B314A80212848006868F083
:101368006BFC06EBC5067368012BE3D13B462C4AA0
:101378008021404668F060FC3B462A4A8021484666
:1013880068F05AFC14AE5346274A2021304668F0CC
:1013980053FC0DF1300B5346244A2021584668F07F
:1013A8004BFC0A97224B099308970797CDF818B07A
:1013B8000596CDF810A0CDF80C90CDF80880CDF8A2
:1013C80004A0009753461B4A4FF48061204668F0FA
:1013D80033FCB0F5806FA4D200902346074A126808
:1013E8000121002000F04AFCA8E740462EF04EFEFE
:1013F80048462EF04BFE1DB0BDE8F08F30060020A9
:1014080000DB070828E0070848DB07082CE2070884
:1014180060DD0708808F09083CE0070860DB0708E3
:1014280044E0070854E0070864E007086CE0070890
:1014380034DD070874E00708012804D0022804D026
:1014480028B904487047044870470448704704485E
:10145800704700BF5CE2070864E2070870E207080B
:101468001CC4080870B590B0002843D00D46044647
:1014780000294AD0334B1B68002B51D00BAE0023F8
:101488000B930C930D930E938DF83C302E4B9A785A
:10149800198801910092DB782C4A1121304668F0B6
:1014A800CBFB00942A4B2B4A80212648006868F021
:1014B800C3FB08960794284B069305940494039459
:1014C8000294019400942346244A4FF480612846EC
:1014D80068F0B2FBB0F5806F2DD200902B46194A08
:1014E80012680121002000F0C9FB0A202CF04CFDF5
:1014F80010B070BD08F052F8194B2E2219491A483D
:1015080008F096F808F04AF8FEE708F047F8144B98
:101518002F221449144808F08BF808F03FF8FEE72A
:1015280008F03CF80E4B30220E490F4808F080F8BE
:1015380008F034F8FEE70D4B72220A490C4808F00F
:1015480077F8D2E730060020A4930908D4E2070808
:10155800ACE20708B4E2070834DD0708E0E2070850
:1015680000DB070898E2070848DB07087CE507085E
:1015780060DD070870B5B6B006460C461D46134632
:10158800184A402106A868F057FB3F2803D90124D0
:10159800204636B070BD2846FFF74EFFC6F3074316
:1015A800B2B2210EC4F30745A4B205900494039582
:1015B800029101920093330E0B4A802116A868F01D
:1015C8003BFB7F2801D90124E2E7009016AB06AA6D
:1015D8000121084600F052FB04460A202CF0D4FCF6
:1015E800D6E700BFA0E50708ACE5070870B5C6B0A8
:1015F80006460C461D461346164A402106A868F0C2
:101608001BFB3F2803D90124204646B070BDC6F312
:101618000743B2B2210EC4F30740A4B2059504945F
:101628000390029101920093330E0B4AC02116A831
:1016380068F002FBBF2801D90124E5E7009016AB4A
:1016480006AA0121084600F019FB04460A202CF0DE
:101658009BFCD9E7A0E50708FCE5070881B370B54E
:1016680088B00C46CD680DB10B690BB908B070BDD8
:1016780020220021684668F0A2FC24691F2C28BF9C
:101688001F2422462946684668F0AFFE04F120036D
:101698000DEB0304002304F8203C0A496846FEF7D2
:1016A800E7FD0028E2D1084B4FF483720749084848
:1016B80007F0BEFF0221074B18682AF097FBD5E711
:1016C800704700BF80E6070890E6070898E2070819
:1016D800ACE607082C060020F0B585B006462A4B74
:1016E80040F2131229492A4807F0A2FF4FF0FF35AC
:1016F80000240EE0274B4FF48E722449244807F04B
:1017080097FF00202CF030F90BE01C46C8202CF085
:101718003BFC0021204B18682AF038FB10F00C0F16
:10172800E8D11E4B18680028F0D00022039203A9C4
:101738002AF0D2FF0128E9D12CB9039B03B923462B
:10174800002BE2D01C46039BA342DFD8642703FB8F
:1017580007F7B7FBF4F7C7F16407BD42D6D001938A
:1017680000970F4B4FF49B720849094807F060FF38
:101778000C4B1968039B00933B4632460A480068A5
:10178800FFF734FF3D46C1E7B0E6070898E20708CF
:10179800ACE60708CCE607082C060020C8A70020FE
:1017A800E8E6070824060020A493090800293DD08C
:1017B80070B58AB00C46CD680DB10B690BB90AB08B
:1017C80070BD02AE20220021304668F0F8FB246983
:1017D8001F2C28BF1F2422462946304668F005FEE4
:1017E80004F128030DEB0304002304F8203C1049FE
:1017F8003046FEF73DFD20B10E49304668F0C0FC8A
:1018080058B10D4B23220D490D4807F011FF102147
:101818000C4B18682AF0EAFAD1E702AB00930A4B9E
:1018280028220649094807F003FFC8E7704700BFA8
:1018380014E707081CE7070828E7070880E70708F0
:10184800ACE607082C06002094E70708B8E7070865
:1018580030B587B000282BD00C460546002932D079
:10186800274B1868002839D00095264B264A802136
:1018780068F0E2F905950495244B039302950195C8
:1018880000952B46224A4FF48061204668F0D4F92F
:10189800B0F5806F2DD200902346194A12680121B5
:1018A800002000F0EBF90A202CF06EFB07B030BDE9
:1018B80007F074FE174B2E221749184807F0B8FE98
:1018C80007F06CFEFEE707F069FE124B2F22124963
:1018D800124807F0ADFE07F061FEFEE707F05EFE76
:1018E8000C4B30220C490D4807F0A2FE07F056FEBB
:1018F800FEE70B4B5F2208490A4807F099FED2E73A
:1019080030060020BCE70708C4E7070834DD0708ED
:10191800E8E7070800DB070880E7070848DB07084F
:1019280058E9070860DD07082DE9F0418AB038B1A9
:101938000F46054679B1394B1B68BBB1002446E018
:1019480007F02CFE364B61223649374807F070FE07
:1019580007F024FEFEE707F021FE314B62223149F1
:10196800314807F065FE07F019FEFEE707F016FE9E
:101978002B4B63222B492C4807F05AFE07F00EFE2A
:10198800FEE7D8F80830D8F80C10099527480890D1
:10199800079506950591049303960295019600957F
:1019A800D8F80430224A4FF48061384668F044F988
:1019B800B0F5806F26D200903B46184A1268012184
:1019C800002000F05BF90A202CF0DEFA0134052C27
:1019D80020DC184A04EB840C02EB8C0852F82C60CB
:1019E80001960095144B154A80210C48006868F050
:1019F80023F9D8F81030012BC3D0084B186800F031
:101A0800B7F9E0E700940E4B9B2206490D4807F012
:101A18000FFED8E70AB0BDE8F08100BF300600200D
:101A280000DB070894E9070848DB070834DD0708E6
:101A3800B4E9070858900908ACE9070860DB07080B
:101A480034EB070860DD070870B584B000B30646BC
:101A58001B4B1B683BB30024082C2FDC194B04EBF1
:101A6800840203EB820153F82230CA68144D0292B3
:101A780001930096144B154A8021286868F0DCF819
:101A8800286800F075F90A202CF07EFA0134E3E7A3
:101A980007F084FD0E4BAF220E490F4807F0C8FD32
:101AA80007F07CFDFEE707F079FD094BB0220949F4
:101AB800094807F0BDFD07F071FDFEE704B070BDF1
:101AC80030060020A48F0908ACE9070854EB070882
:101AD80000DB070894E9070848DB07082DE9F0410F
:101AE8008AB090B10C460546D9B1374B1B68002B1C
:101AF80067D107F053FD354B4FF497723449354899
:101B080007F096FD07F04AFDFEE707F047FD2F4B6B
:101B18004FF496722E492F4807F08AFD07F03EFDD4
:101B2800FEE707F03BFD294B40F22D1228492948D2
:101B380007F07EFD07F032FDFEE7274B06EB860235
:101B480003EB820853F8227001970095234B244A2F
:101B580080211D48006868F06FF8D8F80830D8F878
:101B68000C2009951F49089107950695059204933D
:101B78000397029501970095D8F804301A4A4FF454
:101B88008061204668F058F8B0F5806F10D2009058
:101B980023460D4A12680121002000F06FF80A2040
:101BA8002CF0F2F90136002EC7DD0AB0BDE8F0814D
:101BB80000970E4B40F2691205490D4807F038FDB1
:101BC800EDE70026EFE700BF3006002000DB07083E
:101BD80094E9070848DB0708908F0908ACE907086B
:101BE80060DB070834DD070878EB070820ED0708F5
:101BF80060DD070868B1006858B151B110B582B00E
:101C08000024009403230A7821462DF065F802B0D9
:101C180010BD7047014B1860704700BF28060020B0
:101C280008B513F0ADFB124BA3FB00239B0D114A23
:101C380002FB1303104A1A44002A16DDD30E510181
:101C4800891A63F100039B0043EA9173890089189C
:101C580043F100034FEAC30C4FF47A720023C80023
:101C68004CEA5171FEF7FAFF08BD0122E6E700BF12
:101C7800B17C219500DD6D00806DEF042DE9F04306
:101C88008FB0002A31D0074688461D461646334B8A
:101C98001B68002B34D0002409940A940B940C94EC
:101CA8000D940DF11C090794089404940594069466
:101CB800214620462DF064FA8DF824708DF8258091
:101CC8000A963046FEF7DEFAADF82C000C95169B06
:101CD8000D932CF0C1FD07904FF4FA730693204B37
:101CE8000493CDF8149001251CE007F057FC1D4B18
:101CF80058221D491D4807F09BFC07F04FFCFEE7E2
:101D080007F04CFC174B59221749184807F090FC6C
:101D180007F044FCFEE7039BE3B10325FA202CF00F
:101D280033F90134042C15D804AA09A90B4B1868F7
:101D380059F012FD05460028F0D1039041F288338E
:101D4800009303AB024601462CF04CFF0128E2D079
:101D58000325E3E728460FB0BDE8F08328060020F6
:101D6800FD1B010800DB0708D4EE070848DB07085D
:101D780000B583B040B1024600200090034601211F
:101D8800FFF77CFF03B000BD07F008FC044B962268
:101D98000449054807F04CFC07F000FCFEE700BFCB
:101DA80000DB0708D4EE070848DB07082DE9F041F7
:101DB80084B020B30C4616461D46074651B3002B87
:101DC80033D03A4B1B68002B3AD080202EF078F89D
:101DD800804600283FD000943B46354A802167F072
:101DE8002BFF7F2842D800220092334641462F48D5
:101DF800006804F0D9FA00284CD1012440E007F02B
:101E0800CDFB2C4BA7222C492C4807F011FC07F0DE
:101E1800C5FBFEE707F0C2FB264BA8222649274848
:101E280007F006FC07F0BAFBFEE707F0B7FB214B0B
:101E3800A9222149214807F0FBFB07F0AFFBFEE789
:101E480007F0ACFB1B4BAA221B491C4807F0F0FB10
:101E580007F0A4FBFEE707F0A1FB164BAD221649DD
:101E6800164807F0E5FB07F099FBFEE70294019797
:101E78000095134BB7221049124807F0D9FB0024EC
:101E88000A202CF081F840462EF000F9204604B0D4
:101E9800BDE8F081CDF8048000950B4BC8220649B7
:101EA800084807F0C5FB0024EAE700BF2806002021
:101EB800E4EE070800DB0708D4EE070848DB07084C
:101EC800ECEE070860DD07081CEF070810B582B0C4
:101ED80090B10446D9B11D4A106818B30022009287
:101EE8000B46214604F060FA38BB01240A202CF086
:101EF8004BF8204602B010BD07F050FB144BDC2213
:101F08001449154807F094FB07F048FBFEE707F073
:101F180045FB0F4BDD220F490F4807F089FB07F0FF
:101F28003DFBFEE707F03AFB094BDE2209490A4868
:101F380007F07EFB07F032FBFEE70094074BE82230
:101F48000449074807F074FB0024CFE7280600205F
:101F580000DB0708D4EE070848DB070840EF07084E
:101F680060DD070830B583B048B30C461546034614
:101F780081B3002A39D02C4A1068002840D02B4A57
:101F8800802167F059FE40F2FF322946204668F06A
:101F98007EF8002384F8FF332046FEF773F9B0F586
:101FA800806F38D2009023461F4A12680121002012
:101FB800FFF764FE0A202BF0E7FF03B030BD07F0FF
:101FC800EDFA1B4BF8221B491B4807F031FB07F0C1
:101FD800E5FAFEE707F0E2FA154BF922154916482B
:101FE80007F026FB07F0DAFAFEE707F0D7FA104BFE
:101FF800FA221049104807F01BFB07F0CFFAFEE75A
:1020080007F0CCFA0A4BFB220A490B4807F010FBF1
:1020180007F0C4FAFEE7094B4FF4897205490848EE
:1020280007F006FBC6E700BF3006002064EF07088C
:1020380000DB0708D4EE070848DB07087CEF070831
:1020480060DD070861B30B46C96849B370B584B051
:102058001C690CB904B070BD002600960196029662
:1020680003960F2C28BF0F242246684668F0BDF956
:1020780004F110030DEB030202F8106C09496846DD
:10208800FEF7F6F80028E5D1074B4C220749084827
:1020980007F0CEFA2021074B186829F0A7FED9E7E8
:1020A800704700BFA4EF0708ACEF070804F0070863
:1020B800ACE607082C06002038B5B8B30C46054630
:1020C80000293ED0FFF7CEF921462846FFF7DAF877
:1020D80021462846FEF796FF21462846FFF724FCAE
:1020E8002846FFF7B1FC21462846FFF7F7FC2146B2
:1020F8002846FFF701F821462846FFF7A9FB4FF4C9
:102108007A702BF041FF144B186802232A460146C7
:10211800FFF730FA114A21462846FFF723FF104BF4
:102128009A221049104807F083FA38BD07F036FAAA
:102138000E4B5C220B490E4807F07AFA07F02EFA8C
:10214800FEE707F02BFA094B5D220649084807F01D
:102158006FFA07F023FAFEE7A4930908A4EF07082B
:1021680010F0070804F00708ACE6070800DB0708CA
:1021780048DB07082DE9F04184B00023039303F0FE
:102188002FFE03F027FE00283DD0044603F0EAFDA9
:102198002046FFF73FFD03A9002009F08BFF054605
:1021A80000283BD04FF480602DF08AFE804600283E
:1021B8003FD080202DF084FE854B1860002843D046
:1021C8000095844BBF228449844807F031FA29F0EE
:1021D8003EFD834B1860002841D0824B824A8349D8
:1021E8002846FFF7E3FD824B824A83492846FFF7DA
:1021F800DDFD82498248FFF769FE41462846FFF720
:102208005BFF0026B3E007F0C9F97E4BAE227249A6
:102218007D4807F00DFA07F0C1F9FEE707F0BEF9AF
:10222800784BB7226C49784807F002FA07F0B6F9FC
:10223800FEE707F0B3F9734BBA226749724807F013
:10224800F7F907F0ABF9FEE707F0A8F96D4BBD22E7
:1022580061496D4807F0ECF907F0A0F9FEE707F0CF
:102268009DF9684BC2225C49674807F0E1F907F01D
:1022780095F9FEE7654BEE225749584807F0D8F91B
:10228800634B196800232A4662480068FFF772F911
:102298007DE0614BF4225049504807F0C9F95C4B86
:1022A800196801232A465B480068FFF763F9002391
:1022B8000193022300932B464FF4806257495848F4
:1022C8002BF040FB012666E0434F444E554B4FF43C
:1022D80082723946304607F0ABF9534B40F205128B
:1022E8003946304607F0A4F90DF0FAFC002655E00F
:1022F8004E4B40F20D123849384807F099F94146DB
:102308002846FFF7D9FE00264BE0494B40F21D1244
:102318003149324807F08CF9464A41462846FFF7CA
:1023280021FE4FF47A702BF02FFE0DF0D9FC14F03B
:10233800200700D1DCB9002E40D113F021F83E4B24
:10234800A3FB0023DB0B3D4A02FB13002BF01CFE12
:10235800002F3BD03A4B00933A4B40F22F121E49C4
:102368001E4807F065F941462846FFF7A5FE1C4BB5
:102378001C68FFF755FC0090002301223F212046EE
:1023880029F074FC044610F0010F7FF473AF14F0C9
:10239800020F7FF47EAF14F0040F95D114F0080FEC
:1023A800A6D114F0100FC2D0002EAED0264B40F2AA
:1023B80019120949094807F03BF9D8E7234B4FF4AC
:1023C80094720549054807F033F9D0E7204BC2E776
:1023D8003006002054F0070804F00708ACE60708A8
:1023E8002C06002098F0070865160108A4F00708D5
:1023F800B0F00708B5170108C0F007084D2001081C
:10240800CCF0070800DB070848DB0708E4F00708FA
:1024180024060020A4930908FCF0070818F107080F
:10242800E116010828F1070840F107086CF10708D0
:10243800B4F10708C4F1070873B2E745C0D4010036
:102448003CF00708FCF1070888F10708CCF10708F9
:1024580048F007080120704730B585B0F8B1044648
:102468001C4B03611C4B43614068223080B22083BF
:1024780001302DF025FDE060F8B10DF10E03019358
:1024880003230093A388A268218B50F021FE054600
:10249800228BBDF80E309A420CD000250EE007F0D2
:1024A8007DF80E4BFE220E490E4807F0C1F807F0E2
:1024B80075F8FEE7012801D106E00025E06818B1AB
:1024C8002DF0E4FD0023E360012D14BF002001205E
:1024D80005B030BD5CF207088CF2070800DB07087E
:1024E8004BF2070848DB070870B582B00446009035
:1024F8001C4B01220169006A03F056FFD0B9009411
:10250800194B01226169206A03F04EFF054618B392
:10251800164E174B4FF4A0723146164807F088F84C
:1025280063690093144B4FF4A2723146134807F0C5
:102538007FF811E005460D4E0D4B4FF49972314668
:102548000C4807F075F8236900930B4B4FF49B7206
:1025580031460A4807F06CF8B5FA85F0400902B030
:1025680070BD00BFB9250108892501084BF207088D
:10257800BCF2070848DB070840EF070860DD0708DA
:10258800C269A2B110B582B004460B460969D86881
:10259800FFF760FF48B102220023009303230121C3
:1025A80020682CF099FB02B010BD0322F4E77047B5
:1025B800C269A2B110B582B004460B460969D86851
:1025C800FFF748FF48B101220023009303230121AC
:1025D80020682CF081FB02B010BD0322F4E770479D
:1025E80030B583B00C46054638B16CB11DB114B195
:1025F800EB69012B0FD003B030BD0B4BDD220B492B
:102608000B4807F015F8F0E7074BDE2207490848A2
:1026180007F00EF8EAE7002300930323227802214B
:1026280028682CF059FBE6E7BCF207084BF20708CC
:1026380048DB070838B505460C460846FDF722FE74
:1026480002462146284624F022FE38BD30B585B022
:10265800002835D004463949FFF7ECFF0546002825
:102668003AD14FF0FF326946204624F01CFE054659
:1026780000283BD1684600F0B9FC054600283DD14A
:10268800684600F071FD054600283FD1684600F015
:1026980023FE0546002841D1684600F0D5FE0546D0
:1026A800002843D16946204624F00BFE0546D0B1E8
:1026B800234B4FF4F5722349234806F0B9FF12E083
:1026C80006F06CFF214B4FF4E2721E491E4806F0DB
:1026D800AFFF06F063FFFEE7194B40F2C712194936
:1026E800194806F0A5FF284605B030BD144B4FF435
:1026F800E6721449144806F09BFFF4E7104B4FF4B8
:10270800E9721049104806F093FFECE70C4B4FF4C0
:10271800EC720C490C4806F08BFFE4E7084B4FF4C9
:10272800EF720849084806F083FFDCE7044B4FF4D2
:10273800F2720449044806F07BFFD4E7D8F2070890
:10274800BCF207084BF2070848DB070800DB07085C
:1027580070B586B0154603AA0023039353609360AF
:1027680002931A4B01241C70C6685E60B0F818C04A
:10277800A3F808C0D9601D6142F21071059114498F
:1027880003910490C4611946006A58F0E5FF02906D
:1027980028B10298B0FA80F0400906B070BD08234D
:1027A800029347F23053009302AB4FF0FF320021FF
:1027B80002202CF017FA0028EBD1064B40F21A221F
:1027C8000549064806F034FFE3E700BF3406002059
:1027D800E9250108DCF207084BF2070860DD070865
:1027E80010B5044603460F4A0169006A03F01EFF4C
:1027F80038B923460C4A6169206A03F017FF40B9CB
:1028080010BD0A4B4FF4AA7209490A4806F010FF96
:10281800EFE7064B4FF4AE720549064806F008FF8D
:10282800EEE700BFB925010889250108BCF20708B1
:102838004BF2070848DB070810B50446806808B162
:102848002DF024FCE06808B12DF020FC24220021A2
:10285800204667F0B4FB10BD70B5ADF58C6D242231
:1028680000210DF23C4067F0AAFB0024A84B1C6035
:102878004FF4806221460FA867F0A1FB0DF588612F
:10288800204609F017FCCDF84404CDF858442BF045
:10289800E3FFCDF83C04DDF84434F3B1DDF840340F
:1028A800EBB14FF6FE72934201D9002418E00DF205
:1028B8003C40FFF7D1FD044690B9964D964B40F247
:1028C8004D222946954806F0B3FE954B40F2552215
:1028D8002946944806F0ACFE02E0002400E00024FB
:1028E80003F07EFA03F076FACDF85C041CB9884B45
:1028F80001221A605BE00DF23C40FFF7F5FD04464B
:1029080048B1894B40F267228249884806F090FE18
:10291800002C4CD1EBE77F4D7F4B40F263222946D8
:102928007E4806F085FE824B40F26B2229467D48A0
:1029380006F07EFEECE7784B4FF421727549774834
:1029480006F076FE7B4B40F2BD227249754806F0D0
:102958006FFE94B9039C0FAD641B774B40F2C622FF
:102968006C49724806F064FE224629460DF23C4046
:10297800FFF7EEFE002800F0C38047F230530093C3
:1029880002AB4FF0FF32002101202CF02BF9012877
:1029980000F0E4800023CDF85834684B40F2E92277
:1029A8005C49604806F044FE65482BF0EDFA584B48
:1029B8001B68002B40F0EC802BF048F906460025F8
:1029C800029503AC2B464FF480620FA9204624F0F1
:1029D8003CFC4FF0FF3207A9204624F064FC044673
:1029E8000028A8D1574907A8FFF724FE0446002865
:1029F80046D102220BA907A824F055FC044600285A
:102A080046D151490BA8FFF715FE0446002847D1C7
:102A180032462B460BA824F01FFC044348D14B49EF
:102A28000BA8FFF707FE00284AD149490BA8FFF772
:102A380001FE044600284BD10BA907A824F041FC4D
:102A4800044600284CD1434B4FF42C723149374887
:102A580006F0EEFD07A8FFF7F9FD0446002847D168
:102A680007A903A824F02DFC044600283FF472AF00
:102A7800294B4FF42E722749284806F0D9FD61E703
:102A8800254B40F289222349244806F0D1FD59E715
:102A9800214B4FF424721F49204806F0C9FD51E725
:102AA8001D4B40F297221B491C4806F0C1FDAFE7B9
:102AB800194B40F29A221749184806F0B9FD41E728
:102AC800154B40F2A1221349144806F0B1FDACE7BA
:102AD800114B4FF429720F49104806F0A9FD31E750
:102AE8000D4B40F2AA220B490C4806F0A1FD29E73C
:102AF800094B40F2B2220749084806F099FD21E740
:102B0800154B4FF433720349064806F091FD34E73C
:102B1800480600204BF20708BCF2070848DB070804
:102B2800F8F2070860DD07081CF30708ACE6070899
:102B380050F30708ACF30708D0F3070858F4070860
:102B4800E0930400481C090880F3070884F3070889
:102B580088F307088CF30708F4F307089DF8083092
:102B68000022CDF85824012B0AD0022B7FF415AF90
:102B7800124B40F2E3221249124806F059FD13E7BE
:102B8800114B40F2DF220E49104806F051FD0BE7C9
:102B98000F4B40F2F1220A490E4806F049FD0DF2AA
:102BA8003C442046FFF71CFE2046FFF745FE002068
:102BB8002AF0DAFE0DF58C6D70BD00BF3CF40708F5
:102BC8004BF2070860DD070820F40708ACE60708A1
:102BD80080F407088CF40708054B1B68002000E008
:102BE800DB6823B11A7D012AFAD10130F8E7704772
:102BF800B0DD0620044B1B68002001E00130DB68D3
:102C0800002BFBD1704700BF00DE0620044B1B6879
:102C1800002001E00130DB68002BFBD1704700BFCA
:102C2800ACDD062038B505460C460846FDF72AFBFC
:102C380002462146284624F02AFB38BD70B50546D1
:102C48001646FFF7EFFF044631462846FFF7EAFF2E
:102C5800204370BDF8B5054617461E46FFF7E2FF4C
:102C680004463A463346284624F0F6FA2043F8BD8F
:102C780008B560B9074B1B6823B193F83C005DF0B9
:102C880017FC08BD044B186808600846F9E75DF0B2
:102C98000FFCF6E7CCDB062090F40708F0B587B008
:102CA80020B10646304B1C68002511E006F076FC82
:102CB8002E4BDB222E492F4806F0BAFC06F06EFC9C
:102CC800FEE72D4BE8222A492A4806F0B1FCE468C1
:102CD800002C45D0694600230093ADF80430207AD3
:102CE800FFF7C6FF074628B3022202A9304624F0A0
:102CF800DAFA05460028E4D13A46204902A8FFF747
:102D08009DFF054668B9E28A00231D4902A8FFF71E
:102D1800A1FF0546E8B902A9304624F0D2FA0546D3
:102D2800D5E7154BED221249124806F081FC002D1B
:102D3800CDD1E8E7012202A9304624F0B4FA0546CD
:102D48000028E0D00C4BF32209490A4806F070FC31
:102D5800EDE7094BF9220649064806F069FCB6E793
:102D6800284607B0F0BD00BFB0DD062000DB07082D
:102D7800AFF4070848DB0708BCF2070838860908DB
:102D8800C8F40708F0B587B020B10646324B1C6876
:102D9800002513E006F002FC304B40F26B1230497C
:102DA800304806F045FC06F0F9FBFEE72E4B4FF4E1
:102DB800BC722B492B4806F03BFCE468002C48D039
:102DC800694600230093ADF80430207AFFF750FFDE
:102DD800074630B3022202A9304624F064FA0546B9
:102DE8000028E3D13A46214902A8FFF727FF054604
:102DF80068B9628A00231E4902A8FFF72BFF05461F
:102E0800F8B902A9304624F05CFA0546D5E7164B16
:102E180040F27D121249134806F00AFC002DCCD16D
:102E2800E7E7012202A9304624F03DFA05460028CA
:102E3800DFD00D4B40F2831209490A4806F0F8FB2F
:102E4800ECE7094B40F289120549064806F0F0FB09
:102E5800B3E7284607B0F0BD00DE062000DB070810
:102E6800AFF4070848DB0708BCF2070838860908EA
:102E7800C8F40708F8B505460C4610461F460A462A
:102E8800294664F0A5FE68B12146284667F012F984
:102E980006463B46094A211A281866F0CDFE3044FA
:102EA800844208D2064B40F20A220649064806F038
:102EB800BFFB0020F8BD0120FCE700BFCCF40708E9
:102EC800BCF20708AFF4070848DB070870B58EB0F6
:102ED80020B106463D4B1C6800251BE006F05EFB52
:102EE8003B4B40F212223B493B4806F0A1FB06F05F
:102EF80055FBFEE7394B4FF407723649364806F062
:102F080097FB6946207AFFF7B3FE024600283BD0BC
:102F180065B3E468002C56D01D22002106A867F08E
:102F28004EF800230093ADF80430032202A930467E
:102F380024F0B9F905460028DCD1238B221D1D2178
:102F480006A8FFF797FF08B90125DAE706AA24497A
:102F580002A8FFF773FE05460028D2D01F4B4FF496
:102F680009721C491C4806F063FBCAE71D4902A800
:102F7800FFF764FE054680B1184B4FF40D721549F2
:102F8800154806F055FBC4E7144B40F23A221149A4
:102F9800114806F04DFB0125BBE7E28A00231249E0
:102FA80002A8FFF757FE054628B902A9304624F0C3
:102FB80088F90546ADE7094B40F241220549064824
:102FC80006F036FBA5E728460EB070BDACDD06203E
:102FD80000DB0708AFF4070848DB0708BCF207085E
:102FE800D4F40708D8F40708DCF407082DE9F04FF3
:102FF80089B00390A0B15049039C2046FFF712FE08
:103008000290C0B9042204A9204624F04CF9029089
:10301800B8B14A4B78224A494A4806F009FB10E001
:103028000090494B64224649484806F001FB40F2AB
:103038000723029337E0414B73224149414806F088
:10304800F7FA434865F0D4FB424B1B680024264638
:1030580025462746A046A246A146A3461CE09A6CF0
:1030680012EB090291464BF1000B1A6E12EB0802A3
:1030780090464AF1000A1A6D521947F10007DD6CB3
:10308800AD1847F100075A6E121946F100069C6EFA
:10309800A41846F100061B68002BE0D12C4865F007
:1030A800B1FB029B1BB1029809B0BDE8F08F2A461C
:1030B8003B46294904A8FFF7CDFD029D05431FD1D2
:1030C80022463346254904A8FFF7C4FD28431ED1EC
:1030D8004A465B46224904A8FFF7BCFD0446E8B906
:1030E800424653461F4904A8FFF7B4FD54EA0003BB
:1030F80002931AD104A9039824F0E3F80290D2E7C6
:103108000E4B92220E490F4806F092FAD8E70B4B65
:1031180095220B490B4806F08BFAD9E7074B982202
:103128000749084806F084FADAE7044B9B22044969
:10313800044806F07DFAB6E704F50708BCF207086C
:10314800AFF4070848DB0708E0F4070860DD070864
:103158002C780520D0DB062008F507080CF50708B1
:10316800301D080810F5070870B58AB00646D8B1B2
:10317800504865F03DFBFFF72FFD05464E493046A8
:10318800FFF750FD0446D0B90DBB012202A9304615
:1031980024F089F8044608B3484B40F227124849FE
:1031A800484806F045FA31E00090474B4FF48772E3
:1031B8004349464806F03CFA40F207241CE03F4BDE
:1031C8004FF48D723E493F4806F032FA0EE0022273
:1031D80002A9304624F067F8044680B92A4600233D
:1031E8003B4902A8FFF736FD044690B9002D38D0B8
:1031F800BCB1304865F006FB20460AB070BD2F4BC5
:103208004FF491722E492F4806F012FA002CEDD196
:10321800E4E72A4B40F22F1229492A4806F008FA17
:10322800E4E72C4902A8FFF7FDFC044650BB2A46F8
:1032380006A902A824F032F8044658BB06A8FFF7EE
:103248002DFD044600282DD106A902A824F039F83E
:10325800044640B1194B4FF4A5721949194806F0B4
:10326800E7F9002CC5D102A9304624F02AF8044613
:103278000028BED0114B40F251121149114806F0F6
:10328800D7F9B6E70D4B4FF49C720D490D4806F07F
:10329800CFF9AEE7094B4FF49F720949094806F088
:1032A800C7F9A6E7054B4FF4A2720549054806F091
:1032B800BFF99EE72C7805203CF50708BCF2070803
:1032C800AFF4070848DB070814F5070860DD0708AE
:1032D8002CB2080840F5070870B58AB00646D8B180
:1032E800504865F085FAFFF785FC05464E4930469B
:1032F800FFF798FC0446D0B90DBB012202A930465D
:1033080023F0D1FF044608B3484B40F2B7124849AE
:10331800484806F08DF931E00090474B4FF4CF72E2
:103328004349464806F084F940F207241CE03F4B25
:103338004FF4D5723E493F4806F07AF90EE0022272
:1033480002A9304623F0AFFF044680B92A4600237D
:103358003B4902A8FFF77EFC044690B9002D38D0FF
:10336800BCB1304865F04EFA20460AB070BD2F4B0C
:103378004FF4D9722E492F4806F05AF9002CEDD196
:10338800E4E72A4B40F2BF1229492A4806F050F9CF
:10339800E4E72C4902A8FFF745FC044650BB2A463F
:1033A80006A902A823F07AFF044658BB06A8FFF72F
:1033B800E9FC044600282DD106A902A823F081FFC4
:1033C800044640B1194B4FF4ED721949194806F0FB
:1033D8002FF9002CC5D102A9304623F072FF04460C
:1033E8000028BED0114B40F2E1121149114806F0F5
:1033F8001FF9B6E70D4B4FF4E4720D490D4806F07E
:1034080017F9AEE7094B4FF4E7720949094806F086
:103418000FF9A6E7054B4FF4EA720549054806F08F
:1034280007F99EE72C78052044F50708BCF2070841
:10343800AFF4070848DB070814F5070860DD07083C
:103448002CB2080840F5070870B58EB0064660B380
:10345800694865F0CDF9FFF7D9FB0546674930465D
:10346800FFF7E0FB044658BB012202A9304623F0CF
:103478001AFF0446002834D1614902A8FFF7D2FB9D
:103488000446002835D1002D3BD1012206A902A807
:1034980023F009FF044600283AD05A4B4FF41F7214
:1034A80059495A4806F0C4F84AE00090584B40F28F
:1034B80055225549574806F0BBF840F207240DE05D
:1034C800504B40F262225049504806F0B1F8002DA6
:1034D8005BD0002C37D0484865F094F920460EB0F0
:1034E80070BD484B4FF41A724749484806F0A0F897
:1034F800EDE7444B40F26E224349444806F098F801
:10350800E5E7022206A902A823F0CDFE044680B909
:103518002A460023404906A8FFF79CFB04460028DA
:10352800D5D0384B4FF421723749384806F080F827
:10353800CDE7344B40F277223349344806F078F827
:10354800002CC4D1E4E7354906A8FFF76BFB044615
:10355800002831D12A460AA906A823F09FFE04466E
:10356800002831D10AA8FFF7B1FC0446002833D15E
:103578000AA906A823F0A5FE044640B1214B40F253
:103588009F222149214806F053F8002CA3D106A90F
:1035980002A823F096FE044630BB02A9304623F069
:1035A80090FE0446002896D0164B4FF42B7216490D
:1035B800164806F03DF88EE7124B40F28D2212496C
:1035C800124806F035F886E70E4B40F293220E4972
:1035D8000E4806F02DF87EE70A4B40F299220A4978
:1035E8000A4806F025F876E7064B40F2A622064977
:1035F800064806F01DF86EE72C78052048F5070800
:103608004CF50708BCF20708AFF4070848DB0708C1
:1036180014F5070860DD07082CB2080850F50708FC
:1036280030B54FF0000E4FF00C0C09E010F80C30DC
:103638002F2B13D0002010E00EF1010E0CF1010C1D
:103648008C4509D29E45F1D012F80E5010F80C4066
:10365800A542F1D0002000E0002030BD0120FCE7A9
:103668000B4B03604FF482728280991881608281CB
:1036780003F5027202618022828203F52271816160
:103688004FF40061C16103F68823036282847047A6
:103698005406002008B550F005FD022806D007DBC7
:1036A8000438C0B2032805D9002002E0012000E058
:1036B800002008BD0120FCE708B550F063FC00209D
:1036C8002AF052F908BD000008B5002828D01A4A87
:1036D80002601A4A42601A4A82601A4AC2601A4A4A
:1036E80042611A4A82611A4AC2611A4A02621A4A35
:1036F80042621A4A82621A4A02631A4AC2621A4A21
:10370800C2651A4A82651A4AC2641A4A02651A4A86
:1037180082641A4A42651A4A02641A4A426408BD17
:1037280005F03CFF184B40F2C3421849184805F011
:103738007FFF05F033FFFEE79D660608E966060889
:10374800296706088567060899670608CD68060888
:1037580039690608A9690608B1690608B93C01086B
:10376800693D01080D3C0108255E0208D160020888
:10377800155D0208615F020865620208B15E020811
:1037880059630208B15B020800DB07086AF50708FD
:1037980048DB070838B598B10C46054600F50053D4
:1037A8004FF0FF31D3F80C0A29F044F8012813D060
:1037B8000F4B40F2F1120F490F4805F039FF38BDA1
:1037C80005F0ECFE0D4B4FF4F4720A490C4805F075
:1037D8002FFF05F0E3FEFEE7002184F8001E05F543
:1037E80000550B460A46D5F80C0A28F08DFDE6E789
:1037F8007CF507086AF5070860DD070800DB07089D
:1038080048DB070810B582B007285CD8DFE800F06D
:1038180004161E3A4B5B5B53304C314B40F2DE22B0
:103828002146304805F004FF51F0AAFD2E4B40F226
:10383800EB2221462D4805F0FBFE4CE02C4B40F2D4
:10384800F3222649274805F0F3FE44E0294B40F2CD
:10385800FF222249234805F0EBFE022051F0C2FB6B
:1038680038B9254B40F226321C491E4805F0E0FEC7
:1038780031E00090214B40F22A3218491B4805F0EC
:10388800D7FE28E019B11E48FFF784FF23E005F0B2
:1038980085FE1C4B40F2323210491B4805F0C8FE29
:1038A80005F07CFEFEE7194B4FF44F720B490F48A9
:1038B80005F0BEFE0FE0164B4FF450720749094859
:1038C80005F0B6FE07E00090124B4FF45172034921
:1038D800114805F0ADFE02B010BD00BF6AF507083B
:1038E8009CF50708ACE60708D4F5070860DD07086B
:1038F800F4F5070830F6070868F607089CF6070885
:103908005C11002000DB070848DB0708D4F607082D
:1039180014F7070828F70708B8E7070838B5B0B15B
:10392800054600F500534FF0FF31D3F80C0A28F094
:1039380081FF01282BD10023022B1CD840F60462FA
:1039480002FB035292F8002E6AB10133F4E705F046
:1039580025FE134B4FF4FE721249134805F068FE1A
:1039680005F01CFEFEE740F6046202FB0354012347
:1039780084F8003E00E0002405F5005500231A46AF
:103988001946D5F80C0A28F0BFFC204638BD074B6D
:1039980040F20E220349064805F04AFE0024F4E7E7
:1039A80000DB07086AF5070848DB07087CF5070805
:1039B80060DD0708F0B585B0002302930393002962
:1039C80032D00C46344B1D68002D39D04F680E8913
:1039D8002846FCF757FC03462A4631463846FFF787
:1039E8001FFE01284CD1236940F6FA5293423BD876
:1039F80000932A4B40F2993229492A4805F018FECB
:103A08002948FFF78BFF054630B32269E16866F065
:103A1800ECFC2369C5F8FC3D03238DF80C300295B6
:103A280002A850F05BFD34E005F0B8FD1F4B40F2F2
:103A38008D321B491E4805F0FBFD05F0AFFDFEE782
:103A480005F0ACFD194B40F28E321549184805F0C7
:103A5800EFFD05F0A3FDFEE7164B4FF46A7210491F
:103A6800154805F0E5FD14E040F6FA52019200937E
:103A7800124B40F2AD320A490F4805F0D9FD08E073
:103A8800019700960E4B40F2B23205490D4805F0F9
:103A9800CFFD05B0F0BD00BF5006002068F707084D
:103AA8006AF50708ACE607085C11002000DB070888
:103AB80048DB070890F7070860DD0708B8F707082C
:103AC80010F80708B8E7070870B584B00023029318
:103AD800039329B30C464E680D89274B1B68274A68
:103AE800126829463046FFF79BFD012838D1236923
:103AF80040F6FA52934227D82148FFF70FFF0546B0
:103B0800D0B12269E16866F070FC2369C5F8FC3D14
:103B180006238DF80C30029502A850F0DFFC28E04F
:103B280005F03CFD174B40F255321749174805F090
:103B38007FFD05F033FDFEE7154B40F27132124967
:103B4800144805F075FD14E040F6FA52019200930E
:103B5800114B40F276320C490E4805F069FD08E039
:103B6800019600950D4B40F27D3207490C4805F04F
:103B78005FFD04B070BD00BF4C0600205006002059
:103B88005C11002000DB07086AF5070848DB070816
:103B980090F7070860DD070868F80708B4F8070811
:103BA800B8E7070870B584B0054600238DF80F30D4
:103BB8008CB20DF10F03009314230E4A214655F0E1
:103BC800A7F89DF80F3023B9002623B1304604B07A
:103BD80070BD094EF9E70DF10F0300931723074A4B
:103BE8002146284655F094F89DF80F30002BEDD06B
:103BF800034EEBE70CF90708BD39010824F907085B
:103C0800D13A010870B584B070B10C460546B9B90F
:103C180005F0C4FC1F4B40F297421F491F4805F0AE
:103C280007FD05F0BBFCFEE705F0B8FC194B40F2B8
:103C380096421949194805F0FBFC05F0AFFCFEE770
:103C4800FFF7B0FF064602F0C5F8F8B106B3002347
:103C58003246294602F0EAFC064658B90195009416
:103C68000F4B40F2B4420C490E4805F0E1FC3046D7
:103C780004B070BD0290019500940B4B40F2AB422A
:103C880005490A4805F0D4FCA226F0E7A226EEE78B
:103C9800A226ECE700DB07086AF5070848DB0708F7
:103CA80074F90708ACE607083CF9070860DD07085F
:103CB800F0B583B078B10C4615460646B9B905F09B
:103CC8006DFC204B40F21B421F49204805F0B0FC18
:103CD80005F064FCFEE705F061FC1A4B40F21A425D
:103CE80019491A4805F0A4FC05F058FCFEE7FFF74F
:103CF80059FF074602F06EF8F8B107B300230093A6
:103D08003B462A46314602F04FFB054658B9019614
:103D180000940F4B40F237420B490E4805F088FCDF
:103D2800284603B0F0BD00900B4B4FF4866206495D
:103D38000A4805F07DFCA125F2E7A125F0E7A125B9
:103D4800EEE700BF00DB07086AF5070848DB07084D
:103D5800C4F90708ACE6070894F9070860DD070806
:103D680070B58CB005460C46002007900890099065
:103D78000A900B9004900590069003900290089585
:103D8800ADF824109DF840108DF81C100A920B9382
:103D980001462BF0F5F92AF05FFD029042F210730C
:103DA80006931B4B049302AB059302F013F860B320
:103DB80004AA07A957F0D0FC064660B942F210736E
:103DC800009303AB4FF0FF32002108462AF00AFFA8
:103DD80001280CD0032600960E4B40F27D420E4976
:103DE8000E4805F025FCA02630460CB070BD9DF8A5
:103DF8000C60002EEFD101950094094B40F28242ED
:103E08000549084805F014FCEEE7A026ECE700BFDA
:103E1800313E0108E0F907086AF5070860DD070880
:103E28001CFA0708ACE6070800B583B058B10A4683
:103E38000068A0B1F9B100210091032312782AF09B
:103E48004BFF03B000BD05F0A9FB114B40F2074240
:103E58001049114805F0ECFB05F0A0FBFEE705F062
:103E68009DFB0B4B4FF481620A490B4805F0E0FBC0
:103E780005F094FBFEE705F091FB054B40F2094283
:103E88000449054805F0D4FB05F088FBFEE700BFB0
:103E980000DB07086AF5070848DB070810B578B1A2
:103EA800044642F60C22002166F089F8012028F029
:103EB800F7FA04F50054C4F80C0A00B1012010BD4B
:103EC80005F06CFB044B40F2D5120449044805F098
:103ED800AFFB05F063FBFEE700DB07086AF50708A0
:103EE80048DB070830B5B3B00024309431940AADEC
:103EF80038222146284666F062F818A8FFF7E4FB46
:103F08002846FFF7ADFB7C4BDA7899781B8802933B
:103F180001910092794B4FF4A6627949794805F0EE
:103F280087FB7949204608F0C5F8784B186010B12E
:103F3800754B1B6813BB764B40F24F52704975485E
:103F480005F076FB00231C46002B40D10125724B5F
:103F580040F2CA526A496B4805F06AFB002D00F02E
:103F6800BA806A4B186820B12CF090F8674B002291
:103F78001A60002029F0F8FC33B030BD674B40F2DE
:103F880056525F495F4805F053FB654B0093012388
:103F9800002220216348006827F068FE10F0200FF7
:103FA8000BD0614B4FF4AC625549564805F040FBC5
:103FB80001F010FF04460123C6E75C4B40F266524D
:103FC8004F49504805F034FB01230024BCE784B175
:103FD80000220092564B5749204602F0E5F9054663
:103FE80040B1554B40F2755245494A4805F020FB0F
:103FF800ADE7012544B1002200924D4B4F492046C0
:1040080002F0D2F90546A8B94D48FFF747FF012845
:104018009DD14C4B3D4A126818A90AA84FF0D4FF0D
:1040280080B10090484B40F297523549394805F025
:10403800FFFA8CE7454B40F285523149354805F087
:10404800F7FA84E700230193032200924FF4805289
:104058003F49404829F076FC012808D000903E4BA3
:1040680040F2A65226492B4805F0E2FA6FE70023F2
:104078008DF8C43030A850F031FA08E047F23050DB
:1040880029F082FF50F00EF80A283FF460AF0023B1
:104098000693079308930993FFF7FCFA0128EDD1DB
:1040A80006A850F005F80028E8D14FF0FBFF099B5F
:1040B8000493089B0393079B0293069B0193274B4A
:1040C80053F820300093264B40F2BD520C490D485E
:1040D80005F0AEFAD2E70023154A1649204602F049
:1040E800A5FA00283FF43DAF1E4B40F2D5520449D3
:1040F800084805F09DFA34E7A49309084CFA070824
:104108006AF50708ACE607084C06002050060020B0
:1041180074FA070860DD070880FC0708A4FA070896
:10412800C0D4010050870020CCFA0708F4FA070829
:10413800BD39010828FB070848FB070884FB070866
:104148005C1100200D380108D4FB0708A4FB070800
:1041580004FC0708C136010810FC0708D0900908BC
:104168003CFC0708ACFC070808B5044B186818B1F4
:104178000022012127F0CAFE08BD00BF703B0020C5
:1041880008B5044B186818B10022012127F0BEFEBB
:1041980008BD00BF703B00202DE9F0418EB00746F6
:1041A8000E4614461D46002009900A900B900C906C
:1041B8000D900DF11C08079008900490059006904A
:1041C800039001462AF0DCFF8DF824708DF82560F5
:1041D8000A942046FCF756F8ADF82C000C95149B71
:1041E8000D932AF039FB07904FF4FA730693124B9C
:1041F8000493CDF8148002E0039BB3B9BCB104AAC0
:1042080009A90E4B186857F0A7FA04460028F5D1FB
:104218004FF0FF33009303AB0022114610462AF0FB
:10422800E1FC0128E8D00324E8E70324E6E7204678
:104238000EB0BDE8F08100BF494201086C3B002088
:10424800006850B110B582B00024009403230A78A6
:1042580021462AF041FD02B010BD70472DE9F0411A
:1042680086B00023059301F0BBFD01F0B3FD894B37
:10427800186000283DD001F075FD874B40F20B1205
:104288008649874805F0D4F905A9002007F012FFF0
:104298000546002839D04FF400702BF011FE044673
:1042A80000283ED027F0D3FC7E4B1860002844D06D
:1042B8002B467D4A40217D4865F0BEFC00227C49A2
:1042C8004FF400500BF0D0FB00227A494FF4005015
:1042D8000BF0EEFB0025002D40F09780764B03EBAA
:1042E800051359686F4B186827F080FD0135EDB24A
:1042F800F1E705F053F9714B4FF483726749704841
:1043080005F096F905F04AF9FEE705F047F96B4B19
:104318004FF4877261496A4805F08AF905F03EF959
:10432800FEE705F03BF9654B40F211125B49644822
:1043380005F07EF905F032F9FEE705F02FF95F4B3D
:104348004FF48A7255495E4805F072F905F026F96E
:10435800FEE7594A02EB0312526811430133DBB2FC
:1043680055E0B046544F07EB0617B989B86817F0FF
:10437800A1F8F873BB7B834216D0524A6019C5F581
:104388000071142D12DD504B01924FEA08184A4A69
:1043980052F8082000924D4A65F04EFC002807DBD1
:1043A80005440136F6B24BE0494AE7E7494BEBE7EB
:1043B80005F0F4F8414B40F253123849404805F0F3
:1043C80037F905F0EBF8FEE705F0E8F83B4B40F26B
:1043D8005B1232493A4805F02BF905F0DFF8FEE7A1
:1043E80005F0DCF8354B40F25F122C49344805F0F3
:1043F8001FF905F0D3F8FEE72C4B0093364B4FF42A
:10440800B9722649354805F013F900231946002BDF
:104418009FD04FF0FF33009300230122214800680A
:1044280027F024FC0028F0D02D4D0FCD20606160CE
:10443800A260E360286820612B7923750026142583
:10444800002E8ED0274AC5F50071601965F0F4FB7F
:104458000028B9DB0544B5F5007FC1D20294019567
:10446800124E0096204B40F261120C490C4805F0A0
:10447800DFF800952346324601210020FFF78CFE25
:104488000028B9D1194B4FF4B7720449044805F014
:10449800CFF8BAE76C3B002094FD070885FD0708B4
:1044A800ACE60708703B0020CCFD0708743B0020F1
:1044B80089410108714101080000002000DB07085C
:1044C80048DB0708809A08086CFD070800FE070803
:1044D800C8FF070814D4080884FE070860DD070829
:1044E800E8FD070820FE070828FE070858FE070809
:1044F800012804D0022804D028B904487047044889
:104508007047044870470448704700BFB4FE070866
:10451800BCFE0708C4FE07081CC40808F8B5002438
:1045280004B1F8BD0B4D660004EB4402D3002B44E4
:10453800094F22463946188A0BF096FA3319DA00E1
:10454800154422463946288A0BF0B2FA0134E4B2FF
:10455800E6E700BF100000206545010808B54FF4E4
:104568000071024B186827F041FC08BD50870020F5
:1045780030B5A3B00546154B154A802102A865F051
:104588005BFB09E002AB0093124B40F2A712124901
:10459800124805F04DF8ACB100230093104B2A46A1
:1045A80002A9104C206801F0FFFE04460028E9D05B
:1045B80002AB00930C4B40F2A51207490B4805F0DB
:1045C80037F8E8E7204623B030BD00BFB83B0020ED
:1045D800CCFE07081CFF07080CFF0708ACE6070815
:1045E800E1460108B43B0020E0FE070860DD07084B
:1045F80038B5054600240CB1002038BD04EB44034F
:104608002946074A52F83300FBF732FE10B101344D
:10461800E4B2F0E704EB4404014800EBC400ECE723
:104628001000002010B5044601220188406816F0E9
:1046380048FF4FF47A7029F0A7FC002221886068AF
:1046480016F03FFF10BD08B50430FFF7EBFF08BDBB
:1046580008B50430FFF7E6FF08BD08B50430FFF7DA
:10466800E1FF08BD70B582B005460C46FFF7C0FFF4
:1046780098B1064612492046FBF7FAFDB0B1114938
:104688002046FBF7F5FDB0B10F492046FBF7F0FDDA
:1046980078B93046FFF7E1FF0BE000950B4B4FF47C
:1046A8009F720B490B4804F0C3FF02E03046FFF746
:1046B800CAFF02B070BD3046FFF7CAFFF9E700BF76
:1046C80044FF07084CFF070854FF07082CFF07089A
:1046D8000CFF0708B8E7070870B5B8B00C460D8995
:1046E8007F2D00D97F252A46616818A865F07DFED0
:1046F80005F1E0030DEB0305002305F8803C25696F
:104708003F2D00D93F252A46E16808A865F06DFECF
:1047180005F1E0030DEB0305002305F8C03C114942
:1047280018A865F02DFD0546C8B107352F21284684
:1047380065F06AFC98B1441B1F2C00D91F2422463F
:104748002946684665F051FE04F1E0030DEB0304C9
:10475800002304F8E03C08A96846FFF783FF38B057
:1047680070BD00BF5CFF070870B50446084D4600E1
:1047780000EB400305EBC303198AD86816F09AFECC
:10478800264405EBC605AB7C181A18BF012070BD7E
:10479800100000202DE9F0418EB007460E46144661
:1047A8001D46002009900A900B900C900D900690E1
:1047B800079008900DF110080490059003900146A9
:1047C8002AF0DEFC8DF824708DF825600A942046C6
:1047D800FBF758FDADF82C000C95149B0D932AF0AF
:1047E8003BF804904FF4FA730893114B0693CDF8F5
:1047F8001C8003E0039B03B10324ACB106AA09A9FA
:104808000C4B186856F0A8FF04460028F5D14FF065
:10481800FF33009303AB0022114610462AF0E2F959
:104828000128E7D00324E8E720460EB0BDE8F08170
:10483800B5480108B43B0020F0B5ABB000240CB17A
:104848002BB0F0BD2046FFF78FFF144D660004EB38
:10485800440305EBC30210750AAF55F833300093D3
:104868000F4B104A8021384665F0E6F9264405EBDF
:10487800C605287DFFF73CFE034602AD0A4A202103
:10488800284665F0D9F900902B463A46012108469A
:10489800FFF780FF0134E4B2D1E700BF1000002029
:1048A800B83B0020BCDD0708A4260808006850B102
:1048B80010B582B00024009403230A7821462AF018
:1048C8000BFA02B010BD704770B584B001F088FAD9
:1048D80001F080FA314B1860002840D001F042FA0C
:1048E8000020039003A907F0E5FB0546002842D005
:1048F800039E2B4C32460146204665F076FD002388
:10490800A35528462BF0C2FB0094264B4FF4FD72AA
:104918002549264804F08CFEFFF700FE0120FFF72A
:1049280027FEFFF789FF4FF0FF3300930023012292
:104938004FF400711E48006827F098F90024002CF5
:10494800F1D12046FFF710FF04EB4402194B03EBAB
:10495800C2031B7D83421AD10134E4B2EFE704F0AD
:104968001DFE154B4FF4F7720F49144804F060FE12
:1049780004F014FEFEE704F011FE0F4B4FF4FA7238
:1049880009490E4804F054FE04F008FEFEE7094BFE
:1049980003EBC2031875FFF74FFFDDE7B43B0020B8
:1049A800B83B002064FF07080CFF0708ACE60708BF
:1049B800508700201000002000DB070848DB0708AC
:1049C80070B582B006460D460CE02846FBF75AFC47
:1049D800019500900F4B40F2A9120F490F4804F0BF
:1049E80027FEA4B1002300930D4B324629460D4CF7
:1049F800206801F0D9FC04460028E6D000900A4B54
:104A080040F2A5120449094804F012FEE9E72046DD
:104A180002B070BDC4F907089AFF0708ACE607089A
:104A2800BD4C0108783C002094F9070860DD0708B0
:104A38002DE9F0418EB007460E4614461D4600206B
:104A480009900A900B900C900D900DF11C0807909E
:104A58000890049005900690039001462AF090FB78
:104A68008DF824708DF825600A942046FBF70AFC1F
:104A7800ADF82C000C95149B0D9329F0EDFE0790D2
:104A88004FF4FA730693124B0493CDF8148002E0A6
:104A9800039BB3B9BCB104AA09A90E4B186856F018
:104AA8005BFE04460028F5D14FF0FF33009303ABBB
:104AB8000022114610462AF095F80128E8D0032470
:104AC800E8E70324E6E720460EB0BDE8F08100BF22
:104AD800E14A0108783C0020006850B110B582B066
:104AE8000024009403230A7821462AF0F5F802B03E
:104AF80010BD70472DE9F04397B00746002615967C
:104B08001496344611E02A465F49404665F0ADFAEE
:104B180000283AD15D4B03EB04131B7B5C4A52F827
:104B28002320002A50D00134E4B2012C59D8A146E0
:104B38002301564AD358574A402104A865F07CF807
:104B48000546431E3E2BEED84FF00008CDF85480A2
:104B5800CDF850803846FBF795FB0146CDF8088024
:104B680014AB019315AB00932B4604AA384652F0B8
:104B780081FF0128D7D1DDF85480B8F1000FD2D0D9
:104B8800149D002DCFD0022DBDD0032DCBD12A46A8
:104B98004149404665F069FA0028C4D13B4B03EB14
:104BA80009131B7B3A4A52F82350012DBBD100212F
:104BB80042F82310354B03EB0913DA7A1989586840
:104BC80016F07FFC2E46AEE70126314A42F82360F4
:104BD8002E4B03EB04139A7A1989586816F071FC66
:104BE800A1E73EB92D493846FBF742FBA8B9284B47
:104BF8001B6823B1012E0AD017B0BDE8F083244BFF
:104C080001221A6000224021254816F05AFC012191
:104C1800244B186827F0EAF8EEE723493846FBF7F3
:104C280027FB60B91A4B1B68012BE3D1184B0022F4
:104C38001A60012240211A4816F043FCE7E71B4995
:104C48003846FBF715FB60B9114B5B68002BD1D1D7
:104C58000F4B01225A6000228021114816F031FCC6
:104C6800D5E713493846FBF703FB0028C2D1084BA8
:104C78005B68012BBED1064B00225A6001228021BD
:104C8800074816F01EFCC2E7C8FF0708009109088C
:104C9800883C0020A8FF0708809A0808C0FF07087A
:104CA800001C02427C3C0020CCFF0708D8FF070804
:104CB800E8FF070830B583B00C460A697F2A16D981
:104CC8000F4D8022C968284665F08FFB002385F8C0
:104CD8007F300B4C00940B4B40F28F120A490B4863
:104CE80004F0A6FC2046FFF705FF03B030BD044DD5
:104CF800C968284665F079FB23690022EA54E8E789
:104D0800F83B0020F8FF07089AFF0708ACE60708F9
:104D180070B586B00023059301F062F801F05AF8E7
:104D2800694B1860002831D001F01CF8674B40F23D
:104D38000E226749674804F07BFC05A9002007F0AC
:104D4800B9F9044670B380202BF0BAF8054600285C
:104D580034D02346604A4021604864F06DFF234602
:104D68005F4A40215F4864F067FF26F070FF5E4BA2
:104D7800186078B35B490120FFF722FE002835D17F
:104D88000121594B186827F031F874E004F006FC4B
:104D9800564B40F20A224E49554804F049FC04F0AB
:104DA800FDFBFEE704F0FAFB504B40F211224849A4
:104DB8004F4804F03DFC04F0F1FBFEE704F0EEFB85
:104DC8004A4B4FF405724249494804F031FC04F05B
:104DD800E5FBFEE704F0E2FB444B40F21B223C49B2
:104DE800434804F025FC04F0D9FBFEE73D4B009353
:104DF800404B40F2222236493F4804F019FC00207B
:104E080028F0B2FDBCE73D4A52F823103C4A42F86C
:104E180023100133DBB2012BF5D9384B1B68002B6B
:104E280038D0384B354A5268002A35D0354A009276
:104E3800354A8021284664F0FFFE04467F282DD895
:104E480002950190254E0096304B40F246222049AB
:104E5800204804F0EDFB00942B4632460121084619
:104E6800FFF7E6FD30BB0096294B40F25322184964
:104E7800184804F0DDFB4FF0FF33009301231A4676
:104E880019461948006826F0F1FE10F0010FF2D01B
:104E98000023C0E71F4BC5E71E4AC8E704F07EFBA6
:104EA800124B4FF411720A49114804F0C1FB04F087
:104EB80075FBFEE7094B0093174B4FF41672044934
:104EC8000D4804F0B5FBD6E7783C00202000080820
:104ED8009AFF0708ACE6070854E00708903C002052
:104EE80044E00708D03C00207C3C002000DB070899
:104EF80048DB07086800080860DD0708883C0020D0
:104F0800803C0020C8FF07088C000808E800080853
:104F180010010808809A0808340108080F4B1B681C
:104F280003B1704710B582B000220421202027F079
:104F380093F90A4B186000240BE0094B03EB0413A8
:104F4800019300231A4601A90448006827F0DCF9F8
:104F580001341F2CF1D902B010BD00BF103D002054
:104F6800143D002010B582B000230193174B1C6834
:104F78002CB3C30E4101091A63F100039B0043EAF5
:104F880091738900091843F100034FEAC30C4FF4E9
:104F98007A720023C8004CEA5171FBF75FFE0246A3
:104FA80001A9204627F098FB10B1019802B010BD66
:104FB800074B5A220749084804F03AFBF5E7074B24
:104FC8005F220449044804F033FBEEE7103D00205B
:104FD800540108088701080860DD0708A0010808CF
:104FE80000B585B00390134B1868A0B1039B124A13
:104FF800934203D302F50072934214D900930F4BE6
:1050080073220F490F4804F013FB0020003818BF23
:10501800012005B000BD0C4B6D220949094804F078
:1050280007FB0020F2E700231A4603A927F06CF9D2
:10503800ECE700BF103D0020143D0020C001080827
:105048008701080860DD0708A001080838B538B1ED
:10505800054689B1132A1BD8132B25D8002030E028
:1050680004F09CFA214B40F24F122149214804F0E8
:10507800DFFA04F093FAFEE704F090FA1B4B4FF4C2
:10508800A8721B491B4804F0D3FA04F087FAFEE71C
:1050980004F084FA154B40F251121549154804F0F2
:1050A800C7FA04F07BFAFEE704F078FA0F4B4FF4E6
:1050B800A9720F490F4804F0BBFA04F06FFAFEE733
:1050C8000130132810D805EB001E02EB420C01EB4F
:1050D8008C0CDEF80C406445F2D103EB430401EB81
:1050E8008404CEF80C40EBE738BD00BF00DB0708AE
:1050F8000F02080848DB070810B5C4688C4201D0C5
:10510800002010BD4168994201D00020F9E70368EA
:10511800934201D00020F4E7846829F09DFB844283
:1051280001D00020EDE70120EBE7000038B5B0B171
:10513800044629F091FB0546D4F8A40227F0C4F8E8
:10514800854206D0224B40F2EA222249224804F046
:105158006FFA0023C4F89432C4F898321EE004F0C1
:105168001DFA1E4B40F2E9221A491B4804F060FA66
:1051780004F014FAFEE7E218802182F8F01003F137
:10518800400204EB82020021516003EB43029000CD
:1051980004EB82025160215411810133132BEAD9A7
:1051A80000230DE003F1150104EB011100228A60D0
:1051B8004A6004EB0311C1F86021C1F85C21013396
:1051C800132BEFD90023C4F8A032C4F89C3238BDA1
:1051D800BCF207080F02080848DB070800DB0708CD
:1051E8002DE9F84338B188469146064679B100243E
:1051F800274625463FE004F0D1F9294B4FF4B37216
:105208002849294804F014FA04F0C8F9FEE704F024
:10521800C5F9234B40F267122249234804F008FAE3
:1052280004F0BCF9FEE71A8972BB132D2CD8A542ED
:1052380000D8651C132D1DD805EB45024FEA820ED8
:1052480006EB820CBCF808200AB90135F2E79CE8A5
:10525800070083E80700002346F80E30CCF8043036
:10526800CCF8083023462A4631464046FFF7EEFE82
:10527800013701350134132C0DD804EB440306EB38
:10528800830358680028CED00028F3D01B89002B50
:10529800F0D00137EEE7C9F80070BDE8F88300BF29
:1052A80000DB07080F02080848DB07082DE9F84368
:1052B80038B18946054681B14FF0000C6746E6468D
:1052C80049E004F06BF92B4B4FF4D1722A492B4873
:1052D80004F0AEF904F062F9FEE704F05FF9254B3B
:1052E80040F2A3122449254804F0A2F904F056F923
:1052F800FEE7BEF1130F36D8E64501D80CF1010ED2
:10530800BEF1130F25D84FEA0E1805EB0E16F368F9
:1053180013B90EF1010EF3E7E6450DD996E80F0033
:1053280084E80F00002345F808307360B360F36029
:1053380001370EF1010E0CE004F030F90D4B40F28C
:10534800B5120D490D4804F073F904F027F9FEE78A
:1053580001370CF1010CBCF1130F07D805EB0C1445
:10536800E368002BC5D0002BF2D1F2E7C9F8007032
:10537800BDE8F88300DB07080F02080848DB0708C8
:1053880060B100B583B00023009301234FF00042C1
:105398000321406829F0A0FC03B000BD704700005D
:1053A80000B583B071B158B10A784B6813B11B7856
:1053B80002EB0362002300930323194629F08CFCB7
:1053C80003B000BD04F0EAF8044B40F2BA520449B5
:1053D800044804F02DF904F0E1F8FEE700DB0708C3
:1053E8000F02080848DB070800B583B049B130B19F
:1053F8000023009303230A78194629F06DFC03B0B3
:1054080000BD04F0CBF8054B40F2B66204490548EC
:1054180004F00EF904F0C2F8FEE700BF00DB07084D
:105428000F02080848DB070800B585B0844608461F
:10543800114600238DF80F300DF10F030093BCF8CF
:105448000830DCF8042053F063FC20B99DF80F30D5
:1054580013B1012000E0002005B000BD08B528F018
:10546800F5FB024B1B68C01A08BD00BF283F00208F
:1054780030B585B00023039380B30C46054679B355
:10548800D00E53019B1A60F10000800040EA93702F
:105498009B0013EB020C40F10001C9004FF47A7233
:1054A80000234FEACC0041EA5C71FBF7D7FB009080
:1054B80003AB4FF0FF320021032029F093FB034692
:1054C80078B1039B002B02DA0023236009E0002255
:1054D8002146286827F000F9034602E0002300E08F
:1054E8000023181E18BF012005B030BD30B583B0A9
:1054F80058B30C46054651B3D00E53019B1A60F1C0
:105508000000800040EA93709B0013EB020C40F10E
:105518000001C9004FF47A7200234FEACC0041EA37
:105528005C71FBF79BFB024600232146286826F0A6
:10553800EBFE0446686858B10023009301234FF03E
:105548008042032129F0C8FB02E0002400E0002487
:10555800201E18BF012003B030BD000030B583B055
:10556800F0B10446D0F8A4322BB329F075F90546FA
:10557800D4F8A40226F0A8FE854205D0184BFD22D7
:105588001849194804F054F800231A461946D4F863
:10559800A40226F0B9FE0446C0B1204603B030BDCF
:1055A80003F0FCFF114BFB220E490F4804F040F8B2
:1055B80003F0F4FFFEE703F0F1FF0C4BFC2209496E
:1055C800094804F035F803F0E9FFFEE70090084BBE
:1055D80040F207120349074804F02AF8DDE700BF44
:1055E800BCF207080F02080848DB070800DB0708B9
:1055F8002402080860DD07082DE9F04182B0B8B13F
:105608000F46064601B329F027F90446D6F8A40246
:1056180026F05AFE84425ED003F0C0FF324B40F2BF
:105628002B223249324804F003F803F0B7FFFEE7B3
:1056380003F0B4FF2C4B40F229222C492C4803F0EC
:10564800F7FF03F0ABFFFEE703F0A8FF264B40F29D
:105658002A222649264803F0EBFF03F09FFFFEE7C6
:105668000134132C16D806EB0413D3F860314345E4
:10567800F6D106EB0413D3F85C010028F0D028F02B
:10568800F1FA00901B4B40F2432218491A4803F0E4
:10569800CFFFE5E70135D6F89432AB421DD97B68D8
:1056A8005A5D731983F8F0207B685B5D802BF1D11C
:1056B80005EB450806EB8808B8F80830D8F8042048
:1056C800019200930D4B4FF40E7208490C4803F0F9
:1056D800AFFF0024C5E70025DDE73046FFF73EFFB2
:1056E80002B0BDE8F08100BF00DB07080F02080820
:1056F80048DB070880020808B8E7070850020808CE
:1057080060DD070870B586B0C9B106460C46D1F809
:10571800A43203B329F0A0F80546D4F8A40226F071
:10572800D3FD854223D003F039FF274B40F25622A0
:105738002649274803F07CFF03F030FFFEE703F01B
:105748002DFF214B4FF415722049214803F070FFBB
:1057580003F024FFFEE703F021FF1B4B40F2552224
:105768001A491B4803F064FF03F018FFFEE704F52D
:10577800257204F5AA712046FFF732FDD4F8943259
:10578800DBB1144A0392049400220592C4F89C42A7
:10579800C4F8A03203AA04F52771304655F0A0FFDB
:1057A800044670B153F010FB00900B4B40F271228D
:1057B80006490A4803F03CFF03E02046FFF7CEFE07
:1057C8000024204606B070BD00DB07080F02080859
:1057D80048DB070801560108D002080860DD070801
:1057E80030B583B0B8B10446D0F8A432F3B129F08B
:1057F80033F80546D4F8A40226F066FD854220D089
:105808004FF0FF31D4F8A40227F014F80446F8B199
:10581800204603B030BD03F0C1FE114BE12211490F
:10582800114803F005FF03F0B9FEFEE703F0B6FEEA
:105838000B4BE2220B490C4803F0FAFE03F0AEFED4
:10584800FEE70A4BE4220749074803F0F1FED7E7D1
:105858000090074BEF220349064803F0E9FED7E71B
:1058680000DB07080F02080848DB0708BCF2070836
:105878000C03080860DD07082DE9F04182B060B12B
:105888001546D0F80861A6B1FAB13046FFF7A8FF6F
:1058980000284CD00024A04624E003F07FFE2B4BC8
:1058A80040F2A9222A492B4803F0C2FE03F076FEF3
:1058B800FEE703F073FE254B40F2AA22244925484F
:1058C80003F0B6FE03F06AFEFEE703F067FE1F4B27
:1058D80040F2AB221E491F4803F0AAFE03F05EFE09
:1058E800FEE70134132C1CD806EB0413D3F860012F
:1058F8000028F6D02A896968FFF796FD0746002830
:10590800EFD006EB0413D3F85C0128F0ABF904F1EF
:10591800150306EB03135A68294698689047B8465A
:10592800DFE73046FFF71AFEB8F1000F0AD12B89DE
:105938006A6801920093084B40F2D3220449074851
:1059480003F076FE02B0BDE8F08100BF00DB070877
:105958000F02080848DB070834030808B8E70708F7
:1059680010B570B10446012026F09AFDC4F8A402CF
:1059780098B12046FFF734FF2046FFF7D7FB0020F9
:1059880010BD03F00BFE064B40F20B3205490648EA
:1059980003F04EFE03F002FEFEE70220F0E700BF30
:1059A80000DB07080F02080848DB0708F0B585B0D8
:1059B8001F460123039300230293044698B30D4620
:1059C8001646002938D0002A3FD040F21442002160
:1059D80064F0F5FAC4F81061C4F81471C4F82451DD
:1059E800624BC4F81C31624BC4F81831012084F8AA
:1059F800EC033C23A4F8EE334FF0FF33019301A9E5
:105A080006F058FB0546019B013B13F1030F25D80F
:105A1800584964F0B5FB38B3574BC4F8F8334423FE
:105A2800A4F8FC331FE0554B40F246325449554820
:105A380003F0FEFD01252FE0534B40F24B32504955
:105A4800504803F0F5FD01256CE0504B4FF45472BB
:105A58004B494C4803F0ECFD012563E00023C4F8F2
:105A6800F833A4F8FC3315B128462AF00FFB0020C0
:105A7800C4F80004A4F8040402A906F01BFBC4F847
:105A8800F003002846D0029B002B43D0B3F5803F9B
:105A980040D2A4F8F4330025002D43D1002204217C
:105AA800202026F0D9FBC4F83C0100283DD028F07E
:105AB800D3FEC4F84001002D34D104F59E73C4F818
:105AC8002831334BC4F82C31324BC4F83031324BC7
