:020000040801F1
:1000000000000C2029730208591702085B17020828
:100010005D1702085F17020861170208797302086A
:1000200000000000000000000000000005FF0308C1
:100030006317020800000000A9FE03082518020843
:1000400079730208797302087973020879730208D8
:1000500079730208797302087973020879730208C8
:1000600079730208797302087973020879730208B8
:100070007973020865170208797302087973020818
:100080007973020879730208797302087973020898
:100090007973020879730208797302087973020888
:1000A0006F1702087B1702088717020895170208C6
:1000B00000000000A5170208B517020879730208AE
:1000C00079730208C5170208D51702087973020868
:1000D0007973020879730208797302087973020848
:1000E0007973020879730208797302087973020838
:1000F0007973020879730208797302087973020828
:100100007973020879730208797302087973020817
:100110007973020879730208797302087973020807
:10012000797302087973020879730208E5170208E7
:10013000F517020805180208797302087973020896
:1001400079730208797302087973020879730208D7
:1001500079730208797302087973020879730208C7
:1001600079730208797302087973020879730208B7
:1001700079730208797302087973020879730208A7
:100180007973020879730208797302087973020897
:100190007973020879730208797302087973020887
:1001A0007973020879730208797302087973020877
:1001B000797302080000000015180208797302081C
:1001C000797302080000000079730208797302084D
:1001D0007973020879730208797302087973020847
:1001E0007973020879730208797302087973020837
:1001F0000000000000000000797302087973020813
:100200007973020879730208797302087973020816
:100210007973020879730208797302087973020806
:1002200079730208797302087973020879730208F6
:080230007973020879730208DA
:1002380010B5054C237833B9044B13B10448AFF318
:1002480000800123237010BD00060020000000007C
:10025800A4D5070808B5034B1BB103490348AFF3FE
:10026800008008BD0000000004060020A4D507088F
:1002780010F8012B11F8013B012A28BF9A42F7D048
:10028800D01A7047034613F8012B002AFBD1181A1D
:100298000138704781F0004102E000BF83F000435D
:1002A80030B54FEA41044FEA430594EA050F08BF09
:1002B80090EA020F1FBF54EA000C55EA020C7FEACD
:1002C800645C7FEA655C00F0E2804FEA5454D4EB4A
:1002D8005555B8BF6D420CDD2C4480EA020281EA14
:1002E800030382EA000083EA010180EA020281EA4C
:1002F8000303362D88BF30BD11F0004F4FEA01319E
:100308004FF4801C4CEA113102D0404261EB4101AC
:1003180013F0004F4FEA03334CEA133302D0524232
:1003280063EB430394EA050F00F0A780A4F10104EE
:10033800D5F1200E0DDB02FA0EFC22FA05F2801828
:1003480041F1000103FA0EF2801843FA05F359410E
:100358000EE0A5F120050EF1200E012A03FA0EFC8D
:1003680028BF4CF0020C43FA05F3C01851EBE371B7
:1003780001F0004507D54FF0000EDCF1000C7EEBD4
:1003880000006EEB0101B1F5801F1BD3B1F5001F12
:100398000CD349085FEA30004FEA3C0C04F1010431
:1003A8004FEA445212F5800F80F09A80BCF1004F5A
:1003B80008BF5FEA500C50F1000041EB045141EADC
:1003C800050130BD5FEA4C0C404141EB0101013CA5
:1003D80028BFB1F5801FE9D291F0000F04BF014694
:1003E8000020B1FA81F308BF2033A3F10B03B3F166
:1003F80020020CDA0C3208DD02F1140CC2F10C02F6
:1004080001FA0CF021FA02F10CE002F11402D8BF53
:10041800C2F1200C01FA02F120FA0CFCDCBF41EA1F
:100428000C019040E41AA2BF01EB0451294330BDEE
:100438006FEA04041F3C1CDA0C340EDC04F11404CB
:10044800C4F1200220FA04F001FA02F340EA0300A2
:1004580021FA04F345EA030130BDC4F10C04C4F1E8
:10046800200220FA02F001FA04F340EA03002946C8
:1004780030BD21FA04F0294630BD94F0000F83F412
:10048800801306BF81F480110134013D4EE77FEAF5
:10049800645C18BF7FEA655C29D094EA050F08BF41
:1004A80090EA020F05D054EA000C04BF1946104622
:1004B80030BD91EA030F1EBF0021002030BD5FEA66
:1004C800545C05D14000494128BF41F0004130BD8E
:1004D80014F580043CBF01F5801130BD01F00045E2
:1004E80045F0FE4141F470014FF0000030BD7FEA55
:1004F800645C1ABF194610467FEA655C1CBF0B4650
:10050800024650EA013406BF52EA033591EA030F66
:1005180041F4002130BD00BF90F0000F04BF00215E
:10052800704730B54FF4806404F132044FF0000591
:100538004FF0000150E700BF90F0000F04BF00210A
:10054800704730B54FF4806404F1320410F0004570
:1005580048BF40424FF000013EE700BF42004FEA6B
:10056800E2014FEA31014FEA02701FBF12F07F43E8
:1005780093F07F4F81F06051704732F07F4208BF9F
:10058800704793F07F4F04BF41F40021704730B5A6
:100598004FF4607401F0004521F000411CE700BFF2
:1005A80050EA010208BF704730B54FF000050AE075
:1005B80050EA010208BF704730B511F0004502D576
:1005C800404261EB41014FF4806404F132045FEA78
:1005D800915C3FF4D8AE4FF003025FEADC0C18BF21
:1005E80003325FEADC0C18BF033202EBDC02C2F113
:1005F800200300FA03FC20FA02F001FA03FE40EAA5
:100608000E0021FA02F11444BDE600BF70B54FF0A8
:10061800FF0C4CF4E06C1CEA11541DBF1CEA135586
:1006280094EA0C0F95EA0C0F00F0DEF82C4481EAEE
:10063800030621EA4C5123EA4C5350EA013518BF0E
:1006480052EA033541F4801143F4801338D0A0FBFB
:1006580002CE4FF00005E1FB02E506F00042E0FBA8
:1006680003E54FF00006E1FB03569CF0000F18BFAE
:100678004EF0010EA4F1FF04B6F5007F64F5407456
:1006880004D25FEA4E0E6D4146EB060642EAC621E9
:1006980041EA55514FEAC52040EA5E504FEACE2E56
:1006A800B4F1FD0C88BFBCF5E06F1ED8BEF1004F59
:1006B80008BF5FEA500E50F1000041EB045170BDD5
:1006C80006F0004646EA010140EA020081EA030119
:1006D800B4EB5C04C2BFD4EB0C0541EA045170BD15
:1006E80041F480114FF0000E013C00F3AB8014F18F
:1006F800360FDEBF002001F0004170BDC4F10004D8
:10070800203C35DA0C341BDC04F11404C4F1200558
:1007180000FA05F320FA04F001FA05F240EA0200B3
:1007280001F0004221F0004110EBD37021FA04F6E9
:1007380042EB06015EEA430E08BF20EAD37070BDA3
:10074800C4F10C04C4F1200500FA04F320FA05F002
:1007580001FA04F240EA020001F0004110EBD37004
:1007680041F100015EEA430E08BF20EAD37070BD74
:10077800C4F1200500FA05F24EEA020E20FA04F34D
:1007880001FA05F243EA020321FA04F001F00041FC
:1007980021FA04F220EA020000EBD3705EEA430E6D
:1007A80008BF20EAD37070BD94F0000F0FD101F09C
:1007B8000046400041EB010111F4801F08BF013CD5
:1007C800F7D041EA060195F0000F18BF704703F013
:1007D8000046520043EB030313F4801F08BF013D9A
:1007E800F7D043EA0603704794EA0C0F0CEA135556
:1007F80018BF95EA0C0F0CD050EA410618BF52EA10
:100808004306D1D181EA030101F000414FF0000015
:1008180070BD50EA410606BF1046194652EA430623
:1008280019D094EA0C0F02D150EA013613D195EA97
:100838000C0F05D152EA03361CBF104619460AD1DF
:1008480081EA030101F0004141F0FE4141F47001E9
:100858004FF0000070BD41F0FE4141F4780170BDD9
:1008680070B54FF0FF0C4CF4E06C1CEA11541DBF3E
:100878001CEA135594EA0C0F95EA0C0F00F0A7F840
:10088800A4EB050481EA030E52EA03354FEA01316D
:1008980000F088804FEA03334FF0805545EA131380
:1008A80043EA12634FEA022245EA111545EA106548
:1008B8004FEA00260EF000419D4208BF964244F1DF
:1008C800FD0404F5407402D25B084FEA3202B61AFE
:1008D80065EB03055B084FEA32024FF480104FF4D2
:1008E800002CB6EB020E75EB030E22BFB61A754646
:1008F80040EA0C005B084FEA3202B6EB020E75EBD9
:10090800030E22BFB61A754640EA5C005B084FEA40
:100918003202B6EB020E75EB030E22BFB61A75460D
:1009280040EA9C005B084FEA3202B6EB020E75EB18
:10093800030E22BFB61A754640EADC0055EA060ED9
:1009480018D04FEA051545EA16754FEA06164FEA1C
:10095800C30343EA52734FEAC2025FEA1C1CC0D1C8
:1009680011F4801F0BD141EA00014FF000004FF055
:10097800004CB6E711F4801F04BF01430020B4F116
:10098800FD0C88BFBCF5E06F3FF6AFAEB5EB030CCE
:1009980004BFB6EB020C5FEA500C50F1000041EBCB
:1009A800045170BD0EF0004E4EEA113114EB5C0498
:1009B800C2BFD4EB0C0541EA045170BD41F480116B
:1009C8004FF0000E013C90E645EA060E8DE60CEA73
:1009D800135594EA0C0F08BF95EA0C0F3FF43BAF90
:1009E80094EA0C0F0AD150EA01347FF434AF95EA47
:1009F8000C0F7FF425AF104619462CE795EA0C0F2B
:100A080006D152EA03353FF4FDAE1046194622E7F7
:100A180050EA410618BF52EA43067FF4C5AE50EAD1
:100A280041047FF40DAF52EA43057FF4EBAE12E7C1
:100A38004FF0FF3C06E000BF4FF0010C02E000BFA2
:100A48004FF0010C4DF804CD4FEA410C7FEA6C5C85
:100A58004FEA430C18BF7FEA6C5C1BD001B050EA28
:100A6800410C0CBF52EA430C91EA030F02BF90EA13
:100A7800020F0020704710F1000F91EA030F58BFD2
:100A8800994208BF90422CBFD8176FEAE37040F034
:100A9800010070474FEA410C7FEA6C5C02D150EAD2
:100AA800013C07D14FEA430C7FEA6C5CD6D152EA8D
:100AB800033CD3D05DF8040B704700BF8446104652
:100AC80062468C461946634600E000BF01B5FFF751
:100AD800B7FF002848BF10F1000F01BD4DF808ED21
:100AE800FFF7F4FF0CBF012000205DF808FB00BFF2
:100AF8004DF808EDFFF7EAFF34BF012000205DF84C
:100B080008FB00BF4DF808EDFFF7E0FF94BF012098
:100B180000205DF808FB00BF4DF808EDFFF7CEFF99
:100B280094BF012000205DF808FB00BF4DF808EDD8
:100B3800FFF7C4FF34BF012000205DF808FB00BFA9
:100B48004FEA410C7FEA6C5C02D150EA013C0AD1C1
:100B58004FEA430C7FEA6C5C02D152EA033C02D1B3
:100B68004FF0000070474FF0010070474FEA410214
:100B780012F5001215D211D56FF47873B3EB6252E7
:100B880012D94FEAC12343F0004343EA505311F00E
:100B9800004F23FA02F018BF404270474FF00000A0
:100BA800704750EA013005D111F0004008BF6FF0DE
:100BB800004070474FF00000704700BF4FEA410205
:100BC800B2F1E04324BFB3F5001CDCF1FE5C0DD9A3
:100BD80001F0004C4FEAC0024CEA5070B2F1004FED
:100BE80040EB830008BF20F00100704711F0804FF0
:100BF80021D113F13872BCBF01F00040704741F4B5
:100C080080114FEA5252C2F11802C2F1200C10FAB8
:100C18000CF320FA02F018BF40F001004FEAC1239C
:100C28004FEAD32303FA0CFC40EA0C0023FA02F340
:100C38004FEA4303CCE77FEA625307D150EA013316
:100C48001EBF4FF0FE4040F44000704701F00040E6
:100C580040F0FE4040F40000704700BF53B94AB965
:100C6800002908BF00281CBF4FF0FF314FF0FF30AC
:100C780000F0C6B9ADF1080C6DE904CE00F01AF821
:100C8800DDF804E0DDE9022304B07047430803F00F
:100C98005533C01A830800F0333003F03333184457
:100CA80000EB101000F00F3000EB002000EB0040CC
:100CB800000E70472DE9F04F8C46099E04460F46FA
:100CC800002B48D18A4215465ED9B2FA82F33BB16D
:100CD800C3F120029F409D409C4020FA02F2174336
:100CE8004FEA154E1FFA85FC220CB7FBFEF10EFBEE
:100CF800117701FB0CF042EA0742904207D9AA1883
:100D080001F1FF3702D2904200F258813946121A97
:100D1800A4B2B2FBFEF00EFB102200FB0CFC44EA6E
:100D28000244A4450BD92C1900F1FF322CBF01272E
:100D38000027A44502D9002F00F04381104640EA5D
:100D48000140A4EB0C0400211EB1DC400023C6E9DD
:100D58000043BDE8F08F8B4206D90EB1C6E9000109
:100D680000210846BDE8F08FB3FA83F1002951D17C
:100D78006345C0F01681824240F213810846002E76
:100D8800E7D0C6E90047E4E7002A00F0AF80B2FAEE
:100D980082F3002B40F0C2808A1A4FEA154EAFB298
:100DA8000121200CB2FBFEFC0EFB1C2240EA024291
:100DB80007FB0CF090420ED9AA180CF1FF382CBF93
:100DC8004FF001094FF00009904203D9B9F1000F23
:100DD80000F0F080C446121AA4B2B2FBFEF00EFB7B
:100DE800102200FB07F744EA0244A7420ED92C1947
:100DF80000F1FF322CBF4FF0010E4FF0000EA7425A
:100E080003D9BEF1000F00F0D2801046E41B40EA7F
:100E18000C4099E7C1F120058B400CFA01F400FA67
:100E280001F922FA05F72CFA05FC8A401F4320FA3B
:100E380005F3380C23431FFA87FE1C0CBCFBF0F8A3
:100E480000FB18CC44EA0C4408FB0EFCA4450ED960
:100E58003C1908F1FF3A2CBF4FF0010B4FF0000B83
:100E6800A44503D9BBF1000F00F0B880D046A4EB2D
:100E78000C041FFA83FCB4FBF0F300FB134403FBE0
:100E88000EFE4CEA0444A6450ED93C1903F1FF3086
:100E98002CBF4FF0010C4FF0000CA64503D9BCF154
:100EA800000F00F09F80034643EA0840A4EB0E04BD
:100EB800A0FB02EC64457346E04602D307D1F14536
:100EC80005D2BEEB02036CEB070C0138E0465EB1BD
:100ED800B9EB030264EB080404FA05F522FA01F3FE
:100EE800CC401D43C6E90054002132E742082F4692
:100EF8004B08AC4642EAC172AE46C407110C92B226
:100F080041EA034142EA0142B1FBF5F1B3FBF5F0D6
:100F18001F23A2EB0C0241EA004142E79D40C3F1C6
:100F2800200299409C402CFA02FC4FEA154E20FA08
:100F380002F2AFB2BCFBFEF80A430EFB18CC110C50
:100F480041EA0C4108FB07FC8C4550D9691808F1A7
:100F5800FF302CBF4FF001094FF000098C4502D932
:100F6800B9F1000F30D0A1EB0C01B1FBFEF808FB82
:100F780007FC0EFB181192B242EA0142624534D2D4
:100F8800AA1808F1FF312CBF4FF001094FF00009F2
:100F98006245BED2B9F1000FBBD1A8F102012A44C3
:100FA800B7E7841A6CEB030201201746E7E62C44E6
:100FB80002382BE7ACF1020C2A440CE702392A4428
:100FC800A5E62C440238BAE6A5EB0C0CA8F1020001
:100FD8006144B1FBFEF808FB07FCCAE7A8F1020868
:100FE8003C4444E7023B3C445EE7414691E7A1EBC1
:100FF8000C014046B1FBFEF808FB07FCB9E700BF4F
:10100800704700BFF0B589B088B10C460546C9B134
:101018002E4B1B68002B57D108F01AFB2C4B35229E
:101028002C492D4808F05EFB08F012FBFEE708F09B
:101038000FFB274B33222749274808F053FB08F0BA
:1010480007FBFEE708F004FB214B34222149224824
:1010580008F048FB08F0FCFAFEE7204B53F836701E
:10106800019700951E4B1F4A80211848006868F0B8
:1010780087FE07951C4B06930595049503970295E3
:10108800019700953B46194A4FF48061204668F065
:1010980077FEB0F5806F0FD2009023460B4A126896
:1010A8000121002000F0EAFD0A202DF011F8013698
:1010B800002ED2DD09B0F0BD00970D4B6E22054918
:1010C8000C4808F00FFBEFE70026F1E728060020A0
:1010D80048DC070878DC070890DC0708C89009088E
:1010E80098DC0708A8DC07087CDE0708C8DC0708C6
:1010F8008CDE0708A8DE07082DE9F04788B098B10C
:101108000E460746D9B1524B1B681BB380202EF000
:101118007BFF814680202EF077FF8246B9F1000FD1
:1011280023D068B3002468E008F092FA494B4A22B9
:1011380049494A4808F0D6FA08F08AFAFEE708F062
:1011480087FA444B4B224449444808F0CBFA08F04C
:101158007FFAFEE708F07CFA3E4B4C223E493F48B6
:1011680008F0C0FA08F074FAFEE708F071FA394B93
:1011780051223949394808F0B5FA08F069FAFEE70A
:1011880008F066FA334B52223349344808F0AAFA79
:1011980008F05EFAFEE7CDF800803B46304A802131
:1011A800484668F0EDFDCDF800803B462D4A802189
:1011B800504668F0E5FD07972B4B06930597049773
:1011C800CDF80CA0CDF80890CDF8048000974346E0
:1011D800264A4FF48061304668F0D2FDB0F5806F42
:1011E80024D2009033461A4A12680121002000F0E8
:1011F80045FD0A202CF06CFF0134022C1FDC1C4D2D
:1012080055F83480CDF8048000971A4B1A4A80218B
:101218000F48006868F0B4FD05EBC4056B68012B46
:10122800B9D00B4B186800F0A3FDE2E7CDF80080B9
:10123800124B9E220849124808F054FAD9E748464A
:101248002EF0C8FF50462EF0C5FF08B0BDE8F08765
:101258002806002048DC0708D4DE070890DC0708C9
:10126800F0DE070804DF07087CDE070818DF070838
:10127800D0900908E8DE0708A8DC070808E1070895
:10128800A8DE07082DE9F04F9DB098B10C46074637
:10129800D9B15A4B1B681BB380202EF0B5FE80468F
:1012A80080202EF0B1FE8146B8F1000F23D068B33C
:1012B800002547E008F0CCF9514B332251495248F8
:1012C80008F010FA08F0C4F9FEE708F0C1F94C4B31
:1012D80034224C494C4808F005FA08F0B9F9FEE701
:1012E80008F0B6F9464B35224649474808F0FAF95E
:1012F80008F0AEF9FEE708F0ABF9414B3C22414952
:10130800414808F0EFF908F0A3F9FEE708F0A0F962
:101318003B4B3D223B493C4808F0E4F908F098F97A
:10132800FEE7CDF800A0394B88223649384808F046
:10133800D9F903E0314B186800F01AFD0A202CF0A7
:10134800C7FE0135012D50DC324E56F835A0CDF8D8
:1013580004A00097304B314A80212848006868F083
:101368000FFD06EBC5067368012BE3D13B462C4AFB
:101378008021404668F004FD3B462A4A80214846C1
:1013880068F0FEFC14AE5346274A2021304668F028
:10139800F7FC0DF1300B5346244A2021584668F0DB
:1013A800EFFC0A97224B099308970797CDF818B0D6
:1013B8000596CDF810A0CDF80C90CDF80880CDF8A2
:1013C80004A0009753461B4A4FF48061204668F0FA
:1013D800D7FCB0F5806FA4D200902346074A126864
:1013E8000121002000F04AFCA8E740462EF0F2FE5A
:1013F80048462EF0EFFE1DB0BDE8F08F280600200D
:1014080048DC070870E1070890DC070874E3070860
:10141800A8DE0708E890090884E10708A8DC07089F
:101428008CE107089CE10708ACE10708B4E107086C
:101438007CDE0708BCE10708012804D0022804D094
:1014480028B904487047044870470448704704485E
:10145800704700BFA4E30708ACE30708B8E3070830
:1014680084C5080870B590B0002843D00D460446DE
:1014780000294AD0334B1B68002B51D00BAE0023F8
:101488000B930C930D930E938DF83C302E4B9A785A
:10149800198801910092DB782C4A1121304668F0B6
:1014A8006FFC00942A4B2B4A80212648006868F07C
:1014B80067FC08960794284B0693059404940394B4
:1014C8000294019400942346244A4FF480612846EC
:1014D80068F056FCB0F5806F2DD200902B46194A63
:1014E80012680121002000F0C9FB0A202CF0F0FD51
:1014F80010B070BD08F0ACF8194B2E2219491A48E3
:1015080008F0F0F808F0A4F8FEE708F0A1F8144B8A
:101518002F221449144808F0E5F808F099F8FEE776
:1015280008F096F80E4B30220E490F4808F0DAF80A
:1015380008F08EF8FEE70D4B72220A490C4808F0B5
:10154800D1F8D2E7280600200C9509081CE4070802
:10155800F4E30708FCE307087CDE070828E407082B
:1015680048DC0708E0E3070890DC0708C4E607083A
:10157800A8DE070870B5B6B006460C461D461346E9
:10158800184A402106A868F0FBFB3F2803D901242C
:10159800204636B070BD2846FFF74EFFC6F3074316
:1015A800B2B2210EC4F30745A4B205900494039582
:1015B800029101920093330E0B4A802116A868F01D
:1015C800DFFB7F2801D90124E2E7009016AB06AAC9
:1015D8000121084600F052FB04460A202CF078FD51
:1015E800D6E700BFE8E60708F4E6070870B5C6B016
:1015F80006460C461D461346164A402106A868F0C2
:10160800BFFB3F2803D90124204646B070BDC6F36E
:101618000743B2B2210EC4F30740A4B2059504945F
:101628000390029101920093330E0B4AC02116A831
:1016380068F0A6FBBF2801D90124E5E7009016ABA6
:1016480006AA0121084600F019FB04460A202CF0DE
:101658003FFDD9E7E8E6070844E7070881B370B516
:1016680088B00C46CD680DB10B690BB908B070BDD8
:1016780020220021684668F046FD24691F2C28BFF7
:101688001F2422462946684668F053FF04F12003C8
:101698000DEB0304002304F8203C0A496846FEF7D2
:1016A800E7FD0028E2D1084B4FF483720749084848
:1016B80008F018F80221074B18682AF03BFCD5E718
:1016C800704700BFC8E70708D8E70708E0E307083E
:1016D800F4E7070824060020F0B585B006462A4B33
:1016E80040F2131229492A4807F0FCFF4FF0FF3552
:1016F80000240EE0274B4FF48E722449244807F04B
:10170800F1FF00202CF0D4F90BE01C46C8202CF087
:10171800DFFC0021204B18682AF0DCFB10F00C0FCE
:10172800E8D11E4B18680028F0D00022039203A9C4
:101738002BF076F80128E9D12CB9039B03B923468D
:10174800002BE2D01C46039BA342DFD8642703FB8F
:1017580007F7B7FBF4F7C7F16407BD42D6D001938A
:1017680000970F4B4FF49B720849094807F0BAFFDE
:101778000C4B1968039B00933B4632460A480068A5
:10178800FFF734FF3D46C1E7F8E70708E0E307083D
:10179800F4E7070814E8070824060020E8A7002053
:1017A80030E807081C0600200C95090800293DD0E0
:1017B80070B58AB00C46CD680DB10B690BB90AB08B
:1017C80070BD02AE20220021304668F09CFC2469DE
:1017D8001F2C28BF1F2422462946304668F0A9FE40
:1017E80004F128030DEB0304002304F8203C1049FE
:1017F8003046FEF73DFD20B10E49304668F064FDE5
:1018080058B10D4B23220D490D4807F06BFF1021ED
:101818000C4B18682AF08EFBD1E702AB00930A4BF9
:1018280028220649094807F05DFFC8E7704700BF4E
:101838005CE8070864E8070870E80708C8E80708CC
:10184800F4E7070824060020DCE8070800E9070891
:1018580030B587B000282BD00C460546002932D079
:10186800274B1868002839D00095264B264A802136
:1018780068F086FA05950495244B03930295019523
:1018880000952B46224A4FF48061204668F078FA8A
:10189800B0F5806F2DD200902346194A12680121B5
:1018A800002000F0EBF90A202CF012FC07B030BD44
:1018B80007F0CEFE174B2E221749184807F012FFE3
:1018C80007F0C6FEFEE707F0C3FE124B2F221249AF
:1018D800124807F007FF07F0BBFEFEE707F0B8FE67
:1018E8000C4B30220C490D4807F0FCFE07F0B0FE07
:1018F800FEE70B4B5F2208490A4807F0F3FED2E7E0
:101908002806002004E907080CE907087CDE070818
:1019180030E9070848DC0708C8E8070890DC07082A
:10192800A0EA0708A8DE07082DE9F0418AB038B117
:101938000F46054679B1394B1B68BBB1002446E018
:1019480007F086FE364B61223649374807F0CAFE53
:1019580007F07EFEFEE707F07BFE314B622231493D
:10196800314807F0BFFE07F073FEFEE707F070FE90
:101978002B4B63222B492C4807F0B4FE07F068FE76
:10198800FEE7D8F80830D8F80C10099527480890D1
:10199800079506950591049303960295019600957F
:1019A800D8F80430224A4FF48061384668F0E8F9E4
:1019B800B0F5806F26D200903B46184A1268012184
:1019C800002000F05BF90A202CF082FB0134052C82
:1019D80020DC184A04EB840C02EB8C0852F82C60CB
:1019E80001960095144B154A80210C48006868F050
:1019F800C7F9D8F81030012BC3D0084B186800F08D
:101A0800B7F9E0E700940E4B9B2206490D4807F012
:101A180069FED8E70AB0BDE8F08100BF28060020BB
:101A280048DC0708DCEA070890DC07087CDE0708C2
:101A3800FCEA0708C0910908F4EA0708A8DC0708C7
:101A48007CEC0708A8DE070870B584B000B306462A
:101A58001B4B1B683BB30024082C2FDC194B04EBF1
:101A6800840203EB820153F82230CA68144D0292B3
:101A780001930096144B154A8021286868F080F974
:101A8800286800F075F90A202CF022FB0134E3E7FE
:101A980007F0DEFD0E4BAF220E490F4807F022FE7D
:101AA80007F0D6FDFEE707F0D3FD094BB022094940
:101AB800094807F017FE07F0CBFDFEE704B070BD3C
:101AC800280600200C910908F4EA07089CEC07088E
:101AD80048DC0708DCEA070890DC07082DE9F04134
:101AE8008AB090B10C460546D9B1374B1B68002B1C
:101AF80067D107F0ADFD354B4FF49772344935483F
:101B080007F0F0FD07F0A4FDFEE707F0A1FD2F4B5D
:101B18004FF496722E492F4807F0E4FD07F098FD20
:101B2800FEE707F095FD294B40F22D122849294878
:101B380007F0D8FD07F08CFDFEE7274B06EB860281
:101B480003EB820853F8227001970095234B244A2F
:101B580080211D48006868F013F9D8F80830D8F8D3
:101B68000C2009951F49089107950695059204933D
:101B78000397029501970095D8F804301A4A4FF454
:101B88008061204668F0FCF8B0F5806F10D20090B4
:101B980023460D4A12680121002000F06FF80A2040
:101BA8002CF096FA0136002EC7DD0AB0BDE8F081A8
:101BB80000970E4B40F2691205490D4807F092FD57
:101BC800EDE70026EFE700BF2806002048DC0708FD
:101BD800DCEA070890DC0708F8900908F4EA070827
:101BE800A8DC07087CDE0708C0EC070868EE0708D1
:101BF800A8DE070868B1006858B151B110B582B0C5
:101C08000024009403230A7821462DF009F902B034
:101C180010BD7047014B1860704700BF20060020B8
:101C280008B513F031FC124BA3FB00239B0D114A9E
:101C380002FB1303104A1A44002A16DDD30E510181
:101C4800891A63F100039B0043EA9173890089189C
:101C580043F100034FEAC30C4FF47A720023C80023
:101C68004CEA5171FEF7FAFF08BD0122E6E700BF12
:101C7800B17C219500DD6D00806DEF042DE9F04306
:101C88008FB0002A31D0074688461D461646334B8A
:101C98001B68002B34D0002409940A940B940C94EC
:101CA8000D940DF11C090794089404940594069466
:101CB800214620462DF008FB8DF824708DF82580EC
:101CC8000A963046FEF7DEFAADF82C000C95169B06
:101CD8000D932CF065FE07904FF4FA730693204B92
:101CE8000493CDF8149001251CE007F0B1FC1D4BBE
:101CF80058221D491D4807F0F5FC07F0A9FCFEE72E
:101D080007F0A6FC174B59221749184807F0EAFCB8
:101D180007F09EFCFEE7039BE3B10325FA202CF0B5
:101D2800D7F90134042C15D804AA09A90B4B186853
:101D380059F0B5FD05460028F0D1039041F28833EB
:101D4800009303AB024601462CF0F0FF0128E2D0D5
:101D58000325E3E728460FB0BDE8F08320060020FE
:101D6800FD1B010848DC07081CF0070890DC070881
:101D780000B583B040B1024600200090034601211F
:101D8800FFF77CFF03B000BD07F062FC044B96220E
:101D98000449054807F0A6FC07F05AFCFEE700BF17
:101DA80048DC07081CF0070890DC07082DE9F0411B
:101DB80084B020B30C4616461D46074651B3002B87
:101DC80033D03A4B1B68002B3AD080202EF01CF9F8
:101DD800804600283FD000943B46354A802167F072
:101DE800CFFF7F2842D800220092334641462F4831
:101DF800006804F09BFA00284CD1012440E007F069
:101E080027FC2C4BA7222C492C4807F06BFC07F029
:101E18001FFCFEE707F01CFC264BA8222649274892
:101E280007F060FC07F014FCFEE707F011FC214BFB
:101E3800A9222149214807F055FC07F009FCFEE7D3
:101E480007F006FC1B4BAA221B491C4807F04AFC5A
:101E580007F0FEFBFEE707F0FBFB164BAD22164929
:101E6800164807F03FFC07F0F3FBFEE702940197E2
:101E78000095134BB7221049124807F033FC002491
:101E88000A202CF025F940462EF0A4F9204604B08B
:101E9800BDE8F081CDF8048000950B4BC8220649B7
:101EA800084807F01FFC0024EAE700BF20060020CE
:101EB8002CF0070848DC07081CF0070890DC070826
:101EC80034F00708A8DE070864F0070810B582B0E8
:101ED80090B10446D9B11D4A106818B30022009287
:101EE8000B46214604F022FA38BB01240A202CF0C4
:101EF800EFF8204602B010BD07F0AAFB144BDC2215
:101F08001449154807F0EEFB07F0A2FBFEE707F0BF
:101F18009FFB0F4BDD220F490F4807F0E3FB07F04B
:101F280097FBFEE707F094FB094BDE2209490A48B4
:101F380007F0D8FB07F08CFBFEE70094074BE8227C
:101F48000449074807F0CEFB0024CFE7200600200D
:101F580048DC07081CF0070890DC070888F0070829
:101F6800A8DE070830B583B048B30C4615460346CB
:101F780081B3002A39D02C4A1068002840D02B4A57
:101F8800802167F0FDFE40F2FF322946204668F0C6
:101F980022F9002384F8FF332046FEF773F9B0F5E1
:101FA800806F38D2009023461F4A12680121002012
:101FB800FFF764FE0A202CF08BF803B030BD07F061
:101FC80047FB1B4BF8221B491B4807F08BFB07F00C
:101FD8003FFBFEE707F03CFB154BF9221549164875
:101FE80007F080FB07F034FBFEE707F031FB104BEE
:101FF800FA221049104807F075FB07F029FBFEE7A5
:1020080007F026FB0A4BFB220A490B4807F06AFB3C
:1020180007F01EFBFEE7094B4FF489720549084893
:1020280007F060FBC6E700BF28060020ACF00708F1
:1020380048DC07081CF0070890DC0708C4F007080C
:10204800A8DE070861B30B46C96849B370B584B008
:102058001C690CB904B070BD002600960196029662
:1020680003960F2C28BF0F242246684668F061FAB1
:1020780004F110030DEB030202F8106C09496846DD
:10208800FEF7F6F80028E5D1074B4C220749084827
:1020980007F028FB2021074B186829F04BFFD9E7E8
:1020A800704700BFECF00708F4F007084CF1070888
:1020B800F4E707082406002038B5B8B30C460546EF
:1020C80000293ED0FFF7CEF921462846FFF7DAF877
:1020D80021462846FEF796FF21462846FFF724FCAE
:1020E8002846FFF7B1FC21462846FFF7F7FC2146B2
:1020F8002846FFF701F821462846FFF7A9FB4FF4C9
:102108007A702BF0E5FF144B186802232A46014623
:10211800FFF730FA114A21462846FFF723FF104BF4
:102128009A221049104807F0DDFA38BD07F090FAF6
:102138000E4B5C220B490E4807F0D4FA07F088FAD8
:10214800FEE707F085FA094B5D220649084807F0C3
:10215800C9FA07F07DFAFEE70C950908ECF00708C4
:1021680058F107084CF10708F4E7070848DC0708A6
:1021780090DC07082DE9F04184B00023039303F0B5
:10218800F1FD03F0E9FD00283DD0044603F0ACFD65
:102198002046FFF73FFD03A9002009F0E5FF0546AB
:1021A80000283BD04FF480602DF02EFF8046002899
:1021B8003FD080202DF028FF854B1860002843D0A1
:1021C8000095844BBF228449844807F08BFA29F094
:1021D800E2FD834B1860002841D0824B824A834934
:1021E8002846FFF7E3FD824B824A83492846FFF7DA
:1021F800DDFD82498248FFF769FE41462846FFF720
:102208005BFF0026B3E007F023FA7E4BAE2272494B
:102218007D4807F067FA07F01BFAFEE707F018FA9F
:10222800784BB7226C49784807F05CFA07F010FA47
:10223800FEE707F00DFA734BBA226749724807F0B8
:1022480051FA07F005FAFEE707F002FA6D4BBD22D6
:1022580061496D4807F046FA07F0FAF9FEE707F01A
:10226800F7F9684BC2225C49674807F03BFA07F068
:10227800EFF9FEE7654BEE225749584807F032FA66
:10228800634B196800232A4662480068FFF772F911
:102298007DE0614BF4225049504807F023FA5C4B2B
:1022A800196801232A465B480068FFF763F9002391
:1022B8000193022300932B464FF4806257495848F4
:1022C8002BF0E4FB012666E0434F444E554B4FF498
:1022D80082723946304607F005FA534B40F2051230
:1022E8003946304607F0FEF90DF054FD002655E05A
:1022F8004E4B40F20D123849384807F0F3F9414681
:102308002846FFF7D9FE00264BE0494B40F21D1244
:102318003149324807F0E6F9464A41462846FFF770
:1023280021FE4FF47A702BF0D3FE0DF033FD14F03C
:10233800200700D1DCB9002E40D113F0A5F83E4BA0
:10234800A3FB0023DB0B3D4A02FB13002BF0C0FE6E
:10235800002F3BD03A4B00933A4B40F22F121E49C4
:102368001E4807F0BFF941462846FFF7A5FE1C4B5B
:102378001C68FFF755FC0090002301223F212046EE
:1023880029F018FD044610F0010F7FF473AF14F024
:10239800020F7FF47EAF14F0040F95D114F0080FEC
:1023A800A6D114F0100FC2D0002EAED0264B40F2AA
:1023B80019120949094807F095F9D8E7234B4FF452
:1023C80094720549054807F08DF9D0E7204BC2E71C
:1023D800280600209CF107084CF10708F4E70708D5
:1023E80024060020E0F1070865160108ECF107084B
:1023F800F8F10708B517010808F207084D20010889
:1024080014F2070848DC070890DC07082CF20708D4
:102418001C0600200C95090844F2070860F207081A
:10242800E116010870F2070888F20708B4F20708F5
:10243800FCF207080CF3070873B2E745C0D40100A3
:1024480084F1070844F30708D0F2070814F30708D3
:1024580090F107080120704730B585B0F8B10446FF
:102468001C4B03611C4B43614068223080B22083BF
:1024780001302DF0C9FDE060F8B10DF10E030193B4
:1024880003230093A388A268218B50F0C5FE05465C
:10249800228BBDF80E309A420CD000250EE007F0D2
:1024A800D7F80E4BFE220E490E4807F01BF907F02D
:1024B800CFF8FEE7012801D106E00025E06818B151
:1024C8002DF088FE0023E360012D14BF00200120B9
:1024D80005B030BDA4F30708D4F3070848DC0708A3
:1024E80093F3070890DC070870B582B004460090A3
:1024F8001C4B01220169006A03F018FFD0B900944F
:10250800194B01226169206A03F010FF054618B3D0
:10251800164E174B4FF4A0723146164807F0E2F8F2
:1025280063690093144B4FF4A2723146134807F0C5
:10253800D9F811E005460D4E0D4B4FF4997231460E
:102548000C4807F0CFF8236900930B4B4FF49B72AC
:1025580031460A4807F0C6F8B5FA85F0400902B0D6
:1025680070BD00BFB92501088925010893F3070844
:1025780004F4070890DC070888F00708A8DE0708B5
:10258800C269A2B110B582B004460B460969D86881
:10259800FFF760FF48B102220023009303230121C3
:1025A80020682CF03DFC02B010BD0322F4E7704710
:1025B800C269A2B110B582B004460B460969D86851
:1025C800FFF748FF48B101220023009303230121AC
:1025D80020682CF025FC02B010BD0322F4E77047F8
:1025E80030B583B00C46054638B16CB11DB114B195
:1025F800EB69012B0FD003B030BD0B4BDD220B492B
:102608000B4807F06FF8F0E7074BDE220749084848
:1026180007F068F8EAE700230093032322780221F1
:1026280028682CF0FDFBE6E704F4070893F3070895
:1026380090DC070838B505460C460846FDF722FE2B
:1026480002462146284624F0C6FE38BD30B585B07E
:10265800002835D004463949FFF7ECFF0546002825
:102668003AD14FF0FF326946204624F0C0FE0546B5
:1026780000283BD1684600F0B9FC054600283DD14A
:10268800684600F071FD054600283FD1684600F015
:1026980023FE0546002841D1684600F0D5FE0546D0
:1026A800002843D16946204624F0AFFE0546D0B144
:1026B800234B4FF4F5722349234807F013F812E02F
:1026C80006F0C6FF214B4FF4E2721E491E4807F080
:1026D80009F806F0BDFFFEE7194B40F2C712194989
:1026E800194806F0FFFF284605B030BD144B4FF4DB
:1026F800E6721449144806F0F5FFF4E7104B4FF45E
:10270800E9721049104806F0EDFFECE70C4B4FF466
:10271800EC720C490C4806F0E5FFE4E7084B4FF46F
:10272800EF720849084806F0DDFFDCE7044B4FF478
:10273800F2720449044806F0D5FFD4E720F40708EC
:1027480004F4070893F3070890DC070848DC070837
:1027580070B586B0154603AA0023039353609360AF
:1027680002931A4B01241C70C6685E60B0F818C04A
:10277800A3F808C0D9601D6142F21071059114498F
:1027880003910490C4611946006A59F088F80290D0
:1027980028B10298B0FA80F0400906B070BD08234D
:1027A800029347F23053009302AB4FF0FF320021FF
:1027B80002202CF0BBFA0028EBD1064B40F21A227B
:1027C8000549064806F08EFFE3E700BF2C06002007
:1027D800E925010824F4070893F30708A8DE070889
:1027E80010B5044603460F4A0169006A03F0E0FE8B
:1027F80038B923460C4A6169206A03F0D9FE40B90A
:1028080010BD0A4B4FF4AA7209490A4806F06AFF3C
:10281800EFE7064B4FF4AE720549064806F062FF33
:10282800EEE700BFB92501088925010804F4070867
:1028380093F3070890DC070810B50446806808B1D0
:102848002DF0C8FCE06808B12DF0C4FC242200215A
:10285800204667F058FC10BD70B5ADF58C6D24228C
:1028680000210DF23C4067F04EFC0024A84B1C6090
:102878004FF4806221460FA867F045FC0DF588618A
:10288800204609F071FCCDF84404CDF858442CF0EA
:1028980087F8CDF83C04DDF84434F3B1DDF8403472
:1028A800EBB14FF6FE72934201D9002418E00DF205
:1028B8003C40FFF7D1FD044690B9964D964B40F247
:1028C8004D222946954806F00DFF954B40F25522BA
:1028D8002946944806F006FF02E0002400E00024A0
:1028E80003F040FA03F038FACDF85C041CB9884BC1
:1028F80001221A605BE00DF23C40FFF7F5FD04464B
:1029080048B1894B40F267228249884806F0EAFEBE
:10291800002C4CD1EBE77F4D7F4B40F263222946D8
:102928007E4806F0DFFE824B40F26B2229467D4846
:1029380006F0D8FEECE7784B4FF4217275497748DA
:1029480006F0D0FE7B4B40F2BD227249754806F076
:10295800C9FE94B9039C0FAD641B774B40F2C622A5
:102968006C49724806F0BEFE224629460DF23C40EC
:10297800FFF7EEFE002800F0C38047F230530093C3
:1029880002AB4FF0FF32002101202CF0CFF90128D3
:1029980000F0E4800023CDF85834684B40F2E92277
:1029A8005C49604806F09EFE65482BF091FB584B49
:1029B8001B68002B40F0EC802BF0ECF90646002554
:1029C800029503AC2B464FF480620FA9204624F0F1
:1029D800E0FC4FF0FF3207A9204624F008FD04462A
:1029E8000028A8D1574907A8FFF724FE0446002865
:1029F80046D102220BA907A824F0F9FC04460028B6
:102A080046D151490BA8FFF715FE0446002847D1C7
:102A180032462B460BA824F0C3FC044348D14B494B
:102A28000BA8FFF707FE00284AD149490BA8FFF772
:102A380001FE044600284BD10BA907A824F0E5FCA9
:102A4800044600284CD1434B4FF42C723149374887
:102A580006F048FE07A8FFF7F9FD0446002847D10D
:102A680007A903A824F0D1FC044600283FF472AF5C
:102A7800294B4FF42E722749284806F033FE61E7A8
:102A8800254B40F289222349244806F02BFE59E7BA
:102A9800214B4FF424721F49204806F023FE51E7CA
:102AA8001D4B40F297221B491C4806F01BFEAFE75E
:102AB800194B40F29A221749184806F013FE41E7CD
:102AC800154B40F2A1221349144806F00BFEACE75F
:102AD800114B4FF429720F49104806F003FE31E7F5
:102AE8000D4B40F2AA220B490C4806F0FBFD29E7E2
:102AF800094B40F2B2220749084806F0F3FD21E7E6
:102B0800154B4FF433720349064806F0EBFD34E7E2
:102B18004006002093F3070804F4070890DC070830
:102B280040F40708A8DE070864F40708F4E7070874
:102B380098F40708F4F4070818F50708A0F507083B
:102B4800E0930400B01D0908C8F40708CCF407088E
:102B5800D0F40708D4F407083CF507089DF80830B6
:102B68000022CDF85824012B0AD0022B7FF415AF90
:102B7800124B40F2E3221249124806F0B3FD13E764
:102B8800114B40F2DF220E49104806F0ABFD0BE76F
:102B98000F4B40F2F1220A490E4806F0A3FD0DF250
:102BA8003C442046FFF71CFE2046FFF745FE002068
:102BB8002AF07EFF0DF58C6D70BD00BF84F5070807
:102BC80093F30708A8DE070868F50708F4E707087D
:102BD800C8F50708D4F50708054B1B68002000E076
:102BE800DB6823B11A7D012AFAD10130F8E7704772
:102BF800D0DD0620044B1B68002001E00130DB68B3
:102C0800002BFBD1704700BF20DE0620044B1B6859
:102C1800002001E00130DB68002BFBD1704700BFCA
:102C2800CCDD062038B505460C460846FDF72AFBDC
:102C380002462146284624F0CEFB38BD70B505462D
:102C48001646FFF7EFFF044631462846FFF7EAFF2E
:102C5800204370BDF8B5054617461E46FFF7E2FF4C
:102C680004463A463346284624F09AFB2043F8BDEA
:102C780008B560B9074B1B6823B193F83C005DF0B9
:102C8800BBFC08BD044B186808600846F9E75DF00E
:102C9800B3FCF6E7ECDB0620D8F50708F0B587B0FB
:102CA80020B10646304B1C68002511E006F0D0FC28
:102CB8002E4BDB222E492F4806F014FD06F0C8FCE7
:102CC800FEE72D4BE8222A492A4806F00BFDE46866
:102CD800002C45D0694600230093ADF80430207AD3
:102CE800FFF7C6FF074628B3022202A9304624F0A0
:102CF8007EFB05460028E4D13A46204902A8FFF7A2
:102D08009DFF054668B9E28A00231D4902A8FFF71E
:102D1800A1FF0546E8B902A9304624F076FB05462E
:102D2800D5E7154BED221249124806F0DBFC002DC1
:102D3800CDD1E8E7012202A9304624F058FB054628
:102D48000028E0D00C4BF32209490A4806F0CAFCD7
:102D5800EDE7094BF9220649064806F0C3FCB6E739
:102D6800284607B0F0BD00BFD0DD062048DC0708C4
:102D7800F7F5070890DC070804F40708A087090896
:102D880010F60708F0B587B020B10646324B1C682C
:102D9800002513E006F05CFC304B40F26B12304922
:102DA800304806F09FFC06F053FCFEE72E4B4FF42C
:102DB800BC722B492B4806F095FCE468002C48D0DF
:102DC800694600230093ADF80430207AFFF750FFDE
:102DD800074630B3022202A9304624F008FB054614
:102DE8000028E3D13A46214902A8FFF727FF054604
:102DF80068B9628A00231E4902A8FFF72BFF05461F
:102E0800F8B902A9304624F000FB0546D5E7164B71
:102E180040F27D121249134806F064FC002DCCD113
:102E2800E7E7012202A9304624F0E1FA0546002826
:102E3800DFD00D4B40F2831209490A4806F052FCD4
:102E4800ECE7094B40F289120549064806F04AFCAE
:102E5800B3E7284607B0F0BD20DE062048DC0708A7
:102E6800F7F5070890DC070804F40708A0870908A5
:102E780010F60708F8B505460C4610461F460A46E0
:102E8800294664F049FF68B12146284667F0B6F93B
:102E980006463B46094A211A281866F071FF304455
:102EA800844208D2064B40F20A220649064806F038
:102EB80019FC0020F8BD0120FCE700BF14F6070844
:102EC80004F40708F7F5070890DC070870B58EB01A
:102ED80020B106463D4B1C6800251BE006F0B8FBF8
:102EE8003B4B40F212223B493B4806F0FBFB06F005
:102EF800AFFBFEE7394B4FF407723649364806F008
:102F0800F1FB6946207AFFF7B3FE024600283BD062
:102F180065B3E468002C56D01D22002106A867F08E
:102F2800F2F800230093ADF80430032202A93046DA
:102F380024F05DFA05460028DCD1238B221D1D21D3
:102F480006A8FFF797FF08B90125DAE706AA24497A
:102F580002A8FFF773FE05460028D2D01F4B4FF496
:102F680009721C491C4806F0BDFBCAE71D4902A8A6
:102F7800FFF764FE054680B1184B4FF40D721549F2
:102F8800154806F0AFFBC4E7144B40F23A2211494A
:102F9800114806F0A7FB0125BBE7E28A0023124986
:102FA80002A8FFF757FE054628B902A9304624F0C3
:102FB8002CFA0546ADE7094B40F24122054906487F
:102FC80006F090FBA5E728460EB070BDCCDD0620C4
:102FD80048DC0708F7F5070890DC070804F4070839
:102FE8001CF6070820F6070824F607082DE9F04F15
:102FF80089B00390A0B15049039C2046FFF712FE08
:103008000290C0B9042204A9204624F0F0F90290E5
:10301800B8B14A4B78224A494A4806F063FB10E0A7
:103028000090494B64224649484806F05BFB40F251
:103038000723029337E0414B73224149414806F088
:1030480051FB434865F078FC424B1B680024264638
:1030580025462746A046A246A146A3461CE09A6CF0
:1030680012EB090291464BF1000B1A6E12EB0802A3
:1030780090464AF1000A1A6D521947F10007DD6CB3
:10308800AD1847F100075A6E121946F100069C6EFA
:10309800A41846F100061B68002BE0D12C4865F007
:1030A80055FC029B1BB1029809B0BDE8F08F2A4677
:1030B8003B46294904A8FFF7CDFD029D05431FD1D2
:1030C80022463346254904A8FFF7C4FD28431ED1EC
:1030D8004A465B46224904A8FFF7BCFD0446E8B906
:1030E800424653461F4904A8FFF7B4FD54EA0003BB
:1030F80002931AD104A9039824F087F90290D2E721
:103108000E4B92220E490F4806F0ECFAD8E70B4B0B
:1031180095220B490B4806F0E5FAD9E7074B9822A8
:103128000749084806F0DEFADAE7044B9B2204490F
:10313800044806F0D7FAB6E74CF6070804F407087F
:10314800F7F5070890DC070828F60708A8DE07083F
:103158004C780520F0DB062050F6070854F60708DF
:10316800981E080858F6070870B58AB00646D8B100
:10317800504865F0E1FBFFF72FFD05464E49304604
:10318800FFF750FD0446D0B90DBB012202A9304615
:1031980024F02DF9044608B3484B40F22712484959
:1031A800484806F09FFA31E00090474B4FF4877289
:1031B8004349464806F096FA40F207241CE03F4B84
:1031C8004FF48D723E493F4806F08CFA0EE0022219
:1031D80002A9304624F00BF9044680B92A46002398
:1031E8003B4902A8FFF736FD044690B9002D38D0B8
:1031F800BCB1304865F0AAFB20460AB070BD2F4B21
:103208004FF491722E492F4806F06CFA002CEDD13C
:10321800E4E72A4B40F22F1229492A4806F062FABD
:10322800E4E72C4902A8FFF7FDFC044650BB2A46F8
:1032380006A902A824F0D6F8044658BB06A8FFF74A
:103248002DFD044600282DD106A902A824F0DDF89A
:10325800044640B1194B4FF4A5721949194806F0B4
:1032680041FA002CC5D102A9304624F0CEF8044614
:103278000028BED0114B40F251121149114806F0F6
:1032880031FAB6E70D4B4FF49C720D490D4806F024
:1032980029FAAEE7094B4FF49F720949094806F02D
:1032A80021FAA6E7054B4FF4A2720549054806F036
:1032B80019FA9EE74C78052084F6070804F40708F5
:1032C800F7F5070890DC07085CF60708A8DE07088A
:1032D80094B3080888F6070870B58AB00646D8B1CE
:1032E800504865F029FBFFF785FC05464E493046F6
:1032F800FFF798FC0446D0B90DBB012202A930465D
:1033080024F075F8044608B3484B40F2B712484910
:10331800484806F0E7F931E00090474B4FF4CF7288
:103328004349464806F0DEF940F207241CE03F4BCB
:103338004FF4D5723E493F4806F0D4F90EE0022218
:1033480002A9304624F053F8044680B92A460023DF
:103358003B4902A8FFF77EFC044690B9002D38D0FF
:10336800BCB1304865F0F2FA20460AB070BD2F4B68
:103378004FF4D9722E492F4806F0B4F9002CEDD13C
:10338800E4E72A4B40F2BF1229492A4806F0AAF975
:10339800E4E72C4902A8FFF745FC044650BB2A463F
:1033A80006A902A824F01EF8044658BB06A8FFF791
:1033B800E9FC044600282DD106A902A824F025F826
:1033C800044640B1194B4FF4ED721949194806F0FB
:1033D80089F9002CC5D102A9304624F016F8044614
:1033E8000028BED0114B40F2E1121149114806F0F5
:1033F80079F9B6E70D4B4FF4E4720D490D4806F024
:1034080071F9AEE7094B4FF4E7720949094806F02C
:1034180069F9A6E7054B4FF4EA720549054806F035
:1034280061F99EE74C7805208CF6070804F4070834
:10343800F7F5070890DC07085CF60708A8DE070818
:1034480094B3080888F6070870B58EB0064660B3CE
:10345800694865F071FAFFF7D9FB054667493046B8
:10346800FFF7E0FB044658BB012202A9304623F0CF
:10347800BEFF0446002834D1614902A8FFF7D2FBF9
:103488000446002835D1002D3BD1012206A902A807
:1034980023F0ADFF044600283AD05A4B4FF41F7270
:1034A80059495A4806F01EF94AE00090584B40F234
:1034B80055225549574806F015F940F207240DE002
:1034C800504B40F262225049504806F00BF9002D4B
:1034D8005BD0002C37D0484865F038FA20460EB04B
:1034E80070BD484B4FF41A724749484806F0FAF83D
:1034F800EDE7444B40F26E224349444806F0F2F8A7
:10350800E5E7022206A902A823F071FF044680B964
:103518002A460023404906A8FFF79CFB04460028DA
:10352800D5D0384B4FF421723749384806F0DAF8CD
:10353800CDE7344B40F277223349344806F0D2F8CD
:10354800002CC4D1E4E7354906A8FFF76BFB044615
:10355800002831D12A460AA906A823F043FF0446C9
:10356800002831D10AA8FFF7B1FC0446002833D15E
:103578000AA906A823F049FF044640B1214B40F2AE
:103588009F222149214806F0ADF8002CA3D106A9B5
:1035980002A823F03AFF044630BB02A9304623F0C4
:1035A80034FF0446002896D0164B4FF42B72164968
:1035B800164806F097F88EE7124B40F28D22124912
:1035C800124806F08FF886E70E4B40F293220E4918
:1035D8000E4806F087F87EE70A4B40F299220A491E
:1035E8000A4806F07FF876E7064B40F2A62206491D
:1035F800064806F077F86EE74C78052090F607083D
:1036080094F6070804F40708F7F5070890DC07089C
:103618005CF60708A8DE070894B3080898F60708B8
:1036280030B54FF0000E4FF00C0C09E010F80C30DC
:103638002F2B13D0002010E00EF1010E0CF1010C1D
:103648008C4509D29E45F1D012F80E5010F80C4066
:10365800A542F1D0002000E0002030BD0120FCE7A9
:103668000B4B03604FF482728280991881608281CB
:1036780003F5027202618022828203F52271816160
:103688004FF40061C16103F68823036282847047A6
:103698004C06002008B550F0A9FD022806D007DB2B
:1036A8000438C0B2032805D9002002E0012000E058
:1036B800002008BD0120FCE708B550F007FD0020F8
:1036C8002AF0F6F908BD000008B5002828D01A4AE3
:1036D80002601A4A42601A4A82601A4AC2601A4A4A
:1036E80042611A4A82611A4AC2611A4A02621A4A35
:1036F80042621A4A82621A4A02631A4AC2621A4A21
:10370800C2651A4A82651A4AC2641A4A02651A4A86
:1037180082641A4A42651A4A02641A4A426408BD17
:1037280005F096FF184B40F2C3421849184805F0B7
:10373800D9FF05F08DFFFEE7E56706083168060842
:1037480071680608CD680608E1680608156A060863
:10375800816A0608F16A0608F96A0608B93C010890
:10376800693D01080D3C01082D5F0208ED61020862
:103778001D5E02087960020881630208B95F0208C9
:1037880075640208B95C020848DC0708B2F6070845
:1037980090DC070838B598B10C46054600F500538B
:1037A8004FF0FF31D3F80C0A29F0E8F8012813D0BC
:1037B8000F4B40F2F1120F490F4805F093FF38BD47
:1037C80005F046FF0D4B4FF4F4720A490C4805F01A
:1037D80089FF05F03DFFFEE7002184F8001E05F58E
:1037E80000550B460A46D5F80C0A28F031FEE6E7E4
:1037F800C4F60708B2F60708A8DE070848DC070879
:1038080090DC070810B582B007285CD8DFE800F024
:1038180004161E3A4B5B5B53304C314B40F2DE22B0
:103828002146304805F05EFF51F04EFE2E4B40F227
:10383800EB2221462D4805F055FF4CE02C4B40F279
:10384800F3222649274805F04DFF44E0294B40F272
:10385800FF222249234805F045FF022051F066FC6B
:1038680038B9254B40F226321C491E4805F03AFF6C
:1038780031E00090214B40F22A3218491B4805F0EC
:1038880031FF28E019B11E48FFF784FF23E005F057
:10389800DFFE1C4B40F2323210491B4805F022FF74
:1038A80005F0D6FEFEE7194B4FF44F720B490F484F
:1038B80005F018FF0FE0164B4FF4507207490948FE
:1038C80005F010FF07E00090124B4FF451720349C6
:1038D800114805F007FF02B010BD00BFB2F6070897
:1038E800E4F60708F4E707081CF70708A8DE070846
:1038F8003CF7070878F70708B0F70708E4F7070860
:103908005411002048DC070890DC07081CF8070859
:103918005CF8070870F8070800E9070838B5B0B17F
:10392800054600F500534FF0FF31D3F80C0A29F093
:1039380025F801282BD10023022B1CD840F604625D
:1039480002FB035292F8002E6AB10133F4E705F046
:103958007FFE134B4FF4FE721249134805F0C2FE66
:1039680005F076FEFEE740F6046202FB03540123ED
:1039780084F8003E00E0002405F5005500231A46AF
:103988001946D5F80C0A28F063FD204638BD074BC8
:1039980040F20E220349064805F0A4FE0024F4E78D
:1039A80048DC0708B2F6070890DC0708C4F60708E1
:1039B800A8DE0708F0B585B0002302930393002919
:1039C80032D00C46344B1D68002D39D04F680E8913
:1039D8002846FCF757FC03462A4631463846FFF787
:1039E8001FFE01284CD1236940F6FA5293423BD876
:1039F80000932A4B40F2993229492A4805F072FE71
:103A08002948FFF78BFF054630B32269E16866F065
:103A180090FD2369C5F8FC3D03238DF80C30029511
:103A280002A850F0FFFD34E005F012FE1F4B40F2F3
:103A38008D321B491E4805F055FE05F009FEFEE7CC
:103A480005F006FE194B40F28E321549184805F06C
:103A580049FE05F0FDFDFEE7164B4FF46A7210496A
:103A6800154805F03FFE14E040F6FA520192009323
:103A7800124B40F2AD320A490F4805F033FE08E018
:103A8800019700960E4B40F2B23205490D4805F0F9
:103A980029FE05B0F0BD00BF48060020B0F80708B1
:103AA800B2F60708F4E707085411002048DC0708B5
:103AB80090DC0708D8F80708A8DE070800F9070807
:103AC80058F9070800E9070870B584B00023029385
:103AD800039329B30C464E680D89274B1B68274A68
:103AE800126829463046FFF79BFD012838D1236923
:103AF80040F6FA52934227D82148FFF70FFF0546B0
:103B0800D0B12269E16866F014FD2369C5F8FC3D6F
:103B180006238DF80C30029502A850F083FD28E0AA
:103B280005F096FD174B40F255321749174805F036
:103B3800D9FD05F08DFDFEE7154B40F271321249B3
:103B4800144805F0CFFD14E040F6FA5201920093B4
:103B5800114B40F276320C490E4805F0C3FD08E0DF
:103B6800019600950D4B40F27D3207490C4805F04F
:103B7800B9FD04B070BD00BF44060020480600200F
:103B88005411002048DC0708B2F6070890DC070843
:103B9800D8F80708A8DE0708B0F90708FCF90708ED
:103BA80000E9070870B584B0054600238DF80F308A
:103BB8008CB20DF10F03009314230E4A214655F0E1
:103BC8004BF99DF80F3023B9002623B1304604B0D5
:103BD80070BD094EF9E70DF10F0300931723074A4B
:103BE8002146284655F038F99DF80F30002BEDD0C6
:103BF800034EEBE754FA0708BD3901086CFA0708C9
:103C0800D13A010870B584B070B10C460546B9B90F
:103C180005F01EFD1F4B40F297421F491F4805F053
:103C280061FD05F015FDFEE705F012FD194B40F2A8
:103C380096421949194805F055FD05F009FDFEE7BA
:103C4800FFF7B0FF064602F087F8F8B106B3002385
:103C58003246294602F0ACFC064658B90195009454
:103C68000F4B40F2B4420C490E4805F03BFD30467C
:103C780004B070BD0290019500940B4B40F2AB422A
:103C880005490A4805F02EFDA226F0E7A226EEE730
:103C9800A226ECE748DC0708B2F6070890DC07081C
:103CA800BCFA0708F4E7070884FA0708A8DE07083B
:103CB800F0B583B078B10C4615460646B9B905F09B
:103CC800C7FC204B40F21B421F49204805F00AFD63
:103CD80005F0BEFCFEE705F0BBFC1A4B40F21A42A9
:103CE80019491A4805F0FEFC05F0B2FCFEE7FFF79B
:103CF80059FF074602F030F8F8B107B300230093E4
:103D08003B462A46314602F011FB054658B9019652
:103D180000940F4B40F237420B490E4805F0E2FC85
:103D2800284603B0F0BD00900B4B4FF4866206495D
:103D38000A4805F0D7FCA125F2E7A125F0E7A1255F
:103D4800EEE700BF48DC0708B2F6070890DC070872
:103D58000CFB0708F4E70708DCFA0708A8DE0708E1
:103D680070B58CB005460C46002007900890099065
:103D78000A900B9004900590069003900290089585
:103D8800ADF824109DF840108DF81C100A920B9382
:103D980001462BF099FA2AF003FE029042F21073C2
:103DA80006931B4B049302AB059301F0D5FF60B358
:103DB80004AA07A957F073FD064660B942F21073CA
:103DC800009303AB4FF0FF32002108462AF0AEFF04
:103DD80001280CD0032600960E4B40F27D420E4976
:103DE8000E4805F07FFCA02630460CB070BD9DF84B
:103DF8000C60002EEFD101950094094B40F28242ED
:103E08000549084805F06EFCEEE7A026ECE700BF80
:103E1800313E010828FB0708B2F60708A8DE0708A4
:103E280064FB0708F4E7070800B583B058B10A46F1
:103E38000068A0B1F9B100210091032312782AF09B
:103E4800EFFF03B000BD05F003FC114B40F2074241
:103E58001049114805F046FC05F0FAFBFEE705F0AD
:103E6800F7FB0B4B4FF481620A490B4805F03AFC0B
:103E780005F0EEFBFEE705F0EBFB054B40F20942CF
:103E88000449054805F02EFC05F0E2FBFEE700BFFB
:103E980048DC0708B2F6070890DC070810B578B1C7
:103EA800044642F60C22002166F02DF9012028F084
:103EB8009BFB04F50054C4F80C0A00B1012010BDA6
:103EC80005F0C6FB044B40F2D5120449044805F03E
:103ED80009FC05F0BDFBFEE748DC0708B2F6070859
:103EE80090DC070830B5B3B00024309431940AADA3
:103EF80038222146284666F006F918A8FFF7E4FBA1
:103F08002846FFF7ADFB7C4BDA7899781B8802933B
:103F180001910092794B4FF4A6627949794805F0EE
:103F2800E1FB7949204608F01FF9784B186010B179
:103F3800754B1B6813BB764B40F24F52704975485E
:103F480005F0D0FB00231C46002B40D10125724B05
:103F580040F2CA526A496B4805F0C4FB002D00F0D4
:103F6800BA806A4B186820B12CF034F9674B0022EC
:103F78001A60002029F09CFD33B030BD674B40F239
:103F880056525F495F4805F0ADFB654B009301232E
:103F9800002220216348006827F00CFF10F0200F52
:103FA8000BD0614B4FF4AC625549564805F09AFB6B
:103FB80001F0D2FE04460123C6E75C4B40F266528C
:103FC8004F49504805F08EFB01230024BCE784B11B
:103FD80000220092564B5749204602F0A7F90546A1
:103FE80040B1554B40F2755245494A4805F07AFBB5
:103FF800ADE7012544B1002200924D4B4F492046C0
:1040080002F094F90546A8B94D48FFF747FF012883
:104018009DD14C4B3D4A126818A90AA850F078F86F
:1040280080B10090484B40F297523549394805F025
:1040380059FB8CE7454B40F285523149354805F02C
:1040480051FB84E700230193032200924FF480522E
:104058003F49404829F01AFD012808D000903E4BFE
:1040680040F2A65226492B4805F03CFB6FE7002397
:104078008DF8C43030A850F0D5FA08E047F2305037
:104088002AF026F850F0B2F80A283FF460AF00236F
:104098000693079308930993FFF7FCFA0128EDD1DB
:1040A80006A850F0A9F80028E8D150F09FF8099B1D
:1040B8000493089B0393079B0293069B0193274B4A
:1040C80053F820300093264B40F2BD520C490D485E
:1040D80005F008FBD2E70023154A1649204602F0EE
:1040E80067FA00283FF43DAF1E4B40F2D552044911
:1040F800084805F0F7FA34E70C95090894FB070817
:10410800B2F60708F4E7070844060020480600202E
:10411800BCFB0708A8DE0708C8FD0708ECFB070872
:10412800C0D401006C87002014FC07083CFC070879
:10413800BD39010870FC070890FC0708CCFC07088B
:10414800541100200D3801081CFD0708ECFC070875
:104158004CFD0708C136010858FD070838920908C0
:1041680084FD0708F4FD070808B5044B186818B162
:104178000022012127F06EFF08BD00BF683B002028
:1041880008B5044B186818B10022012127F062FF16
:1041980008BD00BF683B00202DE9F0418EB00746FE
:1041A8000E4614461D46002009900A900B900C906C
:1041B8000D900DF11C08079008900490059006904A
:1041C800039001462BF080F88DF824708DF8256057
:1041D8000A942046FCF756F8ADF82C000C95149B71
:1041E8000D932AF0DDFB07904FF4FA730693124BF8
:1041F8000493CDF8148002E0039BB3B9BCB104AAC0
:1042080009A90E4B186857F04AFB04460028F5D157
:104218004FF0FF33009303AB0022114610462AF0FB
:1042280085FD0128E8D00324E8E70324E6E72046D3
:104238000EB0BDE8F08100BF49420108643B002090
:10424800006850B110B582B00024009403230A78A6
:1042580021462AF0E5FD02B010BD70472DE9F04176
:1042680086B00023059301F07DFD01F075FD894BB3
:10427800186000283DD001F037FD874B40F20B1243
:104288008649874805F02EFA05A9002007F06CFF3B
:104298000546002839D04FF400702BF0B5FE0446CF
:1042A80000283ED027F077FD7E4B1860002844D0C8
:1042B8002B467D4A40217D4865F062FD00227C49FD
:1042C8004FF400500BF02AFC00227A494FF40050BA
:1042D8000BF048FC0025002D40F09780764B03EB4F
:1042E800051359686F4B186827F024FE0135EDB2A5
:1042F800F1E705F0ADF9714B4FF4837267497048E7
:1043080005F0F0F905F0A4F9FEE705F0A1F96B4B0B
:104318004FF4877261496A4805F0E4F905F098F9A5
:10432800FEE705F095F9654B40F211125B496448C8
:1043380005F0D8F905F08CF9FEE705F089F95F4B2F
:104348004FF48A7255495E4805F0CCF905F080F9BA
:10435800FEE7594A02EB0312526811430133DBB2FC
:1043680055E0B046544F07EB0617B989B86817F0FF
:104378002FF9F873BB7B834216D0524A6019C5F5F2
:104388000071142D12DD504B01924FEA08184A4A69
:1043980052F8082000924D4A65F0F2FC002807DB2D
:1043A80005440136F6B24BE0494AE7E7494BEBE7EB
:1043B80005F04EF9414B40F253123849404805F098
:1043C80091F905F045F9FEE705F042F93B4B40F25B
:1043D8005B1232493A4805F085F905F039F9FEE7EC
:1043E80005F036F9354B40F25F122C49344805F098
:1043F80079F905F02DF9FEE72C4B0093364B4FF475
:10440800B9722649354805F06DF900231946002B85
:104418009FD04FF0FF33009300230122214800680A
:1044280027F0C8FC0028F0D02D4D0FCD206061602A
:10443800A260E360286820612B7923750026142583
:10444800002E8ED0274AC5F50071601965F098FCDA
:104458000028B9DB0544B5F5007FC1D20294019567
:10446800124E0096204B40F261120C490C4805F0A0
:1044780039F900952346324601210020FFF78CFECA
:104488000028B9D1194B4FF4B7720449044805F014
:1044980029F9BAE7643B0020DCFE0708CDFE0708CF
:1044A800F4E70708683B002014FF07086C3B00206E
:1044B80089410108714101080000002048DC070813
:1044C80090DC0708E89B0808B4FE070848FF0708BF
:1044D800100108087CD50808CCFF0708A8DE0708E3
:1044E80030FF070868FF070870FF0708A0FF0708E4
:1044F800064B1B78DAB2012B03D0022A03D1012024
:104508007047002070470320704700BFBC4E002052
:10451800012804D0022804D028B904487047044868
:104528007047044870470448704700BFFCFF0708FD
:10453800040008080C00080884C5080830B5A3B0B2
:104548000546154B154A802102A865F019FC09E0BB
:1045580002AB0093124B40F2A7121249124805F021
:10456800C1F8ACB100230093104B2A4602A9104CA5
:10457800206801F0DBFE04460028E9D002AB009376
:104588000C4B40F2A51207490B4805F0ABF8E8E7D9
:10459800204623B030BD00BFB03B002014000808FF
:1045A8006400080854000808F4E70708A54601084D
:1045B800AC3B002028000808A8DE070838B50546E7
:1045C80000240CB1002038BD23012946054AD058E3
:1045D800FBF74EFE10B10134E4B2F2E7014800EBFC
:1045E8000410F0E71000002010B5044601220188ED
:1045F800406816F0F4FF4FF47A7029F069FD002244
:104608002188606816F0EBFF10BD08B50430FFF78D
:10461800EBFF08BD08B50430FFF7E6FF08BD08B595
:104628000430FFF7E1FF08BD70B582B005460C46BF
:10463800FFF7C4FF98B1064612492046FBF718FE5B
:10464800B0B111492046FBF713FEB0B10F4920461F
:10465800FBF70EFE78B93046FFF7E1FF0BE0009557
:104668000B4B4FF49F720B490B4805F03BF802E0E7
:104678003046FFF7CAFF02B070BD3046FFF7CAFFE9
:10468800F9E700BF8C000808940008089C00080897
:10469800740008085400080800E9070870B5B8B0A5
:1046A8000C460D897F2D00D97F252A46616818A8F8
:1046B80065F03FFF05F1E0030DEB0305002305F866
:1046C800803C25693F2D00D93F252A46E16808A886
:1046D80065F02FFF05F1E0030DEB0305002305F856
:1046E800C03C114918A865F0EFFD0546C8B107356B
:1046F8002F21284665F02CFD98B1441B1F2C00D9AA
:104708001F2422462946684665F013FF04F1E0039A
:104718000DEB0304002304F8E03C08A96846FFF702
:1047280083FF38B070BD00BFA40008082DE9F04130
:104738008EB007460E4614461D46002009900A9082
:104748000B900C900D900690079008900DF11008B2
:1047580004900590039001462AF0B6FD8DF8247068
:104768008DF825600A942046FBF78CFDADF82C00E7
:104778000C95149B0D932AF013F904904FF4FA73D7
:104788000893114B0693CDF81C8003E0039B03B1FB
:104798000324ACB106AA09A90C4B186857F07FF896
:1047A80004460028F5D14FF0FF33009303AB0022F5
:1047B800114610462AF0BAFA0128E7D00324E8E7A0
:1047C80020460EB0BDE8F08141480108AC3B00200E
:1047D80070B5AAB000240CB12AB070BD2046FFF70E
:1047E80087FE114B220103EB041528730AAE9B5870
:1047F80000930E4B0E4A8021304665F0C1FA287BA3
:10480800FFF786FE034602AD0A4A2021284665F0D6
:10481800B7FA00902B46324601210846FFF786FF7B
:104828000134E4B2D7E700BF10000020B03B0020FD
:1048380004DF07080C280808006850B110B582B0DA
:104848000024009403230A7821462AF0E9FA02B0EA
:1048580010BD704770B584B001F084FA01F07CFA9D
:104868002F4B186000283CD001F03EFA002003903E
:1048780003A907F079FC054600283ED0039E294C81
:1048880032460146204665F054FE0023A3552846CB
:104898002BF0A0FC0094244B4FF4FD7223492448CC
:1048A80004F020FF0120FFF749FEFFF791FF4FF0CA
:1048B800FF330093002301224FF400711D48006864
:1048C80027F078FA0024002CF1D12046FFF710FEDB
:1048D800194B03EB04131B7B83421AD10134E4B256
:1048E800F1E704F0B5FE154B4FF4F7720F49144881
:1048F80004F0F8FE04F0ACFEFEE704F0A9FE0F4B4E
:104908004FF4FA7209490E4804F0ECFE04F0A0FED8
:10491800FEE7094B03EB04131873FFF759FFDDE7B4
:10492800AC3B0020B03B0020AC000808540008084D
:10493800F4E707086C8700201000002048DC07080F
:1049480090DC070870B582B006460D460CE0284694
:10495800FBF798FC019500900F4B40F2A9120F4904
:104968000F4804F0BFFEA4B1002300930D4B32465C
:1049780029460D4C206801F0D9FC04460028E6D0F1
:1049880000900A4B40F2A5120449094804F0AAFE17
:10499800E9E7204602B070BD0CFB0708E2000808F2
:1049A800F4E70708414C0108703C0020DCFA0708CE
:1049B800A8DE07082DE9F0418EB007460E461446DA
:1049C8001D46002009900A900B900C900D900DF157
:1049D8001C080790089004900590069003900146E3
:1049E8002AF072FC8DF824708DF825600A94204610
:1049F800FBF748FCADF82C000C95149B0D9329F09F
:104A0800CFFF07904FF4FA730693124B0493CDF837
:104A1800148002E0039BB3B9BCB104AA09A90E4BE8
:104A2800186856F03CFF04460028F5D14FF0FF33D4
:104A3800009303AB0022114610462AF077F90128AB
:104A4800E8D00324E8E70324E6E720460EB0BDE8F3
:104A5800F08100BF654A0108703C0020006850B131
:104A680010B582B00024009403230A7821462AF066
:104A7800D7F902B010BD70472DE9F04397B007464B
:104A8800002615961496344611E02A465F4940469A
:104A980065F08FFB00283AD15D4B03EB04131B7BB9
:104AA8005C4A52F82320002A50D00134E4B2012C89
:104AB80059D8A1462301564AD358574A402104A839
:104AC80065F05EF90546431E3E2BEED84FF0000810
:104AD800CDF85480CDF850803846FBF7D3FB01461B
:104AE800CDF8088014AB019315AB00932B4604AAAC
:104AF800384653F063F80128D7D1DDF85480B8F16F
:104B0800000FD2D0149D002DCFD0022DBDD0032D83
:104B1800CBD12A464149404665F04BFB0028C4D119
:104B28003B4B03EB09131B7B3A4A52F82350012DE8
:104B3800BBD1002142F82310354B03EB0913DA7A75
:104B48001989586816F04BFD2E46AEE70126314A02
:104B580042F823602E4B03EB04139A7A198958689C
:104B680016F03DFDA1E73EB92D493846FBF780FB1D
:104B7800A8B9284B1B6823B1012E0AD017B0BDE88D
:104B8800F083244B01221A6000224021254816F0A8
:104B980026FD0121244B186827F0CCF9EEE72349BC
:104BA8003846FBF765FB60B91A4B1B68012BE3D14C
:104BB800184B00221A60012240211A4816F00FFDF6
:104BC800E7E71B493846FBF753FB60B9114B5B68B5
:104BD800002BD1D10F4B01225A60002280211148AD
:104BE80016F0FDFCD5E713493846FBF741FB0028D2
:104BF800C2D1084B5B68012BBED1064B00225A601C
:104C080001228021074816F0EAFCC2E710010808D3
:104C180068920908803C0020F0000808E89B080812
:104C280008010808001C0242743C0020140108080E
:104C3800200108083001080830B583B00C460A691D
:104C48007F2A16D90F4D8022C968284665F071FC65
:104C5800002385F87F300B4C00940B4B40F28F12E9
:104C68000A490B4804F03EFD2046FFF705FF03B054
:104C780030BD044DC968284665F05BFC23690022F5
:104C8800EA54E8E7F03B002040010808E200080881
:104C9800F4E7070870B586B00023059301F062F8C1
:104CA80001F05AF8694B1860002831D001F01CF85F
:104CB800674B40F20E226749674804F013FD05A9C7
:104CC800002007F051FA044670B380202BF09CF9BD
:104CD8000546002834D02346604A4021604865F0E4
:104CE8004FF823465F4A40215F4865F049F827F0AE
:104CF80052F85E4B186078B35B490120FFF722FE3B
:104D0800002835D10121594B186827F013F974E0B0
:104D180004F09EFC564B40F20A224E49554804F0D6
:104D2800E1FC04F095FCFEE704F092FC504B40F2E5
:104D3800112248494F4804F0D5FC04F089FCFEE7ED
:104D480004F086FC4A4B4FF405724249494804F086
:104D5800C9FC04F07DFCFEE704F07AFC444B40F209
:104D68001B223C49434804F0BDFC04F071FCFEE7FB
:104D78003D4B0093404B40F2222236493F4804F015
:104D8800B1FC002028F094FEBCE73D4A52F82310FD
:104D98003C4A42F823100133DBB2012BF5D9384BDA
:104DA8001B68002B38D0384B354A5268002A35D05A
:104DB800354A0092354A8021284664F0E1FF0446CE
:104DC8007F282DD802950190254E0096304B40F251
:104DD80046222049204804F085FC00942B463246A0
:104DE80001210846FFF7E6FD30BB0096294B40F24B
:104DF80053221849184804F075FC4FF0FF3300930C
:104E080001231A4619461948006826F0D3FF10F006
:104E1800010FF2D00023C0E71F4BC5E71E4AC8E7C1
:104E280004F016FC124B4FF411720A49114804F0B1
:104E380059FC04F00DFCFEE7094B0093174B4FF4A7
:104E4800167204490D4804F04DFCD6E7703C00206A
:104E580068010808E2000808F4E707089CE1070869
:104E6800883C00208CE10708C83C0020743C0020E6
:104E780048DC070890DC0708B0010808A8DE070826
:104E8800803C0020783C002010010808D401080864
:104E98003002080858020808E89B08087C0208083D
:104EA8000F4B1B6803B1704710B582B00022042174
:104EB800202027F075FA0A4B186000240BE0094BF4
:104EC80003EB0413019300231A4601A90448006860
:104ED80027F0BEFA01341F2CF1D902B010BD00BF73
:104EE800083D00200C3D002010B582B0002301933E
:104EF800174B1C682CB3C30E4101091A63F1000358
:104F08009B0043EA91738900091843F100034FEAB3
:104F1800C30C4FF47A720023C8004CEA5171FBF7B6
:104F28009DFE024601A9204627F07AFC10B101989F
:104F380002B010BD074B5A220749084804F0D2FBBB
:104F4800F5E7074B5F220449044804F0CBFBEEE782
:104F5800083D00209C020808CF020808A8DE0708C0
:104F6800E802080800B585B00390134B1868A0B193
:104F7800039B124A934203D302F50072934214D959
:104F880000930F4B73220F490F4804F0ABFB00202E
:104F9800003818BF012005B000BD0C4B6D2209492F
:104FA800094804F09FFB0020F2E700231A4603A9F2
:104FB80027F04EFAECE700BF083D00200C3D00202A
:104FC80008030808CF020808A8DE0708E80208084E
:104FD80038B538B1054689B1132A1BD8132B25D803
:104FE800002030E004F034FB214B40F24F122149FD
:104FF800214804F077FB04F02BFBFEE704F028FBC4
:105008001B4B4FF4A8721B491B4804F06BFB04F0C0
:105018001FFBFEE704F01CFB154B40F2511215492B
:10502800154804F05FFB04F013FBFEE704F010FBE7
:105038000F4B4FF4A9720F490F4804F053FB04F0CB
:1050480007FBFEE70130132810D805EB001E02EB22
:10505800420C01EB8C0CDEF80C406445F2D103EBFA
:10506800430401EB8404CEF80C40EBE738BD00BFE5
:1050780048DC07085703080890DC070810B5C4681F
:105088008C4201D0002010BD4168994201D0002017
:10509800F9E70368934201D00020F4E7846829F017
:1050A8007FFC844201D00020EDE70120EBE70000FF
:1050B80038B5B0B1044629F073FC0546D4F8A4020B
:1050C80027F0A6F9854206D0224B40F2EA2222496F
:1050D800224804F007FB0023C4F89432C4F898323D
:1050E8001EE004F0B5FA1E4B40F2E9221A491B48AB
:1050F80004F0F8FA04F0ACFAFEE7E218802182F82E
:10510800F01003F1400204EB82020021516003EB2E
:105118004302900004EB8202516021541181013353
:10512800132BEAD900230DE003F1150104EB01115B
:1051380000228A604A6004EB0311C1F86021C1F8BB
:105148005C210133132BEFD90023C4F8A032C4F833
:105158009C3238BD04F407085703080890DC070898
:1051680048DC07082DE9F84338B1884691460646D9
:1051780079B10024274625463FE004F069FA294B17
:105188004FF4B3722849294804F0ACFA04F060FAE5
:10519800FEE704F05DFA234B40F2671222492348E8
:1051A80004F0A0FA04F054FAFEE71A8972BB132D32
:1051B8002CD8A54200D8651C132D1DD805EB450237
:1051C8004FEA820E06EB820CBCF808200AB90135BA
:1051D800F2E79CE8070083E80700002346F80E3052
:1051E800CCF80430CCF8083023462A4631464046ED
:1051F800FFF7EEFE013701350134132C0DD804EB0F
:10520800440306EB830358680028CED00028F3D067
:105218001B89002BF0D00137EEE7C9F80070BDE814
:10522800F88300BF48DC07085703080890DC070824
:105238002DE9F84338B18946054681B14FF0000C95
:105248006746E64649E004F003FA2B4B4FF4D17267
:105258002A492B4804F046FA04F0FAF9FEE704F06C
:10526800F7F9254B40F2A3122449254804F03AFAED
:1052780004F0EEF9FEE7BEF1130F36D8E64501D883
:105288000CF1010EBEF1130F25D84FEA0E1805EBED
:105298000E16F36813B90EF1010EF3E7E6450DD9C2
:1052A80096E80F0084E80F00002345F80830736083
:1052B800B360F36001370EF1010E0CE004F0C8F999
:1052C8000D4B40F2B5120D490D4804F00BFA04F0ED
:1052D800BFF9FEE701370CF1010CBCF1130F07D839
:1052E80005EB0C14E368002BC5D0002BF2D1F2E7D4
:1052F800C9F80070BDE8F88348DC070857030808B8
:1053080090DC070860B100B583B000230093012347
:105318004FF000420321406829F082FD03B000BD30
:105328007047000000B583B071B158B10A784B6876
:1053380013B11B7802EB0362002300930323194681
:1053480029F06EFD03B000BD04F082F9044B40F271
:10535800BA520449044804F0C5F904F079F9FEE7A3
:1053680048DC07085703080890DC070800B583B035
:1053780049B130B10023009303230A78194629F074
:105388004FFD03B000BD04F063F9054B40F2B6626F
:105398000449054804F0A6F904F05AF9FEE700BFED
:1053A80048DC07085703080890DC070800B585B0F3
:1053B80084460846114600238DF80F300DF10F037F
:1053C8000093BCF80830DCF8042053F045FD20B900
:1053D8009DF80F3013B1012000E0002005B000BD9A
:1053E80008B528F0D7FC024B1B68C01A08BD00BFDF
:1053F800203F002030B585B00023039380B30C46CE
:10540800054679B3D00E53019B1A60F10000800065
:1054180040EA93709B0013EB020C40F10001C900B5
:105428004FF47A7200234FEACC0041EA5C71FBF733
:1054380015FC009003AB4FF0FF320021032029F048
:1054480075FC034678B1039B002B02DA0023236026
:1054580009E000222146286827F0E2F9034602E025
:10546800002300E00023181E18BF012005B030BD3E
:1054780030B583B058B30C46054651B3D00E53012E
:105488009B1A60F10000800040EA93709B0013EBC8
:10549800020C40F10001C9004FF47A7200234FEA70
:1054A800CC0041EA5C71FBF7D9FB02460023214698
:1054B800286826F0CDFF0446686858B10023009399
:1054C80001234FF08042032129F0AAFC02E00024C6
:1054D80000E00024201E18BF012003B030BD0000EA
:1054E80030B583B0F0B10446D0F8A4322BB329F01C
:1054F80057FA0546D4F8A40226F08AFF854205D05B
:10550800184BFD221849194804F0ECF800231A46F4
:105518001946D4F8A40226F09BFF0446C0B12046E1
:1055280003B030BD04F094F8114BFB220E490F482C
:1055380004F0D8F804F08CF8FEE704F089F80C4B76
:10554800FC220949094804F0CDF804F081F8FEE787
:105558000090084B40F207120349074804F0C2F8CC
:10556800DDE700BF04F407085703080890DC0708C4
:1055780048DC07086C030808A8DE07082DE9F04195
:1055880082B0B8B10F46064601B329F009FA0446BD
:10559800D6F8A40226F03CFF84425ED004F058F806
:1055A800324B40F22B223249324804F09BF804F087
:1055B8004FF8FEE704F04CF82C4B40F229222C4916
:1055C8002C4804F08FF804F043F8FEE704F040F8A4
:1055D800264B40F22A222649264804F083F804F094
:1055E80037F8FEE70134132C16D806EB0413D3F86A
:1055F80060314345F6D106EB0413D3F85C0100286B
:10560800F0D028F0D3FB00901B4B40F243221849FE
:105618001A4804F067F8E5E70135D6F89432AB424A
:105628001DD97B685A5D731983F8F0207B685B5D30
:10563800802BF1D105EB450806EB8808B8F808304F
:10564800D8F80420019200930D4B4FF40E720849CC
:105658000C4804F047F80024C5E70025DDE730468C
:10566800FFF73EFF02B0BDE8F08100BF48DC070845
:105678005703080890DC0708C803080800E907086A
:1056880098030808A8DE070870B586B0C9B10646B1
:105698000C46D1F8A43203B329F082F90546D4F8B0
:1056A800A40226F0B5FE854223D003F0D1FF274B94
:1056B80040F256222649274804F014F803F0C8FFA0
:1056C800FEE703F0C5FF214B4FF41572204921482E
:1056D80004F008F803F0BCFFFEE703F0B9FF1B4B2A
:1056E80040F255221A491B4803F0FCFF03F0B0FFB3
:1056F800FEE704F5257204F5AA712046FFF732FD8E
:10570800D4F89432DBB1144A03920494002205922F
:10571800C4F89C42C4F8A03203AA04F527713046A5
:1057280056F081F8044670B153F0F2FB00900B4B31
:1057380040F2712206490A4803F0D4FF03E02046EC
:10574800FFF7CEFE0024204606B070BD48DC0708EF
:105758005703080890DC070885550108180408084D
:10576800A8DE070830B583B0B8B10446D0F8A43233
:10577800F3B129F015F90546D4F8A40226F048FE3D
:10578800854220D04FF0FF31D4F8A40227F0F6F874
:105798000446F8B1204603B030BD03F059FF114B61
:1057A800E1221149114803F09DFF03F051FFFEE784
:1057B80003F04EFF0B4BE2220B490C4803F092FF1B
:1057C80003F046FFFEE70A4BE4220749074803F0C7
:1057D80089FFD7E70090074BEF220349064803F0FB
:1057E80081FFD7E748DC07085703080890DC07085B
:1057F80004F4070854040808A8DE07082DE9F04156
:1058080082B060B11546D0F80861A6B1FAB1304649
:10581800FFF7A8FF00284CD00024A04624E003F09E
:1058280017FF2B4B40F2A9222A492B4803F05AFFB5
:1058380003F00EFFFEE703F00BFF254B40F2AA2210
:105848002449254803F04EFF03F002FFFEE703F06A
:10585800FFFE1F4B40F2AB221E491F4803F042FFD8
:1058680003F0F6FEFEE70134132C1CD806EB0413F4
:10587800D3F860010028F6D02A896968FFF796FDF9
:1058880007460028EFD006EB0413D3F85C0128F094
:105898008DFA04F1150306EB03135A682946986834
:1058A8009047B846DFE73046FFF71AFEB8F1000F19
:1058B8000AD12B896A6801920093084B40F2D322DF
:1058C8000449074803F00EFF02B0BDE8F08100BFAD
:1058D80048DC07085703080890DC07087C04080818
:1058E80000E9070810B570B10446012026F07CFED7
:1058F800C4F8A40298B12046FFF734FF2046FFF70A
:10590800D7FB002010BD03F0A3FE064B40F20B327C
:105918000549064803F0E6FE03F09AFEFEE702207A
:10592800F0E700BF48DC07085703080890DC0708C1
:10593800F0B585B01F460123039300230293044664
:1059480098B30D461646002938D0002A3FD040F2B9
:105958001442002164F0D7FBC4F81061C4F8147134
:10596800C4F82451624BC4F81C31624BC4F8183196
:10597800012084F8EC033C23A4F8EE334FF0FF3306
:10598800019301A906F0F0FB0546019B013B13F1C9
:10599800030F25D8584964F097FC38B3574BC4F81F
:1059A800F8334423A4F8FC331FE0554B40F2463249
:1059B8005449554803F096FE01252FE0534B40F219
:1059C8004B325049504803F08DFE01256CE0504B96
:1059D8004FF454724B494C4803F084FE012563E0B0
:1059E8000023C4F8F833A4F8FC3315B128462AF08C
:1059F800F1FB0020C4F80004A4F8040402A906F08E
:105A0800B3FBC4F8F003002846D0029B002B43D018
:105A1800B3F5803F40D2A4F8F4330025002D43D1DC
:105A280000220421202026F0BBFCC4F83C010028F9
:105A38003DD028F0B5FFC4F84001002D34D104F55D
:105A48009E73C4F82831334BC4F82C31324BC4F858
:105A58003031324BC4F83431314BC4F8383104F2A8
:105A68000C41012006F080FBC4F80804D4F80C347B
:105A780033B328B303A9022006F0B0FBC4F810041E
:105A880008B1039B2BBB274B40F2C3321D491E486C
:105A980003F028FE022507E0234B40F29232194911
:105AA800194803F01FFE0225284605B0F0BD1F4B1C
:105AB80040F29F321349144803F014FE0225B8E758
:105AC8001B4B40F2B7320F490F4803F00BFE02257B
