:020000040801F1
:1000000000000C20998202089532020897320208FB
:10001000993202089B3202089D320208E9820208E6
:10002000000000000000000000000000250404089B
:100030009F32020800000000C9030408613302086F
:10004000E9820208E9820208E9820208E9820208DC
:10005000E9820208E9820208E9820208E9820208CC
:10006000E9820208E9820208E9820208E9820208BC
:10007000E9820208A1320208E9820208E982020844
:10008000E9820208E9820208E9820208E98202089C
:10009000E9820208E9820208E9820208E98202088C
:1000A000AB320208B7320208C3320208D13202086A
:1000B00000000000E1320208F1320208E982020881
:1000C000E98202080133020811330208E9820208BA
:1000D000E9820208E9820208E9820208E98202084C
:1000E000E9820208E9820208E9820208E98202083C
:1000F000E9820208E9820208E9820208E98202082C
:10010000E9820208E9820208E9820208E98202081B
:10011000E9820208E9820208E9820208E98202080B
:10012000E9820208E9820208E98202082133020812
:100130003133020841330208E9820208E9820208E9
:10014000E9820208E9820208E9820208E9820208DB
:10015000E9820208E9820208E9820208E9820208CB
:10016000E9820208E9820208E9820208E9820208BB
:10017000E9820208E9820208E9820208E9820208AB
:10018000E9820208E9820208E9820208E98202089B
:10019000E9820208E9820208E9820208E98202088B
:1001A000E9820208E9820208E9820208E98202087B
:1001B000E98202080000000051330208E9820208C7
:1001C000E982020800000000E9820208E9820208D0
:1001D000E9820208E9820208E9820208E98202084B
:1001E000E9820208E9820208E9820208E98202083B
:1001F0000000000000000000E9820208E982020815
:10020000E9820208E9820208E9820208E98202081A
:10021000E9820208E9820208E9820208E98202080A
:10022000E9820208E9820208E9820208E9820208FA
:08023000E9820208E9820208DC
:1002380010B5054C237833B9044B13B10448AFF318
:1002480000800123237010BDE0050020000000009D
:100258007CF5070808B5034B1BB103490348AFF306
:10026800008008BD00000000E40500207CF50708B8
:1002780010F8012B11F8013B012A28BF9A42F7D048
:10028800D01A7047034613F8012B002AFBD1181A1D
:100298000138704781F0004102E000BF83F000435D
:1002A80030B54FEA41044FEA430594EA050F08BF09
:1002B80090EA020F1FBF54EA000C55EA020C7FEACD
:1002C800645C7FEA655C00F0E2804FEA5454D4EB4A
:1002D8005555B8BF6D420CDD2C4480EA020281EA14
:1002E800030382EA000083EA010180EA020281EA4C
:1002F8000303362D88BF30BD11F0004F4FEA01319E
:100308004FF4801C4CEA113102D0404261EB4101AC
:1003180013F0004F4FEA03334CEA133302D0524232
:1003280063EB430394EA050F00F0A780A4F10104EE
:10033800D5F1200E0DDB02FA0EFC22FA05F2801828
:1003480041F1000103FA0EF2801843FA05F359410E
:100358000EE0A5F120050EF1200E012A03FA0EFC8D
:1003680028BF4CF0020C43FA05F3C01851EBE371B7
:1003780001F0004507D54FF0000EDCF1000C7EEBD4
:1003880000006EEB0101B1F5801F1BD3B1F5001F12
:100398000CD349085FEA30004FEA3C0C04F1010431
:1003A8004FEA445212F5800F80F09A80BCF1004F5A
:1003B80008BF5FEA500C50F1000041EB045141EADC
:1003C800050130BD5FEA4C0C404141EB0101013CA5
:1003D80028BFB1F5801FE9D291F0000F04BF014694
:1003E8000020B1FA81F308BF2033A3F10B03B3F166
:1003F80020020CDA0C3208DD02F1140CC2F10C02F6
:1004080001FA0CF021FA02F10CE002F11402D8BF53
:10041800C2F1200C01FA02F120FA0CFCDCBF41EA1F
:100428000C019040E41AA2BF01EB0451294330BDEE
:100438006FEA04041F3C1CDA0C340EDC04F11404CB
:10044800C4F1200220FA04F001FA02F340EA0300A2
:1004580021FA04F345EA030130BDC4F10C04C4F1E8
:10046800200220FA02F001FA04F340EA03002946C8
:1004780030BD21FA04F0294630BD94F0000F83F412
:10048800801306BF81F480110134013D4EE77FEAF5
:10049800645C18BF7FEA655C29D094EA050F08BF41
:1004A80090EA020F05D054EA000C04BF1946104622
:1004B80030BD91EA030F1EBF0021002030BD5FEA66
:1004C800545C05D14000494128BF41F0004130BD8E
:1004D80014F580043CBF01F5801130BD01F00045E2
:1004E80045F0FE4141F470014FF0000030BD7FEA55
:1004F800645C1ABF194610467FEA655C1CBF0B4650
:10050800024650EA013406BF52EA033591EA030F66
:1005180041F4002130BD00BF90F0000F04BF00215E
:10052800704730B54FF4806404F132044FF0000591
:100538004FF0000150E700BF90F0000F04BF00210A
:10054800704730B54FF4806404F1320410F0004570
:1005580048BF40424FF000013EE700BF42004FEA6B
:10056800E2014FEA31014FEA02701FBF12F07F43E8
:1005780093F07F4F81F06051704732F07F4208BF9F
:10058800704793F07F4F04BF41F40021704730B5A6
:100598004FF4607401F0004521F000411CE700BFF2
:1005A80050EA010208BF704730B54FF000050AE075
:1005B80050EA010208BF704730B511F0004502D576
:1005C800404261EB41014FF4806404F132045FEA78
:1005D800915C3FF4D8AE4FF003025FEADC0C18BF21
:1005E80003325FEADC0C18BF033202EBDC02C2F113
:1005F800200300FA03FC20FA02F001FA03FE40EAA5
:100608000E0021FA02F11444BDE600BF70B54FF0A8
:10061800FF0C4CF4E06C1CEA11541DBF1CEA135586
:1006280094EA0C0F95EA0C0F00F0DEF82C4481EAEE
:10063800030621EA4C5123EA4C5350EA013518BF0E
:1006480052EA033541F4801143F4801338D0A0FBFB
:1006580002CE4FF00005E1FB02E506F00042E0FBA8
:1006680003E54FF00006E1FB03569CF0000F18BFAE
:100678004EF0010EA4F1FF04B6F5007F64F5407456
:1006880004D25FEA4E0E6D4146EB060642EAC621E9
:1006980041EA55514FEAC52040EA5E504FEACE2E56
:1006A800B4F1FD0C88BFBCF5E06F1ED8BEF1004F59
:1006B80008BF5FEA500E50F1000041EB045170BDD5
:1006C80006F0004646EA010140EA020081EA030119
:1006D800B4EB5C04C2BFD4EB0C0541EA045170BD15
:1006E80041F480114FF0000E013C00F3AB8014F18F
:1006F800360FDEBF002001F0004170BDC4F10004D8
:10070800203C35DA0C341BDC04F11404C4F1200558
:1007180000FA05F320FA04F001FA05F240EA0200B3
:1007280001F0004221F0004110EBD37021FA04F6E9
:1007380042EB06015EEA430E08BF20EAD37070BDA3
:10074800C4F10C04C4F1200500FA04F320FA05F002
:1007580001FA04F240EA020001F0004110EBD37004
:1007680041F100015EEA430E08BF20EAD37070BD74
:10077800C4F1200500FA05F24EEA020E20FA04F34D
:1007880001FA05F243EA020321FA04F001F00041FC
:1007980021FA04F220EA020000EBD3705EEA430E6D
:1007A80008BF20EAD37070BD94F0000F0FD101F09C
:1007B8000046400041EB010111F4801F08BF013CD5
:1007C800F7D041EA060195F0000F18BF704703F013
:1007D8000046520043EB030313F4801F08BF013D9A
:1007E800F7D043EA0603704794EA0C0F0CEA135556
:1007F80018BF95EA0C0F0CD050EA410618BF52EA10
:100808004306D1D181EA030101F000414FF0000015
:1008180070BD50EA410606BF1046194652EA430623
:1008280019D094EA0C0F02D150EA013613D195EA97
:100838000C0F05D152EA03361CBF104619460AD1DF
:1008480081EA030101F0004141F0FE4141F47001E9
:100858004FF0000070BD41F0FE4141F4780170BDD9
:1008680070B54FF0FF0C4CF4E06C1CEA11541DBF3E
:100878001CEA135594EA0C0F95EA0C0F00F0A7F840
:10088800A4EB050481EA030E52EA03354FEA01316D
:1008980000F088804FEA03334FF0805545EA131380
:1008A80043EA12634FEA022245EA111545EA106548
:1008B8004FEA00260EF000419D4208BF964244F1DF
:1008C800FD0404F5407402D25B084FEA3202B61AFE
:1008D80065EB03055B084FEA32024FF480104FF4D2
:1008E800002CB6EB020E75EB030E22BFB61A754646
:1008F80040EA0C005B084FEA3202B6EB020E75EBD9
:10090800030E22BFB61A754640EA5C005B084FEA40
:100918003202B6EB020E75EB030E22BFB61A75460D
:1009280040EA9C005B084FEA3202B6EB020E75EB18
:10093800030E22BFB61A754640EADC0055EA060ED9
:1009480018D04FEA051545EA16754FEA06164FEA1C
:10095800C30343EA52734FEAC2025FEA1C1CC0D1C8
:1009680011F4801F0BD141EA00014FF000004FF055
:10097800004CB6E711F4801F04BF01430020B4F116
:10098800FD0C88BFBCF5E06F3FF6AFAEB5EB030CCE
:1009980004BFB6EB020C5FEA500C50F1000041EBCB
:1009A800045170BD0EF0004E4EEA113114EB5C0498
:1009B800C2BFD4EB0C0541EA045170BD41F480116B
:1009C8004FF0000E013C90E645EA060E8DE60CEA73
:1009D800135594EA0C0F08BF95EA0C0F3FF43BAF90
:1009E80094EA0C0F0AD150EA01347FF434AF95EA47
:1009F8000C0F7FF425AF104619462CE795EA0C0F2B
:100A080006D152EA03353FF4FDAE1046194622E7F7
:100A180050EA410618BF52EA43067FF4C5AE50EAD1
:100A280041047FF40DAF52EA43057FF4EBAE12E7C1
:100A38004FF0FF3C06E000BF4FF0010C02E000BFA2
:100A48004FF0010C4DF804CD4FEA410C7FEA6C5C85
:100A58004FEA430C18BF7FEA6C5C1BD001B050EA28
:100A6800410C0CBF52EA430C91EA030F02BF90EA13
:100A7800020F0020704710F1000F91EA030F58BFD2
:100A8800994208BF90422CBFD8176FEAE37040F034
:100A9800010070474FEA410C7FEA6C5C02D150EAD2
:100AA800013C07D14FEA430C7FEA6C5CD6D152EA8D
:100AB800033CD3D05DF8040B704700BF8446104652
:100AC80062468C461946634600E000BF01B5FFF751
:100AD800B7FF002848BF10F1000F01BD4DF808ED21
:100AE800FFF7F4FF0CBF012000205DF808FB00BFF2
:100AF8004DF808EDFFF7EAFF34BF012000205DF84C
:100B080008FB00BF4DF808EDFFF7E0FF94BF012098
:100B180000205DF808FB00BF4DF808EDFFF7CEFF99
:100B280094BF012000205DF808FB00BF4DF808EDD8
:100B3800FFF7C4FF34BF012000205DF808FB00BFA9
:100B48004FEA410C7FEA6C5C02D150EA013C0AD1C1
:100B58004FEA430C7FEA6C5C02D152EA033C02D1B3
:100B68004FF0000070474FF0010070474FEA410214
:100B780012F5001215D211D56FF47873B3EB6252E7
:100B880012D94FEAC12343F0004343EA505311F00E
:100B9800004F23FA02F018BF404270474FF00000A0
:100BA800704750EA013005D111F0004008BF6FF0DE
:100BB800004070474FF00000704700BF4FEA410205
:100BC800B2F1E04324BFB3F5001CDCF1FE5C0DD9A3
:100BD80001F0004C4FEAC0024CEA5070B2F1004FED
:100BE80040EB830008BF20F00100704711F0804FF0
:100BF80021D113F13872BCBF01F00040704741F4B5
:100C080080114FEA5252C2F11802C2F1200C10FAB8
:100C18000CF320FA02F018BF40F001004FEAC1239C
:100C28004FEAD32303FA0CFC40EA0C0023FA02F340
:100C38004FEA4303CCE77FEA625307D150EA013316
:100C48001EBF4FF0FE4040F44000704701F00040E6
:100C580040F0FE4040F40000704700BF53B94AB965
:100C6800002908BF00281CBF4FF0FF314FF0FF30AC
:100C780000F0C4B9ADF1080C6DE904CE00F01AF823
:100C8800DDF804E0DDE9022304B07047430803F00F
:100C98005533C01A830800F0333003F03333184457
:100CA80000EB101000F00F3000EB002000EB0040CC
:100CB800000E70472DE9F04F099D884604468E4680
:100CC800002B4AD18A4217465FD9B2FA82F64EB152
:100CD800C6F1200301FA06FEB740B44020FA03F338
:100CE80043EA0E0E4FEA17481FFA87FC230CBEFB97
:100CF800F8F108FB11EE01FB0CF243EA0E439A42AD
:100D080007D9FB1801F1FF3002D29A4200F2548150
:100D180001469B1AA2B2B3FBF8F008FB103300FBA4
:100D28000CFC42EA034294450BD9BA1800F1FF3390
:100D38002CBF01240024944502D9002C00F03F81E7
:100D4800184640EA0140A2EB0C0200211DB1F24016
:100D58000023C5E90023BDE8F08F8B4205D90DB10A
:100D6800C5E9000100210846F5E7B3FA83F1002937
:100D78004ED14345C0F01281824240F20F810846AD
:100D8800002DE8D0C5E9004EE5E7002A00F0AC8068
:100D9800B2FA82F6002E40F0BB808B1A4FEA124E50
:100DA800BCB20121020C80B2B3FBFEFC0EFB1C336B
:100DB80042EA034304FB0CF29A420ED9FB180CF1E9
:100DC800FF382CBF4FF001094FF000099A4203D9B0
:100DD800B9F1000F00F0EC80C4469B1AB3FBFEF893
:100DE8000EFB183304FB08F440EA034294420BD983
:100DF800BA1808F1FF332CBF01200020944202D911
:100E0800002800F0D1809846121B48EA0C409DE764
:100E1800C1F120068B4008FA01F400FA01F922FA20
:100E280006F728FA06F88A401F4320FA06F3380C1A
:100E380023431FFA87FC1C0CB8FBF0FE00FB1E883E
:100E480044EA08440EFB0CF8A0450ED93C190EF1F3
:100E5800FF3A2CBF4FF0010B4FF0000BA04503D910
:100E6800BBF1000F00F0B880D646A4EB08041FFAC7
:100E780083F8B4FBF0F300FB134403FB0CFC48EAD3
:100E88000444A4450ED93C1903F1FF302CBF4FF0A0
:100E980001084FF00008A44503D9B8F1000F00F08D
:100EA8009F80034643EA0E40A4EB0C04A0FB02EC2F
:100EB80064457346E04602D307D1F14505D2BEEB3F
:100EC80002036CEB070C0138E0465DB1B9EB030295
:100ED80064EB080404FA06F622FA01F3CC401E4338
:100EE800C5E90064002136E7B1FBF2FC010C1446A9
:100EF80080B2964641EA08412026904640EA0143DE
:100F08001046B1FBF2F1A3EB080341EA0C414BE7B1
:100F1800B740C6F1200301FA06F221FA03F84FEAB6
:100F2800174E20FA03F3BCB2B0401343020C190C5D
:100F380080B2B8FBFEF90EFB198841EA084109FBAB
:100F480004F8884551D9791809F1FF3C2CBF4FF0B6
:100F5800010A4FF0000A884502D9BAF1000F31D0D2
:100F6800A1EB0801B1FBFEF909FB04F80EFB19110E
:100F78009BB243EA0143434535D2FB1809F1FF31DF
:100F88002CBF4FF0010A4FF0000A4345BBD2BAF11B
:100F9800000FB8D1A9F102013B44B4E7841A68EB09
:100FA800030201209646EBE63A44A8F102082BE733
:100FB800ACF1020C3B4410E702393B44A9E63A4441
:100FC8000238BEE6A7EB0808A9F1020C4144B1FBC0
:100FD800FEF909FB04F8C9E7AEF1020E3C4444E708
:100FE800023B3C445EE749468DE7A1EB0801CC464D
:100FF800B1FBFEF909FB04F8B8E700BF704700BF72
:10100800F0B589B088B10C460546C9B12E4B1B68AE
:10101800002B57D109F0B8FF2C4B35222C492D480D
:1010280009F0FEFF09F0B0FFFEE709F0ADFF274B1E
:1010380033222749274809F0F3FF09F0A5FFFEE707
:1010480009F0A2FF214B34222149224809F0E8FF88
:1010580009F09AFFFEE7204B53F836700197009588
:101068001E4B1F4A8021184800686AF06BFF0795DD
:101078001C4B0693059504950397029501970095D7
:101088003B46194A4FF4806120466AF05BFFB0F591
:10109800806F0FD2009023460B4A1268012100206E
:1010A80000F05CFD0A202DF095FA0136002ED2DD05
:1010B80009B0F0BD00970D4B6E2205490C4809F0A8
:1010C800AFFFEFE70026F1E70806002020FC07083D
:1010D80050FC070868FC0708E0CE090870FC070800
:1010E80080FC070854FE0708A0FC070864FE0708F0
:1010F80080FE07082DE9F04788B098B10E460746EC
:10110800D9B1524B1B681BB380202FF009FA8146D6
:1011180080202FF005FA8246B9F1000F23D068B37A
:10112800002468E009F030FF494B4A2249494A48FF
:1011380009F076FF09F028FFFEE709F025FF444B88
:101148004B224449444809F06BFF09F01DFFFEE7B4
:1011580009F01AFF3E4B4C223E493F4809F060FF18
:1011680009F012FFFEE709F00FFF394B5122394908
:10117800394809F055FF09F007FFFEE709F004FFB9
:10118800334B52223349344809F04AFF09F0FCFE38
:10119800FEE7CDF800803B46304A802148466AF099
:1011A800D1FECDF800803B462D4A802150466AF09A
:1011B800C9FE07972B4B069305970497CDF80CA00B
:1011C800CDF80890CDF8048000974346264A4FF49E
:1011D800806130466AF0B6FEB0F5806F24D2009088
:1011E80033461A4A12680121002000F0B7FC0A2091
:1011F8002DF0F0F90134022C1FDC1C4D55F8348019
:10120800CDF8048000971A4B1A4A80210F480068CD
:101218006AF098FE05EBC4056B68012BB9D00B4B3F
:10122800186800F015FDE2E7CDF80080124B9E2209
:101238000849124809F0F4FED9E748462FF056FA53
:1012480050462FF053FA08B0BDE8F0870806002092
:1012580020FC0708ACFE070868FC0708C8FE07085A
:10126800DCFE070854FE0708F0FE0708E8CE090868
:10127800C0FE070880FC0708E000080880FE070891
:101288002DE9F04F9DB098B10C460746D9B15A4B9D
:101298001B681BB380202FF043F9804680202FF075
:1012A8003FF98146B8F1000F23D068B3002547E025
:1012B80009F06AFE514B33225149524809F0B0FEF9
:1012C80009F062FEFEE709F05FFE4C4B34224C4900
:1012D8004C4809F0A5FE09F057FEFEE709F054FE58
:1012E800464B35224649474809F09AFE09F04CFE1C
:1012F800FEE709F049FE414B3C224149414809F0CB
:101308008FFE09F041FEFEE709F03EFE3B4B3D2211
:101318003B493C4809F084FE09F036FEFEE7CDF86B
:1013280000A0394B88223649384809F079FE03E095
:10133800314B186800F08CFC0A202DF04BF9013570
:10134800012D50DC324E56F835A0CDF804A0009798
:10135800304B314A8021284800686AF0F3FD06EBDB
:10136800C5067368012BE3D13B462C4A80214046D1
:101378006AF0E8FD3B462A4A802148466AF0E2FDC9
:1013880014AE5346274A202130466AF0DBFD0DF1A2
:10139800300B5346244A202158466AF0D3FD0A9759
:1013A800224B099308970797CDF818B00596CDF802
:1013B80010A0CDF80C90CDF80880CDF804A00097C7
:1013C80053461B4A4FF4806120466AF0BBFDB0F5D6
:1013D800806FA4D200902346074A1268012100209A
:1013E80000F0BCFBA8E740462FF080F948462FF0F4
:1013F8007DF91DB0BDE8F08F0806002020FC070825
:101408004801080868FC07084C03080880FE07081C
:1014180000CF09085C01080880FC07086401080877
:1014280074010808840108088C01080854FE07089C
:1014380094010808012804D0022804D028B90448D7
:10144800704704487047044870470448704700BF15
:101458007C03080884030808900308088C0009081E
:1014680070B590B0002843D00D46044600294AD0F4
:10147800334B1B68002B51D00BAE00230B930C93FE
:101488000D930E938DF83C302E4B9A781988019164
:101498000092DB782C4A112130466AF053FD009403
:1014A8002A4B2B4A8021264800686AF04BFD089693
:1014B8000794284B0693059404940394029401948A
:1014C80000942346244A4FF4806128466AF03AFD86
:1014D800B0F5806F2DD200902B46194A1268012171
:1014E800002000F03BFB0A202DF074F810B070BD0E
:1014F80009F04AFD194B2E2219491A4809F090FDA6
:1015080009F042FDFEE709F03FFD144B2F22144974
:10151800144809F085FD09F037FDFEE709F034FDB0
:101528000E4B30220E490F4809F07AFD09F02CFDC8
:10153800FEE70D4B72220A490C4809F071FDD2E70B
:1015480008060020ACD20908F4030808CC030808F0
:10155800D403080854FE07080004080820FC0708FC
:10156800B803080868FC07089C06080880FE0708F6
:1015780070B5B6B006460C461D461346184A4021BB
:1015880006A86AF0DFFC3F2803D90124204636B0BC
:1015980070BD2846FFF74EFFC6F30743B2B2210ECF
:1015A800C4F30745A4B205900494039502910192EF
:1015B8000093330E0B4A802116A86AF0C3FC7F28DB
:1015C80001D90124E2E7009016AB06AA01210846DA
:1015D80000F0C4FA04460A202CF0FCFFD6E700BF4E
:1015E800C0060808CC06080870B5C6B006460C4602
:1015F8001D461346164A402106A86AF0A3FC3F2858
:1016080003D90124204646B070BDC6F30743B2B2E1
:10161800210EC4F30740A4B20595049403900291E7
:1016280001920093330E0B4AC02116A86AF08AFC77
:10163800BF2801D90124E5E7009016AB06AA0121CD
:10164800084600F08BFA04460A202CF0C3FFD9E7BD
:10165800C00608081C07080881B330B589B00C46D5
:10166800CD680DB10B690BB909B030BD202200213E
:1016780068466AF02DFE24691F2C28BF1F242246C5
:10168800294668466BF04DF804F120030DEB03047E
:10169800002304F8203C0A496846FEF7E9FD0028C3
:1016A800E2D1084B4FF483720749084809F0B8FCA7
:1016B8000221074B18682AF0C3FED5E7704700BF20
:1016C800A0070808B0070808B8030808CC070808E6
:1016D80004060020F0B585B006462A4B40F21312E6
:1016E80029492A4809F09CFC4FF0FF3500240EE0F8
:1016F800274B4FF48E722449244809F091FC0020AE
:101708002CF056FC0BE01C46C8202CF063FF00218F
:10171800204B18682AF064FE10F00C0FE8D11E4B1D
:1017280018680028F0D00022039203A92BF0FEFAD3
:101738000128E9D12CB9039B03B92346002BE2D039
:101748001C46039BA342DFD8642703FB07F7B7FBBC
:10175800F4F7C7F16407BD42D6D0019300970F4B49
:101768004FF49B720849094809F05AFC0C4B196858
:10177800039B00933B4632460A480068FFF734FF54
:101788003D46C1E7D0070808B8030808CC07080891
:10179800EC070808040600207CA7002008080808B1
:1017A800FC050020ACD2090800293CD030B58BB02C
:1017B8000C46CD680DB10B690BB90BB030BD2022BA
:1017C800002102A86AF084FD24691F2C28BF1F2469
:1017D8002246294602A86AF0A4FF04F128030DEB6B
:1017E8000304002304F8203C0F4902A8FEF740FD3B
:1017F80020B10E4902A86AF05FFE58B10C4B2322B3
:101808000C490D4809F00CFC10210C4B18682AF003
:1018180017FED2E702AB0093094B28220549094875
:1018280009F0FEFBC9E77047340808083C080808B7
:1018380048080808A0080808CC070808040600207B
:10184800B4080808D808080830B587B000282BD095
:101858000C460546002932D0274B1868002839D095
:101868000095264B264A80216AF06CFB0595049565
:10187800244B03930295019500952B46224A4FF479
:10188800806120466AF05EFBB0F5806F2DD2009033
:101898002346194A12680121002000F05FF90A2046
:1018A8002CF098FE07B030BD09F06EFB174B2E22C6
:1018B8001749184809F0B4FB09F066FBFEE709F080
:1018C80063FB124B2F221249124809F0A9FB09F0B9
:1018D8005BFBFEE709F058FB0C4B30220C490D4826
:1018E80009F09EFB09F050FBFEE70B4B5F2208490D
:1018F8000A4809F095FBD2E708060020DC0808082A
:10190800E408080854FE07080809080820FC070826
:10191800A008080868FC0708780A080880FE070875
:101928002DE9F0418AB038B10F46054679B1394BF7
:101938001B68BBB1002446E009F026FB364B542255
:101948003649374809F06CFB09F01EFBFEE709F041
:101958001BFB314B55223149314809F061FB09F035
:1019680013FBFEE709F010FB2B4B56222B492C48A2
:1019780009F056FB09F008FBFEE7D8F80830D8F85C
:101988000C1009952748089007950695059104932A
:101998000396029501960095D8F80430224A4FF430
:1019A800806138466AF0CEFAB0F5806F26D2009092
:1019B8003B46184A12680121002000F0CFF80A209F
:1019C8002CF008FE0134052C20DC184A04EB840CAA
:1019D80002EB8C0852F82C6001960095144B154ABE
:1019E80080210C4800686AF0ADFAD8F81030012B55
:1019F800C3D0084B186800F02BF9E0E700940E4BB1
:101A08008E2206490D4809F00BFBD8E70AB0BDE85D
:101A1800F08100BF0806002020FC0708B40A080867
:101A280068FC070854FE0708D40A0808C4CF090848
:101A3800CC0A080880FC0708540C080880FE070830
:101A480070B584B000B306461B4B1B683BB300243B
:101A5800082C2FDC184D194B04EB840203EB820190
:101A680053F82230CA68029201930096144B154A23
:101A7800802128686AF066FA286800F0E9F80A20E8
:101A88002CF0A8FD0134E3E709F07EFA0E4BA22200
:101A98000E490F4809F0C4FA09F076FAFEE709F092
:101AA80073FA094BA3220949094809F0B9FA09F060
:101AB8006BFAFEE704B070BD0806002010CF0908D5
:101AC800CC0A0808740C080820FC0708B40A08089F
:101AD80068FC070868B1006858B151B110B582B008
:101AE8000024009403230A7821462DF01DFC02B03F
:101AF80010BD7047014B1860704700BF00060020FA
:101B080008B515F0EBFB124BA3FB00239B0D114A04
:101B180002FB1303104A1A44002A16DDD30E5101A2
:101B2800891A63F100039B0043EA917389008918BD
:101B380043F100034FEAC30C4FF47A720023C80044
:101B48004CEA5171FFF78AF808BD0122E6E700BFA9
:101B5800B17C219500DD6D00806DEF042DE9F04327
:101B68008FB0002A31D080460F461D461646334BAB
:101B78001B68002B34D0002409940A940B940C940D
:101B88000D940DF11C090794089404940594069487
:101B9800214620462DF01EFE8DF824808DF82570F4
:101BA8000A963046FEF76EFBADF82C000C95169B96
:101BB8000D932DF075F907904FF4FA730693204BA7
:101BC8000493CDF8149001251CE009F0DDF91D4BB4
:101BD80058221D491D4809F023FA09F0D5F9FEE7F6
:101BE80009F0D2F9174B59221749184809F018FA81
:101BF80009F0CAF9FEE7039BE3B10325FA202CF0AC
:101C0800E9FC0134042C15D804AA09A90B4B18685F
:101C18005BF0FEFE05460028F0D1039041F28833C0
:101C2800009303AB024601462DF000FB0128E2D0E9
:101C38000325E3E728460FB0BDE8F083000600203F
:101C4800DD1A010820FC0708F80D080868FC0708D9
:101C580000B583B048B10246002000900346012138
:101C6800FFF77CFF03B05DF804FB09F08DF9044B26
:101C780096220449044809F0D3F909F085F9FEE7EA
:101C880020FC0708F80D080868FC07082DE9F04152
:101C980084B020B30C4616461D46074651B3002BA8
:101CA80033D03A4B1B68002B3AD080202EF038FCFA
:101CB800804600283FD000943B46354A80216AF090
:101CC80041F97F2842D800220092334641462F48E6
:101CD800006805F019FD00284CD1012440E009F006
:101CE80053F92C4BA7222C492C4809F099F909F0F3
:101CF8004BF9FEE709F048F9264BA8222649274860
:101D080009F08EF909F040F9FEE709F03DF9214B99
:101D1800A9222149214809F083F909F035F9FEE79C
:101D280009F032F91B4BAA221B491C4809F078F923
:101D380009F02AF9FEE709F027F9164BAD221649F2
:101D4800164809F06DF909F01FF9FEE702940197AA
:101D58000095134BB7221049124809F061F9002485
:101D68000A202CF037FC40462EF0C0FC204604B078
:101D7800BDE8F081CDF8048000950B4BC8220649D8
:101D8800084809F04DF90024EAE700BF00060020E2
:101D9800080E080820FC0708F80D080868FC070862
:101DA800100E080880FE0708400E080810B582B01B
:101DB80090B10446D9B11D4A106818B300220092A8
:101DC8000B46214605F0A0FC38BB01240A202CF064
:101DD80001FC204602B010BD09F0D6F8144BDC22F5
:101DE8001449154809F01CF909F0CEF8FEE709F086
:101DF800CBF80F4BDD220F490F4809F011F909F014
:101E0800C3F8FEE709F0C0F8094BDE2209490A4881
:101E180009F006F909F0B8F8FEE70094074BE82244
:101E28000449074809F0FCF80024CFE70006002021
:101E380020FC0708F80D080868FC0708640E080865
:101E480080FE070830B583B048B30C4615460346F4
:101E580081B3002A39D02C4A1068002840D02B4A78
:101E680080216AF06FF840F2FF32294620466AF076
:101E7800AAFA002384F8FF332046FEF703FAB0F5E8
:101E8800806F38D2009023461F4A12680121002033
:101E9800FFF764FE0A202CF09DFB03B030BD09F06B
:101EA80073F81B4BF8221B491B4809F0B9F809F0D5
:101EB8006BF8FEE709F068F8154BF9221549164842
:101EC80009F0AEF809F060F8FEE709F05DF8104B8C
:101ED800FA221049104809F0A3F809F055F8FEE76E
:101EE80009F052F80A4BFB220A490B4809F098F806
:101EF80009F04AF8FEE7094B4FF48972054908488A
:101F080009F08EF8C6E700BF08060020880E08080A
:101F180020FC0708F80D080868FC0708A00E080848
:101F280080FE070861B30B46C96849B330B585B070
:101F38001C690CB905B030BD0025009501950295C6
:101F480003950F2C28BF0F24224668466AF0E9FB48
:101F580004F110030DEB030202F8105C094968460E
:101F6800FEF786F90028E5D1074B4C2207490848B7
:101F780009F056F82021074B18682AF061FAD9E7CA
:101F8800704700BFC80E0808D00E0808280F0808B8
:101F9800CC0708080406002038B598B30C46054657
:101FA80000293AD0FFF75CFA21462846FFF768F97E
:101FB80021462846FFF724F821462846FFF7B0FCBB
:101FC8002846FFF73DFD21462846FFF793F82146AE
:101FD8002846FFF739FC4FF47A702CF0FBFA144BC3
:101FE800186802232A460146FFF7C2FA114A214619
:101FF8002846FFF727FF104B94221049104809F094
:102008000FF838BD08F0C0FF0E4B5C220B490E4894
:1020180009F006F808F0B8FFFEE708F0B5FF094B2D
:102028005D220649084808F0FBFF08F0ADFFFEE70F
:10203800ACD20908C80E0808340F0808280F080889
:10204800CC07080820FC070868FC07082DE9F041C0
:1020580084B00023039305F04DF805F045F80028F7
:102068003DD0044605F004F82046FFF743FD03A9D8
:1020780000200BF049FD054600283BD04FF4806056
:102088002EF04EFA804600283FD080202EF048FAE5
:10209800844B1860002843D00095834BB9228349AC
:1020A800834808F0BDFF2AF0FCF8824B186000282E
:1020B80041D0814B814A82492846FFF7E7FD814B91
:1020C800814A82492846FFF7E1FD81498148FFF7A7
:1020D8006DFE41462846FFF75FFF0026B1E008F095
:1020E80053FF7D4BA82271497C4808F099FF08F0FE
:1020F8004BFFFEE708F048FF774BB1226B49774862
:1021080008F08EFF08F040FFFEE708F03DFF724B35
:10211800B4226649714808F083FF08F035FFFEE7EE
:1021280008F032FF6C4BB72260496C4808F078FF22
:1021380008F02AFFFEE708F027FF674BBC225B493F
:10214800664808F06DFF08F01FFFFEE7644BE822C1
:102158005649574808F064FF624B196800232A461D
:1021680061480068FFF704FA7BE0604BEE224F49B4
:102178004F4808F055FF5B4B196801232A465A4817
:102188000068FFF7F5F900230193022300932B461B
:102198004FF48062564957482BF0F8FE012663E059
:1021A800424F434E544BFE223946304608F038FF22
:1021B800524BFF223946304608F032FF0FF0EAFB57
:1021C800002654E04E4B40F207123849384808F0D0
:1021D80027FF41462846FFF7DFFE00264AE0494B25
:1021E80040F217123149324808F01AFF464A414670
:1021F8002846FFF727FE4FF47A702CF0EBF90FF022
:10220800C9FB14F0200700D1DCB9002E3FD115F02E
:1022180065F83E4BA3FB0023DB0B3D4A02FB130092
:102228002CF0D8F9002F3AD03A4B00933A4B40F2B1
:1022380029121E491E4808F0F3FE41462846FFF7BA
:10224800ABFE1C4B1C68FFF75BFC009000230122CF
:102258003F2120462AF034F8044610F0010F7FF49D
:1022680075AF14F0020F80D114F0040F98D114F058
:10227800080FA7D114F0100FC3D0002EAFD0274BF2
:1022880040F2131209490A4808F0CAFED9E7244B5C
:102298004FF491720549064808F0C2FED1E7214B78
:1022A800C3E700BF08060020780F0808280F0808B1
:1022B800CC07080804060020BC0F080861160108AE
:1022C800C80F0808D40F0808B1170108E40F080858
:1022D8002D1F0108F00F080820FC070868FC0708F4
:1022E80008100808FC050020ACD2090820100808CE
:1022F8003C100808DD1601084C100808641008088E
:1023080090100808D8100808E810080873B2E745C4
:10231800C0D40100600F080820110808AC10080894
:10232800F01008086C0F080870B582B006460D4614
:1023380008E00090114B4FF4B7721149114808F0AA
:102348006FFEC4B1002300930F4B324629460F4C51
:10235800206805F0D9F904460028EAD12846FDF797
:1023680091FF019500900A4B4FF4B972044909484E
:1023780008F056FEE5E7012002B070BD54110808C8
:10238800A811080880FE0708692401080C06002027
:10239800C8110808CC07080810B582B012490020F7
:1023A800FFF7C2FF88B111490020FFF7BDFF0446BF
:1023B800B8B90E4B01932F2300930D4B4FF4F172D4
:1023C8000C490D4808F02CFE0BE00446064B01931F
:1023D8002F230093064B40F2D9120649064808F00D
:1023E8001FFE204602B010BDE411080814120808A8
:1023F80044120808A811080880FE070810B582B022
:1024080012490020FFF790FF88B111490020FFF71B
:102418008BFF0446B8B90E4B0193452300930D4B2F
:102428004FF405720C490D4808F0FAFD0BE004461C
:10243800064B019345230093064B40F20B220649B5
:10244800064808F0EDFD204602B010BD7C120808D1
:10245800C412080844120808A811080880FE0708D2
:1024680030B585B00C463D4B40F229123C493D48F9
:1024780008F0D6FD0DF10F022189606852F0C2FF05
:1024880001280AD19DF80F300B3B072B59D8DFE8FC
:1024980003F011255858585830432389626801922F
:1024A8000093314B40F231122D49304808F0B8FD05
:1024B80005B030BD2E4B40F237122949294808F0A3
:1024C800AFFD2C4B01221A702269E1682A4B18686B
:1024D8006AF027F92269294B1A60E9E7284B4FF47B
:1024E800A1721F49274808F09BFD224B02221A704F
:1024F800DEE7254B4FF4A47219491A4808F090FDFD
:102508001E4D01232B602269E1681B4B18686AF095
:1025180008F923692B60CBE7114D1C4B40F253128D
:102528002946184808F07CFDE3680093184B40F2F0
:10253800551229460B4808F073FD104B02221A6009
:10254800B6E72389626801920093124B40F25B124E
:1025580003490C4808F064FDAAE700BF0C130808FB
:10256800A8110808CC07080828130808D80808087C
:102578005C1308081C06002018060020100600201E
:10258800B013080880FE0708041408084C1408084B
:10259800E85908089414080830B583B0054608E0DF
:1025A8000090114B40F287121049114808F038FD8D
:1025B800B4B100230F4A29460F48006805F0E6F930
:1025C80004460028ECD12846FDF75CFE01950090F2
:1025D8000A4B40F28B120549094808F021FDE7E74C
:1025E800012003B030BD00BFDC140808A81108089A
:1025F80080FE0708692401080C0600201015080849
:10260800CC07080810B582B01248FFF7C5FF04468A
:1026180010B1204602B010BD0E4B01932F2300933A
:102628000D4B4FF4F9720D490D4808F0F9FC0D48AF
:10263800FFF7B2FF04460028EBD10A4B01932F2382
:102648000093054B40F2FB120449054808F0E8FCEA
:10265800DFE700BFE411080830150808A8110808CA
:1026680080FE07081412080810B582B01148FFF759
:1026780093FF80B11048FFF78FFF0446B8B90E4B9F
:102688000193452300930D4B40F22E220C490D482F
:1026980008F0C6FC0BE00446064B01934523009363
:1026A800064B40F225220649064808F0B9FC2046A8
:1026B80002B010BD7C120808C412080830150808BA
:1026C800A811080880FE07082DE9F0418EB00746DA
:1026D8000C4616461D46002009900A900B900C9057
:1026E8000D900DF11C080790089004900590069035
:1026F800039001462DF06EF88DF824700A94204658
:10270800FDF7C0FDADF82C000C960D952CF0C8FB1C
:1027180007904FF4FA730693104B0493CDF8148086
:1027280002E09DF80C30ABB104AA09A90C4B18685B
:102738005BF06EF903460028F5D14FF0FF330093A4
:1027480003AB0022114610462CF070FD0128E8D09A
:102758000423E8E701200EB0BDE8F0816D270108E9
:102768000C060020006850B110B582B00024009417
:1027780003230A7821462CF0D7FD02B010BD70471C
:102788002DE9F04F8FB04FF480502DF0C9FE00288E
:1027980000F09B80044600230D934FF480502DF0E9
:1027A800BFFE0546002800F09C8040202DF0B8FEB2
:1027B8000746002800F0A1804FF480602DF0B0FE9D
:1027C8008046002800F0A58080202DF0A9FE8146D3
:1027D800002800F0AA804FF480502DF0A1FE814B14
:1027E8001860002800F0AD804FF480520021204688
:1027F80069F06EFD04F07EFC04F076FC7A4B1860FC
:10280800002800F0AA8004F033FC784B40F28222C2
:102818007749784808F004FC09A900200BF074F9FE
:1028280082460346744A8021484669F08BFB08A912
:1028380007200BF069F983464FF480530C9340232B
:102848000B934FF480630A9307A820F0CFF8002871
:1028580000F08F80694B40F299226549684808F07A
:10286800DFFB0026002E40F0DF80FFF7CBFEFFF7EE
:10287800FBFE20462DF03AFF28462DF037FF38465C
:102888002DF034FF40462DF031FF50462DF02EFF3D
:1028980048462DF02BFF58462DF028FF514B18685D
:1028A8002DF024FF002E40F07781564B40F2233262
:1028B8004F49504808F0B4FB00202BF079FB86F014
:1028C8000100C0B20FB0BDE8F08F08F05DFB4E4BC1
:1028D8004FF4107246494D4808F0A2FB08F054FB2B
:1028E800FEE708F051FB484B40F246224049474872
:1028F80008F096FB08F048FBFEE708F045FB424B62
:102908004FF413723A49414808F08AFB08F03CFB3F
:10291800FEE708F039FB3C4B40F2522234493B4871
:1029280008F07EFB08F030FBFEE708F02DFB364B85
:1029380040F25E222E49354808F072FB08F024FB6D
:10294800FEE708F021FB304B4FF41D7228492F4851
:1029580008F066FB08F018FBFEE708F015FB2A4BA9
:1029680040F27D222249294808F05AFB08F00CFB66
:10297800FEE7274B40F29E221D491E4808F050FBF7
:102988000DAB0293CDF804904FF480530093234687
:10299800204A2149079800F0F1F90646B8B11F4BC3
:1029A80040F2AF221249134808F03AFBFFF7F4FC53
:1029B800064600283FF459AF194B40F2B5220C499E
:1029C8000C4808F02DFBFFF719FD06464AE7154BA2
:1029D80040F2A32206490A4808F022FB079800F0B3
:1029E80017FB42E7180600200C0600206C150808A3
:1029F800A8110808CC070808AC150808B415080879
:102A080080FE0708B417080820FC070868FC0708B8
:102A1800D4150808E8150808F41508080416080865
:102A28005C16080824160808604B40F2BE2260496C
:102A3800604808F0F5FA604B00930D9B22464FF46E
:102A480000615E48006800F01FFB064600283FF45E
:102A58000CAF5B4B40F2C5225549564808F0E0FAE6
:102A6800554B1B68554A126856490020FFF72CFE43
:102A78000646002878D042F210702BF0ABFD524B7E
:102A880040F2D3224A494B4808F0CAFA0AAB0393EA
:102A9800CDF808800BAB019300970CAB2A464B4945
:102AA80009684648006800F027FC064600283FF4FD
:102AB800DCAE01970B9B0093454B40F2D9223C4971
:102AC8003C4808F0ADFA0C9B424A2946079800F0AA
:102AD800E9F90646FFF796FD002E3FF4C8AE374BDE
:102AE8001E684FF480520021304669F0F1FB324BEA
:102AF8000493089B0393CDF808B0099B0193CDF884
:102B080000A00A9B42464FF40061304600F038FBB3
:102B1800064600283FF4ABAE274B1B68274A1268CD
:102B28002D490020FFF7D0FD064648B340F6B830DF
:102B38002BF050FD8023099309AB524623490968BD
:102B48001E48006800F094FD064600283FF48FAE4A
:102B5800CDF804A0099B0093204B4FF4427214490E
:102B6800144808F05DFA82E6164B01932623009379
:102B78001B4B40F2CB220E491A4808F051FA74E672
:102B8800154B01933C230093154B40F2FA22084958
:102B9800144808F045FA6AE6012106200AF0FEFE0C
:102BA8000BF0A4FA0EF0F6FE7FE600BF84160808C4
:102BB800A8110808CC0708081406002018060020E9
:102BC80098160808AC160808D4160808100600203D
:102BD800201708084417080850170808901708080D
:102BE800E816080880FE07082DE9F04FABB00490FE
:102BF8008846164605934FF4825327930024289459
:102C08002994374A23AB07CA03C31A804FF0030934
:102C1800CDF8889001258DF887504FF4807BCDF84A
:102C280054B016944FF0040ACDF85CA04FF48573A5
:102C3800189319941A954FF4C0731B931C940A2384
:102C48001D93CDF878901F962021304669F0CEFB71
:102C5800209022AF16970DF18706199623AB1C9387
:102C6800CDF818B00794CDF820A009950A940B95D3
:102C780002230C930D940E954FF484730F931094C4
:102C88001195CDF84890CDF84C802021404669F048
:102C9800ADFB149007970A960D96109626A810F08B
:102CA80075FCA0B9269BD3F8F040059B0393349B91
:102CB80002930523019306AB0093042315AA27A9C1
:102CC8000498A047044620462BB0BDE8F08F044680
:102CD800044BBE220449054808F0A2F9F3E700BFF7
:102CE80040180808DC1708082C18080880FE070890
:102CF8002DE9F04784B007468A469046994603A8CE
:102D080010F044FC064640BB04464C452BD25AF80A
:102D180024502021284669F069FB024602AB009343
:102D280058F82430294638461FF0A4FE039BDB6D73
:102D38000299384698470646A8B92021284669F0DE
:102D480055FB024602AB009358F824302946384612
:102D58001FF090FE06460134D7E7054B6922054966
:102D6800054808F05DF9304604B0BDE8F08700BFBB
:102D7800DC1708082C18080880FE070870B58CB006
:102D880003900C4615461E4602203CF0CBFBDCB1F6
:102D98002DB3002E2ED0129B002B36D00AAB0093F9
:102DA8000BAB2A4621460398FFF71EFF002837D0B1
:102DB8004FF0FF343046FDF765FA129B1860B4FAFD
:102DC80084F040090CB070BD08F0DEF8314BE02209
:102DD8003149324808F024F908F0D6F8FEE708F03F
:102DE800D3F82C4BE1222C492C4808F019F908F0AB
:102DF800CBF8FEE708F0C8F8264BE2222649274818
:102E080008F00EF908F0C0F8FEE708F0BDF8214B0D
:102E1800E3222149214808F003F908F0B5F8FEE754
:102E28000B9A039908A80AF01BFC10B14FF0FF3465
:102E3800C0E704A851F0A0FF042104A851F0B0FF96
:102E4800802104A851F0C0FF044630B104A851F015
:102E580099FF08A83CF057FBACE7802104A851F083
:102E6800D5FF04460028F1D1119904A851F09CFF20
:102E780004460028EAD108A904A851F093FF03AB3F
:102E88000093074B109A314604A852F007F80446FD
:102E9800DCE700BF20FC07082C18080868FC0708B6
:102EA800B9D70108F0B5A1B006460D460392012234
:102EB8000D9200240C940B940A948DF82720494A0B
:102EC8000DF1180C07CA8CE807000594039AFAB1AB
:102ED80055B35C1C20460EF099FC0A94074668B36B
:102EE8000AAB0246214628461FF074FE78B33E4BD3
:102EF80040F241123D493E4808F092F8072417B1C4
:102F080038460EF0ECFCB4FA84F0400921B0F0BD6C
:102F180008F03AF8374B40F229123449364808F09D
:102F28007FF808F031F8FEE7344B40F22D122F49B4
:102F38002F4808F075F82F461324E0E7304B40F28D
:102F480047122A492A4808F06BF80224D7E70BA849
:102F580010F01CFB044600283CD100230E930DAC56
:102F68000F940425109540F20113119306A81290AE
:102F7800FDF788F913901123179318970A9B199353
:102F880003231A9303981B90202169F02FFA1C90B1
:102F9800802314930CAB1593169501231D930DF103
:102FA80027021E921F93224603A93046FFF7A0FE70
:102FB800039B0093134B4FF4B8720C49124808F066
:102FC8002FF80B9B5C6D05AB06220EA93046A04777
:102FD800044694E70D4B4FF4A9720449044808F0DD
:102FE8001FF88CE7F8180808681808082C1808084B
:102FF80080FE070820FC070868FC07084C1808082A
:1030080090180808D0180808CC070808DC17080822
:1030180010B582B004460023019301A810F0B6FA57
:10302800034648B9019B9B6B20469847034618B94D
:10303800019B9B6898470346B3FA83F0400902B0A6
:1030480010BD38B505460C460846FDF71BF9024683
:103058002146284624F057FB38BD000008B590F8F3
:103068000EC0BCF1600F02D125F0B4F808BD034BC7
:10307800034A4FF4F871034867F04CFEDCCC0808AB
:103088003CD0090804190808F0B58BB040B31646BF
:103098001C460746002A2ED0109B002B36D0002352
:1030A8000A46014606A824F00BFB012202A906A83D
:1030B80024F035FB0546002833D0002D3FD02846A4
:1030C80024F066FB0090274B55222749274807F034
:1030D800A7FF002D3FDBB5FA85F040090BB0F0BD26
:1030E80007F052FF224B34221F49224807F098FF6D
:1030F80007F04AFFFEE707F047FF1D4B35221A4944
:103108001C4807F08DFF07F03FFFFEE707F03CFF84
:10311800174B36221449174807F082FF07F034FF8F
:10312800FEE7154902A8FFF78CFF05460028C6D11F
:103138002246314602A824F0E6FA0546BDE702A970
:1031480006A824F0FAFA05460028B8D1069BDB1B2E
:10315800109A1360BFE7094B59220349034807F047
:103168005FFFB8E7D4190808A019080880FE070807
:1031780020FC070868FC0708B8190808F4190808AB
:103188002DE9F0418CB0129E58B315461F46804673
:10319800002A2CD0002E30D0149B002B33D0169B45
:1031A800002B36D000230A46014608A824F088FAE6
:1031B800022204A908A824F0B2FA044600282ED056
:1031C800002C3AD0204624F0E3FA01463D4868F046
:1031D80049FE002C72DBB4FA84F040090CB0BDE85B
:1031E800F081394B394A6A21394867F093FD394BE8
:1031F800364A6B21364867F08DFD374B334A6C21D0
:10320800334867F087FD354B304A6D21304867F009
:1032180081FD334B2D4A6E212D4867F07BFD3149E6
:1032280004A8FFF70EFF04460028CBD13A462946EA
:1032380004A824F068FA0446C2E72B4904A8FFF75B
:1032480000FF04460028BDD10222694604A824F0E4
:1032580066FA04460028B5D124496846FFF7F1FE0E
:1032680004460028AED1139A3146684624F04BFA3A
:1032780004460028A6D11E496846FFF7E2FE044628
:1032880000289FD1159A1499684624F03CFA044600
:10329800002897D1694604A824F04FFA044600286C
:1032A80090D104A908A824F048FA0446002889D136
:1032B800089BA3EB0803169A13608CE70D4868F087
:1032C80039FE88E7E81A0808381A080858D00908A3
:1032D8007C1908084C1A0808701A0808841A080883
:1032E800941A0808B01A0808FCE90808CC1A080853
:1032F800D81A0808081B0808F0B58FB0159D0028D3
:1033080063D016461C46002A6AD0002B73D0149B43
:10331800002B7BD0002D00F084802B683F2B40F2DF
:103328008B80169B002B00F09280179B002B00F0DF
:10333800998008AB00930CAB002224F0D9FD074616
:10334800002840F09A809DF82E30A02B00F09F8036
:10335800A74BDC22A749A84807F062FE87BB04AA4E
:10336800A64908A824F0AAFF0746002840F0DA80FA
:103378009DF81E30FF2B00F0E080602B00F0E58008
:103388009F4B40F20D129B499B4807F049FEBFB97D
:1033980004AA9C4908A824F091FF0746002840F099
:1033A800FC809DF81E30FF2B00F00281602B00F09E
:1033B8000781954B4FF497728E498F4807F030FE7E
:1033C800B7FA87F040090FB0F0BD07F0DDFD8F4B6D
:1033D800C82288498E4807F023FE07F0D5FDFEE78E
:1033E80007F0D2FD894BC9228249894807F018FEA7
:1033F80007F0CAFDFEE707F0C7FD844BCA227D49E6
:10340800834807F00DFE07F0BFFDFEE707F0BCFD9F
:103418007E4BCB2277497E4807F002FE07F0B4FDC9
:10342800FEE707F0B1FD794BCC227249784807F0E6
:10343800F7FD07F0A9FDFEE707F0A6FD734BCD22C7
:103448006C49734807F0ECFD07F09EFDFEE707F0B6
:103458009BFD6E4BCE2267496D4807F0E1FD07F0F2
:1034680093FDFEE707F090FD684BCF22614968485D
:1034780007F0D6FD07F088FDFEE724F089F90090F3
:10348800644BD8225B495C4807F0CAFD66E704AA8A
:10349800614908A824F012FF074660B99DF81E305C
:1034A800FF2B12D0602B17D05C4BEC2251495248AD
:1034B80007F0B6FD52E724F06BF90090584BE42270
:1034C8004C494D4807F0ACFD48E7564BE8224949BE
:1034D800494807F0A5FD41E700232246314604A8E4
:1034E800FFF7BCFD0746B0F1004F0CD000283FF4B1
:1034F80036AF24F04DF900904B4BFA223D493E4837
:1035080007F08EFD2AE70023039303A904A824F0FB
:10351800CBFE039B0093454BF6223649364807F00D
:103528007FFD1BE724F034F900903D4B40F2051273
:103538003049314807F074FD29E73D4B40F2091244
:103548002C492D4807F06CFD21E700232A461499E1
:1035580004A8FFF783FD0746B0F1004F0DD00028FF
:103568003FF416AF24F014F90090324B40F21B12CE
:103578002049214807F054FD09E70023039303A9D4
:1035880004A824F091FE039B00932B4B40F21712E2
:103598001849194807F044FDF9E624F0F9F80090B5
:1035A8001F4B4FF493721349134807F039FD07E78F
:1035B800224B4FF495720F490F4807F031FDFFE693
:1035C8000023179A169904A8FFF748FD0746B0F19B
:1035D800004F37D000283FF4F3AE24F0D9F800901C
:1035E800174B4FF49E720349034807F019FDE7E6AD
:1035F800881B0808A019080880FE0708541D080839
:10360800A41D0808B01A0808D81E080820FC0708D6
:1036180068FC0708401B0808D01B08085C1C080841
:10362800E01B0808181C0808001D0808BC1C08082E
:10363800641D0808381E0808F01D08088C1E0808B4
:10364800981F08080023039303A904A824F02CFE5C
:10365800039B0093034B4FF49C720349034807F004
:10366800DFFCADE6301F0808A019080880FE07082F
:1036780070B58EB0E0B115461C462AB383B308ABCB
:1036880000930CAB002224F033FC0646002833D10B
:103698009DF82E30A02B3AD0444B4FF4AF724449DA
:1036A800444807F0BDFCB6FA86F040090EB070BD7C
:1036B80007F06AFC404B40F24F123D493F4807F083
:1036C800AFFC07F061FCFEE707F05EFC3A4B4FF4F5
:1036D800A8723749394807F0A3FC07F055FCFEE704
:1036E80007F052FC344B40F251123149334807F08D
:1036F80097FC07F049FCFEE724F04AF80090304BAD
:103708004FF4AD722A492B4807F08AFCCBE704AA8C
:103718002C4908A824F0D2FD064668B99DF81E3049
:10372800FF2B14D0602B1AD0274B4FF4B7722049C7
:10373800204807F075FCB6E724F02AF80090234BE0
:103748004FF4B3721A491B4807F06AFCABE7204BE9
:103758004FF4B5721649174807F062FCA3E7002337
:103768002246294604A8FFF779FC0646B0F1004F27
:103778000CD0002897D024F00BF80090154B4FF48C
:10378800BE720B490B4807F04BFC8CE700230393F0
:1037980003A904A824F088FD039B00930E4B4FF463
:1037A800BC720349034807F03BFC7CE73420080857
:1037B800A019080880FE070820FC070868FC07080D
:1037C800F81F08085C200808C820080868200808AE
:1037D8009420080848210808082108080120704793
:1037E80030B585B0F8B104461C4B03611C4B4361EE
:1037F8004068223080B2208301302CF091FEE060D6
:10380800F8B10DF10E03019303230093A388A26876
:10381800218B51F0FBFB0546228BBDF80E309A42F6
:103828000CD000250EE007F0AFFB0E4BFE220E4930
:103838000E4807F0F5FB07F0A7FBFEE7012801D1CA
:1038480006E00025E06818B12CF050FF0023E36083
:10385800012D14BF0020012005B030BDB821080893
:10386800E821080820FC0708A721080868FC0708C1
:1038780070B582B0044600901C4B01220169006AB1
:1038880003F042FFD0B90094194B01226169206A04
:1038980003F03AFF054618B3164E174B4FF4A072C3
:1038A8003146164807F0BCFB63690093144B4FF48C
:1038B800A2723146134807F0B3FB11E005460D4EDE
:1038C8000D4B4FF4997231460C4807F0A9FB236958
:1038D80000930B4B4FF49B7231460A4807F0A0FB4C
:1038E800B5FA85F0400902B070BD00BF4139010842
:1038F80011390108A72108081822080868FC0708D8
:10390800640E080880FE0708C269A2B110B582B02B
:1039180004460B460969D868FFF760FF48B10222E0
:10392800002300930323012120682BF0FDFC02B043
:1039380010BD0322F4E77047C269A2B110B582B086
:1039480004460B460969D868FFF748FF48B10122C9
:10395800002300930323012120682BF0E5FC02B02B
:1039680010BD0322F4E7704730B583B00C46054616
:1039780038B16CB11DB114B1EB69012B0FD003B094
:1039880030BD0B4BDD220B490B4807F049FBF0E734
:10399800074BDE220749084807F042FBEAE7002305
:1039A800009303232278022128682BF0BDFCE6E768
:1039B80018220808A721080868FC070838B5054632
:1039C8000C460846FCF75EFC02462146284623F0D2
:1039D8009AFE38BD30B585B0002835D0044639493F
:1039E800FFF7ECFF054600283AD14FF0FF32694651
:1039F800204623F094FE054600283BD1684600F097
:103A0800B7FC054600283DD1684600F06FFD054625
:103A180000283FD1684600F021FE0546002841D124
:103A2800684600F0D3FE0546002843D16946204683
:103A380023F083FE0546D0B1234B4FF4F57223499A
:103A4800234807F0EDFA12E007F09EFA214B4FF4F5
:103A5800E2721E491E4807F0E3FA07F095FAFEE7FE
:103A6800194B40F2C7121949194807F0D9FA2846E4
:103A780005B030BD144B4FF4E6721449144807F0F2
:103A8800CFFAF4E7104B4FF4E9721049104807F0E9
:103A9800C7FAECE70C4B4FF4EC720C490C4807F0F2
:103AA800BFFAE4E7084B4FF4EF720849084807F0FB
:103AB800B7FADCE7044B4FF4F2720449044807F004
:103AC800AFFAD4E73422080818220808A721080802
:103AD80068FC070820FC070830B587B0002303936B
:103AE8000493059302931A4B01241C70C5685D600A
:103AF800B0F818C0A3F808C0D9601A6142F2107271
:103B08000592144A03920490C46103AA1946006AF4
:103B180059F07EFF029028B10298B0FA80F040096F
:103B280007B030BD0823029347F23053009302AB2D
:103B38004FF0FF32002102202BF078FB0028EBD158
:103B4800054B40F21A220549054807F069FAE3E7F0
:103B5800200600207139010838220808A721080822
:103B680080FE070810B5044603460F4A0169006A3B
:103B780003F00CFF38B923460C4A6169206A03F048
:103B880005FF40B910BD0A4B4FF4AA7209490A480B
:103B980007F046FAEFE7064B4FF4AE7205490648C0
:103BA80007F03EFAEEE700BF413901081139010874
:103BB80018220808A721080868FC070810B5044659
:103BC800806808B12CF092FDE06808B12CF08EFDF9
:103BD80024220021204668F07BFB10BD70B5ADF5AE
:103BE8008C6D242200210DF23C4068F071FB00240A
:103BF800A84B1C604FF4806221460FA868F068FB50
:103C08000DF58861204609F07FFFCDF84404CDF812
:103C180058442BF045F9CDF83C04DDF84434F3B1B1
:103C2800DDF84034EBB14FF6FE72934201D900241F
:103C380018E00DF23C40FFF7D3FD044690B9964DCD
:103C4800964B40F24D222946954807F0E9F9954BE5
:103C580040F255222946944807F0E2F902E0002490
:103C680000E0002403F046FA03F03EFACDF85C04C5
:103C78001CB9884B01221A605BE00DF23C40FFF74B
:103C8800F7FD044648B1894B40F2672282498848CB
:103C980007F0C6F9002C4CD1EBE77F4D7F4B40F283
:103CA800632229467E4807F0BBF9824B40F26B221B
:103CB80029467D4807F0B4F9ECE7784B4FF42172B8
:103CC8007549774807F0ACF97B4B40F2BD22724941
:103CD800754807F0A5F994B9039C0FAD641B774BA1
:103CE80040F2C6226C49724807F09AF922462946E2
:103CF8000DF23C40FFF7F0FE002800F0C28047F2CA
:103D08003053009302AB4FF0FF32002101202BF01B
:103D18008DFA012800F0E4800023CDF85834684B70
:103D280040F2E9225C49604807F07AF965482AF0D0
:103D380051FC584B1B68002B40F0EC802AF0ACFA81
:103D48000646002502952B464FF480620FA903A86A
:103D580023F0B6FC4FF0FF3207A903A823F0DFFCDD
:103D680004460028A9D1584907A8FFF727FE0446AA
:103D7800002846D102220BA907A823F0D0FC04464C
:103D8800002846D151490BA8FFF718FE0446002821
:103D980047D132462B460BA823F099FC044348D15F
:103DA8004B490BA8FFF70AFE00284AD149490BA83E
:103DB800FFF704FE044600284BD10BA907A823F0FF
:103DC800BCFC044600284CD1434B4FF42C723249BA
:103DD800374807F025F907A8FFF7FCFD0446002837
:103DE80047D107A903A823F0A8FC044600283FF4FC
:103DF80073AF2A4B4FF42E722749294807F010F960
:103E080062E7264B40F289222349254807F008F942
:103E18005AE7224B4FF424721F49214807F000F952
:103E280052E71E4B40F297221B491D4807F0F8F84D
:103E3800AFE71A4B40F29A221749194807F0F0F8F1
:103E480042E7164B40F2A1221349154807F0E8F85B
:103E5800ACE7124B4FF429720F49114807F0E0F80C
:103E680032E70E4B40F2AA220B490D4807F0D8F86A
:103E78002AE70A4B40F2B2220749094807F0D0F86E
:103E880022E7164B4FF433720349074807F0C8F886
:103E980035E700BF34060020A721080818220808C3
:103EA80068FC07085422080880FE070878220808DA
:103EB800CC070808AC2208080423080828230808A7
:103EC800B0230808E0930400E8580908DC22080831
:103ED80028810808E0220808E42208084C2308087A
:103EE8009DF808300022CDF85824012B0AD0022B67
:103EF8007FF415AF124B40F2E3221249124807F043
:103F08008FF813E7114B40F2DF220E49104807F0F3
:103F180087F80BE70F4B40F2F1220A490E4807F0E9
:103F28007FF80DF23C40FFF71DFE0DF23C40FFF715
:103F380045FE00202AF03CF80DF58C6D70BD00BFE1
:103F480094230808A721080880FE07087823080892
:103F5800CC070808D8230808E4230808054B1B6881
:103F6800002000E0DB6823B11A7D012AFAD1013074
:103F7800F8E7704730D90620044B1B68002001E0A1
:103F88000130DB68002BFBD1704700BF80D90620C9
:103F9800044B1B68002001E00130DB68002BFBD1DB
:103FA800704700BF2CD9062038B505460C46084690
:103FB800FCF768F902462146284623F0A4FB38BDE1
:103FC80070B505461646FFF7EFFF0446314628460A
:103FD800FFF7EAFF204370BDF8B5054617461E46B1
:103FE800FFF7E2FF04463A463346284623F06FFBC4
:103FF8002043F8BD08B560B9074B1B6823B193F897
:104008003C005EF0CBFB08BD044B1868086008460E
:10401800F9E75EF0C3FBF6E74CD70620E82308086B
:10402800F0B587B020B10646304B1C68002511E07A
:1040380006F0AAFF2E4BDB222E492F4806F0F0FF90
:1040480006F0A2FFFEE72D4BE8222A492A4806F08F
:10405800E7FFE468002C45D000230093ADF8043056
:104068006946207AFFF7C6FF074628B3022202A94D
:10407800304623F054FB05460028E4D13A4620494F
:1040880002A8FFF79DFF054668B9E28A00231D498B
:1040980002A8FFF7A1FF0546E8B902A9304623F0B8
:1040A8004CFB0546D5E7154BED221249124806F0A0
:1040B800B7FF002DCDD1E8E7012202A9304623F051
:1040C8002EFB05460028E0D00C4BF32209490A488C
:1040D80006F0A6FFEDE7094BF9220649064806F067
:1040E8009FFFB6E7284607B0F0BD00BF30D90620CD
:1040F80020FC07080724080868FC07081822080895
:10410800B8C5090820240808F0B587B020B10646CC
:10411800324B1C68002513E006F036FF304B40F2A6
:104128006B123049304806F07BFF06F02DFFFEE7A2
:104138002E4B4FF4BC722B492B4806F071FFE468F4
:10414800002C48D000230093ADF804306946207A4B
:10415800FFF750FF074630B3022202A9304623F08A
:10416800DEFA05460028E3D13A46214902A8FFF7BE
:1041780027FF054668B9628A00231E4902A8FFF78F
:104188002BFF0546F8B902A9304623F0D6FA0546B2
:10419800D5E7164B40F27D121249134806F040FF4E
:1041A800002DCCD1E7E7012202A9304623F0B7FA67
:1041B80005460028DFD00D4B40F2831209490A4812
:1041C80006F02EFFECE7094B40F289120549064834
:1041D80006F026FFB3E7284607B0F0BD80D90620D1
:1041E80020FC07080724080868FC070818220808A4
:1041F800B8C5090820240808F8B505460C46104635
:104208001F460A46294665F057FE68B121462846EA
:1042180068F0ECF806463B46094A211A281867F068
:1042280091FE3044844208D2064B40F20A220649E5
:10423800064806F0F5FE0020F8BD0120FCE700BFA7
:1042480024240808182208080724080868FC070816
:1042580070B58EB020B106463D4B1C6800251BE0AA
:1042680006F092FE3B4B40F212223B493B4806F0D7
:10427800D7FE06F089FEFEE7394B4FF40772364940
:10428800364806F0CDFE6946207AFFF7B3FE0246AF
:1042980000283BD065B3E468002C56D01D220021CD
:1042A80006A868F015F800230093ADF8043003223F
:1042B80002A9304623F033FA05460028DCD1238BC7
:1042C800221D1D2106A8FFF797FF08B90125DAE787
:1042D80006AA244902A8FFF773FE05460028D2D093
:1042E8001F4B4FF409721C491C4806F099FECAE797
:1042F8001D4902A8FFF764FE054680B1184B4FF42C
:104308000D721549154806F08BFEC4E7144B40F2B0
:104318003A221149114806F083FE0125BBE7E28ADB
:104328000023124902A8FFF757FE054628B902A93B
:10433800304623F002FA0546ADE7094B40F2412228
:104348000549064806F06CFEA5E728460EB070BD84
:104358002CD9062020FC07080724080868FC070851
:10436800182208082C2408083024080834240808CF
:104378002DE9F04F89B00390A0B15049039C204625
:10438800FFF712FE0290C0B9042204A9204623F0C8
:10439800C6F90290B8B14A4B78224A494A4806F011
:1043A8003FFE10E00090494B64224649484806F019
:1043B80037FE40F20723029337E0414B732241490D
:1043C800414806F02DFE434866F082FB424B1B68CD
:1043D8000024264625462746A046A246A146A346CF
:1043E8001CE09A6C12EB090291464BF1000B1A6E15
:1043F80012EB080290464AF1000A1A6D521947F169
:104408000007DD6CAD1847F100075A6E121946F126
:1044180000069C6EA41846F100061B68002BE0D12C
:104428002C4866F05FFB029B1BB1029809B0BDE8FF
:10443800F08F2A463B46294904A8FFF7CDFD029D87
:1044480005431FD122463346254904A8FFF7C4FD7A
:1044580028431ED14A465B46224904A8FFF7BCFD03
:104468000446E8B9424653461F4904A8FFF7B4FD7D
:1044780054EA000302931AD104A9039823F05DF9C2
:104488000290D2E70E4B92220E490F4806F0C8FD63
:10449800D8E70B4B95220B490B4806F0C1FDD9E72D
:1044A800074B98220749084806F0BAFDDAE7044B9B
:1044B8009B220449044806F0B3FDB6E75C240808CB
:1044C800182208080724080868FC07083824080880
:1044D80080FE0708AC73052050D706206024080822
:1044E80064240808A05008086824080870B58AB031
:1044F8000646D8B1504866F0EBFAFFF72FFD05469F
:104508004E493046FFF750FD0446D0B90DBB012295
:1045180002A9304623F003F9044608B3484B40F299
:1045280027124849484806F07BFD31E00090474B88
:104538004FF487724349464806F072FD40F207245B
:104548001CE03F4B4FF48D723E493F4806F068FD32
:104558000EE0022202A9304623F0E1F8044680B9B1
:104568002A4600233B4902A8FFF736FD044690B9C6
:10457800002D38D0BCB1304866F0B4FA20460AB0F5
:1045880070BD2F4B4FF491722E492F4806F048FD0D
:10459800002CEDD1E4E72A4B40F22F1229492A4892
:1045A80006F03EFDE4E72C4902A8FFF7FDFC0446AF
:1045B80050BB2A4606A902A823F0ACF8044658BB0B
:1045C80006A8FFF72DFD044600282DD106A902A84C
:1045D80023F0B3F8044640B1194B4FF4A5721949BA
:1045E800194806F01DFD002CC5D102A9304623F05C
:1045F800A4F804460028BED0114B40F251121149CC
:10460800114806F00DFDB6E70D4B4FF49C720D49AD
:104618000D4806F005FDAEE7094B4FF49F720949B6
:10462800094806F0FDFCA6E7054B4FF4A2720549C0
:10463800054806F0F5FC9EE7AC73052094240808AD
:10464800182208080724080868FC07086C240808CA
:1046580080FE0708E4BC08089824080870B58AB0EA
:104668000646D8B1504866F033FAFFF785FC054690
:104678004E493046FFF798FC0446D0B90DBB0122DD
:1046880002A9304623F04BF8044608B3484B40F2E1
:10469800B7124849484806F0C3FC31E00090474B40
:1046A8004FF4CF724349464806F0BAFC40F207245B
:1046B8001CE03F4B4FF4D5723E493F4806F0B0FC32
:1046C8000EE0022202A9304623F029F8044680B9F8
:1046D8002A4600233B4902A8FFF77EFC044690B90E
:1046E800002D38D0BCB1304866F0FCF920460AB03D
:1046F80070BD2F4B4FF4D9722E492F4806F090FC0D
:10470800002CEDD1E4E72A4B40F2BF1229492A4890
:1047180006F086FCE4E72C4902A8FFF745FC0446AE
:1047280050BB2A4606A902A822F0F4FF044658BB4B
:1047380006A8FFF7E9FC044600282DD106A902A81F
:1047480022F0FBFF044640B1194B4FF4ED721949B2
:10475800194806F065FC002CC5D102A9304622F0A4
:10476800ECFF04460028BED0114B40F2E11211497B
:10477800114806F055FCB6E70D4B4FF4E4720D49AD
:104788000D4806F04DFCAEE7094B4FF4E7720949B6
:10479800094806F045FCA6E7054B4FF4EA720549BF
:1047A800054806F03DFC9EE7AC7305209C240808EC
:1047B800182208080724080868FC07086C24080859
:1047C80080FE0708E4BC08089824080870B58EB075
:1047D800064660B3694866F07BF9FFF7D9FB0546E2
:1047E80067493046FFF7E0FB044658BB012202A99F
:1047F800304622F094FF0446002834D1614902A8CB
:10480800FFF7D2FB0446002835D1002D3BD1012209
:1048180006A902A822F083FF044600283AD05A4B82
:104828004FF41F7259495A4806F0FAFB4AE00090C3
:10483800584B40F255225549574806F0F1FB40F2D3
:1048480007240DE0504B40F262225049504806F0D0
:10485800E7FB002D5BD0002C37D0484866F042F9C2
:1048680020460EB070BD484B4FF41A72474948486D
:1048780006F0D6FBEDE7444B40F26E22434944482C
:1048880006F0CEFBE5E7022206A902A822F047FFC0
:10489800044680B92A460023404906A8FFF79CFB36
:1048A80004460028D5D0384B4FF421723749384890
:1048B80006F0B6FBCDE7344B40F277223349344853
:1048C80006F0AEFB002CC4D1E4E7354906A8FFF793
:1048D8006BFB0446002831D12A460AA906A822F013
:1048E80019FF0446002831D10AA8FFF7B1FC044695
:1048F800002833D10AA906A822F01FFF044640B1B8
:10490800214B40F29F222149214806F089FB002CC7
:10491800A3D106A902A822F010FF044630BB02A9C1
:10492800304622F00AFF0446002896D0164B4FF472
:104938002B721649164806F073FB8EE7124B40F2AD
:104948008D221249124806F06BFB86E70E4B40F2A7
:1049580093220E490E4806F063FB7EE70A4B40F2AD
:1049680099220A490A4806F05BFB76E7064B40F2B3
:10497800A6220649064806F053FB6EE7AC730520ED
:10498800A0240808A42408081822080807240808EE
:1049980068FC07086C24080880FE0708E4BC0808BF
:1049A800A824080830B54FF0000E4FF00C0C09E0B1
:1049B80010F80C302F2B13D0002010E00EF1010E50
:1049C8000CF1010C8C4509D29E45F1D012F80E501D
:1049D80010F80C40A542F1D0002000E0002030BDC6
:1049E8000120FCE70B4B03604FF482728280991818
:1049F8008160828103F5027202618022828203F55E
:104A0800227181614FF40061C16103F6882303625A
:104A1800828470474006002008B551F0A7FC0228A0
:104A280006D007DB0438C0B2032805D9002002E00D
:104A3800012000E0002008BD0120FCE708B551F086
:104A480005FC002029F0B4FA08BD000008B50028CC
:104A580028D01A4A02601A4A42601A4A82601A4AE0
:104A6800C2601A4A42611A4A82611A4AC2611A4AE3
:104A780002621A4A42621A4A82621A4A02631A4A4D
:104A8800C2621A4AC2651A4A82651A4AC2641A4A36
:104A980002651A4A82641A4A42651A4A02641A4A24
:104AA800426408BD06F070FA184B40F2C342184938
:104AB800184806F0B5FA06F067FAFEE761890608B5
:104AC800AD890608ED890608498A06085D8A060840
:104AD800918B0608FD8B06086D8C0608758C0608F8
:104AE8003D500108ED500108914F0108557D02081D
:104AF80001800208457C0208917E0208958102081F
:104B0800E17D020889820208E17A020820FC070890
:104B1800C224080868FC070838B598B10C46054651
:104B280000F500534FF0FF31D3F80C0A28F0ACF928
:104B3800012813D00F4B40F2F1120F490F4806F02D
:104B48006FFA38BD06F020FA0D4B4FF4F4720A499B
:104B58000C4806F065FA06F017FAFEE7002184F81B
:104B6800001E05F500550B460A46D5F80C0A27F035
:104B7800F5FEE6E7D4240808C224080880FE0708E2
:104B880020FC070868FC070810B582B007285DD824
:104B9800DFE800F004171F3B4C5C5C54304C314B91
:104BA80040F2DE222146304806F03AFA52F04EFD35
:104BB8002E4B40F2EB2221462D4806F031FA02B086
:104BC80010BD2C4B40F2F3222549274806F028FA5D
:104BD800F5E7294B40F2FF222149234806F020FA45
:104BE800022052F065FB38B9244B40F226321C49AA
:104BF8001D4806F015FAE2E70090214B40F22A32F0
:104C080017491B4806F00CFAD9E719B11D48FFF7F8
:104C180083FFD4E706F0B8F91B4B40F23232104953
:104C28001A4806F0FDF906F0AFF9FEE7184B4FF405
:104C38004F720B490E4806F0F3F9C0E7154B4FF4D5
:104C480050720749084806F0EBF9B8E70090124B94
:104C58004FF451720249114806F0E2F9AFE700BF7C
:104C6800C2240808F4240808CC0708082C250808DA
:104C780080FE07084C25080888250808C02508086C
:104C8800F42508084811002020FC070868FC0708DC
:104C98002C2608086C26080880260808D808080862
:104CA80038B5B0B1054600F500534FF0FF31D3F8E1
:104CB8000C0A28F0E9F801282BD10023022B1CD874
:104CC80040F6046202FB035292F8002E6AB10133E7
:104CD800F4E706F059F9134B4FF4FE7212491348E2
:104CE80006F09EF906F050F9FEE740F6046202FB72
:104CF8000354012384F8003E00E0002405F5005524
:104D080000231A461946D5F80C0A27F027FE204634
:104D180038BD074B40F20E220349064806F080F9D9
:104D28000024F4E720FC0708C224080868FC0708E8
:104D3800D424080880FE0708F0B585B00023029344
:104D48000393002932D00C46344B1D68002D39D00E
:104D58004F680E892846FBF795FA03462A463146DE
:104D68003846FFF71FFE01284CD1236940F6FA5256
:104D780093423BD800932A4B40F2993229492A485A
:104D880006F04EF92948FFF78BFF054630B3226934
:104D9800E16867F0C6FC2369C5F8FC3D03238DF87C
:104DA8000C30029502A851F0FDFC34E006F0ECF856
:104DB8001F4B40F28D321B491E4806F031F906F0B0
:104DC800E3F8FEE706F0E0F8194B40F28E32154999
:104DD800184806F025F906F0D7F8FEE7164B4FF409
:104DE8006A721049154806F01BF914E040F6FA52A9
:104DF80001920093124B40F2AD320A490F4806F077
:104E08000FF908E0019700960E4B40F2B2320549BF
:104E18000D4806F005F905B0F0BD00BF3C060020BE
:104E2800C0260808C2240808CC0708084811002032
:104E380020FC070868FC0708E826080880FE070821
:104E48001027080868270808D808080870B584B02B
:104E580000230293039329B30C464E680D89274B10
:104E68001B68274A126829463046FFF79BFD012830
:104E780038D1236940F6FA52934227D82148FFF7E0
:104E88000FFF0546D0B12269E16867F04AFC236943
:104E9800C5F8FC3D06238DF80C30029502A851F0A8
:104EA80081FC28E006F070F8174B40F2553217499C
:104EB800174806F0B5F806F067F8FEE7154B40F21C
:104EC80071321249144806F0ABF814E040F6FA5271
:104ED80001920093114B40F276320C490E4806F0CD
:104EE8009FF808E0019600950D4B40F27D32074986
:104EF8000C4806F095F804B070BD00BF38060020D5
:104F08003C0600204811002020FC0708C22408089D
:104F180068FC0708E826080880FE0708C027080874
:104F28000C280808D808080870B584B0054600237E
:104F38008DF80F308CB20DF10F03009314230E4A35
:104F4800214656F03FF89DF80F3023B9002623B1CB
:104F5800304604B070BD094EF9E70DF10F03009318
:104F68001723074A2146284656F02CF89DF80F309B
:104F7800002BEDD0034EEBE764280808414D0108EB
:104F88007C280808554E010870B584B070B10C46ED
:104F98000546B9B905F0F8FF1F4B40F297421F4983
:104FA8001F4806F03DF805F0EFFFFEE705F0ECFFBF
:104FB800194B40F296421949194806F031F805F0A4
:104FC800E3FFFEE7FFF7B0FF064602F08DF8F8B101
:104FD80006B300233246294602F0D8FC064658B9E3
:104FE800019500940F4B40F2B4420C490E4806F06C
:104FF80017F8304604B070BD0290019500940B4B31
:1050080040F2AB4205490A4806F00AF8A226F0E742
:10501800A226EEE7A226ECE720FC0708C22408082F
:1050280068FC0708CC280808CC0708089428080852
:1050380080FE0708F0B583B078B10C4615460646E1
:10504800B9B905F0A1FF204B40F21B421F49204887
:1050580005F0E6FF05F098FFFEE705F095FF1A4B0F
:1050680040F21A4219491A4805F0DAFF05F08CFF98
:10507800FEE7FFF759FF074602F036F8F8B107B325
:10508800002300933B462A46314602F03DFB054685
:1050980058B9019600940F4B40F237420B490E481D
:1050A80005F0BEFF284603B0F0BD00900B4B4FF44F
:1050B800866206490A4805F0B3FFA125F2E7A12553
:1050C800F0E7A125EEE700BF20FC0708C224080886
:1050D80068FC0708C8110808CC0708085411080814
:1050E80080FE070870B58CB005460C460020079076
:1050F800089009900A900B900490059006900390F0
:1051080002900895ADF824109DF840108DF81C10F9
:105118000A920B9301462AF05DFB29F0C1FE02902A
:1051280042F2107306931B4B049302AB059301F0F4
:10513800DBFF60B304AA07A958F06AFC064660B909
:1051480042F21073009303AB4FF0FF320021084680
:105158002AF06CF801280CD0032600960E4B40F27A
:105168007D420E490E4805F05BFFA02630460CB084
:1051780070BD9DF80C60002EEFD101950094094B8D
:1051880040F282420549084805F04AFFEEE7A026AA
:10519800ECE700BFB5510108EC280808C22408084C
:1051A80080FE070828290808CC07080800B583B03E
:1051B80060B10A460068A8B101B300210091032339
:1051C80012782AF0B1F803B05DF804FB05F0DCFEB4
:1051D800104B40F207421049104805F021FF05F036
:1051E800D3FEFEE705F0D0FE0A4B4FF481620A4970
:1051F8000A4805F015FF05F0C7FEFEE705F0C4FEF6
:10520800044B40F209420449044805F009FF05F03F
:10521800BBFEFEE720FC0708C224080868FC070854
:1052280010B578B1044642F60C22002167F050F818
:10523800012027F05FFC04F50054C4F80C0A00B103
:10524800012010BD05F0A0FE044B40F2D512044920
:10525800044805F0E5FE05F097FEFEE720FC070888
:10526800C224080868FC070830B5B3B0002430949D
:105278003194382221460AA867F02AF818A8FFF7BF
:10528800E5FB0AA8FFF7AEFB7C4BDA7899781B8818
:105298000293019100927A4B4FF4A66279497A48B9
:1052A80005F0BEFE7949204608F02EFC784B1860C0
:1052B80010B1764B1B6813BB764B40F24F527149C5
:1052C800754805F0ADFE00231C46002B40D1012592
:1052D800724B40F2CA526B496B4805F0A1FE002D93
:1052E80000F0BA806A4B186820B12BF0FFF9684BC0
:1052F80000221A60002028F05BFE33B030BD684BF6
:1053080040F256525F49604805F08AFE654B0093AB
:105318000123002220216448006826F0D1FF10F004
:10532800200F0BD0614B4FF4AC625649564805F03C
:1053380077FE01F0D9FE04460123C6E75C4B40F234
:1053480066525049504805F06BFE01230024BCE723
:1053580084B100220092574B5749204602F0D4F9F5
:10536800054640B1554B40F2755246494A4805F04A
:1053780057FEADE7012544B1002200924D4B50493C
:10538800204602F0C1F90546A8B94E48FFF748FF84
:1053980001289DD14C4B3E4A126818A90AA850F022
:1053A80077FF80B10090494B40F2975235493A480F
:1053B80005F036FE8CE7464B40F2855231493648B7
:1053C80005F02EFE84E700230193032200924FF498
:1053D80080524049404828F0D9FD012808D0009063
:1053E8003E4B40F2A65227492B4805F019FE6FE7BD
:1053F80000238DF8C43030A851F0D4F908E047F202
:10540800305029F0E7F850F0B1FF0A283FF460AFB8
:1054180000230693079308930993FFF7FDFA0128E1
:10542800EDD106A850F0A8FF0028E8D150F09EFF63
:10543800099B0493089B0393079B0293069B019384
:10544800274B53F820300093264B40F2BD520D49AC
:105458000D4805F0E5FDD2E70023164A1649204617
:1054680002F094FA00283FF43DAF1F4B40F2D552AA
:105478000449094805F0D4FD34E700BFACD2090857
:1054880058290808C2240808CC070808380600204C
:105498003C0600208029080880FE07088C2B080895
:1054A800B0290808C0D40100FC860020D8290808C3
:1054B800002A0808414D0108342A0808542A080817
:1054C800902A080848110020914B0108E02A080892
:1054D800B02A0808102B0808454A01081C2B0808A0
:1054E80078D00908482B0808B82B080808B5044BD9
:1054F800186818B10022012127F032F808BD00BF52
:105508005C3B002008B5044B186818B10022012143
:1055180027F026F808BD00BF5C3B00202DE9F041CC
:105528008EB007460E4614461D46002009900A9084
:105538000B900C900D900DF11C08079008900490AA
:1055480005900690039001462AF044F98DF82470DE
:105558008DF825600A942046FAF794FEADF82C00E1
:105568000C95149B0D9329F09BFC07904FF4FA734C
:105578000693124B0493CDF8148002E0039BB3B951
:10558800BCB104AA09A90E4B186858F041FA0446A0
:105598000028F5D14FF0FF33009303AB00221146EA
:1055A800104629F043FE0128E8D00324E8E7032445
:1055B800E6E720460EB0BDE8F08100BFCD550108F2
:1055C800583B0020006850B110B582B00024009408
:1055D80003230A78214629F0A7FE02B010BD7047C0
:1055E8002DE9F04186B00023059301F083FD01F019
:1055F8007BFD894B186000283DD001F039FD874BB1
:1056080040F20B128649874805F00AFD05A90020DB
:1056180008F07AFA0546002839D04FF400702AF0CD
:105628007FFF044600283ED026F03BFE7E4B1860E4
:10563800002844D02B467D4A40217D4866F082FCF4
:1056480000227C494FF400500CF068F800227A4997
:105658004FF400500CF086F80025002D40F097809C
:10566800764B03EB051359686F4B186826F0E8FE74
:105678000135EDB2F1E705F087FC714B4FF4837209
:105688006749704805F0CCFC05F07EFCFEE705F0A4
:105698007BFC6B4B4FF4877261496A4805F0C0FC8C
:1056A80005F072FCFEE705F06FFC654B40F2111245
:1056B8005B49644805F0B4FC05F066FCFEE705F0BC
:1056C80063FC5F4B4FF48A7255495E4805F0A8FCAD
:1056D80005F05AFCFEE7594A02EB031252681143DF
:1056E8000133DBB255E0B046544F07EB0617B989D2
:1056F800B86816F0A5F9F873BB7B834216D0524AF6
:105708006019C5F50071142D12DD504B01924FEA56
:1057180008184A4A52F8082000924D4A66F012FCCE
:10572800002807DB05440136F6B24BE0494AE7E7B3
:10573800494BEBE705F028FC414B40F2531238493E
:10574800404805F06DFC05F01FFCFEE705F01CFC69
:105758003B4B40F25B1232493A4805F061FC05F0D8
:1057680013FCFEE705F010FC354B40F25F122C49A4
:10577800344805F055FC05F007FCFEE72C4B009378
:10578800364B4FF4B9722649354805F049FC0023D9
:105798001946002B9FD04FF0FF33009300230122BE
:1057A8002148006826F08CFD0028F0D02D4D0FCD43
:1057B80020606160A260E360286820612B7923750E
:1057C80000261425002E8ED0274AC5F500716019D1
:1057D80066F0B8FB0028B9DB0544B5F5007FC1D2F7
:1057E80002940195124E0096204B40F261120C492A
:1057F8000C4805F015FC009523463246012100208F
:10580800FFF78CFE0028B9D1194B4FF4B772044941
:10581800044805F005FCBAE7583B0020A02C08080E
:10582800912C0808CC0708085C3B0020D82C0808F5
:10583800603B00200D550108F554010800000020C8
:1058480020FC070868FC0708F0D60808782C080828
:105858000C2D0808D42E080884100908902D080873
:1058680080FE0708F42C08082C2D0808342D080899
:10587800642D0808064B1B78DBB2012B03D0022BE2
:1058880003D101207047002070470320704700BFF4
:105898002C4E0020012804D0022804D028B904483E
:1058A800704704487047044870470448704700BF71
:1058B800C02D0808C82D0808D02D08088C00090834
:1058C80030B5A3B00546154B154A802102A866F0ED
:1058D80039FB09E002AB0093124B40F2A5121249C2
:1058E800124805F09DFBACB100230093104B2A46EB
:1058F80002A9104C206801F007FF04460028E9D1EE
:1059080002AB00930C4B40F2A71207490B4805F075
:1059180087FBE8E7204623B030BD00BFA43B00204A
:10592800D82D0808EC2D0808182E080880FE07084E
:10593800295A0108A03B0020282E0808CC0708088F
:1059480038B5054600240CB1002038BD230129468E
:10595800054AD058FAF78CFC10B10134E4B2F2E7EA
:10596800014800EB0410F0E71000002010B50446D1
:1059780001220188406816F06AF84FF47A7028F01E
:1059880029FE00222188606816F061F810BD08B56C
:105998000430FFF7EBFF08BD08B50430FFF7E6FF5A
:1059A80008BD08B50430FFF7E1FF08BD70B582B047
:1059B80005460C46FFF7C4FF98B106461249204633
:1059C800FAF756FCB0B111492046FAF751FCB0B1CC
:1059D8000F492046FAF74CFC78B93046FFF7E1FF4B
:1059E8000BE000950B4B4FF49F720B490B4805F0E9
:1059F80017FB02E03046FFF7CAFF02B070BD304621
:105A0800FFF7CAFFF9E700BF502E0808582E08080C
:105A1800602E0808382E0808182E0808D808080824
:105A280030B5B9B00C460D897F2D00D97F252A469F
:105A3800616818A866F075FE05F1E0030DEB030533
:105A4800002305F8803C25693F2D00D93F252A46CB
:105A5800E16808A866F065FE05F1E0030DEB0305B3
:105A6800002305F8C03C114918A866F025FD054635
:105A7800C8B107352F21284666F04EFC98B1441B63
:105A88001F2C00D91F2422462946684666F049FE85
:105A980004F1E0030DEB0304002304F8E03C08A93B
:105AA8006846FFF783FF39B030BD00BF682E08088D
:105AB8002DE9F0418EB007460E4614461D460020DB
:105AC80009900A900B900C900D9006900790089002
