:020000040801F1
:1000000000000C20F5B502089D3E0208A53E02083E
:10001000AD3E0208B53E0208BD3E020845B60208E4
:100020000000000000000000000000000D50050866
:10003000C53E020800000000AD4F0508C53F02089C
:1000400045B6020845B6020845B6020845B602089C
:1000500045B6020845B6020845B6020845B602088C
:1000600045B6020845B6020845B6020845B602087C
:1000700045B60208D33E020845B6020845B6020856
:1000800045B6020845B6020845B6020845B602085C
:1000900045B6020845B6020845B6020845B602084C
:1000A000E13E0208F13E0208013F0208113F02084A
:1000B00000000000253F0208393F020845B602084B
:1000C00045B602084D3F0208613F020845B60208E6
:1000D00045B6020845B6020845B6020845B602080C
:1000E00045B6020845B6020845B6020845B60208FC
:1000F00045B6020845B6020845B6020845B60208EC
:1001000045B6020845B6020845B6020845B60208DB
:1001100045B6020845B6020845B6020845B60208CB
:1001200045B6020845B6020845B60208753F020802
:10013000893F02089D3F020845B6020845B60208FD
:1001400045B6020845B6020845B6020845B602089B
:1001500045B6020845B6020845B6020845B602088B
:1001600045B6020845B6020845B6020845B602087B
:1001700045B6020845B6020845B6020845B602086B
:1001800045B6020845B6020845B6020845B602085B
:1001900045B6020845B6020845B6020845B602084B
:1001A00045B6020845B6020845B6020845B602083B
:1001B00045B6020800000000B13F020845B602083B
:1001C00045B602080000000045B6020845B6020820
:1001D00045B6020845B6020845B6020845B602080B
:1001E00045B6020845B6020845B6020845B60208FB
:1001F000000000000000000045B6020845B60208F5
:1002000045B6020845B6020845B6020845B60208DA
:1002100045B6020845B6020845B6020845B60208CA
:1002200045B6020845B6020845B6020845B60208BA
:0802300045B6020845B60208BC
:1002380010B5054C237833B9044B13B10448AFF318
:1002480000800123237010BDB808002000000000C2
:10025800CCA9080808B5034B1BB103490348AFF301
:10026800008008BD00000000BC080020CCA90808D8
:1002780010F8012B11F8013B012A28BF9A42F7D048
:10028800D01A7047034613F8012B002AFBD1181A1D
:100298000138704781F0004102E000BF83F000435D
:1002A80030B54FEA41044FEA430594EA050F08BF09
:1002B80090EA020F1FBF54EA000C55EA020C7FEACD
:1002C800645C7FEA655C00F0E2804FEA5454D4EB4A
:1002D8005555B8BF6D420CDD2C4480EA020281EA14
:1002E800030382EA000083EA010180EA020281EA4C
:1002F8000303362D88BF30BD11F0004F4FEA01319E
:100308004FF4801C4CEA113102D0404261EB4101AC
:1003180013F0004F4FEA03334CEA133302D0524232
:1003280063EB430394EA050F00F0A780A4F10104EE
:10033800D5F1200E0DDB02FA0EFC22FA05F2801828
:1003480041F1000103FA0EF2801843FA05F359410E
:100358000EE0A5F120050EF1200E012A03FA0EFC8D
:1003680028BF4CF0020C43FA05F3C01851EBE371B7
:1003780001F0004507D54FF0000EDCF1000C7EEBD4
:1003880000006EEB0101B1F5801F1BD3B1F5001F12
:100398000CD349085FEA30004FEA3C0C04F1010431
:1003A8004FEA445212F5800F80F09A80BCF1004F5A
:1003B80008BF5FEA500C50F1000041EB045141EADC
:1003C800050130BD5FEA4C0C404141EB0101013CA5
:1003D80028BFB1F5801FE9D291F0000F04BF014694
:1003E8000020B1FA81F308BF2033A3F10B03B3F166
:1003F80020020CDA0C3208DD02F1140CC2F10C02F6
:1004080001FA0CF021FA02F10CE002F11402D8BF53
:10041800C2F1200C01FA02F120FA0CFCDCBF41EA1F
:100428000C019040E41AA2BF01EB0451294330BDEE
:100438006FEA04041F3C1CDA0C340EDC04F11404CB
:10044800C4F1200220FA04F001FA02F340EA0300A2
:1004580021FA04F345EA030130BDC4F10C04C4F1E8
:10046800200220FA02F001FA04F340EA03002946C8
:1004780030BD21FA04F0294630BD94F0000F83F412
:10048800801306BF81F480110134013D4EE77FEAF5
:10049800645C18BF7FEA655C29D094EA050F08BF41
:1004A80090EA020F05D054EA000C04BF1946104622
:1004B80030BD91EA030F1EBF0021002030BD5FEA66
:1004C800545C05D14000494128BF41F0004130BD8E
:1004D80014F580043CBF01F5801130BD01F00045E2
:1004E80045F0FE4141F470014FF0000030BD7FEA55
:1004F800645C1ABF194610467FEA655C1CBF0B4650
:10050800024650EA013406BF52EA033591EA030F66
:1005180041F4002130BD00BF90F0000F04BF00215E
:10052800704730B54FF4806404F132044FF0000591
:100538004FF0000150E700BF90F0000F04BF00210A
:10054800704730B54FF4806404F1320410F0004570
:1005580048BF40424FF000013EE700BF42004FEA6B
:10056800E2014FEA31014FEA02701FBF12F07F43E8
:1005780093F07F4F81F06051704732F07F4208BF9F
:10058800704793F07F4F04BF41F40021704730B5A6
:100598004FF4607401F0004521F000411CE700BFF2
:1005A80050EA010208BF704730B54FF000050AE075
:1005B80050EA010208BF704730B511F0004502D576
:1005C800404261EB41014FF4806404F132045FEA78
:1005D800915C3FF4D8AE4FF003025FEADC0C18BF21
:1005E80003325FEADC0C18BF033202EBDC02C2F113
:1005F800200300FA03FC20FA02F001FA03FE40EAA5
:100608000E0021FA02F11444BDE600BF70B54FF0A8
:10061800FF0C4CF4E06C1CEA11541DBF1CEA135586
:1006280094EA0C0F95EA0C0F00F0DEF82C4481EAEE
:10063800030621EA4C5123EA4C5350EA013518BF0E
:1006480052EA033541F4801143F4801338D0A0FBFB
:1006580002CE4FF00005E1FB02E506F00042E0FBA8
:1006680003E54FF00006E1FB03569CF0000F18BFAE
:100678004EF0010EA4F1FF04B6F5007F64F5407456
:1006880004D25FEA4E0E6D4146EB060642EAC621E9
:1006980041EA55514FEAC52040EA5E504FEACE2E56
:1006A800B4F1FD0C88BFBCF5E06F1ED8BEF1004F59
:1006B80008BF5FEA500E50F1000041EB045170BDD5
:1006C80006F0004646EA010140EA020081EA030119
:1006D800B4EB5C04C2BFD4EB0C0541EA045170BD15
:1006E80041F480114FF0000E013C00F3AB8014F18F
:1006F800360FDEBF002001F0004170BDC4F10004D8
:10070800203C35DA0C341BDC04F11404C4F1200558
:1007180000FA05F320FA04F001FA05F240EA0200B3
:1007280001F0004221F0004110EBD37021FA04F6E9
:1007380042EB06015EEA430E08BF20EAD37070BDA3
:10074800C4F10C04C4F1200500FA04F320FA05F002
:1007580001FA04F240EA020001F0004110EBD37004
:1007680041F100015EEA430E08BF20EAD37070BD74
:10077800C4F1200500FA05F24EEA020E20FA04F34D
:1007880001FA05F243EA020321FA04F001F00041FC
:1007980021FA04F220EA020000EBD3705EEA430E6D
:1007A80008BF20EAD37070BD94F0000F0FD101F09C
:1007B8000046400041EB010111F4801F08BF013CD5
:1007C800F7D041EA060195F0000F18BF704703F013
:1007D8000046520043EB030313F4801F08BF013D9A
:1007E800F7D043EA0603704794EA0C0F0CEA135556
:1007F80018BF95EA0C0F0CD050EA410618BF52EA10
:100808004306D1D181EA030101F000414FF0000015
:1008180070BD50EA410606BF1046194652EA430623
:1008280019D094EA0C0F02D150EA013613D195EA97
:100838000C0F05D152EA03361CBF104619460AD1DF
:1008480081EA030101F0004141F0FE4141F47001E9
:100858004FF0000070BD41F0FE4141F4780170BDD9
:1008680070B54FF0FF0C4CF4E06C1CEA11541DBF3E
:100878001CEA135594EA0C0F95EA0C0F00F0A7F840
:10088800A4EB050481EA030E52EA03354FEA01316D
:1008980000F088804FEA03334FF0805545EA131380
:1008A80043EA12634FEA022245EA111545EA106548
:1008B8004FEA00260EF000419D4208BF964244F1DF
:1008C800FD0404F5407402D25B084FEA3202B61AFE
:1008D80065EB03055B084FEA32024FF480104FF4D2
:1008E800002CB6EB020E75EB030E22BFB61A754646
:1008F80040EA0C005B084FEA3202B6EB020E75EBD9
:10090800030E22BFB61A754640EA5C005B084FEA40
:100918003202B6EB020E75EB030E22BFB61A75460D
:1009280040EA9C005B084FEA3202B6EB020E75EB18
:10093800030E22BFB61A754640EADC0055EA060ED9
:1009480018D04FEA051545EA16754FEA06164FEA1C
:10095800C30343EA52734FEAC2025FEA1C1CC0D1C8
:1009680011F4801F0BD141EA00014FF000004FF055
:10097800004CB6E711F4801F04BF01430020B4F116
:10098800FD0C88BFBCF5E06F3FF6AFAEB5EB030CCE
:1009980004BFB6EB020C5FEA500C50F1000041EBCB
:1009A800045170BD0EF0004E4EEA113114EB5C0498
:1009B800C2BFD4EB0C0541EA045170BD41F480116B
:1009C8004FF0000E013C90E645EA060E8DE60CEA73
:1009D800135594EA0C0F08BF95EA0C0F3FF43BAF90
:1009E80094EA0C0F0AD150EA01347FF434AF95EA47
:1009F8000C0F7FF425AF104619462CE795EA0C0F2B
:100A080006D152EA03353FF4FDAE1046194622E7F7
:100A180050EA410618BF52EA43067FF4C5AE50EAD1
:100A280041047FF40DAF52EA43057FF4EBAE12E7C1
:100A38004FF0FF3C06E000BF4FF0010C02E000BFA2
:100A48004FF0010C4DF804CD4FEA410C7FEA6C5C85
:100A58004FEA430C18BF7FEA6C5C1BD001B050EA28
:100A6800410C0CBF52EA430C91EA030F02BF90EA13
:100A7800020F0020704710F1000F91EA030F58BFD2
:100A8800994208BF90422CBFD8176FEAE37040F034
:100A9800010070474FEA410C7FEA6C5C02D150EAD2
:100AA800013C07D14FEA430C7FEA6C5CD6D152EA8D
:100AB800033CD3D05DF8040B704700BF8446104652
:100AC80062468C461946634600E000BF01B5FFF751
:100AD800B7FF002848BF10F1000F01BD4DF808ED21
:100AE800FFF7F4FF0CBF012000205DF808FB00BFF2
:100AF8004DF808EDFFF7EAFF34BF012000205DF84C
:100B080008FB00BF4DF808EDFFF7E0FF94BF012098
:100B180000205DF808FB00BF4DF808EDFFF7CEFF99
:100B280094BF012000205DF808FB00BF4DF808EDD8
:100B3800FFF7C4FF34BF012000205DF808FB00BFA9
:100B48004FEA410C7FEA6C5C02D150EA013C0AD1C1
:100B58004FEA430C7FEA6C5C02D152EA033C02D1B3
:100B68004FF0000070474FF0010070474FEA410214
:100B780012F5001215D211D56FF47873B3EB6252E7
:100B880012D94FEAC12343F0004343EA505311F00E
:100B9800004F23FA02F018BF404270474FF00000A0
:100BA800704750EA013005D111F0004008BF6FF0DE
:100BB800004070474FF00000704700BF4FEA410205
:100BC800B2F1E04324BFB3F5001CDCF1FE5C0DD9A3
:100BD80001F0004C4FEAC0024CEA5070B2F1004FED
:100BE80040EB830008BF20F00100704711F0804FF0
:100BF80021D113F13872BCBF01F00040704741F4B5
:100C080080114FEA5252C2F11802C2F1200C10FAB8
:100C18000CF320FA02F018BF40F001004FEAC1239C
:100C28004FEAD32303FA0CFC40EA0C0023FA02F340
:100C38004FEA4303CCE77FEA625307D150EA013316
:100C48001EBF4FF0FE4040F44000704701F00040E6
:100C580040F0FE4040F40000704700BF53B94AB965
:100C6800002908BF00281CBF4FF0FF314FF0FF30AC
:100C780000F0C4B9ADF1080C6DE904CE00F01AF823
:100C8800DDF804E0DDE9022304B07047430803F00F
:100C98005533C01A830800F0333003F03333184457
:100CA80000EB101000F00F3000EB002000EB0040CC
:100CB800000E70472DE9F04F099D884604468E4680
:100CC800002B4AD18A4217465FD9B2FA82F64EB152
:100CD800C6F1200301FA06FEB740B44020FA03F338
:100CE80043EA0E0E4FEA17481FFA87FC230CBEFB97
:100CF800F8F108FB11EE01FB0CF243EA0E439A42AD
:100D080007D9FB1801F1FF3002D29A4200F2548150
:100D180001469B1AA2B2B3FBF8F008FB103300FBA4
:100D28000CFC42EA034294450BD9BA1800F1FF3390
:100D38002CBF01240024944502D9002C00F03F81E7
:100D4800184640EA0140A2EB0C0200211DB1F24016
:100D58000023C5E90023BDE8F08F8B4205D90DB10A
:100D6800C5E9000100210846F5E7B3FA83F1002937
:100D78004ED14345C0F01281824240F20F810846AD
:100D8800002DE8D0C5E9004EE5E7002A00F0AC8068
:100D9800B2FA82F6002E40F0BB808B1A4FEA124E50
:100DA800BCB20121020C80B2B3FBFEFC0EFB1C336B
:100DB80042EA034304FB0CF29A420ED9FB180CF1E9
:100DC800FF382CBF4FF001094FF000099A4203D9B0
:100DD800B9F1000F00F0EC80C4469B1AB3FBFEF893
:100DE8000EFB183304FB08F440EA034294420BD983
:100DF800BA1808F1FF332CBF01200020944202D911
:100E0800002800F0D1809846121B48EA0C409DE764
:100E1800C1F120068B4008FA01F400FA01F922FA20
:100E280006F728FA06F88A401F4320FA06F3380C1A
:100E380023431FFA87FC1C0CB8FBF0FE00FB1E883E
:100E480044EA08440EFB0CF8A0450ED93C190EF1F3
:100E5800FF3A2CBF4FF0010B4FF0000BA04503D910
:100E6800BBF1000F00F0B880D646A4EB08041FFAC7
:100E780083F8B4FBF0F300FB134403FB0CFC48EAD3
:100E88000444A4450ED93C1903F1FF302CBF4FF0A0
:100E980001084FF00008A44503D9B8F1000F00F08D
:100EA8009F80034643EA0E40A4EB0C04A0FB02EC2F
:100EB80064457346E04602D307D1F14505D2BEEB3F
:100EC80002036CEB070C0138E0465DB1B9EB030295
:100ED80064EB080404FA06F622FA01F3CC401E4338
:100EE800C5E90064002136E7B1FBF2FC010C1446A9
:100EF80080B2964641EA08412026904640EA0143DE
:100F08001046B1FBF2F1A3EB080341EA0C414BE7B1
:100F1800B740C6F1200301FA06F221FA03F84FEAB6
:100F2800174E20FA03F3BCB2B0401343020C190C5D
:100F380080B2B8FBFEF90EFB198841EA084109FBAB
:100F480004F8884551D9791809F1FF3C2CBF4FF0B6
:100F5800010A4FF0000A884502D9BAF1000F31D0D2
:100F6800A1EB0801B1FBFEF909FB04F80EFB19110E
:100F78009BB243EA0143434535D2FB1809F1FF31DF
:100F88002CBF4FF0010A4FF0000A4345BBD2BAF11B
:100F9800000FB8D1A9F102013B44B4E7841A68EB09
:100FA800030201209646EBE63A44A8F102082BE733
:100FB800ACF1020C3B4410E702393B44A9E63A4441
:100FC8000238BEE6A7EB0808A9F1020C4144B1FBC0
:100FD800FEF909FB04F8C9E7AEF1020E3C4444E708
:100FE800023B3C445EE749468DE7A1EB0801CC464D
:100FF800B1FBFEF909FB04F8B8E700BF704700BF72
:1010080080B58EB008AF786039607B68002B0BD153
:101018000BF05AF84549464B332246480BF088F9FD
:101028000BF052F800BFFDE73B68002B0BD10BF02B
:101038004BF83E493E4B34223E480BF079F90BF011
:1010480043F800BFFDE73C4B1B68002B0BD10BF0AE
:101058003BF83649364B352236480BF069F90BF028
:1010680033F800BFFDE700237B6156E07B69DB00B6
:10107800324A13443B61304B1868314B1A683B695C
:101088001B6801937B68009313462E4A802176F0F3
:10109800A5F93B695B68012B34D13B6918683B694A
:1010A8001B683A6912687968079127490691796837
:1010B80005917968049103927A68029201937B689A
:1010C80000930346214A4FF48061386876F086F928
:1010D8000346FB60FB68B3F5806F09D2164B1A68AC
:1010E800FB6800933B680121002000F075FF0EE0CB
:1010F8000E493B691B680093154B6E2215480BF08F
:1011080017F904E00C4B1B68184601F013F80A2085
:1011180040F01CFC7B6901337B617B69002BA5DDFA
:1011280000BF00BF1837BD4680BD00BF20AA080811
:1011380038AA08084CAA0808DC080020D81C0A08A5
:101148000000002054AA080828AC080874AA080857
:1011580038AC080854AC080880B590B008AF78607F
:1011680039607B68002B0BD10AF0AEFF6349644BF2
:101178004A2264480BF0DCF80AF0A6FF00BFFDE73E
:101188003B68002B0BD10AF09FFF5C495C4B4B225C
:101198005C480BF0CDF80AF097FF00BFFDE75A4B0B
:1011A8001B68002B0BD10AF08FFF5449544B4C227B
:1011B80054480BF0BDF80AF087FF00BFFDE7802018
:1011C80043F02CFFB861802043F028FF7861BB69A9
:1011D800002B0BD10AF078FF4849494B5122494866
:1011E8000BF0A6F80AF070FF00BFFDE77B69002B43
:1011F8000BD10AF069FF4149414B522241480BF09B
:1012080097F80AF061FF00BFFDE70023FB6167E084
:10121800FB69DB003D4A13443B613B4B18683C4B80
:101228001A683B691B6801937B6800931346394A27
:10123800802176F0D3F83B695B68012B45D13B6987
:101248001B6800937B68344A8021B86976F0C6F839
:101258003B691B6800937B68304A8021786976F087
:10126800BDF83B6919683B691B687A6807922C4A84
:1012780006927A6805927A6804927A690392BA6942
:10128800029201937B6800930B46264A4FF48061D3
:10129800386876F0A3F80346FB60FB68B3F5806F07
:1012A80009D2194B1A68FB6800933B68012100209A
:1012B80000F092FE0EE011493B691B6800931A4B3F
:1012C8009E221A480BF034F804E00F4B1B681846AE
:1012D80000F030FF0A2040F039FBFB690133FB6165
:1012E800FB69022B94DDB86943F0DEFF786943F0AF
:1012F800DBFF00BF2037BD4680BD00BFACAC08088F
:10130800C0AC0808D4AC0808DC080020E01C0A08B7
:1013180004000020DCAC0808FCAC080810AD080884
:1013280014AF080824AD080824AF080840AF08081F
:1013380080B5A4B00CAF786039607B68002B0BD106
:101348000AF0C2FE6C496D4B33226D480AF0F0FF7B
:101358000AF0BAFE00BFFDE73B68002B0BD10AF08C
:10136800B3FE6549654B342265480AF0E1FF0AF08F
:10137800ABFE00BFFDE7634B1B68002B0BD10AF0E7
:10138800A3FE5D495D4B35225D480AF0D1FF0AF0A6
:101398009BFE00BFFDE7802043F040FEB86580203B
:1013A80043F03CFE7865BB6D002B0BD10AF08CFE38
:1013B8005149524B3C2252480AF0BAFF0AF084FEC7
:1013C80000BFFDE77B6D002B0BD10AF07DFE4A497B
:1013D8004A4B3D224A480AF0ABFF0AF075FE00BFAF
:1013E800FDE70023FB657AE0FB6DDB00464A13440A
:1013F8003B65444B1868454B1A683B6D1B68019365
:101408007B6800931346424A802175F0E7FF3B6DE5
:101418005B68012B58D17B683E4A8021B86D75F016
:10142800DDFF7B683C4A8021786D75F0D7FF3B6D06
:101438001B6807F12C00394A202175F0CFFF3B6D5E
:101448001B6807F10C00364A202175F0C7FF3B6D79
:1014580018683B6D1B683A6D126879680A913149C2
:101468000991796808917968079107F10C0106914B
:1014780007F12C01059104927A6D0392BA6D0292DC
:1014880001937B6800930346274A4FF480613868CC
:1014980075F0A4FF0346FB64FB6CB3F5806F09D2BB
:1014A800184B1A68FB6C00933B680121002000F080
:1014B80093FD0EE010493B6D1B6800931B4B88227F
:1014C8001B480AF035FF04E00E4B1B68184600F075
:1014D80031FE0A2040F03AFAFB6D0133FB65FB6DE3
:1014E800012B81DDB86D43F0DFFE786D43F0DCFE43
:1014F80000BF6037BD4680BD7CAF080890AF0808C4
:10150800A4AF0808DC080020F81C0A08080000201E
:10151800ACAF0808CCAF0808DCAF0808ECAF080887
:10152800F4AF0808B4B10808FCAF0808C4B108084B
:10153800E0B1080880B592B00AAF786039607B687E
:10154800002B0BD10AF0C0FD4149424B2E224248E4
:101558000AF0EEFE0AF0B8FD00BFFDE73B68002B7D
:101568000BD10AF0B1FD3A493A4B2F223A480AF01A
:10157800DFFE0AF0A9FD00BFFDE7384B1B68002B12
:101588000BD10AF0A1FD3249324B302232480AF021
:10159800CFFE0AF099FD00BFFDE707F1080300221E
:1015A8001A605A609A60DA601A742D4BDB78194613
:1015B8002B4B9B781A462A4B1B8807F1080001938E
:1015C80000920B46274A112175F008FF234B186833
:1015D800254B1A687B6800931346244A802175F0CE
:1015E800FDFE07F1080308937B680793204B0693D9
:1015F8007B6805937B6804937B6803937B680293FD
:101608007B6801937B6800937B681A4A4FF480617A
:10161800386875F0E3FE0346FB61FB69B3F5806F3C
:1016280009D20E4B1A68FB6900933B680121002020
:1016380000F0D2FC05E006490F4B72220F480AF071
:1016480077FE0A2040F082F900BF2037BD4680BDF2
:1016580008B208081CB2080830B20808DC080020E4
:10166800F81F0A0858B208080C00002038B2080809
:1016780000B5080864B2080810B5080834B50808A9
:1016880080B483B000AF0346FB71FB79022B0AD00C
:10169800022B0ADC002B02D0012B02D005E0064BFE
:1016A80004E0064B02E0064B00E0064B18460C37F8
:1016B800BD465DF8047B704738B5080840B5080892
:1016C8004CB5080858B50808F0B5BFB006AFF860C3
:1016D800B9607A60FB7007F114007B682A4A4021E0
:1016E80075F07CFEC7F8DC00D7F8DC30002B03DB94
:1016F800D7F8DC303F2B01D9012340E0FB781846AE
:10170800FFF7BEFFC7F8D800FB7B9C46BB7B1A4699
:10171800BB891946FB7A1C46BB7A1D463B891E4687
:1017280007F15400D7F8D83005930496039502942E
:10173800019100926346154A802175F04FFEC7F863
:10174800DC00D7F8DC30002B03DBD7F8DC307F2B4C
:1017580001D9012313E0D7F8DC3007F1540107F170
:10176800140200930B460121012000F035FC0346CA
:1017780087F8D7300A2040F0E9F897F8D7301846AC
:10178800E437BD46F0BD00BF60B508086CB5080871
:10179800F0B5CDB006AF07F58C74A4F5867420605B
:1017A80007F58C70A0F58870016007F58C71A1F5BC
:1017B8008A710A6007F58C72A2F58C72136007F5BE
:1017C8008C73A3F58A7307F110001B68354A402112
:1017D80075F004FEC7F81401D7F81431002B03DBA9
:1017E800D7F814313F2B01D9012355E007F58C7345
:1017F800A3F58673DB789C4607F58C73A3F586738F
:101808009B781A4607F58C73A3F586731B881946CF
:1018180007F58C73A3F58873DB781C4607F58C7382
:10182800A3F588739B781D4607F58C73A3F5887319
:101838001B881E4607F1500007F58C73A3F58C73BF
:101848001B680593049603950294019100926346E0
:10185800154AC02175F0C2FDC7F81401D7F8143134
:10186800002B03DBD7F81431BF2B01D9012313E078
:10187800D7F8143107F1500107F1100200930B4615
:101888000121012000F0A8FB034687F813310A2044
:1018980040F05CF897F81331184607F58E77BD4687
:1018A800F0BD00BF60B50808BCB5080880B58CB0AD
:1018B80000AF786039603B68002B3BD03B68DB6841
:1018C800002B37D03B681B69002B33D03B68DB68A3
:1018D800FB6207F1080320220021184675F022FF59
:1018E8003B681B691F2B28BF1F23BB6207F1080336
:1018F800BA6AF96A184676F03EF907F10802BB6A37
:10190800134400221A7007F108030C491846FEF721
:10191800AFFC0346002B0ED109490A4B4FF48372E2
:1019280009480AF005FD094B1B68022118463DF0DD
:10193800C1FE00E000BF3037BD4680BD40B6080894
:1019480008B2080850B608086CB60808E008002075
:1019580080B58AB002AF78607B687B610023FB6149
:101968004FF0FF33BB613549354B40F21312354810
:101978000AF0DEFC344B1B68002118463DF058FE87
:1019880038613B6903F00403002B04D13B6903F081
:101998000803002B09D029492C4B4FF48E72294893
:1019A8000AF0C6FC00203FF03DFF294B1B68002BC6
:1019B80040D00023BB60264B1B6807F108010022BA
:1019C80018463EF0F1FB0346012B33D1FB69002B8F
:1019D80004D1BB68002B01D0BB68FB61FB69002BFD
:1019E80028D0BB68FA699A4224D3BB68642203FBF7
:1019F80002F2FB69B2FBF3F3C3F16403FB60FA681C
:101A0800BB699A4216D0FB68BB610C49BB6801935D
:101A1800FB6800930F4B4FF49B720A480AF088FC4E
:101A2800BB680D490D480093FB687A69096800682E
:101A3800FFF7AEFEC8203FF089FF9BE708B2080811
:101A480070B608086CB60808E00800208CB60808CC
:101A5800ECA90020A8B60808D4080020F81F0A0836
:101A680080B58EB002AF786039603B68002B4DD0EE
:101A78003B68DB68002B49D03B681B69002B45D0CD
:101A88003B68DB68FB6207F1080320220021184647
:101A980075F048FE3B681B691F2B28BF1F23BB62DC
:101AA80007F10803BA6AF96A184676F064F807F18C
:101AB8000802BB6A134400221A7007F1080315498B
:101AC8001846FEF7D5FB0346002B08D007F108039C
:101AD8001149184675F01AFF0346002B0CD00F4920
:101AE8000F4B23220F480AF023FC0F4B1B681021D1
:101AF80018463DF0DFFD0AE0084907F108030093A6
:101B08000A4B28220A480AF013FC00E000BF3037CD
:101B1800BD4680BDDCB60808E4B608080CB708085E
:101B280020B708085CB70808E008002060B7080874
:101B380084B7080880B58AB006AF786039607B68DA
:101B4800002B0BD10AF0C0FA3149324B2E22324811
:101B58000AF0EEFB0AF0B8FA00BFFDE73B68002B7D
:101B68000BD10AF0B1FA2A492A4B2F222A480AF047
:101B7800DFFB0AF0A9FA00BFFDE7284B1B68002B22
:101B88000BD10AF0A1FA2249224B302222480AF04E
:101B9800CFFB0AF099FA00BFFDE7204B1868204BED
:101BA8001A687B68009313461E4A802175F016FC5C
:101BB8007B6805937B6804931B4B03937B680293B4
:101BC8007B6801937B6800937B68184A4FF48061B7
:101BD800386875F003FC0346FB60FB68B3F5806F5B
:101BE80009D20E4B1A68FB6800933B68012100205C
:101BF80000F0F2F905E006490D4B5F220D480AF0A6
:101C080097FB0A203FF0A2FE00BF1037BD4680BDFB
:101C18000CB7080888B708089CB70808DC08002033
:101C280010000020A4B7080838B90808C8B7080881
:101C380048B9080868B90808F0B58FB00AAF7860E5
:101C480039607B68002B0BD10AF03EFA5C495D4B8A
:101C580054225D480AF06CFB0AF036FA00BFFDE733
:101C68003B68002B0BD10AF02FFA5549554B5522EA
:101C780055480AF05DFB0AF027FA00BFFDE7534B11
:101C88001B68002B0BD10AF01FFA4D494D4B562209
:101C98004D480AF04DFB0AF017FA00BFFDE7002394
:101CA800FB6084E0494B1868494B1968494CFA684D
:101CB80013469B0013449B0023441B6801937B68D5
:101CC80000930B46444A802175F088FB4149FA6825
:101CD80013469B0013449B000B4410331B68012BD5
:101CE8005AD13C49FA6813469B0013449B000B44A5
:101CF80004331D683749FA6813469B0013449B0058
:101D08000B4419683348FA6813469B0013449B0038
:101D1800034418682F4CFA6813469B0013449B0031
:101D2800234408331C682B4EFA6813469B0013445F
:101D38009B0033440C331B687A680992274A08923F
:101D48007A6807927A6806920593049403907B68F0
:101D5800029301917B6800932B46214A4FF48061DE
:101D6800386875F03BFB0346BB60BB68B3F5806F12
:101D780009D2164B1A68BB6800933B680121002002
:101D880000F02AF90DE00E49FB680093154B8E22EE
:101D980015480AF0CDFA04E00C4B1B68184600F011
:101DA800C9F90A203FF0D2FDFB680133FB60FB68EC
:101DB800052B7FF777AF00BF00BF1437BD46F0BDD6
:101DC800DCBA0808F4BA080808BB0808DC080020D0
:101DD80014000020081D0A0810BB0808B0BC080839
:101DE80030BB0808C0BC0808E0BC0808B0B588B01B
:101DF80004AF78607B68002B0BD10AF065F927499E
:101E0800274BA22227480AF093FA0AF05DF900BF8F
:101E1800FDE7254B1B68002B0BD10AF055F91F492C
:101E28001F4BA3221F480AF083FA0AF04DF900BF9E
:101E3800FDE70023FB6028E01B4B18681B4B1C6860
:101E48001B49FA6813469B0013449B000B4419680E
:101E5800174DFA6813469B0013449B002B440C3320
:101E68001B68029301917B6800932346114A8021E5
:101E780075F0B4FA0C4B1B68184600F05BF90A20A1
:101E88003FF064FDFB680133FB60FB68082BD3DD82
:101E980000BF00BF1037BD46B0BD00BFDCBA0808A0
:101EA800F4BA080808BB0808DC0800201400002061
:101EB800801D0A08E4BC080880B584B002AF7860C9
:101EC80039607B68002B11D07B681B68002B0DD014
:101ED8003B68002B0AD07B6818683B681B781A4659
:101EE800002300930323002141F02EFD00BF083793
:101EF800BD4680BD80B483B000AF7860044A7B687B
:101F0800136000BF0C37BD465DF8047B704700BF07
:101F1800D80800202DE9B04F82B000AF18F092F831
:101F280002462A4BA3FB02139B0D294901FB03F32D
:101F3800D31AA3F55B13A3F53A533B603A68254BD4
:101F480013447B607B68002B01DC01237B607B688A
:101F580000229846914642464B464FF000004FF00B
:101F68000001590141EAD261500102460B46B2EB29
:101F7800080463EB09054FF000024FF00003AB00C3
:101F880043EA9473A20014461D4614EB080A45EB75
:101F9800090B4FF000024FF000034FEACB0343EA6E
:101FA8005A734FEACA0292469B46504659464FF426
:101FB8007A724FF00003FEF751FE02460B461346B5
:101FC80018460837BD46BDE8B08F00BFB17C2195E3
:101FD80000DD6D00005C260580B594B002AFBA60E4
:101FE8007B600346FB730B46BB73BB68002B0BD1AE
:101FF8000AF06AF84A494B4B58224B480AF098F9BC
:102008000AF062F800BFFDE7484B1B68002B0BD1B4
:102018000AF05AF84249434B592243480AF088F9D2
:102028000AF052F800BFFDE707F1280300221A6002
:102038005A609A60DA601A6107F1200300221A6078
:102048005A6007F1140300221A605A609A6001234B
:1020580087F847300021002042F00EF8FB7B87F814
:102068002830BB7B87F82930BB68FB62B868FEF76D
:1020780009F903469BB23B867B687B633B6DBB6378
:1020880041F0F4F803463B624FF4FA73FB61284BC6
:102098007B6107F12003BB6100233B6435E0234BE0
:1020A8001B6807F1140207F12801184673F0C8FDF0
:1020B800034687F8473097F84730002B1BD1002399
:1020C8003B6107F1100341F288320092002200219F
:1020D800002041F099FBF863FB6B012B08D13B69A9
:1020E800002B01D1002300E0032387F8473002E0EA
:1020F800032387F8473097F84730002B09D0FA2098
:102108003FF024FC3B6C01333B643B6C042BC6D989
:1021180000E000BF97F8473018464837BD4680BDF5
:1021280024BD080834BD080848BD0808D8080020A0
:10213800C11E010880B584B002AF78607B68002BAF
:102148000BD109F0C1FF0B490B4B96220B480AF043
:10215800EFF809F0B9FF00BFFDE700230093002363
:102168007A6801210020FFF737FF03461846083731
:10217800BD4680BD24BD080834BD080848BD080810
:1021880080B58CB004AFF860B9607A603B60012319
:10219800FB61FB68002B0BD109F096FF4749484BC0
:1021A800A72248480AF0C4F809F08EFF00BFFDE7EF
:1021B800BB68002B0BD109F087FF4049404BA82290
:1021C80040480AF0B5F809F07FFF00BFFDE73B681B
:1021D800002B0BD109F078FF3849394BA92239482F
:1021E8000AF0A6F809F070FF00BFFDE7364B1B6840
:1021F800002B0BD109F068FF3049314BAA22314836
:102208000AF096F809F060FF00BFFDE7802042F071
:1022180005FFB861BB69002B0BD109F055FF2749B1
:10222800274BAD2227480AF083F809F04DFF00BF7D
:10223800FDE7BB680093FB68244A8021B86975F004
:10224800CDF878617B69002B02DB7B697F2B0DDD84
:102258001A49BB680293FB6801933B6800931C4BC7
:10226800B7221C480AF064F80023FB61FB69012BC4
:1022780019D1154B1868002300937B680022B969AF
:1022880004F07CFB0346FB74FB7C002B0BD00B4952
:10229800BB6901933B6800930F4BC8220D480AF0B5
:1022A80047F80023FB610A203FF050FBB86942F071
:1022B800FBFFFB6918462037BD4680BD24BD0808D2
:1022C80034BD080848BD0808D808002050BD0808D3
:1022D80058BD080888BD08088CBD080880B586B0B8
:1022E80002AF786039600123FB607B68002B0BD15B
:1022F80009F0EAFE2449254BDC2225480AF018F8A3
:1023080009F0E2FE00BFFDE73B68002B0BD109F0A6
:10231800DBFE1D491D4BDD221D480AF009F809F0B6
:10232800D3FE00BFFDE71B4B1B68002B0BD109F048
:10233800CBFE1549154BDE22154809F0F9FF09F0C7
:10234800C3FE00BFFDE7134B1868002300933B68EA
:102358000022796804F012FB0346FB72FB7A002B1B
:1023680009D009497B6800930B4BE8220B4809F018
:10237800DFFF0023FB600A203FF0E8FAFB681846FD
:102388001037BD4680BD00BF24BD080834BD08080D
:1023980048BD0808D8080020B0BD080888BD08084E
:1023A80080B588B002AFF860B9607A60FB68002B2E
:1023B8000BD109F089FE3549354BF822354809F02B
:1023C800B7FF09F081FE00BFFDE7BB68002B0BD10A
:1023D80009F07AFE2D492E4BF9222E4809F0A8FF64
:1023E80009F072FE00BFFDE77B68002B0BD109F0F6
:1023F8006BFE2649264BFA22264809F099FF09F078
:1024080063FE00BFFDE7244B1B68002B0BD109F0CE
:102418005BFE1E491E4BFB221E4809F089FF09F08E
:1024280053FE00BFFDE71C4B1868FB681B4A802160
:1024380074F0D4FF40F2FF327968B86875F0EDF9AE
:10244800BB6803F2FF3300221A70B868FDF71AFF61
:1024580078617B69B3F5806F09D20F4B1A687B6985
:102468000093BB6801210020FFF7B6FD06E007498D
:102478000B4B4FF489720B4809F05AFF0A203FF0C2
:1024880065FA00BF1837BD4680BD00BF24BD0808E7
:1024980034BD080848BD0808DC080020D4BD080879
:1024A800ECBD080888BD080880B588B000AF786022
:1024B80039603B68002B3AD03B68DB68002B36D08C
:1024C8003B681B69002B32D03B68DB68FB6107F176
:1024D800080300221A605A609A60DA603B681B6938
:1024E8000F2B28BF0F23BB6107F10803BA69F969ED
:1024F800184675F040FB07F10802BB691344002237
:102508001A7007F108030C491846FDF7B1FE034697
:10251800002B0DD109490A4B4C220A4809F008FF43
:10252800094B1B68202118463DF0C4F800E000BFA5
:102538002037BD4680BD00BF14BE080838BE080855
:1025480044BE080880BE0808E008002080B582B0B4
:1025580000AF786039607B68002B0BD109F0B4FDBF
:102568002749284B5C22284809F0E2FE09F0ACFD17
:1025780000BFFDE73B68002B0BD109F0A5FD204902
:10258800204B5D22204809F0D3FE09F09DFD00BFD5
:10259800FDE739687868FEF7CDFF39687868FEF797
:1025A800C7FE39687868FEF72BFD39687868FFF749
:1025B80043FB7868FFF71AFC39687868FEF7CCFDAA
:1025C80039687868FFF7B6FA4FF47A703FF0BEF9C9
:1025D8000E490E4802237A6809680068FFF774F804
:1025E8000B4A39687868FFF7DBFE0549094B9422E6
:1025F800094809F09DFE00BF0837BD4680BD00BFF1
:1026080038BE080884BE080898BE0808F81F0A08DB
:1026180014BE0808A0BE080880BE080890B58BB094
:1026280002AF78600023BB600023FB6102F078FCF6
:1026380003F074FCB861BB69002B0BD109F044FDB1
:102648009F49A04BA822A04809F072FE09F03CFD62
:1026580000BFFDE702F0A0FCB869FFF74BFC07F1EB
:102668000803194600200DF0A5FC78617B69002B52
:102678000BD109F029FD9249924BB122924809F0F9
:1026880057FE09F021FD00BFFDE74FF4806042F0DE
:10269800C5FC38613B69002B0BD109F015FD884951
:1026A800884BB422884809F043FE09F00DFD00BFAD
:1026B800FDE7802042F0B2FC0346844A1360834B56
:1026C8001B68002B0BD109F0FFFC7D497D4BB7221D
:1026D8007D4809F02DFE09F0F7FC00BFFDE77849B9
:1026E8007B6900937A4BB9227A4809F021FE3CF0C5
:1026F800B1FE0346784A1360774B1B68002B0BD159
:1027080009F0E2FC6E496F4BBC226F4809F010FEDD
:1027180009F0DAFC00BFFDE7704B714A714978692E
:10272800FFF72EFD704B714A71497869FFF728FD54
:1027380070497148FFF7D2FD39697869FFF706FFDC
:10274800654B1C68FFF7E6FB034600930023012254
:102758003F2120463CF098FEF860FB6803F0010337
:10276800002B0DD05649654BE8225A4809F0E0FD88
:102778006349644800237A6909680068FEF7A4FF82
:10278800FB6803F00203002B1AD04D495E4BEE2282
:10279800504809F0CDFD0123FB61594959480123EF
:1027A8007A6909680068FEF78FFF00230193022306
:1027B80000937B694FF48062544955483EF0C6FE49
:1027C800FB6803F00403002B0FD03D49514BFE2258
:1027D800404809F0ADFD3A494F4BFF223D4809F00A
:1027E800A7FD0023FB610FF099FAFB6803F00803CB
:1027F800002B0CD03249494B40F20712354809F0FA
:1028080097FD0023FB6139697869FFF79FFEFB6834
:1028180003F01003002B1CD0FB69012B07D12849BA
:102828003F4B40F213122B4809F082FD47E0244940
:102838003C4B40F21712274809F07AFD3A4A3969A9
:102848007869FFF7ADFD4FF47A703FF07FF80FF02D
:1028580065FAFB6803F02003002B03D1FB68002B0B
:102868007FF46EAFFB69012B07D115492F4B4FF44D
:102878009172184809F05CFD21E017F0E3FB02466D
:102888002B4BA3FB0213DB0B2A4901FB03F3D31ADF
:1028980018463FF05BF80A49FB6803F02003002B59
:1028A80001D0254B00E0254B0093254B40F229121F
:1028B800084809F03DFD39697869FFF747FE3FE7A9
:1028C80038BE080884BE080898BE0808DC0800203E
:1028D800CCBE080880BE0808E008002010BF080821
:1028E800B51801081CBF080828BF0808691A01089C
:1028F80038BF0808B124010844BF08085CBF0808AD
:10290800D4080020F81F0A0874BF080890BF0808F8
:1029180059190108A0BF0808B8BF0808E4BF08088B
:1029280000C008082CC008083CC0080844C00808B3
:1029380073B2E745C0D4010074C0080880C0080815
:102948008CC0080880B584B000AF78600023FB60B5
:102958007B68002B0CD109F0B7FB1449144B40F2EB
:10296800D512144809F0E4FC09F0AEFB00BFFDE7FE
:102978007B6842F60C220021184674F0D3FE012031
:102988003DF007FA02467B6803F50053C3F80C2AAA
:102998007B6803F50053D3F80C3A002B01D00123D0
:1029A800FB60FB6818461037BD4680BD72C1080839
:1029B80084C1080898C1080880B582B000AF786063
:1029C80039607B68002B0CD109F07EFB1849194B44
:1029D8004FF4F472184809F0ABFC09F075FB00BF1E
:1029E800FDE77B6803F50053D3F80C3A4FF0FF314D
:1029F80018463DF0B7FC0346012B0ED13B68002278
:102A080083F8002E7B6803F50053D3F80C0A0023E3
:102A1800002200213DF020FA06E00549074B40F26C
:102A2800F112074809F084FC00BF0837BD4680BD95
:102A380072C1080884C1080898C10808A0C108081C
:102A4800C0C1080880B584B000AF78600023FB607F
:102A58000023BB607B68002B0CD109F035FB2D49A6
:102A68002D4B4FF4FE722D4809F062FC09F02CFB47
:102A780000BFFDE77B6803F50053D3F80C3A4FF02D
:102A8800FF3118463DF06EFC0346012B36D100237A
:102A9800FB6025E07A68FB6840F6046101FB03F3FC
:102AA800134403F560631B7883F00103DBB2002B4A
:102AB80013D07A68FB6840F6046101FB03F3134402
:102AC80003F5606301221A70FB6840F6046202FB9A
:102AD80003F37A681344BB6005E0FB680133FB60CD
:102AE800FB68022BD6D97B6803F50053D3F80C0A90
:102AF8000023002200213DF0AFF906E00549084B0C
:102B080040F20E22074809F013FCBB68184610373C
:102B1800BD4680BD72C1080884C1080898C108086C
:102B2800A0C10808C0C1080880B582B000AF7860AD
:102B380078686DF0FDFA00203EF074FE00BF08379B
:102B4800BD4680BD80B586B002AF03463960FB71D3
:102B58000123FB73FB79072B73D801A252F823F0EA
:102B6800892B0108AF2B0108BF2B0108012C010894
:102B78002B2C01084B2C01084B2C01083B2C01087D
:102B88003749384B40F2DE22374809F0D1FB6DF067
:102B98002DFD0346FB733249344B40F2EB22344897
:102BA80009F0C6FB57E02E49324B40F2F3222E487B
:102BB80009F0BEFB4FE02A492F4B40F2FF222A487A
:102BC80009F0B6FB02206DF04DFD0346FB73FB7B5D
:102BD800002B07D12249294B40F22632224809F01E
:102BE800A7FB38E01E49FB7B0093254B40F22A32B5
:102BF8001F4809F09DFB2EE03B68002B0CD109F023
:102C080063FA17491F4B40F232321F4809F090FB14
:102C180009F05AFA00BFFDE739681C48FFF7CCFEF7
:102C280019E00F491A4B4FF44F72114809F080FB15
:102C380011E00B49174B4FF450720B4809F078FB21
:102C480009E00749FB790093134B4FF4517213487D
:102C580009F06EFB00BF00BF1037BD4680BD00BF46
:102C680072C10808C4C10808FCC1080800C20808E5
:102C7800C0C1080820C208085CC2080894C2080835
:102C8800C8C2080884C1080898C10808EC130020C5
:102C980000C3080840C3080854C3080894C30808B8
:102CA80080B588B002AF7860396000237B6107F196
:102CB800080300221A605A603B68002B0CD109F007
:102CC80003FA3349334B40F25532334809F030FBAD
:102CD80009F0FAF900BFFDE73B6858683B681B89B3
:102CE80019462E4B1A682E4B1B6800F053F9786171
:102CF8007B69012B39D13B681B6940F6FA52934234
:102D080025D82848FFF79EFE38613B69002B16D06E
:102D180038693B68D9683B681B691A4674F02BFF11
:102D28003B681A693B69C3F8FC2D06233B733B6972
:102D3800BB6007F1080318466DF022FA23E0144936
:102D4800194B40F27132194809F0F2FA1BE01049A8
:102D58003B681B6940F6FA5201920093144B40F20B
:102D68007632124809F0E4FA0DE009493B681B89FC
:102D78001A463B685B68019300920E4B40F27D3225
:102D88000D4809F0D5FA00BF1837BD4680BD00BF11
:102D980072C1080884C1080898C10808FC3D0020D1
:102DA800003E0020EC13002098C30808C0C10808A2
:102DB800C0C308080CC4080894C30808F0B589B053
:102DC80002AF7860396007F1080300221A605A6080
:102DD80000237B613B68002B0CD109F075F944494D
:102DE800444B40F28D32444809F0A2FA09F06CF9DC
:102DF80000BFFDE7414B1B68002B0CD109F064F9BB
:102E08003B493C4B40F28E323B4809F091FA09F0BD
:102E18005BF900BFFDE73B685C683B681B891E46A1
:102E2800364B1D68354B1B681846FDF72BFA0346D1
:102E38002A463146204600F0ADF878617B69012BBF
:102E480043D13B681B6940F6FA5293422FD8284970
:102E58003B681B6900932A4B40F29932294809F0D4
:102E680067FA2948FFF7EEFD38613B69002B16D059
:102E780038693B68D9683B681B691A4674F07BFE61
:102E88003B681A693B69C3F8FC2D03233B733B6914
:102E9800BB6007F1080318466DF072F923E0144986
:102EA8001A4B4FF46A721A4809F042FA1BE01049AB
:102EB8003B681B6940F6FA5201920093154B40F2A9
:102EC800AD32134809F034FA0DE009493B681B8913
:102ED8001A463B685B68019300920F4B40F2B2328E
:102EE8000E4809F025FA00BF1C37BD46F0BD00BFEB
:102EF80072C1080884C1080898C10808FC3D002070
:102F080064C40808FCC10808EC13002098C308082A
:102F1800C0C108088CC40808E4C4080894C3080899
:102F280080B586B002AF786039600023FB72002359
:102F3800FB603B6899B207F10B0300931423114A15
:102F4800786833F0C5F8FB7A002B01D00E4BFB6094
:102F5800FB7A83F00103DBB2002B0ED03B6899B2F9
:102F680007F10B0300931723084A786833F0B0F889
:102F7800FB7A002B01D0064BFB60FB681846103724
:102F8800BD4680BD3CC50808C52D010854C50808C4
:102F9800A92C010880B489B000AFF860B9607A60E4
:102FA8003B600023FB6100237B610C23BB611CE0B9
:102FB8007A693B689A4208D1FA68BB6913441B785E
:102FC8002F2B17D10123FB6114E07A687B69134426
:102FD8001A78F968BB690B441B789A420CD17B6953
:102FE80001337B61BB690133BB61BA69BB689A4233
:102FF800DED302E000BF00E000BFFB6918462437BB
:10300800BD465DF8047B704780B584B002AF786038
:1030180039607B68002B0CD109F056F81D491E4B0E
:1030280040F207421D4809F083F909F04DF800BF46
:10303800FDE77B681B68002B0CD109F045F81549A2
:10304800154B4FF48162154809F072F909F03CF804
:1030580000BFFDE73B68002B0CD109F035F80D499E
:103068000D4B40F209420D4809F062F909F02CF8BD
:1030780000BFFDE77B6818683B681B781A46002389
:1030880000930323002140F05FFC00BF0837BD46D2
:1030980080BD00BF72C1080884C1080898C108082B
:1030A80080B588B002AF78600B467B8013467B7092
:1030B8000023FB7500233B617B68002B0CD109F0D2
:1030C80003F82C492C4B40F21A422C4809F030F9ED
:1030D80008F0FAFF00BFFDE77B88002B0CD108F051
:1030E800F3FF2449244B40F21B42244809F020F9FD
:1030F80008F0EAFF00BFFDE77B8819467868FFF70C
:103108000FFFF86002F00AFF38613B69002B02D01C
:10311800FB68002B02D1A123FB7525E07A780023F8
:103128000093FB687968386903F028FC0346FB7252
:10313800FB7A002B0BD00F49FB7A0093104B4FF40E
:103148008662104809F0F4F8A123FB750CE00949E0
:103158007B887A68019200930B4B40F237420B4808
:1031680009F0E6F80023FB75FB7D18461837BD46C5
:1031780080BD00BF72C1080884C1080898C108084A
:103188006CC50808C0C108089CC50808FCC1080827
:1031980080B594B002AFF8607A603B600B467B81E3
:1031A800002387F84730012387F8463007F12803C2
:1031B80000221A605A609A60DA601A6107F11C03EB
:1031C80000221A605A609A600023BB6100237B6169
:1031D80000233B64FB68FB627B893B8697F8503091
:1031E80087F828307B687B633B68BB63002100203D
:1031F80040F042FF40F03AF803467B6142F2107318
:103208007B622D4BFB6107F114033B6202F086FEE3
:1032180038643B6C002B03D1A02387F8473044E087
:1032280007F11C0207F128031946386C72F008FDF3
:10323800034687F8463097F84630002B15D107F13A
:10324800180342F2107200924FF0FF320021002062
:1032580040F0DAFAF863FB6B012B03D0032387F8FD
:10326800463002E0BB6987F8463097F84630002BB5
:103278000DD0124997F846300093114B40F27D4229
:10328800104809F055F8A02387F847300DE00B499E
:103298007B89FA68019200930B4B40F282420B48FB
:1032A80009F046F8002387F8473097F84730184662
:1032B8004837BD4680BD00BF1130010872C10808FB
:1032C800B8C50808C0C10808F4C50808FCC1080842
:1032D80080B58AB004AF78600B467B8013467B705C
:1032E8000023FB7500233B617B68002B0CD108F0A1
:1032F800EBFE2D492D4B40F296422D4809F018F867
:1033080008F0E2FE00BFFDE77B88002B0CD108F037
:10331800DBFE2549254B40F29742254809F008F87D
:1033280008F0D2FE00BFFDE77B8819467868FFF7F2
:10333800F7FDF86002F0F2FD38613B69002B02D01E
:10334800FB68002B02D1A223FB7527E00023FA6853
:103358007968386903F064FD0346FB72FB7A002B39
:103368000FD011497B88FA7A02927A680192009309
:10337800104B40F2AB42104808F0DAFFA223FB756D
:103388000CE009497B887A68019200930B4B40F264
:10339800B4420B4808F0CCFF0023FB75FB7D1846B0
:1033A8001837BD4680BD00BF72C1080884C108082F
:1033B80098C1080824C60808C0C108085CC60808DF
:1033C800FCC1080880B582B000AF78607B68002B2C
:1033D8000CD108F079FE2549254B40F2C342254817
:1033E80008F0A6FF08F070FE00BFFDE77B68224AE0
:1033F8001A607B68214A5A607B68214A9A607B6818
:10340800204ADA607B68204A5A617B681F4A9A61C1
:103418007B681F4ADA617B681E4A1A627B681E4A0B
:103428005A627B681D4A9A627B681D4A1A637B68E8
:103438001C4ADA627B681C4ADA657B681B4A9A6513
:103448007B681B4ADA647B681A4A1A657B681A4AE1
:103458009A647B68194A5A657B68194A1A647B68BA
:10346800184A5A6400BF0837BD4680BD72C10808B3
:1034780084C1080898C1080841290808A129080832
:10348800F9290808BD2A0808692B08082D2D0808FD
:10349800B92D0808552E08086D2E0808A93001080E
:1034A80099310108D932010829B40208F9B1020892
:1034B80089AD020835B00208B9AE0208F5B40208B1
:1034C80011B002089DAB020880B483B000AF7860E9
:1034D8007B68134A1A607B684FF482729A807B6813
:1034E800104A9A607B684FF482729A817B680E4A10
:1034F8001A617B6880229A827B680C4A9A617B6891
:103508004FF40062DA617B68094A1A627B6880229C
:103518009A8400BF0C37BD465DF8047B704700BF36
:10352800E4080020E8090020EC0A00206C0B0020C9
:103538006C13002080B582B000AF6DF02FF8034601
:10354800022B04D0022B05DB043B032B02D80123FA
:103558007B6002E000237B6000BF7B681846083769
:10356800BD4680BDB0B5BAB006AF78600123C7F8D4
:10357800CC30002387F8C33007F1B40300221A6067
:103588005A60012387F8CB300023C7F8C43007F10D
:103598001C0338220021184674F0C4F807F15403BC
:1035A8001846FFF70FFF07F11C031846FFF78CFFBB
:1035B800B049B14BDB781A46AF4B9B781846AE4BF7
:1035C8001B88029301900092AC4B4FF4A662AC4862
:1035D80008F0AEFED7F8CC30012B18D1A94900204D
:1035E8000CF0E8FC0346A84A1360A74B1B68002BA5
:1035F80003D0A44B1B68002B09D10023C7F8CC309B
:103608009C49A24B40F24F52A14808F091FED7F8CE
:10361800CC30012B2DD197499E4B40F256529848F9
:1036280008F086FE9C4B18689C4B009301230022EF
:1036380020213BF029FFC7F8BC00D7F8BC3003F0C5
:103648002003002B0BD08B49954B4FF4AC628C4870
:1036580008F06EFE02F062FCC7F8C40009E000231F
:10366800C7F8C43083498F4B40F26652844808F04B
:103678005FFED7F8CC30012B1DD1D7F8C430002B12
:1036880019D000230093884B00228849D7F8C4003A
:1036980003F074F9034687F8CB3097F8CB30002B4A
:1036A80009D07449824B40F27552794808F040FEBF
:1036B8000023C7F8CC30D7F8CC30012B1DD1D7F870
:1036C800C430002B19D000230093774B002279498E
:1036D800D7F8C40003F052F9034687F8CB3097F8BF
:1036E800CB30002B09D06349734B40F285526848B0
:1036F80008F01EFE0023C7F8CC30D7F8CC30012BD9
:1037080004D16E48FFF71EF9C7F8CC00D7F8CC30C3
:10371800012B1CD15C4B1A6807F1540107F11C00FE
:10372800674B6CF0B1FE034687F8C33097F8C33097
:10373800002B0CD04F4997F8C3300093614B40F2EF
:103748009752534808F0F4FD0023C7F8CC30D7F857
:10375800CC30012B1AD100230193032300930023BB
:103768004FF48052584959483DF0F0FEC7F8CC0054
:10377800D7F8CC30012B09D03E49D7F8CC3000938C
:10378800534B40F2A652424808F0D2FDD7F8CC304D
:10379800012B3CD1002387F8B83007F1B403184651
:1037A8006CF0EEFC07F10C0300221A605A609A6074
:1037B800DA60FFF7BFFE0346012B1FD107F10C03A8
:1037C80018466CF0F7FE0346002B17D1294D6CF014
:1037D800E5FE03461A463F4B53F82230FA6839692A
:1037E8007869BC69049403900291019200933A4B62
:1037F80040F2BD522946224808F09AFD47F230505F
:103808003EF0A4F86CF0CAFE03460A2BCAD1194947
:10381800324B40F2CA521A4808F08AFD97F8CB306A
:10382800002B14D10023204A2049D7F8C40003F004
:10383800F7FA034687F8CB3097F8CB30002B06D041
:103848000C49274B40F2D552114808F071FD0E4B38
:103858001B68002B07D00C4B1B68184641F024FD51
:10386800094B00221A6000203DF0DCFF00BFD03772
:10387800BD46B0BD72C10808F81F0A087CC6080812
:10388800FCC10808003E0020FC3D0020A4C6080832
:10389800C0C10808D4C60808FC880020C0D40100AC
:1038A800FCC6080824C70808C52D010858C7080819
:1038B80078C70808B4C70808D4C70808EC1300205C
:1038C8004D2B010804C8080834C80808312B010822
:1038D80040C80808180000206CC80808B0C80808C4
:1038E800DCC8080880B584B002AF786039607B68AE
:1038F8001B68002B0AD07B6818683B681B781A463F
:10390800002300930323002140F01EF800BF08376E
:10391800BD4680BD80B594B002AFBA607B600346F7
:10392800FB730B46BB7307F12C0300221A605A6025
:103938009A60DA601A6107F1240300221A605A605B
:1039480007F1180300221A605A609A6000237B610D
:103958000021002040F090FBFB7B87F82C30BB7BDC
:1039680087F82D30BB683B63B868FCF78BFC0346CF
:103978009BB2BB867B68BB633B6DFB633FF076FC09
:1039880003467B624FF4FA733B621D4BBB6107F140
:103998002403FB611B4B1B6807F1180207F12C017C
:1039A800184672F04DF9034687F8473097F84730C4
:1039B800002B1BD107F114034FF0FF3200920022B5
:1039C800002100203FF020FF38643B6C012B0AD116
:1039D8007B69002B03D0032387F8473006E00023D8
:1039E80087F8473002E0032387F8473097F84730D5
:1039F800002BCFD197F8473018464837BD4680BDD1
:103A0800ED380108483E002080B582B000AF7860EC
:103A1800074B1B68002B06D0054B1B6800220121B1
:103A280018463BF05BFF00BF0837BD4680BD00BFAE
:103A3800443E002080B582B000AF7860074B1B6819
:103A4800002B06D0054B1B680022012118463BF0CD
:103A580045FF00BF0837BD4680BD00BF443E00207B
:103A680090B597B004AF7860002387F8363001230B
:103A780087F8353000233B630023BB6001F050FA20
:103A880002F04CFA0346A64A1360A54B1B68002BAC
:103A98000CD108F019FBA349A34B4FF48372A34838
:103AA80008F046FC08F010FB00BFFDE701F074FACF
:103AB8009C499F4B40F20B129E4808F039FC07F1D5
:103AC8000803194600200CF075FA38633B6B002B8D
:103AD8000CD108F0F9FA9349934B4FF48772934845
:103AE80008F026FC08F0F0FA00BFFDE74FF400707C
:103AF80041F094FAF862FB6A002B0CD108F0E4FA62
:103B08008849894B40F21112884808F011FC08F0E6
:103B1800DBFA00BFFDE73BF09DFC0346864A1360D5
:103B2800854B1B68002B0CD108F0CEFA7D497E4BE3
:103B38004FF48A727D4808F0FBFB08F0C5FA00BF15
:103B4800FDE73B6B7D4A40217D4873F047FC00222E
:103B58007C494FF400500DF0E1FE00227A494FF401
:103B680000500DF01BFF002387F8473011E0724B1F
:103B78001A6897F8473075491B010B4404331B68D2
:103B8800194610463BF096FD97F84730013387F801
:103B9800473097F84730002BE9D000233B640023D7
:103BA80087F83F300EE097F83F30684A1B0113440E
:103BB80004331B683A6C13433B6497F83F30013376
:103BC80087F83F3097F83F30002BECD05A4B1868F5
:103BD8004FF0FF33009300230122396C3BF054FC73
:103BE800B862BB6A002BD8D0594A4FF40071F86A02
:103BF80073F0F4FBB863BB6B002B0CDA08F064FAC3
:103C08004849494B40F23F12484808F091FB08F0F8
:103C18005BFA00BFFDE7002387F837304AE097F8E2
:103C280037301B01494A1344BB61BB699A68BB69B9
:103C38009B89194610461DF089FC0346FB75BB6934
:103C4800FA7DDA73BB699B7BFA7D9A4201D1414BBD
:103C580000E0414B3B61BB6BFA6AD018BB6BC3F504
:103C68000071BB6B142B01DD3C4C00E03C4CBB6984
:103C78001B683A690192009323463A4A73F0AEFBF7
:103C8800F860FB68002B0CDA08F01EFA2549264B71
:103C980040F25312254808F04BFB08F015FA00BF14
:103CA800FDE7BA6BFB681344BB6397F83730013301
:103CB80087F8373097F83730002BB0D0BB6BFA6AEB
:103CC800D018BB6BC3F50073274A194673F086FBFF
:103CD80078627B6A002B0CDA08F0F6F91149124B6E
:103CE80040F25B12114808F023FB08F0EDF900BF21
:103CF800FDE7BA6B7B6A1344BB63BB6B3B623B6AF1
:103D0800B3F5007F32D308F0DFF90649064B40F2DD
:103D18005F12064808F00CFB08F0D6F900BFFDE773
:103D2800483E002021C9080830C9080844C90808C5
:103D38004CC9080884C90808443E002088C90808F6
:103D4800043E0020113A01083D3A010848000020CD
:103D5800A4C90808BCC90808C0C90808C4C9080813
:103D6800C8C90808CCC90808ECC9080816493B6A3C
:103D7800FA6A02920193154B0093154B40F26112B7
:103D8800144808F0D5FA97F8351097F836003B6ACA
:103D98000093FB6A0D4AFFF7BDFD0346FB77FB7FE7
:103DA800002B07D108490C4B4FF4B772094808F0AB
:103DB800BFFAF2E60449054B0093084B4FF4B97279
:103DC800074808F0B5FAE8E621C90808043E0020CB
:103DD800F4C9080884C9080824CA080850CA080889
:103DE80080CA080880B483B000AF0346FB71094B52
:103DF8001B78DBB2012B02D0022B02D003E0002398
:103E080002E0012300E0032318460C37BD465DF8A5
:103E1800047B70475C42002080B582B000AF7860B8
:103E28007B6858687B681B88012219461DF0A6FB31
:103E38004FF47A703DF08AFD7B6858687B681B8870
:103E4800002219461DF09AFB00BF0837BD4680BD09
:103E580080B582B000AF78607B6804331846FFF7FE
:103E6800DBFF00BF0837BD4680BD80B582B000AF1C
:103E780078607B6804331846FFF7CEFF00BF083729
:103E8800BD4680BD80B582B000AF78607B680433E2
:103E98001846FFF7C1FF00BF0837BD4680BD0000C8
:103EA80080B584B000AF78600023FB7313E0FB7B20
:103EB8000D4A1B0113441B6879681846FCF7D8F9AA
:103EC8000346002B04D1FB7B1B01074A134406E081
:103ED800FB7B0133FB73FB7B002BE8D000231846E8
:103EE8001037BD4680BD00BF5800002080B483B0A5
:103EF80000AF0346FB71FB79022B0AD0022B0ADCC8
:103F0800002B02D0012B02D005E0064B04E0064B43
:103F180002E0064B00E0064B18460C37BD465DF83C
:103F2800047B704794CA08089CCA0808A4CA0808F1
:103F3800ACCA080880B584B002AF786039607B6885
:103F48001B68002B0AD07B6818683B681B781A46E8
:103F580000230093032300213FF0F6FC00BF08373D
:103F6800BD4680BD80B592B002AFBA607B600346A3
:103F7800FB730B46BB7307F1280300221A605A60D3
:103F88009A60DA601A6107F11C0300221A605A600D
:103F98009A6007F1140300221A605A6000233B61FB
:103FA8000021002040F068F8FB7B87F82830BB7BB5
:103FB80087F82930BB68FB62B868FCF763F90346E9
:103FC8009BB23B867B687B63BB6CBB633FF04EF95F
:103FD80003467B614FF4FA737B621C4BFB6107F16C
:103FE80014033B621A4B1B6807F11C0207F12801F6
:103FF800184671F025FE034687F83F3097F83F30A2
:10400800002B18D107F110034FF0FF320092002265
:10401800002100203FF0F8FB0346012B08D13B6943
:10402800002B01D1002300E0032387F83F3002E092
:10403800032387F83F3097F83F30002BD2D197F809
:104048003F3018464037BD4680BD00BF3D3F0108A0
:104058008C3E002080B586B002AF78603960786801
:10406800FFF71EFFF860FB68002B09D116497B6833
:104078000093164B4FF49F72154808F059F91FE04A
:1040880014493868FCF7F4F80346002B03D1F868A4
:10409800FFF7DEFE14E010493868FCF7E9F803463C
:1040A800002B03D1F868FFF7E0FE09E00B493868F8
:1040B800FCF7DEF80346002B02D1F868FFF7E2FEB2
:1040C8001037BD4680BD00BFC8CA0808D8CA08084E
:1040D800F0CA0808F4CA0808FCCA080804CB08088B
:1040E80080B5C0B000AF786007F58073A3F5807322
:1040F800196007F58073A3F580731B681B89C7F8DF
:10410800FC30D7F8FC307F2B02D97F23C7F8FC306E
:1041180007F58073A3F580731B68596807F1680376
:10412800D7F8FC20184673F026FD07F16802D7F887
:10413800FC30134400221A7007F58073A3F58073CE
:104148001B681B69C7F8F830D7F8F8303F2B02D93D
:104158003F23C7F8F83007F58073A3F580731B6811
:10416800D96807F12803D7F8F820184673F003FD3B
:1041780007F12802D7F8F830134400221A7007F123
:1041880068032649184673F0C1FBC7F8F000D7F852
:10419800F030002B3AD0D7F8F0300733C7F8F030BA
:1041A800D7F8F030C7F8EC302F21D7F8EC0073F0CF
:1041B800DDFAC7F8E800D7F8E830002B28D0D7F8A0
:1041C800E820D7F8EC30D31AC7F8F430D7F8F43031
:1041D8001F2B02D91F23C7F8F43007F10803D7F8BB
:1041E800F420D7F8EC10184673F0C5FC07F1080264
:1041F800D7F8F430134400221A7007F1280207F1A7
:10420800080311461846FFF725FF02E000BF00E04B
:1042180000BF07F58077BD4680BD00BF0CCB0808FE
:1042280080B5A6B002AF0346FB7107F10C001A4B2C
:104238001A4A802173F0D2F8194B1868FA7907F1F5
:104248000C0100230093174B02F098FB034687F8F4
:104258008F3097F88F30002B0AD0134907F10C03E1
:104268000093124B40F2A512114808F061F809E0DA
:104278000D4907F10C0300930E4B40F2A7120E48AC
:1042880008F056F897F88F30002BD5D197F88F3073
:1042980018469037BD4680BD4C3E002014CB080818
:1042A8008C3E0020E9400108C8CA080828CB080845
:1042B80040CB080844CB080854CB080880B5AEB0FA
:1042C80002AF002387F8AF303DE097F8AF301B010D
:1042D800214A1344C7F8A83097F8AF301846FFF7BB
:1042E80081FD03461A46D7F8A8301A73D7F8A830C4
:1042F8001B6807F120000093184B194A802173F0BE
:104308006DF8D7F8A8301B7B1846FFF7EFFDC7F804
:10431800A4003846D7F8A430124A202173F05EF87A
:104328000346C7F8A030394607F12002D7F8A03075
:1043380000930B4601210120FFF714FE97F8AF30D8
:10434800013387F8AF3097F8AF30002BBDD000BFEE
:1043580000BFB037BD4680BD580000204C3E00204D
:1043680058CB08086CCB080880B588B002AF7860D5
:1043780000F0D6FD01F0D2FD03463B4A13603A4BEC
:104388001B68002B0CD107F09FFE3849384B4FF4BF
:10439800F772384807F0CCFF07F096FE00BFFDE73C
:1043A80000F0FAFD0023BB6007F10803194600205E
:1043B8000BF000FE38613B69002B0CD107F084FE3E
:1043C8002A492B4B4FF4FA722A4807F0B1FF07F03D
:1043D8007BFE00BFFDE7BB681A463969264873F0C3
:1043E800CAFBBB68244A0021D154386940F05CFFFD
:1043F8001E49214B0093214B4FF4FD72204807F0D2
:1044080097FF0120FFF70CFFFFF758FF1D4B1868B7
:104418004FF0FF330093002301224FF400713BF06B
:1044280033F80023FB751AE0FB7D1846FFF7DAFC2A
:104438000346FB73FB7D144A1B0113440C331B78A2
:10444800FA7B9A4208D0FB7D0F4A1B0113440C33B8
:10445800FA7B1A70FFF732FFFB7D0133FB75FB7D9A
:10446800002BE1D0D2E700BF8C3E0020C8CA080864
:1044780070CB080884CB08084C3E00208CCB080879
:1044880054CB0808FC8800205800002080B5A2B052
:1044980004AF786000233B650023FB6400237B673F
:1044A800002387F873308CE097F873301B01974A24
:1044B8001344FB65FB6D1B6807F10C00944A40210F
:1044C80072F08CFFB865BB6D002B74DDBB6D3F2BA4
:1044D80071DC00233B650023FB647868FBF7D2FEA0
:1044E800B96D07F10C020023029307F14C03019305
:1044F80007F1500300930B460146786870F051FAB3
:10450800034687F8573097F85730012B54D13B6D45
:10451800002B51D0FB6C002B4ED0FB6C022B23D10F
:104528003B6DFA6C7B49184673F065F90346002B1E
:104538001AD1FB6D1B7B1A46774B53F82230002BA0
:104548003AD1FB6D1B7B1946734B012243F821209E
:1045580001237B67FB6D5868FB6D1989FB6D9B7A9E
:104568001A461DF00BF827E0FB6C032B24D13B6D9A
:10457800FA6C6A49184673F03EF90346002B1BD1C2
:10458800FB6D1B7B1A46644B53F82230012B13D169
:10459800FB6D1B7B1946604B002243F82120012349
:1045A8007B67FB6D5868FB6D1989FB6DDB7A1A46D2
:1045B8001CF0E4FF00E000BF97F87330013387F880
:1045C800733097F87330012B7FF66EAF7B6F002B3B
:1045D80040F08F8052497868FBF74AFE0346002B6B
:1045E8001CD14A4B3B663B6E1B7B1A464A4B53F821
:1045F8002230002B7DD13B6E1B7B1946464B012296
:1046080043F821203B6E58683B6E19893B6E9B7AB4
:104618001A461CF0B3FF01237B676AE041497868BA
:10462800FBF726FE0346002B1CD1384B7B667B6EBE
:104638001B7B1A46384B53F82230012B59D17B6E1D
:104648001B7B1946344B002243F821207B6E5868A7
:104658007B6E19897B6EDB7A1A461CF08FFF01236B
:104668007B6746E030497868FBF702FE0346002B7B
:104678001CD12E4BBB66BB6E1B7B1A46264B53F8D0
:104688002230002B35D1BB6E1B7B1946224B0122F1
:1046980043F82120BB6E5868BB6E1989BB6E9B7AA4
:1046A8001A461CF06BFF01237B6722E020497868DB
:1046B800FBF7DEFD0346002B1BD11C4BFB66FB6E94
:1046C8001B7B1A46144B53F82230012B11D1FB6E79
:1046D8001B7B1946104B002243F82120FB6E5868BB
:1046E800FB6E1989FB6EDB7A1A461CF047FF012323
:1046F8007B677B6F012B05D10E4B1B680121184688
:104708003AF0D8FF00BF7837BD4680BD341E0A088E
:10471800C4CB0808DCCB0808103F0020E0CB080811
:10472800E4CB0808F0CB0808FCCB0808441E0A08AC
:104738000CCC0808183F002080B584B002AF786020
:1047480039607B681B68002B0AD07B6818683B6857
:104758001B781A4600230093032300213FF0F4F846
:1047680000BF0837BD4680BD80B584B002AF786011
:1047780039603B681B697F2B0DD83B68D9683B685B
:104788001B691A46124873F0F6F93B681B69104A10
:104798000021D1540CE03B68DB680D4A10461946ED
:1047A80080231A4673F0E7F9094B002283F87F202B
:1047B8000849074B0093084B40F28F12074807F04F
:1047C800B7FD0348FFF762FE00BF0837BD4680BD4E
:1047D800203F00202ECC08083CCC080864CC0808F0
:1047E80090B587B002AF03463960FB71174B186864
:1047F800FA7900230093164B396802F0BFF8034694
:10480800FB73FB7B002B09D01249FB7B0093124BF7
:1048180040F2A512114807F08BFD0EE00D4C3868E8
:10482800FBF730FD02463B68019300920C4B40F2C7
:10483800A91221460B4807F07BFDFB7B002BD5D145
:10484800FB7B18461437BD4690BD00BF1C3F0020B7
:10485800714701082ECC080868CC080898CC0808CD
:104868009CCC080864CC080880B594B002AFBA6044
:104878007B600346FB730B46BB7307F12C030022D6
:104888001A605A609A60DA601A6107F124030022FC
:104898001A605A6007F1180300221A605A609A6079
:1048A80000237B61002100203FF0E6FBFB7B87F8BB
:1048B8002C30BB7B87F82D30BB683B63B868FBF7AF
:1048C800E1FC03469BB2BB867B68BB633B6DFB6325
:1048D8003EF0CCFC03467B624FF4FA733B621D4BFF
:1048E800BB6107F12403FB611B4B1B6807F118022E
:1048F80007F12C01184671F0A3F9034687F84730F1
:1049080097F84730002B1BD107F114034FF0FF3203
:1049180000920022002100203EF076FF38643B6CB4
:10492800012B0AD17B69002B03D0032387F847307A
:1049380006E0002387F8473002E0032387F8473072
:1049480097F84730002BCFD197F8473018464837AB
:10495800BD4680BD414701081C3F002080B590B08E
:1049680004AF78600123BB62012387F82730012355
:1049780087F8263000233B620023FB6000F0D0FA62
:1049880001F0CCFA0346864A1360854B1B68002B5E
:104998000CD107F099FB8349834B40F20A228348E4
:1049A80007F0C6FC07F090FB00BFFDE700F0F4FA43
:1049B8007C497F4B40F20E227E4807F0B9FC07F194
:1049C8000C03194600200BF0F5FA38623B6A002BFD
:1049D8000CD107F079FB7349734B40F211227348ED
:1049E80007F0A6FC07F070FB00BFFDE7802040F051
:1049F80015FBF861FB69002B0CD107F065FB6949D1
:104A0800694B4FF40572694807F092FC07F05CFBAC
:104A180000BFFDE73B6A684A4021684872F0DEFC47
:104A28003B6A674A4021674872F0D8FC3AF012FDA9
:104A38000346654A1360644B1B68002B0CD107F0D2
:104A480043FB5849584B40F21B22584807F070FC6A
:104A580007F03AFB00BFFDE7BB6A012B16D197F8B8
:104A6800273058491846FFF7BBFE0346FB76FB7E06
:104A7800002B0BD04B49534B0093544B40F222224E
:104A8800534807F055FC00203CF0CCFE4E4B1B6809
:104A9800012118463AF00EFE4B4B18684FF0FF33D1
:104AA80000930123012201213AF0EEFC78617B6931
:104AB80003F00103002BEFD0002387F82F300EE01E
:104AC80097F82F2097F82F30424951F82220424971
:104AD80041F8232097F82F30013387F82F3097F8C3
:104AE8002F30012BECD900231A463A4B53F82230C9
:104AF800002B01D0394A00E0394A01231946354BC9
:104B080053F82130002B01D0344B00E0344B009394
:104B18001346344A8021F86972F060FC03463B6111
:104B28003B697F2B0CD907F0CFFA1E491E4B4FF477
:104B380011721E4807F0FCFB07F0C6FA00BFFDE73C
:104B480018493B69FA69029201931C4B0093264B62
:104B580040F24622174807F0EBFB97F8261097F823
:104B680027003B690093FB69144AFFF77DFE034663
:104B7800FB76FB7E002B09D10A49104B00931B4B97
:104B880040F253220B4807F0D3FB85E705490B4B4E
:104B98000093174B4FF416720D4807F0C9FB7BE7DB
:104BA8001C3F00202ECC0808B8CC0808CCCC08083C
:104BB800D4CC080864CC08081CCD0808D03E0020D6
:104BC8002CCD0808903E0020183F00203CCD080856
:104BD80098CC0808103F002068000020DCCB0808AB
:104BE800E0CB080860CD0808BCCD0808E4CD08086B
:104BF80008CE080880B582B000AF124B1B68002BA6
:104C08001CD10022042120203BF02CF803460D4A39
:104C1800136000237B600EE07B681B010A4A134483
:104C28003B60084B18683946002300223BF014F912
:104C38007B6801337B607B681F2BEDD900BF083789
:104C4800BD4680BDA0410020A03F00202DE9F04FC7
:104C580085B000AF78600021F9602D490968002906
:104C68004AD02B490E68796800200C460546204634
:104C780029464FF0000A4FF0000B4FEA411B4BEA60
:104C8800D06B4FEA401A50465946021B61EB0503A8
:104C98004FF000004FF00001990041EA9271900036
:104CA80002460B4612EB040843EB05094FF00002DD
:104CB8004FF000034FEAC90343EA58734FEAC802AA
:104CC80090469946404649464FF47A724FF00003A1
:104CD800FBF7C4FF02460B4607F10C0319463046A2
:104CE8003BF062FA0346002B0CD10A490A4B5A22C0
:104CF8000A4807F01DFB05E00649094B5F220748F3
:104D080007F016FBFB6818461437BD46BDE8F08F60
:104D1800A04100203BCE080854CE080874CE0808ED
:104D280078CE080880B586B002AF78600023FB60B3
:104D3800164B1B68002B06D11549164B6D221648D9
:104D480007F0F6FA18E07B68144A934203D37B68AD
:104D5800134A934208D90E497B680093114B73227A
:104D68000D4807F0E5FA07E0084B1868391D0023DD
:104D780000223BF071F8F860FB68002B14BF012398
:104D88000023DBB218461037BD4680BDA041002085
:104D98003BCE080878CE080874CE0808A03F00204B
:104DA800A041002098CE080890B587B002AF78607F
:104DB8000023FB607B68002B0BD107F085F92349A2
:104DC800234BE122234807F0B3FA07F07DF900BF2F
:104DD800FDE77B68D3F8A432002B0BD107F074F9F8
:104DE8001A491B4BE2221B4807F0A2FA07F06CF99C
:104DF80000BFFDE73EF03AFA04467B68D3F8A432D8
:104E080018463AF0F9FF03469C4205D10F49124B68
:104E1800E422104807F08CFA7B68D3F8A4324FF0EC
:104E2800FF3118463BF09EFAF860FB68002B07D16B
:104E38000649FB680093094BEF22094807F078FA06
:104E4800FB6818461437BD4690BD00BFF7CE08086A
:104E58000CCF080820CF080828CF080844CF080836
:104E68006CCF080890B587B002AF78600023FB606C
:104E78007B68002B0BD107F027F92349234BFB2232
:104E8800234807F055FA07F01FF900BFFDE77B68D4
:104E9800D3F8A432002B0BD107F016F91A491B4B93
:104EA800FC221B4807F044FA07F00EF900BFFDE7A3
:104EB8003EF0DCF904467B68D3F8A43218463AF091
:104EC8009BFF03469C4205D00F49124BFD22104818
:104ED80007F02EFA7B68D3F8A402002300220021F1
:104EE8003AF0BAFFF860FB68002B08D10649FB6866
:104EF8000093094B40F20712084807F019FAFB68BB
:104F080018461437BD4690BDF7CE08080CCF0808E0
:104F180020CF080828CF080870CF08086CCF0808E9
:104F280080B584B002AF184B1B68002B0CD107F07A
:104F3800CBF81649164B4FF48872164807F0F8F963
:104F480007F0C2F800BFFDE70F4B18684FF0FF33BA
:104F580000930123002210213AF096FA78607B68CA
:104F680003F01003002B00D1EEE700BF02E00A2097
:104F78003CF0ECFC00F0D2FF0346002BF7D000BF5A
:104F880000BF0837BD4680BDFC880020F7CE080862
:104F98000CCF080820CF080880B584B002AF134BA7
:104FA8001B68002B0CD107F08FF81149114B4FF4F7
:104FB8009572114807F0BCF907F086F800BFFDE7C5
:104FC8000A4B18684FF0FF33009301230022202179
:104FD8003AF05AFA78607B6803F02003002B00D17E
:104FE800EEE700BF00BF0837BD4680BDFC88002043
:104FF800F7CE08080CCF080820CF080880B584B081
:1050080002AF0B4B186800230093012300222021D4
:105018003AF03AFA78607B6803F02003002B14BF5B
:1050280001230023DBB218460837BD4680BD00BF08
:10503800FC88002080B586B000AFF860B9607A605F
:105048003B60FB68002B0CD107F03EF83249334B2C
:1050580040F24F12324807F06BF907F035F800BFFD
:10506800FDE7BB68002B0CD107F02EF82A492B4B23
:105078004FF4A8722A4807F05BF907F025F800BF3B
:10508800FDE77B68132B0CD907F01EF82249234B48
:1050980040F25112224807F04BF907F015F800BF0B
:1050A800FDE73B68132B0CD907F00EF81A491B4B88
:1050B8004FF4A9721A4807F03BF907F005F800BF4A
:1050C800FDE700237B611EE07B691B01FA6813443E
:1050D800D9687A6813465B0013449B001A46BB687C
:1050E800134499420CD13A6813465B0013449B0061
:1050F80019467B691B01FA681344BA680A44DA60E6
:105108007B6901337B617B69132BDDD900BF00BF4D
:105118001837BD4680BD00BFF7CE08080CCF080879
:1051280020CF080880B588B000AFF860B9607A6011
:105138000023FB610023BB61FB68002B0CD106F048
:10514800C3FF5349534B4FF4B372534807F0F0F879
:1051580006F0BAFF00BFFDE7BB68002B0CD106F0D4
:10516800B3FF4B494B4B40F267124B4807F0E0F84E
:1051780006F0AAFF00BFFDE700237B617DE07A69A6
:1051880013465B0013449B001A46FB6813445B6894
:10519800002B56D17A6913465B0013449B001A46CC
:1051A800FB6813441B89002B4BD1FB69132B48D890
:1051B800FA697B699A4240D87B690133FB613CE01C
:1051C800FA6913465B0013449B001A46FB681344B4
:1051D8001B89002B2ED0FA6913465B0013449B00F1
:1051E8001A46FB6899187A6913465B0013449B00BA
:1051F8001A46FB6813440A4607CA83E80700FA6997
:1052080013465B0013449B001A46FB6813440C22A8
:105218000021184672F086FA7B69FA69F968B8685D
:10522800FFF708FFBB690133BB61FB690133FB6111
:1052380000BF1FE0FB690133FB61FB69132BBFD97A
:1052480018E07A6913465B0013449B001A46FB6812
:1052580013445B68002B0DD07A6913465B00134436
:105268009B001A46FB6813441B89002B02D0BB69BC
:105278000133BB617B6901337B617B69132B7FF64B
:105288007EAF7B68BA691A6000BF2037BD4680BD13
:10529800F7CE08080CCF080820CF080890B587B0CB
:1052A80000AF7860396000237B6100233B617B6835
:1052B800002B0CD106F008FF4D494E4B4FF4D1722C
:1052C8004D4807F035F806F0FFFE00BFFDE73B68E4
:1052D800002B0CD106F0F8FE4549464B40F2A312CC
:1052E800454807F025F806F0EFFE00BFFDE700236C
:1052F800FB6073E0FB681B017A681344DB68002BD2
:105308005FD17B69132B5CD87A69FB689A4254D8C1
:10531800FB6801337B6150E07B691B017A681344A9
:10532800DB68002B46D07A69FB689A420CD806F0F5
:10533800CBFE2F492F4B40F2B5122F4806F0F8FF4D
:1053480006F0C2FE00BFFDE77B691B017A68D11831
:10535800FB681B017A6813441C460B460FCB84E894
:105368000F007B691B017A6813441022002118463C
:1053780072F0D8F97B691B017A68134400221A601D
:105388007B691B017A68134400225A607B691B0100
:105398007A68134400229A607B691B017A68134477
:1053A8000022DA603B6901333B617B6901337B6131
:1053B80000BF10E07B6901337B617B69132BABD99C
:1053C80009E0FB681B017A681344DB68002B02D0F4
:1053D8003B6901333B61FB680133FB60FB68132BBE
:1053E80088D93B683A691A6000BF1C37BD4690BD32
:1053F800F7CE08080CCF080820CF08082DE9F04F91
:1054080089B002AFF860B9607A6000237B61FB68FD
:10541800002B50D0BB68002B4DD0FB681E687B6802
:1054280000229846914642464B464FF000004FF006
:105438000001590141EAD261500102460B46B2EB24
:10544800080463EB09054FF000024FF00003AB00BE
:1054580043EA9473A20014461D4614EB080A45EB70
:10546800090B4FF000024FF000034FEACB0343EA69
:105478005A734FEACA0292469B46504659464FF421
:105488007A724FF00003FBF7E9FB02460B46002354
:10549800B96830463AF0E0FC7861FB685B68002B3D
:1054A80009D0FB6858680023009301234FF080421D
:1054B80003213EF049FA7B69002B14BF0123002326
:1054C800DBB218461C37BD46BDE8F08F2DE9B04F5A
:1054D80088B002AFF860B9607A6000237B6100236E
:1054E8003B61FB68002B55D0BB68002B52D07B6812
:1054F80000229846914642464B464FF000004FF036
:105508000001590141EAD261500102460B46B2EB53
:10551800080463EB09054FF000024FF00003AB00ED
:1055280043EA9473A20014461D4614EB080A45EB9F
:10553800090B4FF000024FF000034FEACB0343EA98
:105548005A734FEACA0292469B46504659464FF450
:105558007A724FF00003FBF781FB02460B4607F116
:10556800100300924FF0FF32002103203EF04CF967
:105578000346002B0ED03B69002B03DABB680022E0
:105588001A6007E0FB681B680022B96818463AF001
:105598000BFE78617B69002B14BF01230023DBB26B
:1055A80018461837BD46BDE8B08F000090B58BB0DF
:1055B80002AF786039607B687B617B68002B0CD117
:1055C80006F082FD4B494C4B40F229224B4806F02D
:1055D800AFFE06F079FD00BFFDE73B68002B0CD15C
:1055E80006F072FD4349444B40F22A22434806F034
:1055F8009FFE06F069FD00BFFDE73DF037FE04465B
:105608007B69D3F8A43218463AF0F6FB03469C426D
:105618000CD006F059FD3749374B40F22B2237485A
:1056280006F086FE06F050FD00BFFDE70023FB6193
:1056380052E03B685A68FB69134419787A69FB6938
:105648001344F0330A461A703B685A68FB691344DE
:105658001B78802B3DD1FA6913465B0013449B00ED
:105668007A6913443B6123493B691B891A463B69A4
:105678005B6801930092224B4FF40E72214806F0AA
:1056880057FE0023BB6121E0BB6915331B017A6912
:1056980013440433FB60FB68DB683A699A4212D111
:1056A800FB689B68002B0ED0124CFB689B68184661
:1056B8003CF06CFD03460093134B40F24322214615
:1056C800124806F035FEBB690133BB61BB69132B79
:1056D800DAD9FB690133FB617B69D3F89432FA6943
:1056E8009A42A6D37869FFF7BDFB00BF2437BD46B1
:1056F80090BD00BFF7CE08080CCF080820CF0808D7
:105708009CCF08086CCF0808CCCF08081CD0080824
:1057180090B589B002AF786039603B68002B0CD136
:1057280006F0D2FC3D493E4B4FF415723D4806F059
:10573800FFFD06F0C9FC00BFFDE73B68D3F8A432C3
:10574800002B0CD106F0C0FC3449354B40F25522F1
:10575800344806F0EDFD06F0B7FC00BFFDE73DF06C
:1057680085FD04463B68D3F8A43218463AF044FB5A
:1057780003469C420CD006F0A7FC2849284B40F26F
:105788005622284806F0D4FD06F09EFC00BFFDE72F
:1057980038683B6803F5AA713B6803F525731A4618
:1057A800FFF7C0FC3B68D3F89432002B2CD01E4B7B
:1057B800BB603B68FB6000233B613A683B68C3F809
:1057C8009C223B68D3F894223B68C3F8A0223B682C
:1057D80003F5277307F108021946786870F0C0F9D5
:1057E8000346FB75FB7D002B13D00C4CFB7D184644
:1057F80030F0FEFC034600930C4B40F27122214628
:105808000B4806F095FD04E03868FFF72BFB0023F2
:10581800FB75FB7D18461C37BD4690BDF7CE0808C2
:105828000CCF080820CF0808B555010820D0080873
:105838006CCF080880B588B002AFF860B96013462D
:10584800FB800023FB750023BB75FB685A68FB6867
:105858001889F98807F1160300930346B86830F0F1
:1058680037FC0346FB75FB7D002B04D1BB7D002B69
:1058780001D0012300E0002303F00103DBB2184646
:105888001837BD4680BD90B585B000AFF860B960E7
:105898007A603B60FB68DB68BA689A4212D1FB68A1
:1058A8005B683A689A420DD1FB681B687A689A422D
:1058B80008D1FB689C683DF0D9FC03469C4201D1A5
:1058C800012300E0002303F00103DBB2184614377C
:1058D800BD4690BD80B58CB002AFF8600B467A60CB
:1058E8007B810023FB61002387F82730FB68002BAE
:1058F8000CD106F0E9FB4449444B40F2A922444844
:1059080006F016FD06F0E0FB00BFFDE7FB68D3F8E4
:105918000831002B0CD106F0D7FB3B493B4B40F23A
:10592800AA223B4806F004FD06F0CEFB00BFFDE7C7
:105938007B68002B0CD106F0C7FB3349334B40F290
:10594800AB22334806F0F4FC06F0BEFB00BFFDE7CF
:10595800FB68D3F80831FB61F869FFF725FA0346BD
:10596800002B38D000233B622FE03B6A15331B0124
:10597800FA6913440433BB61BB69DB687B617B69EB
:10598800002B1FD07B6859687B681B891A46786989
:10599800FFF750FF0346002B14D0BB699B681846DD
:1059A8003CF0F4FB38613B69002B01D1194B3B619A
:1059B800BB691B68BA695268796810469847012321
:1059C80087F827303B6A01333B623B6A132BCCD9FB
:1059D800F869FFF747FA97F8273083F00103DBB23D
:1059E800002B0DD008497B681B891A467B685B68C9
:1059F80001930092084B40F2D322084806F098FC25
:105A080000BF2837BD4680BDF7CE08080CCF080870
:105A180020CF08085CD0080864D008081CD0080803
:105A280090B583B000AF78607B68002B0CD106F08E
:105A38004BFB1649164B4FF43772164806F078FCA4
:105A480006F042FB00BFFDE77B68D3F8A432002BC9
:105A580018D03DF00BFC04467B68D3F8A4321846F6
:105A68003AF0CAF903469C4206D008490A4B4FF45B
:105A78003872084806F05CFC7B68D3F8A4321846F4
:105A88003AF06CFD00BF0C37BD4690BDF7CE080854
:105A98000CCF080820CF080828CF080890B585B093
:105AA80000AF78607B68002B0CD106F00DFB4749EE
:105AB800474B40F2E922474806F03AFC06F004FB5F
:105AC80000BFFDE73DF0D2FB04467B68D3F8A43263
