:020000040801F1
:1000000000000C207DBB02080D44020815440208C4
:100010001D440208254402082D440208CDBB0208F5
:10002000000000000000000000000000115605085C
:100030003544020800000000B155050835450208A6
:10004000CDBB0208CDBB0208CDBB0208CDBB020868
:10005000CDBB0208CDBB0208CDBB0208CDBB020858
:10006000CDBB0208CDBB0208CDBB0208CDBB020848
:10007000CDBB020843440208CDBB0208CDBB020839
:10008000CDBB0208CDBB0208CDBB0208CDBB020828
:10009000CDBB0208CDBB0208CDBB0208CDBB020818
:1000A0005144020861440208714402088144020874
:1000B0000000000095440208A9440208CDBB0208D4
:1000C000CDBB0208BD440208D1440208CDBB0208E2
:1000D000CDBB0208CDBB0208CDBB0208CDBB0208D8
:1000E000CDBB0208CDBB0208CDBB0208CDBB0208C8
:1000F000CDBB0208CDBB0208CDBB0208CDBB0208B8
:10010000CDBB0208CDBB0208CDBB0208CDBB0208A7
:10011000CDBB0208CDBB0208CDBB0208CDBB020897
:10012000CDBB0208CDBB0208CDBB0208E5440208E6
:10013000F94402080D450208CDBB0208CDBB0208F8
:10014000CDBB0208CDBB0208CDBB0208CDBB020867
:10015000CDBB0208CDBB0208CDBB0208CDBB020857
:10016000CDBB0208CDBB0208CDBB0208CDBB020847
:10017000CDBB0208CDBB0208CDBB0208CDBB020837
:10018000CDBB0208CDBB0208CDBB0208CDBB020827
:10019000CDBB0208CDBB0208CDBB0208CDBB020817
:1001A000CDBB0208CDBB0208CDBB0208CDBB020807
:1001B000CDBB02080000000021450208CDBB0208AB
:1001C000CDBB020800000000CDBB0208CDBB020879
:1001D000CDBB0208CDBB0208CDBB0208CDBB0208D7
:1001E000CDBB0208CDBB0208CDBB0208CDBB0208C7
:1001F0000000000000000000CDBB0208CDBB0208DB
:10020000CDBB0208CDBB0208CDBB0208CDBB0208A6
:10021000CDBB0208CDBB0208CDBB0208CDBB020896
:10022000CDBB0208CDBB0208CDBB0208CDBB020886
:08023000CDBB0208CDBB0208A2
:1002380010B5054C237833B9044B13B10448AFF318
:1002480000800123237010BDB808002000000000C2
:10025800A4B1080808B5034B1BB103490348AFF321
:10026800008008BD00000000BC080020A4B10808F8
:1002780010F8012B11F8013B012A28BF9A42F7D048
:10028800D01A7047034613F8012B002AFBD1181A1D
:100298000138704781F0004102E000BF83F000435D
:1002A80030B54FEA41044FEA430594EA050F08BF09
:1002B80090EA020F1FBF54EA000C55EA020C7FEACD
:1002C800645C7FEA655C00F0E2804FEA5454D4EB4A
:1002D8005555B8BF6D420CDD2C4480EA020281EA14
:1002E800030382EA000083EA010180EA020281EA4C
:1002F8000303362D88BF30BD11F0004F4FEA01319E
:100308004FF4801C4CEA113102D0404261EB4101AC
:1003180013F0004F4FEA03334CEA133302D0524232
:1003280063EB430394EA050F00F0A780A4F10104EE
:10033800D5F1200E0DDB02FA0EFC22FA05F2801828
:1003480041F1000103FA0EF2801843FA05F359410E
:100358000EE0A5F120050EF1200E012A03FA0EFC8D
:1003680028BF4CF0020C43FA05F3C01851EBE371B7
:1003780001F0004507D54FF0000EDCF1000C7EEBD4
:1003880000006EEB0101B1F5801F1BD3B1F5001F12
:100398000CD349085FEA30004FEA3C0C04F1010431
:1003A8004FEA445212F5800F80F09A80BCF1004F5A
:1003B80008BF5FEA500C50F1000041EB045141EADC
:1003C800050130BD5FEA4C0C404141EB0101013CA5
:1003D80028BFB1F5801FE9D291F0000F04BF014694
:1003E8000020B1FA81F308BF2033A3F10B03B3F166
:1003F80020020CDA0C3208DD02F1140CC2F10C02F6
:1004080001FA0CF021FA02F10CE002F11402D8BF53
:10041800C2F1200C01FA02F120FA0CFCDCBF41EA1F
:100428000C019040E41AA2BF01EB0451294330BDEE
:100438006FEA04041F3C1CDA0C340EDC04F11404CB
:10044800C4F1200220FA04F001FA02F340EA0300A2
:1004580021FA04F345EA030130BDC4F10C04C4F1E8
:10046800200220FA02F001FA04F340EA03002946C8
:1004780030BD21FA04F0294630BD94F0000F83F412
:10048800801306BF81F480110134013D4EE77FEAF5
:10049800645C18BF7FEA655C29D094EA050F08BF41
:1004A80090EA020F05D054EA000C04BF1946104622
:1004B80030BD91EA030F1EBF0021002030BD5FEA66
:1004C800545C05D14000494128BF41F0004130BD8E
:1004D80014F580043CBF01F5801130BD01F00045E2
:1004E80045F0FE4141F470014FF0000030BD7FEA55
:1004F800645C1ABF194610467FEA655C1CBF0B4650
:10050800024650EA013406BF52EA033591EA030F66
:1005180041F4002130BD00BF90F0000F04BF00215E
:10052800704730B54FF4806404F132044FF0000591
:100538004FF0000150E700BF90F0000F04BF00210A
:10054800704730B54FF4806404F1320410F0004570
:1005580048BF40424FF000013EE700BF42004FEA6B
:10056800E2014FEA31014FEA02701FBF12F07F43E8
:1005780093F07F4F81F06051704732F07F4208BF9F
:10058800704793F07F4F04BF41F40021704730B5A6
:100598004FF4607401F0004521F000411CE700BFF2
:1005A80050EA010208BF704730B54FF000050AE075
:1005B80050EA010208BF704730B511F0004502D576
:1005C800404261EB41014FF4806404F132045FEA78
:1005D800915C3FF4D8AE4FF003025FEADC0C18BF21
:1005E80003325FEADC0C18BF033202EBDC02C2F113
:1005F800200300FA03FC20FA02F001FA03FE40EAA5
:100608000E0021FA02F11444BDE600BF70B54FF0A8
:10061800FF0C4CF4E06C1CEA11541DBF1CEA135586
:1006280094EA0C0F95EA0C0F00F0DEF82C4481EAEE
:10063800030621EA4C5123EA4C5350EA013518BF0E
:1006480052EA033541F4801143F4801338D0A0FBFB
:1006580002CE4FF00005E1FB02E506F00042E0FBA8
:1006680003E54FF00006E1FB03569CF0000F18BFAE
:100678004EF0010EA4F1FF04B6F5007F64F5407456
:1006880004D25FEA4E0E6D4146EB060642EAC621E9
:1006980041EA55514FEAC52040EA5E504FEACE2E56
:1006A800B4F1FD0C88BFBCF5E06F1ED8BEF1004F59
:1006B80008BF5FEA500E50F1000041EB045170BDD5
:1006C80006F0004646EA010140EA020081EA030119
:1006D800B4EB5C04C2BFD4EB0C0541EA045170BD15
:1006E80041F480114FF0000E013C00F3AB8014F18F
:1006F800360FDEBF002001F0004170BDC4F10004D8
:10070800203C35DA0C341BDC04F11404C4F1200558
:1007180000FA05F320FA04F001FA05F240EA0200B3
:1007280001F0004221F0004110EBD37021FA04F6E9
:1007380042EB06015EEA430E08BF20EAD37070BDA3
:10074800C4F10C04C4F1200500FA04F320FA05F002
:1007580001FA04F240EA020001F0004110EBD37004
:1007680041F100015EEA430E08BF20EAD37070BD74
:10077800C4F1200500FA05F24EEA020E20FA04F34D
:1007880001FA05F243EA020321FA04F001F00041FC
:1007980021FA04F220EA020000EBD3705EEA430E6D
:1007A80008BF20EAD37070BD94F0000F0FD101F09C
:1007B8000046400041EB010111F4801F08BF013CD5
:1007C800F7D041EA060195F0000F18BF704703F013
:1007D8000046520043EB030313F4801F08BF013D9A
:1007E800F7D043EA0603704794EA0C0F0CEA135556
:1007F80018BF95EA0C0F0CD050EA410618BF52EA10
:100808004306D1D181EA030101F000414FF0000015
:1008180070BD50EA410606BF1046194652EA430623
:1008280019D094EA0C0F02D150EA013613D195EA97
:100838000C0F05D152EA03361CBF104619460AD1DF
:1008480081EA030101F0004141F0FE4141F47001E9
:100858004FF0000070BD41F0FE4141F4780170BDD9
:1008680070B54FF0FF0C4CF4E06C1CEA11541DBF3E
:100878001CEA135594EA0C0F95EA0C0F00F0A7F840
:10088800A4EB050481EA030E52EA03354FEA01316D
:1008980000F088804FEA03334FF0805545EA131380
:1008A80043EA12634FEA022245EA111545EA106548
:1008B8004FEA00260EF000419D4208BF964244F1DF
:1008C800FD0404F5407402D25B084FEA3202B61AFE
:1008D80065EB03055B084FEA32024FF480104FF4D2
:1008E800002CB6EB020E75EB030E22BFB61A754646
:1008F80040EA0C005B084FEA3202B6EB020E75EBD9
:10090800030E22BFB61A754640EA5C005B084FEA40
:100918003202B6EB020E75EB030E22BFB61A75460D
:1009280040EA9C005B084FEA3202B6EB020E75EB18
:10093800030E22BFB61A754640EADC0055EA060ED9
:1009480018D04FEA051545EA16754FEA06164FEA1C
:10095800C30343EA52734FEAC2025FEA1C1CC0D1C8
:1009680011F4801F0BD141EA00014FF000004FF055
:10097800004CB6E711F4801F04BF01430020B4F116
:10098800FD0C88BFBCF5E06F3FF6AFAEB5EB030CCE
:1009980004BFB6EB020C5FEA500C50F1000041EBCB
:1009A800045170BD0EF0004E4EEA113114EB5C0498
:1009B800C2BFD4EB0C0541EA045170BD41F480116B
:1009C8004FF0000E013C90E645EA060E8DE60CEA73
:1009D800135594EA0C0F08BF95EA0C0F3FF43BAF90
:1009E80094EA0C0F0AD150EA01347FF434AF95EA47
:1009F8000C0F7FF425AF104619462CE795EA0C0F2B
:100A080006D152EA03353FF4FDAE1046194622E7F7
:100A180050EA410618BF52EA43067FF4C5AE50EAD1
:100A280041047FF40DAF52EA43057FF4EBAE12E7C1
:100A38004FF0FF3C06E000BF4FF0010C02E000BFA2
:100A48004FF0010C4DF804CD4FEA410C7FEA6C5C85
:100A58004FEA430C18BF7FEA6C5C1BD001B050EA28
:100A6800410C0CBF52EA430C91EA030F02BF90EA13
:100A7800020F0020704710F1000F91EA030F58BFD2
:100A8800994208BF90422CBFD8176FEAE37040F034
:100A9800010070474FEA410C7FEA6C5C02D150EAD2
:100AA800013C07D14FEA430C7FEA6C5CD6D152EA8D
:100AB800033CD3D05DF8040B704700BF8446104652
:100AC80062468C461946634600E000BF01B5FFF751
:100AD800B7FF002848BF10F1000F01BD4DF808ED21
:100AE800FFF7F4FF0CBF012000205DF808FB00BFF2
:100AF8004DF808EDFFF7EAFF34BF012000205DF84C
:100B080008FB00BF4DF808EDFFF7E0FF94BF012098
:100B180000205DF808FB00BF4DF808EDFFF7CEFF99
:100B280094BF012000205DF808FB00BF4DF808EDD8
:100B3800FFF7C4FF34BF012000205DF808FB00BFA9
:100B48004FEA410C7FEA6C5C02D150EA013C0AD1C1
:100B58004FEA430C7FEA6C5C02D152EA033C02D1B3
:100B68004FF0000070474FF0010070474FEA410214
:100B780012F5001215D211D56FF47873B3EB6252E7
:100B880012D94FEAC12343F0004343EA505311F00E
:100B9800004F23FA02F018BF404270474FF00000A0
:100BA800704750EA013005D111F0004008BF6FF0DE
:100BB800004070474FF00000704700BF4FEA410205
:100BC800B2F1E04324BFB3F5001CDCF1FE5C0DD9A3
:100BD80001F0004C4FEAC0024CEA5070B2F1004FED
:100BE80040EB830008BF20F00100704711F0804FF0
:100BF80021D113F13872BCBF01F00040704741F4B5
:100C080080114FEA5252C2F11802C2F1200C10FAB8
:100C18000CF320FA02F018BF40F001004FEAC1239C
:100C28004FEAD32303FA0CFC40EA0C0023FA02F340
:100C38004FEA4303CCE77FEA625307D150EA013316
:100C48001EBF4FF0FE4040F44000704701F00040E6
:100C580040F0FE4040F40000704700BF53B94AB965
:100C6800002908BF00281CBF4FF0FF314FF0FF30AC
:100C780000F0C6B9ADF1080C6DE904CE00F01AF821
:100C8800DDF804E0DDE9022304B07047430803F00F
:100C98005533C01A830800F0333003F03333184457
:100CA80000EB101000F00F3000EB002000EB0040CC
:100CB800000E70472DE9F04F8C46099E04460F46FA
:100CC800002B48D18A4215465ED9B2FA82F33BB16D
:100CD800C3F120029F409D409C4020FA02F2174336
:100CE8004FEA154E1FFA85FC220CB7FBFEF10EFBEE
:100CF800117701FB0CF042EA0742904207D9AA1883
:100D080001F1FF3702D2904200F258813946121A97
:100D1800A4B2B2FBFEF00EFB102200FB0CFC44EA6E
:100D28000244A4450BD92C1900F1FF322CBF01272E
:100D38000027A44502D9002F00F04381104640EA5D
:100D48000140A4EB0C0400211EB1DC400023C6E9DD
:100D58000043BDE8F08F8B4206D90EB1C6E9000109
:100D680000210846BDE8F08FB3FA83F1002951D17C
:100D78006345C0F01681824240F213810846002E76
:100D8800E7D0C6E90047E4E7002A00F0AF80B2FAEE
:100D980082F3002B40F0C2808A1A4FEA154EAFB298
:100DA8000121200CB2FBFEFC0EFB1C2240EA024291
:100DB80007FB0CF090420ED9AA180CF1FF382CBF93
:100DC8004FF001094FF00009904203D9B9F1000F23
:100DD80000F0F080C446121AA4B2B2FBFEF00EFB7B
:100DE800102200FB07F744EA0244A7420ED92C1947
:100DF80000F1FF322CBF4FF0010E4FF0000EA7425A
:100E080003D9BEF1000F00F0D2801046E41B40EA7F
:100E18000C4099E7C1F120058B400CFA01F400FA67
:100E280001F922FA05F72CFA05FC8A401F4320FA3B
:100E380005F3380C23431FFA87FE1C0CBCFBF0F8A3
:100E480000FB18CC44EA0C4408FB0EFCA4450ED960
:100E58003C1908F1FF3A2CBF4FF0010B4FF0000B83
:100E6800A44503D9BBF1000F00F0B880D046A4EB2D
:100E78000C041FFA83FCB4FBF0F300FB134403FBE0
:100E88000EFE4CEA0444A6450ED93C1903F1FF3086
:100E98002CBF4FF0010C4FF0000CA64503D9BCF154
:100EA800000F00F09F80034643EA0840A4EB0E04BD
:100EB800A0FB02EC64457346E04602D307D1F14536
:100EC80005D2BEEB02036CEB070C0138E0465EB1BD
:100ED800B9EB030264EB080404FA05F522FA01F3FE
:100EE800CC401D43C6E90054002132E742082F4692
:100EF8004B08AC4642EAC172AE46C407110C92B226
:100F080041EA034142EA0142B1FBF5F1B3FBF5F0D6
:100F18001F23A2EB0C0241EA004142E79D40C3F1C6
:100F2800200299409C402CFA02FC4FEA154E20FA08
:100F380002F2AFB2BCFBFEF80A430EFB18CC110C50
:100F480041EA0C4108FB07FC8C4550D9691808F1A7
:100F5800FF302CBF4FF001094FF000098C4502D932
:100F6800B9F1000F30D0A1EB0C01B1FBFEF808FB82
:100F780007FC0EFB181192B242EA0142624534D2D4
:100F8800AA1808F1FF312CBF4FF001094FF00009F2
:100F98006245BED2B9F1000FBBD1A8F102012A44C3
:100FA800B7E7841A6CEB030201201746E7E62C44E6
:100FB80002382BE7ACF1020C2A440CE702392A4428
:100FC800A5E62C440238BAE6A5EB0C0CA8F1020001
:100FD8006144B1FBFEF808FB07FCCAE7A8F1020868
:100FE8003C4444E7023B3C445EE7414691E7A1EBC1
:100FF8000C014046B1FBFEF808FB07FCB9E700BF4F
:10100800704700BF80B58EB008AF786039607B68E4
:10101800002B0BD10BF0E4FA4549464B33224648E6
:101028000BF012FC0BF0DCFA00BFFDE73B68002B6D
:101038000BD10BF0D5FA3E493E4B34223E480BF01B
:1010480003FC0BF0CDFA00BFFDE73C4B1B68002BFF
:101058000BD10BF0C5FA3649364B352236480BF022
:10106800F3FB0BF0BDFA00BFFDE700237B6156E000
:101078007B69DB00324A13443B61304B1868314BC3
:101088001A683B691B6801937B68009313462E4AD4
:10109800802176F085FC3B695B68012B34D13B6984
:1010A80018683B691B683A6912687968079127498B
:1010B8000691796805917968049103927A68029299
:1010C80001937B6800930346214A4FF48061386896
:1010D80076F066FC0346FB60FB68B3F5806F09D2C7
:1010E800164B1A68FB6800933B680121002001F049
:1010F8002DF80EE00E493B691B680093154B6E22D4
:1011080015480BF0A1FB04E00C4B1B68184601F0D6
:10111800CBF80A2040F01CFF7B6901337B617B69B7
:10112800002BA5DD00BF00BF1837BD4680BD00BF3E
:10113800F8B1080810B2080824B20808DC08002032
:101148005C270A08000000202CB2080800B4080830
:101158004CB2080810B408082CB4080880B590B040
:1011680008AF786039607B68002B0BD10BF038FA38
:101178006349644B4A2264480BF066FB0BF030FA73
:1011880000BFFDE73B68002B0BD10BF029FA5C4947
:101198005C4B4B225C480BF057FB0BF021FA00BF6D
:1011A800FDE75A4B1B68002B0BD10BF019FA544979
:1011B800544B4C2254480BF047FB0BF011FA00BF7C
:1011C800FDE7802044F02CFAB861802044F028FA2A
:1011D8007861BB69002B0BD10BF002FA4849494BE7
:1011E800512249480BF030FB0BF0FAF900BFFDE73C
:1011F8007B69002B0BD10BF0F3F94149414B52228B
:1012080041480BF021FB0BF0EBF900BFFDE7002391
:10121800FB6167E0FB69DB003D4A13443B613B4BE4
:1012280018683C4B1A683B691B6801937B680093FC
:101238001346394A802176F0B3FB3B695B68012B82
:1012480045D13B691B6800937B68344A8021B869A3
:1012580076F0A6FB3B691B6800937B68304A8021C7
:10126800786976F09DFB3B6919683B691B687A6869
:1012780007922C4A06927A6805927A6804927A69EB
:101288000392BA69029201937B6800930B46264A3F
:101298004FF48061386876F083FB0346FB60FB6897
:1012A800B3F5806F09D2194B1A68FB6800933B6845
:1012B8000121002000F04AFF0EE011493B691B683C
:1012C80000931A4B9E221A480BF0BEFA04E00F4B0B
:1012D8001B68184600F0E8FF0A2040F039FEFB6959
:1012E8000133FB61FB69022B94DDB86944F0DEFA37
:1012F800786944F0DBFA00BF2037BD4680BD00BFE7
:1013080084B4080898B40808ACB40808DC080020BD
:1013180064270A0804000020B4B40808D4B40808F4
:10132800E8B40808ECB60808FCB40808FCB60808D5
:1013380018B7080880B5A4B00CAF786039607B682E
:10134800002B0BD10BF04CF96C496D4B33226D48D7
:101358000BF07AFA0BF044F900BFFDE73B68002B6D
:101368000BD10BF03DF96549654B342265480BF00C
:101378006BFA0BF035F900BFFDE7634B1B68002BD8
:101388000BD10BF02DF95D495D4B35225D480BF013
:101398005BFA0BF025F900BFFDE7802044F040F927
:1013A800B865802044F03CF97865BB6D002B0BD103
:1013B8000BF016F95149524B3C2252480BF044FAB3
:1013C8000BF00EF900BFFDE77B6D002B0BD10BF086
:1013D80007F94A494A4B3D224A480BF035FA0BF0C7
:1013E800FFF800BFFDE70023FB657AE0FB6DDB003B
:1013F800464A13443B65444B1868454B1A683B6D95
:101408001B6801937B6800931346424A802176F05B
:10141800C7FA3B6D5B68012B58D17B683E4A802137
:10142800B86D76F0BDFA7B683C4A8021786D76F01D
:10143800B7FA3B6D1B6807F12C00394A202176F07A
:10144800AFFA3B6D1B6807F10C00364A202176F095
:10145800A7FA3B6D18683B6D1B683A6D126879688E
:101468000A9131490991796808917968079107F1DA
:101478000C01069107F12C01059104927A6D0392F3
:10148800BA6D029201937B6800930346274A4FF492
:101498008061386876F084FA0346FB64FB6CB3F528
:1014A800806F09D2184B1A68FB6C00933B680121C6
:1014B800002000F04BFE0EE010493B6D1B680093C6
:1014C8001B4B88221B480BF0BFF904E00E4B1B682E
:1014D800184600F0E9FE0A2040F03AFDFB6D0133A2
:1014E800FB65FB6D012B81DDB86D44F0DFF9786D8C
:1014F80044F0DCF900BF6037BD4680BD54B708082A
:1015080068B708087CB70808DC0800207C270A08A8
:101518000800002084B70808A4B70808B4B708086A
:10152800C4B70808CCB708088CB90808D4B70808A5
:101538009CB90808B8B9080880B592B00AAF7860B5
:1015480039607B68002B0BD10BF04AF84149424BBC
:101558002E2242480BF078F90BF042F800BFFDE765
:101568003B68002B0BD10BF03BF83A493A4B2F2242
:101578003A480BF069F90BF033F800BFFDE7384B38
:101588001B68002B0BD10BF02BF83249324B302261
:1015980032480BF059F90BF023F800BFFDE707F1CB
:1015A800080300221A605A609A60DA601A742D4B98
:1015B800DB7819462B4B9B781A462A4B1B8807F178
:1015C8000800019300920B46274A112176F0E8F9AA
:1015D800234B1868254B1A687B6800931346244AE6
:1015E800802176F0DDF907F1080308937B680793FB
:1015F800204B06937B6805937B6804937B68039371
:101608007B6802937B6801937B6800937B681A4A26
:101618004FF48061386876F0C3F90346FB61FB69D3
:10162800B3F5806F09D20E4B1A68FB6900933B68CB
:101638000121002000F08AFD05E006490F4B7222C7
:101648000F480BF001F90A2040F082FC00BF203758
:10165800BD4680BDE0B90808F4B9080808BA08080A
:10166800DC080020902A0A0830BA08080C0000207C
:1016780010BA0808D8BC08083CBA0808E8BC08082A
:101688000CBD080880B483B000AF0346FB71FB793A
:10169800022B0AD0022B0ADC002B02D0012B02D02D
:1016A80005E0064B04E0064B02E0064B00E0064B63
:1016B80018460C37BD465DF8047B704710BD080816
:1016C80018BD080824BD080830BD0808F0B5BFB02B
:1016D80006AFF860B9607A60FB7007F114007B68A8
:1016E8002A4A402176F05CF9C7F8DC00D7F8DC30EC
:1016F800002B03DBD7F8DC303F2B01D9012340E076
:10170800FB781846FFF7BEFFC7F8D800FB7B9C465E
:10171800BB7B1A46BB891946FB7A1C46BB7A1D4619
:101728003B891E4607F15400D7F8D8300593049634
:1017380003950294019100926346154A802176F040
:101748002FF9C7F8DC00D7F8DC30002B03DBD7F81B
:10175800DC307F2B01D9012313E0D7F8DC3007F107
:10176800540107F1140200930B460121012000F0F7
:10177800EDFC034687F8D7300A2040F0E9FB97F8DC
:10178800D7301846E437BD46F0BD00BF38BD08085D
:1017980044BD0808F0B5CDB006AF07F58C74A4F5C4
:1017A8008674206007F58C70A0F58870016007F5D5
:1017B8008C71A1F58A710A6007F58C72A2F58C729A
:1017C800136007F58C73A3F58A7307F110001B6883
:1017D800354A402176F0E4F8C7F81401D7F81431F7
:1017E800002B03DBD7F814313F2B01D9012355E037
:1017F80007F58C73A3F58673DB789C4607F58C7325
:10180800A3F586739B781A4607F58C73A3F5867340
:101818001B88194607F58C73A3F58873DB781C467B
:1018280007F58C73A3F588739B781D4607F58C73B1
:10183800A3F588731B881E4607F1500007F58C73C3
:10184800A3F58C731B680593049603950294019184
:1018580000926346154AC02176F0A2F8C7F8140131
:10186800D7F81431002B03DBD7F81431BF2B01D97B
:10187800012313E0D7F8143107F1500107F11002E2
:1018880000930B460121012000F060FC034687F815
:1018980013310A2040F05CFB97F81331184607F51E
:1018A8008E77BD46F0BD00BF38BD080894BD080856
:1018B80080B58CB000AF786039603B68002B3BD0B6
:1018C8003B68DB68002B37D03B681B69002B33D0A3
:1018D8003B68DB68FB6207F10803202200211846F9
:1018E80076F0FFF93B681B691F2B28BF1F23BB62DB
:1018F80007F10803BA6AF96A184676F01CFC07F182
:101908000802BB6A134400221A7007F108030C4945
:101918001846FEF7ADFC0346002B0ED109490A4BC9
:101928004FF4837209480AF08FFF094B1B680221A4
:1019380018463EF0C1F900E000BF3037BD4680BD13
:1019480018BE0808E0B9080828BE080844BE0808F8
:10195800E008002080B58AB002AF78607B687B61C0
:101968000023FB614FF0FF33BB613549354B40F233
:10197800131235480AF068FF344B1B6800211846DB
:101988003EF058F938613B6903F00403002B04D199
:101998003B6903F00803002B09D029492C4B4FF46D
:1019A8008E7229480AF050FF002040F03DFA294B7A
:1019B8001B68002B40D00023BB60264B1B6807F137
:1019C8000801002218463EF0F1FE0346012B33D1F0
:1019D800FB69002B04D1BB68002B01D0BB68FB61FD
:1019E800FB69002B28D0BB68FA699A4224D3BB68EC
:1019F800642203FB02F2FB69B2FBF3F3C3F1640355
:101A0800FB60FA68BB699A4216D0FB68BB610C4957
:101A1800BB680193FB6800930F4B4FF49B720A4815
:101A28000AF012FFBB680D490D480093FB687A69FC
:101A380009680068FFF7AEFEC82040F089FA9BE706
:101A4800E0B9080848BE080844BE0808E0080020B5
:101A580064BE080874AA002080BE0808D4080020C4
:101A6800902A0A0880B58EB002AF786039603B686A
:101A7800002B4DD03B68DB68002B49D03B681B69C5
:101A8800002B45D03B68DB68FB6207F10803202286
:101A98000021184676F025F93B681B691F2B28BFE3
:101AA8001F23BB6207F10803BA6AF96A184676F081
:101AB80042FB07F10802BB6A134400221A7007F1BF
:101AC800080315491846FEF7D3FB0346002B08D038
:101AD80007F108031149184676F0F8F90346002B78
:101AE8000CD00F490F4B23220F480AF0ADFE0F4BC5
:101AF8001B68102118463EF0DFF80AE0084907F194
:101B0800080300930A4B28220A480AF09DFE00E0C9
:101B180000BF3037BD4680BDB4BE0808BCBE08084B
:101B2800E4BE0808F8BE080834BF0808E00800202A
:101B380038BF08085CBF080880B58AB006AF78606F
:101B480039607B68002B0BD10AF04AFD3149324BD2
:101B58002E2232480AF078FE0AF042FD00BFFDE767
:101B68003B68002B0BD10AF03BFD2A492A4B2F2258
:101B78002A480AF069FE0AF033FD00BFFDE7284B4A
:101B88001B68002B0BD10AF02BFD2249224B302277
:101B980022480AF059FE0AF023FD00BFFDE7204B5A
:101BA8001868204B1A687B68009313461E4A8021E8
:101BB80075F0F6FE7B6805937B6804931B4B0393D3
:101BC8007B6802937B6801937B6800937B68184A63
:101BD8004FF48061386875F0E3FE0346FB60FB68EC
:101BE800B3F5806F09D20E4B1A68FB6800933B6807
:101BF8000121002000F0AAFA05E006490D4B5F22FA
:101C08000D480AF021FE0A2040F0A2F900BF103763
:101C1800BD4680BDE4BE080860BF080874BF080858
:101C2800DC080020100000207CBF080810C108084C
:101C3800A0BF080820C1080840C10808F0B58FB047
:101C48000AAF786039607B68002B0BD10AF0C8FCBA
:101C58005C495D4B61225D480AF0F6FD0AF0C0FC64
:101C680000BFFDE73B68002B0BD10AF0B9FC5549D2
:101C7800554B622255480AF0E7FD0AF0B1FC00BF57
:101C8800FDE7534B1B68002B0BD10AF0A9FC4D490B
:101C98004D4B63224D480AF0D7FD0AF0A1FC00BF66
:101CA800FDE70023FB6084E0494B1868494B19683D
:101CB800494CFA6813469B0013449B0023441B6855
:101CC80001937B6800930B46444A802175F068FEB7
:101CD8004149FA6813469B0013449B000B44103398
:101CE8001B68012B5AD13C49FA6813469B001344E0
:101CF8009B000B4404331D683749FA6813469B0060
:101D080013449B000B4419683348FA6813469B0038
:101D180013449B00034418682F4CFA6813469B0031
:101D280013449B00234408331C682B4EFA6813465F
:101D38009B0013449B0033440C331B687A68099258
:101D4800274A08927A6807927A680692059304945B
:101D580003907B68029301917B6800932B46214A8C
:101D68004FF48061386875F01BFE0346BB60BB68A2
:101D7800B3F5806F09D2164B1A68BB6800933B68AD
:101D88000121002000F0E2F90DE00E49FB68009304
:101D9800154B9B2215480AF057FD04E00C4B1B68B5
:101DA800184600F081FA0A2040F0D2F8FB680133A7
:101DB800FB60FB68052B7FF777AF00BF00BF1437C8
:101DC800BD46F0BDE4C20808FCC2080810C30808F4
:101DD800DC080020140000208C270A0818C3080813
:101DE800B8C4080838C30808C8C40808E8C40808FC
:101DF800B0B588B004AF78607B68002B0BD10AF0CF
:101E0800EFFB2749274BAF2227480AF01DFD0AF0B0
:101E1800E7FB00BFFDE7254B1B68002B0BD10AF041
:101E2800DFFB1F491F4BB0221F480AF00DFD0AF0C7
:101E3800D7FB00BFFDE70023FB6028E01B4B1868B9
:101E48001B4B1C681B49FA6813469B0013449B00F4
:101E58000B441968174DFA6813469B0013449B00FE
:101E68002B440C331B68029301917B680093234633
:101E7800114A802175F094FD0C4B1B68184600F040
:101E880013FA0A2040F064F8FB680133FB60FB6832
:101E9800082BD3DD00BF00BF1037BD46B0BD00BF63
:101EA800E4C20808FCC2080810C30808DC080020BF
:101EB8001400002004280A08ECC40808B0B590B043
:101EC8000AAF786039607B68002B0CD10AF088FB78
:101ED8004B494C4B4FF496724B480AF0B5FC0AF04C
:101EE8007FFB00BFFDE73B68002B0CD10AF078FBB5
:101EF8004349444B40F22D1243480AF0A5FC0AF02E
:101F08006FFB00BFFDE7414B1B68002B0CD10AF0AB
:101F180067FB3B493B4B4FF497723B480AF094FCF4
:101F28000AF05EFB00BFFDE700237B6160E07A6991
:101F380013469B0013449B00354A13443B61334BC3
:101F48001868344B1A683B691B6801937B680093D7
:101F58001346314A802175F023FD3B691B69012B2B
:101F68003BD13B695D683B691B683A69126839690E
:101F780089683869C0687C680994284C08947C682A
:101F880007947C6806940590049103927A680292FB
:101F980001937B6800932B46214A4FF4806138688F
:101FA80075F0FEFC0346FB60FB68B3F5806F09D251
:101FB800164B1A68FB6800933B680121002000F06B
:101FC800C5F80FE00E493B691B680093154B40F2BA
:101FD800691215480AF038FC04E00C4B1B681846D7
:101FE80000F062F90A203FF0B3FF7B6901337B619F
:101FF8007B69002B9BDD00BF00BF1837BD46B0BD15
:10200800E4C20808FCC2080810C30808DC0800205D
:10201800B8280A081400002018C30808B8C408081B
:1020280010C50808B8C60808E8C4080880B584B010
:1020380002AF786039607B68002B11D07B681B6821
:10204800002B0DD03B68002B0AD07B6818683B68D2
:102058001B781A46002300930323002141F076FFE2
:1020680000BF0837BD4680BD80B483B000AF78603C
:10207800044A7B68136000BF0C37BD465DF8047BDB
:10208800704700BFD80800202DE9B04F82B000AFDC
:1020980018F090FA02462A4BA3FB02139B0D29491C
:1020A80001FB03F3D31AA3F55B13A3F53A533B6083
:1020B8003A68254B13447B607B68002B01DC0123C5
:1020C8007B607B6800229846914642464B464FF01B
:1020D80000004FF00001590141EAD2615001024667
:1020E8000B46B2EB080463EB09054FF000024FF012
:1020F8000003AB0043EA9473A20014461D4614EB98
:10210800080A45EB090B4FF000024FF000034FEAB5
:10211800CB0343EA5A734FEACA0292469B4650469B
:1021280059464FF47A724FF00003FEF797FD0246C6
:102138000B46134618460837BD46BDE8B08F00BFAA
:10214800B17C219500DD6D00005C260580B594B05A
:1021580002AFBA607B600346FB730B46BB73BB6878
:10216800002B0BD10AF03CFA4A494B4B58224B48FA
:102178000AF06AFB0AF034FA00BFFDE7484B1B6817
:10218800002B0BD10AF02CFA4249434B5922434801
:102198000AF05AFB0AF024FA00BFFDE707F128030A
:1021A80000221A605A609A60DA601A6107F1200307
:1021B80000221A605A6007F1140300221A605A605C
:1021C8009A60012387F847300021002042F056FA30
:1021D800FB7B87F82830BB7B87F82930BB68FB621C
:1021E800B868FEF74FF803469BB23B867B687B6373
:1021F8003B6DBB6341F03CFB03463B624FF4FA7313
:10220800FB61284B7B6107F12003BB6100233B6422
:1022180035E0234B1B6807F1140207F12801184623
:1022280073F0EFFF034687F8473097F84730002BE5
:102238001BD100233B6107F1100341F28832009261
:1022480000220021002041F0E1FDF863FB6B012B27
:1022580008D13B69002B01D1002300E0032387F854
:10226800473002E0032387F8473097F84730002BC0
:1022780009D0FA203FF06CFE3B6C01333B643B6CA9
:10228800042BC6D900E000BF97F8473018464837F6
:10229800BD4680BDF8C6080808C708081CC7080856
:1022A800D80800203520010880B584B002AF7860D6
:1022B8007B68002B0BD10AF093F90B490B4B962244
:1022C8000B480AF0C1FA0AF08BF900BFFDE70023BA
:1022D800009300237A6801210020FFF737FF0346A7
:1022E80018460837BD4680BDF8C6080808C708085C
:1022F8001CC7080880B58CB004AFF860B9607A6074
:102308003B600123FB61FB68002B0BD10AF068F9E5
:102318004749484BA72248480AF096FA0AF060F95C
:1023280000BFFDE7BB68002B0BD10AF059F9404903
:10233800404BA82240480AF087FA0AF051F900BF3A
:10234800FDE73B68002B0BD10AF04AF93849394BB5
:10235800A92239480AF078FA0AF042F900BFFDE7E5
:10236800364B1B68002B0BD10AF03AF93049314B38
:10237800AA2231480AF068FA0AF032F900BFFDE7EC
:10238800802043F04DF9B861BB69002B0BD10AF0EE
:1023980027F92749274BAD2227480AF055FA0AF0B2
:1023A8001FF900BFFDE7BB680093FB68244A802142
:1023B800B86975F0F5FA78617B69002B02DB7B69F7
:1023C8007F2B0DDD1A49BB680293FB6801933B68BC
:1023D80000931C4BB7221C480AF036FA0023FB6115
:1023E800FB69012B19D1154B1868002300937B68F2
:1023F8000022B96904F082FB0346FB74FB7C002BC6
:102408000BD00B49BB6901933B6800930F4BC82263
:102418000D480AF019FA0023FB610A203FF098FDE5
:10242800B86943F043FAFB6918462037BD4680BDBA
:10243800F8C6080808C708081CC70808D8080020F4
:1024480024C708082CC708085CC7080860C708081C
:1024580080B586B002AF786039600123FB607B6885
:10246800002B0BD10AF0BCF82449254BDC22254867
:102478000AF0EAF90AF0B4F800BFFDE73B68002B60
:102488000BD10AF0ADF81D491D4BDD221D480AF09D
:10249800DBF90AF0A5F800BFFDE71B4B1B68002B12
:1024A8000BD10AF09DF81549154BDE2215480AF0A4
:1024B800CBF90AF095F800BFFDE7134B1868002325
:1024C80000933B680022796804F018FB0346FB720E
:1024D800FB7A002B09D009497B6800930B4BE82253
:1024E8000B480AF0B1F90023FB600A203FF030FDE9
:1024F800FB6818461037BD4680BD00BFF8C60808FF
:1025080008C708081CC70808D808002084C7080896
:102518005CC7080880B588B002AFF860B9607A6017
:10252800FB68002B0BD10AF05BF83549354BF822D4
:1025380035480AF089F90AF053F800BFFDE7BB688F
:10254800002B0BD10AF04CF82D492E4BF9222E48BE
:102558000AF07AF90AF044F800BFFDE77B68002B1F
:102568000BD10AF03DF82649264BFA2226480AF0F4
:102578006BF90AF035F800BFFDE7244B1B68002B08
:102588000BD10AF02DF81E491E4BFB221E480AF0FB
:102598005BF90AF025F800BFFDE71C4B1868FB68DB
:1025A8001B4A802175F0FCF940F2FF327968B8685F
:1025B80075F013FCBB6803F2FF3300221A70B86889
:1025C800FDF760FE78617B69B3F5806F09D20F4B28
:1025D8001A687B690093BB6801210020FFF7B6FDEC
:1025E80006E007490B4B4FF489720B480AF02CF9A7
:1025F8000A203FF0ADFC00BF1837BD4680BD00BFC4
:10260800F8C6080808C708081CC70808DC0800201E
:10261800A8C70808C0C708085CC7080880B588B0FC
:1026280000AF786039603B68002B3AD03B68DB68C4
:10263800002B36D03B681B69002B32D03B68DB6827
:10264800FB6107F1080300221A605A609A60DA6099
:102658003B681B690F2B28BF0F23BB6107F10803D9
:10266800BA69F969184675F066FD07F10802BB6991
:10267800134400221A7007F108030C491846FDF7A5
:10268800F7FD0346002B0DD109490A4B4C220A4895
:102698000AF0DAF8094B1B68202118463DF00CFBBC
:1026A80000E000BF2037BD4680BD00BFE8C708086E
:1026B8000CC8080818C8080854C80808E00800200A
:1026C80080B582B000AF786039607B68002B0BD191
:1026D80009F086FF29492A4B5C222A480AF0B4F8F7
:1026E80009F07EFF00BFFDE73B68002B0BD109F026
:1026F80077FF2249224B5D2222480AF0A5F809F00B
:102708006FFF00BFFDE739687868FEF715FF396885
:102718007868FEF70FFE39687868FEF773FC396849
:102728007868FFF78BFA7868FFF762FB3968786892
:10273800FFF7C4FB39687868FEF710FD39687868D8
:10274800FFF7FAF94FF47A703FF002FC0E490E4891
:1027580002237A6809680068FEF7B8FF0B4A3968EF
:102768007868FFF7D7FE0549094B9A2209480AF00D
:102778006BF800BF0837BD4680BD00BF0CC808080D
:1027880058C808086CC80808902A0A08E8C7080842
:1027980074C8080854C8080890B58BB002AF7860B0
:1027A8000023BB600023FB6102F07AFC03F076FC97
:1027B800B861BB69002B0BD109F012FFA049A14BEE
:1027C800AE22A1480AF040F809F00AFF00BFFDE771
:1027D80002F0A2FCB869FFF747FC07F108031946A5
:1027E80000200DF071FE78617B69002B0BD109F098
:1027F800F7FE9349934BB72293480AF025F809F05E
:10280800EFFE00BFFDE74FF4806042F009FF38613A
:102818003B69002B0BD109F0E3FE8949894BBA22A9
:1028280089480AF011F809F0DBFE00BFFDE78020B7
:1028380042F0F6FE0346854A1360844B1B68002B62
:102848000BD109F0CDFE7E497E4BBD227E4809F0B2
:10285800FBFF09F0C5FE00BFFDE779497B690093DE
:102868007B4BBF227B4809F0EFFF3DF0F5F80346AC
:10287800794A1360784B1B68002B0BD109F0B0FE26
:102888006F49704BC222704809F0DEFF09F0A8FEBC
:1028980000BFFDE7714B724A72497869FFF72AFD5C
:1028A800714B724A72497869FFF724FD7149724881
:1028B800FFF7CEFD39697869FFF702FF664B1C68A0
:1028C800FFF7E2FB03460093002301223F21204645
:1028D8003DF0DCF8F860FB6803F00103002B0DD035
:1028E8005749664BEE225B4809F0AEFF64496548DC
:1028F80000237A6909680068FEF7E8FEFB6803F0C0
:102908000203002B1AD04E495F4BF422514809F0BC
:102918009BFF0123FB615A495A4801237A690968D8
:102928000068FEF7D3FE00230193022300937B691E
:102938004FF48062554956483FF00AF9FB6803F0A6
:102948000403002B11D03E49524B4FF48272414888
:1029580009F07AFF3A49504B40F205123D4809F018
:1029680073FF0023FB610FF063FCFB6803F00803AF
:10297800002B0CD03249494B40F20D12354809F072
:1029880063FF0023FB6139697869FFF799FEFB68EB
:1029980003F01003002B1CD0FB69012B07D1284939
:1029A8003F4B40F219122B4809F04EFF47E02449EB
:1029B8003C4B40F21D12274809F046FF3A4A396954
:1029C8007869FFF7A7FD4FF47A703FF0C1FA0FF06E
:1029D8002FFCFB6803F02003002B03D1FB68002BBE
:1029E8007FF46CAFFB69012B07D115492F4B4FF4CE
:1029F8009472184809F028FF21E017F0DBFD024621
:102A08002B4BA3FB0213DB0B2A4901FB03F3D31A5D
:102A180018463FF09DFA0A49FB6803F02003002B93
:102A280001D0254B00E0254B0093254B40F22F1297
:102A3800084809F009FF39697869FFF741FE3DE761
:102A48000CC8080858C808086CC80808DC08002022
:102A5800A0C8080854C80808E0080020E4C8080806
:102A6800B9180108F0C80808FCC808086D1A010858
:102A78000CC908082526010818C9080830C908081B
:102A8800D4080020902A0A0848C9080864C9080818
:102A98005D19010874C908088CC90808B8C908086C
:102AA800D4C9080800CA080810CA080818CA0808BB
:102AB80073B2E745C0D4010048CA080854CA0808D8
:102AC80060CA080880B584B000AF78600023FB6056
:102AD8007B68002B0CD109F083FD1449144B40F29C
:102AE800D512144809F0B0FE09F07AFD00BFFDE7E1
:102AF8007B6842F60C220021184675F0F2F8012096
:102B08003DF049FC02467B6803F50053C3F80C2AE4
:102B18007B6803F50053D3F80C3A002B01D001234E
:102B2800FB60FB6818461037BD4680BD46CB0808D9
:102B380058CB08086CCB080880B582B000AF786025
:102B480039607B68002B0CD109F04AFD1849194BF4
:102B58004FF4F472184809F077FE09F041FD00BF00
:102B6800FDE77B6803F50053D3F80C3A4FF0FF31CB
:102B780018463DF0F9FE0346012B0ED13B680022B2
:102B880083F8002E7B6803F50053D3F80C0A002362
:102B9800002200213DF062FC06E00549074B40F2A7
:102BA800F112074809F050FE00BF0837BD4680BD46
:102BB80046CB080858CB08086CCB080874CB080823
:102BC80094CB080880B584B000AF78600023FB6020
:102BD8000023BB607B68002B0CD109F001FD2D4957
:102BE8002D4B4FF4FE722D4809F02EFE09F0F8FC2B
:102BF80000BFFDE77B6803F50053D3F80C3A4FF0AC
:102C0800FF3118463DF0B0FE0346012B36D10023B4
:102C1800FB6025E07A68FB6840F6046101FB03F37A
:102C2800134403F560631B7883F00103DBB2002BC8
:102C380013D07A68FB6840F6046101FB03F3134480
:102C480003F5606301221A70FB6840F6046202FB18
:102C580003F37A681344BB6005E0FB680133FB604B
:102C6800FB68022BD6D97B6803F50053D3F80C0A0E
:102C78000023002200213DF0F1FB06E00549084B46
:102C880040F20E22074809F0DFFDBB6818461037EE
:102C9800BD4680BD46CB080858CB08086CCB080851
:102CA80074CB080894CB080880B582B000AF786070
:102CB80078686DF021FD00203FF0B6F800BF0837B6
:102CC800BD4680BD80B586B002AF03463960FB7152
:102CD8000123FB73FB79072B73D801A252F823F069
:102CE800092D01082F2D01083F2D0108812D01080C
:102CF800AB2D0108CB2D0108CB2D0108BB2D0108F8
:102D08003749384B40F2DE22374809F09DFD6DF017
:102D180051FF0346FB733249344B40F2EB223448EF
:102D280009F092FD57E02E49324B40F2F3222E482B
:102D380009F08AFD4FE02A492F4B40F2FF222A482A
:102D480009F082FD02206DF071FF0346FB73FB7BE7
:102D5800002B07D12249294B40F22632224809F09C
:102D680073FD38E01E49FB7B0093254B40F22A3265
:102D78001F4809F069FD2EE03B68002B0CD109F0D3
:102D88002FFC17491F4B40F232321F4809F05CFDF7
:102D980009F026FC00BFFDE739681C48FFF7CCFEA8
:102DA80019E00F491A4B4FF44F72114809F04CFDC6
:102DB80011E00B49174B4FF450720B4809F044FDD2
:102DC80009E00749FB790093134B4FF451721348FC
:102DD80009F03AFD00BF00BF1037BD4680BD00BFF7
:102DE80046CB080898CB0808D0CB0808D4CB0808ED
:102DF80094CB0808F4CB080830CC080868CC08083D
:102E08009CCC080858CB08086CCB0808EC130020A9
:102E1800D4CC080814CD080828CD080868CD0808BF
:102E280080B588B002AF7860396000237B6107F114
:102E3800080300221A605A603B68002B0CD109F085
:102E4800CFFB3349334B40F25532334809F0FCFC91
:102E580009F0C6FB00BFFDE73B6858683B681B8963
:102E680019462E4B1A682E4B1B6800F053F97861EF
:102E78007B69012B39D13B681B6940F6FA529342B2
:102E880025D82848FFF79EFE38613B69002B16D0ED
:102E980038693B68D9683B681B691A4675F04BF975
:102EA8003B681A693B69C3F8FC2D06233B733B69F1
:102EB800BB6007F1080318466DF046FC23E014498F
:102EC800194B40F27132194809F0BEFC1BE0104959
:102ED8003B681B6940F6FA5201920093144B40F28A
:102EE8007632124809F0B0FC0DE009493B681B89AD
:102EF8001A463B685B68019300920E4B40F27D32A4
:102F08000D4809F0A1FC00BF1837BD4680BD00BFC1
:102F180046CB080858CB08086CCB0808FC3D0020B5
:102F2800003E0020EC1300206CCD080894CB080864
:102F380094CD0808E0CD080868CD0808F0B589B038
:102F480002AF7860396007F1080300221A605A60FE
:102F580000237B613B68002B0CD109F041FB4449FD
:102F6800444B40F28D32444809F06EFC09F038FBBE
:102F780000BFFDE7414B1B68002B0CD109F030FB6B
:102F88003B493C4B40F28E323B4809F05DFC09F06E
:102F980027FB00BFFDE73B685C683B681B891E4652
:102FA800364B1D68354B1B681846FDF76BF9034611
:102FB8002A463146204600F0ADF878617B69012B3E
:102FC80043D13B681B6940F6FA5293422FD82849EF
:102FD8003B681B6900932A4B40F29932294809F053
:102FE80033FC2948FFF7EEFD38613B69002B16D00A
:102FF80038693B68D9683B681B691A4675F09BF8C5
:103008003B681A693B69C3F8FC2D03233B733B6992
:10301800BB6007F1080318466DF096FB23E01449DE
:103028001A4B4FF46A721A4809F00EFC1BE010495B
:103038003B681B6940F6FA5201920093154B40F227
:10304800AD32134809F000FC0DE009493B681B89C3
:103058001A463B685B68019300920F4B40F2B2320C
:103068000E4809F0F1FB00BF1C37BD46F0BD00BF9C
:1030780046CB080858CB08086CCB0808FC3D002054
:1030880038CE0808D0CB0808EC1300206CCD08080F
:1030980094CB080860CE0808B8CE080868CD0808A0
:1030A80080B586B002AF786039600023FB720023D8
:1030B800FB603B6899B207F10B0300931423114A94
:1030C800786833F007FBFB7A002B01D00E4BFB60CE
:1030D800FB7A83F00103DBB2002B0ED03B6899B278
:1030E80007F10B0300931723084A786833F0F2FAC4
:1030F800FB7A002B01D0064BFB60FB6818461037A3
:10310800BD4680BD10CF0808452F010828CF080804
:10311800292E010880B489B000AFF860B9607A60E0
:103128003B600023FB6100237B610C23BB611CE037
:103138007A693B689A4208D1FA68BB6913441B78DC
:103148002F2B17D10123FB6114E07A687B691344A4
:103158001A78F968BB690B441B789A420CD17B69D1
:1031680001337B61BB690133BB61BA69BB689A42B1
:10317800DED302E000BF00E000BFFB691846243739
:10318800BD465DF8047B704780B584B002AF7860B7
:1031980039607B68002B0CD109F022FA1D491E4BBF
:1031A80040F207421D4809F04FFB09F019FA00BF29
:1031B800FDE77B681B68002B0CD109F011FA154953
:1031C800154B4FF48162154809F03EFB09F008FAE7
:1031D80000BFFDE73B68002B0CD109F001FA0D494F
:1031E8000D4B40F209420D4809F02EFB09F0F8F9A1
:1031F80000BFFDE77B6818683B681B781A46002308
:1032080000930323002140F0A1FE00BF0837BD460C
:1032180080BD00BF46CB080858CB08086CCB08080F
:1032280080B588B002AF78600B467B8013467B7010
:103238000023FB7500233B617B68002B0CD109F050
:10324800CFF92C492C4B40F21A422C4809F0FCFAD1
:1032580009F0C6F900BFFDE77B88002B0CD109F007
:10326800BFF92449244B40F21B42244809F0ECFAE8
:1032780009F0B6F900BFFDE77B8819467868FFF7C3
:103288000FFFF86002F00AFF38613B69002B02D09B
:10329800FB68002B02D1A123FB7525E07A78002377
:1032A8000093FB687968386903F028FC0346FB72D1
:1032B800FB7A002B0BD00F49FB7A0093104B4FF48D
:1032C8008662104809F0C0FAA123FB750CE0094991
:1032D8007B887A68019200930B4B40F237420B4887
:1032E80009F0B2FA0023FB75FB7D18461837BD4676
:1032F80080BD00BF46CB080858CB08086CCB08082F
:1033080040CF080894CB080870CF0808D0CB08082D
:1033180080B594B002AFF8607A603B600B467B8161
:10332800002387F84730012387F8463007F1280340
:1033380000221A605A609A60DA601A6107F11C0369
:1033480000221A605A609A600023BB6100237B61E7
:1033580000233B64FB68FB627B893B8697F850300F
:1033680087F828307B687B633B68BB6300210020BB
:1033780041F084F940F07CFA03467B6142F2107315
:103388007B622D4BFB6107F114033B6202F086FE62
:1033980038643B6C002B03D1A02387F8473044E006
:1033A80007F11C0207F128031946386C72F029FF4F
:1033B800034687F8463097F84630002B15D107F1B9
:1033C800180342F2107200924FF0FF3200210020E1
:1033D80040F01CFDF863FB6B012B03D0032387F837
:1033E800463002E0BB6987F8463097F84630002B34
:1033F8000DD0124997F846300093114B40F27D42A8
:10340800104809F021FAA02387F847300DE00B494E
:103418007B89FA68019200930B4B40F282420B4879
:1034280009F012FA002387F8473097F84730184612
:103438004837BD4680BD00BF9131010846CB08081A
:103448008CCF080894CB0808C8CF0808D0CB080848
:1034580080B58AB004AF78600B467B8013467B70DA
:103468000023FB7500233B617B68002B0CD109F01E
:10347800B7F82D492D4B40F296422D4809F0E4F952
:1034880009F0AEF800BFFDE77B88002B0CD109F0EE
:10349800A7F82549254B40F29742254809F0D4F969
:1034A80009F09EF800BFFDE77B8819467868FFF7AA
:1034B800F7FDF86002F0F2FD38613B69002B02D09D
:1034C800FB68002B02D1A223FB7527E00023FA68D2
:1034D8007968386903F064FD0346FB72FB7A002BB8
:1034E8000FD011497B88FA7A02927A680192009388
:1034F800104B40F2AB42104809F0A6F9A223FB7525
:103508000CE009497B887A68019200930B4B40F2E2
:10351800B4420B4809F098F90023FB75FB7D184667
:103528001837BD4680BD00BF46CB080858CB0808F1
:103538006CCB0808F8CF080894CB080830D00808E6
:10354800D0CB080880B582B000AF78607B68002BCC
:103558000CD109F045F82549254B40F2C3422548CE
:1035680009F072F909F03CF800BFFDE77B68224AD0
:103578001A607B68214A5A607B68214A9A607B6896
:10358800204ADA607B68204A5A617B681F4A9A6140
:103598007B681F4ADA617B681E4A1A627B681E4A8A
:1035A8005A627B681D4A9A627B681D4A1A637B6867
:1035B8001C4ADA627B681C4ADA657B681B4A9A6592
:1035C8007B681B4ADA647B681A4A1A657B681A4A60
:1035D8009A647B68194A5A657B68194A1A647B6839
:1035E800184A5A6400BF0837BD4680BD46CB080854
:1035F80058CB08086CCB0808092F0808692F080859
:10360800C12F08088530080831310808F532080844
:10361800813308081D3408083534080829320108A0
:103628001933010859340108A1B9020871B7020811
:10363800F9B20208A5B5020829B402086DBA020851
:1036480081B502080DB1020880B483B000AF78607C
:103658007B68134A1A607B684FF482729A807B6891
:10366800104A9A607B684FF482729A817B680E4A8E
:103678001A617B6880229A827B680C4A9A617B680F
:103688004FF40062DA617B68094A1A627B6880221B
:103698009A8400BF0C37BD465DF8047B704700BFB5
:1036A800E4080020E8090020EC0A00206C0B002048
:1036B8006C13002080B582B000AF6DF053FA03465A
:1036C800022B04D0022B05DB043B032B02D8012379
:1036D8007B6002E000237B6000BF7B6818460837E8
:1036E800BD4680BDB0B5BAB006AF78600123C7F853
:1036F800CC30002387F8C33007F1B40300221A60E6
:103708005A60012387F8CB300023C7F8C43007F18B
:103718001C0338220021184674F0E3FA07F1540319
:103728001846FFF70FFF07F11C031846FFF78CFF39
:10373800B049B14BDB781A46AF4B9B781846AE4B75
:103748001B88029301900092AC4B4FF4A662AC48E0
:1037580009F07AF8D7F8CC30012B18D1A949002004
:103768000CF0B2FE0346A84A1360A74B1B68002B57
:1037780003D0A44B1B68002B09D10023C7F8CC3019
:103788009C49A24B40F24F52A14809F05DF8D7F886
:10379800CC30012B2DD197499E4B40F25652984878
:1037A80009F052F89C4B18689C4B009301230022A7
:1037B80020213CF06BF9C7F8BC00D7F8BC3003F007
:1037C8002003002B0BD08B49954B4FF4AC628C48EF
:1037D80009F03AF802F062FCC7F8C40009E00023D7
:1037E800C7F8C43083498F4B40F26652844809F0C9
:1037F8002BF8D7F8CC30012B1DD1D7F8C430002BCB
:1038080019D000230093884B00228849D7F8C400B8
:1038180003F074F9034687F8CB3097F8CB30002BC8
:1038280009D07449824B40F27552794809F00CF876
:103838000023C7F8CC30D7F8CC30012B1DD1D7F8EE
:10384800C430002B19D000230093774B002279490C
:10385800D7F8C40003F052F9034687F8CB3097F83D
:10386800CB30002B09D06349734B40F2855268482E
:1038780008F0EAFF0023C7F8CC30D7F8CC30012B8A
:1038880004D16E48FFF71EF9C7F8CC00D7F8CC3042
:10389800012B1CD15C4B1A6807F1540107F11C007D
:1038A800674B6DF0D5F8034687F8C33097F8C330F7
:1038B800002B0CD04F4997F8C3300093614B40F26E
:1038C8009752534808F0C0FF0023C7F8CC30D7F808
:1038D800CC30012B1AD1002301930323009300233A
:1038E8004FF48052584959483EF032F9C7F8CC0095
:1038F800D7F8CC30012B09D03E49D7F8CC3000930B
:10390800534B40F2A652424808F09EFFD7F8CC30FD
:10391800012B3CD1002387F8B83007F1B4031846CF
:103928006CF012FF07F10C0300221A605A609A60CB
:10393800DA60FFF7BFFE0346012B1FD107F10C0326
:1039480018466DF01BF90346002B17D1294D6DF071
:1039580009F903461A463F4B53F82230FA68396989
:103968007869BC69049403900291019200933A4BE0
:1039780040F2BD522946224808F066FF47F230500F
:103988003EF0E6FA6DF0EEF803460A2BCAD1194963
:10399800324B40F2CA521A4808F056FF97F8CB301B
:1039A800002B14D10023204A2049D7F8C40003F083
:1039B800F7FA034687F8CB3097F8CB30002B06D0C0
:1039C8000C49274B40F2D552114808F03DFF0E4BE9
:1039D8001B68002B07D00C4B1B68184641F066FF8C
:1039E800094B00221A6000203EF01EFA00BFD037B3
:1039F800BD46B0BD46CB0808902A0A0850D0080832
:103A0800D0CB0808003E0020FC3D002078D00808F4
:103A180094CB0808A8D0080880890020C0D40100E9
:103A2800D0D00808F8D00808452F01082CD108087C
:103A38004CD1080888D10808A8D10808EC13002040
:103A4800CD2C0108D8D1080808D20808B12C0108E3
:103A580014D208081800002040D2080884D20808A8
:103A6800B0D2080880B584B002AF786039607B684E
:103A78001B68002B0AD07B6818683B681B781A46BD
:103A8800002300930323002140F060FA00BF0837A9
:103A9800BD4680BD80B594B002AFBA607B60034676
:103AA800FB730B46BB7307F12C0300221A605A60A4
:103AB8009A60DA601A6107F1240300221A605A60DA
:103AC80007F1180300221A605A609A6000237B618C
:103AD8000021002040F0D2FDFB7B87F82C30BB7B17
:103AE80087F82D30BB683B63B868FCF7CBFB03460F
:103AF8009BB2BB867B68BB633B6DFB633FF0B8FE44
:103B080003467B624FF4FA733B621D4BBB6107F1BE
:103B18002403FB611B4B1B6807F1180207F12C01FA
:103B2800184672F06EFB034687F8473097F847301F
:103B3800002B1BD107F114034FF0FF320092002233
:103B48000021002040F062F938643B6C012B0AD157
:103B58007B69002B03D0032387F8473006E0002356
:103B680087F8473002E0032387F8473097F8473053
:103B7800002BCFD197F8473018464837BD4680BD4F
:103B88006D3A0108483E002080B582B000AF7860E9
:103B9800074B1B68002B06D0054B1B680022012130
:103BA80018463CF09DF900BF0837BD4680BD00BFF0
:103BB800443E002080B582B000AF7860074B1B6898
:103BC800002B06D0054B1B680022012118463CF04B
:103BD80087F900BF0837BD4680BD00BF443E0020BE
:103BE80090B597B004AF7860002387F8363001238A
:103BF80087F8353000233B630023BB6001F050FA9F
:103C080002F04CFA0346A64A1360A54B1B68002B2A
:103C18000CD108F0E5FCA349A34B4FF48372A348E9
:103C280008F012FE08F0DCFC00BFFDE701F074FAB2
:103C38009C499F4B40F20B129E4808F005FE07F185
:103C48000803194600200CF03FFC38633B6B002B3F
:103C58000CD108F0C5FC9349934B4FF487729348F5
:103C680008F0F2FD08F0BCFC00BFFDE74FF400705F
:103C780041F0D6FCF862FB6A002B0CD108F0B0FCCE
:103C88008849894B40F21112884808F0DDFD08F098
:103C9800A7FC00BFFDE73BF0DFFE0346864A136042
:103CA800854B1B68002B0CD108F09AFC7D497E4B94
:103CB8004FF48A727D4808F0C7FD08F091FC00BFF8
:103CC800FDE73B6B7D4A40217D4873F069FE002289
:103CD8007C494FF400500EF0ABF800227A494FF4BB
:103CE80000500EF0E5F8002387F8473011E0724BDA
:103CF8001A6897F8473075491B010B4404331B6851
:103D0800194610463BF0D8FF97F84730013387F83B
:103D1800473097F84730002BE9D000233B64002355
:103D280087F83F300EE097F83F30684A1B0113448C
:103D380004331B683A6C13433B6497F83F300133F4
:103D480087F83F3097F83F30002BECD05A4B186873
:103D58004FF0FF33009300230122396C3BF096FEAD
:103D6800B862BB6A002BD8D0594A4FF40071F86A80
:103D780073F016FEB863BB6B002B0CDA08F030FC4E
:103D88004849494B40F23F12484808F05DFD08F0A9
:103D980027FC00BFFDE7002387F837304AE097F893
:103DA80037301B01494A1344BB61BB699A68BB6938
:103DB8009B89194610461DF08DFE0346FB75BB69AD
:103DC800FA7DDA73BB699B7BFA7D9A4201D1414B3C
:103DD80000E0414B3B61BB6BFA6AD018BB6BC3F583
:103DE8000071BB6B142B01DD3C4C00E03C4CBB6903
:103DF8001B683A690192009323463A4A73F0D0FD52
:103E0800F860FB68002B0CDA08F0EAFB2549264B22
:103E180040F25312254808F017FD08F0E1FB00BFF7
:103E2800FDE7BA6BFB681344BB6397F8373001337F
:103E380087F8373097F83730002BB0D0BB6BFA6A69
:103E4800D018BB6BC3F50073274A194673F0A8FD59
:103E580078627B6A002B0CDA08F0C2FB1149124B1E
:103E680040F25B12114808F0EFFC08F0B9FB00BF04
:103E7800FDE7BA6B7B6A1344BB63BB6B3B623B6A6F
:103E8800B3F5007F32D308F0ABFB0649064B40F28E
:103E98005F12064808F0D8FC08F0A2FB00BFFDE757
:103EA800483E0020F5D2080804D3080818D30808AB
:103EB80020D3080858D30808443E00205CD30808DB
:103EC800043E0020913B0108BD3B0108480000204A
:103ED80078D3080890D3080894D3080898D308081A
:103EE8009CD30808A0D30808C0D3080816493B6A21
:103EF800FA6A02920193154B0093154B40F2611236
:103F0800144808F0A1FC97F8351097F836003B6A7A
:103F18000093FB6A0D4AFFF7BDFD0346FB77FB7F65
:103F2800002B07D108490C4B4FF4B772094808F029
:103F38008BFCF2E60449054B0093084B4FF4B97229
:103F4800074808F081FCE8E6F5D20808043E00209E
:103F5800C8D3080858D30808F8D3080824D4080890
:103F680054D4080880B483B000AF0346FB71094BF2
:103F78001B78DBB2012B02D0022B02D003E0002316
:103F880002E0012300E0032318460C37BD465DF824
:103F9800047B70475C42002080B582B000AF786037
:103FA8007B6858687B681B88012219461DF0AAFDAA
:103FB8004FF47A703DF0CCFF7B6858687B681B88AB
:103FC800002219461DF09EFD00BF0837BD4680BD82
:103FD80080B582B000AF78607B6804331846FFF77D
:103FE800DBFF00BF0837BD4680BD80B582B000AF9B
:103FF80078607B6804331846FFF7CEFF00BF0837A8
:10400800BD4680BD80B582B000AF78607B68043360
:104018001846FFF7C1FF00BF0837BD4680BD000046
:1040280080B584B000AF78600023FB7313E0FB7B9E
:104038000D4A1B0113441B6879681846FCF718F9E8
:104048000346002B04D1FB7B1B01074A134406E0FF
:10405800FB7B0133FB73FB7B002BE8D00023184666
:104068001037BD4680BD00BF5800002080B483B023
:1040780000AF0346FB71FB79022B0AD0022B0ADC46
:10408800002B02D0012B02D005E0064B04E0064BC2
:1040980002E0064B00E0064B18460C37BD465DF8BB
:1040A800047B704768D4080870D4080878D40808D6
:1040B80080D4080880B584B002AF786039607B6826
:1040C8001B68002B0AD07B6818683B681B781A4667
:1040D80000230093032300213FF038FF00BF083777
:1040E800BD4680BD80B592B002AFBA607B60034622
:1040F800FB730B46BB7307F1280300221A605A6052
:104108009A60DA601A6107F11C0300221A605A608B
:104118009A6007F1140300221A605A6000233B6179
:104128000021002040F0AAFAFB7B87F82830BB7BEF
:1041380087F82930BB68FB62B868FCF7A3F8034628
:104148009BB23B867B687B63BB6CBB633FF090FB99
:1041580003467B614FF4FA737B621C4BFB6107F1EA
:1041680014033B621A4B1B6807F11C0207F1280174
:10417800184672F046F8034687F83F3097F83F3004
:10418800002B18D107F110034FF0FF3200920022E4
:10419800002100203FF03AFE0346012B08D13B697D
:1041A800002B01D1002300E0032387F83F3002E011
:1041B800032387F83F3097F83F30002BD2D197F888
:1041C8003F3018464037BD4680BD00BFBD4001089E
:1041D8008C3E002080B586B002AF78603960786880
:1041E800FFF71EFFF860FB68002B09D116497B68B2
:1041F8000093164B4FF49F72154808F025FB1FE0FB
:1042080014493868FCF734F80346002B03D1F868E2
:10421800FFF7DEFE14E010493868FCF729F803467A
:10422800002B03D1F868FFF7E0FE09E00B49386876
:10423800FCF71EF80346002B02D1F868FFF7E2FEF0
:104248001037BD4680BD00BF9CD40808ACD4080810
:10425800C4D40808C8D40808D0D40808D8D4080892
:1042680080B5C0B000AF786007F58073A3F58073A0
:10427800196007F58073A3F580731B681B89C7F85D
:10428800FC30D7F8FC307F2B02D97F23C7F8FC30ED
:1042980007F58073A3F580731B68596807F16803F5
:1042A800D7F8FC20184673F046FF07F16802D7F8E4
:1042B800FC30134400221A7007F58073A3F580734D
:1042C8001B681B69C7F8F830D7F8F8303F2B02D9BC
:1042D8003F23C7F8F83007F58073A3F580731B6890
:1042E800D96807F12803D7F8F820184673F023FF98
:1042F80007F12802D7F8F830134400221A7007F1A2
:1043080068032649184673F0E1FDC7F8F000D7F8AE
:10431800F030002B3AD0D7F8F0300733C7F8F03038
:10432800D7F8F030C7F8EC302F21D7F8EC0073F04D
:10433800FDFCC7F8E800D7F8E830002B28D0D7F8FC
:10434800E820D7F8EC30D31AC7F8F430D7F8F430AF
:104358001F2B02D91F23C7F8F43007F10803D7F839
:10436800F420D7F8EC10184673F0E5FE07F10802C0
:10437800D7F8F430134400221A7007F1280207F125
:10438800080311461846FFF725FF02E000BF00E0CA
:1043980000BF07F58077BD4680BD00BFE0D40808A0
:1043A80080B5A6B002AF0346FB7107F10C001A4BAB
:1043B8001A4A802173F0F4FA194B1868FA7907F150
:1043C8000C0100230093174B02F098FB034687F873
:1043D8008F3097F88F30002B0AD0134907F10C0360
:1043E8000093124B40F2A512114808F02DFA09E08B
:1043F8000D4907F10C0300930E4B40F2A7120E482B
:1044080008F022FA97F88F30002BD5D197F88F3023
:1044180018469037BD4680BD4C3E0020E8D40808B9
:104428008C3E0020694201089CD40808FCD4080886
:1044380014D5080818D5080828D5080880B5AEB0DE
:1044480002AF002387F8AF303DE097F8AF301B018B
:10445800214A1344C7F8A83097F8AF301846FFF739
:1044680081FD03461A46D7F8A8301A73D7F8A83042
:104478001B6807F120000093184B194A802173F03C
:104488008FFAD7F8A8301B7B1846FFF7EFFDC7F85F
:10449800A4003846D7F8A430124A202173F080FAD5
:1044A8000346C7F8A030394607F12002D7F8A030F4
:1044B80000930B4601210120FFF714FE97F8AF3057
:1044C800013387F8AF3097F8AF30002BBDD000BF6D
:1044D80000BFB037BD4680BD580000204C3E0020CC
:1044E8002CD5080840D5080880B588B002AF786098
:1044F80000F0D6FD01F0D2FD03463B4A13603A4B6B
:104508001B68002B0CD108F06BF83849384B4FF476
:10451800F772384808F098F908F062F800BFFDE72C
:1045280000F0FAFD0023BB6007F1080319460020DC
:104538000BF0CAFF38613B69002B0CD108F050F82A
:104548002A492B4B4FF4FA722A4808F07DF908F0F3
:1045580047F800BFFDE7BB681A463969264873F07B
:10456800EAFDBB68244A0021D154386941F09EF91C
:104578001E49214B0093214B4FF4FD72204808F04F
:1045880063F90120FFF70CFFFFF758FF1D4B186870
:104598004FF0FF330093002301224FF400713BF0EA
:1045A80075FA0023FB751AE0FB7D1846FFF7DAFC65
:1045B8000346FB73FB7D144A1B0113440C331B7821
:1045C800FA7B9A4208D0FB7D0F4A1B0113440C3337
:1045D800FA7B1A70FFF732FFFB7D0133FB75FB7D19
:1045E800002BE1D0D2E700BF8C3E00209CD4080805
:1045F80044D5080858D508084C3E002060D508085E
:1046080028D50808808900205800002080B5A2B06D
:1046180004AF786000233B650023FB6400237B67BD
:10462800002387F873308CE097F873301B01974AA2
:104638001344FB65FB6D1B6807F10C00944A40218D
:1046480073F0AEF9B865BB6D002B74DDBB6D3F2B05
:1046580071DC00233B650023FB647868FBF712FEDE
:10466800B96D07F10C020023029307F14C03019383
:1046780007F1500300930B460146786870F073FC0D
:10468800034687F8573097F85730012B54D13B6DC4
:10469800002B51D0FB6C002B4ED0FB6C022B23D18E
:1046A8003B6DFA6C7B49184673F085FB0346002B7B
:1046B8001AD1FB6D1B7B1A46774B53F82230002B1F
:1046C8003AD1FB6D1B7B1946734B012243F821201D
:1046D80001237B67FB6D5868FB6D1989FB6D9B7A1D
:1046E8001A461DF00FFA27E0FB6C032B24D13B6D13
:1046F800FA6C6A49184673F05EFB0346002B1BD11F
:10470800FB6D1B7B1A46644B53F82230012B13D1E7
:10471800FB6D1B7B1946604B002243F821200123C7
:104728007B67FB6D5868FB6D1989FB6DDB7A1A4650
:104738001DF0E8F900E000BF97F87330013387F8FF
:10474800733097F87330012B7FF66EAF7B6F002BB9
:1047580040F08F8052497868FBF78AFD0346002BAA
:104768001CD14A4B3B663B6E1B7B1A464A4B53F89F
:104778002230002B7DD13B6E1B7B1946464B012214
:1047880043F821203B6E58683B6E19893B6E9B7A33
:104798001A461DF0B7F901237B676AE0414978683A
:1047A800FBF766FD0346002B1CD1384B7B667B6EFE
:1047B8001B7B1A46384B53F82230012B59D17B6E9C
:1047C8001B7B1946344B002243F821207B6E586826
:1047D8007B6E19897B6EDB7A1A461DF093F90123EB
:1047E8007B6746E030497868FBF742FD0346002BBB
:1047F8001CD12E4BBB66BB6E1B7B1A46264B53F84F
:104808002230002B35D1BB6E1B7B1946224B01226F
:1048180043F82120BB6E5868BB6E1989BB6E9B7A22
:104828001A461DF06FF901237B6722E0204978685A
:10483800FBF71EFD0346002B1BD11C4BFB66FB6ED2
:104848001B7B1A46144B53F82230012B11D1FB6EF7
:104858001B7B1946104B002243F82120FB6E586839
:10486800FB6E1989FB6EDB7A1A461DF04BF90123A2
:104878007B677B6F012B05D10E4B1B680121184606
:104888003BF01AFA00BF7837BD4680BDCC280A082D
:1048980098D50808B0D50808103F0020B4D50808F6
:1048A800B8D50808C4D50808D0D50808DC280A08EF
:1048B800E0D50808183F002080B584B002AF7860C2
:1048C80039607B681B68002B0AD07B6818683B68D6
:1048D8001B781A4600230093032300213FF036FB80
:1048E80000BF0837BD4680BD80B584B002AF786090
:1048F80039603B681B697F2B0DD83B68D9683B68DA
:104908001B691A46124873F016FC3B681B69104A6B
:104918000021D1540CE03B68DB680D4A104619466B
:1049280080231A4673F007FC094B002283F87F2086
:104938000849074B0093084B40F28F12074807F0CD
:1049480083FF0348FFF762FE00BF0837BD4680BDFE
:10495800203F002002D6080810D6080838D60808D4
:1049680090B587B002AF03463960FB71174B1868E2
:10497800FA7900230093164B396802F0BFF8034612
:10498800FB73FB7B002B09D01249FB7B0093124B76
:1049980040F2A512114807F057FF0EE00D4C386899
:1049A800FBF770FC02463B68019300920C4B40F207
:1049B800A91221460B4807F047FFFB7B002BD5D1F6
:1049C800FB7B18461437BD4690BD00BF1C3F002036
:1049D800F148010802D608083CD608086CD6080831
:1049E80070D6080838D6080880B594B002AFBA6007
:1049F8007B600346FB730B46BB7307F12C03002255
:104A08001A605A609A60DA601A6107F1240300227A
:104A18001A605A6007F1180300221A605A609A60F7
:104A280000237B61002100203FF028FEFB7B87F8F4
:104A38002C30BB7B87F82D30BB683B63B868FBF72D
:104A480021FC03469BB2BB867B68BB633B6DFB6363
:104A58003EF00EFF03467B624FF4FA733B621D4B38
:104A6800BB6107F12403FB611B4B1B6807F11802AC
:104A780007F12C01184671F0C4FB034687F847304C
:104A880097F84730002B1BD107F114034FF0FF3282
:104A980000920022002100203FF0B8F938643B6CF6
:104AA800012B0AD17B69002B03D0032387F84730F9
:104AB80006E0002387F8473002E0032387F84730F1
:104AC80097F84730002BCFD197F84730184648372A
:104AD800BD4680BDC14801081C3F002080B590B08C
:104AE80004AF78600123BB62012387F827300123D4
:104AF80087F8263000233B620023FB6000F0D0FAE1
:104B080001F0CCFA0346864A1360854B1B68002BDC
:104B18000CD107F065FD8349834B40F20A22834894
:104B280007F092FE07F05CFD00BFFDE700F0F4FA25
:104B38007C497F4B40F20E227E4807F085FE07F144
:104B48000C03194600200BF0BFFC38623B6A002BAF
:104B58000CD107F045FD7349734B40F2112273489D
:104B680007F072FE07F03CFD00BFFDE7802040F033
:104B780057FDF861FB69002B0CD107F031FD69493D
:104B8800694B4FF40572694807F05EFE07F028FD8F
:104B980000BFFDE73B6A684A4021684872F000FFA1
:104BA8003B6A674A4021674872F0FAFE3AF054FFC0
:104BB8000346654A1360644B1B68002B0CD107F051
:104BC8000FFD5849584B40F21B22584807F03CFE4D
:104BD80007F006FD00BFFDE7BB6A012B16D197F869
:104BE800273058491846FFF7BBFE0346FB76FB7E85
:104BF800002B0BD04B49534B0093544B40F22222CD
:104C0800534807F021FE00203DF00EF94E4B1B687B
:104C1800012118463BF050F84B4B18684FF0FF3312
:104C280000930123012201213AF030FF78617B696A
:104C380003F00103002BEFD0002387F82F300EE09C
:104C480097F82F2097F82F30424951F822204249EF
:104C580041F8232097F82F30013387F82F3097F841
:104C68002F30012BECD900231A463A4B53F8223047
:104C7800002B01D0394A00E0394A01231946354B47
:104C880053F82130002B01D0344B00E0344B009313
:104C98001346344A8021F86972F082FE03463B616C
:104CA8003B697F2B0CD907F09BFC1E491E4B4FF428
:104CB80011721E4807F0C8FD07F092FC00BFFDE71F
:104CC80018493B69FA69029201931C4B0093264BE1
:104CD80040F24622174807F0B7FD97F8261097F8D4
:104CE80027003B690093FB69144AFFF77DFE0346E2
:104CF800FB76FB7E002B09D10A49104B00931B4B16
:104D080040F253220B4807F09FFD85E705490B4BFE
:104D18000093174B4FF416720D4807F095FD7BE78B
:104D28001C3F002002D608088CD60808A0D6080820
:104D3800A8D6080838D60808F0D60808D03E0020BB
:104D480000D70808903E0020183F002010D7080818
:104D58006CD60808103F002068000020B0D508086D
:104D6800B4D5080834D7080890D70808B8D7080871
:104D7800DCD7080880B582B000AF124B1B68002B47
:104D88001CD10022042120203BF06EFA03460D4A74
:104D9800136000237B600EE07B681B010A4A134402
:104DA8003B60084B18683946002300223BF056FB4D
:104DB8007B6801337B607B681F2BEDD900BF083708
:104DC800BD4680BDA0410020A03F00202DE9F04F46
:104DD80085B000AF78600021F9602D490968002985
:104DE8004AD02B490E68796800200C4605462046B3
:104DF80029464FF0000A4FF0000B4FEA411B4BEADF
:104E0800D06B4FEA401A50465946021B61EB050326
:104E18004FF000004FF00001990041EA92719000B4
:104E280002460B4612EB040843EB05094FF000025B
:104E38004FF000034FEAC90343EA58734FEAC80228
:104E480090469946404649464FF47A724FF000031F
:104E5800FBF704FF02460B4607F10C0319463046E0
:104E68003BF0A4FC0346002B0CD10A490A4B5A22FA
:104E78000A4807F0E9FC05E00649094B5F220748A4
:104E880007F0E2FCFB6818461437BD46BDE8F08F12
:104E9800A04100200FD8080828D8080848D80808D2
:104EA8004CD8080880B586B002AF78600023FB6054
:104EB800164B1B68002B06D11549164B6D22164858
:104EC80007F0C2FC18E07B68144A934203D37B685E
:104ED800134A934208D90E497B680093114B7322F9
:104EE8000D4807F0B1FC07E0084B1868391D00238E
:104EF80000223BF0B3FAF860FB68002B14BF0123D3
:104F08000023DBB218461037BD4680BDA041002003
:104F18000FD808084CD8080848D80808A03F00202F
:104F2800A04100206CD8080890B587B002AF78601F
:104F38000023FB607B68002B0BD107F051FB234952
:104F4800234BE122234807F07FFC07F049FB00BF11
:104F5800FDE77B68D3F8A432002B0BD107F040FBA8
:104F68001A491B4BE2221B4807F06EFC07F038FB7E
:104F780000BFFDE73EF07CFC04467B68D3F8A43212
:104F880018463BF03BFA03469C4205D10F49124BA9
:104F9800E422104807F058FC7B68D3F8A4324FF09D
:104FA800FF3118463BF0E0FCF860FB68002B07D1A6
:104FB8000649FB680093094BEF22094807F044FCB7
:104FC800FB6818461437BD4690BD00BFCBD808080B
:104FD800E0D80808F4D80808FCD8080818D9080840
:104FE80040D9080890B587B002AF78600023FB600D
:104FF8007B68002B0BD107F0F3FA2349234BFB22E4
:10500800234807F021FC07F0EBFA00BFFDE77B68B7
:10501800D3F8A432002B0BD107F0E2FA1A491B4B44
:10502800FC221B4807F010FC07F0DAFA00BFFDE786
:105038003EF01EFC04467B68D3F8A43218463BF0C9
:10504800DDF903469C4205D00F49124BFD2210485A
:1050580007F0FAFB7B68D3F8A402002300220021A2
:105068003BF0FCF9F860FB68002B08D10649FB68A7
:105078000093094B40F20712084807F0E5FBFB686C
:1050880018461437BD4690BDCBD80808E0D80808A4
:10509800F4D80808FCD8080844D9080840D90808F2
:1050A80080B584B002AF184B1B68002B0CD107F0F9
:1050B80097FA1649164B4FF48872164807F0C4FB46
:1050C80007F08EFA00BFFDE70F4B18684FF0FF336B
:1050D80000930123002210213AF0D8FC78607B6805
:1050E80003F01003002B00D1EEE700BF02E00A2016
:1050F8003CF02EFF00F0D2FF0346002BF7D000BF94
:1051080000BF0837BD4680BD80890020CBD808087D
:10511800E0D80808F4D8080880B584B002AF134B6B
:105128001B68002B0CD107F05BFA1149114B4FF4A7
:105138009572114807F088FB07F052FA00BFFDE7A7
:105148000A4B18684FF0FF330093012300222021F7
:105158003AF09CFC78607B6803F02003002B00D1B8
:10516800EEE700BF00BF0837BD4680BD808900203C
:10517800CBD80808E0D80808F4D8080880B584B067
:1051880002AF0B4B18680023009301230022202153
:105198003AF07CFC78607B6803F02003002B14BF96
:1051A80001230023DBB218460837BD4680BD00BF87
:1051B8008089002080B586B000AFF860B9607A6059
:1051C8003B60FB68002B0CD107F00AFA3249334BDD
:1051D80040F24F12324807F037FB07F001FA00BFE0
:1051E800FDE7BB68002B0CD107F0FAF92A492B4BD5
:1051F8004FF4A8722A4807F027FB07F0F1F900BF1F
:10520800FDE77B68132B0CD907F0EAF92249234BF9
:1052180040F25112224807F017FB07F0E1F900BFEE
:10522800FDE73B68132B0CD907F0DAF91A491B4B39
:105238004FF4A9721A4807F007FB07F0D1F900BF2D
:10524800FDE700237B611EE07B691B01FA681344BC
:10525800D9687A6813465B0013449B001A46BB68FA
:10526800134499420CD13A6813465B0013449B00DF
:1052780019467B691B01FA681344BA680A44DA6064
:105288007B6901337B617B69132BDDD900BF00BFCC
:105298001837BD4680BD00BFCBD80808E0D808083D
:1052A800F4D8080880B588B000AFF860B9607A60B3
:1052B8000023FB610023BB61FB68002B0CD107F0C6
:1052C8008FF95349534B4FF4B372534807F0BCFA64
:1052D80007F086F900BFFDE7BB68002B0CD107F08B
:1052E8007FF94B494B4B40F267124B4807F0ACFA39
:1052F80007F076F900BFFDE700237B617DE07A695E
:1053080013465B0013449B001A46FB6813445B6812
:10531800002B56D17A6913465B0013449B001A464A
:10532800FB6813441B89002B4BD1FB69132B48D80E
:10533800FA697B699A4240D87B690133FB613CE09A
:10534800FA6913465B0013449B001A46FB68134432
:105358001B89002B2ED0FA6913465B0013449B006F
:105368001A46FB6899187A6913465B0013449B0038
:105378001A46FB6813440A4607CA83E80700FA6915
:1053880013465B0013449B001A46FB6813440C2227
:105398000021184672F0A5FC7B69FA69F968B868BB
:1053A800FFF708FFBB690133BB61FB690133FB6190
:1053B80000BF1FE0FB690133FB61FB69132BBFD9F9
:1053C80018E07A6913465B0013449B001A46FB6891
:1053D80013445B68002B0DD07A6913465B001344B5
:1053E8009B001A46FB6813441B89002B02D0BB693B
:1053F8000133BB617B6901337B617B69132B7FF6CA
:105408007EAF7B68BA691A6000BF2037BD4680BD91
:10541800CBD80808E0D80808F4D8080890B587B0B1
:1054280000AF7860396000237B6100233B617B68B3
:10543800002B0CD107F0D4F84D494E4B4FF4D172E4
:105448004D4807F001FA07F0CBF800BFFDE73B68CD
:10545800002B0CD107F0C4F84549464B40F2A31283
:10546800454807F0F1F907F0BBF800BFFDE7002356
:10547800FB6073E0FB681B017A681344DB68002B50
:105488005FD17B69132B5CD87A69FB689A4254D840
:10549800FB6801337B6150E07B691B017A68134428
:1054A800DB68002B46D07A69FB689A420CD807F073
:1054B80097F82F492F4B40F2B5122F4807F0C4F93F
:1054C80007F08EF800BFFDE77B691B017A68D118E9
:1054D800FB681B017A6813441C460B460FCB84E813
:1054E8000F007B691B017A681344102200211846BB
:1054F80072F0F7FB7B691B017A68134400221A607B
:105508007B691B017A68134400225A607B691B017E
:105518007A68134400229A607B691B017A681344F5
:105528000022DA603B6901333B617B6901337B61AF
:1055380000BF10E07B6901337B617B69132BABD91A
:1055480009E0FB681B017A681344DB68002B02D072
:105558003B6901333B61FB680133FB60FB68132B3C
:1055680088D93B683A691A6000BF1C37BD4690BDB0
:10557800CBD80808E0D80808F4D808082DE9F04F77
:1055880089B002AFF860B9607A6000237B61FB687C
:10559800002B50D0BB68002B4DD0FB681E687B6881
:1055A80000229846914642464B464FF000004FF085
:1055B8000001590141EAD261500102460B46B2EBA3
:1055C800080463EB09054FF000024FF00003AB003D
:1055D80043EA9473A20014461D4614EB080A45EBEF
:1055E800090B4FF000024FF000034FEACB0343EAE8
:1055F8005A734FEACA0292469B46504659464FF4A0
:105608007A724FF00003FBF729FB02460B46002392
:10561800B96830463AF022FF7861FB685B68002B76
:1056280009D0FB6858680023009301234FF080429B
:1056380003213EF08BFC7B69002B14BF0123002360
:10564800DBB218461C37BD46BDE8F08F2DE9B04FD8
:1056580088B002AFF860B9607A6000237B610023EC
:105668003B61FB68002B55D0BB68002B52D07B6890
:1056780000229846914642464B464FF000004FF0B4
:105688000001590141EAD261500102460B46B2EBD2
:10569800080463EB09054FF000024FF00003AB006C
:1056A80043EA9473A20014461D4614EB080A45EB1E
:1056B800090B4FF000024FF000034FEACB0343EA17
:1056C8005A734FEACA0292469B46504659464FF4CF
:1056D8007A724FF00003FBF7C1FA02460B4607F156
:1056E800100300924FF0FF32002103203EF08EFBA2
:1056F8000346002B0ED03B69002B03DABB6800225F
:105708001A6007E0FB681B680022B96818463BF07E
:105718004DF878617B69002B14BF01230023DBB2AD
:1057280018461837BD46BDE8B08F000090B58BB05D
:1057380002AF786039607B687B617B68002B0CD195
:1057480006F04EFF4B494C4B40F229224B4807F0DC
:105758007BF806F045FF00BFFDE73B68002B0CD146
:1057680006F03EFF4349444B40F22A22434807F0E3
:105778006BF806F035FF00BFFDE73EF079F8044608
:105788007B69D3F8A43218463AF038FE03469C42A7
:105798000CD006F025FF3749374B40F22B2237480B
:1057A80007F052F806F01CFF00BFFDE70023FB617D
:1057B80052E03B685A68FB69134419787A69FB69B7
:1057C8001344F0330A461A703B685A68FB6913445D
:1057D8001B78802B3DD1FA6913465B0013449B006C
:1057E8007A6913443B6123493B691B891A463B6923
:1057F8005B6801930092224B4FF40E72214807F028
:1058080023F80023BB6121E0BB6915331B017A69CA
:1058180013440433FB60FB68DB683A699A4212D18F
:10582800FB689B68002B0ED0124CFB689B681846DF
:105838003CF0AEFF03460093134B40F2432221464F
:10584800124807F001F8BB690133BB61BB69132B30
:10585800DAD9FB690133FB617B69D3F89432FA69C1
:105868009A42A6D37869FFF7BDFB00BF2437BD462F
:1058780090BD00BFCBD80808E0D80808F4D80808BD
:1058880070D9080840D90808A0D90808F0D908082C
:1058980090B589B002AF786039603B68002B0CD1B5
:1058A80006F09EFE3D493E4B4FF415723D4806F00A
:1058B800CBFF06F095FE00BFFDE73B68D3F8A432A6
:1058C800002B0CD106F08CFE3449354B40F25522A2
:1058D800344806F0B9FF06F083FE00BFFDE73DF04F
:1058E800C7FF04463B68D3F8A43218463AF086FD51
:1058F80003469C420CD006F073FE2849284B40F220
:105908005622284806F0A0FF06F06AFE00BFFDE711
:1059180038683B6803F5AA713B6803F525731A4696
:10592800FFF7C0FC3B68D3F89432002B2CD01E4BF9
:10593800BB603B68FB6000233B613A683B68C3F887
:105948009C223B68D3F894223B68C3F8A0223B68AA
:1059580003F5277307F108021946786870F0E1FB30
:105968000346FB75FB7D002B13D00C4CFB7D1846C2
:1059780030F040FF034600930C4B40F27122214661
:105988000B4806F061FF04E03868FFF72BFB0023A3
:10599800FB75FB7D18461C37BD4690BDCBD8080863
:1059A800E0D80808F4D8080835570108F4D90808D9
:1059B80040D9080880B588B002AFF860B9601346CE
:1059C800FB800023FB750023BB75FB685A68FB68E6
:1059D8001889F98807F1160300930346B86830F070
:1059E80079FE0346FB75FB7D002B04D1BB7D002BA4
:1059F80001D0012300E0002303F00103DBB21846C5
:105A08001837BD4680BD90B585B000AFF860B96065
:105A18007A603B60FB68DB68BA689A4212D1FB681F
:105A28005B683A689A420DD1FB681B687A689A42AB
:105A380008D1FB689C683DF01BFF03469C4201D1DE
:105A4800012300E0002303F00103DBB218461437FA
:105A5800BD4690BD80B58CB002AFF8600B467A6049
:105A68007B810023FB61002387F82730FB68002B2C
:105A78000CD106F0B5FD4449444B40F2A9224448F4
:105A880006F0E2FE06F0ACFD00BFFDE7FB68D3F8C8
:105A98000831002B0CD106F0A3FD3B493B4B40F2EB
:105AA800AA223B4806F0D0FE06F09AFD00BFFDE7AB
:105AB8007B68002B0CD106F093FD3349334B40F241
:105AC800AB22334806F0C0FE06F08AFD00BFFDE7B2
