:020000040801F1
:1000000000000C20DDBD0208A1450208A945020838
:10001000B1450208B9450208C14502082DBE0208D3
:10002000000000000000000000000000C179050889
:10003000C94502080000000061790508D946020898
:100040002DBE02082DBE02082DBE02082DBE0208DC
:100050002DBE02082DBE02082DBE02082DBE0208CC
:100060002DBE02082DBE02082DBE02082DBE0208BC
:100070002DBE0208D74502082DBE02082DBE02087B
:100080002DBE02082DBE02082DBE02082DBE02089C
:100090002DBE02082DBE0208E54502082DBE02084D
:1000A000F5450208054602081546020825460208DD
:1000B00000000000394602084D4602082DBE020825
:1000C0002DBE020861460208754602082DBE0208D0
:1000D0002DBE02082DBE02082DBE02082DBE02084C
:1000E0002DBE02082DBE02082DBE02082DBE02083C
:1000F0002DBE02082DBE02082DBE02082DBE02082C
:100100002DBE02082DBE02082DBE02082DBE02081B
:100110002DBE02082DBE02082DBE02082DBE02080B
:100120002DBE02082DBE02082DBE02088946020817
:100130009D460208B14602082DBE02082DBE0208E7
:100140002DBE02082DBE02082DBE02082DBE0208DB
:100150002DBE02082DBE02082DBE02082DBE0208CB
:100160002DBE02082DBE02082DBE02082DBE0208BB
:100170002DBE02082DBE02082DBE02082DBE0208AB
:100180002DBE02082DBE02082DBE02082DBE02089B
:100190002DBE02082DBE02082DBE02082DBE02088B
:1001A0002DBE02082DBE02082DBE02082DBE02087B
:1001B0002DBE020800000000C54602082DBE020840
:1001C0002DBE0208000000002DBE02082DBE020850
:1001D0002DBE02082DBE02082DBE02082DBE02084B
:1001E0002DBE02082DBE02082DBE02082DBE02083B
:1001F00000000000000000002DBE02082DBE020815
:100200002DBE02082DBE02082DBE02082DBE02081A
:100210002DBE02082DBE02082DBE02082DBE02080A
:100220002DBE02082DBE02082DBE02082DBE0208FA
:080230002DBE02082DBE0208DC
:1002380010B5054C237833B9044B13B10448AFF318
:1002480000800123237010BDC008002000000000BA
:100258001CD7080808B5034B1BB103490348AFF383
:10026800008008BD00000000C40800201CD7080852
:1002780010F8012B11F8013B012A28BF9A42F7D048
:10028800D01A7047034613F8012B002AFBD1181A1D
:100298000138704781F0004102E000BF83F000435D
:1002A80030B54FEA41044FEA430594EA050F08BF09
:1002B80090EA020F1FBF54EA000C55EA020C7FEACD
:1002C800645C7FEA655C00F0E2804FEA5454D4EB4A
:1002D8005555B8BF6D420CDD2C4480EA020281EA14
:1002E800030382EA000083EA010180EA020281EA4C
:1002F8000303362D88BF30BD11F0004F4FEA01319E
:100308004FF4801C4CEA113102D0404261EB4101AC
:1003180013F0004F4FEA03334CEA133302D0524232
:1003280063EB430394EA050F00F0A780A4F10104EE
:10033800D5F1200E0DDB02FA0EFC22FA05F2801828
:1003480041F1000103FA0EF2801843FA05F359410E
:100358000EE0A5F120050EF1200E012A03FA0EFC8D
:1003680028BF4CF0020C43FA05F3C01851EBE371B7
:1003780001F0004507D54FF0000EDCF1000C7EEBD4
:1003880000006EEB0101B1F5801F1BD3B1F5001F12
:100398000CD349085FEA30004FEA3C0C04F1010431
:1003A8004FEA445212F5800F80F09A80BCF1004F5A
:1003B80008BF5FEA500C50F1000041EB045141EADC
:1003C800050130BD5FEA4C0C404141EB0101013CA5
:1003D80028BFB1F5801FE9D291F0000F04BF014694
:1003E8000020B1FA81F308BF2033A3F10B03B3F166
:1003F80020020CDA0C3208DD02F1140CC2F10C02F6
:1004080001FA0CF021FA02F10CE002F11402D8BF53
:10041800C2F1200C01FA02F120FA0CFCDCBF41EA1F
:100428000C019040E41AA2BF01EB0451294330BDEE
:100438006FEA04041F3C1CDA0C340EDC04F11404CB
:10044800C4F1200220FA04F001FA02F340EA0300A2
:1004580021FA04F345EA030130BDC4F10C04C4F1E8
:10046800200220FA02F001FA04F340EA03002946C8
:1004780030BD21FA04F0294630BD94F0000F83F412
:10048800801306BF81F480110134013D4EE77FEAF5
:10049800645C18BF7FEA655C29D094EA050F08BF41
:1004A80090EA020F05D054EA000C04BF1946104622
:1004B80030BD91EA030F1EBF0021002030BD5FEA66
:1004C800545C05D14000494128BF41F0004130BD8E
:1004D80014F580043CBF01F5801130BD01F00045E2
:1004E80045F0FE4141F470014FF0000030BD7FEA55
:1004F800645C1ABF194610467FEA655C1CBF0B4650
:10050800024650EA013406BF52EA033591EA030F66
:1005180041F4002130BD00BF90F0000F04BF00215E
:10052800704730B54FF4806404F132044FF0000591
:100538004FF0000150E700BF90F0000F04BF00210A
:10054800704730B54FF4806404F1320410F0004570
:1005580048BF40424FF000013EE700BF42004FEA6B
:10056800E2014FEA31014FEA02701FBF12F07F43E8
:1005780093F07F4F81F06051704732F07F4208BF9F
:10058800704793F07F4F04BF41F40021704730B5A6
:100598004FF4607401F0004521F000411CE700BFF2
:1005A80050EA010208BF704730B54FF000050AE075
:1005B80050EA010208BF704730B511F0004502D576
:1005C800404261EB41014FF4806404F132045FEA78
:1005D800915C3FF4D8AE4FF003025FEADC0C18BF21
:1005E80003325FEADC0C18BF033202EBDC02C2F113
:1005F800200300FA03FC20FA02F001FA03FE40EAA5
:100608000E0021FA02F11444BDE600BF70B54FF0A8
:10061800FF0C4CF4E06C1CEA11541DBF1CEA135586
:1006280094EA0C0F95EA0C0F00F0DEF82C4481EAEE
:10063800030621EA4C5123EA4C5350EA013518BF0E
:1006480052EA033541F4801143F4801338D0A0FBFB
:1006580002CE4FF00005E1FB02E506F00042E0FBA8
:1006680003E54FF00006E1FB03569CF0000F18BFAE
:100678004EF0010EA4F1FF04B6F5007F64F5407456
:1006880004D25FEA4E0E6D4146EB060642EAC621E9
:1006980041EA55514FEAC52040EA5E504FEACE2E56
:1006A800B4F1FD0C88BFBCF5E06F1ED8BEF1004F59
:1006B80008BF5FEA500E50F1000041EB045170BDD5
:1006C80006F0004646EA010140EA020081EA030119
:1006D800B4EB5C04C2BFD4EB0C0541EA045170BD15
:1006E80041F480114FF0000E013C00F3AB8014F18F
:1006F800360FDEBF002001F0004170BDC4F10004D8
:10070800203C35DA0C341BDC04F11404C4F1200558
:1007180000FA05F320FA04F001FA05F240EA0200B3
:1007280001F0004221F0004110EBD37021FA04F6E9
:1007380042EB06015EEA430E08BF20EAD37070BDA3
:10074800C4F10C04C4F1200500FA04F320FA05F002
:1007580001FA04F240EA020001F0004110EBD37004
:1007680041F100015EEA430E08BF20EAD37070BD74
:10077800C4F1200500FA05F24EEA020E20FA04F34D
:1007880001FA05F243EA020321FA04F001F00041FC
:1007980021FA04F220EA020000EBD3705EEA430E6D
:1007A80008BF20EAD37070BD94F0000F0FD101F09C
:1007B8000046400041EB010111F4801F08BF013CD5
:1007C800F7D041EA060195F0000F18BF704703F013
:1007D8000046520043EB030313F4801F08BF013D9A
:1007E800F7D043EA0603704794EA0C0F0CEA135556
:1007F80018BF95EA0C0F0CD050EA410618BF52EA10
:100808004306D1D181EA030101F000414FF0000015
:1008180070BD50EA410606BF1046194652EA430623
:1008280019D094EA0C0F02D150EA013613D195EA97
:100838000C0F05D152EA03361CBF104619460AD1DF
:1008480081EA030101F0004141F0FE4141F47001E9
:100858004FF0000070BD41F0FE4141F4780170BDD9
:1008680070B54FF0FF0C4CF4E06C1CEA11541DBF3E
:100878001CEA135594EA0C0F95EA0C0F00F0A7F840
:10088800A4EB050481EA030E52EA03354FEA01316D
:1008980000F088804FEA03334FF0805545EA131380
:1008A80043EA12634FEA022245EA111545EA106548
:1008B8004FEA00260EF000419D4208BF964244F1DF
:1008C800FD0404F5407402D25B084FEA3202B61AFE
:1008D80065EB03055B084FEA32024FF480104FF4D2
:1008E800002CB6EB020E75EB030E22BFB61A754646
:1008F80040EA0C005B084FEA3202B6EB020E75EBD9
:10090800030E22BFB61A754640EA5C005B084FEA40
:100918003202B6EB020E75EB030E22BFB61A75460D
:1009280040EA9C005B084FEA3202B6EB020E75EB18
:10093800030E22BFB61A754640EADC0055EA060ED9
:1009480018D04FEA051545EA16754FEA06164FEA1C
:10095800C30343EA52734FEAC2025FEA1C1CC0D1C8
:1009680011F4801F0BD141EA00014FF000004FF055
:10097800004CB6E711F4801F04BF01430020B4F116
:10098800FD0C88BFBCF5E06F3FF6AFAEB5EB030CCE
:1009980004BFB6EB020C5FEA500C50F1000041EBCB
:1009A800045170BD0EF0004E4EEA113114EB5C0498
:1009B800C2BFD4EB0C0541EA045170BD41F480116B
:1009C8004FF0000E013C90E645EA060E8DE60CEA73
:1009D800135594EA0C0F08BF95EA0C0F3FF43BAF90
:1009E80094EA0C0F0AD150EA01347FF434AF95EA47
:1009F8000C0F7FF425AF104619462CE795EA0C0F2B
:100A080006D152EA03353FF4FDAE1046194622E7F7
:100A180050EA410618BF52EA43067FF4C5AE50EAD1
:100A280041047FF40DAF52EA43057FF4EBAE12E7C1
:100A38004FF0FF3C06E000BF4FF0010C02E000BFA2
:100A48004FF0010C4DF804CD4FEA410C7FEA6C5C85
:100A58004FEA430C18BF7FEA6C5C1BD001B050EA28
:100A6800410C0CBF52EA430C91EA030F02BF90EA13
:100A7800020F0020704710F1000F91EA030F58BFD2
:100A8800994208BF90422CBFD8176FEAE37040F034
:100A9800010070474FEA410C7FEA6C5C02D150EAD2
:100AA800013C07D14FEA430C7FEA6C5CD6D152EA8D
:100AB800033CD3D05DF8040B704700BF8446104652
:100AC80062468C461946634600E000BF01B5FFF751
:100AD800B7FF002848BF10F1000F01BD4DF808ED21
:100AE800FFF7F4FF0CBF012000205DF808FB00BFF2
:100AF8004DF808EDFFF7EAFF34BF012000205DF84C
:100B080008FB00BF4DF808EDFFF7E0FF94BF012098
:100B180000205DF808FB00BF4DF808EDFFF7CEFF99
:100B280094BF012000205DF808FB00BF4DF808EDD8
:100B3800FFF7C4FF34BF012000205DF808FB00BFA9
:100B48004FEA410C7FEA6C5C02D150EA013C0AD1C1
:100B58004FEA430C7FEA6C5C02D152EA033C02D1B3
:100B68004FF0000070474FF0010070474FEA410214
:100B780012F5001215D211D56FF47873B3EB6252E7
:100B880012D94FEAC12343F0004343EA505311F00E
:100B9800004F23FA02F018BF404270474FF00000A0
:100BA800704750EA013005D111F0004008BF6FF0DE
:100BB800004070474FF00000704700BF4FEA410205
:100BC800B2F1E04324BFB3F5001CDCF1FE5C0DD9A3
:100BD80001F0004C4FEAC0024CEA5070B2F1004FED
:100BE80040EB830008BF20F00100704711F0804FF0
:100BF80021D113F13872BCBF01F00040704741F4B5
:100C080080114FEA5252C2F11802C2F1200C10FAB8
:100C18000CF320FA02F018BF40F001004FEAC1239C
:100C28004FEAD32303FA0CFC40EA0C0023FA02F340
:100C38004FEA4303CCE77FEA625307D150EA013316
:100C48001EBF4FF0FE4040F44000704701F00040E6
:100C580040F0FE4040F40000704700BF53B94AB965
:100C6800002908BF00281CBF4FF0FF314FF0FF30AC
:100C780000F0C6B9ADF1080C6DE904CE00F01AF821
:100C8800DDF804E0DDE9022304B07047430803F00F
:100C98005533C01A830800F0333003F03333184457
:100CA80000EB101000F00F3000EB002000EB0040CC
:100CB800000E70472DE9F04F8C46099E04460F46FA
:100CC800002B48D18A4215465ED9B2FA82F33BB16D
:100CD800C3F120029F409D409C4020FA02F2174336
:100CE8004FEA154E1FFA85FC220CB7FBFEF10EFBEE
:100CF800117701FB0CF042EA0742904207D9AA1883
:100D080001F1FF3702D2904200F258813946121A97
:100D1800A4B2B2FBFEF00EFB102200FB0CFC44EA6E
:100D28000244A4450BD92C1900F1FF322CBF01272E
:100D38000027A44502D9002F00F04381104640EA5D
:100D48000140A4EB0C0400211EB1DC400023C6E9DD
:100D58000043BDE8F08F8B4206D90EB1C6E9000109
:100D680000210846BDE8F08FB3FA83F1002951D17C
:100D78006345C0F01681824240F213810846002E76
:100D8800E7D0C6E90047E4E7002A00F0AF80B2FAEE
:100D980082F3002B40F0C2808A1A4FEA154EAFB298
:100DA8000121200CB2FBFEFC0EFB1C2240EA024291
:100DB80007FB0CF090420ED9AA180CF1FF382CBF93
:100DC8004FF001094FF00009904203D9B9F1000F23
:100DD80000F0F080C446121AA4B2B2FBFEF00EFB7B
:100DE800102200FB07F744EA0244A7420ED92C1947
:100DF80000F1FF322CBF4FF0010E4FF0000EA7425A
:100E080003D9BEF1000F00F0D2801046E41B40EA7F
:100E18000C4099E7C1F120058B400CFA01F400FA67
:100E280001F922FA05F72CFA05FC8A401F4320FA3B
:100E380005F3380C23431FFA87FE1C0CBCFBF0F8A3
:100E480000FB18CC44EA0C4408FB0EFCA4450ED960
:100E58003C1908F1FF3A2CBF4FF0010B4FF0000B83
:100E6800A44503D9BBF1000F00F0B880D046A4EB2D
:100E78000C041FFA83FCB4FBF0F300FB134403FBE0
:100E88000EFE4CEA0444A6450ED93C1903F1FF3086
:100E98002CBF4FF0010C4FF0000CA64503D9BCF154
:100EA800000F00F09F80034643EA0840A4EB0E04BD
:100EB800A0FB02EC64457346E04602D307D1F14536
:100EC80005D2BEEB02036CEB070C0138E0465EB1BD
:100ED800B9EB030264EB080404FA05F522FA01F3FE
:100EE800CC401D43C6E90054002132E742082F4692
:100EF8004B08AC4642EAC172AE46C407110C92B226
:100F080041EA034142EA0142B1FBF5F1B3FBF5F0D6
:100F18001F23A2EB0C0241EA004142E79D40C3F1C6
:100F2800200299409C402CFA02FC4FEA154E20FA08
:100F380002F2AFB2BCFBFEF80A430EFB18CC110C50
:100F480041EA0C4108FB07FC8C4550D9691808F1A7
:100F5800FF302CBF4FF001094FF000098C4502D932
:100F6800B9F1000F30D0A1EB0C01B1FBFEF808FB82
:100F780007FC0EFB181192B242EA0142624534D2D4
:100F8800AA1808F1FF312CBF4FF001094FF00009F2
:100F98006245BED2B9F1000FBBD1A8F102012A44C3
:100FA800B7E7841A6CEB030201201746E7E62C44E6
:100FB80002382BE7ACF1020C2A440CE702392A4428
:100FC800A5E62C440238BAE6A5EB0C0CA8F1020001
:100FD8006144B1FBFEF808FB07FCCAE7A8F1020868
:100FE8003C4444E7023B3C445EE7414691E7A1EBC1
:100FF8000C014046B1FBFEF808FB07FCB9E700BF4F
:10100800704700BF80B58EB008AF786039607B68E4
:10101800002B0BD10BF07CFC4549464B332246484C
:101028000BF0AAFD0BF074FC00BFFDE73B68002B3A
:101038000BD10BF06DFC3E493E4B34223E480BF081
:101048009BFD0BF065FC00BFFDE73C4B1B68002BCC
:101058000BD10BF05DFC3649364B352236480BF088
:101068008BFD0BF055FC00BFFDE700237B6156E0CC
:101078007B69DB00324A13443B61304B1868314BC3
:101088001A683B691B6801937B68009313462E4AD4
:10109800802178F03FFF3B695B68012B34D13B69C5
:1010A80018683B691B683A6912687968079127498B
:1010B8000691796805917968049103927A68029299
:1010C80001937B6800930346214A4FF48061386896
:1010D80078F020FF0346FB60FB68B3F5806F09D208
:1010E800164B1A68FB6800933B680121002001F049
:1010F8007BF80EE00E493B691B680093154B6E2286
:1011080015480BF039FD04E00C4B1B68184601F03C
:1011180019F90A2043F0F4F87B6901337B617B6994
:10112800002BA5DD00BF00BF1837BD4680BD00BF3E
:1011380070D7080888D708089CD70808E408002052
:1011480078500A0800000020A4D7080878D90808B1
:10115800C4D7080888D90808A4D9080880B590B069
:1011680008AF786039607B68002B0BD10BF0D0FB9F
:101178006349644B4A2264480BF0FEFC0BF0C8FB41
:1011880000BFFDE73B68002B0BD10BF0C1FB5C49AE
:101198005C4B4B225C480BF0EFFC0BF0B9FB00BF3B
:1011A800FDE75A4B1B68002B0BD10BF0B1FB5449E0
:1011B800544B4C2254480BF0DFFC0BF0A9FB00BF4A
:1011C800FDE7802046F004FCB861802046F000FC72
:1011D8007861BB69002B0BD10BF09AFB4849494B4E
:1011E800512249480BF0C8FC0BF092FB00BFFDE709
:1011F8007B69002B0BD10BF08BFB4149414B5222F1
:1012080041480BF0B9FC0BF083FB00BFFDE700235E
:10121800FB6167E0FB69DB003D4A13443B613B4BE4
:1012280018683C4B1A683B691B6801937B680093FC
:101238001346394A802178F06DFE3B695B68012BC3
:1012480045D13B691B6800937B68344A8021B869A3
:1012580078F060FE3B691B6800937B68304A802108
:10126800786978F057FE3B6919683B691B687A68AA
:1012780007922C4A06927A6805927A6804927A69EB
:101288000392BA69029201937B6800930B46264A3F
:101298004FF48061386878F03DFE0346FB60FB68D8
:1012A800B3F5806F09D2194B1A68FB6800933B6845
:1012B8000121002000F098FF0EE011493B691B68EE
:1012C80000931A4B9E221A480BF056FC04E00F4B71
:1012D8001B68184601F036F80A2043F011F8FB693C
:1012E8000133FB61FB69022B94DDB86946F0B6FC5B
:1012F800786946F0B3FC00BF2037BD4680BD00BF0B
:10130800FCD9080810DA080824DA0808E4080020DC
:1013180080500A08040000202CDA08084CDA080873
:1013280060DA080864DC080874DA080874DC08085D
:1013380090DC080880B58CB006AF786039607B68AF
:10134800002B0BD10BF0E4FA4249434B46224348A9
:101358000BF012FC0BF0DCFA00BFFDE73B68002B3A
:101368000BD10BF0D5FA3B493B4B47223B480BF0DE
:1013780003FC0BF0CDFA00BFFDE7394B1B68002BCF
:101388000BD10BF0C5FA3349334B482233480BF0E5
:10139800F3FB0BF0BDFA00BFFDE700237B6150E0D3
:1013A8007B691B012F4A13443B612D4B18682E4B58
:1013B8001A683B691B6801937B68009313462B4AA4
:1013C800802178F0A7FD3B69DB68012B2ED13B69B2
:1013D8005B683A699268796805912549049179684A
:1013E800039102920193234B00937B68224A4FF4A6
:1013F8008061386878F08EFD0346FB60FB68B3F5C2
:10140800806F09D2164B1A68FB6800933B6801216C
:10141800002000F0E9FE0EE00E493B691B680093CE
:10142800164B7B2216480BF0A7FB04E00C4B1B68FD
:10143800184600F087FF0A2042F062FF7B690133FB
:101448007B617B69032BABDD00BF00BF1837BD464E
:1014580080BD00BFF4DC080808DD08081CDD0808AA
:10146800E408002098500A080800002024DD080835
:10147800F4DD080804DE080844DD080810DE080862
:1014880030DE080880B5A4B00CAF786039607B689E
:10149800002B0BD10BF03CFA6C496D4B33226D4895
:1014A8000BF06AFB0BF034FA00BFFDE73B68002B3A
:1014B8000BD10BF02DFA6549654B342265480BF0CA
:1014C8005BFB0BF025FA00BFFDE7634B1B68002BA5
:1014D8000BD10BF01DFA5D495D4B35225D480BF0D1
:1014E8004BFB0BF015FA00BFFDE7802046F070FAC1
:1014F800B865802046F06CFA7865BB6D002B0BD17F
:101508000BF006FA5149524B3C2252480BF034FB7F
:101518000BF0FEF900BFFDE77B6D002B0BD10BF044
:10152800F7F94A494A4B3D224A480BF025FB0BF094
:10153800EFF900BFFDE70023FB657AE0FB6DDB00F8
:10154800464A13443B65444B1868454B1A683B6D43
:101558001B6801937B6800931346424A802178F008
:10156800D9FC3B6D5B68012B58D17B683E4A8021D2
:10157800B86D78F0CFFC7B683C4A8021786D78F0B4
:10158800C9FC3B6D1B6807F12C00394A202178F013
:10159800C1FC3B6D1B6807F10C00364A202178F02E
:1015A800B9FC3B6D18683B6D1B683A6D1268796829
:1015B8000A9131490991796808917968079107F189
:1015C8000C01069107F12C01059104927A6D0392A2
:1015D800BA6D029201937B6800930346274A4FF441
:1015E8008061386878F096FC0346FB64FB6CB3F5C1
:1015F800806F09D2184B1A68FB6C00933B68012175
:10160800002000F0F1FD0EE010493B6D1B680093CF
:101618001B4B88221B480BF0AFFA04E00E4B1B68EB
:10162800184600F08FFE0A2042F06AFEFB6D013377
:10163800FB65FB6D012B81DDB86D46F00FFB786D06
:1016480046F00CFB00BF6037BD4680BD6CDE080865
:1016580080DE080894DE0808E4080020D8500A084C
:101668000C0000209CDE0808BCDE0808CCDE080858
:10167800DCDE0808E4DE0808A4E00808ECDE080858
:10168800B4E00808D0E0080880B592B00AAF7860E6
:1016980039607B68002B0BD10BF03AF94149424B7A
:1016A8002E2242480BF068FA0BF032F900BFFDE732
:1016B8003B68002B0BD10BF02BF93A493A4B2F2200
:1016C8003A480BF059FA0BF023F900BFFDE7384B05
:1016D8001B68002B0BD10BF01BF93249324B30221F
:1016E80032480BF049FA0BF013F900BFFDE707F198
:1016F800080300221A605A609A60DA601A742D4B47
:10170800DB7819462B4B9B781A462A4B1B8807F126
:101718000800019300920B46274A112178F0FAFB42
:10172800234B1868254B1A687B6800931346244A94
:10173800802178F0EFFB07F1080308937B68079393
:10174800204B06937B6805937B6804937B6803931F
:101758007B6802937B6801937B6800937B681A4AD5
:101768004FF48061386878F0D5FB0346FB61FB696C
:10177800B3F5806F09D20E4B1A68FB6900933B687A
:101788000121002000F030FD05E006490F4B7222D0
:101798000F480BF0F1F90A2042F0B2FD00BF2037E4
:1017A800BD4680BDF8E008080CE1080820E10808FB
:1017B800E4080020EC530A0848E10808100000205B
:1017C80028E10808F0E3080854E1080800E40808DC
:1017D80024E4080880B483B000AF0346FB71FB79AA
:1017E800022B0AD0022B0ADC002B02D0012B02D0DC
:1017F80005E0064B04E0064B02E0064B00E0064B12
:1018080018460C37BD465DF8047B704728E4080885
:1018180030E408083CE4080848E40808F0B5BFB01C
:1018280006AFF860B9607A60FB7007F114007B6856
:101838002A4A402178F06EFBC7F8DC00D7F8DC3084
:10184800002B03DBD7F8DC303F2B01D9012340E024
:10185800FB781846FFF7BEFFC7F8D800FB7B9C460D
:10186800BB7B1A46BB891946FB7A1C46BB7A1D46C8
:101878003B891E4607F15400D7F8D83005930496E3
:1018880003950294019100926346154A802178F0ED
:1018980041FBC7F8DC00D7F8DC30002B03DBD7F8B6
:1018A800DC307F2B01D9012313E0D7F8DC3007F1B6
:1018B800540107F1140200930B460121012000F0A6
:1018C80093FC034687F8D7300A2042F019FD97F8B1
:1018D800D7301846E437BD46F0BD00BF50E40808CD
:1018E8005CE40808F0B5CDB006AF07F58C74A4F534
:1018F8008674206007F58C70A0F58870016007F584
:101908008C71A1F58A710A6007F58C72A2F58C7248
:10191800136007F58C73A3F58A7307F110001B6831
:10192800354A402178F0F6FAC7F81401D7F814318F
:10193800002B03DBD7F814313F2B01D9012355E0E5
:1019480007F58C73A3F58673DB789C4607F58C73D3
:10195800A3F586739B781A4607F58C73A3F58673EF
:101968001B88194607F58C73A3F58873DB781C462A
:1019780007F58C73A3F588739B781D4607F58C7360
:10198800A3F588731B881E4607F58C73A3F58C7323
:101998001B6807F150000593049603950294019182
:1019A80000926346154AC02178F0B4FAC7F81401CA
:1019B800D7F81431002B03DBD7F81431BF2B01D92A
:1019C800012313E0D7F8143107F1500107F1100291
:1019D80000930B460121012000F006FC034687F81E
:1019E80013310A2042F08CFC97F81331184607F59A
:1019F8008E77BD46F0BD00BF50E40808ACE4080887
:101A080080B58CB000AF786039603B68002B3BD064
:101A18003B68DB68002B37D03B681B69002B33D051
:101A28003B68DB68FB6207F10803202200211846A7
:101A380078F011FC3B681B691F2B28BF1F23BB6272
:101A480007F10803BA6AF96A184678F02EFE07F11A
:101A58000802BB6A134400221A7007F108030C49F4
:101A68001846FEF705FC0346002B0ED109490A4B20
:101A78004FF4837209480BF07FF8094B1B68022169
:101A8800184640F0F1FA00E000BF3037BD4680BD8F
:101A980030E50808F8E0080840E508085CE50808AB
:101AA800E808002080B58AB002AF78607B687B6167
:101AB8000023FB614FF0FF33BB613549354B40F2E2
:101AC800131235480BF058F8344B1B6800211846A0
:101AD80040F088FA38613B6903F00403002B04D115
:101AE8003B6903F00803002B09D029492C4B4FF41C
:101AF8008E7229480BF040F8002042F06DFB294B0C
:101B08001B68002B40D00023BB60264B1B6807F1E5
:101B180008010022184641F021F80346012B33D171
:101B2800FB69002B04D1BB68002B01D0BB68FB61AB
:101B3800FB69002B28D0BB68FA699A4224D3BB689A
:101B4800642203FB02F2FB69B2FBF3F3C3F1640303
:101B5800FB60FA68BB699A4216D0FB68BB610C4906
:101B6800BB680193FB6800930F4B4FF49B720A48C4
:101B78000BF002F8BB680D490D480093FB687A69C1
:101B880009680068FFF7AEFEC82042F0B9FB9BE782
:101B9800F8E0080860E508085CE50808E80800209F
:101BA8007CE5080854AA002098E50808DC0800200D
:101BB800EC530A0880B58EB002AF786039603B6894
:101BC800002B4DD03B68DB68002B49D03B681B6974
:101BD800002B45D03B68DB68FB6207F10803202235
:101BE8000021184678F037FB3B681B691F2B28BF7C
:101BF8001F23BB6207F10803BA6AF96A184678F02E
:101C080054FD07F10802BB6A134400221A7007F159
:101C1800080315491846FEF72BFB0346002B08D08E
:101C280007F108031149184678F00AFC0346002B0F
:101C38000CD00F490F4B23220F480AF09DFF0F4B82
:101C48001B681021184640F00FFA0AE0084907F10E
:101C5800080300930A4B28220A480AF08DFF00E087
:101C680000BF3037BD4680BDCCE50808D4E508087C
:101C7800FCE5080810E608084CE60808E808002013
:101C880050E6080874E6080880B58AB006AF7860A0
:101C980039607B68002B0BD10AF03AFE3149324B90
:101CA8002E2232480AF068FF0AF032FE00BFFDE734
:101CB8003B68002B0BD10AF02BFE2A492A4B2F2216
:101CC8002A480AF059FF0AF023FE00BFFDE7284B17
:101CD8001B68002B0BD10AF01BFE2249224B302235
:101CE80022480AF049FF0AF013FE00BFFDE7204B27
:101CF8001868204B1A687B68009313461E4A802197
:101D080078F008F97B6805937B6804931B4B039371
:101D18007B6802937B6801937B6800937B68184A11
:101D28004FF48061386878F0F5F80346FB60FB688B
:101D3800B3F5806F09D20E4B1A68FB6800933B68B5
:101D48000121002000F050FA05E006490D4B5F2202
:101D58000D480AF011FF0A2042F0D2FA00BF1037EE
:101D6800BD4680BDFCE5080878E608088CE608084A
:101D7800E40800201400002094E6080828E8080871
:101D8800B8E6080838E8080858E80808F0B58FB039
:101D98000AAF786039607B68002B0BD10AF0B8FD78
:101DA8005C495D4B61225D480AF0E6FE0AF0B0FD31
:101DB80000BFFDE73B68002B0BD10AF0A9FD554990
:101DC800554B622255480AF0D7FE0AF0A1FD00BF24
:101DD800FDE7534B1B68002B0BD10AF099FD4D49C9
:101DE8004D4B63224D480AF0C7FE0AF091FD00BF33
:101DF800FDE70023FB6084E0494B1868494B1968EC
:101E0800494CFA6813469B0013449B0023441B6803
:101E180001937B6800930B46444A802178F07AF856
:101E28004149FA6813469B0013449B000B44103346
:101E38001B68012B5AD13C49FA6813469B0013448E
:101E48009B000B4404331D683749FA6813469B000E
:101E580013449B000B4419683348FA6813469B00E7
:101E680013449B00034418682F4CFA6813469B00E0
:101E780013449B00234408331C682B4EFA6813460E
:101E88009B0013449B0033440C331B687A68099207
:101E9800274A08927A6807927A680692059304940A
:101EA80003907B68029301917B6800932B46214A3B
:101EB8004FF48061386878F02DF80346BB60BB6842
:101EC800B3F5806F09D2164B1A68BB6800933B685C
:101ED8000121002000F088F90DE00E49FB6800930D
:101EE800154B9B2215480AF047FE04E00C4B1B6873
:101EF800184600F027FA0A2042F002FAFB6801337C
:101F0800FB60FB68052B7FF777AF00BF00BF143776
:101F1800BD46F0BDFCE9080814EA080828EA0808E4
:101F2800E408002018000020E8500A0830EA0808F1
:101F3800D0EB080850EA0808E0EB080800EC0808AD
:101F4800B0B588B004AF78607B68002B0BD10AF07D
:101F5800DFFC2749274BAF2227480AF00DFE0AF07D
:101F6800D7FC00BFFDE7254B1B68002B0BD10AF0FF
:101F7800CFFC1F491F4BB0221F480AF0FDFD0AF095
:101F8800C7FC00BFFDE70023FB6028E01B4B186877
:101F98001B4B1C681B49FA6813469B0013449B00A3
:101FA8000B441968174DFA6813469B0013449B00AD
:101FB8002B440C331B68029301917B6800932346E2
:101FC800114A802177F0A6FF0C4B1B68184600F0D9
:101FD800B9F90A2042F094F9FB680133FB60FB6809
:101FE800082BD3DD00BF00BF1037BD46B0BD00BF12
:101FF800FCE9080814EA080828EA0808E4080020A8
:102008001800002060510A0804EC080890B587B051
:1020180002AF78607B68002B0CD10AF079FC234969
:10202800234B40F2171223480AF0A6FD0AF070FC71
:1020380000BFFDE7204B1B68002B0CD10AF068FCA1
:102048001A491B4B4FF48C721A480AF095FD0AF096
:102058005FFC00BFFDE70023FB601EE0164B18681D
:10206800164B1968164CFA6813469B0013449B00DC
:1020780023441B6801937B6800930B46114A802117
:1020880077F048FF0C4B1B68184600F05BF90A20F4
:1020980042F036F9FB680133FB60FB68002BDDDD9D
:1020A80000BF00BF1437BD4690BD00BFFCE908085B
:1020B80014EA080828EA0808E408002018000020A4
:1020C80014520A0830EA080880B584B002AF786074
:1020D80039607B68002B11D07B681B68002B0DD002
:1020E8003B68002B0AD07B6818683B681B781A4647
:1020F800002300930323002144F000F900BF0837B0
:10210800BD4680BD80B483B000AF7860044A7B6868
:10211800136000BF0C37BD465DF8047B704700BFF5
:10212800E00800202DE9B04F82B000AF18F014FB92
:1021380002462A4BA3FB02139B0D294901FB03F31B
:10214800D31AA3F55B13A3F53A533B603A68254BC2
:1021580013447B607B68002B01DC01237B607B6878
:1021680000229846914642464B464FF000004FF0F9
:102178000001590141EAD261500102460B46B2EB17
:10218800080463EB09054FF000024FF00003AB00B1
:1021980043EA9473A20014461D4614EB080A45EB63
:1021A800090B4FF000024FF000034FEACB0343EA5C
:1021B8005A734FEACA0292469B46504659464FF414
:1021C8007A724FF00003FEF749FD02460B461346AC
:1021D80018460837BD46BDE8B08F00BFB17C2195D1
:1021E80000DD6D00005C260580B594B002AFBA60D2
:1021F8007B600346FB730B46BB73BB68002B0BD19C
:102208000AF086FB4A494B4B58224B480AF0B4FC6B
:102218000AF07EFB00BFFDE7484B1B68002B0BD183
:102228000AF076FB4249434B592243480AF0A4FC82
:102238000AF06EFB00BFFDE707F1280300221A60D1
:102248005A609A60DA601A6107F1200300221A6066
:102258005A6007F1140300221A605A609A60012339
:1022680087F847300021002044F0E0FBFB7B87F82B
:102278002830BB7B87F82930BB68FB62B868FEF75B
:1022880001F803469BB23B867B687B633B6DBB636F
:1022980043F0C6FC03463B624FF4FA73FB61284BDC
:1022A8007B6107F12003BB6100233B6435E0234BCE
:1022B8001B6807F1140207F12801184676F05BFA4B
:1022C800034687F8473097F84730002B1BD1002387
:1022D8003B6107F1100341F288320092002200218D
:1022E800002043F06BFFF863FB6B012B08D13B69BF
:1022F800002B01D1002300E0032387F8473002E0D8
:10230800032387F8473097F84730002B09D0FA2085
:1023180041F0F6FF3B6C01333B643B6C042BC6D9A0
:1023280000E000BF97F8473018464837BD4680BDE3
:1023380044EC080854EC080868EC0808E008002099
:10234800D120010880B584B002AF78607B68002B8B
:102358000BD10AF0DDFA0B490B4B96220B480AF019
:102368000BFC0AF0D5FA00BFFDE700230093002319
:102378007A6801210020FFF737FF0346184608371F
:10238800BD4680BD44EC080854EC080868EC080811
:1023980080B58CB004AFF860B9607A603B60012307
:1023A800FB61FB68002B0BD10AF0B2FA4749484B96
:1023B800A72248480AF0E0FB0AF0AAFA00BFFDE7A6
:1023C800BB68002B0BD10AF0A3FA4049404BA82266
:1023D80040480AF0D1FB0AF09BFA00BFFDE73B68D2
:1023E800002B0BD10AF094FA3849394BA922394805
:1023F8000AF0C2FB0AF08CFA00BFFDE7364B1B68F7
:10240800002B0BD10AF084FA3049314BAA2231480B
:102418000AF0B2FB0AF07CFA00BFFDE7802045F025
:10242800D7FAB861BB69002B0BD10AF071FA2749BA
:10243800274BAD2227480AF09FFB0AF069FA00BF34
:10244800FDE7BB680093FB68244A8021B86977F0F0
:1024580061FD78617B69002B02DB7B697F2B0DDDD9
:102468001A49BB680293FB6801933B6800931C4BB5
:10247800B7221C480AF080FB0023FB61FB69012B93
:1024880019D1154B1868002300937B680022B9699D
:1024980004F058FC0346FB74FB7C002B0BD00B4963
:1024A800BB6901933B6800930F4BC8220D480AF0A3
:1024B80063FB0023FB610A2041F022FFB86945F065
:1024C800CDFBFB6918462037BD4680BD44EC0808A3
:1024D80054EC080868EC0808E008002070EC0808CC
:1024E80078EC0808A8EC0808ACEC080880B586B0B9
:1024F80002AF786039600123FB607B68002B0BD149
:102508000AF006FA2449254BDC2225480AF034FB58
:102518000AF0FEF900BFFDE73B68002B0BD10AF07B
:10252800F7F91D491D4BDD221D480AF025FB0AF06D
:10253800EFF900BFFDE71B4B1B68002B0BD10AF01E
:10254800E7F91549154BDE2215480AF015FB0AF084
:10255800DFF900BFFDE7134B1868002300933B68C1
:102568000022796804F0EEFB0346FB72FB7A002B2D
:1025780009D009497B6800930B4BE8220B480AF005
:10258800FBFA0023FB600A2041F0BAFEFB681846FC
:102598001037BD4680BD00BF44EC080854EC08085D
:1025A80068EC0808E0080020D0EC0808A8EC080847
:1025B80080B588B002AFF860B9607A60FB68002B1C
:1025C8000BD10AF0A5F93549354BF82235480AF000
:1025D800D3FA0AF09DF900BFFDE7BB68002B0BD1C9
:1025E8000AF096F92D492E4BF9222E480AF0C4FA22
:1025F8000AF08EF900BFFDE77B68002B0BD10AF0CB
:1026080087F92649264BFA2226480AF0B5FA0AF035
:102618007FF900BFFDE7244B1B68002B0BD10AF0A4
:1026280077F91E491E4BFB221E480AF0A5FA0AF04C
:102638006FF900BFFDE71C4B1868FB681B4A802137
:1026480077F068FC40F2FF327968B86877F07FFE6F
:10265800BB6803F2FF3300221A70B868FDF712FE58
:1026680078617B69B3F5806F09D20F4B1A687B6973
:102678000093BB6801210020FFF7B6FD06E007497B
:102688000B4B4FF489720B480AF076FA0A2041F096
:1026980037FE00BF1837BD4680BD00BF44EC0808B0
:1026A80054EC080868EC0808E4080020F4EC080872
:1026B8000CED0808A8EC080880B588B000AF786071
:1026C80039603B68002B3AD03B68DB68002B36D07A
:1026D8003B681B69002B32D03B68DB68FB6107F164
:1026E800080300221A605A609A60DA603B681B6926
:1026F8000F2B28BF0F23BB6107F10803BA69F969DB
:10270800184677F0D2FF07F10802BB69134400228C
:102718001A7007F108030C491846FDF7A9FD03468E
:10272800002B0DD109490A4B4D220A480AF024FA18
:10273800094B1B68202118463FF096FC00E000BFBB
:102748002037BD4680BD00BF34ED080858ED0808A5
:1027580064ED0808A0ED0808E808002080B582B0FC
:1027680000AF786039607B68002B0BD10AF0D0F895
:102778002A492B4B5D222B480AF0FEF90AF0C8F8CB
:1027880000BFFDE73B68002B0BD10AF0C1F82349D5
:10279800234B5E2223480AF0EFF90AF0B9F800BF8C
:1027A800FDE739687868FEF76FFF39687868FEF7E3
:1027B80069FE39687868FEF725FC39687868FFF79C
:1027C800E5FA7868FFF7BCFB7868FFF71FFC396803
:1027D8007868FEF7C3FC39687868FEF7ABFD39689E
:1027E8007868FFF751FA4FF47A7041F089FD0E4985
:1027F8000D4802237A6809680068FFF70FF80B4A4A
:1028080039687868FFF7D4FE0449094BA1220948C2
:102818000AF0B2F900BF0837BD4680BD58ED080878
:10282800A4ED0808B8ED0808EC530A0834ED0808C8
:10283800C0ED0808A0ED080890B58BB002AF78602D
:102848000023BB600023FB6102F04EFD03F04AFD4C
:10285800B861BB69002B0BD10AF05AF8A049A14B0B
:10286800B522A1480AF088F90AF052F800BFFDE73E
:1028780002F076FDB869FFF745FC07F10803194631
:1028880000200DF0B9FF78617B69002B0BD10AF0AD
:102898003FF89349934BBE2293480AF06DF90AF02A
:1028A80037F800BFFDE74FF4806045F091F83861D4
:1028B8003B69002B0BD10AF02BF88949894BC122BF
:1028C80089480AF059F90AF023F800BFFDE780208B
:1028D80045F07EF80346854A1360844B1B68002B3D
:1028E8000BD10AF015F87E497E4BC4227E480AF0C7
:1028F80043F90AF00DF800BFFDE779497B690093B9
:102908007B4BC6227B480AF037F93FF07DFA034635
:10291800794A1360784B1B68002B0BD109F0F8FF3C
:102928006F49704BC92270480AF026F909F0F0FF88
:1029380000BFFDE7714B724A72497869FFF728FDBD
:10294800714B724A72497869FFF722FD71497248E2
:10295800FFF7CCFD39697869FFF700FF664B1C6803
:10296800FFF7E0FB03460093002301223F212046A6
:102978003FF064FAF860FB6803F00103002B0DD008
:102988005749664BF5225B480AF0F6F864496548F2
:1029980000237A6909680068FEF740FFFB6803F0C6
:1029A8000203002B1AD04E495F4BFB2251480AF014
:1029B800E3F80123FB615A495A4801237A690968F7
:1029C8000068FEF72BFF00230193022300937B6925
:1029D8004FF480625549564841F092FAFB6803F07B
:1029E8000403002B11D03E49524B40F20B124148D0
:1029F8000AF0C2F83A49504B4FF486723D480AF043
:102A0800BBF80023FB610FF0ABFDFB6803F0080384
:102A1800002B0CD03249494B4FF48A7235480AF0E2
:102A2800ABF80023FB6139697869FFF797FEFB680B
:102A380003F01003002B1CD0FB69012B07D1284998
:102A48003F4B4FF490722B480AF096F847E0244920
:102A58003C4B4FF4927227480AF08EF83A4A39698B
:102A68007869FFF7A5FD4FF47A7041F049FC0FF043
:102A780077FDFB6803F02003002B03D1FB68002BD4
:102A88007FF46CAFFB69012B07D115492F4B40F23E
:102A98002F1218480AF070F821E017F05DFE024680
:102AA8002B4BA3FB0213DB0B2A4901FB03F3D31ABD
:102AB800184641F025FC0A49FB6803F02003002B67
:102AC80001D0254B00E0254B0093254B4FF49B721A
:102AD80008480AF051F839697869FFF73FFE3DE781
:102AE80058ED0808A4ED0808B8ED0808E408002027
:102AF800ECED0808A0ED0808E808002030EE08080A
:102B0800091A01083CEE080848EE0808BD1B010830
:102B180058EE0808C126010864EE08087CEE08088B
:102B2800DC080020EC530A0894EE0808B0EE080808
:102B3800AD1A0108C0EE0808D8EE080804EF080826
:102B480020EF08084CEF08085CEF080864EF080855
:102B580073B2E745C0D4010094EF0808A0EF080855
:102B6800ACEF080880B584B000AF78600023FB6044
:102B78007B68002B0CD109F0CBFE1449144B40F2B2
:102B8800D512144809F0F8FF09F0C2FE00BFFDE7AE
:102B98007B6842F60C220021184677F05CFB012086
:102BA8003FF0D1FD02467B6803F50053C3F80C2AB9
:102BB8007B6803F50053D3F80C3A002B01D00123AE
:102BC800FB60FB6818461037BD4680BD92F00808C8
:102BD800A4F00808B8F0080880B582B000AF7860A3
:102BE80039607B68002B0CD109F092FE1849194B0B
:102BF8004FF4F472184809F0BFFF09F089FE00BFCE
:102C0800FDE77B6803F50053D3F80C3A4FF0FF312A
:102C1800184640F081F80346012B0ED13B6800228C
:102C280083F8002E7B6803F50053D3F80C0A0023C1
:102C3800002200213FF0EAFD06E00549074B40F27B
:102C4800F112074809F098FF00BF0837BD4680BD5C
:102C580092F00808A4F00808B8F00808C0F00808BE
:102C6800E0F0080880B584B000AF78600023FB600E
:102C78000023BB607B68002B0CD109F049FE2D496D
:102C88002D4B4FF4FE722D4809F076FF09F040FEF7
:102C980000BFFDE77B6803F50053D3F80C3A4FF00B
:102CA800FF31184640F038F80346012B36D100238F
:102CB800FB6025E07A68FB6840F6046101FB03F3DA
:102CC800134403F560631B7883F00103DBB2002B28
:102CD80013D07A68FB6840F6046101FB03F31344E0
:102CE80003F5606301221A70FB6840F6046202FB78
:102CF80003F37A681344BB6005E0FB680133FB60AB
:102D0800FB68022BD6D97B6803F50053D3F80C0A6D
:102D18000023002200213FF079FD06E00549084B19
:102D280040F20E22074809F027FFBB681846103703
:102D3800BD4680BD92F00808A4F00808B8F008085D
:102D4800C0F00808E0F0080880B582B000AF7860ED
:102D580078686FF0A9FE002041F03EFA00BF0837FE
:102D6800BD4680BD80B586B002AF03463960FB71B1
:102D78000123FB73FB79072B73D801A252F823F0C8
:102D8800A92D0108CF2D0108DF2D0108212E0108EA
:102D98004B2E01086B2E01086B2E01085B2E0108D3
:102DA8003749384B40F2DE22374809F0E5FE70F02B
:102DB800D9F80346FB733249344B40F2EB223448CE
:102DC80009F0DAFE57E02E49324B40F2F3222E4842
:102DD80009F0D2FE4FE02A492F4B40F2FF222A4841
:102DE80009F0CAFE022070F0F9F80346FB73FB7B7A
:102DF800002B07D12249294B40F22632224809F0FC
:102E0800BBFE38E01E49FB7B0093254B40F22A327B
:102E18001F4809F0B1FE2EE03B68002B0CD109F0E9
:102E280077FD17491F4B40F232321F4809F0A4FEC4
:102E380009F06EFD00BFFDE739681C48FFF7CCFEBE
:102E480019E00F491A4B4FF44F72114809F094FEDC
:102E580011E00B49174B4FF450720B4809F08CFEE8
:102E680009E00749FB790093134B4FF4517213485B
:102E780009F082FE00BF00BF1037BD4680BD00BF0D
:102E880092F00808E4F008081CF1080820F1080886
:102E9800E0F0080840F108087CF10808B4F10808D7
:102EA800E8F10808A4F00808B8F00808F4130020AE
:102EB80020F2080860F2080874F20808B4F208085A
:102EC80080B588B002AF7860396000237B6107F174
:102ED800080300221A605A603B68002B0CD109F0E5
:102EE80017FD3349334B40F25532334809F044FE5D
:102EF80009F00EFD00BFFDE73B6858683B681B8979
:102F080019462E4B1A682E4B1B6800F053F978614E
:102F18007B69012B39D13B681B6940F6FA52934211
:102F280025D82848FFF79EFE38613B69002B16D04C
:102F380038693B68D9683B681B691A4677F0B5FB66
:102F48003B681A693B69C3F8FC2D06233B733B6950
:102F5800BB6007F1080318466FF0CEFD23E0144963
:102F6800194B40F27132194809F006FE1BE010496E
:102F78003B681B6940F6FA5201920093144B40F2E9
:102F88007632124809F0F8FD0DE009493B681B89C3
:102F98001A463B685B68019300920E4B40F27D3203
:102FA8000D4809F0E9FD00BF1837BD4680BD00BFD8
:102FB80092F00808A4F00808B8F00808043E0020B9
:102FC800083E0020F4130020B8F20808E0F00808D2
:102FD800E0F208082CF30808B4F20808F0B589B044
:102FE80002AF7860396007F1080300221A605A605E
:102FF80000237B613B68002B0CD109F089FC444914
:10300800444B40F28D32444809F0B6FD09F080FC8B
:1030180000BFFDE7414B1B68002B0CD109F078FC81
:103028003B493C4B40F28E323B4809F0A5FD09F084
:103038006FFC00BFFDE73B685C683B681B891E4668
:10304800364B1D68354B1B681846FDF71BF90346C0
:103058002A463146204600F0ADF878617B69012B9D
:1030680043D13B681B6940F6FA5293422FD828494E
:103078003B681B6900932A4B40F29932294809F0B2
:103088007BFD2948FFF7EEFD38613B69002B16D020
:1030980038693B68D9683B681B691A4677F005FBB5
:1030A8003B681A693B69C3F8FC2D03233B733B69F2
:1030B800BB6007F1080318466FF01EFD23E01449B2
:1030C8001A4B4FF46A721A4809F056FD1BE0104972
:1030D8003B681B6940F6FA5201920093154B40F287
:1030E800AD32134809F048FD0DE009493B681B89DA
:1030F8001A463B685B68019300920F4B40F2B2326C
:103108000E4809F039FD00BF1C37BD46F0BD00BFB1
:1031180092F00808A4F00808B8F00808043E002057
:1031280084F308081CF10808F4130020B8F2080812
:10313800E0F00808ACF3080804F40808B4F208083A
:1031480080B586B002AF786039600023FB72002337
:10315800FB603B6899B207F10B0300931423114AF3
:10316800786835F08FFCFB7A002B01D00E4BFB60A2
:10317800FB7A83F00103DBB2002B0ED03B6899B2D7
:1031880007F10B0300931723084A786835F07AFC97
:10319800FB7A002B01D0064BFB60FB681846103702
:1031A800BD4680BD5CF40808E52F010874F40808E2
:1031B800C92E010880B489B000AFF860B9607A60A0
:1031C8003B600023FB6100237B610C23BB611CE097
:1031D8007A693B689A4208D1FA68BB6913441B783C
:1031E8002F2B17D10123FB6114E07A687B69134404
:1031F8001A78F968BB690B441B789A420CD17B6931
:1032080001337B61BB690133BB61BA69BB689A4210
:10321800DED302E000BF00E000BFFB691846243798
:10322800BD465DF8047B704780B584B002AF786016
:1032380039607B68002B0CD109F06AFB1D491E4BD5
:1032480040F207421D4809F097FC09F061FB00BFF6
:10325800FDE77B681B68002B0CD109F059FB154969
:10326800154B4FF48162154809F086FC09F050FBB4
:1032780000BFFDE73B68002B0CD109F049FB0D4965
:103288000D4B40F209420D4809F076FC09F040FB6D
:1032980000BFFDE77B6818683B681B781A46002367
:1032A80000930323002143F029F800BF0837BD46E7
:1032B80080BD00BF92F00808A4F00808B8F008081C
:1032C80080B588B002AF78600B467B8013467B7070
:1032D8000023FB7500233B617B68002B0CD109F0B0
:1032E80017FB2C492C4B40F21A422C4809F044FC9D
:1032F80009F00EFB00BFFDE77B88002B0CD109F01D
:1033080007FB2449244B40F21B42244809F034FCB3
:1033180009F0FEFA00BFFDE77B8819467868FFF7D9
:103328000FFFF86002F0DEFF38613B69002B02D026
:10333800FB68002B02D1A123FB7525E07A780023D6
:103348000093FB687968386903F0FCFC0346FB725C
:10335800FB7A002B0BD00F49FB7A0093104B4FF4EC
:103368008662104809F008FCA123FB750CE00949A6
:103378007B887A68019200930B4B40F237420B48E6
:1033880009F0FAFB0023FB75FB7D18461837BD468C
:1033980080BD00BF92F00808A4F00808B8F008083B
:1033A8008CF40808E0F00808BCF408081CF10808C8
:1033B80080B594B002AFF8607A603B600B467B81C1
:1033C800002387F84730012387F8463007F12803A0
:1033D80000221A605A609A60DA601A6107F11C03C9
:1033E80000221A605A609A600023BB6100237B6147
:1033F80000233B64FB68FB627B893B8697F850306F
:1034080087F828307B687B633B68BB63002100201A
:1034180043F00CFB42F004FC03467B6142F210735C
:103428007B622D4BFB6107F114033B6202F05AFFEC
:1034380038643B6C002B03D1A02387F8473044E065
:1034480007F11C0207F128031946386C75F093F947
:10345800034687F8463097F84630002B15D107F118
:10346800180342F2107200924FF0FF320021002040
:1034780042F0A4FEF863FB6B012B03D0032387F80B
:10348800463002E0BB6987F8463097F84630002B93
:103498000DD0124997F846300093114B40F27D4207
:1034A800104809F069FBA02387F847300DE00B4965
:1034B8007B89FA68019200930B4B40F282420B48D9
:1034C80009F05AFB002387F8473097F84730184629
:1034D8004837BD4680BD00BF3132010892F0080868
:1034E800D8F40808E0F0080814F508081CF10808E2
:1034F80080B58AB004AF78600B467B8013467B703A
:103508000023FB7500233B617B68002B0CD109F07D
:10351800FFF92D492D4B40F296422D4809F02CFB1E
:1035280009F0F6F900BFFDE77B88002B0CD109F004
:10353800EFF92549254B40F29742254809F01CFB35
:1035480009F0E6F900BFFDE77B8819467868FFF7C0
:10355800F7FDF86002F0C6FE38613B69002B02D027
:10356800FB68002B02D1A223FB7527E00023FA6831
:103578007968386903F038FE0346FB72FB7A002B42
:103588000FD011497B88FA7A02927A6801920093E7
:10359800104B40F2AB42104809F0EEFAA223FB753B
:1035A8000CE009497B887A68019200930B4B40F242
:1035B800B4420B4809F0E0FA0023FB75FB7D18467E
:1035C8001837BD4680BD00BF92F00808A4F008086F
:1035D800B8F0080844F50808E0F008087CF5080881
:1035E8001CF1080880B582B000AF78607B68002BBA
:1035F8000CD109F08DF92549254B40F2C3422548E5
:1036080009F0BAFA09F084F900BFFDE77B68224A9D
:103618001A607B68214A5A607B68214A9A607B68F5
:10362800204ADA607B68204A5A617B681F4A9A619F
:103638007B681F4ADA617B681E4A1A627B681E4AE9
:103648005A627B681D4A9A627B681D4A1A637B68C6
:103658001C4ADA627B681C4ADA657B681B4A9A65F1
:103668007B681B4ADA647B681A4A1A657B681A4ABF
:103678009A647B68194A5A657B68194A1A647B6898
:10368800184A5A6400BF0837BD4680BD92F0080842
:10369800A4F00808B8F00808B9520808195308082F
:1036A8007153080835540808E1540808A556080855
:1036B80031570808CD570808E5570808C9320108E6
:1036C800B9330108F934010801BC0208D1B902086C
:1036D80059B5020805B8020889B60208CDBC020827
:1036E800E1B702086DB3020880B483B000AF786018
:1036F8007B68134A1A607B684FF482729A807B68F1
:10370800104A9A607B684FF482729A817B680E4AED
:103718001A617B6880229A827B680C4A9A617B686E
:103728004FF40062DA617B68094A1A627B6880227A
:103738009A8400BF0C37BD465DF8047B704700BF14
:10374800EC080020F0090020F40A0020740B002087
:103758007413002080B582B000AF6FF0DBFB034626
:10376800022B04D0022B05DB043B032B02D80123D8
:103778007B6002E000237B6000BF7B681846083747
:10378800BD4680BDB0B5BAB006AF78600123C7F8B2
:10379800CC30002387F8C33007F1B40300221A6045
:1037A8005A60012387F8CB300023C7F8C43007F1EB
:1037B8001C0338220021184676F04DFD07F154030A
:1037C8001846FFF70FFF07F11C031846FFF78CFF99
:1037D800B049B14BDB781A46AF4B9B781846AE4BD5
:1037E8001B88029301900092AC4B4FF4A662AC4840
:1037F80009F0C2F9D7F8CC30012B18D1A94900201B
:103808000CF0FAFF0346A84A1360A74B1B68002B6D
:1038180003D0A44B1B68002B09D10023C7F8CC3078
:103828009C49A24B40F24F52A14809F0A5F9D7F89C
:10383800CC30012B2DD197499E4B40F256529848D7
:1038480009F09AF99C4B18689C4B009301230022BD
:1038580020213EF0F3FAC7F8BC00D7F8BC3003F0DB
:103868002003002B0BD08B49954B4FF4AC628C484E
:1038780009F082F902F036FDC7F8C40009E0002318
:10388800C7F8C43083498F4B40F26652844809F028
:1038980073F9D7F8CC30012B1DD1D7F8C430002BE1
:1038A80019D000230093884B00228849D7F8C40018
:1038B80003F048FA034687F8CB3097F8CB30002B53
:1038C80009D07449824B40F27552794809F054F98D
:1038D8000023C7F8CC30D7F8CC30012B1DD1D7F84E
:1038E800C430002B19D000230093774B002279496C
:1038F800D7F8C40003F026FA034687F8CB3097F8C8
:10390800CB30002B09D06349734B40F2855268488D
:1039180009F032F90023C7F8CC30D7F8CC30012BA6
:1039280004D16E48FFF71EF9C7F8CC00D7F8CC30A1
:10393800012B1CD15C4B1A6807F1540107F11C00DC
:10394800674B6FF05DFA034687F8C33097F8C330CA
:10395800002B0CD04F4997F8C3300093614B40F2CD
:103968009752534809F008F90023C7F8CC30D7F824
:10397800CC30012B1AD10023019303230093002399
:103988004FF480525849594840F0BAFAC7F8CC0069
:10399800D7F8CC30012B09D03E49D7F8CC3000936A
:1039A800534B40F2A652424809F0E6F8D7F8CC301B
:1039B800012B3CD1002387F8B83007F1B40318462F
:1039C8006FF09AF807F10C0300221A605A609A60A7
:1039D800DA60FFF7BFFE0346012B1FD107F10C0386
:1039E80018466FF0A3FA0346002B17D1294D6FF044
:1039F80091FA03461A463F4B53F82230FA68396960
:103A08007869BC69049403900291019200933A4B3F
:103A180040F2BD522946224809F0AEF847F230502C
:103A280040F06EFC6FF076FA03460A2BCAD11949AA
:103A3800324B40F2CA521A4809F09EF897F8CB3038
:103A4800002B14D10023204A2049D7F8C40003F0E2
:103A5800CBFB034687F8CB3097F8CB30002B06D04A
:103A68000C49274B40F2D552114809F085F80E4B06
:103A78001B68002B07D00C4B1B68184644F0EEF867
:103A8800094B00221A60002040F0A6FB00BFD03787
:103A9800BD46B0BD92F00808EC530A089CF508082A
:103AA8001CF10808083E0020043E0020C4F5080860
:103AB800E0F00808F4F5080868890020C0D401007F
:103AC8001CF6080844F60808E52F010878F60808E7
:103AD80098F60808D4F60808F4F60808F413002045
:103AE8006D2D010824F7080854F70808512D01081E
:103AF80060F708081C0000208CF70808D0F70808B1
:103B0800FCF7080880B584B002AF786039607B683C
:103B18001B68002B0AD07B6818683B681B781A461C
:103B2800002300930323002142F0E8FB00BF08377D
:103B3800BD4680BD80B594B002AFBA607B600346D5
:103B4800FB730B46BB7307F12C0300221A605A6003
:103B58009A60DA601A6107F1240300221A605A6039
:103B680007F1180300221A605A609A6000237B61EB
:103B78000021002042F05AFFFB7B87F82C30BB7BEA
:103B880087F82D30BB683B63B868FCF77BFB0346BE
:103B98009BB2BB867B68BB633B6DFB6342F040F81E
:103BA80003467B624FF4FA733B621D4BBB6107F11E
:103BB8002403FB611B4B1B6807F1180207F12C015A
:103BC800184674F0D8FD034687F8473097F8473011
:103BD800002B1BD107F114034FF0FF320092002293
:103BE8000021002042F0EAFA38643B6C012B0AD12C
:103BF8007B69002B03D0032387F8473006E00023B6
:103C080087F8473002E0032387F8473097F84730B2
:103C1800002BCFD197F8473018464837BD4680BDAE
:103C28000D3B0108503E002080B582B000AF78609F
:103C3800074B1B68002B06D0054B1B68002201218F
:103C480018463EF025FB00BF0837BD4680BD00BFC3
:103C58004C3E002080B582B000AF7860074B1B68EF
:103C6800002B06D0054B1B680022012118463EF0A8
:103C78000FFB00BF0837BD4680BD00BF4C3E00208B
:103C880090B597B004AF7860002387F836300123E9
:103C980087F8353000233B630023BB6001F024FB29
:103CA80002F020FB0346A64A1360A54B1B68002BB5
:103CB8000CD108F02DFEA349A34B4FF48372A348FF
:103CC80008F05AFF08F024FE00BFFDE701F048FBAA
:103CD8009C499F4B40F20B129E4808F04DFF07F19C
:103CE8000803194600200CF087FD38633B6B002B56
:103CF8000CD108F00DFE9349934B4FF4877293480B
:103D080008F03AFF08F004FE00BFFDE74FF400702A
:103D180043F05EFEF862FB6A002B0CD108F0F8FD58
:103D28008849894B40F21112884808F025FF08F0AD
:103D3800EFFD00BFFDE73EF067F80346864A1360D3
:103D4800854B1B68002B0CD108F0E2FD7D497E4BAA
:103D58004FF48A727D4808F00FFF08F0D9FD00BFC4
:103D6800FDE73B6B7D4A40217D4876F0D3F8002281
:103D78007C494FF400500EF0F3F900227A494FF4D1
:103D880000500EF02DFA002387F8473011E0724BEF
:103D98001A6897F8473075491B010B4404331B68B0
:103DA800194610463EF060F997F84730013387F816
:103DB800473097F84730002BE9D000233B640023B5
:103DC80087F83F300EE097F83F30684A1B011344EC
:103DD80004331B683A6C13433B6497F83F30013354
:103DE80087F83F3097F83F30002BECD05A4B1868D3
:103DF8004FF0FF33009300230122396C3EF01EF888
:103E0800B862BB6A002BD8D0594A4FF40071F86ADF
:103E180076F080F8B863BB6B002B0CDA08F078FDFD
:103E28004849494B40F23F12484808F0A5FE08F0BF
:103E38006FFD00BFFDE7002387F837304AE097F8A9
:103E480037301B01494A1344BB61BB699A68BB6997
:103E58009B891946104620F015F80346FB75BB6987
:103E6800FA7DDA73BB699B7BFA7D9A4201D1414B9B
:103E780000E0414B3B61BB6BFA6AD018BB6BC3F5E2
:103E88000071BB6B142B01DD3C4C00E03C4CBB6962
:103E98001B683A690192009323463A4A76F03AF849
:103EA800F860FB68002B0CDA08F032FD2549264B38
:103EB80040F25312254808F05FFE08F029FD00BFC4
:103EC800FDE7BA6BFB681344BB6397F837300133DF
:103ED80087F8373097F83730002BB0D0BB6BFA6AC9
:103EE800D018BB6BC3F50073274A194676F012F851
:103EF80078627B6A002B0CDA08F00AFD1149124B34
:103F080040F25B12114808F037FE08F001FD00BFCF
:103F1800FDE7BA6B7B6A1344BB63BB6B3B623B6ACE
:103F2800B3F5007F32D308F0F3FC0649064B40F2A4
:103F38005F12064808F020FE08F0EAFC00BFFDE723
:103F4800503E002041F8080850F8080864F80808AE
:103F58006CF80808A4F808084C3E0020A8F80808DF
:103F68000C3E0020313C01085D3C01084C0000205B
:103F7800C4F80808DCF80808E0F80808E4F80808B5
:103F8800E8F80808ECF808080CF9080816493B6A2C
:103F9800FA6A02920193154B0093154B40F2611295
:103FA800144808F0E9FD97F8351097F836003B6A91
:103FB8000093FB6A0D4AFFF7BDFD0346FB77FB7FC5
:103FC800002B07D108490C4B4FF4B772094808F089
:103FD800D3FDF2E60449054B0093084B4FF4B97240
:103FE800074808F0C9FDE8E641F808080C3E00203B
:103FF80014F90808A4F8080844F9080870F908082A
:10400800A0F9080880B584B000AF0346FB7100230F
:10401800FB60154B1B6807F10C01002218463EF0A7
:104028009DFD0346012B05D1FB68104A1360104B18
:1040380001221A600E4B1B68002B01D105230EE0EC
:104048000A4B1B68B3F5FA7F01D2002307E0074B40
:104058001B68B3F5487F01D9012300E00523184602
:104068001037BD4680BD00BFAC420020983E0020FE
:104078009C3E002080B586B000AF0346FB71FA79FC
:1040880013469B0013449B001F4A13447B61FB7932
:104098001846FFF7B7FF0346FB7440F035FDF8609C
:1040A8007B691B69FA68D31ABB60FB7C012B01D1C1
:1040B800012324E07B695B7B022B17D0022B1DDCDC
:1040C800002B0AD0012B19D1BB6842F6F722934284
:1040D80001D8032313E0002311E0BB6843F2AF6269
:1040E800934201D804230AE0002308E0BB68074A8A
:1040F800934201D8022302E0002300E0002318467F
:104108001837BD4680BD00BF5C000020BFC62D002B
:1041180080B582B000AF78607B6858687B681B8880
:10412800012219461FF0C6FE4FF47A7040F0E8F8F5
:104138007B6858687B681B88002219461FF0BAFE06
:1041480000BF0837BD4680BD80B582B000AF78603B
:104158007B6804331846FFF7DBFF00BF0837BD460E
:1041680080BD80B582B000AF78607B6804331846A4
:10417800FFF7CEFF00BF0837BD4680BD80B582B0CF
:1041880000AF78607B6804331846FFF7C1FF00BFB3
:104198000837BD4680BD000080B584B000AF7860A8
:1041A8000023FB7319E0FA7B104913469B00134464
:1041B8009B000B441B6879681846FCF759F80346BE
:1041C800002B07D1FA7B13469B0013449B00074A38
:1041D800134406E0FB7B0133FB73FB7B002BE2D02F
:1041E800002318461037BD4680BD00BF5C00002084
:1041F80080B483B000AF0346FB71FB79042B17D85A
:1042080001A252F823F000BF254201082942010803
:104218002D4201083142010835420108084B08E0E7
:10422800084B06E0084B04E0084B02E0084B00E0AE
:10423800084B18460C37BD465DF8047B704700BF35
:10424800B4F90808BCF90808C4F90808CCF9080842
:10425800D4F90808DCF9080880B584B002AF7860A2
:1042680039607B681B68002B0AD07B6818683B683C
:104278001B781A46002300930323002142F03EF8DE
:1042880000BF0837BD4680BD80B592B002AFBA60A6
:104298007B600346FB730B46BB7307F128030022C0
:1042A8001A605A609A60DA601A6107F11C030022EA
:1042B8001A605A609A6007F1140300221A605A6063
:1042C80000233B610021002042F0B0FBFB7B87F814
:1042D8002830BB7B87F82930BB68FB62B868FBF7DE
:1042E800D1FF03469BB23B867B687B63BB6CBB6399
:1042F80041F096FC03467B614FF4FA737B621C4BDA
:10430800FB6107F114033B621A4B1B6807F11C029F
:1043180007F12801184674F02EFA034687F83F3053
:1043280097F83F30002B18D107F110034FF0FF32F8
:10433800009200220021002041F040FF0346012B9B
:1043480008D13B69002B01D1002300E0032387F843
:104358003F3002E0032387F83F3097F83F30002BC7
:10436800D2D197F83F3018464037BD4680BD00BFD0
:1043780061420108943E002080B5AEB002AF78607B
:104388007B681B6807F128000093134B134A8021B0
:1043980075F0C0FD7B681B7B1846FFF729FFC7F83F
:1043A800AC0007F10800D7F8AC300D4A202175F0B1
:1043B800B1FD0346C7F8A83007F1080107F1280244
:1043C800D7F8A83000930B4601210120FFF75CFFC6
:1043D80000BFB037BD4680BD543E0020E4F9080850
:1043E800F8F9080880B582B000AF0023FB7115E02A
:1043F800FA7913469B0013449B000C4A13443B6014
:10440800FB791846FFF736FE03461A463B681A73CF
:104418003868FFF7B1FFFB790133FB71FB79002B9B
:10442800E6D000BF00BF0837BD4680BD5C00002055
:1044380080B586B002AF786039607868FFF7ACFE67
:10444800F860FB68002B09D12B497B6800932B4B44
:1044580040F2CB122A4808F08FFB49E040F054FBA9
:10446800B86028493868FBF703FF0346002B10D1D2
:10447800F868FFF769FEFB6800225A73FB68BA68A0
:104488001A61214B1B684FF4007118463DF0ECFD92
:104498002EE01E493868FBF7EBFE0346002B10D1CF
:1044A800F868FFF75EFEFB6801225A73FB68BA687A
:1044B8001A61154B1B684FF4007118463DF0D4FD86
:1044C80016E013493868FBF7D3FE0346002B0FD1DB
:1044D800F868FFF753FEFB6802225A73FB68BA6854
:1044E8001A61094B1B684FF4007118463DF0BCFD7A
:1044F8001037BD4680BD00BF10FA080820FA08082A
:1045080038FA08083CFA08086889002044FA0808BC
:104518004CFA080880B5C0B000AF786007F5807322
:10452800A3F58073196007F58073A3F580731B6882
:104538001B89C7F8FC30D7F8FC307F2B02D97F23C2
:10454800C7F8FC3007F58073A3F580731B685968BA
:1045580007F16803D7F8FC20184676F0A6F807F1AB
:104568006802D7F8FC30134400221A7007F58073EC
:10457800A3F580731B681B69C7F8F830D7F8F830C3
:104588003F2B02D93F23C7F8F83007F58073A3F50E
:1045980080731B68D96807F12803D7F8F8201846F4
:1045A80076F083F807F12802D7F8F8301344002290
:1045B8001A7007F168032649184675F041FFC7F8D5
:1045C800F000D7F8F030002B3AD0D7F8F0300733A6
:1045D800C7F8F030D7F8F030C7F8EC302F21D7F80B
:1045E800EC0075F05DFEC7F8E800D7F8E830002B5E
:1045F80028D0D7F8E820D7F8EC30D31AC7F8F43029
:10460800D7F8F4301F2B02D91F23C7F8F43007F16D
:104618000803D7F8F420D7F8EC10184676F045F8D8
:1046280007F10802D7F8F430134400221A7007F192
:10463800280207F1080311461846FFF7F9FE02E0C1
:1046480000BF00E000BF07F58077BD4680BD00BF12
:1046580054FA080880B5A6B002AF0346FB7107F10B
:104668000C001A4B1A4A802175F054FC194B186833
:10467800FA7907F10C0100230093174B02F062FB53
:10468800034687F88F3097F88F30002B0AD01349EC
:1046980007F10C030093124B40F23322114808F043
:1046A8006BFA09E00D4907F10C0300930E4B40F239
:1046B80035220E4808F060FA97F88F30002BD5D1D4
:1046C80097F88F3018469037BD4680BD543E00207D
:1046D8005CFA0808943E00201D45010810FA0808F5
:1046E80070FA080888FA08088CFA08089CFA08087A
:1046F80080B588B002AF786000F0F6FD01F0F2FDF9
:1047080003464A4A1360494B1B68002B0CD108F03A
:10471800FFF84749474B40F26222474808F02CFA15
:1047280008F0F6F800BFFDE700F01AFE0023BB60B2
:1047380007F10803194600200CF05EF838613B6960
:10474800002B0CD108F0E4F839493A4B4FF41A72AF
:10475800394808F011FA08F0DBF800BFFDE7BB683C
:104768001A463969354875F0A0FFBB68334A0021FD
:10477800D154386943F072FA2D49304B0093304BCD
:1047880040F26E222F4808F0F7F92F4B1B68002BD8
:104798000CD108F0BDF82649264B40F27122264874
:1047A80008F0EAF908F0B4F800BFFDE70120FFF7C8
:1047B80051FFFFF717FE254B18684FF47A730093E3
:1047C800002301224FF400713DF038FB0023FB75F4
:1047D80028E0FB7D1846FFF74DFC0346FB73FA7D86
:1047E8001B4913469B0013449B000B440C331B7856
:1047F800FA7B9A4213D0FA7D154913469B0013445D
:104808009B000B440C33FA7B1A70FA7D13469B000D
:1048180013449B000E4A13441846FFF7ADFDFB7D79
:104828000133FB75FB7D002BD3D0C4E7943E0020F9
:1048380010FA0808A0FA0808B4FA0808543E00203C
:10484800BCFA08089CFA0808AC42002068890020D5
:104858005C00002080B5A2B004AF786000233B65FF
:104868000023FB6400237B67002387F873308CE008
:1048780097F873301B01974A1344FB65FB6D1B685F
:1048880007F10C00944A402175F044FBB865BB6DF4
:10489800002B74DDBB6D3F2B71DC00233B650023CF
:1048A800FB647868FBF7EEFCB96D07F10C02002396
:1048B800029307F14C03019307F1500300930B4651
:1048C8000146786872F027FD034687F8573097F855
:1048D8005730012B54D13B6D002B51D0FB6C002B72
:1048E8004ED0FB6C022B23D13B6DFA6C7B491846EA
:1048F80075F01BFD0346002B1AD1FB6D1B7B1A4676
:10490800774B53F82230002B3AD1FB6D1B7B1946AD
:10491800734B012243F8212001237B67FB6D586804
:10492800FB6D1989FB6D9B7A1A461FF0C3FA27E0C5
:10493800FB6C032B24D13B6DFA6C6A49184675F061
:10494800F4FC0346002B1BD1FB6D1B7B1A46644B02
:1049580053F82230012B13D1FB6D1B7B1946604B9A
:10496800002243F8212001237B67FB6D5868FB6D0B
:104978001989FB6DDB7A1A461FF09CFA00E000BF2C
:1049880097F87330013387F8733097F87330012B39
:104998007FF66EAF7B6F002B40F08F8052497868AE
:1049A800FBF766FC0346002B1CD14A4B3B663B6E6B
:1049B8001B7B1A464A4B53F82230002B7DD13B6EA5
:1049C8001B7B1946464B012243F821203B6E586851
:1049D8003B6E19893B6E9B7A1A461FF06BFA0123CE
:1049E8007B676AE041497868FBF742FC0346002B85
:1049F8001CD1384B7B667B6E1B7B1A46384B53F8B1
:104A08002230012B59D17B6E1B7B1946344B002277
:104A180043F821207B6E58687B6E19897B6EDB7AA0
:104A28001A461FF047FA01237B6746E03049786849
:104A3800FBF71EFC0346002B1CD12E4BBB66BB6E3E
:104A48001B7B1A46264B53F82230002B35D1BB6E00
:104A58001B7B1946224B012243F82120BB6E586864
:104A6800BB6E1989BB6E9B7A1A461FF023FA012385
:104A78007B6722E020497868FBF7FAFB0346002BA6
:104A88001BD11C4BFB66FB6E1B7B1A46144B53F861
:104A98002230012B11D1FB6E1B7B1946104B0022D3
:104AA80043F82120FB6E5868FB6E1989FB6EDB7A90
:104AB8001A461FF0FFF901237B677B6F012B05D195
:104AC8000E4B1B68012118463DF0CEFA00BF78371F
:104AD800BD4680BD28520A08F4FA08080CFB0808ED
:104AE800203F002010FB080814FB080820FB0808DA
:104AF8002CFB080838520A083CFB0808283F00200D
:104B080080B584B002AF786039607B681B68002B81
:104B18000AD07B6818683B681B781A460023009304
:104B28000323002141F0EAFB00BF0837BD4680BDE2
:104B380080B584B002AF786039603B681B697F2B11
:104B48000DD83B68D9683B681B691A46124875F04E
:104B5800ACFD3B681B69104A0021D1540CE03B684E
:104B6800DB680D4A1046194680231A4675F09DFDEC
:104B7800094B002283F87F200849074B0093084B14
:104B880040F28F12074807F0F7FF0348FFF762FE6D
:104B980000BF0837BD4680BD303F00205EFB0808D7
:104BA8006CFB080894FB080890B587B002AF034671
:104BB8003960FB71174B1868FA7900230093164B7C
:104BC800396802F0BFF80346FB73FB7B002B09D062
:104BD8001249FB7B0093124B40F2A512114807F0D3
:104BE800CBFF0EE00D4C3868FBF74CFB02463B68E8
:104BF800019300920C4B40F2A91221460B4807F092
:104C0800BBFFFB7B002BD5D1FB7B18461437BD4679
:104C180090BD00BF2C3F0020394B01085EFB0808FF
:104C280098FB0808C8FB0808CCFB080894FB080890
:104C380080B594B002AFBA607B600346FB730B4645
:104C4800BB7307F12C0300221A605A609A60DA607D
:104C58001A6107F1240300221A605A6007F1180349
:104C680000221A605A609A6000237B6100210020AC
:104C780041F0DCFEFB7B87F82C30BB7B87F82D30BE
:104C8800BB683B63B868FBF7FDFA03469BB2BB867B
:104C98007B68BB633B6DFB6340F0C2FF03467B62EE
:104CA8004FF4FA733B621D4BBB6107F12403FB61B0
:104CB8001B4B1B6807F1180207F12C01184673F00B
:104CC8005AFD034687F8473097F84730002B1BD129
:104CD80007F114034FF0FF32009200220021002058
:104CE80041F06CFA38643B6C012B0AD17B69002BCC
:104CF80003D0032387F8473006E0002387F84730BE
:104D080002E0032387F8473097F84730002BCFD1CC
:104D180097F8473018464837BD4680BD094B01080B
:104D28002C3F002080B590B004AF78600123BB62AF
:104D3800012387F82730012387F8263000233B62B8
:104D48000023FB6000F0D0FA01F0CCFA0346864A53
:104D58001360854B1B68002B0CD107F0D9FD8349E4
:104D6800834B40F20A22834807F006FF07F0D0FD84
:104D780000BFFDE700F0F4FA7C497F4B40F20E22B9
:104D88007E4807F0F9FE07F10C03194600200BF0E6
:104D980033FD38623B6A002B0CD107F0B9FD73492B
:104DA800734B40F21122734807F0E6FE07F0B0FD9E
:104DB80000BFFDE7802042F00BFEF861FB69002B85
:104DC8000CD107F0A5FD6949694B4FF40572694894
:104DD80007F0D2FE07F09CFD00BFFDE73B6A684A7A
:104DE8004021684875F096F83B6A674A4021674851
:104DF80075F090F83DF008F80346654A1360644B77
:104E08001B68002B0CD107F083FD5849584B40F222
:104E18001B22584807F0B0FE07F07AFD00BFFDE7F7
:104E2800BB6A012B16D197F8273058491846FFF767
:104E3800BBFE0346FB76FB7E002B0BD04B49534B46
:104E48000093544B40F22222534807F095FE00206D
:104E58003FF0C2F94E4B1B68012118463DF004F99A
:104E68004B4B18684FF0FF330093012301220121B7
:104E78003CF0E4FF78617B6903F00103002BEFD07D
:104E8800002387F82F300EE097F82F2097F82F305F
:104E9800424951F82220424941F8232097F82F30FF
:104EA800013387F82F3097F82F30012BECD90023E6
:104EB8001A463A4B53F82230002B01D0394A00E009
:104EC800394A01231946354B53F82130002B01D0BC
:104ED800344B00E0344B00931346344A8021F86980
:104EE80075F018F803463B613B697F2B0CD907F036
:104EF8000FFD1E491E4B4FF411721E4807F03CFE71
:104F080007F006FD00BFFDE718493B69FA69029200
:104F180001931C4B0093264B40F24622174807F09A
:104F28002BFE97F8261097F827003B690093FB693A
:104F3800144AFFF77DFE0346FB76FB7E002B09D162
:104F48000A49104B00931B4B40F253220B4807F0C1
:104F580013FE85E705490B4B0093174B4FF4167268
:104F68000D4807F009FE7BE72C3F00205EFB080890
:104F7800E8FB0808FCFB080804FC080894FB080880
:104F88004CFC0808E03E00205CFC0808A03E00201D
:104F9800283F00206CFC0808C8FB0808203F0020B8
:104FA800700000200CFB080810FB080890FC08089B
:104FB800ECFC080814FD080838FD080880B582B024
:104FC80000AF124B1B68002B1CD1002204212020AB
:104FD8003DF022FB03460D4A136000237B600EE080
:104FE8007B681B010A4A13443B60084B1868394622
:104FF800002300223DF00AFC7B6801337B607B685C
:105008001F2BEDD900BF0837BD4680BDB041002039
:10501800B03F00202DE9F04F85B000AF7860002147
:10502800F9602D49096800294AD02B490E6879682A
:1050380000200C460546204629464FF0000A4FF04E
:10504800000B4FEA411B4BEAD06B4FEA401A50461F
:105058005946021B61EB05034FF000004FF00001B9
:10506800990041EA9271900002460B4612EB04083F
:1050780043EB05094FF000024FF000034FEAC90364
:1050880043EA58734FEAC802904699464046494653
:105098004FF47A724FF00003FBF7E0FD02460B462F
:1050A80007F10C03194630463DF058FD0346002B26
:1050B8000CD10A490A4B5A220A4807F05DFD05E05F
:1050C8000649094B5F22074807F056FDFB6818465A
:1050D8001437BD46BDE8F08FB04100206BFD0808CD
:1050E80084FD0808A4FD0808A8FD080880B586B056
:1050F80002AF78600023FB60164B1B68002B06D1BB
:105108001549164B6D22164807F036FD18E07B68E6
:10511800144A934203D37B68134A934208D90E4931
:105128007B680093114B73220D4807F025FD07E0BB
:10513800084B1868391D002300223DF067FBF86012
:10514800FB68002B14BF01230023DBB2184610377D
:10515800BD4680BDB04100206BFD0808A8FD0808C9
:10516800A4FD0808B03F0020B0410020C8FD080891
:1051780090B587B002AF78600023FB607B68002B96
:105188000BD107F0C5FB2349234BE122234807F045
:10519800F3FC07F0BDFB00BFFDE77B68D3F8A43242
:1051A800002B0BD107F0B4FB1A491B4BE2221B481A
:1051B80007F0E2FC07F0ACFB00BFFDE740F030FD74
:1051C80004467B68D3F8A43218463DF0EFFA03464C
:1051D8009C4205D10F49124BE422104807F0CCFC41
:1051E8007B68D3F8A4324FF0FF3118463DF094FDA8
:1051F800F860FB68002B07D10649FB680093094B50
:10520800EF22094807F0B8FCFB6818461437BD467A
:1052180090BD00BF27FE08083CFE080850FE08089D
:1052280058FE080874FE08089CFE080890B587B068
:1052380002AF78600023FB607B68002B0BD107F07E
:1052480067FB2349234BFB22234807F095FC07F013
:105258005FFB00BFFDE77B68D3F8A432002B0BD1BE
:1052680007F056FB1A491B4BFC221B4807F084FC2D
:1052780007F04EFB00BFFDE740F0D2FC04467B6818
:10528800D3F8A43218463DF091FA03469C4205D063
:105298000F49124BFD22104807F06EFC7B68D3F8CB
:1052A800A4020023002200213DF0B0FAF860FB6858
:1052B800002B08D10649FB680093094B40F20712FE
:1052C800084807F059FCFB6818461437BD4690BDDE
:1052D80027FE08083CFE080850FE080858FE080883
:1052E800A0FE08089CFE080880B584B002AF184BE1
:1052F8001B68002B0CD107F00BFB1649164B4FF41B
:105308008872164807F038FC07F002FB00BFFDE77B
:105318000F4B18684FF0FF33009301230022102130
:105328003CF08CFD78607B6803F01003002B00D103
:10533800EEE700BF02E00A203EF0E2FF00F0D2FFF5
:105348000346002BF7D000BF00BF0837BD4680BD1D
:105358006889002027FE08083CFE080850FE080857
:1053680080B584B002AF134B1B68002B0CD107F03B
:10537800CFFA1149114B4FF49572114807F0FCFB15
:1053880007F0C6FA00BFFDE70A4B18684FF0FF3375
:1053980000930123002220213CF050FD78607B68B7
:1053A80003F02003002B00D1EEE700BF00BF083751
:1053B800BD4680BD6889002027FE08083CFE080815
:1053C80050FE080880B584B002AF0B4B1868002364
:1053D80000930123002220213CF030FD78607B6897
:1053E80003F02003002B14BF01230023DBB218466F
:1053F8000837BD4680BD00BF6889002080B586B0EB
:1054080000AFF860B9607A603B60FB68002B0CD194
:1054180007F07EFA3249334B40F24F12324807F018
:10542800ABFB07F075FA00BFFDE7BB68002B0CD19A
:1054380007F06EFA2A492B4B4FF4A8722A4807F056
:105448009BFB07F065FA00BFFDE77B68132B0CD9BF
:1054580007F05EFA2249234B40F25112224807F026
:105468008BFB07F055FA00BFFDE73B68132B0CD9FF
:1054780007F04EFA1A491B4B4FF4A9721A4807F065
:105488007BFB07F045FA00BFFDE700237B611EE0C8
:105498007B691B01FA681344D9687A6813465B0074
:1054A80013449B001A46BB68134499420CD13A68CE
:1054B80013465B0013449B0019467B691B01FA687D
:1054C8001344BA680A44DA607B6901337B617B69FB
:1054D800132BDDD900BF00BF1837BD4680BD00BF04
:1054E80027FE08083CFE080850FE080880B588B06A
:1054F80000AFF860B9607A600023FB610023BB61EC
:10550800FB68002B0CD107F003FA5349534B4FF4B7
:10551800B372534807F030FB07F0FAF900BFFDE714
:10552800BB68002B0CD107F0F3F94B494B4B40F209
:1055380067124B4807F020FB07F0EAF900BFFDE7C8
:1055480000237B617DE07A6913465B0013449B006E
:105558001A46FB6813445B68002B56D17A691346D8
:105568005B0013449B001A46FB6813441B89002BFD
:105578004BD1FB69132B48D8FA697B699A4240D80A
:105588007B690133FB613CE0FA6913465B00134415
:105598009B001A46FB6813441B89002B2ED0FA691E
:1055A80013465B0013449B001A46FB6899187A69F6
:1055B80013465B0013449B001A46FB6813440A46D3
:1055C80007CA83E80700FA6913465B0013449B0087
:1055D8001A46FB6813440C220021184674F03BFE5F
:1055E8007B69FA69F968B868FFF708FFBB69013396
:1055F800BB61FB690133FB6100BF1FE0FB6901333D
:10560800FB61FB69132BBFD918E07A6913465B006D
:1056180013449B001A46FB6813445B68002B0DD0AB
:105628007A6913465B0013449B001A46FB681344CF
:105638001B89002B02D0BB690133BB617B69013335
:105648007B617B69132B7FF67EAF7B68BA691A6032
:1056580000BF2037BD4680BD27FE08083CFE08086D
:1056680050FE080890B587B000AF78603960002315
:105678007B6100233B617B68002B0CD107F048F964
:105688004D494E4B4FF4D1724D4807F075FA07F06B
:105698003FF900BFFDE73B68002B0CD107F038F954
:1056A8004549464B40F2A312454807F065FA07F012
:1056B8002FF900BFFDE70023FB6073E0FB681B01C7
:1056C8007A681344DB68002B5FD17B69132B5CD8A5
:1056D8007A69FB689A4254D8FB6801337B6150E0D1
:1056E8007B691B017A681344DB68002B46D07A6912
:1056F800FB689A420CD807F00BF92F492F4B40F260
:10570800B5122F4807F038FA07F002F900BFFDE795
:105718007B691B017A68D118FB681B017A681344FE
:105728001C460B460FCB84E80F007B691B017A6887
:10573800134410220021184674F08DFD7B691B016B
:105748007A68134400221A607B691B017A68134443
:1057580000225A607B691B017A68134400229A6010
:105768007B691B017A6813440022DA603B690133C4
:105778003B617B6901337B6100BF10E07B690133CA
:105788007B617B69132BABD909E0FB681B017A6845
:105798001344DB68002B02D03B6901333B61FB6893
:1057A8000133FB60FB68132B88D93B683A691A60A0
:1057B80000BF1C37BD4690BD27FE08083CFE080800
:1057C80050FE08082DE9F04F89B002AFF860B960C3
:1057D8007A6000237B61FB68002B50D0BB68002BEC
:1057E8004DD0FB681E687B68002298469146424669
:1057F8004B464FF000004FF00001590141EAD261D9
:10580800500102460B46B2EB080463EB09054FF062
:1058180000024FF00003AB0043EA9473A200144661
:105828001D4614EB080A45EB090B4FF000024FF038
:1058380000034FEACB0343EA5A734FEACA0292467F
:105848009B46504659464FF47A724FF00003FBF7D7
:1058580005FA02460B460023B96830463CF0D6FFED
:105868007861FB685B68002B09D0FB6858680023E7
:10587800009301234FF08042032140F03FFD7B69F4
:10588800002B14BF01230023DBB218461C37BD468A
:10589800BDE8F08F2DE9B04F88B002AFF860B9606D
:1058A8007A6000237B6100233B61FB68002B55D0A5
:1058B800BB68002B52D07B6800229846914642462E
:1058C8004B464FF000004FF00001590141EAD26108
:1058D800500102460B46B2EB080463EB09054FF092
:1058E80000024FF00003AB0043EA9473A200144691
:1058F8001D4614EB080A45EB090B4FF000024FF068
:1059080000034FEACB0343EA5A734FEACA029246AE
:105918009B46504659464FF47A724FF00003FBF706
:105928009DF902460B4607F1100300924FF0FF3233
:105938000021032040F042FC0346002B0ED03B69B7
:10594800002B03DABB6800221A6007E0FB681B68BB
:105958000022B96818463DF001F978617B69002B8F
:1059680014BF01230023DBB218461837BD46BDE833
:10597800B08F000090B58BB002AF786039607B685B
:105988007B617B68002B0CD106F0C2FF4B494C4B66
:1059980040F229224B4807F0EFF806F0B9FF00BFA4
:1059A800FDE73B68002B0CD106F0B2FF4349444B9E
:1059B80040F22A22434807F0DFF806F0A9FF00BFAB
:1059C800FDE740F02DF904467B69D3F8A432184668
:1059D8003CF0ECFE03469C420CD006F099FF374998
:1059E800374B40F22B22374807F0C6F806F090FFF5
:1059F80000BFFDE70023FB6152E03B685A68FB6982
:105A0800134419787A69FB691344F0330A461A700B
:105A18003B685A68FB6913441B78802B3DD1FA69AF
:105A280013465B0013449B007A6913443B61234986
:105A38003B691B891A463B695B6801930092224BBC
:105A48004FF40E72214807F097F80023BB6121E05C
:105A5800BB6915331B017A6913440433FB60FB6887
:105A6800DB683A699A4212D1FB689B68002B0ED01A
:105A7800124CFB689B6818463FF062F80346009397
:105A8800134B40F243222146124807F075F8BB69D0
:105A98000133BB61BB69132BDAD9FB690133FB61A5
:105AA8007B69D3F89432FA699A42A6D37869FFF7EA
:105AB800BDFB00BF2437BD4690BD00BF27FE0808C8
:105AC8003CFE080850FE0808CCFE08089CFE0808A2
