:020000040800F2
:1000000000000C20957900086977000871770008D6
:10001000797700088177000889770008E57900087A
:1000200000000000000000000000000091770008C0
:100030009F77000800000000AD770008BB7700083C
:10004000E5790008E5790008E5790008E579000818
:10005000E5790008E5790008E5790008E579000808
:10006000E5790008E5790008E5790008E5790008F8
:10007000E5790008E5790008E5790008E5790008E8
:10008000E5790008E5790008E5790008E5790008D8
:10009000E5790008E5790008E5790008E5790008C8
:1000A000E5790008E5790008E5790008E5790008B8
:1000B00000000000E5790008E5790008E57900080E
:1000C000E5790008E5790008E5790008E579000898
:1000D000E5790008E5790008E5790008E579000888
:1000E000E5790008E5790008E5790008E579000878
:1000F000E5790008E5790008E5790008E579000868
:10010000E5790008E5790008E5790008E579000857
:10011000E5790008E5790008E5790008E579000847
:10012000E5790008E5790008E5790008E579000837
:10013000E5790008C9770008E5790008E579000845
:10014000E5790008E5790008E5790008E579000817
:10015000E5790008E5790008E5790008E579000807
:10016000E5790008E5790008E5790008E5790008F7
:10017000E5790008E5790008E5790008E5790008E7
:10018000E5790008E5790008E5790008E5790008D7
:10019000E5790008E5790008E5790008E5790008C7
:1001A000E5790008E5790008E5790008E5790008B7
:1001B000E579000800000000E5790008E57900080D
:1001C000E579000800000000E5790008E5790008FD
:1001D000E5790008E5790008E5790008E579000887
:1001E000E5790008E5790008E5790008E579000877
:1001F0000000000000000000E5790008E579000833
:10020000E5790008E5790008E5790008E579000856
:10021000E5790008E5790008E5790008E579000846
:10022000E5790008E5790008E5790008E579000836
:08023000E5790008E5790008FA
:1002380010B5054C237833B9044B13B10448AFF318
:1002480000800123237010BD8400002000000000FE
:100258005489000808B5034B1BB103490348AFF3A1
:10026800008008BD000000008800002054890008B4
:1002780053B94AB9002908BF00281CBF4FF0FF3105
:100288004FF0FF3000F0B2B9ADF1080C6DE904CEC3
:1002980000F006F8DDF804E0DDE9022304B0704759
:1002A8002DE9F04F8C46099E04460F46002B48D195
:1002B8008A4215465ED9B2FA82F33BB1C3F12002F5
:1002C8009F409D409C4020FA02F217434FEA154E8A
:1002D8001FFA85FC220CB7FBFEF10EFB117701FB20
:1002E8000CF042EA0742904207D9AA1801F1FF37F9
:1002F80002D2904200F258813946121AA4B2B2FBD7
:10030800FEF00EFB102200FB0CFC44EA0244A4455C
:100318000BD92C1900F1FF322CBF01270027A44567
:1003280002D9002F00F04381104640EA0140A4EBB7
:100338000C0400211EB1DC400023C6E90043BDE8DF
:10034800F08F8B4206D90EB1C6E90001002108469C
:10035800BDE8F08FB3FA83F1002951D16345C0F0AD
:100368001681824240F213810846002EE7D0C6E982
:100378000047E4E7002A00F0AF80B2FA82F3002BCE
:1003880040F0C2808A1A4FEA154EAFB20121200C04
:10039800B2FBFEFC0EFB1C2240EA024207FB0CF0FB
:1003A80090420ED9AA180CF1FF382CBF4FF0010962
:1003B8004FF00009904203D9B9F1000F00F0F08026
:1003C800C446121AA4B2B2FBFEF00EFB102200FBC8
:1003D80007F744EA0244A7420ED92C1900F1FF326C
:1003E8002CBF4FF0010E4FF0000EA74203D9BEF10B
:1003F800000F00F0D2801046E41B40EA0C4099E759
:10040800C1F120058B400CFA01F400FA01F922FA37
:1004180005F72CFA05FC8A401F4320FA05F3380C2F
:1004280023431FFA87FE1C0CBCFBF0F800FB18CC1A
:1004380044EA0C4408FB0EFCA4450ED93C1908F10B
:10044800FF3A2CBF4FF0010B4FF0000BA44503D926
:10045800BBF1000F00F0B880D046A4EB0C041FFAE3
:1004680083FCB4FBF0F300FB134403FB0EFE4CEAE1
:100478000444A6450ED93C1903F1FF302CBF4FF0B8
:10048800010C4FF0000CA64503D9BCF1000F00F099
:100498009F80034643EA0840A4EB0E04A0FB02EC4D
:1004A80064457346E04602D307D1F14505D2BEEB59
:1004B80002036CEB070C0138E0465EB1B9EB0302AE
:1004C80064EB080404FA05F522FA01F3CC401D4355
:1004D800C6E90054002132E742082F464B08AC46D3
:1004E80042EAC172AE46C407110C92B241EA034116
:1004F80042EA0142B1FBF5F1B3FBF5F01F23A2EB91
:100508000C0241EA004142E79D40C3F120029940B4
:100518009C402CFA02FC4FEA154E20FA02F2AFB2C8
:10052800BCFBFEF80A430EFB18CC110C41EA0C4147
:1005380008FB07FC8C4550D9691808F1FF302CBF1F
:100548004FF001094FF000098C4502D9B9F1000FAD
:1005580030D0A1EB0C01B1FBFEF808FB07FC0EFB49
:10056800181192B242EA0142624534D2AA1808F13F
:10057800FF312CBF4FF001094FF000096245BED290
:10058800B9F1000FBBD1A8F102012A44B7E7841AD8
:100598006CEB030201201746E7E62C4402382BE7F0
:1005A800ACF1020C2A440CE702392A44A5E62C4493
:1005B8000238BAE6A5EB0C0CA8F102006144B1FBC5
:1005C800FEF808FB07FCCAE7A8F102083C4444E728
:1005D800023B3C445EE7414691E7A1EB0C014046F3
:1005E800B1FBFEF808FB07FCB9E700BF704700BF86
:1005F80080B500AF124B1B68114A43F48073136037
:10060800032000F09CF902F05BF902460D4B1B6ACF
:1006180003F00F030C49CB5C22FA03F30B4A136077
:10062800042000F0E1F90F2000F012F80346002B37
:1006380001D0012302E006F0BDFF0023184680BD6B
:1006480000200240000C0246D88A0008240000203E
:1006580080B584B000AF78600023FB60334B1B7813
:10066800002B01D101235CE0314B1B6803F004032C
:10067800042B0CD12F4B1A682C4B1B7819464FF4BE
:100688007A73B3FBF1F3B2FBF3F3FB6037E000F0EE
:1006980003FAB860BB68022B23D0BB68022B2DD8A5
:1006A800BB68002B03D0BB68012B0DD026E0214B83
:1006B8001A681E4B1B7819464FF4FA53B3FBF1F333
:1006C800B2FBF3F3FB601AE0184B1B781A464FF4A1
:1006D8007A73B3FBF2F34FF4FA42B2FBF3F3FB6025
:1006E8000DE0124B1B781A464FF47A73B3FBF2F302
:1006F8004FF40042B2FBF3F3FB6000E000BFF86880
:1007080000F050F90346002B01D0012309E0002234
:1007180079684FF0FF3000F01DF9074A7B681360D5
:10072800002318461037BD4680BD00BF04000020D6
:1007380010E000E0240000200000002080B400AF9A
:10074800064B1B781A46064B1B681344044A136071
:1007580000BFBD465DF8047B704700BF0400002061
:10076800A000002080B400AF034B1B681846BD46AC
:100778005DF8047B704700BFA000002080B584B0FE
:1007880000AF7860FFF7EEFFB8607B68FB60FB683E
:10079800B3F1FF3F05D00A4B1B781A46FB68134498
:1007A800FB6000BFFFF7DEFF0246BB68D31AFA689A
:1007B8009A42F7D800BF00BF1037BD4680BD00BFC2
:1007C8000400002080B400AF054B1B68044A23F0E6
:1007D8000203136000BFBD465DF8047B704700BF8D
:1007E80010E000E080B485B000AF78607B6803F06B
:1007F8000703FB600C4BDB68BB60BA684FF6FF036E
:100808001340BB60FB681A02BB68134343F0BF6325
:1008180043F40033BB60044ABB68D36000BF14379D
:10082800BD465DF8047B704700ED00E080B400AF82
:10083800044BDB681B0A03F007031846BD465DF846
:10084800047B704700ED00E080B483B000AF03463E
:10085800FB7197F90730002B0BDBFB7903F01F02C4
:10086800074997F907305B09012000FA02F241F8BD
:10087800232000BF0C37BD465DF8047B704700BFDE
:1008880000E100E080B483B000AF03463960FB713B
:1008980097F90730002B0ADB3B68DAB20C4997F965
:1008A80007301201D2B20B4483F800230AE03B68F8
:1008B800DAB20849FB7903F00F03043B1201D2B204
:1008C8000B441A7600BF0C37BD465DF8047B7047B1
:1008D80000E100E000ED00E080B489B000AFF8600E
:1008E800B9607A60FB6803F00703FB61FB69C3F139
:1008F8000703042B28BF0423BB61FB690433062BC1
:1009080002D9FB69033B00E000237B614FF0FF3213
:10091800BB6902FA03F3DA43BB681A407B699A4061
:100928004FF0FF317B6901FA03F3D9437B680B4031
:10093800134318462437BD465DF8047B704780B5DD
:1009480082B000AF78607868FFF74CFF00BF0837C7
:10095800BD4680BD80B586B000AF0346B9607A60F9
:10096800FB73FFF763FF78617A68B9687869FFF706
:10097800B3FF024697F90F3011461846FFF782FF7A
:1009880000BF1837BD4680BD80B582B000AF0346B2
:10099800FB7197F907301846FFF756FF00BF083775
:1009A800BD4680BD80B483B000AF78607B68013BF2
:1009B800B3F1807F01D301230DE00A4A7B68013B34
:1009C8005360084B00229A60064B1B68054A43F0A7
:1009D80003031360002318460C37BD465DF8047BFB
:1009E800704700BF10E000E080B483B000AF7860CB
:1009F8007B68042B44D801A252F823F0270A000888
:100A0800450A0008670A0008890A0008190A000848
:100A18001F4B1B681E4A43F00403136031E01C4B54
:100A28001B681B4A23F0040313601A4BD3F8E03009
:100A3800184A23F44003C2F8E03022E0144B1B6844
:100A4800134A23F004031360124BD3F8E03023F465
:100A58004003104A43F48003C2F8E03011E00C4B25
:100A68001B680B4A23F0040313600A4BD3F8E030E9
:100A780023F44003074A43F40003C2F8E03000E0DF
:100A880000BF00BF0C37BD465DF8047B704700BF50
:100A980010E000E0000C024680B483B000AF194BB0
:100AA8001B6803F00403002B02D004237B6021E0C1
:100AB800154BD3F8E03003F440033B603B68B3F5D3
:100AC800000F11D03B68B3F5000F10D83B68002B1E
:100AD80004D03B68B3F5800F03D008E000237B60A7
:100AE80008E001237B6005E002237B6002E000232D
:100AF8007B6000BF7B6818460C37BD465DF8047BF9
:100B0800704700BF10E000E0000C024680B584B0DA
:100B180000AF7860FFF726FEF8607B68002B01D1F4
:100B280001236BE07B6893F85430DBB2022B08D0CA
:100B38007B6820229A657B68002283F84C20012379
:100B48005CE07B681B685A697B681B6842F004029A
:100B58005A617B68052283F8542020E0FFF702FEE3
:100B68000246FB68D31A052B19D97B689B6D43F0A5
:100B780010027B689A657B68032283F854207B689F
:100B88001B6D03F08003002B03D07B685B6F012291
:100B98001A737B68002283F84C2001232EE07B68BF
:100BA8001B681B6903F40053002BD7D07B681B68B4
:100BB8005A697B681B6842F002025A617B6804220A
:100BC80083F854207B681B684FF4FE42DA607B6828
:100BD800012283F854207B681B6D03F08003002BEF
:100BE80007D07B685B6F01221A737B681B68002241
:100BF8009A647B68002283F84C200023184610373B
:100C0800BD4680BD80B483B000AF78607B68002BA0
:100C180001D1012319E07B6893F85430DBB2022B31
:100C280004D07B6820229A6501230EE07B680422A9
:100C380083F854207B681B685B697A68126843F400
:100C4800005343F004035361002318460C37BD4694
:100C58005DF8047B7047000080B586B000AFF8608F
:100C6800B9607A601F4B1B78012B01D1022334E055
:100C78001C4B01221A701B4B00225A604FF47A70E9
:100C880000F07CF80346FB75FB7D002B21D1154A4B
:100C9800FB689360144B3B61FB6823F00043012B16
:100CA80004D17968B86800F0B1F803E07968B868E9
:100CB80000F0E8F84FF47A7000F060F80346FB752E
:100CC8003B691A68FB6823F00043DB431A403B6921
:100CD8001A60044B00221A70FB7D18461837BD466F
:100CE80080BD00BF080000202820024080B483B0E7
:100CF80000AF0023FB710B4B9B6A002B0BDA094BEF
:100D0800094A9A60074B094A9A60064B9B6A002B6E
:100D180001DA0123FB71FB7918460C37BD465DF8F3
:100D2800047B70470020024023016745AB89EFCD63
:100D380080B483B000AF0123FB71094B9B6A084A5A
:100D480043F000439362064B9B6A002B01DA0023B1
:100D5800FB71FB7918460C37BD465DF8047B70477C
:100D68000020024080B400AF034B5B681846BD46C4
:100D78005DF8047B704700BF0800002080B586B08E
:100D880000AF7860FFF7EEFC78611E4B3B6110E026
:100D98007B68B3F1FF3F0CD0FFF7E4FC02467B69A8
:100DA800D31A7A689A4202D97B68002B01D10323AF
:100DB80023E03B691B6803F44033002BE8D13B690F
:100DC8001A6842F2FA031340FB60FB68002B0AD052
:100DD8000D4B5A68FB6813430B4A53603B69FA682A
:100DE8001A60012309E03B691B6803F00103002B2B
:100DF80002D03B6901221A60002318461837BD4605
:100E080080BD00BF202002400800002080B48BB0C5
:100E180000AF78603960042387F827307B683B622D
:100E28003B68FB61164BBB61BB691B6843F0010261
:100E3800BB691A60EFF310833B613B697B6172B653
:100E480000BFFB691A683B6A1A603B6A04333B625D
:100E5800FB690433FB6197F82730013B87F827309B
:100E680097F82730002BECD17B69FB60FB6883F394
:100E7800108800BF00BF2C37BD465DF8047B704763
:100E88002820024080B48BB000AF786039602023FE
:100E980087F827307B683B623B68FB61174BBB6177
:100EA800BB691B6843F4804343F00103BA691360CC
:100EB800EFF310833B613B697B6172B600BFFB694E
:100EC8001A683B6A1A603B6A04333B62FB69043365
:100ED800FB6197F82730013B87F8273097F82730D0
:100EE800002BECD17B69FB60FB6883F3108800BFA3
:100EF80000BF2C37BD465DF8047B704728200240B0
:100F080080B586B000AF78603960334B1B78012B11
:100F180001D102235CE0304B01221A702E4B0022D3
:100F28005A604FF47A70FFF729FF0346FB75FB7D83
:100F3800002B49D17B681B68274A9360274BFB60CD
:100F48007B681B6823F0004348F2040293420BD1EC
:100F58007B685B68184600F043F84FF47A70FFF737
:100F68000DFF0346FB7525E03B684FF0FF321A6022
:100F78007B689B683B6115E07B685B68194638694C
:100F880000F054F84FF47A70FFF7F8FE0346FB754B
:100F9800FB7D002B03D03B683A691A600AE03B6985
:100FA80001333B617B689A687B68DB6813443A6964
:100FB8009A42E1D3FB681A687B681B6823F00043F8
:100FC800DB431A40FB681A60034B00221A70FB7D52
:100FD80018461837BD4680BD08000020282002406A
:100FE80080B485B000AF78600F4BFB607B6803F07E
:100FF8000103002B07D0FB681B6843F4803343F0E0
:101008000403FA6813607B6803F00203002B05D021
:10101800FB681B6843F4C032FB681A6000BF1437D2
:10102800BD465DF8047B70472820024080B485B037
:1010380000AF78603960144BFB603B6803F0010334
:10104800002B06D0FB681B6823F40062FB681A605B
:1010580005E0FB681B6843F40062FB681A60FB68E4
:101068001B6823F4813323F4FD737A68D200134399
:1010780043F4803343F00203FA68136000BF143767
:10108800BD465DF8047B70472820024080B489B0D3
:1010980000AF7860396000237B617B683B61C2E107
:1010A8003B681A6801217B6901FA03F31340FB606E
:1010B8007B69BB61FB68002B00F0B2817B68554AF5
:1010C80093425DD17B681B68FB6101227B6902FA50
:1010D80003F3DB43FA691340FB613B685B6803F089
:1010E80001027B6902FA03F3FA691343FB617B6827
:1010F800FA691A60484A7B6952F833303B61464ABC
:101108007B69DB0013445B68BB61BB69DA083B6938
:10111800083253F82230FB61BB6903F007039B00D8
:101128000F2202FA03F3DB43FA691340FB61BB6940
:1011380003F007039B000B2202FA03F3FA69134337
:10114800FB61BB69DA083B690832F96943F8221088
:101158003B691B68FB61BB695B00032202FA03F36E
:10116800DB43FA691340FB61BB695B00022202FAA8
:1011780003F3FA691343FB613B69FA691A6067E094
:101188003B685B68022B03D03B685B68122B45D138
:101198007B69DA087B68083253F82230FB617B6987
:1011A80003F007039B000F2202FA03F3DB43FA69FB
:1011B8001340FB613B681B6903F00F027B6903F076
:1011C80007039B0002FA03F3FA691343FB617B6987
:1011D800DA087B680832F96943F822103B691B6812
:1011E800FB61BB695B00032202FA03F3DB43FA6984
:1011F8001340FB613B685B6803F00302BB695B005B
:1012080002FA03F3FA691343FB613B69FA691A604E
:101218001EE000BF00000246308A00083B691B68D8
:10122800FB61BB695B00032202FA03F3DB43FA6943
:101238001340FB613B685B6803F00302BB695B001A
:1012480002FA03F3FA691343FB613B69FA691A600E
:101258003B685B68012B0BD03B685B68022B07D0AF
:101268003B685B68112B03D03B685B68122B30D15D
:101278003B699B68FB61BB695B00032202FA03F3CD
:10128800DB43FA691340FB613B68DA68BB695B00C2
:1012980002FA03F3FA691343FB613B69FA699A603E
:1012A8003B695B68FB610122BB6902FA03F3DB431C
:1012B800FA691340FB613B685B681B0903F0010294
:1012C800BB6902FA03F3FA691343FB613B69FA69E4
:1012D8005A603B685B68032B07D13B685B68032B4C
:1012E8001BD13B689B68012B17D03B69DB68FB610E
:1012F800BB695B00032202FA03F3DB43FA6913407C
:10130800FB613B689A68BB695B0002FA03F3FA6900
:101318001343FB613B69FA69DA603B685B6803F079
:101328008053002B7CD0474A7B699B08183352F8BE
:101338002330FB617B6903F00303DB000F2202FA11
:1013480003F3DB43FA691340FB617B689A0A3E4B5F
:1013580013407A6902F00302D2009340FA691343FA
:10136800FB6138497B699B081833FA6941F82320E7
:10137800344B1B68FB61FB68DB43FA691340FB6174
:101388003B685B6803F48013002B03D0FA69FB68A1
:101398001343FB612B4AFB6913602A4B5B68FB61B3
:1013A800FB68DB43FA691340FB613B685B6803F445
:1013B8000013002B03D0FA69FB681343FB61214A31
:1013C800FB6953601F4BD3F88430FB61FB68DB4338
:1013D800FA691340FB613B685B6803F40033002B38
:1013E80003D0FA69FB681343FB61164AFB69C2F82C
:1013F8008430144BD3F88030FB61FB68DB43FA6917
:101408001340FB613B685B6803F48033002B03D017
:10141800FA69FB681343FB610A4AFB69C2F880302A
:101428007B6901337B613B681A687B6922FA03F3A5
:10143800002B7FF435AE00BF00BF2437BD465DF8F2
:10144800047B7047002002467F7F2F0080B485B060
:1014580000AF78600023FB730B4B1B6803F001039C
:10146800002B02D00123FB7307E0074B1B6823F016
:10147800040205497B6813430B60FB7B184614374D
:10148800BD465DF8047B70470004034080B400AF9C
:10149800054B1B68044A43F00103136000231846F8
:1014A800BD465DF8047B70470004034080B582B0F8
:1014B80000AF0023FB71144B0222DA60124B1B6849
:1014C800114A23F001031360FFF74CF938600FE06D
:1014D800FFF748F902463B68D31A012B08D90A4B93
:1014E8001B6803F00103002B02D00323FB7105E006
:1014F800054B1B6803F00103002BE9D1FB79184663
:101508000837BD4680BD00BF0004034080B400AF6B
:10151800054B9B6A044A43F00103936200BFBD4632
:101528005DF8047B704700BF0008024680B400AF36
:10153800054B9B6A044A23F00103936200BFBD4632
:101548005DF8047B704700BF0008024680B485B090
:1015580000AF7860394BDB6B03F44033BB60BA688B
:101568007B689A420BD17B68B3F5803F05D9334B32
:10157800DB68324A43F48023D360002357E07B685A
:10158800B3F5803F0AD92D4BDB6823F4E0227B6852
:1015980013432A4A43F48023D36007E0274BDB68D0
:1015A80023F4E02225497B681343CB60244B1B6856
:1015B800244AA2FB03239B09322202FB03F3214A9C
:1015C800A2FB03239B090133FB6002E0FB68013B9C
:1015D800FB601A4BDB6803F40043002B02D1FB6865
:1015E800002BF3D1FB68002B1BD0154B1B68154A49
:1015F800A2FB03239B09322202FB03F3114AA2FB3D
:1016080003239B090133FB6002E0FB68013BFB609D
:101618000A4BDB6B03F40043002B02D1FB68002B61
:10162800F3D1FB68002B01D1032300E00023184607
:101638001437BD465DF8047B704700BF00080246BA
:1016480024000020D34D621080B400AF044BDB6B44
:1016580003F440331846BD465DF8047B704700BF6D
:101668000008024680B485B000AF7860224B1B6842
:10167800224AA2FB03239B09322202FB03F31F4ADF
:10168800A2FB03239B090133FB607B68002B13D16A
:101698001B4B9B681A4A23F00203936002E0FB6825
:1016A800013BFB60164BDB6B03F00203022B16D1E8
:1016B800FB68002BF3D112E0114B9B68104A43F0F2
:1016C8000203936002E0FB68013BFB600C4BDB6BA1
:1016D80003F00203002B02D1FB68002BF3D1FB6857
:1016E800002B01D1032300E0002318461437BD4620
:1016F8005DF8047B704700BF24000020D34D6210C2
:101708000008024680B400AF054BDB6A044A43F088
:101718000103D36200BFBD465DF8047B704700BF7C
:101728000008024680B58EB000AF7860002387F8C5
:1017380037307B68002B02D1012300F0C8BE994BDB
:10174800DB6903F00C033B63964B9B6A03F00303CE
:10175800FB627B681B6803F01003002B00F06C81B0
:101768003B6B002B07D03B6B0C2B40F0DE80FB6AF9
:10177800012B40F0DA807B68DB69002B02D1012362
:1017880000F0A5BE7B685A6A864B9B6803F4000389
:10179800002B04D0834B9B6803F0704305E0814B1A
:1017A800D3F8F4301B0403F07043934255D23B6BDB
:1017B800002B0AD17B685B6A184601F0D9F9034609
:1017C800002B02D0012300F082BE764B9B68754A3D
:1017D80043F400039360734B9B6823F070427B686B
:1017E8005B6A704913438B607B685B6AB3F1404F57
:1017F80009D36C4BDB6823F01F027B681B6A6949BD
:101808001343CB607EE07B685B6A002B0ADA654B8A
:10181800DB6823F478727B681B6A5B0161491343B8
:10182800CB606FE07B685B6AB3F1804F0AD35D4B96
:10183800DB6823F4F8427B681B6A9B02594913430F
:10184800CB605FE0574BDB6823F478227B681B6A28
:10185800DB0354491343CB6054E0524B9B68514A15
:1018680043F4000393604F4B9B6823F070427B68FE
:101878005B6A4C4913438B607B685B6AB3F1404FEA
:1018880009D3484BDB6823F01F027B681B6A454974
:101898001343CB6028E07B685B6A002B0ADA414B74
:1018A800DB6823F478727B681B6A5B013D4913434C
:1018B800CB6019E07B685B6AB3F1804F0AD3394B80
:1018C800DB6823F4F8427B681B6A9B0235491343A3
:1018D800CB6009E0334BDB6823F478227B681B6A12
:1018E800DB0330491343CB603B6B002B0AD17B6889
:1018F8005B6A184601F03CF90346002B02D001232D
:1019080000F0E5BD01F0DEF8274B1B681846FEF72E
:101918009FFE034687F8273097F82730002B00F002
:101928008A8097F8273000F0D2BD7B68DB69002BEE
:1019380066D01C4B1B681B4A43F001031360FEF77B
:1019480011FFB86209E0FEF70DFF0246BB6AD31A21
:10195800022B02D9032300F0BABD124B1B6803F017
:101968000403002BEFD00F4B9B680E4A43F400038F
:1019780093600C4B9B6823F070427B685B6A094953
:1019880013438B607B685B6AB3F1404F0ED3054B02
:10199800DB6823F01F027B681B6A02491343CB6094
:1019A8004AE000BF000C0246000000207B685B6A2A
:1019B800002B0ADA984BDB6823F478727B681B6A81
:1019C8005B0195491343CB6036E07B685B6AB3F1F2
:1019D800804F0AD3904BDB6823F4F8427B681B6A7C
:1019E8009B028D491343CB6026E08B4BDB6823F4C5
:1019F80078227B681B6ADB0387491343CB601BE0B3
:101A0800854B1B68844A23F001031360FEF7AAFE86
:101A1800B86209E0FEF7A6FE0246BB6AD31A022B9B
:101A280002D9032300F053BD7B4B1B6803F004036A
:101A3800002BEFD100E000BF7B681B6803F00103B7
:101A4800002B00F08B803B6B082B05D03B6B0C2BDD
:101A580009D1FB6A032B06D17B685B68002B7DD11B
:101A6800012300F034BD7B685B68B3F5803F06D185
:101A7800694B1B68684A43F48033136041E07B6814
:101A88005B68B3F5A02F12D1634B1B68624A43F41D
:101A980080231360604B1B685F4A23F48013136034
:101AA8005D4B1B685C4A43F48033136029E07B6814
:101AB8005B68B3F5A81F12D1574B1B68564A43F40D
:101AC80080231360544B1B68534A43F480131360FC
:101AD800514B1B68504A43F48033136011E04E4B5E
:101AE8001B684D4A23F4803313604B4B1B684A4AEA
:101AF80023F480231360484B1B68474A23F4801360
:101B080013607B685B68002B14D0FEF72BFEB8626D
:101B180009E0FEF727FE0246BB6AD31A642B02D9F6
:101B2800032300F0D4BC3C4B1B6803F40033002BA8
:101B3800EFD013E0FEF716FEB86209E0FEF712FEDA
:101B48000246BB6AD31A642B02D9032300F0BFBC38
:101B5800314B1B6803F40033002BEFD17B681B6803
:101B680003F00203002B5FD03B6B042B05D03B6BCB
:101B78000C2B14D1FB6A022B11D17B68DB68002B7C
:101B880002D1012300F0A3BC234B1B6923F4F812F4
:101B98007B681B691B04204913430B6144E07B6885
:101BA800DB68002B24D01C4B1B681B4A43F4807352
:101BB8001360FEF7D7FDB86209E0FEF7D3FD0246D1
:101BC800BB6AD31A022B02D9032300F080BC124B44
:101BD8001B6803F48063002BEFD00F4B1B6923F4C1
:101BE800F8127B681B691B040B4913430B611BE04C
:101BF800094B1B68084A23F480731360FEF7B2FD93
:101C0800B8620BE0FEF7AEFD0246BB6AD31A022BA0
:101C180004D9032300F05BBC000C0246AF4B1B68E1
:101C280003F48063002BEDD17B681B6803F0080385
:101C3800002B00F0C880002387F83630A74BD3F874
:101C4800943003F00403002B11D1A44BD3F8943043
:101C5800A24A43F00403C2F89430A04BD3F894305E
:101C680003F004037B617B69012387F836309C4BC2
:101C78009B6A03F00103002B19D1994B9B6A984A80
:101C880043F001039362FEF76DFDB86209E0FEF7C9
:101C980069FD0246BB6AD31A022B02D9032300F05E
:101CA80016BC8F4B9B6A03F00103002BEFD07B68B7
:101CB8005B69002B5FD0894BD3F8F0303B627B68BF
:101CC8009A693B6A03F080539A4237D03B6A03F023
:101CD8000063002B06D03B6A03F08063002B01D120
:101CE8000123F4E33B6A03F08063002B1BD07B4B9A
:101CF800D3F8F030794A23F0A053C2F8F030FEF759
:101D080031FDB86208E0FEF72DFD0246BB6AD31A22
:101D1800052B01D90323DAE3704BD3F8F03003F035
:101D28000063002BEFD16D4BD3F8F03023F08052D5
:101D38007B689B6969491343C1F8F030674BD3F856
:101D4800F030664A43F08063C2F8F030FEF70AFDCF
:101D5800B86208E0FEF706FD0246BB6AD31A052BF7
:101D680001D90323B3E35D4BD3F8F03003F00063EC
:101D7800002BEFD01BE0594BD3F8F030574A23F033
:101D8800A053C2F8F030FEF7EDFCB86208E0FEF7A9
:101D9800E9FC0246BB6AD31A052B01D9032396E353
:101DA8004E4BD3F8F03003F00063002BEFD197F8D7
:101DB8003630012B07D1494BD3F89430474A23F0EA
:101DC8000403C2F894307B681B6803F00403002BFB
:101DD80000F01181002387F83530404BD3F8943058
:101DE80003F00403002B11D13C4BD3F894303B4A49
:101DF80043F00403C2F89430384BD3F8943003F01E
:101E080004033B613B69012387F83530344B9B6AF7
:101E180003F00103002B18D1314B9B6A304A43F081
:101E280001039362FEF79EFCB86208E0FEF79AFC95
:101E38000246BB6AD31A022B01D9032347E3284B76
:101E48009B6A03F00103002BF0D07B689B6803F0CA
:101E58000103002B1FD07B689B6803F00403002B51
:101E680010D01E4BD3F8F0301C4A43F00403C2F8DC
:101E7800F0301A4BD3F8F030184A43F00103C2F897
:101E8800F03018E0154BD3F8F030144A43F0010352
:101E9800C2F8F0300FE0114BD3F8F0300F4A23F0BE
:101EA8000103C2F8F0300D4BD3F8F0300B4A23F0A1
:101EB8000403C2F8F0307B689B68002B57D0FEF70C
:101EC80051FCB8620EE0FEF74DFC0246BB6AD31A1D
:101ED80041F28832934205D90323F8E2000C024606
:101EE800000802469C4BD3F8F03003F00203002BA5
:101EF800E9D07B689B6803F08003002B1BD0964BCE
:101F0800D3F8F030944A43F08003C2F8F0300AE086
:101F1800FEF728FC0246BB6AD31A41F28832934284
:101F280001D90323D3E28C4BD3F8F03003F40063D8
:101F3800002BEDD053E0884BD3F8F030864A23F0DD
:101F48008003C2F8F0300AE0FEF70CFC0246BB6AD8
:101F5800D31A41F28832934201D90323B7E27E4B68
:101F6800D3F8F03003F40063002BEDD137E0FEF72F
:101F7800F9FBB8620AE0FEF7F5FB0246BB6AD31A22
:101F880041F28832934201D90323A0E2724BD3F87D
:101F9800F03003F00203002BEDD16F4BD3F8F03093
:101FA80003F08003002B1AD06B4BD3F8F0306A4A49
:101FB80023F08003C2F8F0300AE0FEF7D3FB0246B4
:101FC800BB6AD31A41F28832934201D903237EE2D5
:101FD800614BD3F8F03003F40063002BEDD197F890
:101FE8003530012B07D15C4BD3F894305A4A23F093
:101FF8000403C2F894307B681B6803F02003002BAD
:1020080036D07B68DB6A002B19D0534B1B68524AC9
:1020180043F480531360FEF7A5FBB86208E0FEF7AF
:10202800A1FB0246BB6AD31A022B01D903234EE255
:10203800494B1B6803F40053002BF0D018E0464BC3
:102048001B68454A23F480531360FEF78BFBB86284
:1020580008E0FEF787FB0246BB6AD31A022B01D9B8
:10206800032334E23C4B1B6803F40053002BF0D1EC
:102078007B681B6803F08003002B36D07B681B6BE2
:10208800002B19D0344B1B68334A43F48043136048
:10209800FEF768FBB86208E0FEF764FB0246BB6A1D
:1020A800D31A022B01D9032311E22B4B1B6803F42B
:1020B8000043002BF0D018E0274B1B68264A23F476
:1020C80080431360FEF74EFBB86208E0FEF74AFB58
:1020D8000246BB6AD31A022B01D90323F7E11E4B30
:1020E8001B6803F40043002BF0D17B681B6803F0E6
:1020F8004003002B7FD07B685B6B002B62D0164BB4
:102108009B68154A43F400039360134B9B6823F0C4
:1021180070627B689B6A104913438B607B685B6ABB
:10212800B3F1404F09D30C4BDB6823F01F027B68E7
:102138001B6A09491343CB602AE07B685B6A002B62
:102148000CDA054BDB6823F478727B681B6A5B0149
:1021580001491343CB601BE0000C02467B685B6AB5
:10216800B3F1804F0AD3A14BDB6823F4F8427B68B4
:102178001B6A9B029D491343CB6009E09B4BDB68BC
:1021880023F478227B681B6ADB0398491343CB60EE
:10219800964B1B68954A43F010031360FEF7E2FA6A
:1021A800B86208E0FEF7DEFA0246BB6AD31A022BD1
:1021B80001D903238BE18D4B1B6803F02003002B0F
:1021C800F0D018E0894B1B68884A23F0100313608D
:1021D800FEF7C8FAB86208E0FEF7C4FA0246BB6A1E
:1021E800D31A022B01D9032371E1804B1B6803F03A
:1021F8002003002BF0D17B689B6B002B00F06681DD
:10220800002387F83430794BDB6903F00C030C2B7F
:1022180000F0F2807B689B6B022B40F0C580734B0B
:102228001B68724A23F080731360FEF79BFAB8624A
:1022380008E0FEF797FA0246BB6AD31A022B01D9C7
:10224800032344E1694B1B6803F00073002BF0D1B2
:10225800664BD3F8943003F00403002B11D1634B81
:10226800D3F89430614A43F00403C2F894305F4BCA
:10227800D3F8943003F00403FB60FB68012387F86C
:1022880034305B4BDB6803F48023B3F5802F02D135
:10229800012387F83730564BDB68554A23F48023EF
:1022A800D360524B9B6A23F47F4323F003037A687D
:1022B800D16B7A68126C013A120211437A68526C37
:1022C8000A434A4913438B62484B5A6B494B1340A4
:1022D8007A68926C013AC2F308017A68D26C013AC2
:1022E800520292B211437A68126D013A120402F452
:1022F800FE0211437A68526D013A120602F0FE425C
:102308000A433A4913434B63384B9B6A374A23F0D5
:10231800100393627B68DB6D344ADB009363334BB5
:102328009B6A324A43F010039362304B9B6A23F056
:102338000C027B689B6D2D4913438B6297F83730ED
:10234800012B05D12A4BDB68294A43F48023D3604B
:1023580097F83430012B07D1244BD3F89430234A13
:1023680023F00403C2F89430204B1B681F4A43F043
:1023780080731360FEF7F6F9B86208E0FEF7F2F929
:102388000246BB6AD31A022B01D903239FE0174BDD
:102398001B6803F00073002BF0D0144B9B6A134AA0
:1023A80043F48023936291E0104B1B680F4A23F09B
:1023B80080731360FEF7D6F9B86208E0FEF7D2F929
:1023C8000246BB6AD31A022B01D903237FE0074BCD
:1023D8001B6803F00073002BF0D1044B9B6A034A7F
:1023E80023F4E02323F0030393626FE0000C02461A
:1023F8000008024600008080374B9B6AFB61364B21
:102408005B6BBB617B689B6B012B39D0FB6903F06D
:1024180003027B68DB6B9A4232D1FB691B0A03F02B
:102428000F027B681B6C013B9A4229D1FB6903F4BC
:1024380070427B685B6C9A4222D1BB69C3F3080285
:102448007B689B6C013B9A421AD1BB695B0A03F01B
:102458007F027B68DB6C013B9A4211D1BB691B0C84
:1024680003F07F027B681B6D013B9A4208D1BB6970
:102478001B0E03F07F027B685B6D013B9A4201D023
:10248800012324E0144B9B6BDB08C3F30C027B682D
:10249800DB6D9A421AD0104B9B6A0F4A23F0100347
:1024A8009362FEF75FF9B86200BFFEF75BF9024678
:1024B800BB6A9342F9D07B68DB6D074ADB00936304
:1024C800054B9B6A044A43F01003936200231846A5
:1024D8003837BD4680BD00BF000C024680B586B0C7
:1024E80000AF786039607B68002B01D10123D9E106
:1024F8009B4B1B6803F00F033A689A4210D9984B1C
:102508001B6823F00F0296493B6813430B60944BFA
:102518001B6803F00F033A689A4201D00123C1E116
:102528007B681B6803F01003002B10D07B685A6986
:102538008C4B5B6A03F070039A4208D9894B5B6A3B
:1025480023F070027B685B69864913434B627B68A2
:102558001B6803F00803002B12D07B681A69814BB3
:102568001B6A1B0903F070039A4209D97D4B1B6A49
:1025780023F4E0627B681B691B017A4913430B62F1
:102588007B681B6803F00403002B10D07B68DA68B3
:10259800744B1B6A03F070039A4208D9714B1B6A8B
:1025A80023F070027B68DB686E4913430B627B681B
:1025B8001B6803F00203002B10D07B689A68694BF4
:1025C8001B6A03F00F039A4208D9664B1B6A23F073
:1025D8000F027B689B68634913430B627B681B6827
:1025E80003F00103002B00F0D2800023FB757B6809
:1025F8005B68032B43D15B4BD3F8943003F004039F
:10260800002B10D1574BD3F89430564A43F00403AB
:10261800C2F89430534BD3F8943003F00403BB60F2
:10262800BB680123FB75FEF79DF838614E4BDB68EC
:1026380003F48023002B0FD008E0FEF793F802463E
:102648003B69D31A022B01D903232BE1464BDB68E4
:1026580003F48043002BF0D0FB7D012B07D1414BC5
:10266800D3F894303F4A23F00403C2F894303D4B2A
:102678001B6803F00073002B21D1012312E17B6852
:102688005B68022B07D1374B1B6803F40033002B20
:1026980015D1012306E17B685B68002B07D1314B1C
:1026A8001B6803F00403002B09D10123FAE02D4B2A
:1026B8001B6803F48063002B01D10123F2E0294B4E
:1026C800DB6923F003027B685B6826491343CB610F
:1026D800FEF748F838617B685B68032B12D10AE083
:1026E800FEF740F802463B69D31A41F2883293421A
:1026F80001D90323D6E01B4BDB6903F00C030C2B39
:10270800EED144E07B685B68022B12D10AE0FEF749
:1027180029F802463B69D31A41F28832934201D91B
:102728000323BFE00F4BDB6903F00C03082BEED14A
:102738002DE07B685B68002B23D10AE0FEF712F8D6
:1027480002463B69D31A41F28832934201D90323E6
:10275800A8E0044BDB6903F00C03002BEED116E074
:1027680000200240000C024600080246FDF7FAFF6E
:1027780002463B69D31A41F28832934201D90323B6
:1027880090E04A4BDB6903F00C03042BEED17B6825
:102798001B6803F00203002B10D07B689A68434B38
:1027A8001B6A03F00F039A4208D2404B1B6A23F0BE
:1027B8000F027B689B683D4913430B623C4B1B68C7
:1027C80003F00F033A689A4210D2394B1B6823F082
:1027D8000F0237493B6813430B60354B1B6803F006
:1027E8000F033A689A4201D001235BE07B681B68BB
:1027F80003F00403002B10D07B68DA682B4B1B6AAC
:1028080003F070039A4208D2284B1B6A23F0700227
:102818007B68DB68254913430B627B681B6803F000
:102828000803002B12D07B681A69204B1B6A1B090E
:1028380003F070039A4209D21C4B1B6A23F4E0622E
:102848007B681B691B01194913430B627B681B6872
:1028580003F01003002B10D07B685A69134B5B6A96
:1028680003F070039A4208D2104B5B6A23F070029F
:102878007B685B690D4913434B6200F021F80246FF
:102888000A4B1B6A03F00F030A49CB5C22FA03F3D5
:10289800094A1360094B1B681846FDF7D9FE034621
:1028A800FB73FB7B18461837BD4680BD000C0246FB
:1028B80000200240D88A00082400002000000020E0
:1028C80080B48BB000AF00237B6200233B62784B5F
:1028D800DB6903F00C03BB61754B9B6A03F00303D0
:1028E8007B61BB69002B05D0BB690C2B21D17B69AF
:1028F800012B1ED16E4B9B6803F40003002B07D1FC
:102908006B4BD3F8F4301B0B03F00F037B6205E02D
:10291800674B9B681B0F03F00F037B62654A7B6A5A
:1029280052F823307B62BB69002B10D17B6A3B6273
:102938000DE05F4BDB6903F00C03042B02D15E4B07
:102948003B6204E0BB69082B01D15B4B3B62BB696E
:102958000C2B40F0A580564B9B6A03F003033B61A8
:10296800534B9B6A1B0A03F00F030133FB60504B68
:102978009B6A1B0903F00103BB604D4B9B6BDB0893
:10298800C3F30C03BA6802FB03F307EE903AF8EEC0
:10299800677AC7ED017A3B69022B03D03B69032BA9
:1029A80022D043E0FB6807EE903AF8EE677ADFED55
:1029B800436A86EEA77A3E4B5B6BC3F3080307EEC8
:1029C800903AF8EE676A97ED016ADFED3D5AC6EE78
:1029D800257A76EEA77AF7EE006A77EEA67A67EEA2
:1029E800277AC7ED077A46E0FB6807EE903AF8EEDB
:1029F800677ADFED326A86EEA77A2D4B5B6BC3F3FD
:102A0800080307EE903AF8EE676A97ED016ADFED82
:102A18002C5AC6EE257A76EEA77AF7EE006A77EE9C
:102A2800A67A67EE277AC7ED077A24E07B6A07EE75
:102A3800903AF8EE676AFB6807EE903AF8EE677A24
:102A480086EEA77A1A4B5B6BC3F3080307EE903A3E
:102A5800F8EE676A97ED016ADFED195AC6EE257A36
:102A680076EEA77AF7EE006A77EEA67A67EE277A0F
:102A7800C7ED077A00BF0E4B5B6B1B0E03F07F039D
:102A880001333B603B6807EE903AB8EE677AD7EDC2
:102A9800076AC6EE877AFCEEE77A17EE903A3B6251
:102AA8003B6A18462C37BD465DF8047B704700BF6B
:102AB800000C0246F08A00080024F4000024744B3D
:102AC8000000004680B500AFFFF7FAFE0246074B4C
:102AD8001B6A03F00F030649CB5C22FA03F3054A8D
:102AE8001360044B1B68184680BD00BF000C0246EB
:102AF800D88A00082400002080B500AFFFF7E2FF65
:102B08000246054B1B6A1B0903F007030349CB5C0C
:102B180022FA03F3184680BD000C0246E88A000832
:102B280080B500AFFFF7CEFF0246054B1B6A1B0AB4
:102B380003F007030349CB5C22FA03F3184680BD70
:102B4800000C0246E88A000880B500AFFFF7BAFF1C
:102B58000246054B5B6A1B0903F007030349CB5C7C
:102B680022FA03F3184680BD000C0246E88A0008E2
:102B780080B586B000AF78603E4BD3F8943003F050
:102B88000403002B03D0FEF75FFD786119E0394B91
:102B9800D3F89430374A43F00403C2F89430354BE5
:102BA800D3F8943003F00403FB60FB68FEF74CFD98
:102BB8007861304BD3F894302E4A23F00403C2F8DE
:102BC80094307B69B3F5403F03D07B69B3F5003F90
:102BD80009D17B68B3F1805F02D201233B6133E006
:102BE80000233B6130E07B68B3F1805F08D27B69EA
:102BF800B3F5803F02D103233B6125E0012335E093
:102C08007B68B3F1005F0FD97B69002B09D17B6822
:102C1800B3F1405F02D900233B6115E001233B611A
:102C280012E000233B610FE07B68B3F1805F09D1BC
:102C38007B69B3F5803F02D101233B6104E00223A5
:102C48003B6101E001233B610B4B1B6823F00F0242
:102C580009493B6913430B60074B1B6803F00F03DB
:102C68003A699A4201D0012300E000231846183738
:102C7800BD4680BD000C0246002002402DE9B04F41
:102C8800BAB000AFC7F8D400002387F8E3300023B8
:102C980087F8E230D7F8D430D3E9002302F00104F2
:102CA800002554EA05030BD0CB4BD3F8E03023F0D2
:102CB8000301D7F8D4301B6DC74A0B43C2F8E03084
:102CC800D7F8D430D3E9002302F002084FF0000906
:102CD80058EA09030BD0C04BD3F8E03023F00C01BD
:102CE800D7F8D4305B6DBC4A0B43C2F8E030D7F854
:102CF800D430D3E9002302F0040A4FF0000B5AEA5B
:102D08000B030BD0B44BD3F8E03023F03001D7F8E5
:102D1800D4309B6DB04A0B43C2F8E030D7F8D430BA
:102D2800D3E9002302F00803C7F8C8300023C7F826
:102D3800CC30D7E932120B4613430BD0A64BD3F84D
:102D4800E03023F0C001D7F8D430DB6DA24A0B4342
:102D5800C2F8E030D7F8D430D3E9002302F01003EA
:102D6800C7F8C0300023C7F8C430D7E930120B4683
:102D780013430BD0984BD3F8E03023F44071D7F8C5
:102D8800D4301B6E944A0B43C2F8E030D7F8D430E5
:102D9800D3E9002302F02003C7F8B8300023C7F8AE
:102DA800BC30D7E92E120B4613430BD08A4BD3F80D
:102DB800E83023F00701D7F8D4305B6E864A0B431E
:102DC800C2F8E830D7F8D430D3E9002302F0400342
:102DD800C7F8B0300023C7F8B430D7E92C120B4637
:102DE80013430BD07C4BD3F8E03023F44061D7F881
:102DF800D4309B6E784A0B43C2F8E030D7F8D43011
:102E0800D3E9002302F08003C7F8A8300023C7F8ED
:102E1800AC30D7E92A120B4613430BD06E4BD3F8CC
:102E2800E03023F44051D7F8D430DB6E6A4A0B43C4
:102E3800C2F8E030D7F8D430D3E9002302F4807325
:102E4800C7F8A0300023C7F8A430D7E928120B46EA
:102E580013430BD0604BD3F8E83023F0C001D7F808
:102E6800D4301B6F5C4A0B43C2F8E830D7F8D43033
:102E7800D3E9002302F48003C7F898300023C7F889
:102E88009C30D7E926120B4613430BD0524BD3F88C
:102E9800E03023F44041D7F8D4305B6F4E4A0B43FF
:102EA800C2F8E030D7F8D430D3E9002302F4007335
:102EB800C7F890300023C7F89430D7E924120B469E
:102EC80013430BD0444BD3F8E83023F44061D7F8D0
:102ED800D4309B6F404A0B43C2F8E830D7F8D4305F
:102EE800D3E9002302F48063C7F888300023C7F8C9
:102EF8008C30D7E922120B4613430BD0364BD3F84C
:102F0800E03023F44021D7F8D430DB6F324A0B434A
:102F1800C2F8E030D7F8D430D3E9002302F40063D4
:102F2800C7F880300023C7F88430D7E920120B4651
:102F380013430CD0284BD3F8E83023F44071D7F86A
:102F4800D430D3F88030244A0B43C2F8E830D7F89D
:102F5800D430D3E9002302F40053BB670023FB6796
:102F6800D7E91E120B4613434FD0D7F8D430D3F805
:102F78009030802B2DD0802B27D8602B2ED0602B23
:102F880023D8402B06D0402B1FD8002B09D0202B4C
:102F980011D01AE0104B9B6A0F4A43F480339362B6
:102FA8001DE0D7F8D4300833184602F017FA034664
:102FB80087F8E33013E0D7F8D4302C33184602F002
:102FC800A5FA034687F8E33009E0012387F8E330E0
:102FD80005E000BF03E000BF000C024600BF97F801
:102FE800E330002B0DD1B64BD3F8E43023F0E001E9
:102FF800D7F8D430D3F89030B14A0B43C2F8E43054
:1030080003E097F8E33087F8E230D7F8D430D3E913
:10301800002302F480433B6700237B67D7E91C1237
:103028000B46134353D0D7F8D430D3F89430B3F5C4
:10303800806F33D0B3F5806F2CD8B3F5407F2FD095
:10304800B3F5407F26D8B3F5007F08D0B3F5007FED
:1030580020D8002B0AD0B3F5807F11D01AE0984B06
:103068009B6A974A43F4803393621AE0D7F8D430C6
:103078000833184602F0B2F9034687F8E33010E047
:10308800D7F8D4302C33184602F040FA034687F8B4
:10309800E33006E0012387F8E33002E000BF00E0F8
:1030A80000BF97F8E330002B0DD1854BD3F8E430FF
:1030B80023F4E061D7F8D430D3F89430804A0B4336
:1030C800C2F8E43003E097F8E33087F8E230D7F845
:1030D800D430D3E9002302F40043BB660023FB6627
:1030E800D7E91A120B46134346D0D7F8D430D3F891
:1030F800A830B3F5A04F28D0B3F5A04F21D8B3F529
:10310800804F22D0B3F5804F1BD8B3F5405F1CD059
:10311800B3F5405F15D8B3F5005F08D0B3F5005F8D
:103128000FD8002B11D0B3F5805F0ED009E0D7F887
:10313800D4300833184602F051F9034687F8E330D3
:1031480004E0012387F8E33000E000BF97F8E3309C
:10315800002B0DD15A4BD3F8E83023F4E041D7F8CF
:10316800D430D3F8A830564A0B43C2F8E83003E00D
:1031780097F8E33087F8E230D7F8D430D3E9002362
:1031880002F480333B6600237B66D7E918120B46AE
:1031980013433FD0D7F8D430D3F88830042B1ED847
:1031A80001A252F823F000BFEF310008C531000832
:1031B800D3310008EF310008EF310008404B9B6A1B
:1031C8003F4A43F4803393620EE0D7F8D4302C336F
:1031D800184602F09BF9034687F8E33004E0012320
:1031E80087F8E33000E000BF97F8E330002B0DD1FB
:1031F800334BD3F8E43023F00701D7F8D430D3F8B1
:1032080088302F4A0B43C2F8E43003E097F8E330E4
:1032180087F8E230D7F8D430D3E9002302F400333A
:10322800BB650023FB65D7E916120B4613434DD047
:10323800D7F8D430D3F88C30B3F5802F28D0B3F535
:10324800802F21D8B3F5403F24D0B3F5403F1BD899
:10325800B3F5003F0ED0B3F5003F15D8002B1BD0B7
:10326800B3F5803F10D1164B9B6A154A43F480335F
:10327800936212E0D7F8D4302C33184602F046F99E
:10328800034687F8E33008E0012387F8E33004E0D9
:1032980000BF02E000BF00E000BF97F8E330002B5A
:1032A80010D1074BD3F8E83023F4E021D7F8D43015
:1032B800D3F88C30024A0B43C2F8E83006E000BF6E
:1032C800000C024697F8E33087F8E230D7F8D4309C
:1032D800D3E9002302F480233B6500237B65D7E90B
:1032E80014120B46134300F0B580002387F8E13031
:1032F8009D4BD3F8943003F00403002B13D19A4B61
:10330800D3F89430984A43F00403C2F89430964BAB
:10331800D3F8943003F00403C7F8D830D7F8D8307E
:10332800012387F8E130914B9B6A904A43F00103EF
:103338009362FDF717FAC7F8DC000BE0FDF712FA05
:103348000246D7F8DC30D31A022B03D9032387F8B7
:10335800E33005E0854B9B6A03F00103002BEDD0B9
:1033680097F8E330002B65D17F4BD3F8F03003F4A6
:103378004073C7F8E430D7F8E430002B23D0D7F8EF
:10338800D430D3F8C020D7F8E43093421BD0764B22
:10339800D3F8F03023F44073C7F8E430724BD3F815
:1033A800F030714A43F48033C2F8F0306E4BD3F8F2
:1033B800F0306D4A23F48033C2F8F0306A4AD7F807
:1033C800E430C2F8F030D7F8E43003F00103002B02
:1033D80019D0FDF7C7F9C7F8DC000DE0FDF7C2F911
:1033E8000246D7F8DC30D21A41F288339A4203D920
:1033F800032387F8E33006E05B4BD3F8F03003F0A3
:103408000203002BEAD097F8E330002B0DD1564B7E
:10341800D3F8F03023F44071D7F8D430D3F8C03063
:10342800514A0B43C2F8F03008E097F8E33087F8C8
:10343800E23003E097F8E33087F8E23097F8E130BC
:10344800012B07D1484BD3F89430474A23F00403A3
:10345800C2F89430D7F8D430D3E9002302F48013AB
:10346800BB640023FB64D7E912120B46134342D016
:10347800D7F8D430D3F8A030B3F1406F22D0B3F1ED
:10348800406F1BD8B3F1006F11D0B3F1006F15D89E
:10349800002B19D0B3F1806F10D1D7F8D43008338E
:1034A800184601F09BFF034687F8E3300DE02E4BEA
:1034B8009B6A2D4A43F40033936206E0012387F8A0
:1034C800E33002E000BF00E000BF97F8E330002BD4
:1034D8000DD1254BD3F8E03023F04061D7F8D43034
:1034E800D3F8A030204A0B43C2F8E03003E097F845
:1034F800E33087F8E230D7F8D430D3E9002302F478
:1035080000233B6400237B64D7E910120B46134366
:1035180032D0D7F8D430D3F89830B3F5005F0BD059
:10352800B3F5005F04D8002B08D0B3F5805F07D04F
:10353800012387F8E33004E000BF02E000BF00E0A9
:1035480000BF97F8E330002B12D1074BD3F8E430D3
:1035580023F44051D7F8D430D3F89830024A0B43BB
:10356800C2F8E43008E000BF000C0246000802463A
:1035780097F8E33087F8E230D7F8D430D3E900235E
:1035880002F48053BB630023FB63D7E90E120B469A
:1035980013430CD0984BD3F8E43023F40061D7F8E8
:1035A800D430D3F89C30944A0B43C2F8E430D7F8AF
:1035B800D430D3E9002302F400133B6300237B6378
:1035C800D7E90C120B46134319D0D7F8D430D3F8E7
:1035D800A430B3F5804F05D1874B9B6A864A43F4E4
:1035E80080339362844BD3F8E43023F48041D7F8D6
:1035F800D430D3F8A430804A0B43C2F8E430D7F86B
:10360800D430D3E9002302F40003BB620023FB6239
:10361800D7E90A120B4613430CD0774BD3F8E030A6
:1036280023F44012D7F8D430D3F8B4307249134396
:10363800C1F8E030D7F8D430D3E9002302F0807322
:103648003B6200237B62D7E908120B4613430CD078
:10365800694BD3F8E03023F44032D7F8D430D3F8AC
:10366800B83065491343C1F8E030D7F8D430D3E90E
:10367800002302F00073BB610023FB61D7E9061247
:103688000B4613430CD05C4BD3F8E83023F01802F8
:10369800D7F8D430D3F8BC3057491343C1F8E830D1
:1036A800D7F8D430D3E9002302F080633B610023CC
:1036B8007B61D7E904120B46134332D0D7F8D430D4
:1036C800D3F8B030B3F5001F05D14B4B9B6A4A4A7B
:1036D80043F400339362D7F8D430D3F8B030B3F55D
:1036E800401F08D1D7F8D4300833184601F076FEC9
:1036F800034687F8E33097F8E330002B0DD13E4BB3
:10370800D3F8E43023F44012D7F8D430D3F8B030EB
:1037180039491343C1F8E43003E097F8E33087F8F8
:10372800E230D7F8D430D3E9002302F00063BB605D
:103738000023FB60D7E902120B4613433AD0D7F8AF
:10374800D430D3F88430B3F1007F0ED0B3F1007FCA
:1037580015D8002B17D0B3F1807F10D1264B9B6A68
:10376800254A43F4003393620EE0D7F8D430083387
:10377800184601F033FE034687F8E33004E00123DE
:1037880087F8E33000E000BF97F8E330002B0DD155
:10379800194BD3F8E03023F04072D7F8D430D3F87F
:1037A800843015491343C1F8E03003E097F8E3305B
:1037B80087F8E230D7F8D430D3E9002302F08053F9
:1037C8003B6000237B60D7E900120B4613430CD003
:1037D800094BD3F8E83023F40042D7F8D430D3F8B3
:1037E800AC3005491343C1F8E83097F8E230184681
:1037F800E837BD46BDE8B08F000C024680B489B0FA
:1038080000AF7860A64B5B6BC3F30803BB61A44BA6
:103818009B6A03F003037B61A14B9B6A1B0A03F0BD
:103828000F0301333B619E4B9B6A1B0903F00103A5
:10383800FB609B4B9B6BDB08C3F30C03FA6802FB32
:1038480003F307EE903AF8EE677AC7ED027A7B69E0
:10385800032B62D07B69032B00F281807B69012BEB
:1038680024D07B69022B7AD13B6907EE903AF8EEB7
:10387800677ADFED8C6A86EEA77A894B5B6BC3F3B8
:10388800080307EE903AF8EE676A97ED026ADFEDF3
:10389800865AC6EE257A76EEA77AF7EE006A77EEB4
:1038A800A67A67EE277AC7ED077A8FE07C4B9B688C
:1038B80003F40003002B05D0794B9B681B0F03F022
:1038C8000F0306E0764BD3F8F4301B041B0F03F00C
:1038D8000F03764A52F8233007EE903AF8EE676AFB
:1038E8003B6907EE903AF8EE677A86EEA77ABB69ED
:1038F80007EE903AF8EE676A97ED026ADFED6A5ACA
:10390800C6EE257A76EEA77AF7EE006A77EEA67A03
:1039180067EE277AC7ED077A58E03B6907EE903AD9
:10392800F8EE677ADFED5F6A86EEA77A5C4B5B6B31
:10393800C3F3080307EE903AF8EE676A97ED026A58
:10394800DFED595AC6EE257A76EEA77AF7EE006AC9
:1039580077EEA67A67EE277AC7ED077A36E0504BFE
:103968009B6803F40003002B05D04D4B9B681B0F8D
:1039780003F00F0306E04A4BD3F8F4301B041B0F87
:1039880003F00F03494A52F8233007EE903AF8EE55
:10399800676A3B6907EE903AF8EE677A86EEA77A8F
:1039A800BB6907EE903AF8EE676A97ED026ADFEDB9
:1039B8003E5AC6EE257A76EEA77AF7EE006A77EEDB
:1039C800A67A67EE277AC7ED077A00BF344B9B6A61
:1039D80003F48033002B17D0314B5B6B5B0A03F089
:1039E8007F0307EE903AF8EE677AB7EE007A37EE83
:1039F800877AD7ED076AC6EE877AFCEEE77A17EE84
:103A0800902A7B681A6002E07B6800221A60244BC7
:103A18009B6A03F40033002B17D0214B5B6B1B0C04
:103A280003F07F0307EE903AF8EE677AB7EE007A74
:103A380037EE877AD7ED076AC6EE877AFCEEE77A23
:103A480017EE902A7B685A6002E07B6800225A6071
:103A5800134B9B6A03F48023002B17D0104B5B6B2E
:103A68001B0E03F07F0307EE903AF8EE677AB7EE85
:103A7800007A37EE877AD7ED076AC6EE877AFCEECA
:103A8800E77A17EE902A7B689A6002E07B6800224A
:103A98009A6000BF2437BD465DF8047B704700BFBD
:103AA800000C02460024744B00000046F08A00080F
:103AB80080B489B000AF7860A64BDB6BC3F3080312
:103AC800BB61A44BDB6A03F003037B61A14BDB6A98
:103AD8001B0A03F00F0301333B619E4BDB6A1B0992
:103AE80003F00103FB609B4B1B6CDB08C3F30C0367
:103AF800FA6802FB03F307EE903AF8EE677AC7ED2F
:103B0800027A7B69032B62D07B69032B00F28180E8
:103B18007B69012B24D07B69022B7AD13B6907EEA4
:103B2800903AF8EE677ADFED8C6A86EEA77A894BD1
:103B3800DB6BC3F3080307EE903AF8EE676A97ED7C
:103B4800026ADFED865AC6EE257A76EEA77AF7EE98
:103B5800006A77EEA67A67EE277AC7ED077A8FE0D4
:103B68007C4B9B6803F40003002B05D0794B9B68C2
:103B78001B0F03F00F0306E0764BD3F8F4301B0459
:103B88001B0F03F00F03764A52F8233007EE903AE2
:103B9800F8EE676A3B6907EE903AF8EE677A86EEC8
:103BA800A77ABB6907EE903AF8EE676A97ED026A62
:103BB800DFED6A5AC6EE257A76EEA77AF7EE006A46
:103BC80077EEA67A67EE277AC7ED077A58E03B6961
:103BD80007EE903AF8EE677ADFED5F6A86EEA77A2D
:103BE8005C4BDB6BC3F3080307EE903AF8EE676AA9
:103BF80097ED026ADFED595AC6EE257A76EEA77A76
:103C0800F7EE006A77EEA67A67EE277AC7ED077AAD
:103C180036E0504B9B6803F40003002B05D04D4B56
:103C28009B681B0F03F00F0306E04A4BD3F8F430F0
:103C38001B041B0F03F00F03494A52F8233007EE09
:103C4800903AF8EE676A3B6907EE903AF8EE677AC1
:103C580086EEA77ABB6907EE903AF8EE676A97EDA9
:103C6800026ADFED3E5AC6EE257A76EEA77AF7EEBF
:103C7800006A77EEA67A67EE277AC7ED077A00BF63
:103C8800344BDB6A03F48033002B17D0314BDB6BEA
:103C98005B0A03F07F0307EE903AF8EE677AB7EE17
:103CA800007A37EE877AD7ED076AC6EE877AFCEE98
:103CB800E77A17EE902A7B681A6002E07B68002298
:103CC8001A60244BDB6A03F40033002B17D0214B16
:103CD800DB6B1B0C03F07F0307EE903AF8EE677A74
:103CE800B7EE007A37EE877AD7ED076AC6EE877A9D
:103CF800FCEEE77A17EE902A7B685A6002E07B6850
:103D080000225A60134BDB6A03F48023002B17D080
:103D1800104BDB6B1B0E03F07F0307EE903AF8EEB7
:103D2800677AB7EE007A37EE877AD7ED076AC6EE7C
:103D3800877AFCEEE77A17EE902A7B689A6002E0B1
:103D48007B6800229A6000BF2437BD465DF8047B7B
:103D5800704700BF000C02460024744B0000004668
:103D6800F08A000880B489B000AF7860A64B5B6C1D
:103D7800C3F30803BB61A44B1B6B03F003037B6114
:103D8800A14B1B6B1B0A03F00F0301333B619E4BD6
:103D98001B6B1B0903F00103FB609B4B9B6CDB084F
:103DA800C3F30C03FA6802FB03F307EE903AF8EE4C
:103DB800677AC7ED027A7B69032B62D07B69032B94
:103DC80000F281807B69012B24D07B69022B7AD198
:103DD8003B6907EE903AF8EE677ADFED8C6A86EE7B
:103DE800A77A894B5B6CC3F3080307EE903AF8EEA9
:103DF800676A97ED026ADFED865AC6EE257A76EE97
:103E0800A77AF7EE006A77EEA67A67EE277AC7ED0B
:103E1800077A8FE07C4B9B6803F40003002B05D0E6
:103E2800794B9B681B0F03F00F0306E0764BD3F822
:103E3800F4301B041B0F03F00F03764A52F82330AB
:103E480007EE903AF8EE676A3B6907EE903AF8EEAB
:103E5800677A86EEA77ABB6907EE903AF8EE676A4A
:103E680097ED026ADFED6A5AC6EE257A76EEA77AF2
:103E7800F7EE006A77EEA67A67EE277AC7ED077A3B
:103E880058E03B6907EE903AF8EE677ADFED5F6A33
:103E980086EEA77A5C4B5B6CC3F3080307EE903A97
:103EA800F8EE676A97ED026ADFED595AC6EE257A91
:103EB80076EEA77AF7EE006A77EEA67A67EE277AAB
:103EC800C7ED077A36E0504B9B6803F40003002BDC
:103ED80005D04D4B9B681B0F03F00F0306E04A4BC0
:103EE800D3F8F4301B041B0F03F00F03494A52F8B0
:103EF800233007EE903AF8EE676A3B6907EE903A8E
:103F0800F8EE677A86EEA77ABB6907EE903AF8EE84
:103F1800676A97ED026ADFED3E5AC6EE257A76EEBD
:103F2800A77AF7EE006A77EEA67A67EE277AC7EDEA
:103F3800077A00BF344B1B6B03F48033002B17D078
:103F4800314B5B6C5B0A03F07F0307EE903AF8EEA7
:103F5800677AB7EE007A37EE877AD7ED076AC6EE4A
:103F6800877AFCEEE77A17EE902A7B681A6002E0FF
:103F78007B6800221A60244B1B6B03F40033002B70
:103F880017D0214B5B6C1B0C03F07F0307EE903AB4
:103F9800F8EE677AB7EE007A37EE877AD7ED076AD8
:103FA800C6EE877AFCEEE77A17EE902A7B685A60AD
:103FB80002E07B6800225A60134B1B6B03F48023DA
:103FC800002B17D0104B5B6C1B0E03F07F0307EE22
:103FD800903AF8EE677AB7EE007A37EE877AD7ED3F
:103FE800076AC6EE877AFCEEE77A17EE902A7B68B6
:103FF8009A6002E07B6800229A6000BF2437BD46C1
:104008005DF8047B704700BF000C02460024744B27
:1040180000000046F08A000880B58EB000AFC7E9FE
:104028000001D7E90023A2F580210B4345D1A74B16
:10403800D3F8F03003F440733B63A44BD3F8F0306B
:1040480003F00203022B08D13B6BB3F5807F04D148
:104058004FF400437B6301F0B3B99C4BD3F8F030C5
:1040680003F00063B3F1006F14D13B6BB3F5007F2D
:1040780010D1964BD3F8F03003F08053B3F1805F42
:1040880003D1FA237B6301F09BB94FF4FA437B63B6
:1040980001F096B98D4B1B6803F40033B3F5003F6C
:1040A80007D13B6BB3F5407F03D1894B7B6301F0AC
:1040B80087B900237B6301F083B9D7E90023A2F510
:1040C80000510B4351D1814BD3F8E43003F0E003A6
:1040D8003B633B6B802B35D03B6B802B41D83B6BD4
:1040E800602B2AD03B6B602B3BD83B6B402B09D015
:1040F8003B6B402B35D83B6B002B0CD03B6B202BFC
:1041080012D02EE007F124031846FFF777FB7B6AED
:104118007B6301F055B907F118031846FFF7C8FC8F
:10412800BB697B6301F04CB907F10C031846FFF734
:1041380019FEFB687B6301F043B94BF680337B6360
:1041480001F03EB9614B1B6803F48063B3F5806FDF
:1041580003D1604B7B6301F033B900237B6301F02B
:104168002FB900237B6301F02BB9D7E90023A2F50F
:1041780080410B4358D1554BD3F8E43003F4E06346
:104188003B633B6BB3F5806F3BD03B6BB3F5806F04
:1041980046D83B6BB3F5407F2ED03B6BB3F5407FE1
:1041A8003ED83B6BB3F5007F0BD03B6BB3F5007F7C
:1041B80036D83B6B002B0DD03B6BB3F5807F12D00C
:1041C8002EE007F124031846FFF718FB7B6A7B6390
:1041D80001F0F6B807F118031846FFF769FCBB6948
:1041E8007B6301F0EDB807F10C031846FFF7BAFD41
:1041F800FB687B6301F0E4B84BF680337B6301F026
:10420800DFB8324B1B6803F48063B3F5806F03D1CA
:10421800304B7B6301F0D4B800237B6301F0D0B846
:1042280000237B6301F0CCB8D7E90023A2F58051C5
:104238000B4326D1254BD3F8E43003F400633B63EA
:10424800224B1B6803F48063B3F5806F06D13B6B88
:10425800002B03D11F4B7B6301F0B2B81B4B1B68CB
:1042680003F48063B3F5806F07D13B6BB3F5006F40
:1042780003D1194B7B6301F0A3B800237B6301F0E2
:104288009FB8D7E90023A2F580110B436ED10F4BDD
:10429800D3F8E03003F040633B633B6BB3F1406F0E
:1042A8003DD03B6BB3F1406F5CD83B6BB3F1006F13
:1042B80014D03B6BB3F1006F54D83B6B002B1FD06D
:1042C8003B6BB3F1806F12D04CE000BF000C02468C
:1042D80020A107000024F40000127A0007F124034B
:1042E8001846FFF78BFABB6A7B6301F069B807F1E0
:1042F80018031846FFF7DCFBFB697B6301F060B825
:10430800A74B1B6803F40053B3F5005F03D1A54B1B
:104318007B6301F055B800237B6301F051B8A04BD3
:104328001B6803F02003202B18D19D4B9B6803F4D6
:104338000003002B05D09A4B9B681B0E03F00F035C
:1043480006E0974BD3F8F4301B041B0E03F00F0361
:10435800954A52F823307B6301F032B800237B631F
:1043680001F02EB800237B6301F02AB8D7E90023B7
:10437800A2F500110B437FD1894BD3F8E43003F445
:1043880080433B633B6B002B65D1854BD3F8E03012
:1043980003F040633B633B6BB3F1406F34D03B6B3E
:1043A800B3F1406F53D83B6BB3F1006F0BD03B6B4D
:1043B800B3F1006F4BD83B6B002B16D03B6BB3F1BE
:1043C800806F09D043E007F124031846FFF716FA77
:1043D800BB6A7B6300F0F4BF07F118031846FFF7C8
:1043E80067FBFB697B6300F0EBBF6D4B1B6803F455
:1043F8000053B3F5005F03D16A4B7B6300F0E0BF65
:1044080000237B6300F0DCBF654B1B6803F02003CF
:10441800202B18D1624B9B6803F40003002B05D0B6
:104428005F4B9B681B0E03F00F0306E05C4BD3F851
:10443800F4301B041B0E03F00F035B4A52F82330C1
:104448007B6300F0BDBF00237B6300F0B9BF00238E
:104458007B6300F0B5BF3B6BB3F5804F08D107F124
:1044680024031846FFF7CAF97B6A7B6300F0A8BFEC
:1044780000237B6300F0A4BFD7E90023511E0B4340
:1044880036D1474BD3F8E03003F003033B633B6B73
:10449800002B04D1FEF744FB786300F091BF3B6B1F
:1044A800012B04D1FEF70CFA786300F089BF3C4B6E
:1044B8001B6803F48063B3F5806F06D13B6B022B56
:1044C80003D13A4B7B6300F07BBF354BD3F8F03018
:1044D80003F00203022B07D13B6B032B04D14FF4EB
:1044E80000437B6300F06CBF00237B6300F068BF70
:1044F800D7E90023911E0B4336D1294BD3F8E0307E
:1045080003F00C033B633B6B002B04D1FEF7F4FA7A
:10451800786300F055BF3B6B042B04D1FEF7D0F94C
:10452800786300F04DBF1E4B1B6803F48063B3F53E
:10453800806F06D13B6B082B03D11C4B7B6300F0CB
:104548003FBF174BD3F8F03003F00203022B07D11B
:104558003B6B0C2B04D14FF400437B6300F030BF5E
:1045680000237B6300F02CBFD7E90023111F0B4306
:104578003FD10B4BD3F8E03003F030033B633B6B88
:10458800002B04D1FEF7B8FA786300F019BF3B6B33
:10459800102B0DD1FEF794F9786300F011BF00BF1E
:1045A800000C0246006CDC02F08A00080024F400CB
:1045B800A64B1B6803F48063B3F5806F06D13B6B91
:1045C800202B03D1A24B7B6300F0FABE9F4BD3F89C
:1045D800F03003F00203022B07D13B6B302B04D1E0
:1045E8004FF400437B6300F0EBBE00237B6300F0D5
:1045F800E7BED7E90023A2F108010B4336D1934B5C
:10460800D3F8E03003F0C0033B633B6B002B04D1CD
:10461800FEF772FA786300F0D3BE3B6B402B04D1EF
:10462800FEF74EF9786300F0CBBE884B1B6803F4A5
:104638008063B3F5806F06D13B6B802B03D1844B2D
:104648007B6300F0BDBE814BD3F8F03003F002036A
:10465800022B07D13B6BC02B04D14FF400437B6383
:1046680000F0AEBE00237B6300F0AABED7E90023AA
:10467800A2F110010B4339D1744BD3F8E03003F4A5
:1046880040733B633B6B002B04D1FEF735FA78632C
:1046980000F096BE3B6BB3F5807F04D1FEF710F9AE
:1046A800786300F08DBE694B1B6803F48063B3F533
:1046B800806F07D13B6BB3F5007F03D1644B7B63FD
:1046C80000F07EBE614BD3F8F03003F00203022BFA
:1046D80008D13B6BB3F5407F04D14FF400437B63B3
:1046E80000F06EBE00237B6300F06ABED7E90023AA
:1046F800A2F120010B4358D1544BD3F8E83003F012
:1047080007033B633B6B002B04D1FEF71DFA78636C
:1047180000F056BE3B6B012B04D1FEF7D1F878634D
:1047280000F04EBE494B1B6803F48063B3F5806FFD
:1047380006D13B6B022B03D1454B7B6300F040BE97
:10474800424BD3F8F03003F00203022B07D13B6B46
:10475800032B04D14FF400437B6300F031BE3B4B85
:104768001B6803F02003202B1BD13B6B042B18D1B3
:10477800364B9B6803F40003002B05D0334B9B6832
:104788001B0E03F00F0306E0304BD3F8F4301B0484
:104798001B0E03F00F032F4A52F823307B6300F0FF
:1047A8000FBE00237B6300F00BBED7E90023A2F500
:1047B80000410B4372D1254BD3F8E83003F4E043B2
:1047C8003B633B6BB3F5805F04D1FEF779F8786300
:1047D80000F0F6BD3B6BB3F5005F08D107F1180395
:1047E8001846FFF765F93B6A7B6300F0E9BD3B6B50
:1047F800002B04D1FEF766F9786300F0E1BD3B6B4E
:10480800B3F5A04F28D1114B1B6803F02003202BD0
:1048180018D10E4B9B6803F40003002B05D00B4BFB
:104828009B681B0E03F00F0306E0084BD3F8F43027
:104838001B041B0E03F00F03064A52F823307B6358
:1048480000F0BEBD00237B6300F0BABD000C024639
:104858000024F400F08A0008AF4B1B6803F400330F
:10486800B3F5003F07D13B6BB3F5405F03D1AB4BCA
:104878007B6300F0A5BDA84B1B6803F48063B3F508
:10488800806F07D13B6BB3F5804F03D1A34B7B639C
:1048980000F096BD00237B6300F092BDD7E90023AA
:1048A800A2F580310B4358D19B4BD3F8E43003F089
:1048B80007033B633B6B042B4BD801A252F823F050
:1048C80001490008DD480008EF4800080B490008C6
:1048D8001549000807F124031846FEF78FFF7B6A85
:1048E8007B6300F06DBD07F10C031846FFF73AFA39
:1048F8003B697B6300F064BDFEF7E4F8786300F081
:104908005FBD4BF680337B6300F05ABD824B1B685A
:1049180003F02003202B18D17F4B9B6803F400037E
:10492800002B05D07C4B9B681B0E03F00F0306E0A1
:10493800794BD3F8F4301B041B0E03F00F03784AAD
:1049480052F823307B6300F03BBD00237B6300F00B
:1049580037BD00237B6300F033BDD7E90023A2F500
:1049680000310B4367D16C4BD3F8E83003F4E023F4
:104978003B633B6BB3F5802F36D03B6BB3F5802F91
:1049880055D83B6BB3F5403F29D03B6BB3F5403F5F
:104998004DD83B6BB3F5003F13D03B6BB3F5003FED
:1049A80045D83B6B002B15D03B6BB3F5803F3ED110
:1049B80007F124031846FEF721FF7B6A7B6300F0AA
:1049C800FFBC07F10C031846FFF7CCF93B697B6382
:1049D80000F0F6BCFEF776F8786300F0F1BC4BF611
:1049E80080337B6300F0ECBC4B4B1B6803F0200367
:1049F800202B18D1484B9B6803F40003002B05D0EB
:104A0800454B9B681B0E03F00F0306E0424BD3F89F
:104A1800F4301B041B0E03F00F03414A52F82330F5
:104A28007B6300F0CDBC00237B6300F0C9BC00238E
:104A38007B6300F0C5BCD7E90023A2F140010B431A
:104A48004CD1354BD3F8E03003F440633B633B6B08
:104A5800002B04D1FEF750F8786300F0B1BC3B6B33
:104A6800B3F5806F04D1FDF72BFF786300F0A8BC85
:104A7800294B1B6803F48063B3F5806F07D13B6B48
:104A8800B3F5006F03D1254B7B6300F099BC224B33
:104A98001B6803F02003202B1CD13B6BB3F5406F40
:104AA80018D11D4B9B6803F40003002B05D01A4B4B
:104AB8009B681B0E03F00F0306E0174BD3F8F43086
:104AC8001B041B0E03F00F03154A52F823307B63B7
:104AD80000F076BC00237B6300F072BCD7E90023AA
:104AE800A2F180010B4353D10B4BD3F8E03003F410
:104AF80040533B633B6B002B04D1FDF7FDFF78630C
:104B080000F05EBC3B6BB3F5805F0BD1FDF7D8FEC0
:104B1800786300F055BC00BF000C02460024F40086
:104B2800F08A0008A14B1B6803F48063B3F5806F1B
:104B380007D13B6BB3F5005F03D19D4B7B6300F05E
:104B48003FBC9A4B1B6803F02003202B1CD13B6B06
:104B5800B3F5405F18D1954B9B6803F40003002B15
:104B680005D0924B9B681B0E03F00F0306E08F4B9A
:104B7800D3F8F4301B041B0E03F00F038D4A52F8D0
:104B880023307B6300F01CBC00237B6300F018BC5F
:104B9800D7E90023A2F580710B4351D1834BD3F899
:104BA800E83003F0C0033B633B6BC02B24D03B6B66
:104BB800C02B42D83B6B802B0DD03B6B802B3CD855
:104BC8003B6B002B03D03B6B402B11D035E0FDF73E
:104BD800BBFF7863F4E3754B1B6803F48063B3F59C
:104BE800806F02D1724B7B63EAE300237B63E7E3C8
:104BF800FDF766FE7863E3E36C4B1B6803F0200364
:104C0800202B17D1694B9B6803F40003002B05D0B8
:104C1800664B9B681B0E03F00F0306E0634BD3F84B
:104C2800F4301B041B0E03F00F03624A52F82330C2
:104C38007B63C5E300237B63C2E300237B63BFE39D
:104C4800D7E90023A2F580010B4347D1574BD3F88E
:104C5800E03003F440433B633B6B002B03D1FDF78B
:104C68004BFF7863ACE33B6BB3F5804F03D1FDF7A3
:104C780027FE7863A4E34D4B1B6803F48063B3F508
:104C8800806F06D13B6BB3F5004F02D1484B7B6375
:104C980096E3464B1B6803F02003202B1BD13B6B8C
:104CA800B3F5404F17D1414B9B6803F40003002B29
:104CB80005D03E4B9B681B0E03F00F0306E03B4BF1
:104CC800D3F8F4301B041B0E03F00F03394A52F8D3
:104CD80023307B6374E300237B6371E3D7E900230C
:104CE800A2F500610B436AD1304BD3F8E83003F4E6
:104CF80040733B633B6B002B20D12C4B1B6803F0AC
:104D08002003202B17D1294B9B6803F40003002BA9
:104D180005D0264B9B681B0E03F00F0306E0234BC0
:104D2800D3F8F4301B041B0E03F00F03214A52F88A
:104D380023307B6344E300237B6341E31B4BD3F8BD
:104D4800F03003F00063B3F1006F12D13B6BB3F5A1
:104D5800807F0ED1154BD3F8F03003F08053B3F1B8
:104D6800805F02D1FA237B632AE34FF4FA437B6323
:104D780026E30E4B1B6803F48063B3F5806F06D1FE
:104D88003B6BB3F5007F02D1094B7B6318E3074BFC
:104D9800D3F8F03003F00203022B0DD13B6BB3F5CF
:104DA800407F09D14FF400437B6309E3000C0246BE
:104DB8000024F400F08A000800237B6300E3D7E9AD
:104DC8000023A2F500710B4364D1A24BD3F8E8305D
:104DD80003F440633B633B6B002B20D19D4B1B6866
:104DE80003F02003202B17D19A4B9B6803F4000390
:104DF800002B05D0974B9B681B0E03F00F0306E0B2
:104E0800944BD3F8F4301B041B0E03F00F03924AA3
:104E180052F823307B63D3E200237B63D0E28D4BCF
:104E2800D3F8F03003F00063B3F1006F12D13B6B9D
:104E3800B3F5806F0ED1874BD3F8F03003F0805371
:104E4800B3F1805F02D1FA237B63B9E24FF4FA43EE
:104E58007B63B5E27F4B1B6803F48063B3F5806F17
:104E680006D13B6BB3F5006F02D17C4B7B63A7E2A5
:104E7800784BD3F8F03003F00203022B07D13B6BD9
:104E8800B3F5406F03D14FF400437B6398E20023EE
:104E98007B6395E2D7E90023A2F580610B4347D1F4
:104EA8006C4BD3F8E03003F440233B633B6B002B9F
:104EB80003D1FDF721FE786382E2664BD3F8F03028
:104EC80003F00063B3F1006F12D13B6BB3F5802F91
:104ED8000ED1604BD3F8F03003F08053B3F1805F0C
:104EE80002D1FA237B636BE24FF4FA437B6367E2F8
:104EF800584B1B6803F48063B3F5806F06D13B6B96
:104F0800B3F5002F02D1554B7B6359E2514BD3F8CF
:104F1800F03003F00203022B07D13B6BB3F5402FAF
:104F280003D14FF400437B634AE200237B6347E2EB
:104F3800D7E9002302F178410B432DD1454BD3F833
:104F4800E03003F040733B63424B1B6803F40033CB
:104F5800B3F5003F05D13B6B002B02D13F4B7B6380
:104F68002EE23B6BB3F1807F07D107F1240318468B
:104F7800FEF744FCBB6A7B6322E23B6BB3F1007F24
:104F880007D107F118031846FEF792FDBB697B634A
:104F980016E200237B6313E2D7E90023A2F50001A0
:104FA8000B435DD12B4BD3F8E03003F440133B6344
:104FB8003B6BB3F5401F28D03B6BB3F5401F45D87A
:104FC8003B6BB3F5001F13D03B6BB3F5001F3DD807
:104FD8003B6B002B04D03B6BB3F5801F04D035E04E
:104FE800FDF79EFD7863EBE1FDF76AFC7863E7E186
:104FF800184B1B6803F48063B3F5806F02D1174B1D
:105008007B63DDE100237B63DAE1124B1B6803F06D
:105018002003202B17D10F4B9B6803F40003002BB0
:1050280005D00C4B9B681B0E03F00F0306E0094BE1
:10503800D3F8F4301B041B0E03F00F03064A52F892
:1050480023307B63BCE100237B63B9E100237B63EE
:10505800B6E100BF000C0246F08A00080024F40004
:10506800D7E9002302F17F410B4356D1A54BD3F872
:10507800E03003F440333B633B6BB3F5403F28D04B
:105088003B6BB3F5403F45D83B6BB3F5003F13D0BE
:105098003B6BB3F5003F3DD83B6B002B04D03B6B1B
:1050A800B3F5803F04D035E0FDF726FD786387E14E
:1050B800FDF706FC786383E1924B1B6803F4806379
:1050C800B3F5806F02D1904B7B6379E100237B635A
:1050D80076E18C4B1B6803F02003202B17D1894BFA
:1050E8009B6803F40003002B05D0864B9B681B0EBE
:1050F80003F00F0306E0834BD3F8F4301B041B0EB8
:1051080003F00F03814A52F823307B6358E10023F0
:105118007B6355E100237B6352E1D7E9002302F169
:105128007E410B4377D1774BD3F8E83003F018036F
:105138003B633B6B182B6BD801A252F823F000BFDE
:10514800AD510008195200081952000819520008F8
:10515800195200081952000819520008195200087B
:10516800B5510008195200081952000819520008D0
:10517800195200081952000819520008195200085B
:10518800BD510008195200081952000819520008A8
:10519800195200081952000819520008195200083B
:1051A800D7510008FDF7D0FC786309E1FDF788FBCB
:1051B800786305E1534B1B6803F48063B3F5806F94
:1051C80002D1514B7B63FBE000237B63F8E04D4B3E
:1051D8001B6803F02003202B17D14A4B9B6803F46C
:1051E8000003002B05D0474B9B681B0E03F00F03F1
:1051F80006E0444BD3F8F4301B041B0E03F00F03F6
:10520800424A52F823307B63DAE000237B63D7E01D
:1052180000237B63D4E0D7E9002302F17C410B43F0
:1052280055D1384BD3F8E43003F440133B633B6B60
:10523800B3F5401F13D03B6BB3F5401F44D83B6B0D
:10524800B3F5001F13D03B6BB3F5001F3CD83B6B85
:10525800002B14D03B6BB3F5801F14D034E007F15A
:1052680018031846FEF724FCFB697B63A8E007F1E6
:1052780024031846FEF7C2FABB6A7B63A0E0FDF779
:105288001FFB78639CE01F4B1B6803F02003202B57
:1052980017D11C4B9B6803F40003002B05D0194B56
:1052A8009B681B0E03F00F0306E0164BD3F8F4308F
:1052B8001B041B0E03F00F03144A52F823307B63C0
:1052C8007EE000237B637BE000237B6378E0D7E903
:1052D800002302F170410B4338D10A4BD3F8E83070
:1052E80003F400433B63074BD3F8F03003F00203A9
:1052F800022B0DD13B6B002B0AD14FF400437B638B
:105308005EE000BF000C02460024F400F08A0008AA
:105318002E4BD3F8F03003F00063B3F1006F12D1D5
:105328003B6BB3F5004F0ED1284BD3F8F03003F0A8
:105338008053B3F1805F02D1FA237B6340E04FF4DE
:10534800FA437B633CE000237B6339E0D7E9002321
:10535800A2F500210B4331D11C4BD3F8E43003F400
:1053680040533B63194B1B6803F40053B3F5005FCC
:1053780005D13B6B002B02D1154B7B6320E0134B0F
:105388001B6803F40053B3F5005F06D13B6BB3F51C
:10539800805F02D10F4B7B6312E00C4B1B6803F458
:1053A8008063B3F5806F06D13B6BB3F5005F02D124
:1053B800094B7B6304E000237B6301E000237B63EC
:1053C8007B6B18463837BD4680BD00BF000C0246CF
:1053D800006CDC0200366E010024F40080B584B055
:1053E80000AF7860474B1B68464A23F08063136020
:1053F800FBF7B8F9F86008E0FBF7B4F90246FB6878
:10540800D31A022B01D9032377E03E4B1B6803F024
:105418000063002BF0D13B4BDB6A23F4706323F06D
:1054280003037A6811687A685268013A12020A43DB
:1054380034491343CB62334BDA6B334B13407A68EE
:105448009268013AC2F308017A68D268013A5202B6
:1054580092B211437A681269013A120402F4FE0208
:1054680011437A685269013A120602F0FE420A4371
:1054780024491343CB63234BDB6A23F00C027B687C
:105488009B6920491343CB621E4BDA6A7B681B6A0F
:105498001C491343CB621B4BDB6A1A4A23F01003E7
:1054A800D362184B1B6C23F47F4323F0F8037A680C
:1054B800D269D200134913430B64124BDB6A114AB9
:1054C80043F01003D3620F4B1B680E4A43F080630E
:1054D8001360FBF747F9F86008E0FBF743F9024669
:1054E800FB68D31A022B01D9032306E0054B1B687E
:1054F80003F00063002BF0D0002318461037BD4698
:1055080080BD00BF000C02460000808080B584B0DA
:1055180000AF7860474B1B68464A23F080531360FE
:10552800FBF720F9F86008E0FBF71CF90246FB6876
:10553800D31A022B01D9032377E03E4B1B6803F0F3
:105548000053002BF0D13B4B1B6B23F4706323F00B
:1055580003037A6811687A685268013A12020A43AA
:10556800344913430B63334B5A6C334B13407A68FB
:105578009268013AC2F308017A68D268013A520285
:1055880092B211437A681269013A120402F4FE02D7
:1055980011437A685269013A120602F0FE420A4340
:1055A800244913434B64234B1B6B23F00C027B6889
:1055B8009B69204913430B631E4B1A6B7B681B6A5C
:1055C8001C4913430B631B4B1B6B1A4A23F0100334
:1055D8001363184B9B6C23F47F4323F0F8037A681A
:1055E800D269D200134913438B64124B1B6B114AC7
:1055F80043F0100313630F4B1B680E4A43F08053AC
:105608001360FBF7AFF8F86008E0FBF7ABF8024669
:10561800FB68D31A022B01D9032306E0054B1B684C
:1056280003F00053002BF0D0002318461037BD4676
:1056380080BD00BF000C02460000808080B584B0A9
:1056480000AF78600123FB737B68002B7BD07B68FD
:1056580093F82D30DBB2002B06D17B68002283F84B
:105668002C20786801F0C0FF7B68022283F82D2087
:10567800374BDB6803F01003102B5BD0344BDB682F
:1056880003F44073B3F5807F51D0314BCA225A627C
:105698002F4B53225A62786800F0B0F90346FB7327
:1056A800FB7B002B3FD12A4B9B69294A23F08E6351
:1056B80023F040039361264B9A697B6859687B689D
:1056C8001B6919437B689B690B43214913438B6111
:1056D8007B68DA687B689B681B041D4913430B6170
:1056E8001B4BDB6823F4F8527B68596A7B689B6A1A
:1056F8000B4317491343CB60786800F0BBF90346A6
:10570800FB73FB7B002B0ED1114B9B6923F060428E
:105718007B68196A7B68DB6919437B685B690B43A3
:105728000B4913438B610A4BFF225A6204E00023A2
:10573800FB7301E00023FB73FB7B002B03D17B6829
:10574800012283F82D20FB7B18461037BD4680BD0B
:105758000078004690B587B000AFF860B9607A600D
:10576800FB6893F82C30012B01D1022388E0FB68F9
:10577800012283F82C20FB68022283F82D20424B5B
:10578800CA225A62404B53225A62F86800F036F92E
:105798000346FB74FB7C002B63D13B4BDB6803F4B3
:1057A8004073B3F5807F57D07B68002B25D1364BEB
:1057B8009B6903F04003002B02D1BB680022DA701A
:1057C800BB681B78184600F093F903461C04BB68B5
:1057D8005B78184600F08CF903461B021C43BB6833
:1057E8009B78184600F084F9034644EA0302BB6834
:1057F800DB789B0513437B6117E0234B9B6903F020
:105808004003002B02D1BB680022DA70BB681B780A
:105818001A04BB685B781B021343BA6892781A4370
:10582800BB68DB789B0513437B61174A7B6903F0F0
:105838007F3323F0FE431360134B9B69124A23F412
:1058480080239361104B9A69BB68D968BB681B6950
:105858000B430D4913438B61F86800F00BF90346BD
:10586800FB74094BFF225A62FB7C002B03D1FB68B7
:10587800012283F82D20FB68002283F82C20FB7C72
:1058880018461C37BD4690BD0078004690B587B0D5
:1058980000AFF860B9607A60FB6893F82C30012B90
:1058A80001D1022371E0FB68012283F82C20FB68F8
:1058B800022283F82D207B68002B0ED1BB685B7811
:1058C80003F01003002B08D0BB685B7823F01003AB
:1058D800DBB20A33DAB2BB685A707B68002B1CD182
:1058E800BB68DB78184600F003F903461C04BB6864
:1058F8005B78184600F0FCF803461B021C43BB68A3
:105908009B78184600F0F4F8034644EA0302BB68A3
:105918001B785B0313437B610EE0BB68DB781A04DA
:10592800BB685B781B021343BA6892781A43BB685A
:105938001B785B0313437B61164BCA225A62154BD3
:1059480053225A62F86800F059F80346FB74FB7C4E
:10595800002B0BD10F4A7B6923F07F4323F0C00350
:105968005360F86800F086F80346FB74094BFF2281
:105978005A62FB7C002B03D1FB68012283F82D209F
:10598800FB68002283F82C20FB7C18461C37BD4698
:1059980090BD00BF0078004680B584B000AF786045
:1059A800154BDB68144A23F02003D360FAF7DAFEBC
:1059B800F86013E0FAF7D6FE0246FB68D31AB3F58F
:1059C8007A7F0BD90C4BDB6803F02003002B0CD13A
:1059D8007B68032283F82D20032308E0064BDB684D
:1059E80003F02003002BE5D000E000BF0023184699
:1059F8001037BD4680BD00BF0078004680B584B032
:105A080000AF78600023FB73194BDB6803F0400399
:105A1800002B28D1164BDB68154A43F08003D3606E
:105A2800FAF7A0FEB86013E0FAF79CFE0246BB68DE
:105A3800D31AB3F57A7F0BD90D4BDB6803F040031B
:105A4800002B0FD10323FB737B68032283F82D20DF
:105A5800074BDB6803F04003002B04D1FB7B032BCF
:105A6800E2D100E000BFFB7B18461037BD4680BD81
:105A78000078004680B584B000AF78600023FB73DF
:105A88001A4BDB68194A23F08003D360174B9B69D4
:105A980003F02003002B0CD17868FFF77DFF034645
:105AA800002B1ED07B68032283F82D200323FB7371
:105AB80017E00E4B9B690D4A23F020039361786829
:105AC800FFF76AFF0346002B05D07B68032283F8A3
